{
  "transactions": [
    {
      "hash": "0x88590e2168d60a9f2574326051be673985971f082c588fd6c4038731a5918fd2",
      "transactionType": "CALL",
      "contractName": null,
      "contractAddress": "0x5cbad8c3a18f37bc829e319533927a57d2bc99a4",
      "function": "totalWithdrawal(address,address)",
      "arguments": [
        "0x865377367054516e17014CcdED1e7d814EDC9ce4",
        "0x435B0A1884bd0fb5667677C9eb0e59425b1477E5"
      ],
      "transaction": {
        "from": "0xcad1a7864a108dbff67f4b8af71fab0c7a86d0b6",
        "to": "0x5cbad8c3a18f37bc829e319533927a57d2bc99a4",
        "gas": "0x22243",
        "value": "0x0",
        "input": "0x32e4036d000000000000000000000000865377367054516e17014ccded1e7d814edc9ce4000000000000000000000000435b0a1884bd0fb5667677c9eb0e59425b1477e5",
        "nonce": "0xcc",
        "chainId": "0x1"
      },
      "additionalContracts": [],
      "isFixedGasLimit": false
    }
  ],
  "receipts": [
    {
      "status": "0x1",
      "cumulativeGasUsed": "0x15f797b",
      "logs": [
        {
          "address": "0x5cbad8c3a18f37bc829e319533927a57d2bc99a4",
          "topics": [
            "0xd9fbd8fe4451ae979e36c7923543e61b94e26b6f1510866805ee90023a61aa21",
            "0x000000000000000000000000865377367054516e17014ccded1e7d814edc9ce4",
            "0x000000000000000000000000435b0a1884bd0fb5667677c9eb0e59425b1477e5"
          ],
          "data": "0x0000000000000000000000000000000000000000000002d0da36df2937746bc20000000000000000000000000000000000000000000000000000000069c695cf0000000000000000000000000000000000000000000000000000000069c7e74f",
          "blockHash": "0xf8367917dd896feee65f36eda25e83038a1c4016161ea8cefe43ece695570df7",
          "blockNumber": "0x179a5dc",
          "blockTimestamp": "0x69c695cf",
          "transactionHash": "0x88590e2168d60a9f2574326051be673985971f082c588fd6c4038731a5918fd2",
          "transactionIndex": "0x86",
          "logIndex": "0x23a",
          "removed": false
        }
      ],
      "logsBloom": "0x00000000000000000000000040000000000004000000000000000000000000081000000000000000000000000000080000000000000000000000000000800000000000000080000000000000000000000000000000000000000000000000000000000000000000000000000000000000000000000000000000000010000000000100000000000000000000000000000000000000000000000000000000000000000000000000000000000000000000000000000000000000000000000000000000000004001000000000000000000000000000020000000000000000000000000000000000000000000000000000000000000000000000000000000000000000",
      "type": "0x2",
      "transactionHash": "0x88590e2168d60a9f2574326051be673985971f082c588fd6c4038731a5918fd2",
      "transactionIndex": "0x86",
      "blockHash": "0xf8367917dd896feee65f36eda25e83038a1c4016161ea8cefe43ece695570df7",
      "blockNumber": "0x179a5dc",
      "gasUsed": "0x18b7d",
      "effectiveGasPrice": "0x175747fa",
      "from": "0xcad1a7864a108dbff67f4b8af71fab0c7a86d0b6",
      "to": "0x5cbad8c3a18f37bc829e319533927a57d2bc99a4",
      "contractAddress": null
    }
  ],
  "libraries": [],
  "pending": [],
  "returns": {},
  "timestamp": 1774622161744,
  "chain": 1,
  "commit": "bdb6dfb"
}