{
  "transactions": [
    {
      "hash": "0xd780863866bffc125b9614436b06b6c874e22f7e74d19268806aa4284bf6cdda",
      "transactionType": "CREATE",
      "contractName": "BatchNFTMinter",
      "contractAddress": "0x4ef0fde49360ed31c68ed442ff263cc6291041f3",
      "function": null,
      "arguments": [
        "0xCad1a7864a108DBFF67F4b8af71fAB0C7A86D0B6"
      ],
      "transaction": {
        "from": "0xcad1a7864a108dbff67f4b8af71fab0c7a86d0b6",
        "value": "0x0",
        "input": "0x60803460b857601f610c8238819003918201601f19168301916001600160401b0383118484101760bc5780849260209460405283398101031260b857516001600160a01b0381169081900360b857801560a5575f80546001600160a01b031981168317825560405192916001600160a01b03909116907f8be0079c531659141344cd1fd0a4f28419497f9722a3daafe3b4186f6b6457e09080a3610bb190816100d18239f35b631e4fbdf760e01b5f525f60045260245ffd5b5f80fd5b634e487b7160e01b5f52604160045260245ffdfe6080806040526004361015610012575f80fd5b5f3560e01c908163575514561461086857508063715018a6146107ec57806372ad5375146107b95780638da5cb5b14610787578063cb1fd8c814610700578063f2fde38b14610632578063f466eb7c146100c45763f79dbe9e14610074575f80fd5b346100c05760206003193601126100c0577ff435fc90cf0d233d2031e34c7e0a6bcbd6c56f749449163e019be8da37a0f59e60206004356100b3610913565b80600155604051908152a1005b5f80fd5b346100c05760c06003193601126100c05760043573ffffffffffffffffffffffffffffffffffffffff81168091036100c05760243573ffffffffffffffffffffffffffffffffffffffff8116908181036100c057604435926064359360843573ffffffffffffffffffffffffffffffffffffffff8116918282036100c05760a43596801561060a5783156105e25760025473ffffffffffffffffffffffffffffffffffffffff16948515159283806105d9575b6105b1576040517f23b872dd000000000000000000000000000000000000000000000000000000005f5233600452306024528a60445260205f606481808d5af19060015f5114821615610590575b6040525f60605215610564576101fc7fffffffffffffffffffffffffffffffffffffffffffffffffffffffffffffffff838a610a20565b15610525575b5f5b83811061049e5750506102185f8289610a20565b15610421575b506001548015159182610416575b5050610331575b505050506020602492604051938480927f70a082310000000000000000000000000000000000000000000000000000000082523060048301525afa918215610326575f926102f2575b50620f42408204156102e8578161029491339061095f565b808211156102de5781039081116102b1576020905b604051908152f35b7f4e487b71000000000000000000000000000000000000000000000000000000005f52601160045260245ffd5b505060205f6102a9565b50506020906102a9565b9091506020813d60201161031e575b8161030e602093836108a5565b810103126100c05751908361027c565b3d9150610301565b6040513d5f823e3d90fd5b61033c575b80610233565b604051907f70a08231000000000000000000000000000000000000000000000000000000008252306004830152602082602481875afa918215610326575f926103d9575b509181602496936020959361039b575b505050819450610336565b816103c97fd14d2c791164ea474a06eb987fa9fb219324ccf890a9ab0322f2f98b55f1994a9388938761095f565b604051908152a385808080610390565b93915094916020843d60201161040e575b816103f7602093836108a5565b810103126100c05792519194909291906024610380565b3d91506103ea565b10159050888061022c565b61042b8188610a94565b15610472575f61043b9188610b19565b15610446578861021e565b867f5274afe7000000000000000000000000000000000000000000000000000000005f5260045260245ffd5b877f5274afe7000000000000000000000000000000000000000000000000000000005f5260045260245ffd5b6040517f94bf804d0000000000000000000000000000000000000000000000000000000081528260048201528760248201526020816044815f885af18015610326576104ee575b50600101610204565b6020813d821161051d575b81610506602093836108a5565b810103126100c05751801515036100c0578b6104e5565b3d91506104f9565b61052f8289610a94565b156105645761055f7fffffffffffffffffffffffffffffffffffffffffffffffffffffffffffffffff838a610b19565b610202575b887f5274afe7000000000000000000000000000000000000000000000000000000005f5260045260245ffd5b9060018115166105a857893b15153d151616906101c5565b503d5f823e3d90fd5b7f235621ef000000000000000000000000000000000000000000000000000000005f5260045ffd5b50888714610177565b7f485177f3000000000000000000000000000000000000000000000000000000005f5260045ffd5b7fc0140d03000000000000000000000000000000000000000000000000000000005f5260045ffd5b346100c05760206003193601126100c05773ffffffffffffffffffffffffffffffffffffffff610660610882565b610668610913565b1680156106d45773ffffffffffffffffffffffffffffffffffffffff5f54827fffffffffffffffffffffffff00000000000000000000000000000000000000008216175f55167f8be0079c531659141344cd1fd0a4f28419497f9722a3daafe3b4186f6b6457e05f80a3005b7f1e4fbdf7000000000000000000000000000000000000000000000000000000005f525f60045260245ffd5b346100c05760206003193601126100c05773ffffffffffffffffffffffffffffffffffffffff61072e610882565b610736610913565b16807fffffffffffffffffffffffff000000000000000000000000000000000000000060025416176002557f6c1669a9d4dde92eb8b509697810f4688f8e6a2fe69dc291ccfcf3a0f9c3a2ff5f80a2005b346100c0575f6003193601126100c057602073ffffffffffffffffffffffffffffffffffffffff5f5416604051908152f35b346100c0575f6003193601126100c057602073ffffffffffffffffffffffffffffffffffffffff60025416604051908152f35b346100c0575f6003193601126100c057610804610913565b5f73ffffffffffffffffffffffffffffffffffffffff81547fffffffffffffffffffffffff000000000000000000000000000000000000000081168355167f8be0079c531659141344cd1fd0a4f28419497f9722a3daafe3b4186f6b6457e08280a3005b346100c0575f6003193601126100c0576020906001548152f35b6004359073ffffffffffffffffffffffffffffffffffffffff821682036100c057565b90601f7fffffffffffffffffffffffffffffffffffffffffffffffffffffffffffffffe0910116810190811067ffffffffffffffff8211176108e657604052565b7f4e487b71000000000000000000000000000000000000000000000000000000005f52604160045260245ffd5b73ffffffffffffffffffffffffffffffffffffffff5f5416330361093357565b7f118cdaa7000000000000000000000000000000000000000000000000000000005f523360045260245ffd5b9173ffffffffffffffffffffffffffffffffffffffff604051927fa9059cbb000000000000000000000000000000000000000000000000000000005f521660045260245260205f60448180865af19060015f5114821615610a08575b604052156109c65750565b73ffffffffffffffffffffffffffffffffffffffff907f5274afe7000000000000000000000000000000000000000000000000000000005f521660045260245ffd5b9060018115166105a857823b15153d151616906109bb565b929173ffffffffffffffffffffffffffffffffffffffff604051927f095ea7b3000000000000000000000000000000000000000000000000000000005f521660045260245260205f60448180875af19260015f5114841615610a83575b50604052565b3d15903b151516909216915f610a7d565b919073ffffffffffffffffffffffffffffffffffffffff604051917f095ea7b3000000000000000000000000000000000000000000000000000000005f52166004525f60245260205f60448180875af19260015f5114841615610af75750604052565b60018492941516610b10573b15153d151616915f610a7d565b833d5f823e3d90fd5b929173ffffffffffffffffffffffffffffffffffffffff604051927f095ea7b3000000000000000000000000000000000000000000000000000000005f521660045260245260205f60448180875af19260015f5114841615610af7575060405256fea26469706673582212202fc0be6737bfe7d5ca17e1b4ab60b1928e576501a74308984062a3a5b3eb12dc64736f6c634300081e0033000000000000000000000000cad1a7864a108dbff67f4b8af71fab0c7a86d0b6",
        "nonce": "0x1b5",
        "chainId": "0x1"
      },
      "additionalContracts": [],
      "isFixedGasLimit": false
    },
    {
      "hash": "0x67038b07dba678990a39231481a6cfeb413b5b99af3867c412cddf6594847900",
      "transactionType": "CREATE",
      "contractName": "StableYieldAccumulator",
      "contractAddress": "0x3bbe928340c61a65cb6c4a87b3fb59b6f3f7606a",
      "function": null,
      "arguments": null,
      "transaction": {
        "from": "0xcad1a7864a108dbff67f4b8af71fab0c7a86d0b6",
        "value": "0x0",
        "input": "0x6080806040523460955733156082575f8054336001600160a01b0319821681178355916001600160a01b03909116907f8be0079c531659141344cd1fd0a4f28419497f9722a3daafe3b4186f6b6457e09080a360017f9b779b17422d0df92223018b32b4d1fa46e071723d6817e2486d003becc55f005561283d908161009a8239f35b631e4fbdf760e01b5f525f60045260245ffd5b5f80fdfe60806040526004361015610011575f80fd5b5f5f3560e01c80630316bd24146115cf5780630ccb091d1461158c5780631b69dc5f146115345780632d88af4a146114b35780632fbe68391461143257806334d722c91461140b5780633a8107cf146111e75780633b3bff0f146111605780633f4ba83a1461103e57806341103d4214610f54578063454ee0ca14610dc35780634c74183c146103ec5780635c975abb14610d9e57806364c3397714610d7a57806364f5005714610d40578063715018a614610ccf5780637aec978d14610cb45780637bd1f33514610c335780637c41ad2c14610ba95780637c69febd14610b215780638456cb5914610a085780638aee8127146109ab5780638da5cb5b146109855780639008a6421461095e5780639fd0506d14610937578063a1164e7a14610910578063a93e2fd314610884578063a9b639aa1461083f578063b9d3a43814610818578063ba854ee6146105eb578063bf3506c1146105bd578063cb67e3b11461052d578063cf82f169146104f0578063db3692f1146104d2578063dde41c701461040a578063e6c0e6d5146103ec578063f2fde38b14610336578063f7c618c11461030f578063fca3b5aa1461025b5763fe3ffbac146101d2575f80fd5b34610258576020600319360112610258576004356101ee6127a9565b606481116102305760407fc4df7cf7130f9356fe3a29a136c893959b0cdf945bc850d1829b45df203e3ee691600854908060085582519182526020820152a180f35b6004827f3a74cdc7000000000000000000000000000000000000000000000000000000008152fd5b80fd5b5034610258576020600319360112610258576001600160a01b0361027d611ef8565b6102856127a9565b1680156102e7576001600160a01b03600954827fffffffffffffffffffffffff0000000000000000000000000000000000000000821617600955167f1cf2de25c5bf439ac0287061c3a0fa69b3b02867d0ccfd2ded34e42577050b738380a380f35b6004827fd92e233d000000000000000000000000000000000000000000000000000000008152fd5b503461025857806003193601126102585760206001600160a01b0360025416604051908152f35b5034610258576020600319360112610258576001600160a01b03610358611ef8565b6103606127a9565b1680156103c0576001600160a01b038254827fffffffffffffffffffffffff00000000000000000000000000000000000000008216178455167f8be0079c531659141344cd1fd0a4f28419497f9722a3daafe3b4186f6b6457e08380a380f35b6024827f1e4fbdf700000000000000000000000000000000000000000000000000000000815280600452fd5b50346102585780600319360112610258576020600554604051908152f35b503461025857806003193601126102585760405180602060035491828152018091600385527fc2575a0e9e593c00f959f8c92f12db2869c3395a3b0502d05e2516446f71f85b90855b8181106104b35750505082610469910383611f7b565b604051928392602084019060208552518091526040840192915b818110610491575050500390f35b82516001600160a01b0316845285945060209384019390920191600101610483565b82546001600160a01b0316845260209093019260019283019201610453565b50346102585780600319360112610258576020600854604051908152f35b50346102585760206003193601126102585760ff60406020926001600160a01b03610519611ef8565b168152600a84522054166040519015158152f35b50346102585760206003193601126102585760406060916001600160a01b03610554611ef8565b8284805161056181611f32565b828152826020820152015216815260046020522060405161058181611f32565b60ff82541691828252604060ff600260018401549360208601948552015416920191151582526040519283525160208301525115156040820152f35b50346102585760206003193601126102585760206105e16105dc611ef8565b6123f5565b6040519015158152f35b5034610258576020600319360112610258576004356106086127a9565b6001600160a01b036006541680156107f0576001600160a01b03600254169182156107c8576040517f095ea7b3000000000000000000000000000000000000000000000000000000008552826004528160245260208560448180885af19060018651148216156107b9575b6040521561067f578380f35b6040517f095ea7b3000000000000000000000000000000000000000000000000000000008552826004528460245260208560448180885af1906001865114821615610798575b6040521561076c57604051917f095ea7b300000000000000000000000000000000000000000000000000000000855260045260245260208360448180865af190600184511482161561074b575b604052156107205780808380f35b7f5274afe7000000000000000000000000000000000000000000000000000000008252600452602490fd5b90600181151661076357823b15153d15161690610712565b503d83823e3d90fd5b602484847f5274afe7000000000000000000000000000000000000000000000000000000008252600452fd5b9060018115166107b057843b15153d151616906106c5565b503d85823e3d90fd5b90843b15153d15161690610673565b6004847fd92e233d000000000000000000000000000000000000000000000000000000008152fd5b6004837fd92e233d000000000000000000000000000000000000000000000000000000008152fd5b503461025857806003193601126102585760206001600160a01b0360065416604051908152f35b5034610258576020600319360112610258576004359067ffffffffffffffff821161025857602061087c6108763660048601611e82565b9061228b565b604051908152f35b5034610258576020600319360112610258576001600160a01b036108a6611ef8565b6108ae6127a9565b1680156102e7576001600160a01b03600654827fffffffffffffffffffffffff0000000000000000000000000000000000000000821617600655167fa7e775663e2a425eb025700e66923142815918016f708c7ae545e2ebf1477bdc8380a380f35b503461025857806003193601126102585760206001600160a01b03600c5416604051908152f35b503461025857806003193601126102585760206001600160a01b0360015416604051908152f35b503461025857806003193601126102585760206001600160a01b0360075416604051908152f35b50346102585780600319360112610258576001600160a01b036020915416604051908152f35b5034610258576020600319360112610258576001600160a01b036109cd611ef8565b6109d56127a9565b1680156102e7577fffffffffffffffffffffffff0000000000000000000000000000000000000000600254161760025580f35b50346102585780600319360112610258576001600160a01b03600154163303610a9d57610a33612526565b740100000000000000000000000000000000000000007fffffffffffffffffffffff00ffffffffffffffffffffffffffffffffffffffff8254161781557f62e78cea01bee320cd4e420270b5ea74000d11b0c9f74754ebdbfc544b05a2586020604051338152a180f35b60846040517f08c379a000000000000000000000000000000000000000000000000000000000815260206004820152602260248201527f4f6e6c79207061757365722063616e2063616c6c20746869732066756e63746960448201527f6f6e0000000000000000000000000000000000000000000000000000000000006064820152fd5b503461025857602060031936011261025857600435610b3e6127a9565b6127108111610b815760407fbde6b2554a797ee1ab75b4f90ad50200dcd2a80165488896faacd30a0a01317491600554908060055582519182526020820152a180f35b6004827f360df246000000000000000000000000000000000000000000000000000000008152fd5b5034610258576020600319360112610258576001600160a01b03610bcb611ef8565b610bd36127a9565b1680825260046020526002604083200160017fffffffffffffffffffffffffffffffffffffffffffffffffffffffffffffff008254161790557ff017c0de579727a3cd3ee18077ee8b4c43bf21892985952d1d5a0d52f983502d8280a280f35b503461025857602060031936011261025857610c4d611ef8565b610c556127a9565b6001600160a01b0380600c54921691827fffffffffffffffffffffffff0000000000000000000000000000000000000000821617600c55167fa4795e14b1c917ddad7be29b25eaa17e823ed7d0efa398a75d645b11b8476a488380a380f35b5034610258578060031936011261025857602061087c612208565b5034610258578060031936011261025857610ce86127a9565b806001600160a01b0381547fffffffffffffffffffffffff000000000000000000000000000000000000000081168355167f8be0079c531659141344cd1fd0a4f28419497f9722a3daafe3b4186f6b6457e08280a380f35b5034610258576020600319360112610258576001600160a01b03604060209282610d68611ef8565b168152600b8452205416604051908152f35b503461025857602060031936011261025857602061087c610d99611ef8565b61204d565b503461025857806003193601126102585760ff6020915460a01c166040519015158152f35b503461025857604060031936011261025857610ddd611ef8565b6024356001600160a01b038116809103610f5057610df96127a9565b6001600160a01b0382169182156107c85781156107c857828452600a60205260ff604085205416610f285760035468010000000000000000811015610efb5790610e4c826001610e6b9401600355611eb3565b9091906001600160a01b038084549260031b9316831b921b1916179055565b818352600a6020526040832060017fffffffffffffffffffffffffffffffffffffffffffffffffffffffffffffff00825416179055818352600b60205260408320907fffffffffffffffffffffffff00000000000000000000000000000000000000008254161790557fdc4b546afdb935e93f993a347dbbab9b6a533a7c1ab745d14e05163767d5b10a8280a280f35b6024857f4e487b710000000000000000000000000000000000000000000000000000000081526041600452fd5b6004847fabc225e9000000000000000000000000000000000000000000000000000000008152fd5b8280fd5b503461025857606060031936011261025857610f6e611ef8565b60243560ff8116809103610f50576001600160a01b0360443592610f906127a9565b169182156107c85760128211611016577f58e9aed9f5d55d3f9514533a98d34269ea1369f4f0f27c5600146f9c8dca770f916040918486526004602052828620827fffffffffffffffffffffffffffffffffffffffffffffffffffffffffffffff008254161790558486526004602052806001848820015582519182526020820152a280f35b6004847fd25598a0000000000000000000000000000000000000000000000000000000008152fd5b503461025857806003193601126102585780546001600160a01b0381163314801561114c575b156110ee5760ff8160a01c16156110c6577fffffffffffffffffffffff00ffffffffffffffffffffffffffffffffffffffff1681557f5db9ee0a495bf2e6ff9c91a7834c1ba4fdd244a5e8aa4e537bd38aeae4b073aa6020604051338152a180f35b6004827f8dfc202b000000000000000000000000000000000000000000000000000000008152fd5b60646040517f08c379a000000000000000000000000000000000000000000000000000000000815260206004820152602060248201527f4f6e6c79206f776e6572206f72207061757365722063616e20756e70617573656044820152fd5b506001600160a01b03600154163314611064565b5034610258576020600319360112610258576001600160a01b03611182611ef8565b61118a6127a9565b168082526004602052600260408320017fffffffffffffffffffffffffffffffffffffffffffffffffffffffffffffff0081541690557ff38578ed892ce2ce655ca8ae03c73464ad74915a1331a9b4085e637534daeedf8280a280f35b5034610258576020600319360112610258576001600160a01b03611209611ef8565b6112116127a9565b16808252600a60205260ff604083205416156113e357815b600354808210156113dc57826001600160a01b0361124684611eb3565b90549060031b1c161461125c5750600101611229565b7fffffffffffffffffffffffffffffffffffffffffffffffffffffffffffffffff81019081116113af5790610e4c6001600160a01b0361129e6112ac94611eb3565b90549060031b1c1691611eb3565b6003548015611382577fffffffffffffffffffffffffffffffffffffffffffffffffffffffffffffffff016112e081611eb3565b6001600160a01b0382549160031b1b191690556003555b808252600a602052604082207fffffffffffffffffffffffffffffffffffffffffffffffffffffffffffffff008154169055808252600b602052604082207fffffffffffffffffffffffff000000000000000000000000000000000000000081541690557f7bc7e967314c87be019a6f018822e621cf2548b9231ed0605002aceb282e16088280a280f35b6024837f4e487b710000000000000000000000000000000000000000000000000000000081526031600452fd5b6024847f4e487b710000000000000000000000000000000000000000000000000000000081526011600452fd5b50506112f7565b6004827f4f343756000000000000000000000000000000000000000000000000000000008152fd5b503461025857806003193601126102585760206001600160a01b0360095416604051908152f35b50346102585760206003193601126102585761144c611ef8565b6114546127a9565b6001600160a01b0380600754921691827fffffffffffffffffffffffff0000000000000000000000000000000000000000821617600755167fb94dcf2c9ff6813b44ddb73cffafcc975ecb6a70ad6d75e2ed65495b201a419e8380a380f35b5034610258576020600319360112610258576114cd611ef8565b6114d56127a9565b6001600160a01b0380600154921691827fffffffffffffffffffffffff0000000000000000000000000000000000000000821617600155167f1ff153f4b082245afbf3211a8d2d207da4c5df490e965f9a9ad141b0cd001dda8380a380f35b50346102585760206003193601126102585760406060916001600160a01b0361155b611ef8565b16815260046020522060ff8154169060ff600260018301549201541690604051928352602083015215156040820152f35b503461025857602060031936011261025857600435906003548210156102585760206001600160a01b036115bf84611eb3565b90549060031b1c16604051908152f35b5034611cbd576060600319360112611cbd5760043560443567ffffffffffffffff8111611cbd57611604903690600401611e82565b9161160d612526565b60027f9b779b17422d0df92223018b32b4d1fa46e071723d6817e2486d003becc55f005414611e5a5760027f9b779b17422d0df92223018b32b4d1fa46e071723d6817e2486d003becc55f00556001600160a01b036006541615611e32576001600160a01b036002541615611e32576001600160a01b036009541615611e32575f5b838110611dd757506001600160a01b03600c5416908115611d79578015611d1b576040517efdd58e00000000000000000000000000000000000000000000000000000000815233600482015260248101829052602081604481865afa908115611cb2575f91611ce9575b5015611cc157813b15611cbd575f916064839260405194859384927ff5298aca0000000000000000000000000000000000000000000000000000000084523360048501526024840152600160448401525af18015611cb257611c9d575b508280805b600354811015611969576001600160a01b0361177682611eb3565b90549060031b1c16808452600b6020526001600160a01b0360408520541690811561191857818552600460205260ff6002604087200154166119185784855b888110611922575b50611918576117cc828261255c565b90816117e0575b5050506001905b0161175b565b6001600160a01b036009999594995416813b1561191457604051907fedca201b0000000000000000000000000000000000000000000000000000000082528460048301526024820152826044820152336064820152868160848183865af18015611909579087916118f0575b5050916118879161188d94937ff404cd4814ff561c9e00078e4984b7c5580a7d479c47554807962de186f34e9a6020604051848152a2612607565b90611fbc565b907fffffffffffffffffffffffffffffffffffffffffffffffffffffffffffffffff81146118c357600180910195905f806117d3565b6024837f4e487b710000000000000000000000000000000000000000000000000000000081526011600452fd5b816118fa91611f7b565b61190557855f61184c565b8580fd5b6040513d89823e3d90fd5b8680fd5b50506001906117da565b826001600160a01b03611945611940848d8d98999a9d9e979e611f0e565b611f1e565b161461195b5760010197909796939291966117b5565b50965094919060015f6117bd565b5084908015611c7557600554612710039061271082116113af576127109161199091612003565b04906119a86001600160a01b036002541680936126db565b916024358310611c4d57600854151580611c3a575b611c12576040517f23b872dd00000000000000000000000000000000000000000000000000000000855233600452306024528360445260208560648180865af1906001865114821615611bfa575b6040528460605215611bcf5750826064611a2760085485612003565b04611a328185611ff6565b9080611b11575b5080611a9a575b505060405191825260208201527fdacbdde355ba930696a362ea6738feb9f8bd52dfb3d81947558fd3217e23e32560403392a260017f9b779b17422d0df92223018b32b4d1fa46e071723d6817e2486d003becc55f005580f35b6001600160a01b036006541690813b15610f505782916024839260405194859384927fbd3507da00000000000000000000000000000000000000000000000000000000845260048401525af18015611b065715611a405781611afb91611f7b565b610f50578284611a40565b6040513d84823e3d90fd5b9091506001600160a01b0360025416906001600160a01b036007541690604051917fa9059cbb00000000000000000000000000000000000000000000000000000000885260045260245260208660448180865af1906001875114821615611bae575b60405215611b8357908491611a39565b7f5274afe7000000000000000000000000000000000000000000000000000000008552600452602484fd5b906001811516611bc657823b15153d15161690611b73565b503d86823e3d90fd5b7f5274afe7000000000000000000000000000000000000000000000000000000008452600452602483fd5b9060018115166107b057823b15153d15161690611a0b565b6004847f31a06177000000000000000000000000000000000000000000000000000000008152fd5b506001600160a01b0360075416156119bd565b6004847ffa3505cf000000000000000000000000000000000000000000000000000000008152fd5b6004837f1f2a2005000000000000000000000000000000000000000000000000000000008152fd5b611caa9193505f90611f7b565b5f915f611756565b6040513d5f823e3d90fd5b5f80fd5b7f0d78b379000000000000000000000000000000000000000000000000000000005f5260045ffd5b90506020813d602011611d13575b81611d0460209383611f7b565b81010312611cbd57515f6116f9565b3d9150611cf7565b60646040517f08c379a000000000000000000000000000000000000000000000000000000000815260206004820152600d60248201527f496e76616c696420696e646578000000000000000000000000000000000000006044820152fd5b60646040517f08c379a000000000000000000000000000000000000000000000000000000000815260206004820152601960248201527f4e4654206d696e746572206e6f7420636f6e66696775726564000000000000006044820152fd5b6001600160a01b03611ded611940838787611f0e565b165f52600a60205260ff60405f20541615611e0a5760010161168f565b7f57f9f27a000000000000000000000000000000000000000000000000000000005f5260045ffd5b7fd92e233d000000000000000000000000000000000000000000000000000000005f5260045ffd5b7f3ee5aeb5000000000000000000000000000000000000000000000000000000005f5260045ffd5b9181601f84011215611cbd5782359167ffffffffffffffff8311611cbd576020808501948460051b010111611cbd57565b600354811015611ecb5760035f5260205f2001905f90565b7f4e487b71000000000000000000000000000000000000000000000000000000005f52603260045260245ffd5b600435906001600160a01b0382168203611cbd57565b9190811015611ecb5760051b0190565b356001600160a01b0381168103611cbd5790565b6060810190811067ffffffffffffffff821117611f4e57604052565b7f4e487b71000000000000000000000000000000000000000000000000000000005f52604160045260245ffd5b90601f7fffffffffffffffffffffffffffffffffffffffffffffffffffffffffffffffe0910116810190811067ffffffffffffffff821117611f4e57604052565b91908201809211611fc957565b7f4e487b71000000000000000000000000000000000000000000000000000000005f52601160045260245ffd5b91908203918211611fc957565b81810292918115918404141715611fc957565b8115612020570490565b7f4e487b71000000000000000000000000000000000000000000000000000000005f52601260045260245ffd5b6001600160a01b0316805f52600a60205260ff60405f205416156121e0576001600160a01b036009541680156121da57815f52600b6020526001600160a01b0360405f2054169182156121d3576040517f84d10bff0000000000000000000000000000000000000000000000000000000081526001600160a01b038085166004830152831660248201529260208480604481015b0381855afa938415611cb2575f94612198575b506040517fbe875e4f0000000000000000000000000000000000000000000000000000000081526001600160a01b03918216600482015292166024830152602090829060449082905afa908115611cb2575f91612166575b5080821161215a5750505f90565b61216391611ff6565b90565b90506020813d602011612190575b8161218160209383611f7b565b81010312611cbd57515f61214c565b3d9150612174565b91929093506020823d6020116121cb575b816121b660209383611f7b565b81010312611cbd5790519290919060206120f4565b3d91506121a9565b5050505f90565b50505f90565b7f4f343756000000000000000000000000000000000000000000000000000000005f5260045ffd5b6001600160a01b036009541615612287575f5f6003545b80821061222b57505090565b90916001600160a01b0361223e84611eb3565b90549060031b1c16805f52600b6020526001600160a01b0360405f20541690811561227c5791611887612273926001946127e8565b925b019061221f565b505091600190612275565b5f90565b906001600160a01b0360095416156121da575f5b8181106123c257506003545f92835b8281106122f7575050505080156122f257600554612710036127108111611fc9576122df6127109161216393612003565b046001600160a01b0360025416906126db565b505f90565b6001600160a01b0361230882611eb3565b90549060031b1c16805f52600b6020526001600160a01b0360405f20541690811561238957815f52600460205260ff600260405f20015416612389575f5f5b878110612393575b50612389578161235e9161255c565b80612370575b50506001905b016122ae565b956118876123819260019498612607565b94905f612364565b505060019061236a565b826001600160a01b036123aa611940848c8b611f0e565b16146123b857600101612347565b505060015f61234f565b6001600160a01b036123d8611940838587611f0e565b165f52600a60205260ff60405f20541615611e0a5760010161229f565b6001600160a01b03600c54169081156121da57604051917ffc7e9c6f000000000000000000000000000000000000000000000000000000008352602083600481845afa928315611cb2575f936124f2575b5060015b83811061245957505050505f90565b6040517efdd58e0000000000000000000000000000000000000000000000000000000081526001600160a01b038416600482015260248101829052602081604481865afa908115611cb2575f916124c1575b506124b85760010161244a565b50505050600190565b90506020813d82116124ea575b816124db60209383611f7b565b81010312611cbd57515f6124ab565b3d91506124ce565b9092506020813d60201161251e575b8161250e60209383611f7b565b81010312611cbd5751915f612446565b3d9150612501565b60ff5f5460a01c1661253457565b7fd93c0665000000000000000000000000000000000000000000000000000000005f5260045ffd5b6009546040517f84d10bff0000000000000000000000000000000000000000000000000000000081526001600160a01b03848116600483015291821660248201819052909390929091169060208480604481016120e1565b60ff7fffffffffffffffffffffffffffffffffffffffffffffffffffffffffffffffee9116019060ff8211611fc957565b60ff166012039060ff8211611fc957565b60ff16604d8111611fc957600a0a90565b6001600160a01b039091165f908152600460205260409020805460019091015460ff91909116918215806126d3575b6126cd5780601284101561269c575061265a61265561266093946125e5565b6125f6565b90612003565b905b8015158061268a575b612673575090565b61268690670de0b6b3a764000092612003565b0490565b50670de0b6b3a764000081141561266b565b92601281116126ad575b5050612662565b6126c59293506126556126bf916125b4565b90612016565b905f806126a6565b91505090565b508115612636565b906001600160a01b0316805f52600460205260ff60405f205416905f526004602052600160405f200154918115806127a1575b6126cd5780928015158061278f575b612759575b5050601281101561273d57906126bf612655612163936125e5565b60128111612749575090565b9061265a612655612163936125b4565b90919250670de0b6b3a7640000820291808304670de0b6b3a76400001490151715611fc95761278791612016565b905f80612722565b50670de0b6b3a764000081141561271d565b50821561270e565b6001600160a01b035f541633036127bc57565b7f118cdaa7000000000000000000000000000000000000000000000000000000005f523360045260245ffd5b816127f29161255c565b90816127fe5750505f90565b6121639161260756fea264697066735822122032352cc6c917fc22f0ef324e6417aa89cf417dc776c0082242928b1f1ae6273a64736f6c634300081e0033",
        "nonce": "0x1b6",
        "chainId": "0x1"
      },
      "additionalContracts": [],
      "isFixedGasLimit": false
    },
    {
      "hash": "0xeebbc788020ef62b28bb5a4f82ed3cdf9f75a4d6528014b9b52cb029f78344dd",
      "transactionType": "CREATE",
      "contractName": "BalancerPoolerV2",
      "contractAddress": "0x4da153dc02bb084528d10335759f2c4447e6f73d",
      "function": null,
      "arguments": [
        "0xa3931d71877C0E7a3148CB7Eb4463524FEc27fbD",
        "0x642BB6860b4776CC10b26B8f361Fd139E7f0db04",
        "0xbA1333333333a1BA1108E8412f11850A5C319bA9",
        "0x5C6fb490BDFD3246EB0bB062c168DeCAF4bD9FDd",
        "true",
        "0xCad1a7864a108DBFF67F4b8af71fAB0C7A86D0B6"
      ],
      "transaction": {
        "from": "0xcad1a7864a108dbff67f4b8af71fab0c7a86d0b6",
        "value": "0x0",
        "input": "0x61012080604052346102645760c0816132538038038091610020828561032c565b833981010312610264576100338161034f565b61003f6020830161034f565b61004b6040840161034f565b906100586060850161034f565b9260808501519485151586036102645760a0610074910161034f565b6001600160a01b0381168015610319575f8054610100600160a81b03198116600894851b610100600160a81b0316178255604051931c6001600160a01b0316907f8be0079c531659141344cd1fd0a4f28419497f9722a3daafe3b4186f6b6457e09080a360017f9b779b17422d0df92223018b32b4d1fa46e071723d6817e2486d003becc55f005560f48181016001600160401b0381118382101761030557829161315f833903905ff0801561027057600580546001600160a01b0319166001600160a01b0392831617905581169081156102c0576001600160a01b0385161561027b576080526040516338d52e0f60e01b815290602090829060049082905afa908115610270575f91610232575b5060a052600680546001600160a01b0319166001600160a01b039290921691909117905560c05260e052610100526001600755604051612dfb908161036482396080518181816107b101528181610b93015281816110c90152818161173b01528181611d4f0152612a7d015260a0518181816101c501526116ea015260c051818181610263015281816108b40152610ac0015260e05181612b7f015261010051818181610c6f0152612ad10152f35b90506020813d602011610268575b8161024d6020938361032c565b810103126102645761025e9061034f565b5f610183565b5f80fd5b3d9150610240565b6040513d5f823e3d90fd5b60405162461bcd60e51b815260206004820152601d60248201527f42616c616e636572506f6f6c657256323a207a65726f20726f757465720000006044820152606490fd5b60405162461bcd60e51b815260206004820152601c60248201527f42616c616e636572506f6f6c657256323a207a65726f207355534453000000006044820152606490fd5b634e487b7160e01b5f52604160045260245ffd5b631e4fbdf760e01b5f525f60045260245ffd5b601f909101601f19168101906001600160401b0382119082101761030557604052565b51906001600160a01b03821682036102645756fe60806040526004361015610011575f80fd5b5f5f3560e01c80630281d95c146126a957806306fdde03146126045780630890d80c1461205e5780630d3233651461202657806316f0115b146120005780632baaf74514611fda5780633dfd387314611f095780633e413bee14611ee35780633f4ba83a14611e3a5780634437152a14611d735780634f5a19df14611d305780635c975abb14611d0f5780636b28e58714611b28578063715018a614611ab65780637284e416146119ce578063734c5b2c146116795780637f5a7c7b146116525780638456cb59146115cd5780638bf78874146115af5780638da5cb5b1461158657806391dd734614610a8a578063982697dd14610a635780639b1b615e1461073e578063a1d65e39146106a3578063b1db904414610621578063b2118a8d1461058d578063bdff80c814610507578063c580a540146104ca578063d0d164bd146104a3578063d3d9905714610480578063f2fde38b146103aa578063f3ccaac0146102a5578063faab85e514610287578063fbfa77cf14610243578063fca3b5aa146101ec5763fe5a451a146101a6575f80fd5b346101e957806003193601126101e95760206040516001600160a01b037f0000000000000000000000000000000000000000000000000000000000000000168152f35b80fd5b50346101e95760206003193601126101e9576001600160a01b0361020e6127a1565b610216612c32565b167fffffffffffffffffffffffff0000000000000000000000000000000000000000600154161760015580f35b50346101e957806003193601126101e95760206040516001600160a01b037f0000000000000000000000000000000000000000000000000000000000000000168152f35b50346101e957806003193601126101e9576020600954604051908152f35b50346101e957806003193601126101e9576040519080600354906102c882612820565b80855291600181169081156103655750600114610308575b610304846102f081860382612871565b6040519182916020835260208301906127cd565b0390f35b600381527fc2575a0e9e593c00f959f8c92f12db2869c3395a3b0502d05e2516446f71f85b939250905b80821061034b575090915081016020016102f0826102e0565b919260018160209254838588010152019101909291610332565b7fffffffffffffffffffffffffffffffffffffffffffffffffffffffffffffff001660208087019190915292151560051b850190920192506102f091508390506102e0565b50346101e95760206003193601126101e9576103c46127a1565b6103cc612c32565b6001600160a01b038116908115610454576001600160a01b039074ffffffffffffffffffffffffffffffffffffffff0084549160081b167fffffffffffffffffffffff0000000000000000000000000000000000000000ff821617845560081c167f8be0079c531659141344cd1fd0a4f28419497f9722a3daafe3b4186f6b6457e08380a380f35b6024837f1e4fbdf700000000000000000000000000000000000000000000000000000000815280600452fd5b50346101e957806003193601126101e957602061049b612a41565b604051908152f35b50346101e957806003193601126101e95760206001600160a01b03600a5416604051908152f35b50346101e95760406003193601126101e9576105046104e76127a1565b6104ef612c32565b602435906001600160a01b0360065416612d1e565b80f35b50346101e957806003193601126101e957610520612c32565b60075460018101809111610560576020817fc1d15e5af31557600e1553614419048046b6417b097d56b8e0042d79d0f98dde92600755604051908152a180f35b6024827f4e487b710000000000000000000000000000000000000000000000000000000081526011600452fd5b50346101e95760606003193601126101e9576105a76127a1565b6105af6127b7565b906105b8612c32565b6001600160a01b038216156105dd57610504916001600160a01b036044359216612d1e565b606460405162461bcd60e51b815260206004820152602060248201527f42616c616e636572506f6f6c657256323a207a65726f20726563697069656e746044820152fd5b50346101e95760206003193601126101e9577fa7978870153ece652cc4657688816871cbe0106d26a50cbd2239fecedb8de1c460206001600160a01b036106666127a1565b61066e612c32565b16807fffffffffffffffffffffffff0000000000000000000000000000000000000000600a541617600a55604051908152a180f35b50346101e95760206003193601126101e9576004356106c0612c32565b606481116106fa576020817f074731357d33727f4901077a97ee097d688cb98f4e4565c7e39e804dd986ced492600955604051908152a180f35b606460405162461bcd60e51b815260206004820152601c60248201527f42616c616e636572506f6f6c657256323a2073697a65203e20313030000000006044820152fd5b50346101e95760406003193601126101e95733815260086020526040812054600754036109f95761076d612ceb565b610775612c74565b6040517f70a082310000000000000000000000000000000000000000000000000000000081523060048201526020816024816001600160a01b037f0000000000000000000000000000000000000000000000000000000000000000165afa90811561094e5782916109c3575b508015610959578161085e61086c6108a793604051903360208301526040820152600435606082015260243560808201526080815261082160a082612871565b6040519283917f91dd73460000000000000000000000000000000000000000000000000000000060208401526020602484015260448301906127cd565b03601f198101835282612871565b604051809381927f48c894910000000000000000000000000000000000000000000000000000000083526020600484015260248301906127cd565b0381836001600160a01b037f0000000000000000000000000000000000000000000000000000000000000000165af1801561094e57610909575b5060017f9b779b17422d0df92223018b32b4d1fa46e071723d6817e2486d003becc55f005580f35b3d8083833e6109188183612871565b810160208282031261094a57815167ffffffffffffffff81116109465761093f92016129b8565b505f6108e1565b8380fd5b8280fd5b6040513d84823e3d90fd5b608460405162461bcd60e51b815260206004820152602160248201527f42616c616e636572506f6f6c657256323a206e6f7468696e6720746f20706f6f60448201527f6c000000000000000000000000000000000000000000000000000000000000006064820152fd5b90506020813d6020116109f1575b816109de60209383612871565b810103126109ed57515f6107e1565b5f80fd5b3d91506109d1565b608460405162461bcd60e51b815260206004820152602e60248201527f42616c616e636572506f6f6c657256323a2063616c6c6572206e6f742061757460448201527f686f72697a656420706f6f6c65720000000000000000000000000000000000006064820152fd5b50346101e957806003193601126101e95760206001600160a01b03600b5416604051908152f35b50346101e95760206003193601126101e95760043567ffffffffffffffff811161158257610abc9036906004016127f2565b91907f0000000000000000000000000000000000000000000000000000000000000000926001600160a01b0384169081330361151857826080918101031261094a578135916001600160a01b03831680930361094657602081013594604082013591866009548082029082820414821517156114eb576064900491821515806114d7575b806114c3575b806114af575b8061149b575b6110ba575b50505085610b89575b6103048560405190610b73602083612871565b81526040519182916020835260208301906127cd565b6001600160a01b037f00000000000000000000000000000000000000000000000000000000000000001695604051907f70a082310000000000000000000000000000000000000000000000000000000082528460048301526020826024818b5afa918215610fd0578792611084575b50610c04919288612d1e565b604051907f70a082310000000000000000000000000000000000000000000000000000000082528360048301526020826024818a5afa8015610eba578690611050575b610c519250612934565b9160405190610c61606083612871565b6002825260403660208401377f0000000000000000000000000000000000000000000000000000000000000000156110355783610c9d8361296e565b5285610ca8836129a8565b525b6001600160a01b0360065416966040519760c0890189811067ffffffffffffffff8211176110085760405288526020880130815260408901938452606089019085825260808a016001815260209560405192610d068885612871565b8b845260a08d01938452604051809d7f4af29ec4000000000000000000000000000000000000000000000000000000008252896004830152516001600160a01b03169060240152516001600160a01b031660448d01525160648c0160c0905260e48c01610d7291612a0e565b925160848c0152516005811015610fdb57610dc18a938c93849360a4850152517fffffffffffffffffffffffffffffffffffffffffffffffffffffffffffffffdc8483030160c48501526127cd565b038183865af1978815610fd0578798610ec5575b506040517f15afd4090000000000000000000000000000000000000000000000000000000081526001600160a01b03909116600482015260248101859052919081908390818981604481015b03925af18015610eba57610e85575b5050937faf6cb2e6187986f98607346b0da39860f8bcc4e2e024c1926efa779809b07adb91610e7961030496604051938493846040919493926060820195825260208201520152565b0390a25f808080610b60565b818197939492973d8311610eb3575b610e9e8183612871565b810103126109ed579094509081610e79610e30565b503d610e94565b6040513d88823e3d90fd5b9097503d8088833e610ed78183612871565b8101606082820312610fcc57815167ffffffffffffffff8111610fc857820181601f82011215610fc857805167ffffffffffffffff8111610f9b5785808260051b9281840190610f2a6040519283612871565b8152019183010191838311610f975786809101915b838310610f8757509150508201519160408101519067ffffffffffffffff8211610f835792610f778893879693610e219896016129b8565b50999250929350610dd5565b8980fd5b8251815291810191879101610f3f565b8a80fd5b60248a7f4e487b710000000000000000000000000000000000000000000000000000000081526041600452fd5b8880fd5b8780fd5b6040513d89823e3d90fd5b60248a7f4e487b710000000000000000000000000000000000000000000000000000000081526021600452fd5b6024897f4e487b710000000000000000000000000000000000000000000000000000000081526041600452fd5b8561103f8361296e565b528361104a836129a8565b52610caa565b506020823d60201161107c575b8161106a60209383612871565b810103126109ed57610c519151610c47565b3d915061105d565b91506020823d6020116110b2575b8161109f60209383612871565b810103126109ed57610c04915191610bf8565b3d9150611092565b90919297506001600160a01b037f000000000000000000000000000000000000000000000000000000000000000016906110f5848a84612d1e565b6001600160a01b03600b5416906001600160a01b03600c5416926040519360e0850185811067ffffffffffffffff82111761146e57908b9160405281865260208601948552604086019083825260608701908152608087019089825260a08801928484526020976040519561116a8a88612871565b865260c08a01958652604051997f2bfb780c000000000000000000000000000000000000000000000000000000008b528960048c015251600281101561143f57936001600160a01b036111fb948160609995818f9a968b9a60248c0152511660448a015251166064880152511660848601525160a48501525160c48401525160e060e48401526101048301906127cd565b03818d8c5af19384156113ca579086918b95611403575b506040517f15afd4090000000000000000000000000000000000000000000000000000000081526001600160a01b0390911660048201526024810191909152828180604481015b03818d8c5af180156113ca57908a9392916113d5575b50816001600160a01b03600c54166064604051809681937fba0876520000000000000000000000000000000000000000000000000000000083528960048401523060248401523060448401525af19283156113ca578a9361139a575b50606001358210611356575090867fdc972491ab78cde9a1ce2edb29d56c66f4d6aba0a1f1220807b793d70c8dd7ce8361132261134d9796956001600160a01b03600d54166001600160a01b03600a541690612d1e565b600a546040805188815260208101969096528501919091526001600160a01b031692606090a3612934565b945f8080610b57565b6064906040519062461bcd60e51b82526004820152601f60248201527f42616c616e636572506f6f6c657256323a205553444320736c697070616765006044820152fd5b9092508181813d83116113c3575b6113b28183612871565b810103126109ed57519160606112cb565b503d6113a8565b6040513d8c823e3d90fd5b92508183813d83116113fc575b6113ec8183612871565b810103126109ed5789925161126f565b503d6113e2565b915093506060813d606011611437575b8161142060609383612871565b81010312610f835760400151928590611259611212565b3d9150611413565b505060248f7f4e487b710000000000000000000000000000000000000000000000000000000081526021600452fd5b60248c7f4e487b710000000000000000000000000000000000000000000000000000000081526041600452fd5b506001600160a01b03600d54161515610b52565b506001600160a01b03600c54161515610b4c565b506001600160a01b03600b54161515610b46565b506001600160a01b03600a54161515610b40565b6024887f4e487b710000000000000000000000000000000000000000000000000000000081526011600452fd5b608460405162461bcd60e51b815260206004820152602560248201527f42616c616e636572506f6f6c657256323a2063616c6c6572206973206e6f742060448201527f7661756c740000000000000000000000000000000000000000000000000000006064820152fd5b5080fd5b50346101e957806003193601126101e9576001600160a01b036020915460081c16604051908152f35b50346101e957806003193601126101e9576020600754604051908152f35b50346101e957806003193601126101e9576115f46001600160a01b036001541633146128b4565b6115fc612ceb565b60017fffffffffffffffffffffffffffffffffffffffffffffffffffffffffffffff008254161781557f62e78cea01bee320cd4e420270b5ea74000d11b0c9f74754ebdbfc544b05a2586020604051338152a180f35b50346101e957806003193601126101e95760206001600160a01b0360055416604051908152f35b50346109ed5760606003193601126109ed576116936127a1565b6024359060443567ffffffffffffffff81116109ed576116b79036906004016127f2565b9290916116c2612c74565b6116d86001600160a01b036001541633146128b4565b6116e0612ceb565b6001600160a01b037f000000000000000000000000000000000000000000000000000000000000000016604051907f095ea7b3000000000000000000000000000000000000000000000000000000005f526001600160a01b037f00000000000000000000000000000000000000000000000000000000000000001691826004528460245260205f60448180865af19060015f51148216156119bf575b604052156118bf575b5060205f916044604051809481937f6e553f650000000000000000000000000000000000000000000000000000000083528860048401523060248401525af1801561188557611890575b506001600160a01b036005541690813b156109ed575f6001600160a01b039161183c8296604051988997889687957fa88b53990000000000000000000000000000000000000000000000000000000087521660048601526024850152606060448501526064840191612894565b03925af1801561188557611872575060017f9b779b17422d0df92223018b32b4d1fa46e071723d6817e2486d003becc55f005580f35b61187e91505f90612871565b5f5f6108e1565b6040513d5f823e3d90fd5b6118b19060203d6020116118b8575b6118a98183612871565b810190612925565b505f6117cf565b503d61189f565b6040517f095ea7b3000000000000000000000000000000000000000000000000000000005f52826004525f60245260205f60448180865af19060015f51148216156119a7575b6040521561195b576040517f095ea7b3000000000000000000000000000000000000000000000000000000005f52826004528460245260205f60448180865af19060015f5114821615611986575b604052611785575b7f5274afe7000000000000000000000000000000000000000000000000000000005f5260045260245ffd5b90600181151661199e57823b15153d15161690611953565b503d5f823e3d90fd5b90600181151661199e57823b15153d15161690611905565b90823b15153d1516169061177c565b346109ed575f6003193601126109ed576040515f6004546119ee81612820565b8084529060018116908115611a745750600114611a16575b610304836102f081850382612871565b91905060045f527f8a35acfbc15ff81a39ae7d344fd709f28e8600b4aa8c65c6b64bfe7fe36bd19b915f905b808210611a5a575090915081016020016102f0611a06565b919260018160209254838588010152019101909291611a42565b7fffffffffffffffffffffffffffffffffffffffffffffffffffffffffffffff001660208086019190915291151560051b840190910191506102f09050611a06565b346109ed575f6003193601126109ed57611ace612c32565b5f6001600160a01b0381547fffffffffffffffffffffff0000000000000000000000000000000000000000ff8116835560081c167f8be0079c531659141344cd1fd0a4f28419497f9722a3daafe3b4186f6b6457e08280a3005b346109ed5760606003193601126109ed57611b416127a1565b611b496127b7565b604435916001600160a01b0383168093036109ed576001600160a01b0390611b6f612c32565b16908115611ccb576001600160a01b0316908115611c87578215611c43577f8bb9e0231454a91ee956962915e84237dab1cb5513222f17d97db558c0331b4f92606092827fffffffffffffffffffffffff0000000000000000000000000000000000000000600b541617600b55807fffffffffffffffffffffffff0000000000000000000000000000000000000000600c541617600c55817fffffffffffffffffffffffff0000000000000000000000000000000000000000600d541617600d5560405192835260208301526040820152a1005b606460405162461bcd60e51b815260206004820152601b60248201527f42616c616e636572506f6f6c657256323a207a65726f207573646300000000006044820152fd5b606460405162461bcd60e51b815260206004820152601d60248201527f42616c616e636572506f6f6c657256323a207a65726f207761557364630000006044820152fd5b606460405162461bcd60e51b815260206004820152601f60248201527f42616c616e636572506f6f6c657256323a207a65726f2073776170506f6f6c006044820152fd5b346109ed575f6003193601126109ed57602060ff5f54166040519015158152f35b346109ed575f6003193601126109ed5760206040516001600160a01b037f0000000000000000000000000000000000000000000000000000000000000000168152f35b346109ed5760206003193601126109ed576001600160a01b03611d946127a1565b611d9c612c32565b168015611dd0577fffffffffffffffffffffffff000000000000000000000000000000000000000060065416176006555f80f35b608460405162461bcd60e51b815260206004820152602360248201527f42616c616e636572506f6f6c657256323a207a65726f20706f6f6c206164647260448201527f65737300000000000000000000000000000000000000000000000000000000006064820152fd5b346109ed575f6003193601126109ed57611e606001600160a01b036001541633146128b4565b5f5460ff811615611ebb577fffffffffffffffffffffffffffffffffffffffffffffffffffffffffffffff00165f557f5db9ee0a495bf2e6ff9c91a7834c1ba4fdd244a5e8aa4e537bd38aeae4b073aa6020604051338152a1005b7f8dfc202b000000000000000000000000000000000000000000000000000000005f5260045ffd5b346109ed575f6003193601126109ed5760206001600160a01b03600d5416604051908152f35b346109ed5760206003193601126109ed576004356001600160a01b0381168091036109ed57611f36612c32565b8015611f96576001600160a01b03600554827fffffffffffffffffffffffff0000000000000000000000000000000000000000821617600555167f28f7fb7e7a8b1239a2210fff0089ce39da0362e2dd2eecaa013a8996a37a22795f80a3005b606460405162461bcd60e51b815260206004820152601d60248201527f41546f6b656e4469737061746368657256323a207a65726f20686f6f6b0000006044820152fd5b346109ed575f6003193601126109ed5760206001600160a01b03600c5416604051908152f35b346109ed575f6003193601126109ed5760206001600160a01b0360065416604051908152f35b346109ed5760206003193601126109ed576001600160a01b036120476127a1565b165f526008602052602060405f2054604051908152f35b346109ed5760606003193601126109ed5760043567ffffffffffffffff81116109ed5761208f9036906004016127f2565b9060243567ffffffffffffffff81116109ed576120b09036906004016127f2565b929060443567ffffffffffffffff81116109ed576120d29036906004016127f2565b90916120dc612c32565b67ffffffffffffffff841161237d576120f6600254612820565b601f8111612563575b50835f601f82116001146124e2575f916124d7575b508460011b905f198660031b1c1916176002555b67ffffffffffffffff861161237d57612142600354612820565b601f8111612436575b50855f601f82116001146123b5575f916123aa575b508660011b905f198860031b1c1916176003555b67ffffffffffffffff821161237d5761218e600454612820565b601f81116122dc575b505f95601f83116001146122305782916122129161222095947f61b45807b5528344b8b2c26433a3aabead6c9dc6239e146e7ba7c812fded07d0995f91612225575b508460011b905f198660031b1c1916176004555b61220460405198899860608a5260608a0191612894565b918783036020890152612894565b918483036040860152612894565b0390a1005b90508501358a6121d9565b601f1983169660045f527f8a35acfbc15ff81a39ae7d344fd709f28e8600b4aa8c65c6b64bfe7fe36bd19b975f5b8181106122c45750917f61b45807b5528344b8b2c26433a3aabead6c9dc6239e146e7ba7c812fded07d098859492612220979661221295106122ab575b5050600184811b016004556121ed565b5f1960f88760031b161c1990870135169055898061229b565b868301358a556001909901986020928301920161225e565b60045f52601f830160051c7f8a35acfbc15ff81a39ae7d344fd709f28e8600b4aa8c65c6b64bfe7fe36bd19b019060208410612355575b601f0160051c7f8a35acfbc15ff81a39ae7d344fd709f28e8600b4aa8c65c6b64bfe7fe36bd19b01905b81811061234a5750612197565b5f815560010161233d565b7f8a35acfbc15ff81a39ae7d344fd709f28e8600b4aa8c65c6b64bfe7fe36bd19b9150612313565b7f4e487b71000000000000000000000000000000000000000000000000000000005f52604160045260245ffd5b905081013587612160565b90601f19169060035f52877fc2575a0e9e593c00f959f8c92f12db2869c3395a3b0502d05e2516446f71f85b925f5b81811061241b575010612402575b5050600186811b01600355612174565b5f1960f88960031b161c199083013516905586806123f2565b8584013585556001909401936020938401938b9350016123e4565b60035f52601f870160051c7fc2575a0e9e593c00f959f8c92f12db2869c3395a3b0502d05e2516446f71f85b0190602088106124af575b601f0160051c7fc2575a0e9e593c00f959f8c92f12db2869c3395a3b0502d05e2516446f71f85b01905b8181106124a4575061214b565b5f8155600101612497565b7fc2575a0e9e593c00f959f8c92f12db2869c3395a3b0502d05e2516446f71f85b915061246d565b905085013587612114565b90601f19169060025f52857f405787fa12a823e0f2b7631cc41b3ba8828b3321ca811111fa75cd3aa3bb5ace925f5b81811061254857501061252f575b5050600184811b01600255612128565b5f1960f88760031b161c1990870135169055868061251f565b89840135855560019094019360209384019389935001612511565b60025f52601f850160051c7f405787fa12a823e0f2b7631cc41b3ba8828b3321ca811111fa75cd3aa3bb5ace0190602086106125dc575b601f0160051c7f405787fa12a823e0f2b7631cc41b3ba8828b3321ca811111fa75cd3aa3bb5ace01905b8181106125d157506120ff565b5f81556001016125c4565b7f405787fa12a823e0f2b7631cc41b3ba8828b3321ca811111fa75cd3aa3bb5ace915061259a565b346109ed575f6003193601126109ed576040515f60025461262481612820565b8084529060018116908115611a74575060011461264b57610304836102f081850382612871565b91905060025f527f405787fa12a823e0f2b7631cc41b3ba8828b3321ca811111fa75cd3aa3bb5ace915f905b80821061268f575090915081016020016102f0611a06565b919260018160209254838588010152019101909291612677565b346109ed5760406003193601126109ed576126c26127a1565b6024359081151582036109ed576001600160a01b03906126e0612c32565b1690811561275d5715612729577f8f8a455eb36ca8b47d9bf011994919d05afa0aaa307e59fbbcc9d9fa5d856f6a6020600754835f52600882528060405f2055604051908152a2005b805f5260086020525f60408120557f76bd0073e9077594a5fd0da5aaeb1301a89f41a693a8a8e4b4d77967bcfdfbf35f80a2005b606460405162461bcd60e51b815260206004820152601d60248201527f42616c616e636572506f6f6c657256323a207a65726f20706f6f6c65720000006044820152fd5b600435906001600160a01b03821682036109ed57565b602435906001600160a01b03821682036109ed57565b90601f19601f602080948051918291828752018686015e5f8582860101520116010190565b9181601f840112156109ed5782359167ffffffffffffffff83116109ed57602083818601950101116109ed57565b90600182811c92168015612867575b602083101461283a57565b7f4e487b71000000000000000000000000000000000000000000000000000000005f52602260045260245ffd5b91607f169161282f565b90601f601f19910116810190811067ffffffffffffffff82111761237d57604052565b601f8260209493601f1993818652868601375f8582860101520116010190565b156128bb57565b608460405162461bcd60e51b815260206004820152602860248201527f41546f6b656e4469737061746368657256323a2063616c6c6572206973206e6f60448201527f74206d696e7465720000000000000000000000000000000000000000000000006064820152fd5b908160209103126109ed575190565b9190820391821161294157565b7f4e487b71000000000000000000000000000000000000000000000000000000005f52601160045260245ffd5b80511561297b5760200190565b7f4e487b71000000000000000000000000000000000000000000000000000000005f52603260045260245ffd5b80516001101561297b5760400190565b81601f820112156109ed5780519067ffffffffffffffff821161237d57604051926129ed601f8401601f191660200185612871565b828452602083830101116109ed57815f9260208093018386015e8301015290565b90602080835192838152019201905f5b818110612a2b5750505090565b8251845260209384019390920191600101612a1e565b6040517f70a082310000000000000000000000000000000000000000000000000000000081523060048201526020816024816001600160a01b037f0000000000000000000000000000000000000000000000000000000000000000165afa908115611885575f91612c00575b508015612bfb5760405190612ac3606083612871565b6002825260403660208401377f000000000000000000000000000000000000000000000000000000000000000015612be157612afe8261296e565b525f612b09826129a8565b525b60206001600160a01b036006541681612b5c6040519485937fda001f7d0000000000000000000000000000000000000000000000000000000085526004850152608060248501526084840190612a0e565b3060448401525f83820391600319830160648601525201815f6001600160a01b037f0000000000000000000000000000000000000000000000000000000000000000165af1908115611885575f91612bb2575090565b90506020813d602011612bd9575b81612bcd60209383612871565b810103126109ed575190565b3d9150612bc0565b5f612beb8361296e565b52612bf5826129a8565b52612b0b565b505f90565b90506020813d602011612c2a575b81612c1b60209383612871565b810103126109ed57515f612aad565b3d9150612c0e565b6001600160a01b035f5460081c163303612c4857565b7f118cdaa7000000000000000000000000000000000000000000000000000000005f523360045260245ffd5b60027f9b779b17422d0df92223018b32b4d1fa46e071723d6817e2486d003becc55f005414612cc35760027f9b779b17422d0df92223018b32b4d1fa46e071723d6817e2486d003becc55f0055565b7f3ee5aeb5000000000000000000000000000000000000000000000000000000005f5260045ffd5b60ff5f5416612cf657565b7fd93c0665000000000000000000000000000000000000000000000000000000005f5260045ffd5b916001600160a01b03604051927fa9059cbb000000000000000000000000000000000000000000000000000000005f521660045260245260205f60448180865af19060015f5114821615612dad575b60405215612d785750565b6001600160a01b03907f5274afe7000000000000000000000000000000000000000000000000000000005f521660045260245ffd5b90600181151661199e57823b15153d15161690612d6d56fea26469706673582212206d4b59ce3724ae4a4fa4dc79f8dff03aa34bc59958311cdc7843fec59688469764736f6c634300081e00336080806040523460135760dc908160188239f35b5f80fdfe6004361015600b575f80fd5b5f3560e01c63a88b539914601d575f80fd5b3460a25760607ffffffffffffffffffffffffffffffffffffffffffffffffffffffffffffffffc36011260a25760043573ffffffffffffffffffffffffffffffffffffffff81160360a25760443567ffffffffffffffff811160a2573660238201121560a257806004013567ffffffffffffffff811160a2573691016024011160a257005b5f80fdfea264697066735822122028bcfdfa2749c984ce6c4a945eee9ce708f63a18d51dc6027f0962d61d12d2e264736f6c634300081e0033000000000000000000000000a3931d71877c0e7a3148cb7eb4463524fec27fbd000000000000000000000000642bb6860b4776cc10b26b8f361fd139e7f0db04000000000000000000000000ba1333333333a1ba1108e8412f11850a5c319ba90000000000000000000000005c6fb490bdfd3246eb0bb062c168decaf4bd9fdd0000000000000000000000000000000000000000000000000000000000000001000000000000000000000000cad1a7864a108dbff67f4b8af71fab0c7a86d0b6",
        "nonce": "0x1b7",
        "chainId": "0x1"
      },
      "additionalContracts": [],
      "isFixedGasLimit": false
    },
    {
      "hash": "0xa3fc3e0a6c77e160b48819eb7839b94463feca1c89503511f727b6d38a064bce",
      "transactionType": "CALL",
      "contractName": "StableYieldAccumulator",
      "contractAddress": "0x3bbe928340c61a65cb6c4a87b3fb59b6f3f7606a",
      "function": "setRewardToken(address)",
      "arguments": [
        "0xA0b86991c6218b36c1d19D4a2e9Eb0cE3606eB48"
      ],
      "transaction": {
        "from": "0xcad1a7864a108dbff67f4b8af71fab0c7a86d0b6",
        "to": "0x3bbe928340c61a65cb6c4a87b3fb59b6f3f7606a",
        "value": "0x0",
        "input": "0x8aee8127000000000000000000000000a0b86991c6218b36c1d19d4a2e9eb0ce3606eb48",
        "nonce": "0x1b8",
        "chainId": "0x1"
      },
      "additionalContracts": [],
      "isFixedGasLimit": false
    },
    {
      "hash": "0x5bb7c0c8191710b8d229ba5a41d5e4fa24f421bcee58f8d42adeabc251f3f635",
      "transactionType": "CALL",
      "contractName": "StableYieldAccumulator",
      "contractAddress": "0x3bbe928340c61a65cb6c4a87b3fb59b6f3f7606a",
      "function": "setPhlimbo(address)",
      "arguments": [
        "0x3984eBC84d45a889dDAc595d13dc0aC2E54819F4"
      ],
      "transaction": {
        "from": "0xcad1a7864a108dbff67f4b8af71fab0c7a86d0b6",
        "to": "0x3bbe928340c61a65cb6c4a87b3fb59b6f3f7606a",
        "value": "0x0",
        "input": "0xa93e2fd30000000000000000000000003984ebc84d45a889ddac595d13dc0ac2e54819f4",
        "nonce": "0x1b9",
        "chainId": "0x1"
      },
      "additionalContracts": [],
      "isFixedGasLimit": false
    },
    {
      "hash": "0xd1f3cf358bb4bb635e0767f8abafcd64cf412a659a4ecabc781033afb8556262",
      "transactionType": "CALL",
      "contractName": "StableYieldAccumulator",
      "contractAddress": "0x3bbe928340c61a65cb6c4a87b3fb59b6f3f7606a",
      "function": "setMinter(address)",
      "arguments": [
        "0x435B0A1884bd0fb5667677C9eb0e59425b1477E5"
      ],
      "transaction": {
        "from": "0xcad1a7864a108dbff67f4b8af71fab0c7a86d0b6",
        "to": "0x3bbe928340c61a65cb6c4a87b3fb59b6f3f7606a",
        "value": "0x0",
        "input": "0xfca3b5aa000000000000000000000000435b0a1884bd0fb5667677c9eb0e59425b1477e5",
        "nonce": "0x1ba",
        "chainId": "0x1"
      },
      "additionalContracts": [],
      "isFixedGasLimit": false
    },
    {
      "hash": "0x4e2baba25ec0398f2aef389125add0db98f7be80eac237fdecb1e649b9a7516a",
      "transactionType": "CALL",
      "contractName": "StableYieldAccumulator",
      "contractAddress": "0x3bbe928340c61a65cb6c4a87b3fb59b6f3f7606a",
      "function": "setNFTMinter(address)",
      "arguments": [
        "0x39Af088408e815844c567037C157B31d48d2E10F"
      ],
      "transaction": {
        "from": "0xcad1a7864a108dbff67f4b8af71fab0c7a86d0b6",
        "to": "0x3bbe928340c61a65cb6c4a87b3fb59b6f3f7606a",
        "value": "0x0",
        "input": "0x7bd1f33500000000000000000000000039af088408e815844c567037c157b31d48d2e10f",
        "nonce": "0x1bb",
        "chainId": "0x1"
      },
      "additionalContracts": [],
      "isFixedGasLimit": false
    },
    {
      "hash": "0x781a186fbe04d8f70ddc59060b6aed7bd96c180eec8d3f124f3093134706e42b",
      "transactionType": "CALL",
      "contractName": "StableYieldAccumulator",
      "contractAddress": "0x3bbe928340c61a65cb6c4a87b3fb59b6f3f7606a",
      "function": "setPauser(address)",
      "arguments": [
        "0x7c5A8EeF1d836450C019FB036453ac6eC97885a3"
      ],
      "transaction": {
        "from": "0xcad1a7864a108dbff67f4b8af71fab0c7a86d0b6",
        "to": "0x3bbe928340c61a65cb6c4a87b3fb59b6f3f7606a",
        "value": "0x0",
        "input": "0x2d88af4a0000000000000000000000007c5a8eef1d836450c019fb036453ac6ec97885a3",
        "nonce": "0x1bc",
        "chainId": "0x1"
      },
      "additionalContracts": [],
      "isFixedGasLimit": false
    },
    {
      "hash": "0xb4cb8e57580e6a86b2785cc7e8217972ea67dc1a1164f0aac76124264f8d8451",
      "transactionType": "CALL",
      "contractName": "StableYieldAccumulator",
      "contractAddress": "0x3bbe928340c61a65cb6c4a87b3fb59b6f3f7606a",
      "function": "setTokenConfig(address,uint8,uint256)",
      "arguments": [
        "0xA0b86991c6218b36c1d19D4a2e9Eb0cE3606eB48",
        "6",
        "1000000000000000000"
      ],
      "transaction": {
        "from": "0xcad1a7864a108dbff67f4b8af71fab0c7a86d0b6",
        "to": "0x3bbe928340c61a65cb6c4a87b3fb59b6f3f7606a",
        "value": "0x0",
        "input": "0x41103d42000000000000000000000000a0b86991c6218b36c1d19d4a2e9eb0ce3606eb4800000000000000000000000000000000000000000000000000000000000000060000000000000000000000000000000000000000000000000de0b6b3a7640000",
        "nonce": "0x1bd",
        "chainId": "0x1"
      },
      "additionalContracts": [],
      "isFixedGasLimit": false
    },
    {
      "hash": "0x1ce99e9fe0200411f46ab09aa81aafc8596d5abd6d26c1aea3a918b07817770a",
      "transactionType": "CALL",
      "contractName": "StableYieldAccumulator",
      "contractAddress": "0x3bbe928340c61a65cb6c4a87b3fb59b6f3f7606a",
      "function": "setTokenConfig(address,uint8,uint256)",
      "arguments": [
        "0x865377367054516e17014CcdED1e7d814EDC9ce4",
        "18",
        "1000000000000000000"
      ],
      "transaction": {
        "from": "0xcad1a7864a108dbff67f4b8af71fab0c7a86d0b6",
        "to": "0x3bbe928340c61a65cb6c4a87b3fb59b6f3f7606a",
        "value": "0x0",
        "input": "0x41103d42000000000000000000000000865377367054516e17014ccded1e7d814edc9ce400000000000000000000000000000000000000000000000000000000000000120000000000000000000000000000000000000000000000000de0b6b3a7640000",
        "nonce": "0x1be",
        "chainId": "0x1"
      },
      "additionalContracts": [],
      "isFixedGasLimit": false
    },
    {
      "hash": "0x88152108c60564d0ddd83023b3d5fbad2f519ed0a07e2cd8cd5746143450d218",
      "transactionType": "CALL",
      "contractName": "StableYieldAccumulator",
      "contractAddress": "0x3bbe928340c61a65cb6c4a87b3fb59b6f3f7606a",
      "function": "setTokenConfig(address,uint8,uint256)",
      "arguments": [
        "0x4c9EDD5852cd905f086C759E8383e09bff1E68B3",
        "18",
        "1000000000000000000"
      ],
      "transaction": {
        "from": "0xcad1a7864a108dbff67f4b8af71fab0c7a86d0b6",
        "to": "0x3bbe928340c61a65cb6c4a87b3fb59b6f3f7606a",
        "value": "0x0",
        "input": "0x41103d420000000000000000000000004c9edd5852cd905f086c759e8383e09bff1e68b300000000000000000000000000000000000000000000000000000000000000120000000000000000000000000000000000000000000000000de0b6b3a7640000",
        "nonce": "0x1bf",
        "chainId": "0x1"
      },
      "additionalContracts": [],
      "isFixedGasLimit": false
    },
    {
      "hash": "0x4a26ccc8e53ff152c8a0c36771f82435960cb0a2136cb27a334ef909715d434e",
      "transactionType": "CALL",
      "contractName": "StableYieldAccumulator",
      "contractAddress": "0x3bbe928340c61a65cb6c4a87b3fb59b6f3f7606a",
      "function": "addYieldStrategy(address,address)",
      "arguments": [
        "0xE7aEC21BF6420FF483107adCB9360C4b31d69D78",
        "0x865377367054516e17014CcdED1e7d814EDC9ce4"
      ],
      "transaction": {
        "from": "0xcad1a7864a108dbff67f4b8af71fab0c7a86d0b6",
        "to": "0x3bbe928340c61a65cb6c4a87b3fb59b6f3f7606a",
        "value": "0x0",
        "input": "0x454ee0ca000000000000000000000000e7aec21bf6420ff483107adcb9360c4b31d69d78000000000000000000000000865377367054516e17014ccded1e7d814edc9ce4",
        "nonce": "0x1c0",
        "chainId": "0x1"
      },
      "additionalContracts": [],
      "isFixedGasLimit": false
    },
    {
      "hash": "0xa413c13a7c6e837fb1d74f80c014f930f8c5d42439493bba9c0d3dd8d8f46728",
      "transactionType": "CALL",
      "contractName": "StableYieldAccumulator",
      "contractAddress": "0x3bbe928340c61a65cb6c4a87b3fb59b6f3f7606a",
      "function": "addYieldStrategy(address,address)",
      "arguments": [
        "0x8b4A75290A1C4935eC1dfd990374AC4BD4D33952",
        "0xA0b86991c6218b36c1d19D4a2e9Eb0cE3606eB48"
      ],
      "transaction": {
        "from": "0xcad1a7864a108dbff67f4b8af71fab0c7a86d0b6",
        "to": "0x3bbe928340c61a65cb6c4a87b3fb59b6f3f7606a",
        "value": "0x0",
        "input": "0x454ee0ca0000000000000000000000008b4a75290a1c4935ec1dfd990374ac4bd4d33952000000000000000000000000a0b86991c6218b36c1d19d4a2e9eb0ce3606eb48",
        "nonce": "0x1c1",
        "chainId": "0x1"
      },
      "additionalContracts": [],
      "isFixedGasLimit": false
    },
    {
      "hash": "0x20039bd415f76ec46ba7475279f6b6498156529fe705546ae40c84523de582b9",
      "transactionType": "CALL",
      "contractName": "StableYieldAccumulator",
      "contractAddress": "0x3bbe928340c61a65cb6c4a87b3fb59b6f3f7606a",
      "function": "addYieldStrategy(address,address)",
      "arguments": [
        "0xFc629bC5F6339F77635f4F656FBb114A31F7bCB3",
        "0x4c9EDD5852cd905f086C759E8383e09bff1E68B3"
      ],
      "transaction": {
        "from": "0xcad1a7864a108dbff67f4b8af71fab0c7a86d0b6",
        "to": "0x3bbe928340c61a65cb6c4a87b3fb59b6f3f7606a",
        "value": "0x0",
        "input": "0x454ee0ca000000000000000000000000fc629bc5f6339f77635f4f656fbb114a31f7bcb30000000000000000000000004c9edd5852cd905f086c759e8383e09bff1e68b3",
        "nonce": "0x1c2",
        "chainId": "0x1"
      },
      "additionalContracts": [],
      "isFixedGasLimit": false
    },
    {
      "hash": "0x5f4a821f75deba3a9faac46373198b9db2b08b2db1ac2d9ee03d51a2119d4fef",
      "transactionType": "CALL",
      "contractName": "StableYieldAccumulator",
      "contractAddress": "0x3bbe928340c61a65cb6c4a87b3fb59b6f3f7606a",
      "function": "setDiscountRate(uint256)",
      "arguments": [
        "3000"
      ],
      "transaction": {
        "from": "0xcad1a7864a108dbff67f4b8af71fab0c7a86d0b6",
        "to": "0x3bbe928340c61a65cb6c4a87b3fb59b6f3f7606a",
        "value": "0x0",
        "input": "0x7c69febd0000000000000000000000000000000000000000000000000000000000000bb8",
        "nonce": "0x1c3",
        "chainId": "0x1"
      },
      "additionalContracts": [],
      "isFixedGasLimit": false
    },
    {
      "hash": "0x128c4125ee40998757afb4dbf171b65f795a82a95d3866ed35a39c0cde3d9da5",
      "transactionType": "CALL",
      "contractName": "StableYieldAccumulator",
      "contractAddress": "0x3bbe928340c61a65cb6c4a87b3fb59b6f3f7606a",
      "function": "setNudgeAddress(address)",
      "arguments": [
        "0x4ef0fDe49360ed31c68ED442Ff263CC6291041f3"
      ],
      "transaction": {
        "from": "0xcad1a7864a108dbff67f4b8af71fab0c7a86d0b6",
        "to": "0x3bbe928340c61a65cb6c4a87b3fb59b6f3f7606a",
        "value": "0x0",
        "input": "0x2fbe68390000000000000000000000004ef0fde49360ed31c68ed442ff263cc6291041f3",
        "nonce": "0x1c4",
        "chainId": "0x1"
      },
      "additionalContracts": [],
      "isFixedGasLimit": false
    },
    {
      "hash": "0x5cc1da4b92e518379815eed6a6bc907c6c33c3357fdd71dad910eb3d3db6681e",
      "transactionType": "CALL",
      "contractName": "StableYieldAccumulator",
      "contractAddress": "0x3bbe928340c61a65cb6c4a87b3fb59b6f3f7606a",
      "function": "setNudgeSplit(uint256)",
      "arguments": [
        "30"
      ],
      "transaction": {
        "from": "0xcad1a7864a108dbff67f4b8af71fab0c7a86d0b6",
        "to": "0x3bbe928340c61a65cb6c4a87b3fb59b6f3f7606a",
        "value": "0x0",
        "input": "0xfe3ffbac000000000000000000000000000000000000000000000000000000000000001e",
        "nonce": "0x1c5",
        "chainId": "0x1"
      },
      "additionalContracts": [],
      "isFixedGasLimit": false
    },
    {
      "hash": "0x5f5afe9c09b9db07c69f48ee25e713f7c72b385652d6801367ad82c067a83975",
      "transactionType": "CALL",
      "contractName": "StableYieldAccumulator",
      "contractAddress": "0x3bbe928340c61a65cb6c4a87b3fb59b6f3f7606a",
      "function": "approvePhlimbo(uint256)",
      "arguments": [
        "115792089237316195423570985008687907853269984665640564039457584007913129639935"
      ],
      "transaction": {
        "from": "0xcad1a7864a108dbff67f4b8af71fab0c7a86d0b6",
        "to": "0x3bbe928340c61a65cb6c4a87b3fb59b6f3f7606a",
        "value": "0x0",
        "input": "0xba854ee6ffffffffffffffffffffffffffffffffffffffffffffffffffffffffffffffff",
        "nonce": "0x1c6",
        "chainId": "0x1"
      },
      "additionalContracts": [],
      "isFixedGasLimit": false
    },
    {
      "hash": "0x4d3c88652d02d1ca1e3a407f5da24589a26b3c054f68ce7255f89a090e523fc0",
      "transactionType": "CALL",
      "contractName": "BatchNFTMinter",
      "contractAddress": "0x4ef0fde49360ed31c68ed442ff263cc6291041f3",
      "function": "setNudgePaymentToken(address)",
      "arguments": [
        "0xA0b86991c6218b36c1d19D4a2e9Eb0cE3606eB48"
      ],
      "transaction": {
        "from": "0xcad1a7864a108dbff67f4b8af71fab0c7a86d0b6",
        "to": "0x4ef0fde49360ed31c68ed442ff263cc6291041f3",
        "value": "0x0",
        "input": "0xcb1fd8c8000000000000000000000000a0b86991c6218b36c1d19d4a2e9eb0ce3606eb48",
        "nonce": "0x1c7",
        "chainId": "0x1"
      },
      "additionalContracts": [],
      "isFixedGasLimit": false
    },
    {
      "hash": "0xae291048474e8ab136e9a38ee563e1fee2d1b4da8d152ba0d6d941f2044a073c",
      "transactionType": "CALL",
      "contractName": "BatchNFTMinter",
      "contractAddress": "0x4ef0fde49360ed31c68ed442ff263cc6291041f3",
      "function": "setNudgeSize(uint256)",
      "arguments": [
        "40"
      ],
      "transaction": {
        "from": "0xcad1a7864a108dbff67f4b8af71fab0c7a86d0b6",
        "to": "0x4ef0fde49360ed31c68ed442ff263cc6291041f3",
        "value": "0x0",
        "input": "0xf79dbe9e0000000000000000000000000000000000000000000000000000000000000028",
        "nonce": "0x1c8",
        "chainId": "0x1"
      },
      "additionalContracts": [],
      "isFixedGasLimit": false
    },
    {
      "hash": "0x0aaee97a5d123ed8dce275348ad1350c3973c0f0cbe37e33ff5210d13216422e",
      "transactionType": "CALL",
      "contractName": "BalancerPoolerV2",
      "contractAddress": "0x4da153dc02bb084528d10335759f2c4447e6f73d",
      "function": "setBatchDonationSize(uint256)",
      "arguments": [
        "10"
      ],
      "transaction": {
        "from": "0xcad1a7864a108dbff67f4b8af71fab0c7a86d0b6",
        "to": "0x4da153dc02bb084528d10335759f2c4447e6f73d",
        "value": "0x0",
        "input": "0xa1d65e39000000000000000000000000000000000000000000000000000000000000000a",
        "nonce": "0x1c9",
        "chainId": "0x1"
      },
      "additionalContracts": [],
      "isFixedGasLimit": false
    },
    {
      "hash": "0x1f95ce737f510099ae77f73eb282ae40b26db714f7ef46b92b71e5e3107a55be",
      "transactionType": "CALL",
      "contractName": "BalancerPoolerV2",
      "contractAddress": "0x4da153dc02bb084528d10335759f2c4447e6f73d",
      "function": "setBatchMinter(address)",
      "arguments": [
        "0x4ef0fDe49360ed31c68ED442Ff263CC6291041f3"
      ],
      "transaction": {
        "from": "0xcad1a7864a108dbff67f4b8af71fab0c7a86d0b6",
        "to": "0x4da153dc02bb084528d10335759f2c4447e6f73d",
        "value": "0x0",
        "input": "0xb1db90440000000000000000000000004ef0fde49360ed31c68ed442ff263cc6291041f3",
        "nonce": "0x1ca",
        "chainId": "0x1"
      },
      "additionalContracts": [],
      "isFixedGasLimit": false
    },
    {
      "hash": "0x8bd0d865159cd5694bdb022b398b68336d5f8c5170ef945a0ea877b8fba25691",
      "transactionType": "CALL",
      "contractName": "BalancerPoolerV2",
      "contractAddress": "0x4da153dc02bb084528d10335759f2c4447e6f73d",
      "function": "setSwapConfig(address,address,address)",
      "arguments": [
        "0x0B65A4505E8C323AE4fEDcc48515FD713dC9d8C0",
        "0xD4fa2D31b7968E448877f69A96DE69f5de8cD23E",
        "0xA0b86991c6218b36c1d19D4a2e9Eb0cE3606eB48"
      ],
      "transaction": {
        "from": "0xcad1a7864a108dbff67f4b8af71fab0c7a86d0b6",
        "to": "0x4da153dc02bb084528d10335759f2c4447e6f73d",
        "value": "0x0",
        "input": "0x6b28e5870000000000000000000000000b65a4505e8c323ae4fedcc48515fd713dc9d8c0000000000000000000000000d4fa2d31b7968e448877f69a96de69f5de8cd23e000000000000000000000000a0b86991c6218b36c1d19d4a2e9eb0ce3606eb48",
        "nonce": "0x1cb",
        "chainId": "0x1"
      },
      "additionalContracts": [],
      "isFixedGasLimit": false
    },
    {
      "hash": "0x1bbb36f2b28accd7f0e7cea4313bcbc3a877e46519c3d2d41f3d2730f21714ff",
      "transactionType": "CALL",
      "contractName": null,
      "contractAddress": "0xe7aec21bf6420ff483107adcb9360c4b31d69d78",
      "function": "setWithdrawer(address,bool)",
      "arguments": [
        "0x3bBE928340c61a65Cb6C4a87B3fb59B6f3F7606a",
        "true"
      ],
      "transaction": {
        "from": "0xcad1a7864a108dbff67f4b8af71fab0c7a86d0b6",
        "to": "0xe7aec21bf6420ff483107adcb9360c4b31d69d78",
        "value": "0x0",
        "input": "0x82c3b9650000000000000000000000003bbe928340c61a65cb6c4a87b3fb59b6f3f7606a0000000000000000000000000000000000000000000000000000000000000001",
        "nonce": "0x1cc",
        "chainId": "0x1"
      },
      "additionalContracts": [],
      "isFixedGasLimit": false
    },
    {
      "hash": "0xa4034526b067a732d3fe407a6f45e64e8ecc2a022d05e877e266a8593be662ed",
      "transactionType": "CALL",
      "contractName": null,
      "contractAddress": "0x8b4a75290a1c4935ec1dfd990374ac4bd4d33952",
      "function": "setWithdrawer(address,bool)",
      "arguments": [
        "0x3bBE928340c61a65Cb6C4a87B3fb59B6f3F7606a",
        "true"
      ],
      "transaction": {
        "from": "0xcad1a7864a108dbff67f4b8af71fab0c7a86d0b6",
        "to": "0x8b4a75290a1c4935ec1dfd990374ac4bd4d33952",
        "value": "0x0",
        "input": "0x82c3b9650000000000000000000000003bbe928340c61a65cb6c4a87b3fb59b6f3f7606a0000000000000000000000000000000000000000000000000000000000000001",
        "nonce": "0x1cd",
        "chainId": "0x1"
      },
      "additionalContracts": [],
      "isFixedGasLimit": false
    },
    {
      "hash": "0x2959fe09578d2e9cd5476fa1fad1c38415dbe513051d9b4cc241a09f27be30ec",
      "transactionType": "CALL",
      "contractName": null,
      "contractAddress": "0xfc629bc5f6339f77635f4f656fbb114a31f7bcb3",
      "function": "setWithdrawer(address,bool)",
      "arguments": [
        "0x3bBE928340c61a65Cb6C4a87B3fb59B6f3F7606a",
        "true"
      ],
      "transaction": {
        "from": "0xcad1a7864a108dbff67f4b8af71fab0c7a86d0b6",
        "to": "0xfc629bc5f6339f77635f4f656fbb114a31f7bcb3",
        "value": "0x0",
        "input": "0x82c3b9650000000000000000000000003bbe928340c61a65cb6c4a87b3fb59b6f3f7606a0000000000000000000000000000000000000000000000000000000000000001",
        "nonce": "0x1ce",
        "chainId": "0x1"
      },
      "additionalContracts": [],
      "isFixedGasLimit": false
    },
    {
      "hash": "0xb8e67b7009975006363794deb30d10fd72c4349ca8f6879e3ed1956bcfa830f1",
      "transactionType": "CALL",
      "contractName": null,
      "contractAddress": "0xe7aec21bf6420ff483107adcb9360c4b31d69d78",
      "function": "setWithdrawer(address,bool)",
      "arguments": [
        "0xb9639e6Be92033F55E6D9E375Fd1C28ceEdbA50E",
        "false"
      ],
      "transaction": {
        "from": "0xcad1a7864a108dbff67f4b8af71fab0c7a86d0b6",
        "to": "0xe7aec21bf6420ff483107adcb9360c4b31d69d78",
        "value": "0x0",
        "input": "0x82c3b965000000000000000000000000b9639e6be92033f55e6d9e375fd1c28ceedba50e0000000000000000000000000000000000000000000000000000000000000000",
        "nonce": "0x1cf",
        "chainId": "0x1"
      },
      "additionalContracts": [],
      "isFixedGasLimit": false
    },
    {
      "hash": "0xbc902b394ba984997920b16d2ef36b2a8e3971fbfe47a15465f58db5b280f8e5",
      "transactionType": "CALL",
      "contractName": null,
      "contractAddress": "0x8b4a75290a1c4935ec1dfd990374ac4bd4d33952",
      "function": "setWithdrawer(address,bool)",
      "arguments": [
        "0xb9639e6Be92033F55E6D9E375Fd1C28ceEdbA50E",
        "false"
      ],
      "transaction": {
        "from": "0xcad1a7864a108dbff67f4b8af71fab0c7a86d0b6",
        "to": "0x8b4a75290a1c4935ec1dfd990374ac4bd4d33952",
        "value": "0x0",
        "input": "0x82c3b965000000000000000000000000b9639e6be92033f55e6d9e375fd1c28ceedba50e0000000000000000000000000000000000000000000000000000000000000000",
        "nonce": "0x1d0",
        "chainId": "0x1"
      },
      "additionalContracts": [],
      "isFixedGasLimit": false
    },
    {
      "hash": "0x0499b473c6909cf2dbec751db1604e7fc1ffce6b9e044d14a33857090ae756ac",
      "transactionType": "CALL",
      "contractName": null,
      "contractAddress": "0xfc629bc5f6339f77635f4f656fbb114a31f7bcb3",
      "function": "setWithdrawer(address,bool)",
      "arguments": [
        "0xb9639e6Be92033F55E6D9E375Fd1C28ceEdbA50E",
        "false"
      ],
      "transaction": {
        "from": "0xcad1a7864a108dbff67f4b8af71fab0c7a86d0b6",
        "to": "0xfc629bc5f6339f77635f4f656fbb114a31f7bcb3",
        "value": "0x0",
        "input": "0x82c3b965000000000000000000000000b9639e6be92033f55e6d9e375fd1c28ceedba50e0000000000000000000000000000000000000000000000000000000000000000",
        "nonce": "0x1d1",
        "chainId": "0x1"
      },
      "additionalContracts": [],
      "isFixedGasLimit": false
    },
    {
      "hash": "0xd8a7e98e4f8b3fb322d0cc2f6eccc4dcc79b0692b3ac6d8a997d840470838005",
      "transactionType": "CALL",
      "contractName": null,
      "contractAddress": "0x39af088408e815844c567037c157b31d48d2e10f",
      "function": "setAuthorizedBurner(address,bool)",
      "arguments": [
        "0x3bBE928340c61a65Cb6C4a87B3fb59B6f3F7606a",
        "true"
      ],
      "transaction": {
        "from": "0xcad1a7864a108dbff67f4b8af71fab0c7a86d0b6",
        "to": "0x39af088408e815844c567037c157b31d48d2e10f",
        "value": "0x0",
        "input": "0x0ac28ff80000000000000000000000003bbe928340c61a65cb6c4a87b3fb59b6f3f7606a0000000000000000000000000000000000000000000000000000000000000001",
        "nonce": "0x1d2",
        "chainId": "0x1"
      },
      "additionalContracts": [],
      "isFixedGasLimit": false
    },
    {
      "hash": "0x7c26230aa187e20022b4faa713eea22b9fea103c285982f071a65ce9c6f3e7d9",
      "transactionType": "CALL",
      "contractName": null,
      "contractAddress": "0x39af088408e815844c567037c157b31d48d2e10f",
      "function": "setAuthorizedBurner(address,bool)",
      "arguments": [
        "0xb9639e6Be92033F55E6D9E375Fd1C28ceEdbA50E",
        "false"
      ],
      "transaction": {
        "from": "0xcad1a7864a108dbff67f4b8af71fab0c7a86d0b6",
        "to": "0x39af088408e815844c567037c157b31d48d2e10f",
        "value": "0x0",
        "input": "0x0ac28ff8000000000000000000000000b9639e6be92033f55e6d9e375fd1c28ceedba50e0000000000000000000000000000000000000000000000000000000000000000",
        "nonce": "0x1d3",
        "chainId": "0x1"
      },
      "additionalContracts": [],
      "isFixedGasLimit": false
    },
    {
      "hash": "0x60dcaccdc72aebb809d21d626d414cb6b8a4c57f7e50701562c84ae7dcb7bf03",
      "transactionType": "CALL",
      "contractName": null,
      "contractAddress": "0x39af088408e815844c567037c157b31d48d2e10f",
      "function": "registerDispatcher(address,uint256,uint256)",
      "arguments": [
        "0x4da153dc02bB084528D10335759f2C4447e6f73d",
        "12003365287717681406",
        "1"
      ],
      "transaction": {
        "from": "0xcad1a7864a108dbff67f4b8af71fab0c7a86d0b6",
        "to": "0x39af088408e815844c567037c157b31d48d2e10f",
        "value": "0x0",
        "input": "0xb3cb0af80000000000000000000000004da153dc02bb084528d10335759f2c4447e6f73d000000000000000000000000000000000000000000000000a6948521f3aab8fe0000000000000000000000000000000000000000000000000000000000000001",
        "nonce": "0x1d4",
        "chainId": "0x1"
      },
      "additionalContracts": [],
      "isFixedGasLimit": false
    },
    {
      "hash": "0x4e56baee9fbc8d230d71db5a0d9f991a734658d539c7d5916821fe8f596714ab",
      "transactionType": "CALL",
      "contractName": null,
      "contractAddress": "0x39af088408e815844c567037c157b31d48d2e10f",
      "function": "setDispatcherDisabled(uint256,bool)",
      "arguments": [
        "4",
        "true"
      ],
      "transaction": {
        "from": "0xcad1a7864a108dbff67f4b8af71fab0c7a86d0b6",
        "to": "0x39af088408e815844c567037c157b31d48d2e10f",
        "value": "0x0",
        "input": "0x81546b2100000000000000000000000000000000000000000000000000000000000000040000000000000000000000000000000000000000000000000000000000000001",
        "nonce": "0x1d5",
        "chainId": "0x1"
      },
      "additionalContracts": [],
      "isFixedGasLimit": false
    },
    {
      "hash": "0xaa7265c919d5146fa68849efe0fb444dac409a9a007b9eb9e5c38f88ed927f38",
      "transactionType": "CALL",
      "contractName": null,
      "contractAddress": "0x6e957842afbcd01ce9db296d173f39134b362771",
      "function": "withdrawBPT(address,uint256)",
      "arguments": [
        "0xCad1a7864a108DBFF67F4b8af71fAB0C7A86D0B6",
        "615383359487133137326"
      ],
      "transaction": {
        "from": "0xcad1a7864a108dbff67f4b8af71fab0c7a86d0b6",
        "to": "0x6e957842afbcd01ce9db296d173f39134b362771",
        "value": "0x0",
        "input": "0xc580a540000000000000000000000000cad1a7864a108dbff67f4b8af71fab0c7a86d0b60000000000000000000000000000000000000000000000215c28e1034514b9ae",
        "nonce": "0x1d6",
        "chainId": "0x1"
      },
      "additionalContracts": [],
      "isFixedGasLimit": false
    },
    {
      "hash": "0x4ec52ce4f9b99edf31ec926d3bb3e51521e708b43662a0496116ba67d85c0553",
      "transactionType": "CALL",
      "contractName": null,
      "contractAddress": "0x642bb6860b4776cc10b26b8f361fd139e7f0db04",
      "function": "transfer(address,uint256)",
      "arguments": [
        "0x4da153dc02bB084528D10335759f2C4447e6f73d",
        "615383359487133137326"
      ],
      "transaction": {
        "from": "0xcad1a7864a108dbff67f4b8af71fab0c7a86d0b6",
        "to": "0x642bb6860b4776cc10b26b8f361fd139e7f0db04",
        "value": "0x0",
        "input": "0xa9059cbb0000000000000000000000004da153dc02bb084528d10335759f2c4447e6f73d0000000000000000000000000000000000000000000000215c28e1034514b9ae",
        "nonce": "0x1d7",
        "chainId": "0x1"
      },
      "additionalContracts": [],
      "isFixedGasLimit": false
    },
    {
      "hash": "0xc08bcac1d4876f82761351f408748cdd6e17069b7855383c8905ec0298f4b053",
      "transactionType": "CALL",
      "contractName": "Pauser",
      "contractAddress": "0x7c5a8eef1d836450c019fb036453ac6ec97885a3",
      "function": "register(address)",
      "arguments": [
        "0x3bBE928340c61a65Cb6C4a87B3fb59B6f3F7606a"
      ],
      "transaction": {
        "from": "0xcad1a7864a108dbff67f4b8af71fab0c7a86d0b6",
        "to": "0x7c5a8eef1d836450c019fb036453ac6ec97885a3",
        "value": "0x0",
        "input": "0x4420e4860000000000000000000000003bbe928340c61a65cb6c4a87b3fb59b6f3f7606a",
        "nonce": "0x1d8",
        "chainId": "0x1"
      },
      "additionalContracts": [],
      "isFixedGasLimit": false
    }
  ],
  "receipts": [
    {
      "status": "0x1",
      "cumulativeGasUsed": "0x22b7c7c",
      "logs": [
        {
          "address": "0x4ef0fde49360ed31c68ed442ff263cc6291041f3",
          "topics": [
            "0x8be0079c531659141344cd1fd0a4f28419497f9722a3daafe3b4186f6b6457e0",
            "0x0000000000000000000000000000000000000000000000000000000000000000",
            "0x000000000000000000000000cad1a7864a108dbff67f4b8af71fab0c7a86d0b6"
          ],
          "data": "0x",
          "blockHash": "0xc61986acda7dbe685dff30e0c1c098da1a7d2878b6f89e0ffe87bcf933f8d24e",
          "blockNumber": "0x17ebaf4",
          "blockTimestamp": "0x6a03c4f3",
          "transactionHash": "0xd780863866bffc125b9614436b06b6c874e22f7e74d19268806aa4284bf6cdda",
          "transactionIndex": "0x16d",
          "logIndex": "0x209",
          "removed": false
        }
      ],
      "logsBloom": "0x00000000000000000020000000000000000000000000000000800000000000000000000000000000000000400000000000000000000000000000000000000000000000000000000000000000000000000001000000000000000000008000000000000000020000000000000000000800000000000000000000000000000000400000000000000000000000080000000000000000000000000000000000000001000000000000000000000000000000000000000000000000000000000000000000000000000000000000000000000000000000000000100000000000000020000000000000000000000000000000000000000000000000000000000000000000",
      "type": "0x2",
      "transactionHash": "0xd780863866bffc125b9614436b06b6c874e22f7e74d19268806aa4284bf6cdda",
      "transactionIndex": "0x16d",
      "blockHash": "0xc61986acda7dbe685dff30e0c1c098da1a7d2878b6f89e0ffe87bcf933f8d24e",
      "blockNumber": "0x17ebaf4",
      "gasUsed": "0xafe11",
      "effectiveGasPrice": "0x6876194",
      "from": "0xcad1a7864a108dbff67f4b8af71fab0c7a86d0b6",
      "to": null,
      "contractAddress": "0x4ef0fde49360ed31c68ed442ff263cc6291041f3"
    },
    {
      "status": "0x1",
      "cumulativeGasUsed": "0x1e10b69",
      "logs": [
        {
          "address": "0x3bbe928340c61a65cb6c4a87b3fb59b6f3f7606a",
          "topics": [
            "0x8be0079c531659141344cd1fd0a4f28419497f9722a3daafe3b4186f6b6457e0",
            "0x0000000000000000000000000000000000000000000000000000000000000000",
            "0x000000000000000000000000cad1a7864a108dbff67f4b8af71fab0c7a86d0b6"
          ],
          "data": "0x",
          "blockHash": "0x4dbf2e305c97fbd95a6cbe3749a64dd939c91f6abf1321d074c53cf5ebc6efcf",
          "blockNumber": "0x17ebaf5",
          "blockTimestamp": "0x6a03c4ff",
          "transactionHash": "0x67038b07dba678990a39231481a6cfeb413b5b99af3867c412cddf6594847900",
          "transactionIndex": "0x17d",
          "logIndex": "0x1ca",
          "removed": false
        }
      ],
      "logsBloom": "0x00000000000000000020000000000000000000000000000000800000000000000000000000001000000000400000000000000000000000000000000000000000000000000000000000000000000000000001000000000000000000000000000000000000020000000000000000000800000000000000000000000000000000400000000000000000000000000000000000000000000000000000000000000000000000000000000000000000000000000000000000000000000000000000000000000000000000000000000000000000000000000000100000000000000020000400000000000000000000000000000000000000000000000000000020000000",
      "type": "0x2",
      "transactionHash": "0x67038b07dba678990a39231481a6cfeb413b5b99af3867c412cddf6594847900",
      "transactionIndex": "0x17d",
      "blockHash": "0x4dbf2e305c97fbd95a6cbe3749a64dd939c91f6abf1321d074c53cf5ebc6efcf",
      "blockNumber": "0x17ebaf5",
      "gasUsed": "0x23398d",
      "effectiveGasPrice": "0x733a774",
      "from": "0xcad1a7864a108dbff67f4b8af71fab0c7a86d0b6",
      "to": null,
      "contractAddress": "0x3bbe928340c61a65cb6c4a87b3fb59b6f3f7606a"
    },
    {
      "status": "0x1",
      "cumulativeGasUsed": "0x203756d",
      "logs": [
        {
          "address": "0x4da153dc02bb084528d10335759f2c4447e6f73d",
          "topics": [
            "0x8be0079c531659141344cd1fd0a4f28419497f9722a3daafe3b4186f6b6457e0",
            "0x0000000000000000000000000000000000000000000000000000000000000000",
            "0x000000000000000000000000cad1a7864a108dbff67f4b8af71fab0c7a86d0b6"
          ],
          "data": "0x",
          "blockHash": "0x55e6be14a4a5933e1dcad41a578f64edd7522086f07b49f6459d7428483e58a1",
          "blockNumber": "0x17ebaf7",
          "blockTimestamp": "0x6a03c517",
          "transactionHash": "0xeebbc788020ef62b28bb5a4f82ed3cdf9f75a4d6528014b9b52cb029f78344dd",
          "transactionIndex": "0x226",
          "logIndex": "0x2b6",
          "removed": false
        }
      ],
      "logsBloom": "0x00000000000000000020000000000000000000000000000000800000000000000000000000000000000040400000000000000000000000000000000000000000000000000000000000000000000000000001000000000000000000000000000000000000020000000000000000000800000000000000000000000000200000400000000000000000000000000000000000000000000000000000000000000000000000000000000000000000000000000000000000000000000000000000000000000000000000000000000000000000000000000000100000000000000020000000000000000000000000000000000000000000000000000000000000000100",
      "type": "0x2",
      "transactionHash": "0xeebbc788020ef62b28bb5a4f82ed3cdf9f75a4d6528014b9b52cb029f78344dd",
      "transactionIndex": "0x226",
      "blockHash": "0x55e6be14a4a5933e1dcad41a578f64edd7522086f07b49f6459d7428483e58a1",
      "blockNumber": "0x17ebaf7",
      "gasUsed": "0x2aa2de",
      "effectiveGasPrice": "0x705c33e",
      "from": "0xcad1a7864a108dbff67f4b8af71fab0c7a86d0b6",
      "to": null,
      "contractAddress": "0x4da153dc02bb084528d10335759f2c4447e6f73d"
    },
    {
      "status": "0x1",
      "cumulativeGasUsed": "0x10ffda5",
      "logs": [],
      "logsBloom": "0x00000000000000000000000000000000000000000000000000000000000000000000000000000000000000000000000000000000000000000000000000000000000000000000000000000000000000000000000000000000000000000000000000000000000000000000000000000000000000000000000000000000000000000000000000000000000000000000000000000000000000000000000000000000000000000000000000000000000000000000000000000000000000000000000000000000000000000000000000000000000000000000000000000000000000000000000000000000000000000000000000000000000000000000000000000000",
      "type": "0x2",
      "transactionHash": "0xa3fc3e0a6c77e160b48819eb7839b94463feca1c89503511f727b6d38a064bce",
      "transactionIndex": "0x89",
      "blockHash": "0x8f3289d717471e1fd859892433e78c91339e8f6bde149aa54be6de509d8945a2",
      "blockNumber": "0x17ebaf8",
      "gasUsed": "0xb54a",
      "effectiveGasPrice": "0x73fefd2",
      "from": "0xcad1a7864a108dbff67f4b8af71fab0c7a86d0b6",
      "to": "0x3bbe928340c61a65cb6c4a87b3fb59b6f3f7606a",
      "contractAddress": null
    },
    {
      "status": "0x1",
      "cumulativeGasUsed": "0x213b5a6",
      "logs": [
        {
          "address": "0x3bbe928340c61a65cb6c4a87b3fb59b6f3f7606a",
          "topics": [
            "0xa7e775663e2a425eb025700e66923142815918016f708c7ae545e2ebf1477bdc",
            "0x0000000000000000000000000000000000000000000000000000000000000000",
            "0x0000000000000000000000003984ebc84d45a889ddac595d13dc0ac2e54819f4"
          ],
          "data": "0x",
          "blockHash": "0x9bf98e93371526adf4f8796259da4b6cb5b1265bac462d32fdd47c9643c2c171",
          "blockNumber": "0x17ebaf9",
          "blockTimestamp": "0x6a03c52f",
          "transactionHash": "0x5bb7c0c8191710b8d229ba5a41d5e4fa24f421bcee58f8d42adeabc251f3f635",
          "transactionIndex": "0x390",
          "logIndex": "0x1b3",
          "removed": false
        }
      ],
      "logsBloom": "0x00000000000000000000000000000000000000000000000000000000000000000000000000001000020000000000000000000000000000000000000000040000000000000000000000000000000000000000000000000000000000000000000000000000020000000000000400000800000000000000000000000000000000000000000000000080000000000000000000000000000000000000000000000000000000000000000000000000000000000000000000000000000400000000000000000000000000000000000000000000000000000000000000000000000020000400000010000000000000000000000000000000000000000000000020000000",
      "type": "0x2",
      "transactionHash": "0x5bb7c0c8191710b8d229ba5a41d5e4fa24f421bcee58f8d42adeabc251f3f635",
      "transactionIndex": "0x390",
      "blockHash": "0x9bf98e93371526adf4f8796259da4b6cb5b1265bac462d32fdd47c9643c2c171",
      "blockNumber": "0x17ebaf9",
      "gasUsed": "0xbbb5",
      "effectiveGasPrice": "0x6ecf469",
      "from": "0xcad1a7864a108dbff67f4b8af71fab0c7a86d0b6",
      "to": "0x3bbe928340c61a65cb6c4a87b3fb59b6f3f7606a",
      "contractAddress": null
    },
    {
      "status": "0x1",
      "cumulativeGasUsed": "0x16734ab",
      "logs": [
        {
          "address": "0x3bbe928340c61a65cb6c4a87b3fb59b6f3f7606a",
          "topics": [
            "0x1cf2de25c5bf439ac0287061c3a0fa69b3b02867d0ccfd2ded34e42577050b73",
            "0x0000000000000000000000000000000000000000000000000000000000000000",
            "0x000000000000000000000000435b0a1884bd0fb5667677c9eb0e59425b1477e5"
          ],
          "data": "0x",
          "blockHash": "0x21ba1540ab0a7341c5c7b3e552bf8c248c182f599340a587c3f4bb28e73cfcf2",
          "blockNumber": "0x17ebafb",
          "blockTimestamp": "0x6a03c547",
          "transactionHash": "0xd1f3cf358bb4bb635e0767f8abafcd64cf412a659a4ecabc781033afb8556262",
          "transactionIndex": "0x179",
          "logIndex": "0x16c",
          "removed": false
        }
      ],
      "logsBloom": "0x00000000000000200000000000000000000000000000000000000000000000000000000000001000000000000000080000000000000000000000000000000000000000000000000000000010000000000000000000000000000001000000000000000000020000000000000000000800000000000000000000000000000000000100000000000000000000000000000000000000000000000000000000000000000000000000000000000000000000000000000000000000000000000000000000000004000000000000000000000000000000000000000000000000000020000400000000000000000000000000000000000000000000000000000020000000",
      "type": "0x2",
      "transactionHash": "0xd1f3cf358bb4bb635e0767f8abafcd64cf412a659a4ecabc781033afb8556262",
      "transactionIndex": "0x179",
      "blockHash": "0x21ba1540ab0a7341c5c7b3e552bf8c248c182f599340a587c3f4bb28e73cfcf2",
      "blockNumber": "0x17ebafb",
      "gasUsed": "0xbcbd",
      "effectiveGasPrice": "0x6f329d5",
      "from": "0xcad1a7864a108dbff67f4b8af71fab0c7a86d0b6",
      "to": "0x3bbe928340c61a65cb6c4a87b3fb59b6f3f7606a",
      "contractAddress": null
    },
    {
      "status": "0x1",
      "cumulativeGasUsed": "0x8d5ca0",
      "logs": [
        {
          "address": "0x3bbe928340c61a65cb6c4a87b3fb59b6f3f7606a",
          "topics": [
            "0xa4795e14b1c917ddad7be29b25eaa17e823ed7d0efa398a75d645b11b8476a48",
            "0x0000000000000000000000000000000000000000000000000000000000000000",
            "0x00000000000000000000000039af088408e815844c567037c157b31d48d2e10f"
          ],
          "data": "0x",
          "blockHash": "0x681aabd853ff76915665cbdf5a47784216054d8b77f21ebe031d30901bc91d5e",
          "blockNumber": "0x17ebafc",
          "blockTimestamp": "0x6a03c553",
          "transactionHash": "0x4e2baba25ec0398f2aef389125add0db98f7be80eac237fdecb1e649b9a7516a",
          "transactionIndex": "0x6b",
          "logIndex": "0xd8",
          "removed": false
        }
      ],
      "logsBloom": "0x000000000000000000000000000000000002000000000000000000000000000000000000000010000000000000000000000000000000000000000000000000000000000040000000000000000000000000000000000000000000000000000000000000000200000000000000000008000000000000000000000000000000000000000000000000000000000000000000000000000000000000000000000000000000000000004000000000000000400000000000000000000000000000000000000000000000000000000000000000000000000000000000000000000000200004000000000000000000000000a0000000000000000000000000000020000000",
      "type": "0x2",
      "transactionHash": "0x4e2baba25ec0398f2aef389125add0db98f7be80eac237fdecb1e649b9a7516a",
      "transactionIndex": "0x6b",
      "blockHash": "0x681aabd853ff76915665cbdf5a47784216054d8b77f21ebe031d30901bc91d5e",
      "blockNumber": "0x17ebafc",
      "gasUsed": "0xbad6",
      "effectiveGasPrice": "0x6fa7b04",
      "from": "0xcad1a7864a108dbff67f4b8af71fab0c7a86d0b6",
      "to": "0x3bbe928340c61a65cb6c4a87b3fb59b6f3f7606a",
      "contractAddress": null
    },
    {
      "status": "0x1",
      "cumulativeGasUsed": "0x11d762e",
      "logs": [
        {
          "address": "0x3bbe928340c61a65cb6c4a87b3fb59b6f3f7606a",
          "topics": [
            "0x1ff153f4b082245afbf3211a8d2d207da4c5df490e965f9a9ad141b0cd001dda",
            "0x0000000000000000000000000000000000000000000000000000000000000000",
            "0x0000000000000000000000007c5a8eef1d836450c019fb036453ac6ec97885a3"
          ],
          "data": "0x",
          "blockHash": "0x0c6d86b6d9bd37af0edbca9bab222c26498440d974cfcd49e12c33dd671e92de",
          "blockNumber": "0x17ebafd",
          "blockTimestamp": "0x6a03c55f",
          "transactionHash": "0x781a186fbe04d8f70ddc59060b6aed7bd96c180eec8d3f124f3093134706e42b",
          "transactionIndex": "0xbd",
          "logIndex": "0x10f",
          "removed": false
        }
      ],
      "logsBloom": "0x00000001000000000000000000000000000000000000000000000000000000000000000000001000000000000000000000000000200000000000000000000000000000000000000000000000000000000000000000000000000000000000000000000000020000000000080000000800000000000000000000000000000000000000000000000000000000000000000000000000000000000000000000000000000000000000000000400000000000000000000000000000000000000000000000000000000000000000000000000400000000000000000000000000000020000400000000000000000000000000000010000000000000000000000020000000",
      "type": "0x2",
      "transactionHash": "0x781a186fbe04d8f70ddc59060b6aed7bd96c180eec8d3f124f3093134706e42b",
      "transactionIndex": "0xbd",
      "blockHash": "0x0c6d86b6d9bd37af0edbca9bab222c26498440d974cfcd49e12c33dd671e92de",
      "blockNumber": "0x17ebafd",
      "gasUsed": "0xb9a2",
      "effectiveGasPrice": "0x678d034",
      "from": "0xcad1a7864a108dbff67f4b8af71fab0c7a86d0b6",
      "to": "0x3bbe928340c61a65cb6c4a87b3fb59b6f3f7606a",
      "contractAddress": null
    },
    {
      "status": "0x1",
      "cumulativeGasUsed": "0x23c57ea",
      "logs": [
        {
          "address": "0x3bbe928340c61a65cb6c4a87b3fb59b6f3f7606a",
          "topics": [
            "0x58e9aed9f5d55d3f9514533a98d34269ea1369f4f0f27c5600146f9c8dca770f",
            "0x000000000000000000000000a0b86991c6218b36c1d19d4a2e9eb0ce3606eb48"
          ],
          "data": "0x00000000000000000000000000000000000000000000000000000000000000060000000000000000000000000000000000000000000000000de0b6b3a7640000",
          "blockHash": "0xbe56cd704b5edb7fc873b79b8e51ac1d82863151e4adcae05d4c404d38510924",
          "blockNumber": "0x17ebafe",
          "blockTimestamp": "0x6a03c56b",
          "transactionHash": "0xb4cb8e57580e6a86b2785cc7e8217972ea67dc1a1164f0aac76124264f8d8451",
          "transactionIndex": "0xd5",
          "logIndex": "0x26c",
          "removed": false
        }
      ],
      "logsBloom": "0x00000000000000000000000000000000000000000000000000000000000000000000000000001000000002000000000000000000000000000000000000000000000000000000000000000000000000000000000000000000000000000000000000000000000000000000000000000000000000000000000000000000000200000000000000000000000000000000000200000000000000000000000000010000000000000000000000000000000000000000000004000000000000000000000000000000000000000000000000000000000000000000000000000000000000000400000000000000000000000000000004000000000000000000000020000000",
      "type": "0x2",
      "transactionHash": "0xb4cb8e57580e6a86b2785cc7e8217972ea67dc1a1164f0aac76124264f8d8451",
      "transactionIndex": "0xd5",
      "blockHash": "0xbe56cd704b5edb7fc873b79b8e51ac1d82863151e4adcae05d4c404d38510924",
      "blockNumber": "0x17ebafe",
      "gasUsed": "0x11356",
      "effectiveGasPrice": "0x6984b5e",
      "from": "0xcad1a7864a108dbff67f4b8af71fab0c7a86d0b6",
      "to": "0x3bbe928340c61a65cb6c4a87b3fb59b6f3f7606a",
      "contractAddress": null
    },
    {
      "status": "0x1",
      "cumulativeGasUsed": "0x10540fc",
      "logs": [
        {
          "address": "0x3bbe928340c61a65cb6c4a87b3fb59b6f3f7606a",
          "topics": [
            "0x58e9aed9f5d55d3f9514533a98d34269ea1369f4f0f27c5600146f9c8dca770f",
            "0x000000000000000000000000865377367054516e17014ccded1e7d814edc9ce4"
          ],
          "data": "0x00000000000000000000000000000000000000000000000000000000000000120000000000000000000000000000000000000000000000000de0b6b3a7640000",
          "blockHash": "0xb88f8ed433b261ac9694c90f86fbd8bbfff9466439655c10b3e2ba51ec17b0fe",
          "blockNumber": "0x17ebaff",
          "blockTimestamp": "0x6a03c577",
          "transactionHash": "0x1ce99e9fe0200411f46ab09aa81aafc8596d5abd6d26c1aea3a918b07817770a",
          "transactionIndex": "0x9b",
          "logIndex": "0x1c0",
          "removed": false
        }
      ],
      "logsBloom": "0x00000000000000000000000000000000000000000000000000000000000000000000000000001000000000000000000000000000000000000000000000000000000000000000000000000000000000000000000000000000000000000000000000000000000000000000000000000000000000000000000000000010000200000000000000000000000000000000000000000000000000000000000000010000000000000000000000000000000000000000000004000000000000000000000000000000001000000000000000000000000000020000000000000000000000000400000000000000000000000000000000000000000000000000000020000000",
      "type": "0x2",
      "transactionHash": "0x1ce99e9fe0200411f46ab09aa81aafc8596d5abd6d26c1aea3a918b07817770a",
      "transactionIndex": "0x9b",
      "blockHash": "0xb88f8ed433b261ac9694c90f86fbd8bbfff9466439655c10b3e2ba51ec17b0fe",
      "blockNumber": "0x17ebaff",
      "gasUsed": "0x11356",
      "effectiveGasPrice": "0x6e77f84",
      "from": "0xcad1a7864a108dbff67f4b8af71fab0c7a86d0b6",
      "to": "0x3bbe928340c61a65cb6c4a87b3fb59b6f3f7606a",
      "contractAddress": null
    },
    {
      "status": "0x1",
      "cumulativeGasUsed": "0x25bf21f",
      "logs": [
        {
          "address": "0x3bbe928340c61a65cb6c4a87b3fb59b6f3f7606a",
          "topics": [
            "0x58e9aed9f5d55d3f9514533a98d34269ea1369f4f0f27c5600146f9c8dca770f",
            "0x0000000000000000000000004c9edd5852cd905f086c759e8383e09bff1e68b3"
          ],
          "data": "0x00000000000000000000000000000000000000000000000000000000000000120000000000000000000000000000000000000000000000000de0b6b3a7640000",
          "blockHash": "0xf787e325f713a6815e997a39c4b906c5b41d4b2bfc2facb152c3fe12f69a54d6",
          "blockNumber": "0x17ebb02",
          "blockTimestamp": "0x6a03c59b",
          "transactionHash": "0x88152108c60564d0ddd83023b3d5fbad2f519ed0a07e2cd8cd5746143450d218",
          "transactionIndex": "0x1b3",
          "logIndex": "0x34f",
          "removed": false
        }
      ],
      "logsBloom": "0x00000000000000000000000000000000000000000000000000000000000000000000000000001000000000000000000000000000000000000000000000000000000000000000000000000000000000000000000000000000000000000000000000000000000000000000000000000000000000000000000000000000000200000000000000000000000000000000000000000001000000000000000000010000000000000000000000000000000000000000000004000000000000000000020000000000000000000000000000000000000000000000000000000000000000000400000000000000000000000000080000000000000000000000000020000000",
      "type": "0x2",
      "transactionHash": "0x88152108c60564d0ddd83023b3d5fbad2f519ed0a07e2cd8cd5746143450d218",
      "transactionIndex": "0x1b3",
      "blockHash": "0xf787e325f713a6815e997a39c4b906c5b41d4b2bfc2facb152c3fe12f69a54d6",
      "blockNumber": "0x17ebb02",
      "gasUsed": "0x11356",
      "effectiveGasPrice": "0x61c6051",
      "from": "0xcad1a7864a108dbff67f4b8af71fab0c7a86d0b6",
      "to": "0x3bbe928340c61a65cb6c4a87b3fb59b6f3f7606a",
      "contractAddress": null
    },
    {
      "status": "0x1",
      "cumulativeGasUsed": "0x14d1597",
      "logs": [
        {
          "address": "0x3bbe928340c61a65cb6c4a87b3fb59b6f3f7606a",
          "topics": [
            "0xdc4b546afdb935e93f993a347dbbab9b6a533a7c1ab745d14e05163767d5b10a",
            "0x000000000000000000000000e7aec21bf6420ff483107adcb9360c4b31d69d78"
          ],
          "data": "0x",
          "blockHash": "0x4ac79bdd068bef397ab9e9e82496e7146ce95c37507f62bb45e784a7d236a935",
          "blockNumber": "0x17ebb03",
          "blockTimestamp": "0x6a03c5a7",
          "transactionHash": "0x4a26ccc8e53ff152c8a0c36771f82435960cb0a2136cb27a334ef909715d434e",
          "transactionIndex": "0x13f",
          "logIndex": "0x1cc",
          "removed": false
        }
      ],
      "logsBloom": "0x00000000000000000000000000000000000000000000000000000000000000000000000000105000000000000000000000000000000000000004000000000000000000000000000000000000000000000000000000000000000000000000000000000000000000000000000000000000000000000000000000000000000000000000000000004000000000000000000000000000000000000000000000000020000000000000000000000020000000000000000000000000000000000000000000000000000000000000000000000000000000000000000000000000000000000400000000000000000000000000000000000000000000000000000020000000",
      "type": "0x2",
      "transactionHash": "0x4a26ccc8e53ff152c8a0c36771f82435960cb0a2136cb27a334ef909715d434e",
      "transactionIndex": "0x13f",
      "blockHash": "0x4ac79bdd068bef397ab9e9e82496e7146ce95c37507f62bb45e784a7d236a935",
      "blockNumber": "0x17ebb03",
      "gasUsed": "0x1c01e",
      "effectiveGasPrice": "0x6826ab8",
      "from": "0xcad1a7864a108dbff67f4b8af71fab0c7a86d0b6",
      "to": "0x3bbe928340c61a65cb6c4a87b3fb59b6f3f7606a",
      "contractAddress": null
    },
    {
      "status": "0x1",
      "cumulativeGasUsed": "0x25a74d8",
      "logs": [
        {
          "address": "0x3bbe928340c61a65cb6c4a87b3fb59b6f3f7606a",
          "topics": [
            "0xdc4b546afdb935e93f993a347dbbab9b6a533a7c1ab745d14e05163767d5b10a",
            "0x0000000000000000000000008b4a75290a1c4935ec1dfd990374ac4bd4d33952"
          ],
          "data": "0x",
          "blockHash": "0x5ba749469afe90c9362f3c3fd04e514175ddef47279a70df012dc9af57310caf",
          "blockNumber": "0x17ebb05",
          "blockTimestamp": "0x6a03c5bf",
          "transactionHash": "0xa413c13a7c6e837fb1d74f80c014f930f8c5d42439493bba9c0d3dd8d8f46728",
          "transactionIndex": "0xf4",
          "logIndex": "0x412",
          "removed": false
        }
      ],
      "logsBloom": "0x00000000000000000000000000000000000000000000000000000000000000000000000000105000000000000000000000000000000000000004000000000000000000000000000000000000000000000000000000000000000000000000000000000000000000000000000000020000000000000000000000000000000000000000000000000000000000000000000000000000000000000000000000000000010000002000000000000000000000000000000000000000000000000000000000000000000000000000000000000000000000000000000000000000000000000400000000000000000000000000000000000000000000000000000020000000",
      "type": "0x2",
      "transactionHash": "0xa413c13a7c6e837fb1d74f80c014f930f8c5d42439493bba9c0d3dd8d8f46728",
      "transactionIndex": "0xf4",
      "blockHash": "0x5ba749469afe90c9362f3c3fd04e514175ddef47279a70df012dc9af57310caf",
      "blockNumber": "0x17ebb05",
      "gasUsed": "0x17d52",
      "effectiveGasPrice": "0x5d0d3dd",
      "from": "0xcad1a7864a108dbff67f4b8af71fab0c7a86d0b6",
      "to": "0x3bbe928340c61a65cb6c4a87b3fb59b6f3f7606a",
      "contractAddress": null
    },
    {
      "status": "0x1",
      "cumulativeGasUsed": "0x27c73f3",
      "logs": [
        {
          "address": "0x3bbe928340c61a65cb6c4a87b3fb59b6f3f7606a",
          "topics": [
            "0xdc4b546afdb935e93f993a347dbbab9b6a533a7c1ab745d14e05163767d5b10a",
            "0x000000000000000000000000fc629bc5f6339f77635f4f656fbb114a31f7bcb3"
          ],
          "data": "0x",
          "blockHash": "0x09f25dc5d9c9579b4fee0bea9705ab6784573298077453f2a41dab45c7cfa2a6",
          "blockNumber": "0x17ebb07",
          "blockTimestamp": "0x6a03c5d7",
          "transactionHash": "0x20039bd415f76ec46ba7475279f6b6498156529fe705546ae40c84523de582b9",
          "transactionIndex": "0xcb",
          "logIndex": "0x1b8",
          "removed": false
        }
      ],
      "logsBloom": "0x00000000000000000000000000000000000000000000000000000000000000000000000000105000000000000000000000000000000000000004000000000000000000000000000000000000000000000000000000000000000000000000000000000000000000000000000000000000000000000000000000000000000800000000000000000000000000000000000000000000000000000000000000000000000000000000000000000000000000000000000000000400000000000000000000000000000000000000000000000000000000000100000000000000000000000400000000000000000000000000000000000000000000000000000020000000",
      "type": "0x2",
      "transactionHash": "0x20039bd415f76ec46ba7475279f6b6498156529fe705546ae40c84523de582b9",
      "transactionIndex": "0xcb",
      "blockHash": "0x09f25dc5d9c9579b4fee0bea9705ab6784573298077453f2a41dab45c7cfa2a6",
      "blockNumber": "0x17ebb07",
      "gasUsed": "0x17d52",
      "effectiveGasPrice": "0x66ab513",
      "from": "0xcad1a7864a108dbff67f4b8af71fab0c7a86d0b6",
      "to": "0x3bbe928340c61a65cb6c4a87b3fb59b6f3f7606a",
      "contractAddress": null
    },
    {
      "status": "0x1",
      "cumulativeGasUsed": "0x14a6703",
      "logs": [
        {
          "address": "0x3bbe928340c61a65cb6c4a87b3fb59b6f3f7606a",
          "topics": [
            "0xbde6b2554a797ee1ab75b4f90ad50200dcd2a80165488896faacd30a0a013174"
          ],
          "data": "0x00000000000000000000000000000000000000000000000000000000000000000000000000000000000000000000000000000000000000000000000000000bb8",
          "blockHash": "0x7286919879a05932b9ef446ba96f706adfc513c89ca63d778f63ffce7d7b5631",
          "blockNumber": "0x17ebb0a",
          "blockTimestamp": "0x6a03c5fb",
          "transactionHash": "0x5f4a821f75deba3a9faac46373198b9db2b08b2db1ac2d9ee03d51a2119d4fef",
          "transactionIndex": "0xfd",
          "logIndex": "0x221",
          "removed": false
        }
      ],
      "logsBloom": "0x00000000000000000000000000000000000000000000000000000000000000000000000000001000000000000000000000004000000000000000000000000000000000000000000000000000000000000000000000000000000000000000000000000000000000000000100000000000000000000000000000000000000000000000000000000000000000000000000000000000000000000000000000000000000000000000000000000000000000000000000000000000000000000000000000000000000000000000000000000000000000000000000000010000000000000400000000000000000000000000000000000000000000000000000020000000",
      "type": "0x2",
      "transactionHash": "0x5f4a821f75deba3a9faac46373198b9db2b08b2db1ac2d9ee03d51a2119d4fef",
      "transactionIndex": "0xfd",
      "blockHash": "0x7286919879a05932b9ef446ba96f706adfc513c89ca63d778f63ffce7d7b5631",
      "blockNumber": "0x17ebb0a",
      "gasUsed": "0xb90c",
      "effectiveGasPrice": "0x6657fea",
      "from": "0xcad1a7864a108dbff67f4b8af71fab0c7a86d0b6",
      "to": "0x3bbe928340c61a65cb6c4a87b3fb59b6f3f7606a",
      "contractAddress": null
    },
    {
      "status": "0x1",
      "cumulativeGasUsed": "0x137cd12",
      "logs": [
        {
          "address": "0x3bbe928340c61a65cb6c4a87b3fb59b6f3f7606a",
          "topics": [
            "0xb94dcf2c9ff6813b44ddb73cffafcc975ecb6a70ad6d75e2ed65495b201a419e",
            "0x0000000000000000000000000000000000000000000000000000000000000000",
            "0x0000000000000000000000004ef0fde49360ed31c68ed442ff263cc6291041f3"
          ],
          "data": "0x",
          "blockHash": "0x838d2d7076c59537b44391d95dc8773d105c6177368c5cae6f65c825a1dc0233",
          "blockNumber": "0x17ebb0c",
          "blockTimestamp": "0x6a03c613",
          "transactionHash": "0x128c4125ee40998757afb4dbf171b65f795a82a95d3866ed35a39c0cde3d9da5",
          "transactionIndex": "0x149",
          "logIndex": "0x1bb",
          "removed": false
        }
      ],
      "logsBloom": "0x00000000000000000000000000000000000000000000000000000000000000000000000000001000000000000000000000000000000000000000000000000000000000000000000000000000000000000000000000000000000000000000000000000000020000000000000000000800000000100000000000000000000004000000000000000000000000000000000000000000000000010000000000000000000000000040000000000000000000000000000000000000000000000000000000008000000000000000000000000000000000000000000000008000000020000400000000000000000000000000000000000000000000000000000020000000",
      "type": "0x2",
      "transactionHash": "0x128c4125ee40998757afb4dbf171b65f795a82a95d3866ed35a39c0cde3d9da5",
      "transactionIndex": "0x149",
      "blockHash": "0x838d2d7076c59537b44391d95dc8773d105c6177368c5cae6f65c825a1dc0233",
      "blockNumber": "0x17ebb0c",
      "gasUsed": "0xb9b8",
      "effectiveGasPrice": "0x639760a",
      "from": "0xcad1a7864a108dbff67f4b8af71fab0c7a86d0b6",
      "to": "0x3bbe928340c61a65cb6c4a87b3fb59b6f3f7606a",
      "contractAddress": null
    },
    {
      "status": "0x1",
      "cumulativeGasUsed": "0x94b627",
      "logs": [
        {
          "address": "0x3bbe928340c61a65cb6c4a87b3fb59b6f3f7606a",
          "topics": [
            "0xc4df7cf7130f9356fe3a29a136c893959b0cdf945bc850d1829b45df203e3ee6"
          ],
          "data": "0x0000000000000000000000000000000000000000000000000000000000000000000000000000000000000000000000000000000000000000000000000000001e",
          "blockHash": "0x1eff990868983cd8d13c14574aca45321adca8f243a538871ef3b33bd111900d",
          "blockNumber": "0x17ebb0d",
          "blockTimestamp": "0x6a03c61f",
          "transactionHash": "0x5cc1da4b92e518379815eed6a6bc907c6c33c3357fdd71dad910eb3d3db6681e",
          "transactionIndex": "0xb0",
          "logIndex": "0xc3",
          "removed": false
        }
      ],
      "logsBloom": "0x00000000000000000000000000000000000000000000000000000000000000000000000000001000000000000000000000000000000000000000000000000000000000000000000000000000000000000000000040000000000000000000000000000000000000000000000000000000000000000000000000000000000000000000000000000001000000000000000000000000000000000000000000000000000000000000000000000000000000000000000000000000000000000000000000000000000000000000000000000000000000000000000000000000000000400400000000000000000000000000000000000000000000000000000020000000",
      "type": "0x2",
      "transactionHash": "0x5cc1da4b92e518379815eed6a6bc907c6c33c3357fdd71dad910eb3d3db6681e",
      "transactionIndex": "0xb0",
      "blockHash": "0x1eff990868983cd8d13c14574aca45321adca8f243a538871ef3b33bd111900d",
      "blockNumber": "0x17ebb0d",
      "gasUsed": "0xbab3",
      "effectiveGasPrice": "0x6232f0a",
      "from": "0xcad1a7864a108dbff67f4b8af71fab0c7a86d0b6",
      "to": "0x3bbe928340c61a65cb6c4a87b3fb59b6f3f7606a",
      "contractAddress": null
    },
    {
      "status": "0x1",
      "cumulativeGasUsed": "0x375fad5",
      "logs": [
        {
          "address": "0xa0b86991c6218b36c1d19d4a2e9eb0ce3606eb48",
          "topics": [
            "0x8c5be1e5ebec7d5bd14f71427d1e84f3dd0314c0f7b2291e5b200ac8c7c3b925",
            "0x0000000000000000000000003bbe928340c61a65cb6c4a87b3fb59b6f3f7606a",
            "0x0000000000000000000000003984ebc84d45a889ddac595d13dc0ac2e54819f4"
          ],
          "data": "0xffffffffffffffffffffffffffffffffffffffffffffffffffffffffffffffff",
          "blockHash": "0xd82738834b1ae63c1c64607eefdf6f15f7a3b0a6eaa957f9361699015d11ea85",
          "blockNumber": "0x17ebb0e",
          "blockTimestamp": "0x6a03c62b",
          "transactionHash": "0x5f5afe9c09b9db07c69f48ee25e713f7c72b385652d6801367ad82c067a83975",
          "transactionIndex": "0xc5",
          "logIndex": "0xa6e",
          "removed": false
        }
      ],
      "logsBloom": "0x00000000000000000000000000000000000000000000000000000000000000000000000000000000020000000000000000000000000000000000000000200000000000000000000008000000000000000000000000000000000000000000000000000000000000000000000000000000000000000000000000000000000000000000000000000000000000000000000000000000010000000000000000000000020000000000200000000000000000000000000000000000000400000000000000000000000000000400000002000000000000002000000000000000000000000010000010000000000000000000000000000000000000000000000000000000",
      "type": "0x2",
      "transactionHash": "0x5f5afe9c09b9db07c69f48ee25e713f7c72b385652d6801367ad82c067a83975",
      "transactionIndex": "0xc5",
      "blockHash": "0xd82738834b1ae63c1c64607eefdf6f15f7a3b0a6eaa957f9361699015d11ea85",
      "blockNumber": "0x17ebb0e",
      "gasUsed": "0xffc0",
      "effectiveGasPrice": "0x5da381c",
      "from": "0xcad1a7864a108dbff67f4b8af71fab0c7a86d0b6",
      "to": "0x3bbe928340c61a65cb6c4a87b3fb59b6f3f7606a",
      "contractAddress": null
    },
    {
      "status": "0x1",
      "cumulativeGasUsed": "0x148531c",
      "logs": [
        {
          "address": "0x4ef0fde49360ed31c68ed442ff263cc6291041f3",
          "topics": [
            "0x6c1669a9d4dde92eb8b509697810f4688f8e6a2fe69dc291ccfcf3a0f9c3a2ff",
            "0x000000000000000000000000a0b86991c6218b36c1d19d4a2e9eb0ce3606eb48"
          ],
          "data": "0x",
          "blockHash": "0xaa53c1df3906ae5b67955eb59d9ce90466e6339f22ae434ea37c2e3013ff96e0",
          "blockNumber": "0x17ebb0f",
          "blockTimestamp": "0x6a03c637",
          "transactionHash": "0x4d3c88652d02d1ca1e3a407f5da24589a26b3c054f68ce7255f89a090e523fc0",
          "transactionIndex": "0x75",
          "logIndex": "0x134",
          "removed": false
        }
      ],
      "logsBloom": "0x00000000000000000000000000000000000000000000000000000000000000000000000000000000000002000000000000000000000000000000000000000000000000000000000000000000000000000000000000100000000000008000000000000000000000000000000000000000000000000000000000000000000000000000000008000000000000080000000200000000000000000000000000000001000000000000000000000000000000000000000000000000000000000000000000000000000000000000000000000000000000000000000000000000000010000000000000000000000000000000000004000000000000000000000000000000",
      "type": "0x2",
      "transactionHash": "0x4d3c88652d02d1ca1e3a407f5da24589a26b3c054f68ce7255f89a090e523fc0",
      "transactionIndex": "0x75",
      "blockHash": "0xaa53c1df3906ae5b67955eb59d9ce90466e6339f22ae434ea37c2e3013ff96e0",
      "blockNumber": "0x17ebb0f",
      "gasUsed": "0xb80e",
      "effectiveGasPrice": "0x6925133",
      "from": "0xcad1a7864a108dbff67f4b8af71fab0c7a86d0b6",
      "to": "0x4ef0fde49360ed31c68ed442ff263cc6291041f3",
      "contractAddress": null
    },
    {
      "status": "0x1",
      "cumulativeGasUsed": "0x26b8f05",
      "logs": [
        {
          "address": "0x4ef0fde49360ed31c68ed442ff263cc6291041f3",
          "topics": [
            "0xf435fc90cf0d233d2031e34c7e0a6bcbd6c56f749449163e019be8da37a0f59e"
          ],
          "data": "0x0000000000000000000000000000000000000000000000000000000000000028",
          "blockHash": "0xdac46609e7fc6d0e49c882ead3cd83604fbae38a2d73f4843a470f1aece0e513",
          "blockNumber": "0x17ebb10",
          "blockTimestamp": "0x6a03c643",
          "transactionHash": "0xae291048474e8ab136e9a38ee563e1fee2d1b4da8d152ba0d6d941f2044a073c",
          "transactionIndex": "0xd1",
          "logIndex": "0x190",
          "removed": false
        }
      ],
      "logsBloom": "0x00000000000000000000000000000000000000000000000000000000000000000000000000000000000000000000000000000000000000000000000000000000000000000000000000000000000000000000000000000000000000008000000000000001000000000000000000000000000000000000000000000000000000000000000000000000000000080000000000000000010000000000000000000001000000000000000000000000000000000000000000000000000000000000000000000000000000000000000000000000000000002000000000000000000000000000000000000000000000000000000000000000000000000000000000000000",
      "type": "0x2",
      "transactionHash": "0xae291048474e8ab136e9a38ee563e1fee2d1b4da8d152ba0d6d941f2044a073c",
      "transactionIndex": "0xd1",
      "blockHash": "0xdac46609e7fc6d0e49c882ead3cd83604fbae38a2d73f4843a470f1aece0e513",
      "blockNumber": "0x17ebb10",
      "gasUsed": "0xb6bc",
      "effectiveGasPrice": "0x66f92a0",
      "from": "0xcad1a7864a108dbff67f4b8af71fab0c7a86d0b6",
      "to": "0x4ef0fde49360ed31c68ed442ff263cc6291041f3",
      "contractAddress": null
    },
    {
      "status": "0x1",
      "cumulativeGasUsed": "0x1bcad17",
      "logs": [
        {
          "address": "0x4da153dc02bb084528d10335759f2c4447e6f73d",
          "topics": [
            "0x074731357d33727f4901077a97ee097d688cb98f4e4565c7e39e804dd986ced4"
          ],
          "data": "0x000000000000000000000000000000000000000000000000000000000000000a",
          "blockHash": "0x5b2d7f83f2f5f2c6fbb469d95e843a64c730f1298cb81c7c231ab6c1ca739b7e",
          "blockNumber": "0x17ebb12",
          "blockTimestamp": "0x6a03c65b",
          "transactionHash": "0x0aaee97a5d123ed8dce275348ad1350c3973c0f0cbe37e33ff5210d13216422e",
          "transactionIndex": "0xf9",
          "logIndex": "0x2e8",
          "removed": false
        }
      ],
      "logsBloom": "0x00000000000000000000000000000000000000000000000000000000000000000000000000000000000040000000000000000000000000000000000000000000000000000000000000000000000080000000000000000000000000000000000000000000000000000000000000000000000000000000000000000000200000000000000000000000000000000000000000000000000000000000010000000000000000000000000000000000000000000000000000000000000000000000000000000000000000000000000000000000000000000000000000000000000000000000000000000010000000000000000000000000000000000000000000000100",
      "type": "0x2",
      "transactionHash": "0x0aaee97a5d123ed8dce275348ad1350c3973c0f0cbe37e33ff5210d13216422e",
      "transactionIndex": "0xf9",
      "blockHash": "0x5b2d7f83f2f5f2c6fbb469d95e843a64c730f1298cb81c7c231ab6c1ca739b7e",
      "blockNumber": "0x17ebb12",
      "gasUsed": "0xb849",
      "effectiveGasPrice": "0x6341d7e",
      "from": "0xcad1a7864a108dbff67f4b8af71fab0c7a86d0b6",
      "to": "0x4da153dc02bb084528d10335759f2c4447e6f73d",
      "contractAddress": null
    },
    {
      "status": "0x1",
      "cumulativeGasUsed": "0x27e405e",
      "logs": [
        {
          "address": "0x4da153dc02bb084528d10335759f2c4447e6f73d",
          "topics": [
            "0xa7978870153ece652cc4657688816871cbe0106d26a50cbd2239fecedb8de1c4"
          ],
          "data": "0x0000000000000000000000004ef0fde49360ed31c68ed442ff263cc6291041f3",
          "blockHash": "0x9aa57e286f3e571079459e1cf35d5b06d02f351f50152eaf1c874e037eded864",
          "blockNumber": "0x17ebb14",
          "blockTimestamp": "0x6a03c673",
          "transactionHash": "0x1f95ce737f510099ae77f73eb282ae40b26db714f7ef46b92b71e5e3107a55be",
          "transactionIndex": "0x2b1",
          "logIndex": "0x353",
          "removed": false
        }
      ],
      "logsBloom": "0x08000000000000000000000000000000000000000000000000000000000000000000000000000000000040000000000000000000000000000000000000000000000000000000000000000000000000000000000000000000000000000000800000000000000000000000000000000000000000000000000000000000200000000000000000100000000000000000000000000000000000000000000000000000000000000000000000000000000000000000000000000000000000000000000000000000000000000000000000000000000000000000000000000000000000000000000000000000000000000000000000000000000000000000000000000100",
      "type": "0x2",
      "transactionHash": "0x1f95ce737f510099ae77f73eb282ae40b26db714f7ef46b92b71e5e3107a55be",
      "transactionIndex": "0x2b1",
      "blockHash": "0x9aa57e286f3e571079459e1cf35d5b06d02f351f50152eaf1c874e037eded864",
      "blockNumber": "0x17ebb14",
      "gasUsed": "0xb98b",
      "effectiveGasPrice": "0x5a38964",
      "from": "0xcad1a7864a108dbff67f4b8af71fab0c7a86d0b6",
      "to": "0x4da153dc02bb084528d10335759f2c4447e6f73d",
      "contractAddress": null
    },
    {
      "status": "0x1",
      "cumulativeGasUsed": "0x1cf02ae",
      "logs": [
        {
          "address": "0x4da153dc02bb084528d10335759f2c4447e6f73d",
          "topics": [
            "0x8bb9e0231454a91ee956962915e84237dab1cb5513222f17d97db558c0331b4f"
          ],
          "data": "0x0000000000000000000000000b65a4505e8c323ae4fedcc48515fd713dc9d8c0000000000000000000000000d4fa2d31b7968e448877f69a96de69f5de8cd23e000000000000000000000000a0b86991c6218b36c1d19d4a2e9eb0ce3606eb48",
          "blockHash": "0x41d680ea7e71c2fbc474cc29eaca94d1e18a17869cbf69eff2f23a4b4f03d740",
          "blockNumber": "0x17ebb15",
          "blockTimestamp": "0x6a03c67f",
          "transactionHash": "0x8bd0d865159cd5694bdb022b398b68336d5f8c5170ef945a0ea877b8fba25691",
          "transactionIndex": "0x186",
          "logIndex": "0x18b",
          "removed": false
        }
      ],
      "logsBloom": "0x00000000000000000000000000000000000000000000000000000000000000020000000000000000000040000000000000000000000000000000000000000000000000000000000000000000000000000000000000000000000000000000000000000000000000000000000000000000000000000000000000000000200000000000000000000000000000000000000000000000000000000002000000000000000000010000000000000000000000000000000000000000000000000000000000000000000000000000000000000000000000000000000000000000000000000000000000000000000000000000000000000000000000000000000000000100",
      "type": "0x2",
      "transactionHash": "0x8bd0d865159cd5694bdb022b398b68336d5f8c5170ef945a0ea877b8fba25691",
      "transactionIndex": "0x186",
      "blockHash": "0x41d680ea7e71c2fbc474cc29eaca94d1e18a17869cbf69eff2f23a4b4f03d740",
      "blockNumber": "0x17ebb15",
      "gasUsed": "0x16b1f",
      "effectiveGasPrice": "0x5fc6ee2",
      "from": "0xcad1a7864a108dbff67f4b8af71fab0c7a86d0b6",
      "to": "0x4da153dc02bb084528d10335759f2c4447e6f73d",
      "contractAddress": null
    },
    {
      "status": "0x1",
      "cumulativeGasUsed": "0x22abe2e",
      "logs": [
        {
          "address": "0xe7aec21bf6420ff483107adcb9360c4b31d69d78",
          "topics": [
            "0x5c8df9226b5390a36c31cb0bb75ccd51f1106fc9c93332f6305e2a4a7ae4e771",
            "0x0000000000000000000000003bbe928340c61a65cb6c4a87b3fb59b6f3f7606a"
          ],
          "data": "0x0000000000000000000000000000000000000000000000000000000000000001",
          "blockHash": "0x3adf7706fe00c4e4d66523087bd899a38064327307535bf41d3e1e97c41f79ec",
          "blockNumber": "0x17ebb17",
          "blockTimestamp": "0x6a03c697",
          "transactionHash": "0x1bbb36f2b28accd7f0e7cea4313bcbc3a877e46519c3d2d41f3d2730f21714ff",
          "transactionIndex": "0x183",
          "logIndex": "0x290",
          "removed": false
        }
      ],
      "logsBloom": "0x00000000000000000000000000000000000000000000000000000000000000000000000000000000000000000000000000000000000000000000000000000000000000000000000000000000000000000000000000000000000400000000000000000000000000000000010000000000000000000000000000000000000000000080000000000000000000000000000000000000000000000000000000000000000000000000000000000000000400000000000000000000000000000000000000000000000000000400000002000000000000002080000000000000000002000000000000000000000000000000000000000000000000000000000000000000",
      "type": "0x2",
      "transactionHash": "0x1bbb36f2b28accd7f0e7cea4313bcbc3a877e46519c3d2d41f3d2730f21714ff",
      "transactionIndex": "0x183",
      "blockHash": "0x3adf7706fe00c4e4d66523087bd899a38064327307535bf41d3e1e97c41f79ec",
      "blockNumber": "0x17ebb17",
      "gasUsed": "0xbb87",
      "effectiveGasPrice": "0x63bb973",
      "from": "0xcad1a7864a108dbff67f4b8af71fab0c7a86d0b6",
      "to": "0xe7aec21bf6420ff483107adcb9360c4b31d69d78",
      "contractAddress": null
    },
    {
      "status": "0x1",
      "cumulativeGasUsed": "0x11bf915",
      "logs": [
        {
          "address": "0x8b4a75290a1c4935ec1dfd990374ac4bd4d33952",
          "topics": [
            "0x5c8df9226b5390a36c31cb0bb75ccd51f1106fc9c93332f6305e2a4a7ae4e771",
            "0x0000000000000000000000003bbe928340c61a65cb6c4a87b3fb59b6f3f7606a"
          ],
          "data": "0x0000000000000000000000000000000000000000000000000000000000000001",
          "blockHash": "0x1b890282be74625c53348edb9247fe95f10eef28718fe14b6dd44115f5342724",
          "blockNumber": "0x17ebb18",
          "blockTimestamp": "0x6a03c6a3",
          "transactionHash": "0xa4034526b067a732d3fe407a6f45e64e8ecc2a022d05e877e266a8593be662ed",
          "transactionIndex": "0x8f",
          "logIndex": "0x235",
          "removed": false
        }
      ],
      "logsBloom": "0x00000000000000000000000000000000000000000000000000000000000000000000000000000000000000000000000000000000000000000000000000000000000000000000000000000000000000000000000000000000000400000000000000000000000000000000000000000000000000000000000000000000000000000000000000000000000000000000000000000000000000000000000000000000000000000000000200000000000400000000000000000000000000002400000000000000000000000400000002000000000000002080000000000000000000000000000000000000000000000000000000000000000000000000000000000000",
      "type": "0x2",
      "transactionHash": "0xa4034526b067a732d3fe407a6f45e64e8ecc2a022d05e877e266a8593be662ed",
      "transactionIndex": "0x8f",
      "blockHash": "0x1b890282be74625c53348edb9247fe95f10eef28718fe14b6dd44115f5342724",
      "blockNumber": "0x17ebb18",
      "gasUsed": "0xbb87",
      "effectiveGasPrice": "0x684c3dd",
      "from": "0xcad1a7864a108dbff67f4b8af71fab0c7a86d0b6",
      "to": "0x8b4a75290a1c4935ec1dfd990374ac4bd4d33952",
      "contractAddress": null
    },
    {
      "status": "0x1",
      "cumulativeGasUsed": "0x173ab38",
      "logs": [
        {
          "address": "0xfc629bc5f6339f77635f4f656fbb114a31f7bcb3",
          "topics": [
            "0x5c8df9226b5390a36c31cb0bb75ccd51f1106fc9c93332f6305e2a4a7ae4e771",
            "0x0000000000000000000000003bbe928340c61a65cb6c4a87b3fb59b6f3f7606a"
          ],
          "data": "0x0000000000000000000000000000000000000000000000000000000000000001",
          "blockHash": "0x6497be5c3803073e3cb57bb4bf3ffac980f70e9a28d4204b21bf4cf665f42c2a",
          "blockNumber": "0x17ebb19",
          "blockTimestamp": "0x6a03c6af",
          "transactionHash": "0x2959fe09578d2e9cd5476fa1fad1c38415dbe513051d9b4cc241a09f27be30ec",
          "transactionIndex": "0x20b",
          "logIndex": "0x1b5",
          "removed": false
        }
      ],
      "logsBloom": "0x00000000000000000000000000000000000000000000000000000000000000000000000000000000000000000000000000000000000000000000000000000000000000000000000000000000000000000000000000000000000400000000000000000000000000000000000000000000000000000000000000000000000000000000000000000000000000000000000000000000000000000000000000000000000000000000000000000000000440000000000000000000000000000000000000000000000000000400000002000800000000002080000000000000000000000000000000000000800000000000000000000000000000000000000000000000",
      "type": "0x2",
      "transactionHash": "0x2959fe09578d2e9cd5476fa1fad1c38415dbe513051d9b4cc241a09f27be30ec",
      "transactionIndex": "0x20b",
      "blockHash": "0x6497be5c3803073e3cb57bb4bf3ffac980f70e9a28d4204b21bf4cf665f42c2a",
      "blockNumber": "0x17ebb19",
      "gasUsed": "0xbbb3",
      "effectiveGasPrice": "0x6428d51",
      "from": "0xcad1a7864a108dbff67f4b8af71fab0c7a86d0b6",
      "to": "0xfc629bc5f6339f77635f4f656fbb114a31f7bcb3",
      "contractAddress": null
    },
    {
      "status": "0x1",
      "cumulativeGasUsed": "0xe95c64",
      "logs": [
        {
          "address": "0xe7aec21bf6420ff483107adcb9360c4b31d69d78",
          "topics": [
            "0x5c8df9226b5390a36c31cb0bb75ccd51f1106fc9c93332f6305e2a4a7ae4e771",
            "0x000000000000000000000000b9639e6be92033f55e6d9e375fd1c28ceedba50e"
          ],
          "data": "0x0000000000000000000000000000000000000000000000000000000000000000",
          "blockHash": "0x29fa412cc6294eb191cda2ff6f0681de230bd00641788b68a3dbb19fa7569e25",
          "blockNumber": "0x17ebb1a",
          "blockTimestamp": "0x6a03c6bb",
          "transactionHash": "0xb8e67b7009975006363794deb30d10fd72c4349ca8f6879e3ed1956bcfa830f1",
          "transactionIndex": "0x9d",
          "logIndex": "0x167",
          "removed": false
        }
      ],
      "logsBloom": "0x00000000000000000000000000000000000000000000000000000000000000000000000000000000000000000000000000000000000000000000000000000000000000000000000000000000000000000000000000000000000420000000000000000000100000000000010000000000000000000000000000000000000000000080000000000001000000000000000000000000000000000000000000000000000000000000000000000000000400000000000000000000000000000000000000000000000000000000000000000000000000000080000000000000000002000000000000000000000000000000000000000000000000000000000000000000",
      "type": "0x2",
      "transactionHash": "0xb8e67b7009975006363794deb30d10fd72c4349ca8f6879e3ed1956bcfa830f1",
      "transactionIndex": "0x9d",
      "blockHash": "0x29fa412cc6294eb191cda2ff6f0681de230bd00641788b68a3dbb19fa7569e25",
      "blockNumber": "0x17ebb1a",
      "gasUsed": "0x65ef",
      "effectiveGasPrice": "0x62392ba",
      "from": "0xcad1a7864a108dbff67f4b8af71fab0c7a86d0b6",
      "to": "0xe7aec21bf6420ff483107adcb9360c4b31d69d78",
      "contractAddress": null
    },
    {
      "status": "0x1",
      "cumulativeGasUsed": "0x2963b47",
      "logs": [
        {
          "address": "0x8b4a75290a1c4935ec1dfd990374ac4bd4d33952",
          "topics": [
            "0x5c8df9226b5390a36c31cb0bb75ccd51f1106fc9c93332f6305e2a4a7ae4e771",
            "0x000000000000000000000000b9639e6be92033f55e6d9e375fd1c28ceedba50e"
          ],
          "data": "0x0000000000000000000000000000000000000000000000000000000000000000",
          "blockHash": "0x4ac07a48c83e39cf6d2311a340fe594878cd00ac21e5717547fb1e07250c79f9",
          "blockNumber": "0x17ebb1b",
          "blockTimestamp": "0x6a03c6c7",
          "transactionHash": "0xbc902b394ba984997920b16d2ef36b2a8e3971fbfe47a15465f58db5b280f8e5",
          "transactionIndex": "0xf6",
          "logIndex": "0x617",
          "removed": false
        }
      ],
      "logsBloom": "0x00000000000000000000000000000000000000000000000000000000000000000000000000000000000000000000000000000000000000000000000000000000000000000000000000000000000000000000000000000000000420000000000000000000100000000000000000000000000000000000000000000000000000000000000000000001000000000000000000000000000000000000000000000000000000000000000200000000000400000000000000000000000000002400000000000000000000000000000000000000000000000080000000000000000000000000000000000000000000000000000000000000000000000000000000000000",
      "type": "0x2",
      "transactionHash": "0xbc902b394ba984997920b16d2ef36b2a8e3971fbfe47a15465f58db5b280f8e5",
      "transactionIndex": "0xf6",
      "blockHash": "0x4ac07a48c83e39cf6d2311a340fe594878cd00ac21e5717547fb1e07250c79f9",
      "blockNumber": "0x17ebb1b",
      "gasUsed": "0x65ef",
      "effectiveGasPrice": "0x5d46099",
      "from": "0xcad1a7864a108dbff67f4b8af71fab0c7a86d0b6",
      "to": "0x8b4a75290a1c4935ec1dfd990374ac4bd4d33952",
      "contractAddress": null
    },
    {
      "status": "0x1",
      "cumulativeGasUsed": "0x15c2c42",
      "logs": [
        {
          "address": "0xfc629bc5f6339f77635f4f656fbb114a31f7bcb3",
          "topics": [
            "0x5c8df9226b5390a36c31cb0bb75ccd51f1106fc9c93332f6305e2a4a7ae4e771",
            "0x000000000000000000000000b9639e6be92033f55e6d9e375fd1c28ceedba50e"
          ],
          "data": "0x0000000000000000000000000000000000000000000000000000000000000000",
          "blockHash": "0x0ab7744ba5b95a5c9810b046c2bf57e9ec721e8b732a10ab04bea573425adda0",
          "blockNumber": "0x17ebb1c",
          "blockTimestamp": "0x6a03c6d3",
          "transactionHash": "0x0499b473c6909cf2dbec751db1604e7fc1ffce6b9e044d14a33857090ae756ac",
          "transactionIndex": "0xb6",
          "logIndex": "0x298",
          "removed": false
        }
      ],
      "logsBloom": "0x00000000000000000000000000000000000000000000000000000000000000000000000000000000000000000000000000000000000000000000000000000000000000000000000000000000000000000000000000000000000420000000000000000000100000000000000000000000000000000000000000000000000000000000000000000001000000000000000000000000000000000000000000000000000000000000000000000000000440000000000000000000000000000000000000000000000000000000000000000800000000000080000000000000000000000000000000000000800000000000000000000000000000000000000000000000",
      "type": "0x2",
      "transactionHash": "0x0499b473c6909cf2dbec751db1604e7fc1ffce6b9e044d14a33857090ae756ac",
      "transactionIndex": "0xb6",
      "blockHash": "0x0ab7744ba5b95a5c9810b046c2bf57e9ec721e8b732a10ab04bea573425adda0",
      "blockNumber": "0x17ebb1c",
      "gasUsed": "0x661b",
      "effectiveGasPrice": "0x62dc781",
      "from": "0xcad1a7864a108dbff67f4b8af71fab0c7a86d0b6",
      "to": "0xfc629bc5f6339f77635f4f656fbb114a31f7bcb3",
      "contractAddress": null
    },
    {
      "status": "0x1",
      "cumulativeGasUsed": "0x1747763",
      "logs": [
        {
          "address": "0x39af088408e815844c567037c157b31d48d2e10f",
          "topics": [
            "0x002a71fba4e77daaab38dc597889c779faa673a62f32beb3d5826cdbc9fcf527",
            "0x0000000000000000000000003bbe928340c61a65cb6c4a87b3fb59b6f3f7606a"
          ],
          "data": "0x0000000000000000000000000000000000000000000000000000000000000001",
          "blockHash": "0x691676d9bf56ac482f675b509fed1b0fb6ac9a6431212f24d14c6a39fd526920",
          "blockNumber": "0x17ebb1d",
          "blockTimestamp": "0x6a03c6df",
          "transactionHash": "0xd8a7e98e4f8b3fb322d0cc2f6eccc4dcc79b0692b3ac6d8a997d840470838005",
          "transactionIndex": "0x302",
          "logIndex": "0x10a",
          "removed": false
        }
      ],
      "logsBloom": "0x00000000000000000000000000000000000000000000000000000000000000000000000000000000000000000000000000000000000000000000000000000000000000000000000000000000000000000000000000000000000000000000000000000000000000000001000000000000000000000000000000000000000000000000000000000000000000000000000000000000000000000000000000000000000000100000000000000000000000000008000000000000000000000000000000000000000000000400000002000100000000002000000000000000000000000000000000000000000000000000080000000000000000000020000000000000",
      "type": "0x2",
      "transactionHash": "0xd8a7e98e4f8b3fb322d0cc2f6eccc4dcc79b0692b3ac6d8a997d840470838005",
      "transactionIndex": "0x302",
      "blockHash": "0x691676d9bf56ac482f675b509fed1b0fb6ac9a6431212f24d14c6a39fd526920",
      "blockNumber": "0x17ebb1d",
      "gasUsed": "0xba85",
      "effectiveGasPrice": "0x60e17b6",
      "from": "0xcad1a7864a108dbff67f4b8af71fab0c7a86d0b6",
      "to": "0x39af088408e815844c567037c157b31d48d2e10f",
      "contractAddress": null
    },
    {
      "status": "0x1",
      "cumulativeGasUsed": "0x11a3ee1",
      "logs": [
        {
          "address": "0x39af088408e815844c567037c157b31d48d2e10f",
          "topics": [
            "0x002a71fba4e77daaab38dc597889c779faa673a62f32beb3d5826cdbc9fcf527",
            "0x000000000000000000000000b9639e6be92033f55e6d9e375fd1c28ceedba50e"
          ],
          "data": "0x0000000000000000000000000000000000000000000000000000000000000000",
          "blockHash": "0xaa7d546c7b7e1a41b2ebc5dad7da8807b42e05b2edfe8d44ef1f398711d91f0b",
          "blockNumber": "0x17ebb1e",
          "blockTimestamp": "0x6a03c6eb",
          "transactionHash": "0x7c26230aa187e20022b4faa713eea22b9fea103c285982f071a65ce9c6f3e7d9",
          "transactionIndex": "0x15c",
          "logIndex": "0x1ac",
          "removed": false
        }
      ],
      "logsBloom": "0x00000000000000000000000000000000000000000000000000000000000000000000000000000000000000000000000000000000000000000000000000000000000000000000000000000000000000000000000000000000000020000000000000000000100000000001000000000000000000000000000000000000000000000000000000000001000000000000000000000000000000000000000000000000000000100000000000000000000000000008000000000000000000000000000000000000000000000000000000000100000000000000000000000000000000000000000000000000000000000000080000000000000000000020000000000000",
      "type": "0x2",
      "transactionHash": "0x7c26230aa187e20022b4faa713eea22b9fea103c285982f071a65ce9c6f3e7d9",
      "transactionIndex": "0x15c",
      "blockHash": "0xaa7d546c7b7e1a41b2ebc5dad7da8807b42e05b2edfe8d44ef1f398711d91f0b",
      "blockNumber": "0x17ebb1e",
      "gasUsed": "0x64ed",
      "effectiveGasPrice": "0x5f9993d",
      "from": "0xcad1a7864a108dbff67f4b8af71fab0c7a86d0b6",
      "to": "0x39af088408e815844c567037c157b31d48d2e10f",
      "contractAddress": null
    },
    {
      "status": "0x1",
      "cumulativeGasUsed": "0x10e4de2",
      "logs": [
        {
          "address": "0x39af088408e815844c567037c157b31d48d2e10f",
          "topics": [
            "0x65353ce6495d70dcbece6d55d76c9aafede6733d3744c4e5dd06595767d232ac",
            "0x0000000000000000000000000000000000000000000000000000000000000006",
            "0x0000000000000000000000004da153dc02bb084528d10335759f2c4447e6f73d"
          ],
          "data": "0x000000000000000000000000000000000000000000000000a6948521f3aab8fe0000000000000000000000000000000000000000000000000000000000000001",
          "blockHash": "0x67a1703a65bfbe4d0070c1b3eba525aed47bf842ca828bf323dc2a949d92d228",
          "blockNumber": "0x17ebb1f",
          "blockTimestamp": "0x6a03c6f7",
          "transactionHash": "0x60dcaccdc72aebb809d21d626d414cb6b8a4c57f7e50701562c84ae7dcb7bf03",
          "transactionIndex": "0x92",
          "logIndex": "0x1c8",
          "removed": false
        }
      ],
      "logsBloom": "0x00000000000000000000000000800000000000000000000000008000000000000000000000000000000000000000000000000000000400000000000000000000000000010000000000000000000000000000000000000000000000200000000000000000000000000001000000000000000000000000000000000000000000000000000400000000000000000000000000000000000000800000000000000000000000000000000000000000000000000008000000000000000000080000000000000000000000000000000000000000000000000000000000000000000000000000000000000000000000000000080000000000000000000000000000040000",
      "type": "0x2",
      "transactionHash": "0x60dcaccdc72aebb809d21d626d414cb6b8a4c57f7e50701562c84ae7dcb7bf03",
      "transactionIndex": "0x92",
      "blockHash": "0x67a1703a65bfbe4d0070c1b3eba525aed47bf842ca828bf323dc2a949d92d228",
      "blockNumber": "0x17ebb1f",
      "gasUsed": "0x238ab",
      "effectiveGasPrice": "0x5d47929",
      "from": "0xcad1a7864a108dbff67f4b8af71fab0c7a86d0b6",
      "to": "0x39af088408e815844c567037c157b31d48d2e10f",
      "contractAddress": null
    },
    {
      "status": "0x1",
      "cumulativeGasUsed": "0x37058bf",
      "logs": [
        {
          "address": "0x39af088408e815844c567037c157b31d48d2e10f",
          "topics": [
            "0x7ed45474447adc9c0971020b6844de2f18e31f5cb8dbb2cec429c78951606f4e",
            "0x0000000000000000000000000000000000000000000000000000000000000004"
          ],
          "data": "0x0000000000000000000000000000000000000000000000000000000000000001",
          "blockHash": "0x39f043d889fe5f87aa31fcb63a55178e0f21a9d73d04411651ea4369d27d1545",
          "blockNumber": "0x17ebb20",
          "blockTimestamp": "0x6a03c703",
          "transactionHash": "0x4e56baee9fbc8d230d71db5a0d9f991a734658d539c7d5916821fe8f596714ab",
          "transactionIndex": "0xb2",
          "logIndex": "0x198",
          "removed": false
        }
      ],
      "logsBloom": "0x00000000000000000000000000000000000000000000000000000000000000000000000000000000000000000000000000000000000000000000000000000000000000000000002000000000000000000000400000000000000000000000000008000000000000040001000000000000000000000000000000000000000000000000000000000000000000000000000000000000000000000000000000000000000000000000000000000000000000000008000000000000002000000000000000000000000000000000000000000000000000008000000000000000000000000000000000000000000000000000080000000000000000000000000000000000",
      "type": "0x2",
      "transactionHash": "0x4e56baee9fbc8d230d71db5a0d9f991a734658d539c7d5916821fe8f596714ab",
      "transactionIndex": "0xb2",
      "blockHash": "0x39f043d889fe5f87aa31fcb63a55178e0f21a9d73d04411651ea4369d27d1545",
      "blockNumber": "0x17ebb20",
      "gasUsed": "0xc2fd",
      "effectiveGasPrice": "0x5a27bf2",
      "from": "0xcad1a7864a108dbff67f4b8af71fab0c7a86d0b6",
      "to": "0x39af088408e815844c567037c157b31d48d2e10f",
      "contractAddress": null
    },
    {
      "status": "0x1",
      "cumulativeGasUsed": "0x2c26364",
      "logs": [
        {
          "address": "0xba1333333333a1ba1108e8412f11850a5c319ba9",
          "topics": [
            "0xd1398bee19313d6bf672ccb116e51f4a1a947e91c757907f51fbb5b5e56c698f",
            "0x000000000000000000000000642bb6860b4776cc10b26b8f361fd139e7f0db04",
            "0x0000000000000000000000006e957842afbcd01ce9db296d173f39134b362771",
            "0x000000000000000000000000cad1a7864a108dbff67f4b8af71fab0c7a86d0b6"
          ],
          "data": "0x0000000000000000000000000000000000000000000000215c28e1034514b9ae",
          "blockHash": "0x04e744b6a66a085c4ffd0dfaf2d35ada513abe0bb8fb927279d1b273a039354a",
          "blockNumber": "0x17ebb23",
          "blockTimestamp": "0x6a03c727",
          "transactionHash": "0xaa7265c919d5146fa68849efe0fb444dac409a9a007b9eb9e5c38f88ed927f38",
          "transactionIndex": "0x3f1",
          "logIndex": "0x360",
          "removed": false
        },
        {
          "address": "0x642bb6860b4776cc10b26b8f361fd139e7f0db04",
          "topics": [
            "0xddf252ad1be2c89b69c2b068fc378daa952ba7f163c4a11628f55a4df523b3ef",
            "0x0000000000000000000000006e957842afbcd01ce9db296d173f39134b362771",
            "0x000000000000000000000000cad1a7864a108dbff67f4b8af71fab0c7a86d0b6"
          ],
          "data": "0x0000000000000000000000000000000000000000000000215c28e1034514b9ae",
          "blockHash": "0x04e744b6a66a085c4ffd0dfaf2d35ada513abe0bb8fb927279d1b273a039354a",
          "blockNumber": "0x17ebb23",
          "blockTimestamp": "0x6a03c727",
          "transactionHash": "0xaa7265c919d5146fa68849efe0fb444dac409a9a007b9eb9e5c38f88ed927f38",
          "transactionIndex": "0x3f1",
          "logIndex": "0x361",
          "removed": false
        }
      ],
      "logsBloom": "0x00000000000000000020000000000000000000000000000000000000002000101000000000000000000000408000000000000000000000000000000000000000000000000000000200000008000000000000000000000000000000000000000000000000000000000000000000000000000001000000000000010010000000000000000000000000000000000000000000000000000000000000010000000000000000800000000000000000800000000000000000000000000000000000000000000002000000000000000000000000000000000000100000000000800000000001000000000000002000000000000000000000000100000000000000080000",
      "type": "0x2",
      "transactionHash": "0xaa7265c919d5146fa68849efe0fb444dac409a9a007b9eb9e5c38f88ed927f38",
      "transactionIndex": "0x3f1",
      "blockHash": "0x04e744b6a66a085c4ffd0dfaf2d35ada513abe0bb8fb927279d1b273a039354a",
      "blockNumber": "0x17ebb23",
      "gasUsed": "0xf0b0",
      "effectiveGasPrice": "0x65b7211",
      "from": "0xcad1a7864a108dbff67f4b8af71fab0c7a86d0b6",
      "to": "0x6e957842afbcd01ce9db296d173f39134b362771",
      "contractAddress": null
    },
    {
      "status": "0x1",
      "cumulativeGasUsed": "0x184b3fe",
      "logs": [
        {
          "address": "0xba1333333333a1ba1108e8412f11850a5c319ba9",
          "topics": [
            "0xd1398bee19313d6bf672ccb116e51f4a1a947e91c757907f51fbb5b5e56c698f",
            "0x000000000000000000000000642bb6860b4776cc10b26b8f361fd139e7f0db04",
            "0x000000000000000000000000cad1a7864a108dbff67f4b8af71fab0c7a86d0b6",
            "0x0000000000000000000000004da153dc02bb084528d10335759f2c4447e6f73d"
          ],
          "data": "0x0000000000000000000000000000000000000000000000215c28e1034514b9ae",
          "blockHash": "0xa2038d0a8bf55e3362de02e84628bd979e395e2d6f88304af729bce90955d744",
          "blockNumber": "0x17ebb24",
          "blockTimestamp": "0x6a03c733",
          "transactionHash": "0x4ec52ce4f9b99edf31ec926d3bb3e51521e708b43662a0496116ba67d85c0553",
          "transactionIndex": "0xb7",
          "logIndex": "0x295",
          "removed": false
        },
        {
          "address": "0x642bb6860b4776cc10b26b8f361fd139e7f0db04",
          "topics": [
            "0xddf252ad1be2c89b69c2b068fc378daa952ba7f163c4a11628f55a4df523b3ef",
            "0x000000000000000000000000cad1a7864a108dbff67f4b8af71fab0c7a86d0b6",
            "0x0000000000000000000000004da153dc02bb084528d10335759f2c4447e6f73d"
          ],
          "data": "0x0000000000000000000000000000000000000000000000215c28e1034514b9ae",
          "blockHash": "0xa2038d0a8bf55e3362de02e84628bd979e395e2d6f88304af729bce90955d744",
          "blockNumber": "0x17ebb24",
          "blockTimestamp": "0x6a03c733",
          "transactionHash": "0x4ec52ce4f9b99edf31ec926d3bb3e51521e708b43662a0496116ba67d85c0553",
          "transactionIndex": "0xb7",
          "logIndex": "0x296",
          "removed": false
        }
      ],
      "logsBloom": "0x00000000000000000020000000800000000000000000000000008000002000000000000000000000000000408000000000000000000000000000000000000000000000000000000200000008000000000000000000000000000000200000000000000000000000000000000000000000000001000000000000010010000000000000000000000000000000000000000000000000000000000000010000000000000000800000000000000000800000000000000000000000000000000000000000000002000000000000000000000000000000000000100000000000800000000001000000000000002000000000000000000000000100000000000000000000",
      "type": "0x2",
      "transactionHash": "0x4ec52ce4f9b99edf31ec926d3bb3e51521e708b43662a0496116ba67d85c0553",
      "transactionIndex": "0xb7",
      "blockHash": "0xa2038d0a8bf55e3362de02e84628bd979e395e2d6f88304af729bce90955d744",
      "blockNumber": "0x17ebb24",
      "gasUsed": "0xd2d2",
      "effectiveGasPrice": "0x6e42ac3",
      "from": "0xcad1a7864a108dbff67f4b8af71fab0c7a86d0b6",
      "to": "0x642bb6860b4776cc10b26b8f361fd139e7f0db04",
      "contractAddress": null
    },
    {
      "status": "0x1",
      "cumulativeGasUsed": "0xe5694f",
      "logs": [
        {
          "address": "0x7c5a8eef1d836450c019fb036453ac6ec97885a3",
          "topics": [
            "0xc25d1d022102ce7b344c33d14de2893a248fabd34bb630dc982e2fbc20f29543",
            "0x0000000000000000000000003bbe928340c61a65cb6c4a87b3fb59b6f3f7606a"
          ],
          "data": "0x",
          "blockHash": "0x3dbfa0734d3d0790cce98e28c72569274441789638170849ffb0ebe5e5b723fa",
          "blockNumber": "0x17ebb26",
          "blockTimestamp": "0x6a03c74b",
          "transactionHash": "0xc08bcac1d4876f82761351f408748cdd6e17069b7855383c8905ec0298f4b053",
          "transactionIndex": "0x84",
          "logIndex": "0x1d4",
          "removed": false
        }
      ],
      "logsBloom": "0x00000000000000000000000000000000000000000000000000000000000000000000000000000000000000000000000000000000000000000000000000000000000000000000000000000000000000200000000000000000000000000000100000000000000000000000000000000001000000000000000000000000000000000000000000000000000000000000000000000000000000000000000000000000000000000000000000008000000000000000000000000000000000000000000000002000000000000400000002000000000001002000000000000000000000000000000000000000000000000000000000000000000000000000000000000000",
      "type": "0x2",
      "transactionHash": "0xc08bcac1d4876f82761351f408748cdd6e17069b7855383c8905ec0298f4b053",
      "transactionIndex": "0x84",
      "blockHash": "0x3dbfa0734d3d0790cce98e28c72569274441789638170849ffb0ebe5e5b723fa",
      "blockNumber": "0x17ebb26",
      "gasUsed": "0x1948f",
      "effectiveGasPrice": "0x69afc17",
      "from": "0xcad1a7864a108dbff67f4b8af71fab0c7a86d0b6",
      "to": "0x7c5a8eef1d836450c019fb036453ac6ec97885a3",
      "contractAddress": null
    }
  ],
  "libraries": [],
  "pending": [],
  "returns": {},
  "timestamp": 1778632524234,
  "chain": 1,
  "commit": "2cd4e11"
}