{
  "transactions": [
    {
      "hash": "0xb9df62bbc116c55e6f8e55c21739ed2a0cab717cd35802a65785939c06f8f91c",
      "transactionType": "CALL",
      "contractName": null,
      "contractAddress": "0xc8514f821a3d801fa8a8c435840a992a4365a13b",
      "function": "pullAndRefresh()",
      "arguments": [],
      "transaction": {
        "from": "0xcad1a7864a108dbff67f4b8af71fab0c7a86d0b6",
        "to": "0xc8514f821a3d801fa8a8c435840a992a4365a13b",
        "value": "0x0",
        "input": "0x6bb59a53",
        "nonce": "0x239",
        "chainId": "0x1"
      },
      "additionalContracts": [],
      "isFixedGasLimit": false
    },
    {
      "hash": "0x98c5ab00bf31232d736177e16c13cfcde8cc0ba09e214eadc4d93c3ec4a421a2",
      "transactionType": "CREATE",
      "contractName": "BalancerPoolerV2",
      "contractAddress": "0x7f74388bc970de5e2822036a1ad06fccd156786b",
      "function": null,
      "arguments": [
        "0xa3931d71877C0E7a3148CB7Eb4463524FEc27fbD",
        "0x642BB6860b4776CC10b26B8f361Fd139E7f0db04",
        "0xbA1333333333a1BA1108E8412f11850A5C319bA9",
        "0x5C6fb490BDFD3246EB0bB062c168DeCAF4bD9FDd",
        "true",
        "0xCad1a7864a108DBFF67F4b8af71fAB0C7A86D0B6"
      ],
      "transaction": {
        "from": "0xcad1a7864a108dbff67f4b8af71fab0c7a86d0b6",
        "value": "0x0",
        "input": "0x61012080604052346102765760c0816133458038038091610020828561033e565b8339810103126102765761003381610361565b61003f60208301610361565b61004b60408401610361565b9061005860608501610361565b9260808501519485151586036102765760a06100749101610361565b6001600160a01b038116801561032b575f8054610100600160a81b03198116600894851b610100600160a81b0316178255604051931c6001600160a01b0316907f8be0079c531659141344cd1fd0a4f28419497f9722a3daafe3b4186f6b6457e09080a360017f9b779b17422d0df92223018b32b4d1fa46e071723d6817e2486d003becc55f005560f48181016001600160401b03811183821017610317578291613251833903905ff0801561028257600580546001600160a01b0319166001600160a01b03928316179055662386f26fc10000600c5581169081156102d2576001600160a01b0385161561028d576080526040516338d52e0f60e01b815290602090829060049082905afa908115610282575f91610244575b5060a052600680546001600160a01b0319166001600160a01b039290921691909117905560c05260e052610100526001600755604051612edb9081610376823960805181818161026a01528181610ba001528181611a2a01528181611cad01526129b2015260a0518181816101d00152818161142c015281816119050152611a52015260c0518181816103650152818161058b0152610b0a015260e05181612ab4015261010051818181610c810152612a060152f35b90506020813d60201161027a575b8161025f6020938361033e565b810103126102765761027090610361565b5f61018e565b5f80fd5b3d9150610252565b6040513d5f823e3d90fd5b60405162461bcd60e51b815260206004820152601d60248201527f42616c616e636572506f6f6c657256323a207a65726f20726f757465720000006044820152606490fd5b60405162461bcd60e51b815260206004820152601c60248201527f42616c616e636572506f6f6c657256323a207a65726f207355534453000000006044820152606490fd5b634e487b7160e01b5f52604160045260245ffd5b631e4fbdf760e01b5f525f60045260245ffd5b601f909101601f19168101906001600160401b0382119082101761031757604052565b51906001600160a01b03821682036102765756fe60806040526004361015610011575f80fd5b5f5f3560e01c80630281d95c146125e157806304bda262146125bb57806306fdde03146125165780630890d80c14611f705780630d32336514611f3857806316f0115b14611f125780633dfd387314611e415780633f4ba83a14611d985780634437152a14611cd15780634f5a19df14611c8e5780635c975abb14611c6d578063715018a614611bfb5780637284e41614611b13578063734c5b2c14611761578063787c11d4146112fd5780637f5a7c7b146112d6578063821fe894146112095780638456cb59146111845780638bf78874146111665780638da5cb5b1461113d57806391dd734614610ad4578063a1d65e3914610a39578063b1db9044146109b7578063b2118a8d14610921578063b506355e146108d3578063bdff80c81461084d578063c580a54014610810578063d0d164bd146107e9578063d3d99057146107c6578063d4d100a6146107a8578063f2fde38b146106d2578063f3ccaac0146105cd578063faab85e5146105af578063fbfa77cf1461056b578063fca3b5aa14610514578063fe313112146101f75763fe5a451a146101b1575f80fd5b346101f457806003193601126101f45760206040516001600160a01b037f0000000000000000000000000000000000000000000000000000000000000000168152f35b80fd5b50346101f45760206003193601126101f45733815260086020526040812054600754036104aa57610226612c20565b61022e612ba9565b6040517f70a082310000000000000000000000000000000000000000000000000000000081523060048201526020816024816001600160a01b037f0000000000000000000000000000000000000000000000000000000000000000165afa9081156103ff578291610474575b50801561040a578161030f61031d610358936040519033602083015260408201526004356060820152606081526102d2608082612793565b6040519283917f91dd73460000000000000000000000000000000000000000000000000000000060208401526020602484015260448301906126ef565b03601f198101835282612793565b604051809381927f48c894910000000000000000000000000000000000000000000000000000000083526020600484015260248301906126ef565b0381836001600160a01b037f0000000000000000000000000000000000000000000000000000000000000000165af180156103ff576103ba575b5060017f9b779b17422d0df92223018b32b4d1fa46e071723d6817e2486d003becc55f005580f35b3d8083833e6103c98183612793565b81016020828203126103fb57815167ffffffffffffffff81116103f7576103f092016128ed565b505f610392565b8380fd5b8280fd5b6040513d84823e3d90fd5b608460405162461bcd60e51b815260206004820152602160248201527f42616c616e636572506f6f6c657256323a206e6f7468696e6720746f20706f6f60448201527f6c000000000000000000000000000000000000000000000000000000000000006064820152fd5b90506020813d6020116104a2575b8161048f60209383612793565b8101031261049e57515f61029a565b5f80fd5b3d9150610482565b608460405162461bcd60e51b815260206004820152602e60248201527f42616c616e636572506f6f6c657256323a2063616c6c6572206e6f742061757460448201527f686f72697a656420706f6f6c65720000000000000000000000000000000000006064820152fd5b50346101f45760206003193601126101f4576001600160a01b036105366126d9565b61053e612b67565b167fffffffffffffffffffffffff0000000000000000000000000000000000000000600154161760015580f35b50346101f457806003193601126101f45760206040516001600160a01b037f0000000000000000000000000000000000000000000000000000000000000000168152f35b50346101f457806003193601126101f4576020600954604051908152f35b50346101f457806003193601126101f4576040519080600354906105f082612742565b808552916001811690811561068d5750600114610630575b61062c8461061881860382612793565b6040519182916020835260208301906126ef565b0390f35b600381527fc2575a0e9e593c00f959f8c92f12db2869c3395a3b0502d05e2516446f71f85b939250905b8082106106735750909150810160200161061882610608565b91926001816020925483858801015201910190929161065a565b7fffffffffffffffffffffffffffffffffffffffffffffffffffffffffffffff001660208087019190915292151560051b850190920192506106189150839050610608565b50346101f45760206003193601126101f4576106ec6126d9565b6106f4612b67565b6001600160a01b03811690811561077c576001600160a01b039074ffffffffffffffffffffffffffffffffffffffff0084549160081b167fffffffffffffffffffffff0000000000000000000000000000000000000000ff821617845560081c167f8be0079c531659141344cd1fd0a4f28419497f9722a3daafe3b4186f6b6457e08380a380f35b6024837f1e4fbdf700000000000000000000000000000000000000000000000000000000815280600452fd5b50346101f457806003193601126101f4576020600c54604051908152f35b50346101f457806003193601126101f45760206107e1612976565b604051908152f35b50346101f457806003193601126101f45760206001600160a01b03600a5416604051908152f35b50346101f45760406003193601126101f45761084a61082d6126d9565b610835612b67565b602435906001600160a01b0360065416612cf6565b80f35b50346101f457806003193601126101f457610866612b67565b600754600181018091116108a6576020817fc1d15e5af31557600e1553614419048046b6417b097d56b8e0042d79d0f98dde92600755604051908152a180f35b6024827f4e487b710000000000000000000000000000000000000000000000000000000081526011600452fd5b50346101f45760206003193601126101f4577fa69ab2561abe4c5b453de4e4ad5484edaa4c07e9ae9d8bc86d1a638ca06387846020600435610913612b67565b80600c55604051908152a180f35b50346101f45760606003193601126101f45761093b6126d9565b602435906001600160a01b0382168083036103f757610958612b67565b156109735761084a916001600160a01b036044359216612cf6565b606460405162461bcd60e51b815260206004820152602060248201527f42616c616e636572506f6f6c657256323a207a65726f20726563697069656e746044820152fd5b50346101f45760206003193601126101f4577fa7978870153ece652cc4657688816871cbe0106d26a50cbd2239fecedb8de1c460206001600160a01b036109fc6126d9565b610a04612b67565b16807fffffffffffffffffffffffff0000000000000000000000000000000000000000600a541617600a55604051908152a180f35b50346101f45760206003193601126101f457600435610a56612b67565b60648111610a90576020817f074731357d33727f4901077a97ee097d688cb98f4e4565c7e39e804dd986ced492600955604051908152a180f35b606460405162461bcd60e51b815260206004820152601c60248201527f42616c616e636572506f6f6c657256323a2073697a65203e20313030000000006044820152fd5b50346101f45760206003193601126101f45760043567ffffffffffffffff811161113957610b06903690600401612714565b91907f0000000000000000000000000000000000000000000000000000000000000000906001600160a01b038216938433036110cf5781606091810103126103fb578035916001600160a01b0383168093036103f757604060208301359201359082610b96575b61062c8560405190610b80602083612793565b81526040519182916020835260208301906126ef565b6001600160a01b037f00000000000000000000000000000000000000000000000000000000000000001692604051907f70a08231000000000000000000000000000000000000000000000000000000008252876004830152602082602481885afa918215610ec8578792611099575b50610c11919285612cf6565b604051907f70a08231000000000000000000000000000000000000000000000000000000008252866004830152602082602481875afa801561108e57869061105a575b610c5e9250612896565b9060609260405196610c708589612793565b60028852601f1985013660208a01377f00000000000000000000000000000000000000000000000000000000000000001561103f5783610caf896128a3565b5286610cba896128dd565b525b6001600160a01b0360065416916040519260c0840184811067ffffffffffffffff821117611012576040528352602083019230845260408101998a5286810190858252608081016001815260209b8c9660405193610d1a8986612793565b8d855260a08101948552604051987f4af29ec4000000000000000000000000000000000000000000000000000000008a5260048a0152516001600160a01b03166024890152516001600160a01b03166044880152516064870160c0905260e48701610d8491612943565b92516084870152516005811015610fe557610dd38b938793849360a4850152517fffffffffffffffffffffffffffffffffffffffffffffffffffffffffffffffdc8483030160c48501526126ef565b038183865af1928315610fda5791899189938495610ed3575b5060449060405194859384927f15afd40900000000000000000000000000000000000000000000000000000000845260048401528960248401525af18015610ec857610e75575b50907faf6cb2e6187986f98607346b0da39860f8bcc4e2e024c1926efa779809b07adb93929161062c976040519384528301526040820152a25f808080610b6d565b939291908785813d8311610ec1575b610e8e8183612793565b8101031261049e5792935090917faf6cb2e6187986f98607346b0da39860f8bcc4e2e024c1926efa779809b07adb610e33565b503d610e84565b6040513d89823e3d90fd5b9250935091503d8089833e610ee88183612793565b81018682820312610fd657815167ffffffffffffffff8111610fd257820181601f82011215610fd257805167ffffffffffffffff8111610fa5578b808260051b9281840190610f3a6040519283612793565b8152019183010191838311610fa157908c809201905b838210610f9257505090508201519160408101519067ffffffffffffffff8211610f8e5792610f868b95936044938e96016128ed565b509490610dec565b8a80fd5b81518152908201908201610f50565b8b80fd5b60248b7f4e487b710000000000000000000000000000000000000000000000000000000081526041600452fd5b8980fd5b8880fd5b6040513d8a823e3d90fd5b60248b7f4e487b710000000000000000000000000000000000000000000000000000000081526021600452fd5b60248a7f4e487b710000000000000000000000000000000000000000000000000000000081526041600452fd5b86611049896128a3565b5283611054896128dd565b52610cbc565b506020823d602011611086575b8161107460209383612793565b8101031261049e57610c5e9151610c54565b3d9150611067565b6040513d88823e3d90fd5b91506020823d6020116110c7575b816110b460209383612793565b8101031261049e57610c11915191610c05565b3d91506110a7565b608460405162461bcd60e51b815260206004820152602560248201527f42616c616e636572506f6f6c657256323a2063616c6c6572206973206e6f742060448201527f7661756c740000000000000000000000000000000000000000000000000000006064820152fd5b5080fd5b50346101f457806003193601126101f4576001600160a01b036020915460081c16604051908152f35b50346101f457806003193601126101f4576020600754604051908152f35b50346101f457806003193601126101f4576111ab6001600160a01b036001541633146127d6565b6111b3612c20565b60017fffffffffffffffffffffffffffffffffffffffffffffffffffffffffffffff008254161781557f62e78cea01bee320cd4e420270b5ea74000d11b0c9f74754ebdbfc544b05a2586020604051338152a180f35b50346101f45760206003193601126101f4576001600160a01b0361122b6126d9565b611233612b67565b168015611292576020817fd8b712c26ba7e9f773859a67dd0830f101b9e336fade6cf058d56c9b22ae1964927fffffffffffffffffffffffff0000000000000000000000000000000000000000600b541617600b55604051908152a180f35b606460405162461bcd60e51b815260206004820152601a60248201527f42616c616e636572506f6f6c657256323a207a65726f2070736d0000000000006044820152fd5b50346101f457806003193601126101f45760206001600160a01b0360055416604051908152f35b50346101f45760206003193601126101f45760043530330361171d576001600160a01b03600b5416604051917ffae036d5000000000000000000000000000000000000000000000000000000008352602083600481855afa9283156117125784936116de575b50600c54831161169a57604051927f4010f777000000000000000000000000000000000000000000000000000000008452602084600481865afa9384156115bd578594611666575b50670de0b6b3a7640000820291808304670de0b6b3a7640000149015171561163957670de0b6b3a7640000019081670de0b6b3a764000011611639576113f18285612856565b90811561160c57049283156115c857670de0b6b3a76400009161141761141c9286612856565b612856565b0490611453826001600160a01b037f0000000000000000000000000000000000000000000000000000000000000000169283612c53565b8360206001600160a01b03600b541660446001600160a01b03600a541660405194859384927f8d7ef9bb00000000000000000000000000000000000000000000000000000000845260048401528960248401525af180156115bd5761158e575b506001600160a01b03600b54166114cb858284612d71565b15611512575b505060407f178974bbe996bf918b5f20130dc4ac5d6eab42f1685ed105663449c693243577916001600160a01b03600a54169382519182526020820152a280f35b61151c8183612dd8565b15611562578461152c9183612e50565b1561153757806114d1565b7f5274afe7000000000000000000000000000000000000000000000000000000008452600452602483fd5b602485837f5274afe7000000000000000000000000000000000000000000000000000000008252600452fd5b6020813d6020116115b5575b816115a760209383612793565b8101031261049e57516114b3565b3d915061159a565b6040513d87823e3d90fd5b606460405162461bcd60e51b815260206004820152601f60248201527f42616c616e636572506f6f6c657256323a20646f6e6174696f6e2064757374006044820152fd5b6024867f4e487b710000000000000000000000000000000000000000000000000000000081526012600452fd5b6024857f4e487b710000000000000000000000000000000000000000000000000000000081526011600452fd5b9093506020813d602011611692575b8161168260209383612793565b8101031261049e5751925f6113ab565b3d9150611675565b606460405162461bcd60e51b815260206004820152601f60248201527f42616c616e636572506f6f6c657256323a20746f757420746f6f2068696768006044820152fd5b9092506020813d60201161170a575b816116fa60209383612793565b8101031261049e5751915f611363565b3d91506116ed565b6040513d86823e3d90fd5b606460405162461bcd60e51b815260206004820152601b60248201527f42616c616e636572506f6f6c657256323a206f6e6c792073656c6600000000006044820152fd5b503461049e57606060031936011261049e5761177b6126d9565b9060243560443567ffffffffffffffff811161049e5761179f903690600401612714565b916117a8612ba9565b6117be6001600160a01b036001541633146127d6565b6117c6612c20565b6001600160a01b03600a5416151580611aff575b80611af4575b8015611aeb576117ff60646117f760095485612856565b045b83612896565b80611a1b575b506118c8575b83946001600160a01b036005541690813b156118c457856001600160a01b03916118798296604051988997889687957fa88b539900000000000000000000000000000000000000000000000000000000875216600486015260248501526060604485015260648401916127b6565b03925af180156103ff576118af575060017f9b779b17422d0df92223018b32b4d1fa46e071723d6817e2486d003becc55f005580f35b816118b991612793565b6101f457805f610392565b8580fd5b604051947f70a082310000000000000000000000000000000000000000000000000000000086523060048701526020866024816001600160a01b037f0000000000000000000000000000000000000000000000000000000000000000165afa958615611a10575f966119dc575b5085611943575b945061180b565b303b1561049e57604051957f787c11d40000000000000000000000000000000000000000000000000000000087528060048801525f8760248183305af1806119c6575b869750155f146119c05760207f83278d76a1cb6b6468d45204d839a57d19fcfb34c6241ff2b1610c413ebac27991604051908152a161193c565b5061193c565b9550955f6119d391612793565b5f948690611986565b9095506020813d602011611a08575b816119f860209383612793565b8101031261049e5751945f611935565b3d91506119eb565b6040513d5f823e3d90fd5b60206001600160a01b039160447f000000000000000000000000000000000000000000000000000000000000000091611a778184877f000000000000000000000000000000000000000000000000000000000000000016612c53565b5f60405195869485937f6e553f650000000000000000000000000000000000000000000000000000000085526004850152306024850152165af18015611a10571561180557611add9060203d602011611ae4575b611ad58183612793565b810190612847565b505f611805565b503d611acb565b6117ff5f6117f9565b5060095415156117e0565b506001600160a01b03600b541615156117da565b3461049e575f60031936011261049e576040515f600454611b3381612742565b8084529060018116908115611bb95750600114611b5b575b61062c8361061881850382612793565b91905060045f527f8a35acfbc15ff81a39ae7d344fd709f28e8600b4aa8c65c6b64bfe7fe36bd19b915f905b808210611b9f57509091508101602001610618611b4b565b919260018160209254838588010152019101909291611b87565b7fffffffffffffffffffffffffffffffffffffffffffffffffffffffffffffff001660208086019190915291151560051b840190910191506106189050611b4b565b3461049e575f60031936011261049e57611c13612b67565b5f6001600160a01b0381547fffffffffffffffffffffff0000000000000000000000000000000000000000ff8116835560081c167f8be0079c531659141344cd1fd0a4f28419497f9722a3daafe3b4186f6b6457e08280a3005b3461049e575f60031936011261049e57602060ff5f54166040519015158152f35b3461049e575f60031936011261049e5760206040516001600160a01b037f0000000000000000000000000000000000000000000000000000000000000000168152f35b3461049e57602060031936011261049e576001600160a01b03611cf26126d9565b611cfa612b67565b168015611d2e577fffffffffffffffffffffffff000000000000000000000000000000000000000060065416176006555f80f35b608460405162461bcd60e51b815260206004820152602360248201527f42616c616e636572506f6f6c657256323a207a65726f20706f6f6c206164647260448201527f65737300000000000000000000000000000000000000000000000000000000006064820152fd5b3461049e575f60031936011261049e57611dbe6001600160a01b036001541633146127d6565b5f5460ff811615611e19577fffffffffffffffffffffffffffffffffffffffffffffffffffffffffffffff00165f557f5db9ee0a495bf2e6ff9c91a7834c1ba4fdd244a5e8aa4e537bd38aeae4b073aa6020604051338152a1005b7f8dfc202b000000000000000000000000000000000000000000000000000000005f5260045ffd5b3461049e57602060031936011261049e576004356001600160a01b03811680910361049e57611e6e612b67565b8015611ece576001600160a01b03600554827fffffffffffffffffffffffff0000000000000000000000000000000000000000821617600555167f28f7fb7e7a8b1239a2210fff0089ce39da0362e2dd2eecaa013a8996a37a22795f80a3005b606460405162461bcd60e51b815260206004820152601d60248201527f41546f6b656e4469737061746368657256323a207a65726f20686f6f6b0000006044820152fd5b3461049e575f60031936011261049e5760206001600160a01b0360065416604051908152f35b3461049e57602060031936011261049e576001600160a01b03611f596126d9565b165f526008602052602060405f2054604051908152f35b3461049e57606060031936011261049e5760043567ffffffffffffffff811161049e57611fa1903690600401612714565b9060243567ffffffffffffffff811161049e57611fc2903690600401612714565b929060443567ffffffffffffffff811161049e57611fe4903690600401612714565b9091611fee612b67565b67ffffffffffffffff841161228f57612008600254612742565b601f8111612475575b50835f601f82116001146123f4575f916123e9575b508460011b905f198660031b1c1916176002555b67ffffffffffffffff861161228f57612054600354612742565b601f8111612348575b50855f601f82116001146122c7575f916122bc575b508660011b905f198860031b1c1916176003555b67ffffffffffffffff821161228f576120a0600454612742565b601f81116121ee575b505f95601f83116001146121425782916121249161213295947f61b45807b5528344b8b2c26433a3aabead6c9dc6239e146e7ba7c812fded07d0995f91612137575b508460011b905f198660031b1c1916176004555b61211660405198899860608a5260608a01916127b6565b9187830360208901526127b6565b9184830360408601526127b6565b0390a1005b90508501358a6120eb565b601f1983169660045f527f8a35acfbc15ff81a39ae7d344fd709f28e8600b4aa8c65c6b64bfe7fe36bd19b975f5b8181106121d65750917f61b45807b5528344b8b2c26433a3aabead6c9dc6239e146e7ba7c812fded07d098859492612132979661212495106121bd575b5050600184811b016004556120ff565b5f1960f88760031b161c199087013516905589806121ad565b868301358a5560019099019860209283019201612170565b60045f52601f830160051c7f8a35acfbc15ff81a39ae7d344fd709f28e8600b4aa8c65c6b64bfe7fe36bd19b019060208410612267575b601f0160051c7f8a35acfbc15ff81a39ae7d344fd709f28e8600b4aa8c65c6b64bfe7fe36bd19b01905b81811061225c57506120a9565b5f815560010161224f565b7f8a35acfbc15ff81a39ae7d344fd709f28e8600b4aa8c65c6b64bfe7fe36bd19b9150612225565b7f4e487b71000000000000000000000000000000000000000000000000000000005f52604160045260245ffd5b905081013587612072565b90601f19169060035f52877fc2575a0e9e593c00f959f8c92f12db2869c3395a3b0502d05e2516446f71f85b925f5b81811061232d575010612314575b5050600186811b01600355612086565b5f1960f88960031b161c19908301351690558680612304565b8584013585556001909401936020938401938b9350016122f6565b60035f52601f870160051c7fc2575a0e9e593c00f959f8c92f12db2869c3395a3b0502d05e2516446f71f85b0190602088106123c1575b601f0160051c7fc2575a0e9e593c00f959f8c92f12db2869c3395a3b0502d05e2516446f71f85b01905b8181106123b6575061205d565b5f81556001016123a9565b7fc2575a0e9e593c00f959f8c92f12db2869c3395a3b0502d05e2516446f71f85b915061237f565b905085013587612026565b90601f19169060025f52857f405787fa12a823e0f2b7631cc41b3ba8828b3321ca811111fa75cd3aa3bb5ace925f5b81811061245a575010612441575b5050600184811b0160025561203a565b5f1960f88760031b161c19908701351690558680612431565b89840135855560019094019360209384019389935001612423565b60025f52601f850160051c7f405787fa12a823e0f2b7631cc41b3ba8828b3321ca811111fa75cd3aa3bb5ace0190602086106124ee575b601f0160051c7f405787fa12a823e0f2b7631cc41b3ba8828b3321ca811111fa75cd3aa3bb5ace01905b8181106124e35750612011565b5f81556001016124d6565b7f405787fa12a823e0f2b7631cc41b3ba8828b3321ca811111fa75cd3aa3bb5ace91506124ac565b3461049e575f60031936011261049e576040515f60025461253681612742565b8084529060018116908115611bb9575060011461255d5761062c8361061881850382612793565b91905060025f527f405787fa12a823e0f2b7631cc41b3ba8828b3321ca811111fa75cd3aa3bb5ace915f905b8082106125a157509091508101602001610618611b4b565b919260018160209254838588010152019101909291612589565b3461049e575f60031936011261049e5760206001600160a01b03600b5416604051908152f35b3461049e57604060031936011261049e576125fa6126d9565b60243590811515820361049e576001600160a01b0390612618612b67565b169081156126955715612661577f8f8a455eb36ca8b47d9bf011994919d05afa0aaa307e59fbbcc9d9fa5d856f6a6020600754835f52600882528060405f2055604051908152a2005b805f5260086020525f60408120557f76bd0073e9077594a5fd0da5aaeb1301a89f41a693a8a8e4b4d77967bcfdfbf35f80a2005b606460405162461bcd60e51b815260206004820152601d60248201527f42616c616e636572506f6f6c657256323a207a65726f20706f6f6c65720000006044820152fd5b600435906001600160a01b038216820361049e57565b90601f19601f602080948051918291828752018686015e5f8582860101520116010190565b9181601f8401121561049e5782359167ffffffffffffffff831161049e576020838186019501011161049e57565b90600182811c92168015612789575b602083101461275c57565b7f4e487b71000000000000000000000000000000000000000000000000000000005f52602260045260245ffd5b91607f1691612751565b90601f601f19910116810190811067ffffffffffffffff82111761228f57604052565b601f8260209493601f1993818652868601375f8582860101520116010190565b156127dd57565b608460405162461bcd60e51b815260206004820152602860248201527f41546f6b656e4469737061746368657256323a2063616c6c6572206973206e6f60448201527f74206d696e7465720000000000000000000000000000000000000000000000006064820152fd5b9081602091031261049e575190565b8181029291811591840414171561286957565b7f4e487b71000000000000000000000000000000000000000000000000000000005f52601160045260245ffd5b9190820391821161286957565b8051156128b05760200190565b7f4e487b71000000000000000000000000000000000000000000000000000000005f52603260045260245ffd5b8051600110156128b05760400190565b81601f8201121561049e5780519067ffffffffffffffff821161228f5760405192612922601f8401601f191660200185612793565b8284526020838301011161049e57815f9260208093018386015e8301015290565b90602080835192838152019201905f5b8181106129605750505090565b8251845260209384019390920191600101612953565b6040517f70a082310000000000000000000000000000000000000000000000000000000081523060048201526020816024816001600160a01b037f0000000000000000000000000000000000000000000000000000000000000000165afa908115611a10575f91612b35575b508015612b3057604051906129f8606083612793565b6002825260403660208401377f000000000000000000000000000000000000000000000000000000000000000015612b1657612a33826128a3565b525f612a3e826128dd565b525b60206001600160a01b036006541681612a916040519485937fda001f7d0000000000000000000000000000000000000000000000000000000085526004850152608060248501526084840190612943565b3060448401525f83820391600319830160648601525201815f6001600160a01b037f0000000000000000000000000000000000000000000000000000000000000000165af1908115611a10575f91612ae7575090565b90506020813d602011612b0e575b81612b0260209383612793565b8101031261049e575190565b3d9150612af5565b5f612b20836128a3565b52612b2a826128dd565b52612a40565b505f90565b90506020813d602011612b5f575b81612b5060209383612793565b8101031261049e57515f6129e2565b3d9150612b43565b6001600160a01b035f5460081c163303612b7d57565b7f118cdaa7000000000000000000000000000000000000000000000000000000005f523360045260245ffd5b60027f9b779b17422d0df92223018b32b4d1fa46e071723d6817e2486d003becc55f005414612bf85760027f9b779b17422d0df92223018b32b4d1fa46e071723d6817e2486d003becc55f0055565b7f3ee5aeb5000000000000000000000000000000000000000000000000000000005f5260045ffd5b60ff5f5416612c2b57565b7fd93c0665000000000000000000000000000000000000000000000000000000005f5260045ffd5b9190612c60828285612d71565b15612c6a57505050565b612c748184612dd8565b15612cc15790612c849183612e50565b15612c8c5750565b6001600160a01b03907f5274afe7000000000000000000000000000000000000000000000000000000005f521660045260245ffd5b6001600160a01b03837f5274afe7000000000000000000000000000000000000000000000000000000005f521660045260245ffd5b916001600160a01b03604051927fa9059cbb000000000000000000000000000000000000000000000000000000005f521660045260245260205f60448180865af19060015f5114821615612d50575b60405215612c8c5750565b906001811516612d6857823b15153d15161690612d45565b503d5f823e3d90fd5b92916001600160a01b03604051927f095ea7b3000000000000000000000000000000000000000000000000000000005f521660045260245260205f60448180875af19260015f5114841615612dc7575b50604052565b3d15903b151516909216915f612dc1565b91906001600160a01b03604051917f095ea7b3000000000000000000000000000000000000000000000000000000005f52166004525f60245260205f60448180875af19260015f5114841615612e2e5750604052565b60018492941516612e47573b15153d151616915f612dc1565b833d5f823e3d90fd5b92916001600160a01b03604051927f095ea7b3000000000000000000000000000000000000000000000000000000005f521660045260245260205f60448180875af19260015f5114841615612e2e575060405256fea26469706673582212201bcc73c2a8b4967de8d957c5dfc7096c309307f7ab738d99a410b70c9797984364736f6c634300081e00336080806040523460135760dc908160188239f35b5f80fdfe6004361015600b575f80fd5b5f3560e01c63a88b539914601d575f80fd5b3460a25760607ffffffffffffffffffffffffffffffffffffffffffffffffffffffffffffffffc36011260a25760043573ffffffffffffffffffffffffffffffffffffffff81160360a25760443567ffffffffffffffff811160a2573660238201121560a257806004013567ffffffffffffffff811160a2573691016024011160a257005b5f80fdfea2646970667358221220f066940339c28afa2fa30552fb6eb190e06b27f160ca8449c00975d015cceb3564736f6c634300081e0033000000000000000000000000a3931d71877c0e7a3148cb7eb4463524fec27fbd000000000000000000000000642bb6860b4776cc10b26b8f361fd139e7f0db04000000000000000000000000ba1333333333a1ba1108e8412f11850a5c319ba90000000000000000000000005c6fb490bdfd3246eb0bb062c168decaf4bd9fdd0000000000000000000000000000000000000000000000000000000000000001000000000000000000000000cad1a7864a108dbff67f4b8af71fab0c7a86d0b6",
        "nonce": "0x23a",
        "chainId": "0x1"
      },
      "additionalContracts": [],
      "isFixedGasLimit": false
    },
    {
      "hash": "0xc997bca1073148539af1246d2fd3e4af668a36763adeba9f5678100b1a9e219e",
      "transactionType": "CREATE",
      "contractName": "BalancerPoolerMintDebtHook",
      "contractAddress": "0x4a26ad83306a2f17155799fdd9449f77eb3f8bd7",
      "function": null,
      "arguments": [
        "0xCad1a7864a108DBFF67F4b8af71fAB0C7A86D0B6",
        "0x7f74388bc970dE5e2822036A1aD06fCCd156786b",
        "0xf3B5B661b92B75C71fA5Aba8Fd95D7514A9CD605"
      ],
      "transaction": {
        "from": "0xcad1a7864a108dbff67f4b8af71fab0c7a86d0b6",
        "value": "0x0",
        "input": "0x60a0346101df57601f610c4038819003918201601f19168301916001600160401b038311848410176101e3578084926060946040528339810103126101df57610047816101f7565b61005f6040610058602085016101f7565b93016101f7565b6001600160a01b039091169182156101cc575f80546001600160a01b031981168517825560405194916001600160a01b03909116907f8be0079c531659141344cd1fd0a4f28419497f9722a3daafe3b4186f6b6457e09080a360017f9b779b17422d0df92223018b32b4d1fa46e071723d6817e2486d003becc55f00556001600160a01b031691821561019b57506001600160a01b031690811561016c5760018060a01b03196001541617600155608052603260ff1960045416176004557fbf864e526596d9fbac2581a707699006fabf5850087539d8eabc9adddf1cf721604080515f815260326020820152a1604051610a34908161020c82396080518181816106dd01526107830152f35b60405162461bcd60e51b8152602060048201526007602482015266070685553443d360cc1b6044820152606490fd5b62461bcd60e51b815260206004820152600c60248201526b0646973706174636865723d360a41b6044820152606490fd5b631e4fbdf760e01b5f525f60045260245ffd5b5f80fd5b634e487b7160e01b5f52604160045260245ffd5b51906001600160a01b03821682036101df5756fe60806040526004361015610011575f80fd5b5f3560e01c80631f1d336e14610701578063236b721b146106b1578063329eb8391461058f5780633bbed4a014610503578063630eb8ab146104fe57806366d003ac146104cb578063715018a61461044f57806371ca337d1461042f5780638d994beb146103785780638da5cb5b14610346578063a88b5399146102e2578063ba22bd76146101e0578063cb7e9057146101ad578063d74fee99146101905763f2fde38b146100be575f80fd5b3461018c57602060031936011261018c5773ffffffffffffffffffffffffffffffffffffffff6100ec61071c565b6100f46109b2565b1680156101605773ffffffffffffffffffffffffffffffffffffffff5f54827fffffffffffffffffffffffff00000000000000000000000000000000000000008216175f55167f8be0079c531659141344cd1fd0a4f28419497f9722a3daafe3b4186f6b6457e05f80a3005b7f1e4fbdf7000000000000000000000000000000000000000000000000000000005f525f60045260245ffd5b5f80fd5b3461018c575f60031936011261018c576020600354604051908152f35b3461018c575f60031936011261018c57602073ffffffffffffffffffffffffffffffffffffffff60015416604051908152f35b3461018c57602060031936011261018c5773ffffffffffffffffffffffffffffffffffffffff61020e61071c565b6102166109b2565b1680156102845773ffffffffffffffffffffffffffffffffffffffff600154827fffffffffffffffffffffffff0000000000000000000000000000000000000000821617600155167ff6e490308a0c67484cf1082cb89a68053c7a7bbf474247e8b634957e2ce2f2965f80a3005b60646040517f08c379a000000000000000000000000000000000000000000000000000000000815260206004820152600c60248201527f646973706174636865723d3000000000000000000000000000000000000000006044820152fd5b3461018c57606060031936011261018c576102fb61071c565b60443567ffffffffffffffff811161018c573660238201121561018c57806004013567ffffffffffffffff811161018c573691016024011161018c5761034490602435906108b7565b005b3461018c575f60031936011261018c57602073ffffffffffffffffffffffffffffffffffffffff5f5416604051908152f35b3461018c57602060031936011261018c5760043560ff811680910361018c5761039f6109b2565b603281116104075760407fbf864e526596d9fbac2581a707699006fabf5850087539d8eabc9adddf1cf7219160045490807fffffffffffffffffffffffffffffffffffffffffffffffffffffffffffffff0083161760045560ff8351921682526020820152a1005b7f971a8035000000000000000000000000000000000000000000000000000000005f5260045ffd5b3461018c575f60031936011261018c57602060ff60045416604051908152f35b3461018c575f60031936011261018c576104676109b2565b5f73ffffffffffffffffffffffffffffffffffffffff81547fffffffffffffffffffffffff000000000000000000000000000000000000000081168355167f8be0079c531659141344cd1fd0a4f28419497f9722a3daafe3b4186f6b6457e08280a3005b3461018c575f60031936011261018c57602073ffffffffffffffffffffffffffffffffffffffff60025416604051908152f35b610701565b3461018c57602060031936011261018c5761051c61071c565b6105246109b2565b73ffffffffffffffffffffffffffffffffffffffff80600254921691827fffffffffffffffffffffffff0000000000000000000000000000000000000000821617600255167f62e69886a5df0ba8ffcacbfc1388754e7abd9bde24b036354c561f1acd4e45935f80a3005b3461018c575f60031936011261018c5773ffffffffffffffffffffffffffffffffffffffff5f54163314158061068f575b6106675760027f9b779b17422d0df92223018b32b4d1fa46e071723d6817e2486d003becc55f00541461063f5760027f9b779b17422d0df92223018b32b4d1fa46e071723d6817e2486d003becc55f005561061961073f565b60017f9b779b17422d0df92223018b32b4d1fa46e071723d6817e2486d003becc55f0055005b7f3ee5aeb5000000000000000000000000000000000000000000000000000000005f5260045ffd5b7f7789ff24000000000000000000000000000000000000000000000000000000005f5260045ffd5b5073ffffffffffffffffffffffffffffffffffffffff600254163314156105c0565b3461018c575f60031936011261018c57602060405173ffffffffffffffffffffffffffffffffffffffff7f0000000000000000000000000000000000000000000000000000000000000000168152f35b3461018c575f60031936011261018c57602060405160328152f35b6004359073ffffffffffffffffffffffffffffffffffffffff8216820361018c57565b73ffffffffffffffffffffffffffffffffffffffff60025416801561088f5760035490811561088b575f60035573ffffffffffffffffffffffffffffffffffffffff7f00000000000000000000000000000000000000000000000000000000000000001690813b1561018c575f916044839260405194859384927f40c10f1900000000000000000000000000000000000000000000000000000000845260048401528760248401525af180156108805761083b575b507f51637bd2e008994ddf37a72a4ca329ad9e152304c3e217d166690d3c214ea217602073ffffffffffffffffffffffffffffffffffffffff6002541692604051908152a2565b67ffffffffffffffff8111610853576040525f6107f4565b7f4e487b71000000000000000000000000000000000000000000000000000000005f52604160045260245ffd5b6040513d5f823e3d90fd5b5050565b7f94d1b98f000000000000000000000000000000000000000000000000000000005f5260045ffd5b73ffffffffffffffffffffffffffffffffffffffff60015416330361098a5760ff60045416808302908382041483151715610958576064900480156109855760035490808201809211610958577fc38343ad805d8c940fdce52dc6a58d9a35b1e9c09a5fa08460c479e6da7b2556928273ffffffffffffffffffffffffffffffffffffffff92606094600355604051968752602087015260408601521692a2565b7f4e487b71000000000000000000000000000000000000000000000000000000005f52601160045260245ffd5b505050565b7fee5fc5a8000000000000000000000000000000000000000000000000000000005f5260045ffd5b73ffffffffffffffffffffffffffffffffffffffff5f541633036109d257565b7f118cdaa7000000000000000000000000000000000000000000000000000000005f523360045260245ffdfea2646970667358221220c52268b9da77b37fe16856233e7e3c1fa581f56fd6bebb7a0a63126c728a9cb764736f6c634300081e0033000000000000000000000000cad1a7864a108dbff67f4b8af71fab0c7a86d0b60000000000000000000000007f74388bc970de5e2822036a1ad06fccd156786b000000000000000000000000f3b5b661b92b75c71fa5aba8fd95d7514a9cd605",
        "nonce": "0x23b",
        "chainId": "0x1"
      },
      "additionalContracts": [],
      "isFixedGasLimit": false
    },
    {
      "hash": "0x331a92f2ce17c56d4a001bc510ffb62d6ce1338a68e0d3c4e4828f38823fe10b",
      "transactionType": "CALL",
      "contractName": "BalancerPoolerV2",
      "contractAddress": "0x7f74388bc970de5e2822036a1ad06fccd156786b",
      "function": "setHook(address)",
      "arguments": [
        "0x4A26ad83306a2F17155799fDD9449f77eb3F8bD7"
      ],
      "transaction": {
        "from": "0xcad1a7864a108dbff67f4b8af71fab0c7a86d0b6",
        "to": "0x7f74388bc970de5e2822036a1ad06fccd156786b",
        "value": "0x0",
        "input": "0x3dfd38730000000000000000000000004a26ad83306a2f17155799fdd9449f77eb3f8bd7",
        "nonce": "0x23c",
        "chainId": "0x1"
      },
      "additionalContracts": [],
      "isFixedGasLimit": false
    },
    {
      "hash": "0x82489116043481733e5f301c01bca4355547bf7ada122e3059b9aceebb42a79d",
      "transactionType": "CALL",
      "contractName": "BalancerPoolerV2",
      "contractAddress": "0x7f74388bc970de5e2822036a1ad06fccd156786b",
      "function": "setMinter(address)",
      "arguments": [
        "0x39Af088408e815844c567037C157B31d48d2E10F"
      ],
      "transaction": {
        "from": "0xcad1a7864a108dbff67f4b8af71fab0c7a86d0b6",
        "to": "0x7f74388bc970de5e2822036a1ad06fccd156786b",
        "value": "0x0",
        "input": "0xfca3b5aa00000000000000000000000039af088408e815844c567037c157b31d48d2e10f",
        "nonce": "0x23d",
        "chainId": "0x1"
      },
      "additionalContracts": [],
      "isFixedGasLimit": false
    },
    {
      "hash": "0x1aa8d675fa908a63c094ce38eb731482269a319f552fc09474e8853bf9c21d7c",
      "transactionType": "CALL",
      "contractName": "BalancerPoolerMintDebtHook",
      "contractAddress": "0x4a26ad83306a2f17155799fdd9449f77eb3f8bd7",
      "function": "setRecipient(address)",
      "arguments": [
        "0xc8514f821A3d801Fa8a8c435840a992A4365a13b"
      ],
      "transaction": {
        "from": "0xcad1a7864a108dbff67f4b8af71fab0c7a86d0b6",
        "to": "0x4a26ad83306a2f17155799fdd9449f77eb3f8bd7",
        "value": "0x0",
        "input": "0x3bbed4a0000000000000000000000000c8514f821a3d801fa8a8c435840a992a4365a13b",
        "nonce": "0x23e",
        "chainId": "0x1"
      },
      "additionalContracts": [],
      "isFixedGasLimit": false
    },
    {
      "hash": "0xa39c98d9206cb6959ab632aa5445053e65f5cf79b9fc7871c91ea9f980859ac5",
      "transactionType": "CALL",
      "contractName": null,
      "contractAddress": "0xf3b5b661b92b75c71fa5aba8fd95d7514a9cd605",
      "function": "setMinter(address,bool)",
      "arguments": [
        "0x4A26ad83306a2F17155799fDD9449f77eb3F8bD7",
        "true"
      ],
      "transaction": {
        "from": "0xcad1a7864a108dbff67f4b8af71fab0c7a86d0b6",
        "to": "0xf3b5b661b92b75c71fa5aba8fd95d7514a9cd605",
        "value": "0x0",
        "input": "0xcf456ae70000000000000000000000004a26ad83306a2f17155799fdd9449f77eb3f8bd70000000000000000000000000000000000000000000000000000000000000001",
        "nonce": "0x23f",
        "chainId": "0x1"
      },
      "additionalContracts": [],
      "isFixedGasLimit": false
    },
    {
      "hash": "0x1ffc20d552d8bf6846ec1b14ca52557a41799143e050a368086f0a9c539ff8e0",
      "transactionType": "CALL",
      "contractName": "BalancerPoolerV2",
      "contractAddress": "0x7f74388bc970de5e2822036a1ad06fccd156786b",
      "function": "setBatchDonationSize(uint256)",
      "arguments": [
        "10"
      ],
      "transaction": {
        "from": "0xcad1a7864a108dbff67f4b8af71fab0c7a86d0b6",
        "to": "0x7f74388bc970de5e2822036a1ad06fccd156786b",
        "value": "0x0",
        "input": "0xa1d65e39000000000000000000000000000000000000000000000000000000000000000a",
        "nonce": "0x240",
        "chainId": "0x1"
      },
      "additionalContracts": [],
      "isFixedGasLimit": false
    },
    {
      "hash": "0x815f404bbf498c2be2974fe36127783dcb66a9874bf3f056035eaa4e8efe5a92",
      "transactionType": "CALL",
      "contractName": "BalancerPoolerV2",
      "contractAddress": "0x7f74388bc970de5e2822036a1ad06fccd156786b",
      "function": "setBatchMinter(address)",
      "arguments": [
        "0x6e9886AfDF07DD67dc70b8335E4e9DF14B445071"
      ],
      "transaction": {
        "from": "0xcad1a7864a108dbff67f4b8af71fab0c7a86d0b6",
        "to": "0x7f74388bc970de5e2822036a1ad06fccd156786b",
        "value": "0x0",
        "input": "0xb1db90440000000000000000000000006e9886afdf07dd67dc70b8335e4e9df14b445071",
        "nonce": "0x241",
        "chainId": "0x1"
      },
      "additionalContracts": [],
      "isFixedGasLimit": false
    },
    {
      "hash": "0x3ef85800298fd52c42effcaa8af7e26ad8f624e4330d6c3f5afb55bc4af49a81",
      "transactionType": "CALL",
      "contractName": "BalancerPoolerV2",
      "contractAddress": "0x7f74388bc970de5e2822036a1ad06fccd156786b",
      "function": "setPSM(address)",
      "arguments": [
        "0xA188EEC8F81263234dA3622A406892F3D630f98c"
      ],
      "transaction": {
        "from": "0xcad1a7864a108dbff67f4b8af71fab0c7a86d0b6",
        "to": "0x7f74388bc970de5e2822036a1ad06fccd156786b",
        "value": "0x0",
        "input": "0x821fe894000000000000000000000000a188eec8f81263234da3622a406892f3d630f98c",
        "nonce": "0x242",
        "chainId": "0x1"
      },
      "additionalContracts": [],
      "isFixedGasLimit": false
    },
    {
      "hash": "0x4a9da2014fe8114e065da62f3cf1f2d04a9388a8efe0ff61f530a7f7f271c1e5",
      "transactionType": "CALL",
      "contractName": "BalancerPoolerV2",
      "contractAddress": "0x7f74388bc970de5e2822036a1ad06fccd156786b",
      "function": "setMaxTout(uint256)",
      "arguments": [
        "10000000000000000"
      ],
      "transaction": {
        "from": "0xcad1a7864a108dbff67f4b8af71fab0c7a86d0b6",
        "to": "0x7f74388bc970de5e2822036a1ad06fccd156786b",
        "value": "0x0",
        "input": "0xb506355e000000000000000000000000000000000000000000000000002386f26fc10000",
        "nonce": "0x243",
        "chainId": "0x1"
      },
      "additionalContracts": [],
      "isFixedGasLimit": false
    },
    {
      "hash": "0x221df31111295cf74da5bf34769241e1c2fc21e07bbcaec5e536c519df90cce4",
      "transactionType": "CALL",
      "contractName": "BalancerPoolerV2",
      "contractAddress": "0x7f74388bc970de5e2822036a1ad06fccd156786b",
      "function": "setAuthorizedPooler(address,bool)",
      "arguments": [
        "0xCad1a7864a108DBFF67F4b8af71fAB0C7A86D0B6",
        "true"
      ],
      "transaction": {
        "from": "0xcad1a7864a108dbff67f4b8af71fab0c7a86d0b6",
        "to": "0x7f74388bc970de5e2822036a1ad06fccd156786b",
        "value": "0x0",
        "input": "0x0281d95c000000000000000000000000cad1a7864a108dbff67f4b8af71fab0c7a86d0b60000000000000000000000000000000000000000000000000000000000000001",
        "nonce": "0x244",
        "chainId": "0x1"
      },
      "additionalContracts": [],
      "isFixedGasLimit": false
    },
    {
      "hash": "0x4651a0788547a12df280619d5eb20e141d48b954818ea7284666dac243292628",
      "transactionType": "CALL",
      "contractName": null,
      "contractAddress": "0x26f89f4b46eb164303985795ee20b15bb1edb38a",
      "function": "withdrawBPT(address,uint256)",
      "arguments": [
        "0xCad1a7864a108DBFF67F4b8af71fAB0C7A86D0B6",
        "4515272337646715331210"
      ],
      "transaction": {
        "from": "0xcad1a7864a108dbff67f4b8af71fab0c7a86d0b6",
        "to": "0x26f89f4b46eb164303985795ee20b15bb1edb38a",
        "value": "0x0",
        "input": "0xc580a540000000000000000000000000cad1a7864a108dbff67f4b8af71fab0c7a86d0b60000000000000000000000000000000000000000000000f4c5fdcc26cc1ae28a",
        "nonce": "0x245",
        "chainId": "0x1"
      },
      "additionalContracts": [],
      "isFixedGasLimit": false
    },
    {
      "hash": "0xf7e3932cf0988b5be72d86f0b50842684daf4c0d8878982f6afdda79b61c5b4c",
      "transactionType": "CALL",
      "contractName": null,
      "contractAddress": "0x26f89f4b46eb164303985795ee20b15bb1edb38a",
      "function": "rescueERC20(address,address,uint256)",
      "arguments": [
        "0xa3931d71877C0E7a3148CB7Eb4463524FEc27fbD",
        "0xCad1a7864a108DBFF67F4b8af71fAB0C7A86D0B6",
        "586341253741724573954"
      ],
      "transaction": {
        "from": "0xcad1a7864a108dbff67f4b8af71fab0c7a86d0b6",
        "to": "0x26f89f4b46eb164303985795ee20b15bb1edb38a",
        "value": "0x0",
        "input": "0xb2118a8d000000000000000000000000a3931d71877c0e7a3148cb7eb4463524fec27fbd000000000000000000000000cad1a7864a108dbff67f4b8af71fab0c7a86d0b600000000000000000000000000000000000000000000001fc91e97b580ac2102",
        "nonce": "0x246",
        "chainId": "0x1"
      },
      "additionalContracts": [],
      "isFixedGasLimit": false
    },
    {
      "hash": "0xda2546a65b58e5c0c96b944b092d80f68eb8369f4360cdb039fb43ac8eddef3c",
      "transactionType": "CALL",
      "contractName": null,
      "contractAddress": "0xa3931d71877c0e7a3148cb7eb4463524fec27fbd",
      "function": "redeem(uint256,address,address)",
      "arguments": [
        "58634125374172457395",
        "0xCad1a7864a108DBFF67F4b8af71fAB0C7A86D0B6",
        "0xCad1a7864a108DBFF67F4b8af71fAB0C7A86D0B6"
      ],
      "transaction": {
        "from": "0xcad1a7864a108dbff67f4b8af71fab0c7a86d0b6",
        "to": "0xa3931d71877c0e7a3148cb7eb4463524fec27fbd",
        "value": "0x0",
        "input": "0xba0876520000000000000000000000000000000000000000000000032db6425ef34469b3000000000000000000000000cad1a7864a108dbff67f4b8af71fab0c7a86d0b6000000000000000000000000cad1a7864a108dbff67f4b8af71fab0c7a86d0b6",
        "nonce": "0x247",
        "chainId": "0x1"
      },
      "additionalContracts": [],
      "isFixedGasLimit": false
    },
    {
      "hash": "0xb6044808813a1793eb6eb18c46b6c2b80dddd37489206dd87fb4d97a981d37b4",
      "transactionType": "CALL",
      "contractName": null,
      "contractAddress": "0xdc035d45d973e3ec169d2276ddab16f1e407384f",
      "function": "approve(address,uint256)",
      "arguments": [
        "0xA188EEC8F81263234dA3622A406892F3D630f98c",
        "0"
      ],
      "transaction": {
        "from": "0xcad1a7864a108dbff67f4b8af71fab0c7a86d0b6",
        "to": "0xdc035d45d973e3ec169d2276ddab16f1e407384f",
        "value": "0x0",
        "input": "0x095ea7b3000000000000000000000000a188eec8f81263234da3622a406892f3d630f98c0000000000000000000000000000000000000000000000000000000000000000",
        "nonce": "0x248",
        "chainId": "0x1"
      },
      "additionalContracts": [],
      "isFixedGasLimit": false
    },
    {
      "hash": "0x674ddb4af83a82cccbd92485b92d69df08369233e6c2cdeaeafe7fb420a93da1",
      "transactionType": "CALL",
      "contractName": null,
      "contractAddress": "0xdc035d45d973e3ec169d2276ddab16f1e407384f",
      "function": "approve(address,uint256)",
      "arguments": [
        "0xA188EEC8F81263234dA3622A406892F3D630f98c",
        "64419504000000000000"
      ],
      "transaction": {
        "from": "0xcad1a7864a108dbff67f4b8af71fab0c7a86d0b6",
        "to": "0xdc035d45d973e3ec169d2276ddab16f1e407384f",
        "value": "0x0",
        "input": "0x095ea7b3000000000000000000000000a188eec8f81263234da3622a406892f3d630f98c0000000000000000000000000000000000000000000000037e000d942edb0000",
        "nonce": "0x249",
        "chainId": "0x1"
      },
      "additionalContracts": [],
      "isFixedGasLimit": false
    },
    {
      "hash": "0x90b0594fec23dcebbda95dca47ae4452bc42e8f49c5857b95c847eacff9ee19a",
      "transactionType": "CALL",
      "contractName": null,
      "contractAddress": "0xa188eec8f81263234da3622a406892f3d630f98c",
      "function": "buyGem(address,uint256)",
      "arguments": [
        "0x6e9886AfDF07DD67dc70b8335E4e9DF14B445071",
        "64419504"
      ],
      "transaction": {
        "from": "0xcad1a7864a108dbff67f4b8af71fab0c7a86d0b6",
        "to": "0xa188eec8f81263234da3622a406892f3d630f98c",
        "value": "0x0",
        "input": "0x8d7ef9bb0000000000000000000000006e9886afdf07dd67dc70b8335e4e9df14b4450710000000000000000000000000000000000000000000000000000000003d6f6b0",
        "nonce": "0x24a",
        "chainId": "0x1"
      },
      "additionalContracts": [],
      "isFixedGasLimit": false
    },
    {
      "hash": "0x5b3448d2d83d72c860a46cfde281308cecfd3d7780e1ac0fed398beb57851b94",
      "transactionType": "CALL",
      "contractName": null,
      "contractAddress": "0xdc035d45d973e3ec169d2276ddab16f1e407384f",
      "function": "approve(address,uint256)",
      "arguments": [
        "0xA188EEC8F81263234dA3622A406892F3D630f98c",
        "0"
      ],
      "transaction": {
        "from": "0xcad1a7864a108dbff67f4b8af71fab0c7a86d0b6",
        "to": "0xdc035d45d973e3ec169d2276ddab16f1e407384f",
        "value": "0x0",
        "input": "0x095ea7b3000000000000000000000000a188eec8f81263234da3622a406892f3d630f98c0000000000000000000000000000000000000000000000000000000000000000",
        "nonce": "0x24b",
        "chainId": "0x1"
      },
      "additionalContracts": [],
      "isFixedGasLimit": false
    },
    {
      "hash": "0xaa2219fee62db698d213c3b823c791ce068435175c67fe740d6201f23ab1b76e",
      "transactionType": "CALL",
      "contractName": null,
      "contractAddress": "0xa3931d71877c0e7a3148cb7eb4463524fec27fbd",
      "function": "transfer(address,uint256)",
      "arguments": [
        "0x7f74388bc970dE5e2822036A1aD06fCCd156786b",
        "527801128367552116559"
      ],
      "transaction": {
        "from": "0xcad1a7864a108dbff67f4b8af71fab0c7a86d0b6",
        "to": "0xa3931d71877c0e7a3148cb7eb4463524fec27fbd",
        "value": "0x0",
        "input": "0xa9059cbb0000000000000000000000007f74388bc970de5e2822036a1ad06fccd156786b00000000000000000000000000000000000000000000001c9cb649d70e4ab74f",
        "nonce": "0x24c",
        "chainId": "0x1"
      },
      "additionalContracts": [],
      "isFixedGasLimit": false
    },
    {
      "hash": "0x4c94fbf38d410f3157d4ed98f8d23b651d28c89b6ff4f7144055cb1e14e8d805",
      "transactionType": "CALL",
      "contractName": null,
      "contractAddress": "0x642bb6860b4776cc10b26b8f361fd139e7f0db04",
      "function": "transfer(address,uint256)",
      "arguments": [
        "0x7f74388bc970dE5e2822036A1aD06fCCd156786b",
        "4515272337646715331210"
      ],
      "transaction": {
        "from": "0xcad1a7864a108dbff67f4b8af71fab0c7a86d0b6",
        "to": "0x642bb6860b4776cc10b26b8f361fd139e7f0db04",
        "value": "0x0",
        "input": "0xa9059cbb0000000000000000000000007f74388bc970de5e2822036a1ad06fccd156786b0000000000000000000000000000000000000000000000f4c5fdcc26cc1ae28a",
        "nonce": "0x24d",
        "chainId": "0x1"
      },
      "additionalContracts": [],
      "isFixedGasLimit": false
    },
    {
      "hash": "0x03b62b6ddc65575e45a1859034fe279eea8b540eeb50aadd12766675b1201905",
      "transactionType": "CALL",
      "contractName": null,
      "contractAddress": "0xc8514f821a3d801fa8a8c435840a992a4365a13b",
      "function": "setDispatcherHook(address)",
      "arguments": [
        "0x4A26ad83306a2F17155799fDD9449f77eb3F8bD7"
      ],
      "transaction": {
        "from": "0xcad1a7864a108dbff67f4b8af71fab0c7a86d0b6",
        "to": "0xc8514f821a3d801fa8a8c435840a992a4365a13b",
        "value": "0x0",
        "input": "0x53a34c290000000000000000000000004a26ad83306a2f17155799fdd9449f77eb3f8bd7",
        "nonce": "0x24e",
        "chainId": "0x1"
      },
      "additionalContracts": [],
      "isFixedGasLimit": false
    },
    {
      "hash": "0xe7d0a7a12eadb37e894e1396934073b8da7c0d23c63c0cbb800062e29866a0b6",
      "transactionType": "CALL",
      "contractName": null,
      "contractAddress": "0x39af088408e815844c567037c157b31d48d2e10f",
      "function": "replaceDispatcher(uint256,address)",
      "arguments": [
        "4",
        "0x7f74388bc970dE5e2822036A1aD06fCCd156786b"
      ],
      "transaction": {
        "from": "0xcad1a7864a108dbff67f4b8af71fab0c7a86d0b6",
        "to": "0x39af088408e815844c567037c157b31d48d2e10f",
        "value": "0x0",
        "input": "0xba0f348000000000000000000000000000000000000000000000000000000000000000040000000000000000000000007f74388bc970de5e2822036a1ad06fccd156786b",
        "nonce": "0x24f",
        "chainId": "0x1"
      },
      "additionalContracts": [],
      "isFixedGasLimit": false
    },
    {
      "hash": "0xf66621ac270d2807d16f6670a752acdc1ad43a6cb885f3035570a70c4723b4ba",
      "transactionType": "CALL",
      "contractName": null,
      "contractAddress": "0xf3b5b661b92b75c71fa5aba8fd95d7514a9cd605",
      "function": "setMinter(address,bool)",
      "arguments": [
        "0x14277a0BC38a6bb7eb732c3A49190030632F727e",
        "false"
      ],
      "transaction": {
        "from": "0xcad1a7864a108dbff67f4b8af71fab0c7a86d0b6",
        "to": "0xf3b5b661b92b75c71fa5aba8fd95d7514a9cd605",
        "value": "0x0",
        "input": "0xcf456ae700000000000000000000000014277a0bc38a6bb7eb732c3a49190030632f727e0000000000000000000000000000000000000000000000000000000000000000",
        "nonce": "0x250",
        "chainId": "0x1"
      },
      "additionalContracts": [],
      "isFixedGasLimit": false
    },
    {
      "hash": "0x07e1326070243bb6f7467c321379adf950f6b74a859e4bca6b3a2173c8122cd7",
      "transactionType": "CALL",
      "contractName": "BalancerPoolerV2",
      "contractAddress": "0x7f74388bc970de5e2822036a1ad06fccd156786b",
      "function": "pool(uint256)",
      "arguments": [
        "284000000000000000000"
      ],
      "transaction": {
        "from": "0xcad1a7864a108dbff67f4b8af71fab0c7a86d0b6",
        "to": "0x7f74388bc970de5e2822036a1ad06fccd156786b",
        "value": "0x0",
        "input": "0xfe31311200000000000000000000000000000000000000000000000f654aaf4db2f00000",
        "nonce": "0x251",
        "chainId": "0x1"
      },
      "additionalContracts": [],
      "isFixedGasLimit": false
    }
  ],
  "receipts": [
    {
      "status": "0x1",
      "cumulativeGasUsed": "0x19cc790",
      "logs": [
        {
          "address": "0xc8514f821a3d801fa8a8c435840a992a4365a13b",
          "topics": [
            "0x8e8417de3051f50654f67ecdc7b74e565ec332647fdec5a3e86111058f61dedf"
          ],
          "data": "0x000000000000000000000000000000000000000000000261cdcea2dbd74765e80000000000000000000000000000000000000000000001243282db4c748567fd0000000000000000000000000000000000000000000000000000615338638887000000000000000000000000000000000000000000000000000000006d21ad48",
          "blockHash": "0xee10953b1ca9d0edb110415e2af4215ec6c85a15f06701cf8fe9b00c0e8f57d8",
          "blockNumber": "0x1812a35",
          "blockTimestamp": "0x6a2117bf",
          "transactionHash": "0xb9df62bbc116c55e6f8e55c21739ed2a0cab717cd35802a65785939c06f8f91c",
          "transactionIndex": "0xae",
          "logIndex": "0x321",
          "removed": false
        }
      ],
      "logsBloom": "0x00000000000000000000000000000000000000000000000000000000000000000000000000000000000000000000000000000000000000000000000000000000000000000000000000000000000000000000800040000000000000000000000000000000000000000000000000000000000000000000000000000000000000000001000000000100000000000000000000000000000000000000000000008000000000000000000000000000000000000000000000000000000000000000000000000000000000000000000000000000000000000000000000000000000000000000004000000000000000000000000000000000000000000000000000000000",
      "type": "0x2",
      "transactionHash": "0xb9df62bbc116c55e6f8e55c21739ed2a0cab717cd35802a65785939c06f8f91c",
      "transactionIndex": "0xae",
      "blockHash": "0xee10953b1ca9d0edb110415e2af4215ec6c85a15f06701cf8fe9b00c0e8f57d8",
      "blockNumber": "0x1812a35",
      "gasUsed": "0x17703",
      "effectiveGasPrice": "0xa5abfd5",
      "from": "0xcad1a7864a108dbff67f4b8af71fab0c7a86d0b6",
      "to": "0xc8514f821a3d801fa8a8c435840a992a4365a13b",
      "contractAddress": null
    },
    {
      "status": "0x1",
      "cumulativeGasUsed": "0x19dcdb7",
      "logs": [
        {
          "address": "0x7f74388bc970de5e2822036a1ad06fccd156786b",
          "topics": [
            "0x8be0079c531659141344cd1fd0a4f28419497f9722a3daafe3b4186f6b6457e0",
            "0x0000000000000000000000000000000000000000000000000000000000000000",
            "0x000000000000000000000000cad1a7864a108dbff67f4b8af71fab0c7a86d0b6"
          ],
          "data": "0x",
          "blockHash": "0x2ebb92276ff82130ce753220b54bb58fbdacd0c650eb8f3fc0eadd845b371308",
          "blockNumber": "0x1812a37",
          "blockTimestamp": "0x6a2117d7",
          "transactionHash": "0x98c5ab00bf31232d736177e16c13cfcde8cc0ba09e214eadc4d93c3ec4a421a2",
          "transactionIndex": "0xcc",
          "logIndex": "0x2f3",
          "removed": false
        }
      ],
      "logsBloom": "0x00000000000000000020000000000000000000000000000000800000000000000000000000000000000000400000000000000000000000000000000000000000000000000000000000000000000000000001000000000000000000000000000000000000020000000000004000000800000000000000020000000000000000400000000000000000000000000000000000000000000000000000000000000000000000000000000000000000000000000000000000000000000000000000000000000000000000000000000000000000000000000000100000000000000020000000000040000000000000000000000000000000000000000000000000000000",
      "type": "0x2",
      "transactionHash": "0x98c5ab00bf31232d736177e16c13cfcde8cc0ba09e214eadc4d93c3ec4a421a2",
      "transactionIndex": "0xcc",
      "blockHash": "0x2ebb92276ff82130ce753220b54bb58fbdacd0c650eb8f3fc0eadd845b371308",
      "blockNumber": "0x1812a37",
      "gasUsed": "0x2bb37f",
      "effectiveGasPrice": "0x95afae1",
      "from": "0xcad1a7864a108dbff67f4b8af71fab0c7a86d0b6",
      "to": null,
      "contractAddress": "0x7f74388bc970de5e2822036a1ad06fccd156786b"
    },
    {
      "status": "0x1",
      "cumulativeGasUsed": "0x1daec44",
      "logs": [
        {
          "address": "0x4a26ad83306a2f17155799fdd9449f77eb3f8bd7",
          "topics": [
            "0x8be0079c531659141344cd1fd0a4f28419497f9722a3daafe3b4186f6b6457e0",
            "0x0000000000000000000000000000000000000000000000000000000000000000",
            "0x000000000000000000000000cad1a7864a108dbff67f4b8af71fab0c7a86d0b6"
          ],
          "data": "0x",
          "blockHash": "0x462ae75241e269ef1c7580a4d6c824ee08d9955e1f26f5816b09bbf38de3f1f5",
          "blockNumber": "0x1812a39",
          "blockTimestamp": "0x6a2117ef",
          "transactionHash": "0xc997bca1073148539af1246d2fd3e4af668a36763adeba9f5678100b1a9e219e",
          "transactionIndex": "0xee",
          "logIndex": "0x2d5",
          "removed": false
        },
        {
          "address": "0x4a26ad83306a2f17155799fdd9449f77eb3f8bd7",
          "topics": [
            "0xbf864e526596d9fbac2581a707699006fabf5850087539d8eabc9adddf1cf721"
          ],
          "data": "0x00000000000000000000000000000000000000000000000000000000000000000000000000000000000000000000000000000000000000000000000000000032",
          "blockHash": "0x462ae75241e269ef1c7580a4d6c824ee08d9955e1f26f5816b09bbf38de3f1f5",
          "blockNumber": "0x1812a39",
          "blockTimestamp": "0x6a2117ef",
          "transactionHash": "0xc997bca1073148539af1246d2fd3e4af668a36763adeba9f5678100b1a9e219e",
          "transactionIndex": "0xee",
          "logIndex": "0x2d6",
          "removed": false
        }
      ],
      "logsBloom": "0x00000000000000000020000000000000000000000000000000800000000000000000000000000000000000400000000000000000000000000000000000000000000000000000000000000000000000000001000000000000000000000400000000000000020000000000000000000800000000000000000000000000000000400000000000000000000000000000000008280000000000000000000000000000000000000000000000000000000000000000000000000000000000000000000000000000000000000000000000000000000000000000100000000400000020000000000000000000000000000000000000000000000040000000000000000000",
      "type": "0x2",
      "transactionHash": "0xc997bca1073148539af1246d2fd3e4af668a36763adeba9f5678100b1a9e219e",
      "transactionIndex": "0xee",
      "blockHash": "0x462ae75241e269ef1c7580a4d6c824ee08d9955e1f26f5816b09bbf38de3f1f5",
      "blockNumber": "0x1812a39",
      "gasUsed": "0xae2a4",
      "effectiveGasPrice": "0x9c987df",
      "from": "0xcad1a7864a108dbff67f4b8af71fab0c7a86d0b6",
      "to": null,
      "contractAddress": "0x4a26ad83306a2f17155799fdd9449f77eb3f8bd7"
    },
    {
      "status": "0x1",
      "cumulativeGasUsed": "0x2e1ea06",
      "logs": [
        {
          "address": "0x7f74388bc970de5e2822036a1ad06fccd156786b",
          "topics": [
            "0x28f7fb7e7a8b1239a2210fff0089ce39da0362e2dd2eecaa013a8996a37a2279",
            "0x000000000000000000000000b3c9662a2b4ba71283983eaa33ed2dc7b30a9b76",
            "0x0000000000000000000000004a26ad83306a2f17155799fdd9449f77eb3f8bd7"
          ],
          "data": "0x",
          "blockHash": "0xb6312e19f8cbd22176ad382b2c3ec949e943cdb7a2568087b0d93fade6c39b10",
          "blockNumber": "0x1812a3b",
          "blockTimestamp": "0x6a211807",
          "transactionHash": "0x331a92f2ce17c56d4a001bc510ffb62d6ce1338a68e0d3c4e4828f38823fe10b",
          "transactionIndex": "0x16b",
          "logIndex": "0x5d2",
          "removed": false
        }
      ],
      "logsBloom": "0x00000000000000010000000000000000000000000000000000000000000000000000000000000000000000000000000000000000000000000000000000000200000004000000000000000000000000000000000000000000000000000000000000000000000000000000004000000000000000000000020000000000000000000000000000000000000000000000000000000000000000000000000008000400000000000000000004000000000000200020000000000000000000000000000000000000000000000000000000000000000000000000000000000000000000000000000040000000000000000000000000000000040000000000000000000000",
      "type": "0x2",
      "transactionHash": "0x331a92f2ce17c56d4a001bc510ffb62d6ce1338a68e0d3c4e4828f38823fe10b",
      "transactionIndex": "0x16b",
      "blockHash": "0xb6312e19f8cbd22176ad382b2c3ec949e943cdb7a2568087b0d93fade6c39b10",
      "blockNumber": "0x1812a3b",
      "gasUsed": "0x7707",
      "effectiveGasPrice": "0x9bb8cf4",
      "from": "0xcad1a7864a108dbff67f4b8af71fab0c7a86d0b6",
      "to": "0x7f74388bc970de5e2822036a1ad06fccd156786b",
      "contractAddress": null
    },
    {
      "status": "0x1",
      "cumulativeGasUsed": "0x1d37800",
      "logs": [],
      "logsBloom": "0x00000000000000000000000000000000000000000000000000000000000000000000000000000000000000000000000000000000000000000000000000000000000000000000000000000000000000000000000000000000000000000000000000000000000000000000000000000000000000000000000000000000000000000000000000000000000000000000000000000000000000000000000000000000000000000000000000000000000000000000000000000000000000000000000000000000000000000000000000000000000000000000000000000000000000000000000000000000000000000000000000000000000000000000000000000000",
      "type": "0x2",
      "transactionHash": "0x82489116043481733e5f301c01bca4355547bf7ada122e3059b9aceebb42a79d",
      "transactionIndex": "0xd3",
      "blockHash": "0x2e9e897b42c475d4ec9b8c69750ffe747d21b354fec1afeb69f402ea350dc23b",
      "blockNumber": "0x1812a3c",
      "gasUsed": "0xb65b",
      "effectiveGasPrice": "0xa7ecec4",
      "from": "0xcad1a7864a108dbff67f4b8af71fab0c7a86d0b6",
      "to": "0x7f74388bc970de5e2822036a1ad06fccd156786b",
      "contractAddress": null
    },
    {
      "status": "0x1",
      "cumulativeGasUsed": "0x2e5cb5d",
      "logs": [
        {
          "address": "0x4a26ad83306a2f17155799fdd9449f77eb3f8bd7",
          "topics": [
            "0x62e69886a5df0ba8ffcacbfc1388754e7abd9bde24b036354c561f1acd4e4593",
            "0x0000000000000000000000000000000000000000000000000000000000000000",
            "0x000000000000000000000000c8514f821a3d801fa8a8c435840a992a4365a13b"
          ],
          "data": "0x",
          "blockHash": "0x7d5a4db6707d165a4f25b8ffe98244e1c24e17fba11f75ec19cfabb8cd8482b5",
          "blockNumber": "0x1812a3e",
          "blockTimestamp": "0x6a21182b",
          "transactionHash": "0x1aa8d675fa908a63c094ce38eb731482269a319f552fc09474e8853bf9c21d7c",
          "transactionIndex": "0x176",
          "logIndex": "0x551",
          "removed": false
        }
      ],
      "logsBloom": "0x00000000000000000000000000000000000000000000000000000000000000000000000000000000000000000000000000000000000000000000000000000000000000010000000000000000000000000000000000000000000000000400000000000000020000000000000000000820000000000000000000000000000000000000200000000000000800000002000008000000000000800000000000000000000000000000000000000000000000000000000000000000000000000000000000000000000000000000000000000000000000000000000000000400000020000000000000000000000000000000000000000000000000000000000000000000",
      "type": "0x2",
      "transactionHash": "0x1aa8d675fa908a63c094ce38eb731482269a319f552fc09474e8853bf9c21d7c",
      "transactionIndex": "0x176",
      "blockHash": "0x7d5a4db6707d165a4f25b8ffe98244e1c24e17fba11f75ec19cfabb8cd8482b5",
      "blockNumber": "0x1812a3e",
      "gasUsed": "0xb976",
      "effectiveGasPrice": "0xa10fd20",
      "from": "0xcad1a7864a108dbff67f4b8af71fab0c7a86d0b6",
      "to": "0x4a26ad83306a2f17155799fdd9449f77eb3f8bd7",
      "contractAddress": null
    },
    {
      "status": "0x1",
      "cumulativeGasUsed": "0x15dafd4",
      "logs": [
        {
          "address": "0xf3b5b661b92b75c71fa5aba8fd95d7514a9cd605",
          "topics": [
            "0x34e56df787a7a59706503a81c304ed0ef46ddd2dfcdf1c8c8d1db684f3639fdd",
            "0x0000000000000000000000004a26ad83306a2f17155799fdd9449f77eb3f8bd7"
          ],
          "data": "0x00000000000000000000000000000000000000000000000000000000000000010000000000000000000000000000000000000000000000000000000000000000",
          "blockHash": "0x92b5052a07622e05abd7e740107339e5707045cffa55e8061b5943d80879ecd8",
          "blockNumber": "0x1812a3f",
          "blockTimestamp": "0x6a211837",
          "transactionHash": "0xa39c98d9206cb6959ab632aa5445053e65f5cf79b9fc7871c91ea9f980859ac5",
          "transactionIndex": "0xa9",
          "logIndex": "0x238",
          "removed": false
        }
      ],
      "logsBloom": "0x00000000000000000000000008000000000000000000000000000000000000000000000000000000000000000000000000000000000000000000000000000000000004000000000000000000000000000000000000000000000000000000000008000000000000000000000000000000000000000000000004000000100000000000000000000000000000000000000000000000000000000000000000000000000000000000000000000000000000200000000000000000000000000000000000800000000000000000000000000000000000000000000000000000000000000000000000000000000000000000000000000000040000000000400000000000",
      "type": "0x2",
      "transactionHash": "0xa39c98d9206cb6959ab632aa5445053e65f5cf79b9fc7871c91ea9f980859ac5",
      "transactionIndex": "0xa9",
      "blockHash": "0x92b5052a07622e05abd7e740107339e5707045cffa55e8061b5943d80879ecd8",
      "blockNumber": "0x1812a3f",
      "gasUsed": "0xd40a",
      "effectiveGasPrice": "0xadedc6a",
      "from": "0xcad1a7864a108dbff67f4b8af71fab0c7a86d0b6",
      "to": "0xf3b5b661b92b75c71fa5aba8fd95d7514a9cd605",
      "contractAddress": null
    },
    {
      "status": "0x1",
      "cumulativeGasUsed": "0x1803dd1",
      "logs": [
        {
          "address": "0x7f74388bc970de5e2822036a1ad06fccd156786b",
          "topics": [
            "0x074731357d33727f4901077a97ee097d688cb98f4e4565c7e39e804dd986ced4"
          ],
          "data": "0x000000000000000000000000000000000000000000000000000000000000000a",
          "blockHash": "0x962b742558fb2fde26ac72404639d9873eecc75faf2625304f95cbc49d24377e",
          "blockNumber": "0x1812a40",
          "blockTimestamp": "0x6a211843",
          "transactionHash": "0x1ffc20d552d8bf6846ec1b14ca52557a41799143e050a368086f0a9c539ff8e0",
          "transactionIndex": "0xa3",
          "logIndex": "0x23c",
          "removed": false
        }
      ],
      "logsBloom": "0x00000000000000000000000000000000000000000000000000000000000000000000000000000000000000000000000000000000000000000000000000000000000000000000000000000000000080000000000000000000000000000000000000000000000000000000004000000000000000000000020000000000000000000000000000000000000000000000000000000000000000000000010000000000000000000000000000000000000000000000000000000000000000000000000000000000000000000000000000000000000000000000000000000000000000000000000040000010000000000000000000000000000000000000000000000000",
      "type": "0x2",
      "transactionHash": "0x1ffc20d552d8bf6846ec1b14ca52557a41799143e050a368086f0a9c539ff8e0",
      "transactionIndex": "0xa3",
      "blockHash": "0x962b742558fb2fde26ac72404639d9873eecc75faf2625304f95cbc49d24377e",
      "blockNumber": "0x1812a40",
      "gasUsed": "0xb81d",
      "effectiveGasPrice": "0xac6b2d1",
      "from": "0xcad1a7864a108dbff67f4b8af71fab0c7a86d0b6",
      "to": "0x7f74388bc970de5e2822036a1ad06fccd156786b",
      "contractAddress": null
    },
    {
      "status": "0x1",
      "cumulativeGasUsed": "0x3768e8a",
      "logs": [
        {
          "address": "0x7f74388bc970de5e2822036a1ad06fccd156786b",
          "topics": [
            "0xa7978870153ece652cc4657688816871cbe0106d26a50cbd2239fecedb8de1c4"
          ],
          "data": "0x0000000000000000000000006e9886afdf07dd67dc70b8335e4e9df14b445071",
          "blockHash": "0x7aa74258921bda353d28dc01cac20d915d7a91988aac23e550bbbf41bfe01ff8",
          "blockNumber": "0x1812a41",
          "blockTimestamp": "0x6a21184f",
          "transactionHash": "0x815f404bbf498c2be2974fe36127783dcb66a9874bf3f056035eaa4e8efe5a92",
          "transactionIndex": "0x111",
          "logIndex": "0x533",
          "removed": false
        }
      ],
      "logsBloom": "0x08000000000000000000000000000000000000000000000000000000000000000000000000000000000000000000000000000000000000000000000000000000000000000000000000000000000000000000000000000000000000000000800000000000000000000000004000000000000000000000020000000000000000000000000000100000000000000000000000000000000000000000000000000000000000000000000000000000000000000000000000000000000000000000000000000000000000000000000000000000000000000000000000000000000000000000000040000000000000000000000000000000000000000000000000000000",
      "type": "0x2",
      "transactionHash": "0x815f404bbf498c2be2974fe36127783dcb66a9874bf3f056035eaa4e8efe5a92",
      "transactionIndex": "0x111",
      "blockHash": "0x7aa74258921bda353d28dc01cac20d915d7a91988aac23e550bbbf41bfe01ff8",
      "blockNumber": "0x1812a41",
      "gasUsed": "0xb95f",
      "effectiveGasPrice": "0xaa15526",
      "from": "0xcad1a7864a108dbff67f4b8af71fab0c7a86d0b6",
      "to": "0x7f74388bc970de5e2822036a1ad06fccd156786b",
      "contractAddress": null
    },
    {
      "status": "0x1",
      "cumulativeGasUsed": "0x16b3e05",
      "logs": [
        {
          "address": "0x7f74388bc970de5e2822036a1ad06fccd156786b",
          "topics": [
            "0xd8b712c26ba7e9f773859a67dd0830f101b9e336fade6cf058d56c9b22ae1964"
          ],
          "data": "0x000000000000000000000000a188eec8f81263234da3622a406892f3d630f98c",
          "blockHash": "0x409126ca32b9686025e6500a77bfc52c0c1da6da276c08c9f2f16829745be51b",
          "blockNumber": "0x1812a69",
          "blockTimestamp": "0x6a211a3b",
          "transactionHash": "0x3ef85800298fd52c42effcaa8af7e26ad8f624e4330d6c3f5afb55bc4af49a81",
          "transactionIndex": "0xf6",
          "logIndex": "0x2a4",
          "removed": false
        }
      ],
      "logsBloom": "0x00000000000000000000000000000000000000000100000000000000000000000000000000000000000000000000000000040000000000000000000000000000000000000000000000000000000000000000000000000000000000000000000000000000000000000000004000000000000000000000020000000000000000000000000000000000000000000000000000000000000000000200000000000000000000000000000000000000000000000000000000000000000000000000000000000000000000000000000000000000000000000000000000000000000000000000000040000000000000000000000000000000000000000000000000000000",
      "type": "0x2",
      "transactionHash": "0x3ef85800298fd52c42effcaa8af7e26ad8f624e4330d6c3f5afb55bc4af49a81",
      "transactionIndex": "0xf6",
      "blockHash": "0x409126ca32b9686025e6500a77bfc52c0c1da6da276c08c9f2f16829745be51b",
      "blockNumber": "0x1812a69",
      "gasUsed": "0xb8f1",
      "effectiveGasPrice": "0x153445e4",
      "from": "0xcad1a7864a108dbff67f4b8af71fab0c7a86d0b6",
      "to": "0x7f74388bc970de5e2822036a1ad06fccd156786b",
      "contractAddress": null
    },
    {
      "status": "0x1",
      "cumulativeGasUsed": "0x1a388b9",
      "logs": [
        {
          "address": "0x7f74388bc970de5e2822036a1ad06fccd156786b",
          "topics": [
            "0xa69ab2561abe4c5b453de4e4ad5484edaa4c07e9ae9d8bc86d1a638ca0638784"
          ],
          "data": "0x000000000000000000000000000000000000000000000000002386f26fc10000",
          "blockHash": "0xb7fd896b5797857f2d967439e71f4a56104540dbfa3f4f7361083c7f905426c6",
          "blockNumber": "0x1812a6a",
          "blockTimestamp": "0x6a211a47",
          "transactionHash": "0x4a9da2014fe8114e065da62f3cf1f2d04a9388a8efe0ff61f530a7f7f271c1e5",
          "transactionIndex": "0xe1",
          "logIndex": "0x272",
          "removed": false
        }
      ],
      "logsBloom": "0x00000000000000000000000000000000000000000000000000000000000000000000000000000000000000000000000000000000000000000000000000000000000000000000000000000000000000000000000000000000400000000000000000000000000000000000004000000000000000000000020000000000004001000000000000000000000000000000000000000000000000000000000000000000000000000000000000000000000000000000000000000000000000000000000000000000000000000000000000000000000000000000000000000000000000000000000040000000000000000000000000000000000000000000000000000000",
      "type": "0x2",
      "transactionHash": "0x4a9da2014fe8114e065da62f3cf1f2d04a9388a8efe0ff61f530a7f7f271c1e5",
      "transactionIndex": "0xe1",
      "blockHash": "0xb7fd896b5797857f2d967439e71f4a56104540dbfa3f4f7361083c7f905426c6",
      "blockNumber": "0x1812a6a",
      "gasUsed": "0x6aba",
      "effectiveGasPrice": "0x14ac3398",
      "from": "0xcad1a7864a108dbff67f4b8af71fab0c7a86d0b6",
      "to": "0x7f74388bc970de5e2822036a1ad06fccd156786b",
      "contractAddress": null
    },
    {
      "status": "0x1",
      "cumulativeGasUsed": "0x221de67",
      "logs": [
        {
          "address": "0x7f74388bc970de5e2822036a1ad06fccd156786b",
          "topics": [
            "0x8f8a455eb36ca8b47d9bf011994919d05afa0aaa307e59fbbcc9d9fa5d856f6a",
            "0x000000000000000000000000cad1a7864a108dbff67f4b8af71fab0c7a86d0b6"
          ],
          "data": "0x0000000000000000000000000000000000000000000000000000000000000001",
          "blockHash": "0x2915aa6c52cb5af33070fb44f382f44ce88d3363698089a2cde8b7143067419c",
          "blockNumber": "0x1812a6d",
          "blockTimestamp": "0x6a211a77",
          "transactionHash": "0x221df31111295cf74da5bf34769241e1c2fc21e07bbcaec5e536c519df90cce4",
          "transactionIndex": "0x137",
          "logIndex": "0x37b",
          "removed": false
        }
      ],
      "logsBloom": "0x00000000000000000020004000000000000000000000000000000400000000000000000000000000000000400000000000000000000000000000000000000000000000000000000000000000000000000000000000000000000000000000000000000000000000000000004000010000000000000000020000000000000000000000000000000000000000000000000000000000000000000000000000000000000000000000000000000000000000000000000000000000000000000000000000000000000000000000000000000000000000000000100000000000000000000000000040000000000000000000000000000000000000000000000000000000",
      "type": "0x2",
      "transactionHash": "0x221df31111295cf74da5bf34769241e1c2fc21e07bbcaec5e536c519df90cce4",
      "transactionIndex": "0x137",
      "blockHash": "0x2915aa6c52cb5af33070fb44f382f44ce88d3363698089a2cde8b7143067419c",
      "blockNumber": "0x1812a6d",
      "gasUsed": "0xc22f",
      "effectiveGasPrice": "0x13c60a5a",
      "from": "0xcad1a7864a108dbff67f4b8af71fab0c7a86d0b6",
      "to": "0x7f74388bc970de5e2822036a1ad06fccd156786b",
      "contractAddress": null
    },
    {
      "status": "0x1",
      "cumulativeGasUsed": "0x180dca6",
      "logs": [
        {
          "address": "0xba1333333333a1ba1108e8412f11850a5c319ba9",
          "topics": [
            "0xd1398bee19313d6bf672ccb116e51f4a1a947e91c757907f51fbb5b5e56c698f",
            "0x000000000000000000000000642bb6860b4776cc10b26b8f361fd139e7f0db04",
            "0x00000000000000000000000026f89f4b46eb164303985795ee20b15bb1edb38a",
            "0x000000000000000000000000cad1a7864a108dbff67f4b8af71fab0c7a86d0b6"
          ],
          "data": "0x0000000000000000000000000000000000000000000000f4c5fdcc26cc1ae28a",
          "blockHash": "0xa7ffedda86e6328eec02e4c050ce88feae369533070904fcee36fb2e0998d485",
          "blockNumber": "0x1812a6e",
          "blockTimestamp": "0x6a211a83",
          "transactionHash": "0x4651a0788547a12df280619d5eb20e141d48b954818ea7284666dac243292628",
          "transactionIndex": "0xc2",
          "logIndex": "0x2e4",
          "removed": false
        },
        {
          "address": "0x642bb6860b4776cc10b26b8f361fd139e7f0db04",
          "topics": [
            "0xddf252ad1be2c89b69c2b068fc378daa952ba7f163c4a11628f55a4df523b3ef",
            "0x00000000000000000000000026f89f4b46eb164303985795ee20b15bb1edb38a",
            "0x000000000000000000000000cad1a7864a108dbff67f4b8af71fab0c7a86d0b6"
          ],
          "data": "0x0000000000000000000000000000000000000000000000f4c5fdcc26cc1ae28a",
          "blockHash": "0xa7ffedda86e6328eec02e4c050ce88feae369533070904fcee36fb2e0998d485",
          "blockNumber": "0x1812a6e",
          "blockTimestamp": "0x6a211a83",
          "transactionHash": "0x4651a0788547a12df280619d5eb20e141d48b954818ea7284666dac243292628",
          "transactionIndex": "0xc2",
          "logIndex": "0x2e5",
          "removed": false
        }
      ],
      "logsBloom": "0x00000000000000000020000000000000000000000000000000000000002000000000400000000000000000408000000000000000000000000000000000000000000000000000000200000008000000000000000000000000000000000000000000000000000000000000000000000000000001000000000000010010000000000000000000000000000000000000000000000000000000000000010000000000000000800000000000000000800000000000000000000000000000000000008000000002000000000000000000000000000000000000100000000000800000000001000000000000002000000000000000000000000100000000000000000400",
      "type": "0x2",
      "transactionHash": "0x4651a0788547a12df280619d5eb20e141d48b954818ea7284666dac243292628",
      "transactionIndex": "0xc2",
      "blockHash": "0xa7ffedda86e6328eec02e4c050ce88feae369533070904fcee36fb2e0998d485",
      "blockNumber": "0x1812a6e",
      "gasUsed": "0xf17a",
      "effectiveGasPrice": "0x148f4efe",
      "from": "0xcad1a7864a108dbff67f4b8af71fab0c7a86d0b6",
      "to": "0x26f89f4b46eb164303985795ee20b15bb1edb38a",
      "contractAddress": null
    },
    {
      "status": "0x1",
      "cumulativeGasUsed": "0x22a82ad",
      "logs": [
        {
          "address": "0xa3931d71877c0e7a3148cb7eb4463524fec27fbd",
          "topics": [
            "0xddf252ad1be2c89b69c2b068fc378daa952ba7f163c4a11628f55a4df523b3ef",
            "0x00000000000000000000000026f89f4b46eb164303985795ee20b15bb1edb38a",
            "0x000000000000000000000000cad1a7864a108dbff67f4b8af71fab0c7a86d0b6"
          ],
          "data": "0x00000000000000000000000000000000000000000000001fc91e97b580ac2102",
          "blockHash": "0x35d7b6fb4453169021c6b6bb0ad6a10479207326201f5fc1c1e94029a13164a7",
          "blockNumber": "0x1812a6f",
          "blockTimestamp": "0x6a211a8f",
          "transactionHash": "0xf7e3932cf0988b5be72d86f0b50842684daf4c0d8878982f6afdda79b61c5b4c",
          "transactionIndex": "0x101",
          "logIndex": "0x2ff",
          "removed": false
        }
      ],
      "logsBloom": "0x00000000000000000020000000000000000000000000000000000000400000000000400000000000000000400000000000000000000000000000000000000000000000000000000000000008000000000000004000000000000000000000000000000000000000000000000000000000000000000000000000000010000000000000000000000000000000000000000000000000000000000010000000000000000000000000000000000000000000000000000000000000000000000000008000000002000000000000000000000000000000000000100000000000000000000000000000000000000000000000000000000000000000000000000000000400",
      "type": "0x2",
      "transactionHash": "0xf7e3932cf0988b5be72d86f0b50842684daf4c0d8878982f6afdda79b61c5b4c",
      "transactionIndex": "0x101",
      "blockHash": "0x35d7b6fb4453169021c6b6bb0ad6a10479207326201f5fc1c1e94029a13164a7",
      "blockNumber": "0x1812a6f",
      "gasUsed": "0x9ee5",
      "effectiveGasPrice": "0x1430ca93",
      "from": "0xcad1a7864a108dbff67f4b8af71fab0c7a86d0b6",
      "to": "0x26f89f4b46eb164303985795ee20b15bb1edb38a",
      "contractAddress": null
    },
    {
      "status": "0x1",
      "cumulativeGasUsed": "0x1483fc6",
      "logs": [
        {
          "address": "0x35d1b3f3d7966a1dfe207aa4514c12a259a0492b",
          "topics": [
            "0xf24e23eb00000000000000000000000000000000000000000000000000000000",
            "0x000000000000000000000000a950524441892a31ebddf91d3ceefa04bf454466",
            "0x000000000000000000000000a3931d71877c0e7a3148cb7eb4463524fec27fbd",
            "0x000000000000000000000000d9c74a084443a033521da8ee098d800a60000000"
          ],
          "data": "0x000000000000000000000000000000000000000000000000000000000000002000000000000000000000000000000000000000000000000000000000000000e0f24e23eb000000000000000000000000a950524441892a31ebddf91d3ceefa04bf454466000000000000000000000000a3931d71877c0e7a3148cb7eb4463524fec27fbd000000000000000000000000d9c74a084443a033521da8ee098d800a6000000000000000000000000000000000000000000000000000000000000000000000000000000000000000000000000000000000000000000000000000000000000000000000000000000000000000000000000000000000000000000000000000000000000000000000000000000000000000000000000000000000000000",
          "blockHash": "0x659d4f3b67683f76972c3a0f8aa2adffa25b1c6bb61eb4dee51ed3a979d330bd",
          "blockNumber": "0x1812a70",
          "blockTimestamp": "0x6a211a9b",
          "transactionHash": "0xda2546a65b58e5c0c96b944b092d80f68eb8369f4360cdb039fb43ac8eddef3c",
          "transactionIndex": "0xc2",
          "logIndex": "0x212",
          "removed": false
        },
        {
          "address": "0x35d1b3f3d7966a1dfe207aa4514c12a259a0492b",
          "topics": [
            "0xbb35783b00000000000000000000000000000000000000000000000000000000",
            "0x000000000000000000000000a3931d71877c0e7a3148cb7eb4463524fec27fbd",
            "0x0000000000000000000000003c0f895007ca717aa01c8693e59df1e8c3777feb",
            "0x000000000000000000000000d9c74a084443a033521da8ee098d800a60000000"
          ],
          "data": "0x000000000000000000000000000000000000000000000000000000000000002000000000000000000000000000000000000000000000000000000000000000e0bb35783b000000000000000000000000a3931d71877c0e7a3148cb7eb4463524fec27fbd0000000000000000000000003c0f895007ca717aa01c8693e59df1e8c3777feb000000000000000000000000d9c74a084443a033521da8ee098d800a6000000000000000000000000000000000000000000000000000000000000000000000000000000000000000000000000000000000000000000000000000000000000000000000000000000000000000000000000000000000000000000000000000000000000000000000000000000000000000000000000000000000000000",
          "blockHash": "0x659d4f3b67683f76972c3a0f8aa2adffa25b1c6bb61eb4dee51ed3a979d330bd",
          "blockNumber": "0x1812a70",
          "blockTimestamp": "0x6a211a9b",
          "transactionHash": "0xda2546a65b58e5c0c96b944b092d80f68eb8369f4360cdb039fb43ac8eddef3c",
          "transactionIndex": "0xc2",
          "logIndex": "0x213",
          "removed": false
        },
        {
          "address": "0xdc035d45d973e3ec169d2276ddab16f1e407384f",
          "topics": [
            "0xddf252ad1be2c89b69c2b068fc378daa952ba7f163c4a11628f55a4df523b3ef",
            "0x0000000000000000000000000000000000000000000000000000000000000000",
            "0x000000000000000000000000a3931d71877c0e7a3148cb7eb4463524fec27fbd"
          ],
          "data": "0x000000000000000000000000000000000000000000000043663033417018f2bc",
          "blockHash": "0x659d4f3b67683f76972c3a0f8aa2adffa25b1c6bb61eb4dee51ed3a979d330bd",
          "blockNumber": "0x1812a70",
          "blockTimestamp": "0x6a211a9b",
          "transactionHash": "0xda2546a65b58e5c0c96b944b092d80f68eb8369f4360cdb039fb43ac8eddef3c",
          "transactionIndex": "0xc2",
          "logIndex": "0x214",
          "removed": false
        },
        {
          "address": "0x3c0f895007ca717aa01c8693e59df1e8c3777feb",
          "topics": [
            "0xbc2a67d422c268da6fe45f3e7d194e1d98906d221f1cfad62a5c80f2cd209f4c",
            "0x000000000000000000000000a3931d71877c0e7a3148cb7eb4463524fec27fbd",
            "0x000000000000000000000000a3931d71877c0e7a3148cb7eb4463524fec27fbd"
          ],
          "data": "0x000000000000000000000000000000000000000000000043663033417018f2bc",
          "blockHash": "0x659d4f3b67683f76972c3a0f8aa2adffa25b1c6bb61eb4dee51ed3a979d330bd",
          "blockNumber": "0x1812a70",
          "blockTimestamp": "0x6a211a9b",
          "transactionHash": "0xda2546a65b58e5c0c96b944b092d80f68eb8369f4360cdb039fb43ac8eddef3c",
          "transactionIndex": "0xc2",
          "logIndex": "0x215",
          "removed": false
        },
        {
          "address": "0xa3931d71877c0e7a3148cb7eb4463524fec27fbd",
          "topics": [
            "0xad1e8a53178522eb68a9d94d862bf30c841f709d2115f743eb6b34528751c79f"
          ],
          "data": "0x0000000000000000000000000000000000000000038ccc7404ab62025ce654ce000000000000000000000000000000000000000000000043663033417018f2bc",
          "blockHash": "0x659d4f3b67683f76972c3a0f8aa2adffa25b1c6bb61eb4dee51ed3a979d330bd",
          "blockNumber": "0x1812a70",
          "blockTimestamp": "0x6a211a9b",
          "transactionHash": "0xda2546a65b58e5c0c96b944b092d80f68eb8369f4360cdb039fb43ac8eddef3c",
          "transactionIndex": "0xc2",
          "logIndex": "0x216",
          "removed": false
        },
        {
          "address": "0xdc035d45d973e3ec169d2276ddab16f1e407384f",
          "topics": [
            "0xddf252ad1be2c89b69c2b068fc378daa952ba7f163c4a11628f55a4df523b3ef",
            "0x000000000000000000000000a3931d71877c0e7a3148cb7eb4463524fec27fbd",
            "0x000000000000000000000000cad1a7864a108dbff67f4b8af71fab0c7a86d0b6"
          ],
          "data": "0x0000000000000000000000000000000000000000000000037e00436086940280",
          "blockHash": "0x659d4f3b67683f76972c3a0f8aa2adffa25b1c6bb61eb4dee51ed3a979d330bd",
          "blockNumber": "0x1812a70",
          "blockTimestamp": "0x6a211a9b",
          "transactionHash": "0xda2546a65b58e5c0c96b944b092d80f68eb8369f4360cdb039fb43ac8eddef3c",
          "transactionIndex": "0xc2",
          "logIndex": "0x217",
          "removed": false
        },
        {
          "address": "0xa3931d71877c0e7a3148cb7eb4463524fec27fbd",
          "topics": [
            "0xddf252ad1be2c89b69c2b068fc378daa952ba7f163c4a11628f55a4df523b3ef",
            "0x000000000000000000000000cad1a7864a108dbff67f4b8af71fab0c7a86d0b6",
            "0x0000000000000000000000000000000000000000000000000000000000000000"
          ],
          "data": "0x0000000000000000000000000000000000000000000000032db6425ef34469b3",
          "blockHash": "0x659d4f3b67683f76972c3a0f8aa2adffa25b1c6bb61eb4dee51ed3a979d330bd",
          "blockNumber": "0x1812a70",
          "blockTimestamp": "0x6a211a9b",
          "transactionHash": "0xda2546a65b58e5c0c96b944b092d80f68eb8369f4360cdb039fb43ac8eddef3c",
          "transactionIndex": "0xc2",
          "logIndex": "0x218",
          "removed": false
        },
        {
          "address": "0xa3931d71877c0e7a3148cb7eb4463524fec27fbd",
          "topics": [
            "0xfbde797d201c681b91056529119e0b02407c7bb96a4a2c75c01fc9667232c8db",
            "0x000000000000000000000000cad1a7864a108dbff67f4b8af71fab0c7a86d0b6",
            "0x000000000000000000000000cad1a7864a108dbff67f4b8af71fab0c7a86d0b6",
            "0x000000000000000000000000cad1a7864a108dbff67f4b8af71fab0c7a86d0b6"
          ],
          "data": "0x0000000000000000000000000000000000000000000000037e004360869402800000000000000000000000000000000000000000000000032db6425ef34469b3",
          "blockHash": "0x659d4f3b67683f76972c3a0f8aa2adffa25b1c6bb61eb4dee51ed3a979d330bd",
          "blockNumber": "0x1812a70",
          "blockTimestamp": "0x6a211a9b",
          "transactionHash": "0xda2546a65b58e5c0c96b944b092d80f68eb8369f4360cdb039fb43ac8eddef3c",
          "transactionIndex": "0xc2",
          "logIndex": "0x219",
          "removed": false
        }
      ],
      "logsBloom": "0x00000000000000400020000000000000000000000000000000000000400008000000100000000000000000400000010100100000000000000000000001000000000000000002000000000008000000000000004400008000004040000000000040000040020200000000000000000800000000000001000000000012000000000000000200000000000000000000040000000000000000000010000000000000000000010600000000000000000000020000000080010800000000000000000200000002001000000000000002000000000800000000100000200000002020000000000000000000802000000000000000000000000010000000000000000000",
      "type": "0x2",
      "transactionHash": "0xda2546a65b58e5c0c96b944b092d80f68eb8369f4360cdb039fb43ac8eddef3c",
      "transactionIndex": "0xc2",
      "blockHash": "0x659d4f3b67683f76972c3a0f8aa2adffa25b1c6bb61eb4dee51ed3a979d330bd",
      "blockNumber": "0x1812a70",
      "gasUsed": "0x2001f",
      "effectiveGasPrice": "0x14cadc9e",
      "from": "0xcad1a7864a108dbff67f4b8af71fab0c7a86d0b6",
      "to": "0xa3931d71877c0e7a3148cb7eb4463524fec27fbd",
      "contractAddress": null
    },
    {
      "status": "0x1",
      "cumulativeGasUsed": "0x26a8568",
      "logs": [
        {
          "address": "0xdc035d45d973e3ec169d2276ddab16f1e407384f",
          "topics": [
            "0x8c5be1e5ebec7d5bd14f71427d1e84f3dd0314c0f7b2291e5b200ac8c7c3b925",
            "0x000000000000000000000000cad1a7864a108dbff67f4b8af71fab0c7a86d0b6",
            "0x000000000000000000000000a188eec8f81263234da3622a406892f3d630f98c"
          ],
          "data": "0x0000000000000000000000000000000000000000000000000000000000000000",
          "blockHash": "0x0c88b527154f7bcdf30cd5be81ffb719889ff3593140d43dcfc13eeb93e972b3",
          "blockNumber": "0x1812a71",
          "blockTimestamp": "0x6a211aa7",
          "transactionHash": "0xb6044808813a1793eb6eb18c46b6c2b80dddd37489206dd87fb4d97a981d37b4",
          "transactionIndex": "0xe9",
          "logIndex": "0x394",
          "removed": false
        }
      ],
      "logsBloom": "0x00000000000000000020000000000000000000000000000000000000000000000000000000000000000000400000000100000000000000000000000000200000000000000000000000000000000000000000000000000000000000000000000000000000000600000000000000000000000000000000000000000000000000000000000000000000000000000000000000000000000000000000000010000000020000000000000000000000000000000000000100000000000000000000000000000000000000000000000000000000000000000000100000000000000000000010000000000000800000000000000000000000000000000000000000000000",
      "type": "0x2",
      "transactionHash": "0xb6044808813a1793eb6eb18c46b6c2b80dddd37489206dd87fb4d97a981d37b4",
      "transactionIndex": "0xe9",
      "blockHash": "0x0c88b527154f7bcdf30cd5be81ffb719889ff3593140d43dcfc13eeb93e972b3",
      "blockNumber": "0x1812a71",
      "gasUsed": "0x797e",
      "effectiveGasPrice": "0x142443e3",
      "from": "0xcad1a7864a108dbff67f4b8af71fab0c7a86d0b6",
      "to": "0xdc035d45d973e3ec169d2276ddab16f1e407384f",
      "contractAddress": null
    },
    {
      "status": "0x1",
      "cumulativeGasUsed": "0x116e4aa",
      "logs": [
        {
          "address": "0xdc035d45d973e3ec169d2276ddab16f1e407384f",
          "topics": [
            "0x8c5be1e5ebec7d5bd14f71427d1e84f3dd0314c0f7b2291e5b200ac8c7c3b925",
            "0x000000000000000000000000cad1a7864a108dbff67f4b8af71fab0c7a86d0b6",
            "0x000000000000000000000000a188eec8f81263234da3622a406892f3d630f98c"
          ],
          "data": "0x0000000000000000000000000000000000000000000000037e000d942edb0000",
          "blockHash": "0x81f526818b6f82961f1d13933e2d973148797978da1b67c4be3d24c768d1b7e5",
          "blockNumber": "0x1812a72",
          "blockTimestamp": "0x6a211ab3",
          "transactionHash": "0x674ddb4af83a82cccbd92485b92d69df08369233e6c2cdeaeafe7fb420a93da1",
          "transactionIndex": "0xa6",
          "logIndex": "0x1be",
          "removed": false
        }
      ],
      "logsBloom": "0x00000000000000000020000000000000000000000000000000000000000000000000000000000000000000400000000100000000000000000000000000200000000000000000000000000000000000000000000000000000000000000000000000000000000600000000000000000000000000000000000000000000000000000000000000000000000000000000000000000000000000000000000010000000020000000000000000000000000000000000000100000000000000000000000000000000000000000000000000000000000000000000100000000000000000000010000000000000800000000000000000000000000000000000000000000000",
      "type": "0x2",
      "transactionHash": "0x674ddb4af83a82cccbd92485b92d69df08369233e6c2cdeaeafe7fb420a93da1",
      "transactionIndex": "0xa6",
      "blockHash": "0x81f526818b6f82961f1d13933e2d973148797978da1b67c4be3d24c768d1b7e5",
      "blockNumber": "0x1812a72",
      "gasUsed": "0xc782",
      "effectiveGasPrice": "0x1506bfbe",
      "from": "0xcad1a7864a108dbff67f4b8af71fab0c7a86d0b6",
      "to": "0xdc035d45d973e3ec169d2276ddab16f1e407384f",
      "contractAddress": null
    },
    {
      "status": "0x1",
      "cumulativeGasUsed": "0x1b35cd4",
      "logs": [
        {
          "address": "0xdc035d45d973e3ec169d2276ddab16f1e407384f",
          "topics": [
            "0xddf252ad1be2c89b69c2b068fc378daa952ba7f163c4a11628f55a4df523b3ef",
            "0x000000000000000000000000cad1a7864a108dbff67f4b8af71fab0c7a86d0b6",
            "0x000000000000000000000000a188eec8f81263234da3622a406892f3d630f98c"
          ],
          "data": "0x0000000000000000000000000000000000000000000000037e000d942edb0000",
          "blockHash": "0x7c78f7404f9e29dbbdaf97807bc3fabfa8d9f591ca497012eb2bdae0d834a507",
          "blockNumber": "0x1812a74",
          "blockTimestamp": "0x6a211acb",
          "transactionHash": "0x90b0594fec23dcebbda95dca47ae4452bc42e8f49c5857b95c847eacff9ee19a",
          "transactionIndex": "0xd4",
          "logIndex": "0x295",
          "removed": false
        },
        {
          "address": "0x35d1b3f3d7966a1dfe207aa4514c12a259a0492b",
          "topics": [
            "0xbb35783b00000000000000000000000000000000000000000000000000000000",
            "0x0000000000000000000000003c0f895007ca717aa01c8693e59df1e8c3777feb",
            "0x000000000000000000000000a188eec8f81263234da3622a406892f3d630f98c",
            "0x0000000000000000000000000b48aba3964154ee1fd16966c5ca780000000000"
          ],
          "data": "0x000000000000000000000000000000000000000000000000000000000000002000000000000000000000000000000000000000000000000000000000000000e0bb35783b0000000000000000000000003c0f895007ca717aa01c8693e59df1e8c3777feb000000000000000000000000a188eec8f81263234da3622a406892f3d630f98c0000000000000000000000000b48aba3964154ee1fd16966c5ca78000000000000000000000000000000000000000000000000000000000000000000000000000000000000000000000000000000000000000000000000000000000000000000000000000000000000000000000000000000000000000000000000000000000000000000000000000000000000000000000000000000000000000000",
          "blockHash": "0x7c78f7404f9e29dbbdaf97807bc3fabfa8d9f591ca497012eb2bdae0d834a507",
          "blockNumber": "0x1812a74",
          "blockTimestamp": "0x6a211acb",
          "transactionHash": "0x90b0594fec23dcebbda95dca47ae4452bc42e8f49c5857b95c847eacff9ee19a",
          "transactionIndex": "0xd4",
          "logIndex": "0x296",
          "removed": false
        },
        {
          "address": "0xdc035d45d973e3ec169d2276ddab16f1e407384f",
          "topics": [
            "0xddf252ad1be2c89b69c2b068fc378daa952ba7f163c4a11628f55a4df523b3ef",
            "0x000000000000000000000000a188eec8f81263234da3622a406892f3d630f98c",
            "0x0000000000000000000000000000000000000000000000000000000000000000"
          ],
          "data": "0x0000000000000000000000000000000000000000000000037e000d942edb0000",
          "blockHash": "0x7c78f7404f9e29dbbdaf97807bc3fabfa8d9f591ca497012eb2bdae0d834a507",
          "blockNumber": "0x1812a74",
          "blockTimestamp": "0x6a211acb",
          "transactionHash": "0x90b0594fec23dcebbda95dca47ae4452bc42e8f49c5857b95c847eacff9ee19a",
          "transactionIndex": "0xd4",
          "logIndex": "0x297",
          "removed": false
        },
        {
          "address": "0x3c0f895007ca717aa01c8693e59df1e8c3777feb",
          "topics": [
            "0x0e64978d073561c3dfd4d4e3e4dce066cde2ab246a44f990fabb0a21a4a3bd95",
            "0x000000000000000000000000a188eec8f81263234da3622a406892f3d630f98c",
            "0x000000000000000000000000a188eec8f81263234da3622a406892f3d630f98c"
          ],
          "data": "0x0000000000000000000000000000000000000000000000037e000d942edb0000",
          "blockHash": "0x7c78f7404f9e29dbbdaf97807bc3fabfa8d9f591ca497012eb2bdae0d834a507",
          "blockNumber": "0x1812a74",
          "blockTimestamp": "0x6a211acb",
          "transactionHash": "0x90b0594fec23dcebbda95dca47ae4452bc42e8f49c5857b95c847eacff9ee19a",
          "transactionIndex": "0xd4",
          "logIndex": "0x298",
          "removed": false
        },
        {
          "address": "0x35d1b3f3d7966a1dfe207aa4514c12a259a0492b",
          "topics": [
            "0xbb35783b00000000000000000000000000000000000000000000000000000000",
            "0x000000000000000000000000a188eec8f81263234da3622a406892f3d630f98c",
            "0x0000000000000000000000009759a6ac90977b93b58547b4a71c78317f391a28",
            "0x0000000000000000000000000b48aba3964154ee1fd16966c5ca780000000000"
          ],
          "data": "0x000000000000000000000000000000000000000000000000000000000000002000000000000000000000000000000000000000000000000000000000000000e0bb35783b000000000000000000000000a188eec8f81263234da3622a406892f3d630f98c0000000000000000000000009759a6ac90977b93b58547b4a71c78317f391a280000000000000000000000000b48aba3964154ee1fd16966c5ca78000000000000000000000000000000000000000000000000000000000000000000000000000000000000000000000000000000000000000000000000000000000000000000000000000000000000000000000000000000000000000000000000000000000000000000000000000000000000000000000000000000000000000000",
          "blockHash": "0x7c78f7404f9e29dbbdaf97807bc3fabfa8d9f591ca497012eb2bdae0d834a507",
          "blockNumber": "0x1812a74",
          "blockTimestamp": "0x6a211acb",
          "transactionHash": "0x90b0594fec23dcebbda95dca47ae4452bc42e8f49c5857b95c847eacff9ee19a",
          "transactionIndex": "0xd4",
          "logIndex": "0x299",
          "removed": false
        },
        {
          "address": "0x6b175474e89094c44da98b954eedeac495271d0f",
          "topics": [
            "0xddf252ad1be2c89b69c2b068fc378daa952ba7f163c4a11628f55a4df523b3ef",
            "0x0000000000000000000000000000000000000000000000000000000000000000",
            "0x000000000000000000000000a188eec8f81263234da3622a406892f3d630f98c"
          ],
          "data": "0x0000000000000000000000000000000000000000000000037e000d942edb0000",
          "blockHash": "0x7c78f7404f9e29dbbdaf97807bc3fabfa8d9f591ca497012eb2bdae0d834a507",
          "blockNumber": "0x1812a74",
          "blockTimestamp": "0x6a211acb",
          "transactionHash": "0x90b0594fec23dcebbda95dca47ae4452bc42e8f49c5857b95c847eacff9ee19a",
          "transactionIndex": "0xd4",
          "logIndex": "0x29a",
          "removed": false
        },
        {
          "address": "0x9759a6ac90977b93b58547b4a71c78317f391a28",
          "topics": [
            "0xef693bed00000000000000000000000000000000000000000000000000000000",
            "0x000000000000000000000000a188eec8f81263234da3622a406892f3d630f98c",
            "0x000000000000000000000000a188eec8f81263234da3622a406892f3d630f98c",
            "0x0000000000000000000000000000000000000000000000037e000d942edb0000"
          ],
          "data": "0x000000000000000000000000000000000000000000000000000000000000002000000000000000000000000000000000000000000000000000000000000000e0ef693bed000000000000000000000000a188eec8f81263234da3622a406892f3d630f98c0000000000000000000000000000000000000000000000037e000d942edb0000000000000000000000000000000000000000000000000000000000000000000000000000000000000000000000000000000000000000000000000000000000000000000000000000000000000000000000000000000000000000000000000000000000000000000000000000000000000000000000000000000000000000000000000000000000000000000000000000000000000000000000000000",
          "blockHash": "0x7c78f7404f9e29dbbdaf97807bc3fabfa8d9f591ca497012eb2bdae0d834a507",
          "blockNumber": "0x1812a74",
          "blockTimestamp": "0x6a211acb",
          "transactionHash": "0x90b0594fec23dcebbda95dca47ae4452bc42e8f49c5857b95c847eacff9ee19a",
          "transactionIndex": "0xd4",
          "logIndex": "0x29b",
          "removed": false
        },
        {
          "address": "0x6b175474e89094c44da98b954eedeac495271d0f",
          "topics": [
            "0xddf252ad1be2c89b69c2b068fc378daa952ba7f163c4a11628f55a4df523b3ef",
            "0x000000000000000000000000a188eec8f81263234da3622a406892f3d630f98c",
            "0x000000000000000000000000f6e72db5454dd049d0788e411b06cfaf16853042"
          ],
          "data": "0x0000000000000000000000000000000000000000000000037e000d942edb0000",
          "blockHash": "0x7c78f7404f9e29dbbdaf97807bc3fabfa8d9f591ca497012eb2bdae0d834a507",
          "blockNumber": "0x1812a74",
          "blockTimestamp": "0x6a211acb",
          "transactionHash": "0x90b0594fec23dcebbda95dca47ae4452bc42e8f49c5857b95c847eacff9ee19a",
          "transactionIndex": "0xd4",
          "logIndex": "0x29c",
          "removed": false
        },
        {
          "address": "0xa0b86991c6218b36c1d19d4a2e9eb0ce3606eb48",
          "topics": [
            "0xddf252ad1be2c89b69c2b068fc378daa952ba7f163c4a11628f55a4df523b3ef",
            "0x00000000000000000000000037305b1cd40574e4c5ce33f8e8306be057fd7341",
            "0x0000000000000000000000006e9886afdf07dd67dc70b8335e4e9df14b445071"
          ],
          "data": "0x0000000000000000000000000000000000000000000000000000000003d6f6b0",
          "blockHash": "0x7c78f7404f9e29dbbdaf97807bc3fabfa8d9f591ca497012eb2bdae0d834a507",
          "blockNumber": "0x1812a74",
          "blockTimestamp": "0x6a211acb",
          "transactionHash": "0x90b0594fec23dcebbda95dca47ae4452bc42e8f49c5857b95c847eacff9ee19a",
          "transactionIndex": "0xd4",
          "logIndex": "0x29d",
          "removed": false
        },
        {
          "address": "0xf6e72db5454dd049d0788e411b06cfaf16853042",
          "topics": [
            "0x085d06ecf4c34b237767a31c0888e121d89546a77f186f1987c6b8715e1a8caa",
            "0x0000000000000000000000006e9886afdf07dd67dc70b8335e4e9df14b445071"
          ],
          "data": "0x0000000000000000000000000000000000000000000000000000000003d6f6b00000000000000000000000000000000000000000000000000000000000000000",
          "blockHash": "0x7c78f7404f9e29dbbdaf97807bc3fabfa8d9f591ca497012eb2bdae0d834a507",
          "blockNumber": "0x1812a74",
          "blockTimestamp": "0x6a211acb",
          "transactionHash": "0x90b0594fec23dcebbda95dca47ae4452bc42e8f49c5857b95c847eacff9ee19a",
          "transactionIndex": "0xd4",
          "logIndex": "0x29e",
          "removed": false
        }
      ],
      "logsBloom": "0x00000000000000000030000000000000000000000008002000000000000008000000000440000000000001400000010100100000010400000000008000000000000000001000000008000008000080010000000802000240004050200000000010000004020600000000020000000800000000000000000000000012000000000000000000000000000000000000000000000000010000000000000010000000000000000200200400000000000000000000000180010000000000000000000000000002000000600000040002000020000802080200100000000000002020400000000000000000802000000000000000000000800000000010010000000000",
      "type": "0x2",
      "transactionHash": "0x90b0594fec23dcebbda95dca47ae4452bc42e8f49c5857b95c847eacff9ee19a",
      "transactionIndex": "0xd4",
      "blockHash": "0x7c78f7404f9e29dbbdaf97807bc3fabfa8d9f591ca497012eb2bdae0d834a507",
      "blockNumber": "0x1812a74",
      "gasUsed": "0x2dbf1",
      "effectiveGasPrice": "0x13d2e3a6",
      "from": "0xcad1a7864a108dbff67f4b8af71fab0c7a86d0b6",
      "to": "0xa188eec8f81263234da3622a406892f3d630f98c",
      "contractAddress": null
    },
    {
      "status": "0x1",
      "cumulativeGasUsed": "0x1583df6",
      "logs": [
        {
          "address": "0xdc035d45d973e3ec169d2276ddab16f1e407384f",
          "topics": [
            "0x8c5be1e5ebec7d5bd14f71427d1e84f3dd0314c0f7b2291e5b200ac8c7c3b925",
            "0x000000000000000000000000cad1a7864a108dbff67f4b8af71fab0c7a86d0b6",
            "0x000000000000000000000000a188eec8f81263234da3622a406892f3d630f98c"
          ],
          "data": "0x0000000000000000000000000000000000000000000000000000000000000000",
          "blockHash": "0x6be6e51e753e921a942fe3cb2447b6bc74c1aedd1b290dfcc5f20eb7e67c85db",
          "blockNumber": "0x1812a75",
          "blockTimestamp": "0x6a211ad7",
          "transactionHash": "0x5b3448d2d83d72c860a46cfde281308cecfd3d7780e1ac0fed398beb57851b94",
          "transactionIndex": "0xd0",
          "logIndex": "0x242",
          "removed": false
        }
      ],
      "logsBloom": "0x00000000000000000020000000000000000000000000000000000000000000000000000000000000000000400000000100000000000000000000000000200000000000000000000000000000000000000000000000000000000000000000000000000000000600000000000000000000000000000000000000000000000000000000000000000000000000000000000000000000000000000000000010000000020000000000000000000000000000000000000100000000000000000000000000000000000000000000000000000000000000000000100000000000000000000010000000000000800000000000000000000000000000000000000000000000",
      "type": "0x2",
      "transactionHash": "0x5b3448d2d83d72c860a46cfde281308cecfd3d7780e1ac0fed398beb57851b94",
      "transactionIndex": "0xd0",
      "blockHash": "0x6be6e51e753e921a942fe3cb2447b6bc74c1aedd1b290dfcc5f20eb7e67c85db",
      "blockNumber": "0x1812a75",
      "gasUsed": "0x797e",
      "effectiveGasPrice": "0x13ca9783",
      "from": "0xcad1a7864a108dbff67f4b8af71fab0c7a86d0b6",
      "to": "0xdc035d45d973e3ec169d2276ddab16f1e407384f",
      "contractAddress": null
    },
    {
      "status": "0x1",
      "cumulativeGasUsed": "0x2f02581",
      "logs": [
        {
          "address": "0xa3931d71877c0e7a3148cb7eb4463524fec27fbd",
          "topics": [
            "0xddf252ad1be2c89b69c2b068fc378daa952ba7f163c4a11628f55a4df523b3ef",
            "0x000000000000000000000000cad1a7864a108dbff67f4b8af71fab0c7a86d0b6",
            "0x0000000000000000000000007f74388bc970de5e2822036a1ad06fccd156786b"
          ],
          "data": "0x00000000000000000000000000000000000000000000001c9cb649d70e4ab74f",
          "blockHash": "0x8b4a5751633b87e1e3f39d16e471b10f230d4f798647d3e3d5636335cb7864f5",
          "blockNumber": "0x1812a77",
          "blockTimestamp": "0x6a211aef",
          "transactionHash": "0xaa2219fee62db698d213c3b823c791ce068435175c67fe740d6201f23ab1b76e",
          "transactionIndex": "0xf5",
          "logIndex": "0x4a5",
          "removed": false
        }
      ],
      "logsBloom": "0x00000000000000000020000000000000000000000004000040000000400000000000000000000000000000400000000000000000000000000000000000000000000000000000000000000008000000000000004000000000000000000000000000000000000000000000000000000000000000000000000000000010000000000000000000000000000000000000000000000002000000000010000000000000000000000000000000000000000000000000000000000000000000000000000000000002000000000000000000000000000000000000100000000000000000000000000000000000000000000000000000000000000000000000000000000000",
      "type": "0x2",
      "transactionHash": "0xaa2219fee62db698d213c3b823c791ce068435175c67fe740d6201f23ab1b76e",
      "transactionIndex": "0xf5",
      "blockHash": "0x8b4a5751633b87e1e3f39d16e471b10f230d4f798647d3e3d5636335cb7864f5",
      "blockNumber": "0x1812a77",
      "gasUsed": "0xc988",
      "effectiveGasPrice": "0x128955c9",
      "from": "0xcad1a7864a108dbff67f4b8af71fab0c7a86d0b6",
      "to": "0xa3931d71877c0e7a3148cb7eb4463524fec27fbd",
      "contractAddress": null
    },
    {
      "status": "0x1",
      "cumulativeGasUsed": "0x1bcdced",
      "logs": [
        {
          "address": "0xba1333333333a1ba1108e8412f11850a5c319ba9",
          "topics": [
            "0xd1398bee19313d6bf672ccb116e51f4a1a947e91c757907f51fbb5b5e56c698f",
            "0x000000000000000000000000642bb6860b4776cc10b26b8f361fd139e7f0db04",
            "0x000000000000000000000000cad1a7864a108dbff67f4b8af71fab0c7a86d0b6",
            "0x0000000000000000000000007f74388bc970de5e2822036a1ad06fccd156786b"
          ],
          "data": "0x0000000000000000000000000000000000000000000000f4c5fdcc26cc1ae28a",
          "blockHash": "0x20f62f6970e28fc2361f2811ebf190a3c82c6c5949056a98eb53b75304a7a1a5",
          "blockNumber": "0x1812a79",
          "blockTimestamp": "0x6a211b07",
          "transactionHash": "0x4c94fbf38d410f3157d4ed98f8d23b651d28c89b6ff4f7144055cb1e14e8d805",
          "transactionIndex": "0x10f",
          "logIndex": "0x2de",
          "removed": false
        },
        {
          "address": "0x642bb6860b4776cc10b26b8f361fd139e7f0db04",
          "topics": [
            "0xddf252ad1be2c89b69c2b068fc378daa952ba7f163c4a11628f55a4df523b3ef",
            "0x000000000000000000000000cad1a7864a108dbff67f4b8af71fab0c7a86d0b6",
            "0x0000000000000000000000007f74388bc970de5e2822036a1ad06fccd156786b"
          ],
          "data": "0x0000000000000000000000000000000000000000000000f4c5fdcc26cc1ae28a",
          "blockHash": "0x20f62f6970e28fc2361f2811ebf190a3c82c6c5949056a98eb53b75304a7a1a5",
          "blockNumber": "0x1812a79",
          "blockTimestamp": "0x6a211b07",
          "transactionHash": "0x4c94fbf38d410f3157d4ed98f8d23b651d28c89b6ff4f7144055cb1e14e8d805",
          "transactionIndex": "0x10f",
          "logIndex": "0x2df",
          "removed": false
        }
      ],
      "logsBloom": "0x00000000000000000020000000000000000000000004000040000000002000000000000000000000000000408000000000000000000000000000000000000000000000000000000200000008000000000000000000000000000000000000000000000000000000000000000000000000000001000000000000010010000000000000000000000000000000000000000000000002000000000000010000000000000000800000000000000000800000000000000000000000000000000000000000000002000000000000000000000000000000000000100000000000800000000001000000000000002000000000000000000000000100000000000000000000",
      "type": "0x2",
      "transactionHash": "0x4c94fbf38d410f3157d4ed98f8d23b651d28c89b6ff4f7144055cb1e14e8d805",
      "transactionIndex": "0x10f",
      "blockHash": "0x20f62f6970e28fc2361f2811ebf190a3c82c6c5949056a98eb53b75304a7a1a5",
      "blockNumber": "0x1812a79",
      "gasUsed": "0xd2d2",
      "effectiveGasPrice": "0x12fb6c48",
      "from": "0xcad1a7864a108dbff67f4b8af71fab0c7a86d0b6",
      "to": "0x642bb6860b4776cc10b26b8f361fd139e7f0db04",
      "contractAddress": null
    },
    {
      "status": "0x1",
      "cumulativeGasUsed": "0x1b4209c",
      "logs": [
        {
          "address": "0xc8514f821a3d801fa8a8c435840a992a4365a13b",
          "topics": [
            "0xe9bc537f99a44d505fbaff3b791a8e05a7bee74082a2895be8d28e3db70edfb9",
            "0x00000000000000000000000014277a0bc38a6bb7eb732c3a49190030632f727e",
            "0x0000000000000000000000004a26ad83306a2f17155799fdd9449f77eb3f8bd7"
          ],
          "data": "0x",
          "blockHash": "0x887dcaab3d433531675d8d2140a6e4ec0ad9f82cd6e530603f91d564640149ed",
          "blockNumber": "0x1812a7a",
          "blockTimestamp": "0x6a211b13",
          "transactionHash": "0x03b62b6ddc65575e45a1859034fe279eea8b540eeb50aadd12766675b1201905",
          "transactionIndex": "0xf2",
          "logIndex": "0x3cf",
          "removed": false
        }
      ],
      "logsBloom": "0x00002000000000000000000000000000000000000000000000000000000000000000000000004000000000000000000000000000000000000000000000000020000004000000000000000000000000000000000040000000000000000000000000000000000000000000000000000000000000000000000000000000000000000000000000000100000000000000000000000000000000000000000000008000000000000000000000000000000800200000000000000000000000000000000000000000000000000000000000000000000000000000000000000000000000000000000040000000000000000000000000000000040000000000000000000002",
      "type": "0x2",
      "transactionHash": "0x03b62b6ddc65575e45a1859034fe279eea8b540eeb50aadd12766675b1201905",
      "transactionIndex": "0xf2",
      "blockHash": "0x887dcaab3d433531675d8d2140a6e4ec0ad9f82cd6e530603f91d564640149ed",
      "blockNumber": "0x1812a7a",
      "gasUsed": "0x771d",
      "effectiveGasPrice": "0x1305b903",
      "from": "0xcad1a7864a108dbff67f4b8af71fab0c7a86d0b6",
      "to": "0xc8514f821a3d801fa8a8c435840a992a4365a13b",
      "contractAddress": null
    },
    {
      "status": "0x1",
      "cumulativeGasUsed": "0x130795d",
      "logs": [
        {
          "address": "0x39af088408e815844c567037c157b31d48d2e10f",
          "topics": [
            "0xe78eaa82455c81f88bc948d7f9f98a1012f17152d4958610092bbb4ea6ddf2ad",
            "0x0000000000000000000000000000000000000000000000000000000000000004",
            "0x00000000000000000000000026f89f4b46eb164303985795ee20b15bb1edb38a",
            "0x0000000000000000000000007f74388bc970de5e2822036a1ad06fccd156786b"
          ],
          "data": "0x",
          "blockHash": "0x0b686fa0e651022f32b7c0f9e92fa6cde3907b918847bd6796f4a101714753d0",
          "blockNumber": "0x1812a7b",
          "blockTimestamp": "0x6a211b1f",
          "transactionHash": "0xe7d0a7a12eadb37e894e1396934073b8da7c0d23c63c0cbb800062e29866a0b6",
          "transactionIndex": "0xba",
          "logIndex": "0x2a4",
          "removed": false
        }
      ],
      "logsBloom": "0x00000000000000000000000000000000000000000004000040000000000000000000400000000000000000000000000000000000000000000000000000000000000000000000000000000000000000000000000000800000000000000000000008000000000000000001000000000800000000000000000000000000000000000000000000000000000000000000000000000002000000000000000000000000000000000000000000000000000000080008000000000000002000000000008000000000000000000000000000000000000000008000000000000000000000000000000000000000000000000000080000000000000000000000000000000400",
      "type": "0x2",
      "transactionHash": "0xe7d0a7a12eadb37e894e1396934073b8da7c0d23c63c0cbb800062e29866a0b6",
      "transactionIndex": "0xba",
      "blockHash": "0x0b686fa0e651022f32b7c0f9e92fa6cde3907b918847bd6796f4a101714753d0",
      "blockNumber": "0x1812a7b",
      "gasUsed": "0xe9ca",
      "effectiveGasPrice": "0x133b842d",
      "from": "0xcad1a7864a108dbff67f4b8af71fab0c7a86d0b6",
      "to": "0x39af088408e815844c567037c157b31d48d2e10f",
      "contractAddress": null
    },
    {
      "status": "0x1",
      "cumulativeGasUsed": "0x28a097b",
      "logs": [
        {
          "address": "0xf3b5b661b92b75c71fa5aba8fd95d7514a9cd605",
          "topics": [
            "0x34e56df787a7a59706503a81c304ed0ef46ddd2dfcdf1c8c8d1db684f3639fdd",
            "0x00000000000000000000000014277a0bc38a6bb7eb732c3a49190030632f727e"
          ],
          "data": "0x00000000000000000000000000000000000000000000000000000000000000000000000000000000000000000000000000000000000000000000000000000000",
          "blockHash": "0x41f6aa7d32696a531e869424355917ff01ec5cd9876d901c75578cb996d5319f",
          "blockNumber": "0x1812a7d",
          "blockTimestamp": "0x6a211b37",
          "transactionHash": "0xf66621ac270d2807d16f6670a752acdc1ad43a6cb885f3035570a70c4723b4ba",
          "transactionIndex": "0xe9",
          "logIndex": "0x4ad",
          "removed": false
        }
      ],
      "logsBloom": "0x00000000000000000000000008000000000000000000000000000000000000000000000000000000000000000000000000000000000000000000000000000020000000000000000000000000000000000000000000000000000000000000000008000000000000000000000000000000000000000000000004000000100000000000000000000000000000000000000000000000000000000000000000000000000000000000000000000000000000000000000000000000000000000000000000800000000000000000000000000000000000000000000000000000000000000000000040000000000000000000000000000000000000000000400000000002",
      "type": "0x2",
      "transactionHash": "0xf66621ac270d2807d16f6670a752acdc1ad43a6cb885f3035570a70c4723b4ba",
      "transactionIndex": "0xe9",
      "blockHash": "0x41f6aa7d32696a531e869424355917ff01ec5cd9876d901c75578cb996d5319f",
      "blockNumber": "0x1812a7d",
      "gasUsed": "0x7e66",
      "effectiveGasPrice": "0x10f0238c",
      "from": "0xcad1a7864a108dbff67f4b8af71fab0c7a86d0b6",
      "to": "0xf3b5b661b92b75c71fa5aba8fd95d7514a9cd605",
      "contractAddress": null
    },
    {
      "status": "0x1",
      "cumulativeGasUsed": "0x1b70b82",
      "logs": [
        {
          "address": "0xa3931d71877c0e7a3148cb7eb4463524fec27fbd",
          "topics": [
            "0xddf252ad1be2c89b69c2b068fc378daa952ba7f163c4a11628f55a4df523b3ef",
            "0x0000000000000000000000007f74388bc970de5e2822036a1ad06fccd156786b",
            "0x000000000000000000000000ba1333333333a1ba1108e8412f11850a5c319ba9"
          ],
          "data": "0x00000000000000000000000000000000000000000000001c9cb649d70e4ab74f",
          "blockHash": "0x9138c89eef15ff3e96b8377117c4be9aa04348b52c8e99aa721e380614a34f3e",
          "blockNumber": "0x1812a7f",
          "blockTimestamp": "0x6a211b4f",
          "transactionHash": "0x07e1326070243bb6f7467c321379adf950f6b74a859e4bca6b3a2173c8122cd7",
          "transactionIndex": "0xde",
          "logIndex": "0x2ba",
          "removed": false
        },
        {
          "address": "0xba1333333333a1ba1108e8412f11850a5c319ba9",
          "topics": [
            "0xd1398bee19313d6bf672ccb116e51f4a1a947e91c757907f51fbb5b5e56c698f",
            "0x000000000000000000000000642bb6860b4776cc10b26b8f361fd139e7f0db04",
            "0x0000000000000000000000000000000000000000000000000000000000000000",
            "0x0000000000000000000000007f74388bc970de5e2822036a1ad06fccd156786b"
          ],
          "data": "0x00000000000000000000000000000000000000000000000f9b6faf3ec0c4f133",
          "blockHash": "0x9138c89eef15ff3e96b8377117c4be9aa04348b52c8e99aa721e380614a34f3e",
          "blockNumber": "0x1812a7f",
          "blockTimestamp": "0x6a211b4f",
          "transactionHash": "0x07e1326070243bb6f7467c321379adf950f6b74a859e4bca6b3a2173c8122cd7",
          "transactionIndex": "0xde",
          "logIndex": "0x2bb",
          "removed": false
        },
        {
          "address": "0x642bb6860b4776cc10b26b8f361fd139e7f0db04",
          "topics": [
            "0xddf252ad1be2c89b69c2b068fc378daa952ba7f163c4a11628f55a4df523b3ef",
            "0x0000000000000000000000000000000000000000000000000000000000000000",
            "0x0000000000000000000000007f74388bc970de5e2822036a1ad06fccd156786b"
          ],
          "data": "0x00000000000000000000000000000000000000000000000f9b6faf3ec0c4f133",
          "blockHash": "0x9138c89eef15ff3e96b8377117c4be9aa04348b52c8e99aa721e380614a34f3e",
          "blockNumber": "0x1812a7f",
          "blockTimestamp": "0x6a211b4f",
          "transactionHash": "0x07e1326070243bb6f7467c321379adf950f6b74a859e4bca6b3a2173c8122cd7",
          "transactionIndex": "0xde",
          "logIndex": "0x2bc",
          "removed": false
        },
        {
          "address": "0xba1333333333a1ba1108e8412f11850a5c319ba9",
          "topics": [
            "0xa26a52d8d53702bba7f137907b8e1f99ff87f6d450144270ca25e72481cca871",
            "0x000000000000000000000000642bb6860b4776cc10b26b8f361fd139e7f0db04",
            "0x0000000000000000000000007f74388bc970de5e2822036a1ad06fccd156786b",
            "0x0000000000000000000000000000000000000000000000000000000000000001"
          ],
          "data": "0x00000000000000000000000000000000000000000000039fd2018a6e354c3be0000000000000000000000000000000000000000000000000000000000000006000000000000000000000000000000000000000000000000000000000000000c0000000000000000000000000000000000000000000000000000000000000000200000000000000000000000000000000000000000000001c9cb649d70e4ab74f000000000000000000000000000000000000000000000000000000000000000000000000000000000000000000000000000000000000000000000000000000020000000000000000000000000000000000000000000000000b14950bf16de6a90000000000000000000000000000000000000000000000000000000000000000",
          "blockHash": "0x9138c89eef15ff3e96b8377117c4be9aa04348b52c8e99aa721e380614a34f3e",
          "blockNumber": "0x1812a7f",
          "blockTimestamp": "0x6a211b4f",
          "transactionHash": "0x07e1326070243bb6f7467c321379adf950f6b74a859e4bca6b3a2173c8122cd7",
          "transactionIndex": "0xde",
          "logIndex": "0x2bd",
          "removed": false
        },
        {
          "address": "0x7f74388bc970de5e2822036a1ad06fccd156786b",
          "topics": [
            "0xaf6cb2e6187986f98607346b0da39860f8bcc4e2e024c1926efa779809b07adb",
            "0x000000000000000000000000cad1a7864a108dbff67f4b8af71fab0c7a86d0b6"
          ],
          "data": "0x00000000000000000000000000000000000000000000001c9cb649d70e4ab74f00000000000000000000000000000000000000000000000f9b6faf3ec0c4f13300000000000000000000000000000000000000000000000f654aaf4db2f00000",
          "blockHash": "0x9138c89eef15ff3e96b8377117c4be9aa04348b52c8e99aa721e380614a34f3e",
          "blockNumber": "0x1812a7f",
          "blockTimestamp": "0x6a211b4f",
          "transactionHash": "0x07e1326070243bb6f7467c321379adf950f6b74a859e4bca6b3a2173c8122cd7",
          "transactionIndex": "0xde",
          "logIndex": "0x2be",
          "removed": false
        }
      ],
      "logsBloom": "0x00000000000000000020000000000000000080000004000040004000402000000000000000000000000000408000000000000000000000000000000000040000802000000000000200000008000000000000004000040000000000000000000000000000020000000000004000000800000001000000020008010010000000000000000000000000000000000000000002000002000000000010010000020000000000800080000000040000800000000000000000000000000000000000000000000002000000000000000000000000000000000000100000000000800060000001000040000000002000000000000000000000000100000000000000000000",
      "type": "0x2",
      "transactionHash": "0x07e1326070243bb6f7467c321379adf950f6b74a859e4bca6b3a2173c8122cd7",
      "transactionIndex": "0xde",
      "blockHash": "0x9138c89eef15ff3e96b8377117c4be9aa04348b52c8e99aa721e380614a34f3e",
      "blockNumber": "0x1812a7f",
      "gasUsed": "0x2babd",
      "effectiveGasPrice": "0x11df3a46",
      "from": "0xcad1a7864a108dbff67f4b8af71fab0c7a86d0b6",
      "to": "0x7f74388bc970de5e2822036a1ad06fccd156786b",
      "contractAddress": null
    }
  ],
  "libraries": [],
  "pending": [],
  "returns": {},
  "timestamp": 1780554577155,
  "chain": 1,
  "commit": "3077540"
}