{
  "transactions": [
    {
      "hash": "0x1bca771c3207772b403d8e35b6c5456d9d7e27b9565816807e2c329cfb88952c",
      "transactionType": "CALL",
      "contractName": null,
      "contractAddress": "0x3bbe928340c61a65cb6c4a87b3fb59b6f3f7606a",
      "function": "setPhlimbo(address)",
      "arguments": [
        "0x6084a02C2Ac0127ddF1e617De257c61480A2AeE0"
      ],
      "transaction": {
        "from": "0xcad1a7864a108dbff67f4b8af71fab0c7a86d0b6",
        "to": "0x3bbe928340c61a65cb6c4a87b3fb59b6f3f7606a",
        "value": "0x0",
        "input": "0xa93e2fd30000000000000000000000006084a02c2ac0127ddf1e617de257c61480a2aee0",
        "nonce": "0x206",
        "chainId": "0x1"
      },
      "additionalContracts": [],
      "isFixedGasLimit": false
    },
    {
      "hash": "0xdb642d54ac00946baa75ec73b01964556a988cdecfb9d9a554288ea72a0c7101",
      "transactionType": "CALL",
      "contractName": null,
      "contractAddress": "0x3bbe928340c61a65cb6c4a87b3fb59b6f3f7606a",
      "function": "approvePhlimbo(uint256)",
      "arguments": [
        "115792089237316195423570985008687907853269984665640564039457584007913129639935"
      ],
      "transaction": {
        "from": "0xcad1a7864a108dbff67f4b8af71fab0c7a86d0b6",
        "to": "0x3bbe928340c61a65cb6c4a87b3fb59b6f3f7606a",
        "value": "0x0",
        "input": "0xba854ee6ffffffffffffffffffffffffffffffffffffffffffffffffffffffffffffffff",
        "nonce": "0x207",
        "chainId": "0x1"
      },
      "additionalContracts": [],
      "isFixedGasLimit": false
    },
    {
      "hash": "0xb286ab342d9380c6b9ee0ec320299890e856da4cbc4612f397e716b47f9b1e25",
      "transactionType": "CREATE",
      "contractName": "DepositView",
      "contractAddress": "0x0725722b50287f2285b873f534d5848e76c15251",
      "function": null,
      "arguments": [
        "0x6084a02C2Ac0127ddF1e617De257c61480A2AeE0",
        "0xf3B5B661b92B75C71fA5Aba8Fd95D7514A9CD605"
      ],
      "transaction": {
        "from": "0xcad1a7864a108dbff67f4b8af71fab0c7a86d0b6",
        "value": "0x0",
        "input": "0x60c03461013057601f61079438819003918201601f19168301916001600160401b038311848410176101345780849260409485528339810103126101305780516001600160a01b038116918282036101305760200151916001600160a01b0383169081840361013057156100eb57156100a65760805260a05260405161064b90816101498239608051818181608701526101e1015260a05181818161016301526105b00152f35b60405162461bcd60e51b815260206004820152601560248201527f496e76616c6964207068555344206164647265737300000000000000000000006044820152606490fd5b60405162461bcd60e51b815260206004820152601760248201527f496e76616c69642070686c696d626f20616464726573730000000000000000006044820152606490fd5b5f80fd5b634e487b7160e01b5f52604160045260245ffdfe6080806040526004361015610012575f80fd5b5f3560e01c908163236b721b14610568575080635d254169146100af5763b9d3a4381461003d575f80fd5b346100ab575f7ffffffffffffffffffffffffffffffffffffffffffffffffffffffffffffffffc3601126100ab57602060405173ffffffffffffffffffffffffffffffffffffffff7f0000000000000000000000000000000000000000000000000000000000000000168152f35b5f80fd5b346100ab5760207ffffffffffffffffffffffffffffffffffffffffffffffffffffffffffffffffc3601126100ab5760043573ffffffffffffffffffffffffffffffffffffffff81168091036100ab5760405160e0810181811067ffffffffffffffff82111761053b576040525f8152602081015f8152604082015f8152606083015f815260808401905f825260a08501925f845260c08601945f865273ffffffffffffffffffffffffffffffffffffffff7f000000000000000000000000000000000000000000000000000000000000000016976040517f70a082310000000000000000000000000000000000000000000000000000000081528160048201526020816024818d5afa908115610403575f91610509575b50885273ffffffffffffffffffffffffffffffffffffffff7f0000000000000000000000000000000000000000000000000000000000000000166040517f15fed4e9000000000000000000000000000000000000000000000000000000008152602081600481855afa908115610403575f916104d7575b5083526040517f8f10369a000000000000000000000000000000000000000000000000000000008152602081600481855afa908115610403575f916104a5575b5084526040517f69b79fde000000000000000000000000000000000000000000000000000000008152826004820152602081602481855afa908115610403575f91610473575b5085526040517f6aa240fa000000000000000000000000000000000000000000000000000000008152826004820152602081602481855afa908115610403575f91610441575b5086526040517f1959a002000000000000000000000000000000000000000000000000000000008152826004820152606081602481855afa908115610403575f9161040e575b5060209260449189526040519b8c9384927fdd62ed3e000000000000000000000000000000000000000000000000000000008452600484015260248301525afa8015610403575f906103d0575b60e098508652604051965187525160208701525160408601525160608501525160808401525160a08301525160c0820152f35b506020883d6020116103fb575b816103ea602093836105d4565b810103126100ab5760e0975161039d565b3d91506103dd565b6040513d5f823e3d90fd5b90506060813d606011610439575b81610429606093836105d4565b810103126100ab57516020610350565b3d915061041c565b90506020813d60201161046b575b8161045c602093836105d4565b810103126100ab57518b61030a565b3d915061044f565b90506020813d60201161049d575b8161048e602093836105d4565b810103126100ab57518b6102c4565b3d9150610481565b90506020813d6020116104cf575b816104c0602093836105d4565b810103126100ab57518b61027e565b3d91506104b3565b90506020813d602011610501575b816104f2602093836105d4565b810103126100ab57518b61023e565b3d91506104e5565b90506020813d602011610533575b81610524602093836105d4565b810103126100ab57518a6101c7565b3d9150610517565b7f4e487b71000000000000000000000000000000000000000000000000000000005f52604160045260245ffd5b346100ab575f7ffffffffffffffffffffffffffffffffffffffffffffffffffffffffffffffffc3601126100ab5760209073ffffffffffffffffffffffffffffffffffffffff7f0000000000000000000000000000000000000000000000000000000000000000168152f35b90601f7fffffffffffffffffffffffffffffffffffffffffffffffffffffffffffffffe0910116810190811067ffffffffffffffff82111761053b5760405256fea264697066735822122074bcafa4f6016987726c84bf62a442174ff2cbe83844d2a99908e70a5fa3b07264736f6c634300081e00330000000000000000000000006084a02c2ac0127ddf1e617de257c61480a2aee0000000000000000000000000f3b5b661b92b75c71fa5aba8fd95d7514a9cd605",
        "nonce": "0x208",
        "chainId": "0x1"
      },
      "additionalContracts": [],
      "isFixedGasLimit": false
    }
  ],
  "receipts": [
    {
      "status": "0x1",
      "cumulativeGasUsed": "0x15f9adb",
      "logs": [
        {
          "address": "0x3bbe928340c61a65cb6c4a87b3fb59b6f3f7606a",
          "topics": [
            "0xa7e775663e2a425eb025700e66923142815918016f708c7ae545e2ebf1477bdc",
            "0x0000000000000000000000003984ebc84d45a889ddac595d13dc0ac2e54819f4",
            "0x0000000000000000000000006084a02c2ac0127ddf1e617de257c61480a2aee0"
          ],
          "data": "0x",
          "blockHash": "0xc1860182dff7a522c0efd0c28b2d25f40ac9b4e1bd79f1a2db26ec89e39750f7",
          "blockNumber": "0x17fbb53",
          "blockTimestamp": "0x6a0fd3ab",
          "transactionHash": "0x1bca771c3207772b403d8e35b6c5456d9d7e27b9565816807e2c329cfb88952c",
          "transactionIndex": "0xb0",
          "logIndex": "0x30b",
          "removed": false
        }
      ],
      "logsBloom": "0x00000000000000000000000000000000000000000000000000000000000000000000000000001000020000000000000000000000000000000000000000040000000000000000000000000000000000000000000000000000000000000000000000000008000000000000000400000000000000000000000000000000000000000000000000000080000000000000000000000000000000000000000000000000000000000000000000000020000000000000000000000040000400000000000000000000000000000000000000000000000000000000000000000000000000000400000010000000000000000000000000000000000000000000000020000000",
      "type": "0x2",
      "transactionHash": "0x1bca771c3207772b403d8e35b6c5456d9d7e27b9565816807e2c329cfb88952c",
      "transactionIndex": "0xb0",
      "blockHash": "0xc1860182dff7a522c0efd0c28b2d25f40ac9b4e1bd79f1a2db26ec89e39750f7",
      "blockNumber": "0x17fbb53",
      "gasUsed": "0x78e9",
      "effectiveGasPrice": "0x55c3054",
      "from": "0xcad1a7864a108dbff67f4b8af71fab0c7a86d0b6",
      "to": "0x3bbe928340c61a65cb6c4a87b3fb59b6f3f7606a",
      "contractAddress": null
    },
    {
      "status": "0x1",
      "cumulativeGasUsed": "0x10d2854",
      "logs": [
        {
          "address": "0xa0b86991c6218b36c1d19d4a2e9eb0ce3606eb48",
          "topics": [
            "0x8c5be1e5ebec7d5bd14f71427d1e84f3dd0314c0f7b2291e5b200ac8c7c3b925",
            "0x0000000000000000000000003bbe928340c61a65cb6c4a87b3fb59b6f3f7606a",
            "0x0000000000000000000000006084a02c2ac0127ddf1e617de257c61480a2aee0"
          ],
          "data": "0xffffffffffffffffffffffffffffffffffffffffffffffffffffffffffffffff",
          "blockHash": "0xbcd8ea24028b0485a59ea953cca4a2fc17cd1bea46966a7dc71cc6e659606a87",
          "blockNumber": "0x17fbb54",
          "blockTimestamp": "0x6a0fd3b7",
          "transactionHash": "0xdb642d54ac00946baa75ec73b01964556a988cdecfb9d9a554288ea72a0c7101",
          "transactionIndex": "0xe4",
          "logIndex": "0x1cd",
          "removed": false
        }
      ],
      "logsBloom": "0x00000000000000000000000000000000000000000000000000000000000000000000000000000000000000000000000000000000000000000000000000200000000000000000000008000000000000000000000000000000000000000000000000000008000000000000000000000000000000000000000000000000000000000000000000000000000000000000000000000000010000000000000000000000020000000000200000000020000000000000000000000040000000000000000000000000000000000400000002000000000000002000000000000000000000000010000000000000000000000000000000000000000000000000000000000000",
      "type": "0x2",
      "transactionHash": "0xdb642d54ac00946baa75ec73b01964556a988cdecfb9d9a554288ea72a0c7101",
      "transactionIndex": "0xe4",
      "blockHash": "0xbcd8ea24028b0485a59ea953cca4a2fc17cd1bea46966a7dc71cc6e659606a87",
      "blockNumber": "0x17fbb54",
      "gasUsed": "0xffc0",
      "effectiveGasPrice": "0x5427064",
      "from": "0xcad1a7864a108dbff67f4b8af71fab0c7a86d0b6",
      "to": "0x3bbe928340c61a65cb6c4a87b3fb59b6f3f7606a",
      "contractAddress": null
    },
    {
      "status": "0x1",
      "cumulativeGasUsed": "0x1e85892",
      "logs": [],
      "logsBloom": "0x00000000000000000000000000000000000000000000000000000000000000000000000000000000000000000000000000000000000000000000000000000000000000000000000000000000000000000000000000000000000000000000000000000000000000000000000000000000000000000000000000000000000000000000000000000000000000000000000000000000000000000000000000000000000000000000000000000000000000000000000000000000000000000000000000000000000000000000000000000000000000000000000000000000000000000000000000000000000000000000000000000000000000000000000000000000",
      "type": "0x2",
      "transactionHash": "0xb286ab342d9380c6b9ee0ec320299890e856da4cbc4612f397e716b47f9b1e25",
      "transactionIndex": "0xcf",
      "blockHash": "0x857e20f86cd9cffc825b2c66d49061fa900fe06c67ae88ed5af5b6529f39c91b",
      "blockNumber": "0x17fbb55",
      "gasUsed": "0x626bc",
      "effectiveGasPrice": "0x512e30d",
      "from": "0xcad1a7864a108dbff67f4b8af71fab0c7a86d0b6",
      "to": null,
      "contractAddress": "0x0725722b50287f2285b873f534d5848e76c15251"
    }
  ],
  "libraries": [],
  "pending": [],
  "returns": {},
  "timestamp": 1779422147454,
  "chain": 1,
  "commit": "155942f"
}