{
  "transactions": [
    {
      "hash": "0x4918d89c8c9d8aa14030ce80b09fde73b1dbf84ad4b81ab6450008404f7897a1",
      "transactionType": "CALL",
      "contractName": null,
      "contractAddress": "0x3bbe928340c61a65cb6c4a87b3fb59b6f3f7606a",
      "function": "setNudgeSplit(uint256)",
      "arguments": [
        "0"
      ],
      "transaction": {
        "from": "0xcad1a7864a108dbff67f4b8af71fab0c7a86d0b6",
        "to": "0x3bbe928340c61a65cb6c4a87b3fb59b6f3f7606a",
        "value": "0x0",
        "input": "0xfe3ffbac0000000000000000000000000000000000000000000000000000000000000000",
        "nonce": "0x215",
        "chainId": "0x1"
      },
      "additionalContracts": [],
      "isFixedGasLimit": false
    },
    {
      "hash": "0x18e598de193da69f25b2d7c332d7e6271f352a461f8b25344095c7829c063083",
      "transactionType": "CALL",
      "contractName": null,
      "contractAddress": "0x26f89f4b46eb164303985795ee20b15bb1edb38a",
      "function": "setBatchMinter(address)",
      "arguments": [
        "0xCad1a7864a108DBFF67F4b8af71fAB0C7A86D0B6"
      ],
      "transaction": {
        "from": "0xcad1a7864a108dbff67f4b8af71fab0c7a86d0b6",
        "to": "0x26f89f4b46eb164303985795ee20b15bb1edb38a",
        "value": "0x0",
        "input": "0xb1db9044000000000000000000000000cad1a7864a108dbff67f4b8af71fab0c7a86d0b6",
        "nonce": "0x216",
        "chainId": "0x1"
      },
      "additionalContracts": [],
      "isFixedGasLimit": false
    },
    {
      "hash": "0xe27150a5107fbf98f21ed555aa359cc9171f206d7af2dfe5e5b2a76bc8489cd2",
      "transactionType": "CALL",
      "contractName": null,
      "contractAddress": "0x4ef0fde49360ed31c68ed442ff263cc6291041f3",
      "function": "setNudgePaymentToken(address)",
      "arguments": [
        "0x0000000000000000000000000000000000000000"
      ],
      "transaction": {
        "from": "0xcad1a7864a108dbff67f4b8af71fab0c7a86d0b6",
        "to": "0x4ef0fde49360ed31c68ed442ff263cc6291041f3",
        "value": "0x0",
        "input": "0xcb1fd8c80000000000000000000000000000000000000000000000000000000000000000",
        "nonce": "0x217",
        "chainId": "0x1"
      },
      "additionalContracts": [],
      "isFixedGasLimit": false
    },
    {
      "hash": "0x55734970870b184153b309be73d8ba2d5238459ba1e433865ace0c1a00abab07",
      "transactionType": "CALL",
      "contractName": null,
      "contractAddress": "0x4ef0fde49360ed31c68ed442ff263cc6291041f3",
      "function": "setNudgeSize(uint256)",
      "arguments": [
        "0"
      ],
      "transaction": {
        "from": "0xcad1a7864a108dbff67f4b8af71fab0c7a86d0b6",
        "to": "0x4ef0fde49360ed31c68ed442ff263cc6291041f3",
        "value": "0x0",
        "input": "0xf79dbe9e0000000000000000000000000000000000000000000000000000000000000000",
        "nonce": "0x218",
        "chainId": "0x1"
      },
      "additionalContracts": [],
      "isFixedGasLimit": false
    }
  ],
  "receipts": [
    {
      "status": "0x1",
      "cumulativeGasUsed": "0x270fe16",
      "logs": [
        {
          "address": "0x3bbe928340c61a65cb6c4a87b3fb59b6f3f7606a",
          "topics": [
            "0xc4df7cf7130f9356fe3a29a136c893959b0cdf945bc850d1829b45df203e3ee6"
          ],
          "data": "0x000000000000000000000000000000000000000000000000000000000000001e0000000000000000000000000000000000000000000000000000000000000000",
          "blockHash": "0x0b7d4864d14d0771e29b125349feda91922c4efb03af7f8f48a3413c7d1dfd35",
          "blockNumber": "0x18078c0",
          "blockTimestamp": "0x6a18bcd7",
          "transactionHash": "0x4918d89c8c9d8aa14030ce80b09fde73b1dbf84ad4b81ab6450008404f7897a1",
          "transactionIndex": "0x1e2",
          "logIndex": "0x41b",
          "removed": false
        }
      ],
      "logsBloom": "0x00000000000000000000000000000000000000000000000000000000000000000000000000001000000000000000000000000000000000000000000000000000000000000000000000000000000000000000000040000000000000000000000000000000000000000000000000000000000000000000000000000000000000000000000000000001000000000000000000000000000000000000000000000000000000000000000000000000000000000000000000000000000000000000000000000000000000000000000000000000000000000000000000000000000000400400000000000000000000000000000000000000000000000000000020000000",
      "type": "0x2",
      "transactionHash": "0x4918d89c8c9d8aa14030ce80b09fde73b1dbf84ad4b81ab6450008404f7897a1",
      "transactionIndex": "0x1e2",
      "blockHash": "0x0b7d4864d14d0771e29b125349feda91922c4efb03af7f8f48a3413c7d1dfd35",
      "blockNumber": "0x18078c0",
      "gasUsed": "0x651b",
      "effectiveGasPrice": "0x9e1cd3f",
      "from": "0xcad1a7864a108dbff67f4b8af71fab0c7a86d0b6",
      "to": "0x3bbe928340c61a65cb6c4a87b3fb59b6f3f7606a",
      "contractAddress": null
    },
    {
      "status": "0x1",
      "cumulativeGasUsed": "0x18ee7b7",
      "logs": [
        {
          "address": "0x26f89f4b46eb164303985795ee20b15bb1edb38a",
          "topics": [
            "0xa7978870153ece652cc4657688816871cbe0106d26a50cbd2239fecedb8de1c4"
          ],
          "data": "0x000000000000000000000000cad1a7864a108dbff67f4b8af71fab0c7a86d0b6",
          "blockHash": "0xf584cbf53d00deeb95c10ba7c51110c878b44a212e13bf2604e984ca4dbeadb8",
          "blockNumber": "0x18078c2",
          "blockTimestamp": "0x6a18bcef",
          "transactionHash": "0x18e598de193da69f25b2d7c332d7e6271f352a461f8b25344095c7829c063083",
          "transactionIndex": "0xe3",
          "logIndex": "0x32d",
          "removed": false
        }
      ],
      "logsBloom": "0x08000000000000000000000000000000000000000000000000000000000000000000000000000000000000000000000000000000000000000000000000000000000000000000200000000000000000000000000000000000000000000000800000000000000000000000000000000000000000000000000000000000000000000000000000100000000000000000000000000000000000000000000000000000000000000000000000002000000000000000000000000000000000000000000100000000000000000000000000000000000000000000000000000000000000000000000000000000000000000000000000000000000000000000000000000000",
      "type": "0x2",
      "transactionHash": "0x18e598de193da69f25b2d7c332d7e6271f352a461f8b25344095c7829c063083",
      "transactionIndex": "0xe3",
      "blockHash": "0xf584cbf53d00deeb95c10ba7c51110c878b44a212e13bf2604e984ca4dbeadb8",
      "blockNumber": "0x18078c2",
      "gasUsed": "0x76bf",
      "effectiveGasPrice": "0xa1a6547",
      "from": "0xcad1a7864a108dbff67f4b8af71fab0c7a86d0b6",
      "to": "0x26f89f4b46eb164303985795ee20b15bb1edb38a",
      "contractAddress": null
    },
    {
      "status": "0x1",
      "cumulativeGasUsed": "0x13c888b",
      "logs": [
        {
          "address": "0x4ef0fde49360ed31c68ed442ff263cc6291041f3",
          "topics": [
            "0x6c1669a9d4dde92eb8b509697810f4688f8e6a2fe69dc291ccfcf3a0f9c3a2ff",
            "0x0000000000000000000000000000000000000000000000000000000000000000"
          ],
          "data": "0x",
          "blockHash": "0xeda8a911f820e2983c9d9c2236d70cd5156b48dc0851a59f8ea4f0532f5825fc",
          "blockNumber": "0x18078c3",
          "blockTimestamp": "0x6a18bcfb",
          "transactionHash": "0xe27150a5107fbf98f21ed555aa359cc9171f206d7af2dfe5e5b2a76bc8489cd2",
          "transactionIndex": "0x8c",
          "logIndex": "0x253",
          "removed": false
        }
      ],
      "logsBloom": "0x00000000000000000000000000000000000000000000000000000000000000000000000000000000000000000000000000000000000000000000000000000000000000000000000000000000000000000000000000100000000000008000000000000000020000000000000000000800000000000000000000000000000000000000000008000000000000080000000000000000000000000000000000000001000000000000000000000000000000000000000000000000000000000000000000000000000000000000000000000000000000000000000000000000000030000000000000000000000000000000000000000000000000000000000000000000",
      "type": "0x2",
      "transactionHash": "0xe27150a5107fbf98f21ed555aa359cc9171f206d7af2dfe5e5b2a76bc8489cd2",
      "transactionIndex": "0x8c",
      "blockHash": "0xeda8a911f820e2983c9d9c2236d70cd5156b48dc0851a59f8ea4f0532f5825fc",
      "blockNumber": "0x18078c3",
      "gasUsed": "0x6192",
      "effectiveGasPrice": "0xa02e709",
      "from": "0xcad1a7864a108dbff67f4b8af71fab0c7a86d0b6",
      "to": "0x4ef0fde49360ed31c68ed442ff263cc6291041f3",
      "contractAddress": null
    },
    {
      "status": "0x1",
      "cumulativeGasUsed": "0x11a7890",
      "logs": [
        {
          "address": "0x4ef0fde49360ed31c68ed442ff263cc6291041f3",
          "topics": [
            "0xf435fc90cf0d233d2031e34c7e0a6bcbd6c56f749449163e019be8da37a0f59e"
          ],
          "data": "0x0000000000000000000000000000000000000000000000000000000000000000",
          "blockHash": "0x7c559a3c4e2080b82e18a3f243932ba22484250cad5e3895378a833896536ea7",
          "blockNumber": "0x18078c4",
          "blockTimestamp": "0x6a18bd07",
          "transactionHash": "0x55734970870b184153b309be73d8ba2d5238459ba1e433865ace0c1a00abab07",
          "transactionIndex": "0x8f",
          "logIndex": "0x1f9",
          "removed": false
        }
      ],
      "logsBloom": "0x00000000000000000000000000000000000000000000000000000000000000000000000000000000000000000000000000000000000000000000000000000000000000000000000000000000000000000000000000000000000000008000000000000001000000000000000000000000000000000000000000000000000000000000000000000000000000080000000000000000010000000000000000000001000000000000000000000000000000000000000000000000000000000000000000000000000000000000000000000000000000002000000000000000000000000000000000000000000000000000000000000000000000000000000000000000",
      "type": "0x2",
      "transactionHash": "0x55734970870b184153b309be73d8ba2d5238459ba1e433865ace0c1a00abab07",
      "transactionIndex": "0x8f",
      "blockHash": "0x7c559a3c4e2080b82e18a3f243932ba22484250cad5e3895378a833896536ea7",
      "blockNumber": "0x18078c4",
      "gasUsed": "0x6124",
      "effectiveGasPrice": "0x9a8e867",
      "from": "0xcad1a7864a108dbff67f4b8af71fab0c7a86d0b6",
      "to": "0x4ef0fde49360ed31c68ed442ff263cc6291041f3",
      "contractAddress": null
    }
  ],
  "libraries": [],
  "pending": [],
  "returns": {},
  "timestamp": 1780006153991,
  "chain": 1,
  "commit": "725d38a"
}