{
  "transactions": [
    {
      "hash": "0x92f10ea69b92bb928fa66a5f50ffbe9c596f0f9c90c33d91627bfbe5759762ab",
      "transactionType": "CALL",
      "contractName": null,
      "contractAddress": "0xc8514f821a3d801fa8a8c435840a992a4365a13b",
      "function": "pullAndRefresh()",
      "arguments": [],
      "transaction": {
        "from": "0xcad1a7864a108dbff67f4b8af71fab0c7a86d0b6",
        "to": "0xc8514f821a3d801fa8a8c435840a992a4365a13b",
        "value": "0x0",
        "input": "0x6bb59a53",
        "nonce": "0x1e3",
        "chainId": "0x1"
      },
      "additionalContracts": [],
      "isFixedGasLimit": false
    },
    {
      "hash": "0x2e20045ecf14858940ad847212430a57e1d9e930ceb11a104bbbae1090fd3696",
      "transactionType": "CREATE",
      "contractName": "BalancerPoolerV2",
      "contractAddress": "0x26f89f4b46eb164303985795ee20b15bb1edb38a",
      "function": null,
      "arguments": [
        "0xa3931d71877C0E7a3148CB7Eb4463524FEc27fbD",
        "0x642BB6860b4776CC10b26B8f361Fd139E7f0db04",
        "0xbA1333333333a1BA1108E8412f11850A5C319bA9",
        "0x5C6fb490BDFD3246EB0bB062c168DeCAF4bD9FDd",
        "true",
        "0xCad1a7864a108DBFF67F4b8af71fAB0C7A86D0B6"
      ],
      "transaction": {
        "from": "0xcad1a7864a108dbff67f4b8af71fab0c7a86d0b6",
        "value": "0x0",
        "input": "0x61012080604052346102645760c0816132ca8038038091610020828561032c565b833981010312610264576100338161034f565b61003f6020830161034f565b61004b6040840161034f565b906100586060850161034f565b9260808501519485151586036102645760a0610074910161034f565b6001600160a01b0381168015610319575f8054610100600160a81b03198116600894851b610100600160a81b0316178255604051931c6001600160a01b0316907f8be0079c531659141344cd1fd0a4f28419497f9722a3daafe3b4186f6b6457e09080a360017f9b779b17422d0df92223018b32b4d1fa46e071723d6817e2486d003becc55f005560f48181016001600160401b038111838210176103055782916131d6833903905ff0801561027057600580546001600160a01b0319166001600160a01b0392831617905581169081156102c0576001600160a01b0385161561027b576080526040516338d52e0f60e01b815290602090829060049082905afa908115610270575f91610232575b5060a052600680546001600160a01b0319166001600160a01b039290921691909117905560c05260e052610100526001600755604051612e72908161036482396080518181816107b101528181610b93015281816110c9015281816117b201528181611dc60152612af4015260a0518181816101c50152611761015260c051818181610263015281816108b40152610ac0015260e05181612bf6015261010051818181610c6f0152612b480152f35b90506020813d602011610268575b8161024d6020938361032c565b810103126102645761025e9061034f565b5f610183565b5f80fd5b3d9150610240565b6040513d5f823e3d90fd5b60405162461bcd60e51b815260206004820152601d60248201527f42616c616e636572506f6f6c657256323a207a65726f20726f757465720000006044820152606490fd5b60405162461bcd60e51b815260206004820152601c60248201527f42616c616e636572506f6f6c657256323a207a65726f207355534453000000006044820152606490fd5b634e487b7160e01b5f52604160045260245ffd5b631e4fbdf760e01b5f525f60045260245ffd5b601f909101601f19168101906001600160401b0382119082101761030557604052565b51906001600160a01b03821682036102645756fe60806040526004361015610011575f80fd5b5f5f3560e01c80630281d95c1461272057806306fdde031461267b5780630890d80c146120d55780630d3233651461209d57806316f0115b146120775780632baaf745146120515780633dfd387314611f805780633e413bee14611f5a5780633f4ba83a14611eb15780634437152a14611dea5780634f5a19df14611da75780635c975abb14611d865780636b28e58714611b9f578063715018a614611b2d5780637284e41614611a45578063734c5b2c146116f05780637f5a7c7b146116c95780638456cb59146116445780638bf78874146116265780638da5cb5b146115fd57806391dd734614610a8a578063982697dd14610a635780639b1b615e1461073e578063a1d65e39146106a3578063b1db904414610621578063b2118a8d1461058d578063bdff80c814610507578063c580a540146104ca578063d0d164bd146104a3578063d3d9905714610480578063f2fde38b146103aa578063f3ccaac0146102a5578063faab85e514610287578063fbfa77cf14610243578063fca3b5aa146101ec5763fe5a451a146101a6575f80fd5b346101e957806003193601126101e95760206040516001600160a01b037f0000000000000000000000000000000000000000000000000000000000000000168152f35b80fd5b50346101e95760206003193601126101e9576001600160a01b0361020e612818565b610216612ca9565b167fffffffffffffffffffffffff0000000000000000000000000000000000000000600154161760015580f35b50346101e957806003193601126101e95760206040516001600160a01b037f0000000000000000000000000000000000000000000000000000000000000000168152f35b50346101e957806003193601126101e9576020600954604051908152f35b50346101e957806003193601126101e9576040519080600354906102c882612897565b80855291600181169081156103655750600114610308575b610304846102f0818603826128e8565b604051918291602083526020830190612844565b0390f35b600381527fc2575a0e9e593c00f959f8c92f12db2869c3395a3b0502d05e2516446f71f85b939250905b80821061034b575090915081016020016102f0826102e0565b919260018160209254838588010152019101909291610332565b7fffffffffffffffffffffffffffffffffffffffffffffffffffffffffffffff001660208087019190915292151560051b850190920192506102f091508390506102e0565b50346101e95760206003193601126101e9576103c4612818565b6103cc612ca9565b6001600160a01b038116908115610454576001600160a01b039074ffffffffffffffffffffffffffffffffffffffff0084549160081b167fffffffffffffffffffffff0000000000000000000000000000000000000000ff821617845560081c167f8be0079c531659141344cd1fd0a4f28419497f9722a3daafe3b4186f6b6457e08380a380f35b6024837f1e4fbdf700000000000000000000000000000000000000000000000000000000815280600452fd5b50346101e957806003193601126101e957602061049b612ab8565b604051908152f35b50346101e957806003193601126101e95760206001600160a01b03600a5416604051908152f35b50346101e95760406003193601126101e9576105046104e7612818565b6104ef612ca9565b602435906001600160a01b0360065416612d95565b80f35b50346101e957806003193601126101e957610520612ca9565b60075460018101809111610560576020817fc1d15e5af31557600e1553614419048046b6417b097d56b8e0042d79d0f98dde92600755604051908152a180f35b6024827f4e487b710000000000000000000000000000000000000000000000000000000081526011600452fd5b50346101e95760606003193601126101e9576105a7612818565b6105af61282e565b906105b8612ca9565b6001600160a01b038216156105dd57610504916001600160a01b036044359216612d95565b606460405162461bcd60e51b815260206004820152602060248201527f42616c616e636572506f6f6c657256323a207a65726f20726563697069656e746044820152fd5b50346101e95760206003193601126101e9577fa7978870153ece652cc4657688816871cbe0106d26a50cbd2239fecedb8de1c460206001600160a01b03610666612818565b61066e612ca9565b16807fffffffffffffffffffffffff0000000000000000000000000000000000000000600a541617600a55604051908152a180f35b50346101e95760206003193601126101e9576004356106c0612ca9565b606481116106fa576020817f074731357d33727f4901077a97ee097d688cb98f4e4565c7e39e804dd986ced492600955604051908152a180f35b606460405162461bcd60e51b815260206004820152601c60248201527f42616c616e636572506f6f6c657256323a2073697a65203e20313030000000006044820152fd5b50346101e95760406003193601126101e95733815260086020526040812054600754036109f95761076d612d62565b610775612ceb565b6040517f70a082310000000000000000000000000000000000000000000000000000000081523060048201526020816024816001600160a01b037f0000000000000000000000000000000000000000000000000000000000000000165afa90811561094e5782916109c3575b508015610959578161085e61086c6108a793604051903360208301526040820152600435606082015260243560808201526080815261082160a0826128e8565b6040519283917f91dd7346000000000000000000000000000000000000000000000000000000006020840152602060248401526044830190612844565b03601f1981018352826128e8565b604051809381927f48c89491000000000000000000000000000000000000000000000000000000008352602060048401526024830190612844565b0381836001600160a01b037f0000000000000000000000000000000000000000000000000000000000000000165af1801561094e57610909575b5060017f9b779b17422d0df92223018b32b4d1fa46e071723d6817e2486d003becc55f005580f35b3d8083833e61091881836128e8565b810160208282031261094a57815167ffffffffffffffff81116109465761093f9201612a2f565b505f6108e1565b8380fd5b8280fd5b6040513d84823e3d90fd5b608460405162461bcd60e51b815260206004820152602160248201527f42616c616e636572506f6f6c657256323a206e6f7468696e6720746f20706f6f60448201527f6c000000000000000000000000000000000000000000000000000000000000006064820152fd5b90506020813d6020116109f1575b816109de602093836128e8565b810103126109ed57515f6107e1565b5f80fd5b3d91506109d1565b608460405162461bcd60e51b815260206004820152602e60248201527f42616c616e636572506f6f6c657256323a2063616c6c6572206e6f742061757460448201527f686f72697a656420706f6f6c65720000000000000000000000000000000000006064820152fd5b50346101e957806003193601126101e95760206001600160a01b03600b5416604051908152f35b50346101e95760206003193601126101e95760043567ffffffffffffffff81116115f957610abc903690600401612869565b91907f0000000000000000000000000000000000000000000000000000000000000000926001600160a01b0384169081330361158f57826080918101031261094a578135916001600160a01b03831680930361094657602081013594604082013591866009548082029082820414821517156115625760649004918215158061154e575b8061153a575b80611526575b80611512575b6110ba575b50505085610b89575b6103048560405190610b736020836128e8565b8152604051918291602083526020830190612844565b6001600160a01b037f00000000000000000000000000000000000000000000000000000000000000001695604051907f70a082310000000000000000000000000000000000000000000000000000000082528460048301526020826024818b5afa918215610fd0578792611084575b50610c04919288612d95565b604051907f70a082310000000000000000000000000000000000000000000000000000000082528360048301526020826024818a5afa8015610eba578690611050575b610c5192506129ab565b9160405190610c616060836128e8565b6002825260403660208401377f0000000000000000000000000000000000000000000000000000000000000000156110355783610c9d836129e5565b5285610ca883612a1f565b525b6001600160a01b0360065416966040519760c0890189811067ffffffffffffffff8211176110085760405288526020880130815260408901938452606089019085825260808a016001815260209560405192610d0688856128e8565b8b845260a08d01938452604051809d7f4af29ec4000000000000000000000000000000000000000000000000000000008252896004830152516001600160a01b03169060240152516001600160a01b031660448d01525160648c0160c0905260e48c01610d7291612a85565b925160848c0152516005811015610fdb57610dc18a938c93849360a4850152517fffffffffffffffffffffffffffffffffffffffffffffffffffffffffffffffdc8483030160c4850152612844565b038183865af1978815610fd0578798610ec5575b506040517f15afd4090000000000000000000000000000000000000000000000000000000081526001600160a01b03909116600482015260248101859052919081908390818981604481015b03925af18015610eba57610e85575b5050937faf6cb2e6187986f98607346b0da39860f8bcc4e2e024c1926efa779809b07adb91610e7961030496604051938493846040919493926060820195825260208201520152565b0390a25f808080610b60565b818197939492973d8311610eb3575b610e9e81836128e8565b810103126109ed579094509081610e79610e30565b503d610e94565b6040513d88823e3d90fd5b9097503d8088833e610ed781836128e8565b8101606082820312610fcc57815167ffffffffffffffff8111610fc857820181601f82011215610fc857805167ffffffffffffffff8111610f9b5785808260051b9281840190610f2a60405192836128e8565b8152019183010191838311610f975786809101915b838310610f8757509150508201519160408101519067ffffffffffffffff8211610f835792610f778893879693610e21989601612a2f565b50999250929350610dd5565b8980fd5b8251815291810191879101610f3f565b8a80fd5b60248a7f4e487b710000000000000000000000000000000000000000000000000000000081526041600452fd5b8880fd5b8780fd5b6040513d89823e3d90fd5b60248a7f4e487b710000000000000000000000000000000000000000000000000000000081526021600452fd5b6024897f4e487b710000000000000000000000000000000000000000000000000000000081526041600452fd5b8561103f836129e5565b528361104a83612a1f565b52610caa565b506020823d60201161107c575b8161106a602093836128e8565b810103126109ed57610c519151610c47565b3d915061105d565b91506020823d6020116110b2575b8161109f602093836128e8565b810103126109ed57610c04915191610bf8565b3d9150611092565b90919297506001600160a01b037f000000000000000000000000000000000000000000000000000000000000000016906110f5848a84612d95565b6001600160a01b03600b5416906001600160a01b03600c5416926040519360e0850185811067ffffffffffffffff8211176114e557908b9160405281865260208601948552604086019083825260608701908152608087019089825260a08801928484526020976040519561116a8a886128e8565b865260c08a01958652604051997f2bfb780c000000000000000000000000000000000000000000000000000000008b528960048c01525160028110156114b657936001600160a01b036111fb948160609995818f9a968b9a60248c0152511660448a015251166064880152511660848601525160a48501525160c48401525160e060e4840152610104830190612844565b03818d8c5af193841561142a579086918b9561147a575b506040517f15afd4090000000000000000000000000000000000000000000000000000000081526001600160a01b0390911660048201526024810191909152828180604481015b03818d8c5af1801561142a57611450575b506001600160a01b03600c5416873b15610f8357604051907fae63932900000000000000000000000000000000000000000000000000000000825260048201523060248201528360448201528981606481838c5af1801561142a57908a939291611435575b50816001600160a01b03600c54166064604051809681937fba0876520000000000000000000000000000000000000000000000000000000083528960048401523060248401523060448401525af192831561142a578a936113fa575b506060013582106113b6575090867fdc972491ab78cde9a1ce2edb29d56c66f4d6aba0a1f1220807b793d70c8dd7ce836113826113ad9796956001600160a01b03600d54166001600160a01b03600a541690612d95565b600a546040805188815260208101969096528501919091526001600160a01b031692606090a36129ab565b945f8080610b57565b6064906040519062461bcd60e51b82526004820152601f60248201527f42616c616e636572506f6f6c657256323a205553444320736c697070616765006044820152fd5b9092508181813d8311611423575b61141281836128e8565b810103126109ed575191606061132b565b503d611408565b6040513d8c823e3d90fd5b8361144391949293946128e8565b610fc8579088915f6112cf565b8281813d8311611473575b61146581836128e8565b810103126109ed575161126a565b503d61145b565b915093506060813d6060116114ae575b81611497606093836128e8565b81010312610f835760400151928590611259611212565b3d915061148a565b505060248f7f4e487b710000000000000000000000000000000000000000000000000000000081526021600452fd5b60248c7f4e487b710000000000000000000000000000000000000000000000000000000081526041600452fd5b506001600160a01b03600d54161515610b52565b506001600160a01b03600c54161515610b4c565b506001600160a01b03600b54161515610b46565b506001600160a01b03600a54161515610b40565b6024887f4e487b710000000000000000000000000000000000000000000000000000000081526011600452fd5b608460405162461bcd60e51b815260206004820152602560248201527f42616c616e636572506f6f6c657256323a2063616c6c6572206973206e6f742060448201527f7661756c740000000000000000000000000000000000000000000000000000006064820152fd5b5080fd5b50346101e957806003193601126101e9576001600160a01b036020915460081c16604051908152f35b50346101e957806003193601126101e9576020600754604051908152f35b50346101e957806003193601126101e95761166b6001600160a01b0360015416331461292b565b611673612d62565b60017fffffffffffffffffffffffffffffffffffffffffffffffffffffffffffffff008254161781557f62e78cea01bee320cd4e420270b5ea74000d11b0c9f74754ebdbfc544b05a2586020604051338152a180f35b50346101e957806003193601126101e95760206001600160a01b0360055416604051908152f35b50346109ed5760606003193601126109ed5761170a612818565b6024359060443567ffffffffffffffff81116109ed5761172e903690600401612869565b929091611739612ceb565b61174f6001600160a01b0360015416331461292b565b611757612d62565b6001600160a01b037f000000000000000000000000000000000000000000000000000000000000000016604051907f095ea7b3000000000000000000000000000000000000000000000000000000005f526001600160a01b037f00000000000000000000000000000000000000000000000000000000000000001691826004528460245260205f60448180865af19060015f5114821615611a36575b60405215611936575b5060205f916044604051809481937f6e553f650000000000000000000000000000000000000000000000000000000083528860048401523060248401525af180156118fc57611907575b506001600160a01b036005541690813b156109ed575f6001600160a01b03916118b38296604051988997889687957fa88b5399000000000000000000000000000000000000000000000000000000008752166004860152602485015260606044850152606484019161290b565b03925af180156118fc576118e9575060017f9b779b17422d0df92223018b32b4d1fa46e071723d6817e2486d003becc55f005580f35b6118f591505f906128e8565b5f5f6108e1565b6040513d5f823e3d90fd5b6119289060203d60201161192f575b61192081836128e8565b81019061299c565b505f611846565b503d611916565b6040517f095ea7b3000000000000000000000000000000000000000000000000000000005f52826004525f60245260205f60448180865af19060015f5114821615611a1e575b604052156119d2576040517f095ea7b3000000000000000000000000000000000000000000000000000000005f52826004528460245260205f60448180865af19060015f51148216156119fd575b6040526117fc575b7f5274afe7000000000000000000000000000000000000000000000000000000005f5260045260245ffd5b906001811516611a1557823b15153d151616906119ca565b503d5f823e3d90fd5b906001811516611a1557823b15153d1516169061197c565b90823b15153d151616906117f3565b346109ed575f6003193601126109ed576040515f600454611a6581612897565b8084529060018116908115611aeb5750600114611a8d575b610304836102f0818503826128e8565b91905060045f527f8a35acfbc15ff81a39ae7d344fd709f28e8600b4aa8c65c6b64bfe7fe36bd19b915f905b808210611ad1575090915081016020016102f0611a7d565b919260018160209254838588010152019101909291611ab9565b7fffffffffffffffffffffffffffffffffffffffffffffffffffffffffffffff001660208086019190915291151560051b840190910191506102f09050611a7d565b346109ed575f6003193601126109ed57611b45612ca9565b5f6001600160a01b0381547fffffffffffffffffffffff0000000000000000000000000000000000000000ff8116835560081c167f8be0079c531659141344cd1fd0a4f28419497f9722a3daafe3b4186f6b6457e08280a3005b346109ed5760606003193601126109ed57611bb8612818565b611bc061282e565b604435916001600160a01b0383168093036109ed576001600160a01b0390611be6612ca9565b16908115611d42576001600160a01b0316908115611cfe578215611cba577f8bb9e0231454a91ee956962915e84237dab1cb5513222f17d97db558c0331b4f92606092827fffffffffffffffffffffffff0000000000000000000000000000000000000000600b541617600b55807fffffffffffffffffffffffff0000000000000000000000000000000000000000600c541617600c55817fffffffffffffffffffffffff0000000000000000000000000000000000000000600d541617600d5560405192835260208301526040820152a1005b606460405162461bcd60e51b815260206004820152601b60248201527f42616c616e636572506f6f6c657256323a207a65726f207573646300000000006044820152fd5b606460405162461bcd60e51b815260206004820152601d60248201527f42616c616e636572506f6f6c657256323a207a65726f207761557364630000006044820152fd5b606460405162461bcd60e51b815260206004820152601f60248201527f42616c616e636572506f6f6c657256323a207a65726f2073776170506f6f6c006044820152fd5b346109ed575f6003193601126109ed57602060ff5f54166040519015158152f35b346109ed575f6003193601126109ed5760206040516001600160a01b037f0000000000000000000000000000000000000000000000000000000000000000168152f35b346109ed5760206003193601126109ed576001600160a01b03611e0b612818565b611e13612ca9565b168015611e47577fffffffffffffffffffffffff000000000000000000000000000000000000000060065416176006555f80f35b608460405162461bcd60e51b815260206004820152602360248201527f42616c616e636572506f6f6c657256323a207a65726f20706f6f6c206164647260448201527f65737300000000000000000000000000000000000000000000000000000000006064820152fd5b346109ed575f6003193601126109ed57611ed76001600160a01b0360015416331461292b565b5f5460ff811615611f32577fffffffffffffffffffffffffffffffffffffffffffffffffffffffffffffff00165f557f5db9ee0a495bf2e6ff9c91a7834c1ba4fdd244a5e8aa4e537bd38aeae4b073aa6020604051338152a1005b7f8dfc202b000000000000000000000000000000000000000000000000000000005f5260045ffd5b346109ed575f6003193601126109ed5760206001600160a01b03600d5416604051908152f35b346109ed5760206003193601126109ed576004356001600160a01b0381168091036109ed57611fad612ca9565b801561200d576001600160a01b03600554827fffffffffffffffffffffffff0000000000000000000000000000000000000000821617600555167f28f7fb7e7a8b1239a2210fff0089ce39da0362e2dd2eecaa013a8996a37a22795f80a3005b606460405162461bcd60e51b815260206004820152601d60248201527f41546f6b656e4469737061746368657256323a207a65726f20686f6f6b0000006044820152fd5b346109ed575f6003193601126109ed5760206001600160a01b03600c5416604051908152f35b346109ed575f6003193601126109ed5760206001600160a01b0360065416604051908152f35b346109ed5760206003193601126109ed576001600160a01b036120be612818565b165f526008602052602060405f2054604051908152f35b346109ed5760606003193601126109ed5760043567ffffffffffffffff81116109ed57612106903690600401612869565b9060243567ffffffffffffffff81116109ed57612127903690600401612869565b929060443567ffffffffffffffff81116109ed57612149903690600401612869565b9091612153612ca9565b67ffffffffffffffff84116123f45761216d600254612897565b601f81116125da575b50835f601f8211600114612559575f9161254e575b508460011b905f198660031b1c1916176002555b67ffffffffffffffff86116123f4576121b9600354612897565b601f81116124ad575b50855f601f821160011461242c575f91612421575b508660011b905f198860031b1c1916176003555b67ffffffffffffffff82116123f457612205600454612897565b601f8111612353575b505f95601f83116001146122a75782916122899161229795947f61b45807b5528344b8b2c26433a3aabead6c9dc6239e146e7ba7c812fded07d0995f9161229c575b508460011b905f198660031b1c1916176004555b61227b60405198899860608a5260608a019161290b565b91878303602089015261290b565b91848303604086015261290b565b0390a1005b90508501358a612250565b601f1983169660045f527f8a35acfbc15ff81a39ae7d344fd709f28e8600b4aa8c65c6b64bfe7fe36bd19b975f5b81811061233b5750917f61b45807b5528344b8b2c26433a3aabead6c9dc6239e146e7ba7c812fded07d09885949261229797966122899510612322575b5050600184811b01600455612264565b5f1960f88760031b161c19908701351690558980612312565b868301358a55600190990198602092830192016122d5565b60045f52601f830160051c7f8a35acfbc15ff81a39ae7d344fd709f28e8600b4aa8c65c6b64bfe7fe36bd19b0190602084106123cc575b601f0160051c7f8a35acfbc15ff81a39ae7d344fd709f28e8600b4aa8c65c6b64bfe7fe36bd19b01905b8181106123c1575061220e565b5f81556001016123b4565b7f8a35acfbc15ff81a39ae7d344fd709f28e8600b4aa8c65c6b64bfe7fe36bd19b915061238a565b7f4e487b71000000000000000000000000000000000000000000000000000000005f52604160045260245ffd5b9050810135876121d7565b90601f19169060035f52877fc2575a0e9e593c00f959f8c92f12db2869c3395a3b0502d05e2516446f71f85b925f5b818110612492575010612479575b5050600186811b016003556121eb565b5f1960f88960031b161c19908301351690558680612469565b8584013585556001909401936020938401938b93500161245b565b60035f52601f870160051c7fc2575a0e9e593c00f959f8c92f12db2869c3395a3b0502d05e2516446f71f85b019060208810612526575b601f0160051c7fc2575a0e9e593c00f959f8c92f12db2869c3395a3b0502d05e2516446f71f85b01905b81811061251b57506121c2565b5f815560010161250e565b7fc2575a0e9e593c00f959f8c92f12db2869c3395a3b0502d05e2516446f71f85b91506124e4565b90508501358761218b565b90601f19169060025f52857f405787fa12a823e0f2b7631cc41b3ba8828b3321ca811111fa75cd3aa3bb5ace925f5b8181106125bf5750106125a6575b5050600184811b0160025561219f565b5f1960f88760031b161c19908701351690558680612596565b89840135855560019094019360209384019389935001612588565b60025f52601f850160051c7f405787fa12a823e0f2b7631cc41b3ba8828b3321ca811111fa75cd3aa3bb5ace019060208610612653575b601f0160051c7f405787fa12a823e0f2b7631cc41b3ba8828b3321ca811111fa75cd3aa3bb5ace01905b8181106126485750612176565b5f815560010161263b565b7f405787fa12a823e0f2b7631cc41b3ba8828b3321ca811111fa75cd3aa3bb5ace9150612611565b346109ed575f6003193601126109ed576040515f60025461269b81612897565b8084529060018116908115611aeb57506001146126c257610304836102f0818503826128e8565b91905060025f527f405787fa12a823e0f2b7631cc41b3ba8828b3321ca811111fa75cd3aa3bb5ace915f905b808210612706575090915081016020016102f0611a7d565b9192600181602092548385880101520191019092916126ee565b346109ed5760406003193601126109ed57612739612818565b6024359081151582036109ed576001600160a01b0390612757612ca9565b169081156127d457156127a0577f8f8a455eb36ca8b47d9bf011994919d05afa0aaa307e59fbbcc9d9fa5d856f6a6020600754835f52600882528060405f2055604051908152a2005b805f5260086020525f60408120557f76bd0073e9077594a5fd0da5aaeb1301a89f41a693a8a8e4b4d77967bcfdfbf35f80a2005b606460405162461bcd60e51b815260206004820152601d60248201527f42616c616e636572506f6f6c657256323a207a65726f20706f6f6c65720000006044820152fd5b600435906001600160a01b03821682036109ed57565b602435906001600160a01b03821682036109ed57565b90601f19601f602080948051918291828752018686015e5f8582860101520116010190565b9181601f840112156109ed5782359167ffffffffffffffff83116109ed57602083818601950101116109ed57565b90600182811c921680156128de575b60208310146128b157565b7f4e487b71000000000000000000000000000000000000000000000000000000005f52602260045260245ffd5b91607f16916128a6565b90601f601f19910116810190811067ffffffffffffffff8211176123f457604052565b601f8260209493601f1993818652868601375f8582860101520116010190565b1561293257565b608460405162461bcd60e51b815260206004820152602860248201527f41546f6b656e4469737061746368657256323a2063616c6c6572206973206e6f60448201527f74206d696e7465720000000000000000000000000000000000000000000000006064820152fd5b908160209103126109ed575190565b919082039182116129b857565b7f4e487b71000000000000000000000000000000000000000000000000000000005f52601160045260245ffd5b8051156129f25760200190565b7f4e487b71000000000000000000000000000000000000000000000000000000005f52603260045260245ffd5b8051600110156129f25760400190565b81601f820112156109ed5780519067ffffffffffffffff82116123f45760405192612a64601f8401601f1916602001856128e8565b828452602083830101116109ed57815f9260208093018386015e8301015290565b90602080835192838152019201905f5b818110612aa25750505090565b8251845260209384019390920191600101612a95565b6040517f70a082310000000000000000000000000000000000000000000000000000000081523060048201526020816024816001600160a01b037f0000000000000000000000000000000000000000000000000000000000000000165afa9081156118fc575f91612c77575b508015612c725760405190612b3a6060836128e8565b6002825260403660208401377f000000000000000000000000000000000000000000000000000000000000000015612c5857612b75826129e5565b525f612b8082612a1f565b525b60206001600160a01b036006541681612bd36040519485937fda001f7d0000000000000000000000000000000000000000000000000000000085526004850152608060248501526084840190612a85565b3060448401525f83820391600319830160648601525201815f6001600160a01b037f0000000000000000000000000000000000000000000000000000000000000000165af19081156118fc575f91612c29575090565b90506020813d602011612c50575b81612c44602093836128e8565b810103126109ed575190565b3d9150612c37565b5f612c62836129e5565b52612c6c82612a1f565b52612b82565b505f90565b90506020813d602011612ca1575b81612c92602093836128e8565b810103126109ed57515f612b24565b3d9150612c85565b6001600160a01b035f5460081c163303612cbf57565b7f118cdaa7000000000000000000000000000000000000000000000000000000005f523360045260245ffd5b60027f9b779b17422d0df92223018b32b4d1fa46e071723d6817e2486d003becc55f005414612d3a5760027f9b779b17422d0df92223018b32b4d1fa46e071723d6817e2486d003becc55f0055565b7f3ee5aeb5000000000000000000000000000000000000000000000000000000005f5260045ffd5b60ff5f5416612d6d57565b7fd93c0665000000000000000000000000000000000000000000000000000000005f5260045ffd5b916001600160a01b03604051927fa9059cbb000000000000000000000000000000000000000000000000000000005f521660045260245260205f60448180865af19060015f5114821615612e24575b60405215612def5750565b6001600160a01b03907f5274afe7000000000000000000000000000000000000000000000000000000005f521660045260245ffd5b906001811516611a1557823b15153d15161690612de456fea2646970667358221220f445b213a9cde02913efd237d482ca3692631400c61c3be14a9c77c842ea28c564736f6c634300081e00336080806040523460135760dc908160188239f35b5f80fdfe6004361015600b575f80fd5b5f3560e01c63a88b539914601d575f80fd5b3460a25760607ffffffffffffffffffffffffffffffffffffffffffffffffffffffffffffffffc36011260a25760043573ffffffffffffffffffffffffffffffffffffffff81160360a25760443567ffffffffffffffff811160a2573660238201121560a257806004013567ffffffffffffffff811160a2573691016024011160a257005b5f80fdfea264697066735822122028bcfdfa2749c984ce6c4a945eee9ce708f63a18d51dc6027f0962d61d12d2e264736f6c634300081e0033000000000000000000000000a3931d71877c0e7a3148cb7eb4463524fec27fbd000000000000000000000000642bb6860b4776cc10b26b8f361fd139e7f0db04000000000000000000000000ba1333333333a1ba1108e8412f11850a5c319ba90000000000000000000000005c6fb490bdfd3246eb0bb062c168decaf4bd9fdd0000000000000000000000000000000000000000000000000000000000000001000000000000000000000000cad1a7864a108dbff67f4b8af71fab0c7a86d0b6",
        "nonce": "0x1e4",
        "chainId": "0x1"
      },
      "additionalContracts": [],
      "isFixedGasLimit": false
    },
    {
      "hash": "0x2b1b96dd665973dd3cf609917ff243b60431786c6ce2910fa55de02bfd237263",
      "transactionType": "CREATE",
      "contractName": "BalancerPoolerMintDebtHook",
      "contractAddress": "0x14277a0bc38a6bb7eb732c3a49190030632f727e",
      "function": null,
      "arguments": [
        "0xCad1a7864a108DBFF67F4b8af71fAB0C7A86D0B6",
        "0x26F89f4B46eB164303985795ee20b15BB1Edb38A",
        "0xf3B5B661b92B75C71fA5Aba8Fd95D7514A9CD605"
      ],
      "transaction": {
        "from": "0xcad1a7864a108dbff67f4b8af71fab0c7a86d0b6",
        "value": "0x0",
        "input": "0x60c0346101df57601f610b6e38819003918201601f19168301916001600160401b038311848410176101e3578084926060946040528339810103126101df57610047816101f7565b61005f6040610058602085016101f7565b93016101f7565b906001600160a01b031680156101cc575f80546001600160a01b031981168317825560405192916001600160a01b03909116907f8be0079c531659141344cd1fd0a4f28419497f9722a3daafe3b4186f6b6457e09080a360017f9b779b17422d0df92223018b32b4d1fa46e071723d6817e2486d003becc55f00556001600160a01b0383161561019b57506001600160a01b031690811561016c5760805260a052603260ff1960035416176003557fbf864e526596d9fbac2581a707699006fabf5850087539d8eabc9adddf1cf721604080515f815260326020820152a1604051610962908161020c82396080518181816101ce01526107de015260a0518181816105ed01526106930152f35b60405162461bcd60e51b8152602060048201526007602482015266070685553443d360cc1b6044820152606490fd5b62461bcd60e51b815260206004820152600c60248201526b0646973706174636865723d360a41b6044820152606490fd5b631e4fbdf760e01b5f525f60045260245ffd5b5f80fd5b634e487b7160e01b5f52604160045260245ffd5b51906001600160a01b03821682036101df5756fe60806040526004361015610011575f80fd5b5f3560e01c80631f1d336e14610611578063236b721b146105c1578063329eb8391461049f5780633bbed4a014610413578063630eb8ab1461040e57806366d003ac146103db578063715018a61461035f57806371ca337d1461033f5780638d994beb146102885780638da5cb5b14610256578063a88b5399146101f2578063cb7e9057146101a2578063d74fee99146101855763f2fde38b146100b3575f80fd5b346101815760206003193601126101815773ffffffffffffffffffffffffffffffffffffffff6100e161062c565b6100e96108e0565b1680156101555773ffffffffffffffffffffffffffffffffffffffff5f54827fffffffffffffffffffffffff00000000000000000000000000000000000000008216175f55167f8be0079c531659141344cd1fd0a4f28419497f9722a3daafe3b4186f6b6457e05f80a3005b7f1e4fbdf7000000000000000000000000000000000000000000000000000000005f525f60045260245ffd5b5f80fd5b34610181575f600319360112610181576020600254604051908152f35b34610181575f60031936011261018157602060405173ffffffffffffffffffffffffffffffffffffffff7f0000000000000000000000000000000000000000000000000000000000000000168152f35b346101815760606003193601126101815761020b61062c565b60443567ffffffffffffffff8111610181573660238201121561018157806004013567ffffffffffffffff811161018157369101602401116101815761025490602435906107c7565b005b34610181575f60031936011261018157602073ffffffffffffffffffffffffffffffffffffffff5f5416604051908152f35b346101815760206003193601126101815760043560ff8116809103610181576102af6108e0565b603281116103175760407fbf864e526596d9fbac2581a707699006fabf5850087539d8eabc9adddf1cf7219160035490807fffffffffffffffffffffffffffffffffffffffffffffffffffffffffffffff0083161760035560ff8351921682526020820152a1005b7f971a8035000000000000000000000000000000000000000000000000000000005f5260045ffd5b34610181575f60031936011261018157602060ff60035416604051908152f35b34610181575f600319360112610181576103776108e0565b5f73ffffffffffffffffffffffffffffffffffffffff81547fffffffffffffffffffffffff000000000000000000000000000000000000000081168355167f8be0079c531659141344cd1fd0a4f28419497f9722a3daafe3b4186f6b6457e08280a3005b34610181575f60031936011261018157602073ffffffffffffffffffffffffffffffffffffffff60015416604051908152f35b610611565b346101815760206003193601126101815761042c61062c565b6104346108e0565b73ffffffffffffffffffffffffffffffffffffffff80600154921691827fffffffffffffffffffffffff0000000000000000000000000000000000000000821617600155167f62e69886a5df0ba8ffcacbfc1388754e7abd9bde24b036354c561f1acd4e45935f80a3005b34610181575f6003193601126101815773ffffffffffffffffffffffffffffffffffffffff5f54163314158061059f575b6105775760027f9b779b17422d0df92223018b32b4d1fa46e071723d6817e2486d003becc55f00541461054f5760027f9b779b17422d0df92223018b32b4d1fa46e071723d6817e2486d003becc55f005561052961064f565b60017f9b779b17422d0df92223018b32b4d1fa46e071723d6817e2486d003becc55f0055005b7f3ee5aeb5000000000000000000000000000000000000000000000000000000005f5260045ffd5b7f7789ff24000000000000000000000000000000000000000000000000000000005f5260045ffd5b5073ffffffffffffffffffffffffffffffffffffffff600154163314156104d0565b34610181575f60031936011261018157602060405173ffffffffffffffffffffffffffffffffffffffff7f0000000000000000000000000000000000000000000000000000000000000000168152f35b34610181575f60031936011261018157602060405160328152f35b6004359073ffffffffffffffffffffffffffffffffffffffff8216820361018157565b73ffffffffffffffffffffffffffffffffffffffff60015416801561079f5760025490811561079b575f60025573ffffffffffffffffffffffffffffffffffffffff7f00000000000000000000000000000000000000000000000000000000000000001690813b15610181575f916044839260405194859384927f40c10f1900000000000000000000000000000000000000000000000000000000845260048401528760248401525af180156107905761074b575b507f51637bd2e008994ddf37a72a4ca329ad9e152304c3e217d166690d3c214ea217602073ffffffffffffffffffffffffffffffffffffffff6001541692604051908152a2565b67ffffffffffffffff8111610763576040525f610704565b7f4e487b71000000000000000000000000000000000000000000000000000000005f52604160045260245ffd5b6040513d5f823e3d90fd5b5050565b7f94d1b98f000000000000000000000000000000000000000000000000000000005f5260045ffd5b73ffffffffffffffffffffffffffffffffffffffff7f00000000000000000000000000000000000000000000000000000000000000001633036108b85760ff60035416808302908382041483151715610886576064900480156108b35760025490808201809211610886577fc38343ad805d8c940fdce52dc6a58d9a35b1e9c09a5fa08460c479e6da7b2556928273ffffffffffffffffffffffffffffffffffffffff92606094600255604051968752602087015260408601521692a2565b7f4e487b71000000000000000000000000000000000000000000000000000000005f52601160045260245ffd5b505050565b7fee5fc5a8000000000000000000000000000000000000000000000000000000005f5260045ffd5b73ffffffffffffffffffffffffffffffffffffffff5f5416330361090057565b7f118cdaa7000000000000000000000000000000000000000000000000000000005f523360045260245ffdfea2646970667358221220185b30d7ed42925dfa44b2fcc716e5b02fc0e742abad5ba6cbe6a6c27f95b57564736f6c634300081e0033000000000000000000000000cad1a7864a108dbff67f4b8af71fab0c7a86d0b600000000000000000000000026f89f4b46eb164303985795ee20b15bb1edb38a000000000000000000000000f3b5b661b92b75c71fa5aba8fd95d7514a9cd605",
        "nonce": "0x1e5",
        "chainId": "0x1"
      },
      "additionalContracts": [],
      "isFixedGasLimit": false
    },
    {
      "hash": "0x92e589f0e8cce273f96074e7c4e4ef7c64092077d8eb9ad0fe46086298a334e3",
      "transactionType": "CALL",
      "contractName": "BalancerPoolerV2",
      "contractAddress": "0x26f89f4b46eb164303985795ee20b15bb1edb38a",
      "function": "setHook(address)",
      "arguments": [
        "0x14277a0BC38a6bb7eb732c3A49190030632F727e"
      ],
      "transaction": {
        "from": "0xcad1a7864a108dbff67f4b8af71fab0c7a86d0b6",
        "to": "0x26f89f4b46eb164303985795ee20b15bb1edb38a",
        "value": "0x0",
        "input": "0x3dfd387300000000000000000000000014277a0bc38a6bb7eb732c3a49190030632f727e",
        "nonce": "0x1e6",
        "chainId": "0x1"
      },
      "additionalContracts": [],
      "isFixedGasLimit": false
    },
    {
      "hash": "0x81c538d9c555de444786df0430bde842345200efb378374499b810ee9bcda88b",
      "transactionType": "CALL",
      "contractName": "BalancerPoolerMintDebtHook",
      "contractAddress": "0x14277a0bc38a6bb7eb732c3a49190030632f727e",
      "function": "setRecipient(address)",
      "arguments": [
        "0xc8514f821A3d801Fa8a8c435840a992A4365a13b"
      ],
      "transaction": {
        "from": "0xcad1a7864a108dbff67f4b8af71fab0c7a86d0b6",
        "to": "0x14277a0bc38a6bb7eb732c3a49190030632f727e",
        "value": "0x0",
        "input": "0x3bbed4a0000000000000000000000000c8514f821a3d801fa8a8c435840a992a4365a13b",
        "nonce": "0x1e7",
        "chainId": "0x1"
      },
      "additionalContracts": [],
      "isFixedGasLimit": false
    },
    {
      "hash": "0x512a7abc63989e3fd759c9ca9354dc81cf21ef645c4840271061a0282e73f35c",
      "transactionType": "CALL",
      "contractName": null,
      "contractAddress": "0xf3b5b661b92b75c71fa5aba8fd95d7514a9cd605",
      "function": "setMinter(address,bool)",
      "arguments": [
        "0x14277a0BC38a6bb7eb732c3A49190030632F727e",
        "true"
      ],
      "transaction": {
        "from": "0xcad1a7864a108dbff67f4b8af71fab0c7a86d0b6",
        "to": "0xf3b5b661b92b75c71fa5aba8fd95d7514a9cd605",
        "value": "0x0",
        "input": "0xcf456ae700000000000000000000000014277a0bc38a6bb7eb732c3a49190030632f727e0000000000000000000000000000000000000000000000000000000000000001",
        "nonce": "0x1e8",
        "chainId": "0x1"
      },
      "additionalContracts": [],
      "isFixedGasLimit": false
    },
    {
      "hash": "0x4f23f405204f6aa786b193bdd56280f2c5a85fe7389c276aea4e1183fed8b55b",
      "transactionType": "CALL",
      "contractName": "BalancerPoolerV2",
      "contractAddress": "0x26f89f4b46eb164303985795ee20b15bb1edb38a",
      "function": "setBatchDonationSize(uint256)",
      "arguments": [
        "0"
      ],
      "transaction": {
        "from": "0xcad1a7864a108dbff67f4b8af71fab0c7a86d0b6",
        "to": "0x26f89f4b46eb164303985795ee20b15bb1edb38a",
        "value": "0x0",
        "input": "0xa1d65e390000000000000000000000000000000000000000000000000000000000000000",
        "nonce": "0x1e9",
        "chainId": "0x1"
      },
      "additionalContracts": [],
      "isFixedGasLimit": false
    },
    {
      "hash": "0x967424c991b0eb550441365d3c68b63ce1bc1b62244a2db71b576abaf1e3f9b8",
      "transactionType": "CALL",
      "contractName": "BalancerPoolerV2",
      "contractAddress": "0x26f89f4b46eb164303985795ee20b15bb1edb38a",
      "function": "setBatchMinter(address)",
      "arguments": [
        "0x4ef0fDe49360ed31c68ED442Ff263CC6291041f3"
      ],
      "transaction": {
        "from": "0xcad1a7864a108dbff67f4b8af71fab0c7a86d0b6",
        "to": "0x26f89f4b46eb164303985795ee20b15bb1edb38a",
        "value": "0x0",
        "input": "0xb1db90440000000000000000000000004ef0fde49360ed31c68ed442ff263cc6291041f3",
        "nonce": "0x1ea",
        "chainId": "0x1"
      },
      "additionalContracts": [],
      "isFixedGasLimit": false
    },
    {
      "hash": "0xdfe869003f4c1f5c3c94d92a427836881019d8a5659ed8d69bb6b39007a3b732",
      "transactionType": "CALL",
      "contractName": "BalancerPoolerV2",
      "contractAddress": "0x26f89f4b46eb164303985795ee20b15bb1edb38a",
      "function": "setSwapConfig(address,address,address)",
      "arguments": [
        "0x0B65A4505E8C323AE4fEDcc48515FD713dC9d8C0",
        "0xD4fa2D31b7968E448877f69A96DE69f5de8cD23E",
        "0xA0b86991c6218b36c1d19D4a2e9Eb0cE3606eB48"
      ],
      "transaction": {
        "from": "0xcad1a7864a108dbff67f4b8af71fab0c7a86d0b6",
        "to": "0x26f89f4b46eb164303985795ee20b15bb1edb38a",
        "value": "0x0",
        "input": "0x6b28e5870000000000000000000000000b65a4505e8c323ae4fedcc48515fd713dc9d8c0000000000000000000000000d4fa2d31b7968e448877f69a96de69f5de8cd23e000000000000000000000000a0b86991c6218b36c1d19d4a2e9eb0ce3606eb48",
        "nonce": "0x1eb",
        "chainId": "0x1"
      },
      "additionalContracts": [],
      "isFixedGasLimit": false
    },
    {
      "hash": "0x898b9b8e487937af368044e5a6470d6cb22f3bb77f3957f74d46cc4895018bdf",
      "transactionType": "CALL",
      "contractName": "BalancerPoolerV2",
      "contractAddress": "0x26f89f4b46eb164303985795ee20b15bb1edb38a",
      "function": "setAuthorizedPooler(address,bool)",
      "arguments": [
        "0xCad1a7864a108DBFF67F4b8af71fAB0C7A86D0B6",
        "true"
      ],
      "transaction": {
        "from": "0xcad1a7864a108dbff67f4b8af71fab0c7a86d0b6",
        "to": "0x26f89f4b46eb164303985795ee20b15bb1edb38a",
        "value": "0x0",
        "input": "0x0281d95c000000000000000000000000cad1a7864a108dbff67f4b8af71fab0c7a86d0b60000000000000000000000000000000000000000000000000000000000000001",
        "nonce": "0x1ec",
        "chainId": "0x1"
      },
      "additionalContracts": [],
      "isFixedGasLimit": false
    },
    {
      "hash": "0x0796d617a5567d8c05ec2e9d15b2a715ffbbf60dee18f2be9396ff46a4ba04cd",
      "transactionType": "CALL",
      "contractName": "BalancerPoolerV2",
      "contractAddress": "0x26f89f4b46eb164303985795ee20b15bb1edb38a",
      "function": "setAuthorizedPooler(address,bool)",
      "arguments": [
        "0xCad1a7864a108DBFF67F4b8af71fAB0C7A86D0B6",
        "true"
      ],
      "transaction": {
        "from": "0xcad1a7864a108dbff67f4b8af71fab0c7a86d0b6",
        "to": "0x26f89f4b46eb164303985795ee20b15bb1edb38a",
        "value": "0x0",
        "input": "0x0281d95c000000000000000000000000cad1a7864a108dbff67f4b8af71fab0c7a86d0b60000000000000000000000000000000000000000000000000000000000000001",
        "nonce": "0x1ed",
        "chainId": "0x1"
      },
      "additionalContracts": [],
      "isFixedGasLimit": false
    },
    {
      "hash": "0xc384cfa66a3e70bb163eb4c3ea6f8785128d49709a57ca7bb5f3f1ac9da86575",
      "transactionType": "CALL",
      "contractName": null,
      "contractAddress": "0x4da153dc02bb084528d10335759f2c4447e6f73d",
      "function": "withdrawBPT(address,uint256)",
      "arguments": [
        "0xCad1a7864a108DBFF67F4b8af71fAB0C7A86D0B6",
        "835271206044973252172"
      ],
      "transaction": {
        "from": "0xcad1a7864a108dbff67f4b8af71fab0c7a86d0b6",
        "to": "0x4da153dc02bb084528d10335759f2c4447e6f73d",
        "value": "0x0",
        "input": "0xc580a540000000000000000000000000cad1a7864a108dbff67f4b8af71fab0c7a86d0b600000000000000000000000000000000000000000000002d47b77070febdbe4c",
        "nonce": "0x1ee",
        "chainId": "0x1"
      },
      "additionalContracts": [],
      "isFixedGasLimit": false
    },
    {
      "hash": "0x06d94c59a3bf56866e2ccb7ac9282e53b5d193faff9c35fa1f91b355b5d9c4d1",
      "transactionType": "CALL",
      "contractName": null,
      "contractAddress": "0x642bb6860b4776cc10b26b8f361fd139e7f0db04",
      "function": "transfer(address,uint256)",
      "arguments": [
        "0x26F89f4B46eB164303985795ee20b15BB1Edb38A",
        "835271206044973252172"
      ],
      "transaction": {
        "from": "0xcad1a7864a108dbff67f4b8af71fab0c7a86d0b6",
        "to": "0x642bb6860b4776cc10b26b8f361fd139e7f0db04",
        "value": "0x0",
        "input": "0xa9059cbb00000000000000000000000026f89f4b46eb164303985795ee20b15bb1edb38a00000000000000000000000000000000000000000000002d47b77070febdbe4c",
        "nonce": "0x1ef",
        "chainId": "0x1"
      },
      "additionalContracts": [],
      "isFixedGasLimit": false
    },
    {
      "hash": "0x9370f5f85f08099a2eda68db8d7bf12e1b31a1991093c1e1cc437af8d4f6198b",
      "transactionType": "CALL",
      "contractName": null,
      "contractAddress": "0xc8514f821a3d801fa8a8c435840a992a4365a13b",
      "function": "setDispatcherHook(address)",
      "arguments": [
        "0x14277a0BC38a6bb7eb732c3A49190030632F727e"
      ],
      "transaction": {
        "from": "0xcad1a7864a108dbff67f4b8af71fab0c7a86d0b6",
        "to": "0xc8514f821a3d801fa8a8c435840a992a4365a13b",
        "value": "0x0",
        "input": "0x53a34c2900000000000000000000000014277a0bc38a6bb7eb732c3a49190030632f727e",
        "nonce": "0x1f0",
        "chainId": "0x1"
      },
      "additionalContracts": [],
      "isFixedGasLimit": false
    },
    {
      "hash": "0xa72ff10120cb315008468716bd1eea247db46eff4ebae769836d58503b369e95",
      "transactionType": "CALL",
      "contractName": null,
      "contractAddress": "0x39af088408e815844c567037c157b31d48d2e10f",
      "function": "replaceDispatcher(uint256,address)",
      "arguments": [
        "4",
        "0x26F89f4B46eB164303985795ee20b15BB1Edb38A"
      ],
      "transaction": {
        "from": "0xcad1a7864a108dbff67f4b8af71fab0c7a86d0b6",
        "to": "0x39af088408e815844c567037c157b31d48d2e10f",
        "value": "0x0",
        "input": "0xba0f3480000000000000000000000000000000000000000000000000000000000000000400000000000000000000000026f89f4b46eb164303985795ee20b15bb1edb38a",
        "nonce": "0x1f1",
        "chainId": "0x1"
      },
      "additionalContracts": [],
      "isFixedGasLimit": false
    },
    {
      "hash": "0xdf47cb5600b140c0e36bf0fc4e3281e1dedda5085f9ea03e3164e323f9483762",
      "transactionType": "CALL",
      "contractName": null,
      "contractAddress": "0xf3b5b661b92b75c71fa5aba8fd95d7514a9cd605",
      "function": "setMinter(address,bool)",
      "arguments": [
        "0xBe79DC2C302165025166f09193d9905EF262C064",
        "false"
      ],
      "transaction": {
        "from": "0xcad1a7864a108dbff67f4b8af71fab0c7a86d0b6",
        "to": "0xf3b5b661b92b75c71fa5aba8fd95d7514a9cd605",
        "value": "0x0",
        "input": "0xcf456ae7000000000000000000000000be79dc2c302165025166f09193d9905ef262c0640000000000000000000000000000000000000000000000000000000000000000",
        "nonce": "0x1f2",
        "chainId": "0x1"
      },
      "additionalContracts": [],
      "isFixedGasLimit": false
    },
    {
      "hash": "0xa0061a33d35e7fbb979ba56d7adc4019b685d50d3954d3e90fde270133a538f2",
      "transactionType": "CALL",
      "contractName": null,
      "contractAddress": "0x39af088408e815844c567037c157b31d48d2e10f",
      "function": "setAuthorizedBurner(address,bool)",
      "arguments": [
        "0xCad1a7864a108DBFF67F4b8af71fAB0C7A86D0B6",
        "true"
      ],
      "transaction": {
        "from": "0xcad1a7864a108dbff67f4b8af71fab0c7a86d0b6",
        "to": "0x39af088408e815844c567037c157b31d48d2e10f",
        "value": "0x0",
        "input": "0x0ac28ff8000000000000000000000000cad1a7864a108dbff67f4b8af71fab0c7a86d0b60000000000000000000000000000000000000000000000000000000000000001",
        "nonce": "0x1f3",
        "chainId": "0x1"
      },
      "additionalContracts": [],
      "isFixedGasLimit": false
    },
    {
      "hash": "0xea2325bee52c83b4734af397ca1789ef46c60a16d41912e1c9431fcae0d810bd",
      "transactionType": "CALL",
      "contractName": null,
      "contractAddress": "0x39af088408e815844c567037c157b31d48d2e10f",
      "function": "burn(address,uint256,uint256)",
      "arguments": [
        "0x64d3CbAB6100782a7839fC1af791027a2f1908D2",
        "6",
        "41"
      ],
      "transaction": {
        "from": "0xcad1a7864a108dbff67f4b8af71fab0c7a86d0b6",
        "to": "0x39af088408e815844c567037c157b31d48d2e10f",
        "value": "0x0",
        "input": "0xf5298aca00000000000000000000000064d3cbab6100782a7839fc1af791027a2f1908d200000000000000000000000000000000000000000000000000000000000000060000000000000000000000000000000000000000000000000000000000000029",
        "nonce": "0x1f4",
        "chainId": "0x1"
      },
      "additionalContracts": [],
      "isFixedGasLimit": false
    },
    {
      "hash": "0xd2b119f1f63be73f968c0f46f7c26eb0c42b06f3e3133b279407d9352d83fce6",
      "transactionType": "CALL",
      "contractName": null,
      "contractAddress": "0x39af088408e815844c567037c157b31d48d2e10f",
      "function": "setAuthorizedBurner(address,bool)",
      "arguments": [
        "0xCad1a7864a108DBFF67F4b8af71fAB0C7A86D0B6",
        "false"
      ],
      "transaction": {
        "from": "0xcad1a7864a108dbff67f4b8af71fab0c7a86d0b6",
        "to": "0x39af088408e815844c567037c157b31d48d2e10f",
        "value": "0x0",
        "input": "0x0ac28ff8000000000000000000000000cad1a7864a108dbff67f4b8af71fab0c7a86d0b60000000000000000000000000000000000000000000000000000000000000000",
        "nonce": "0x1f5",
        "chainId": "0x1"
      },
      "additionalContracts": [],
      "isFixedGasLimit": false
    },
    {
      "hash": "0x5386b39505c02f59309ef4ca311b4ddb0239e4e5a122b33f1b0a7fe1e4ba1e55",
      "transactionType": "CALL",
      "contractName": null,
      "contractAddress": "0x39af088408e815844c567037c157b31d48d2e10f",
      "function": "setDispatcherDisabled(uint256,bool)",
      "arguments": [
        "6",
        "true"
      ],
      "transaction": {
        "from": "0xcad1a7864a108dbff67f4b8af71fab0c7a86d0b6",
        "to": "0x39af088408e815844c567037c157b31d48d2e10f",
        "value": "0x0",
        "input": "0x81546b2100000000000000000000000000000000000000000000000000000000000000060000000000000000000000000000000000000000000000000000000000000001",
        "nonce": "0x1f6",
        "chainId": "0x1"
      },
      "additionalContracts": [],
      "isFixedGasLimit": false
    }
  ],
  "receipts": [
    {
      "status": "0x1",
      "cumulativeGasUsed": "0x188c848",
      "logs": [
        {
          "address": "0xc8514f821a3d801fa8a8c435840a992a4365a13b",
          "topics": [
            "0x8e8417de3051f50654f67ecdc7b74e565ec332647fdec5a3e86111058f61dedf"
          ],
          "data": "0x00000000000000000000000000000000000000000000005a7053965905c93b7f000000000000000000000000000000000000000000000030102c3e2b815fd46a00000000000000000000000000000000000000000000000000000e6f201ab058000000000000000000000000000000000000000000000000000000006d6434e7",
          "blockHash": "0x99eded16e70d0f0d300f9d3f5c3e281709419dabddf99abb4e58fa692509ecc3",
          "blockNumber": "0x17fba12",
          "blockTimestamp": "0x6a0fc493",
          "transactionHash": "0x92f10ea69b92bb928fa66a5f50ffbe9c596f0f9c90c33d91627bfbe5759762ab",
          "transactionIndex": "0xb1",
          "logIndex": "0x2ca",
          "removed": false
        }
      ],
      "logsBloom": "0x00000000000000000000000000000000000000000000000000000000000000000000000000000000000000000000000000000000000000000000000000000000000000000000000000000000000000000000800040000000000000000000000000000000000000000000000000000000000000000000000000000000000000000001000000000100000000000000000000000000000000000000000000008000000000000000000000000000000000000000000000000000000000000000000000000000000000000000000000000000000000000000000000000000000000000000004000000000000000000000000000000000000000000000000000000000",
      "type": "0x2",
      "transactionHash": "0x92f10ea69b92bb928fa66a5f50ffbe9c596f0f9c90c33d91627bfbe5759762ab",
      "transactionIndex": "0xb1",
      "blockHash": "0x99eded16e70d0f0d300f9d3f5c3e281709419dabddf99abb4e58fa692509ecc3",
      "blockNumber": "0x17fba12",
      "gasUsed": "0x17703",
      "effectiveGasPrice": "0x6e9e9c4",
      "from": "0xcad1a7864a108dbff67f4b8af71fab0c7a86d0b6",
      "to": "0xc8514f821a3d801fa8a8c435840a992a4365a13b",
      "contractAddress": null
    },
    {
      "status": "0x1",
      "cumulativeGasUsed": "0x18d4cc2",
      "logs": [
        {
          "address": "0x26f89f4b46eb164303985795ee20b15bb1edb38a",
          "topics": [
            "0x8be0079c531659141344cd1fd0a4f28419497f9722a3daafe3b4186f6b6457e0",
            "0x0000000000000000000000000000000000000000000000000000000000000000",
            "0x000000000000000000000000cad1a7864a108dbff67f4b8af71fab0c7a86d0b6"
          ],
          "data": "0x",
          "blockHash": "0xc1fce929fb722fe5dc5a8e48d232eb4d87185fdd82b4f4b613c896ff9cebdfc3",
          "blockNumber": "0x17fba13",
          "blockTimestamp": "0x6a0fc49f",
          "transactionHash": "0x2e20045ecf14858940ad847212430a57e1d9e930ceb11a104bbbae1090fd3696",
          "transactionIndex": "0xbe",
          "logIndex": "0x34f",
          "removed": false
        }
      ],
      "logsBloom": "0x00000000000000000020000000000000000000000000000000800000000000000000000000000000000000400000000000000000000000000000000000000000000000000000200000000000000000000001000000000000000000000000000000000000020000000000000000000800000000000000000000000000000000400000000000000000000000000000000000000000000000000000000000000000000000000000000000002000000000000000000000000000000000000000000100000000000000000000000000000000000000000000100000000000000020000000000000000000000000000000000000000000000000000000000000000000",
      "type": "0x2",
      "transactionHash": "0x2e20045ecf14858940ad847212430a57e1d9e930ceb11a104bbbae1090fd3696",
      "transactionIndex": "0xbe",
      "blockHash": "0xc1fce929fb722fe5dc5a8e48d232eb4d87185fdd82b4f4b613c896ff9cebdfc3",
      "blockNumber": "0x17fba13",
      "gasUsed": "0x2b0628",
      "effectiveGasPrice": "0x6e4caa0",
      "from": "0xcad1a7864a108dbff67f4b8af71fab0c7a86d0b6",
      "to": null,
      "contractAddress": "0x26f89f4b46eb164303985795ee20b15bb1edb38a"
    },
    {
      "status": "0x1",
      "cumulativeGasUsed": "0xed84ca",
      "logs": [
        {
          "address": "0x14277a0bc38a6bb7eb732c3a49190030632f727e",
          "topics": [
            "0x8be0079c531659141344cd1fd0a4f28419497f9722a3daafe3b4186f6b6457e0",
            "0x0000000000000000000000000000000000000000000000000000000000000000",
            "0x000000000000000000000000cad1a7864a108dbff67f4b8af71fab0c7a86d0b6"
          ],
          "data": "0x",
          "blockHash": "0x070288d91237861ebf9236e87cc27b7000d89bd1c6560ebfe81f309594781302",
          "blockNumber": "0x17fba14",
          "blockTimestamp": "0x6a0fc4ab",
          "transactionHash": "0x2b1b96dd665973dd3cf609917ff243b60431786c6ce2910fa55de02bfd237263",
          "transactionIndex": "0x73",
          "logIndex": "0x1b4",
          "removed": false
        },
        {
          "address": "0x14277a0bc38a6bb7eb732c3a49190030632f727e",
          "topics": [
            "0xbf864e526596d9fbac2581a707699006fabf5850087539d8eabc9adddf1cf721"
          ],
          "data": "0x00000000000000000000000000000000000000000000000000000000000000000000000000000000000000000000000000000000000000000000000000000032",
          "blockHash": "0x070288d91237861ebf9236e87cc27b7000d89bd1c6560ebfe81f309594781302",
          "blockNumber": "0x17fba14",
          "blockTimestamp": "0x6a0fc4ab",
          "transactionHash": "0x2b1b96dd665973dd3cf609917ff243b60431786c6ce2910fa55de02bfd237263",
          "transactionIndex": "0x73",
          "logIndex": "0x1b5",
          "removed": false
        }
      ],
      "logsBloom": "0x00000000000000000020000000000000000000000000000000800000000000000000000000000000000000400000000000400000000000000000000000000000000000000000000000000000000000000001000000000000000000000000000000000000020000000000000000000800000000000000000000000000000000400000000000000000000000000000000000280000000000000000000000000000000000000000000000000000000000000000000000000040000000000000000000000000000000000000000000000000000000000000100000000000000020000000000000000000000000000000000000000800000040000000000000000000",
      "type": "0x2",
      "transactionHash": "0x2b1b96dd665973dd3cf609917ff243b60431786c6ce2910fa55de02bfd237263",
      "transactionIndex": "0x73",
      "blockHash": "0x070288d91237861ebf9236e87cc27b7000d89bd1c6560ebfe81f309594781302",
      "blockNumber": "0x17fba14",
      "gasUsed": "0x9db22",
      "effectiveGasPrice": "0x6ccb450",
      "from": "0xcad1a7864a108dbff67f4b8af71fab0c7a86d0b6",
      "to": null,
      "contractAddress": "0x14277a0bc38a6bb7eb732c3a49190030632f727e"
    },
    {
      "status": "0x1",
      "cumulativeGasUsed": "0x1334edc",
      "logs": [
        {
          "address": "0x26f89f4b46eb164303985795ee20b15bb1edb38a",
          "topics": [
            "0x28f7fb7e7a8b1239a2210fff0089ce39da0362e2dd2eecaa013a8996a37a2279",
            "0x0000000000000000000000001683ffc10380db8a267e97a87171ef6c7531f65c",
            "0x00000000000000000000000014277a0bc38a6bb7eb732c3a49190030632f727e"
          ],
          "data": "0x",
          "blockHash": "0xce113bac69eb406b72f176b4ec2a4afc4034576fb7f039df8f0dac1a0c02dae3",
          "blockNumber": "0x17fba15",
          "blockTimestamp": "0x6a0fc4b7",
          "transactionHash": "0x92e589f0e8cce273f96074e7c4e4ef7c64092077d8eb9ad0fe46086298a334e3",
          "transactionIndex": "0x8b",
          "logIndex": "0x2b2",
          "removed": false
        }
      ],
      "logsBloom": "0x04000000000080010000000000000000000000000000000000000000000000000000000000000000000000000000000000000000000000000000000000000020000000000000200000000000000000000000000000000000000000000000000000000000000000000000000000000000000000000000000000000000000000000000000000000000000000000000000000000000000000000000000008000400000000000000000000002008000000000000000000000000000000000000000100000000000000000000000000000000000000000000000000000000000000000000000040000000000000000000000000000000000000000000000000000002",
      "type": "0x2",
      "transactionHash": "0x92e589f0e8cce273f96074e7c4e4ef7c64092077d8eb9ad0fe46086298a334e3",
      "transactionIndex": "0x8b",
      "blockHash": "0xce113bac69eb406b72f176b4ec2a4afc4034576fb7f039df8f0dac1a0c02dae3",
      "blockNumber": "0x17fba15",
      "gasUsed": "0x76fb",
      "effectiveGasPrice": "0x685ecdf",
      "from": "0xcad1a7864a108dbff67f4b8af71fab0c7a86d0b6",
      "to": "0x26f89f4b46eb164303985795ee20b15bb1edb38a",
      "contractAddress": null
    },
    {
      "status": "0x1",
      "cumulativeGasUsed": "0x18b6899",
      "logs": [
        {
          "address": "0x14277a0bc38a6bb7eb732c3a49190030632f727e",
          "topics": [
            "0x62e69886a5df0ba8ffcacbfc1388754e7abd9bde24b036354c561f1acd4e4593",
            "0x0000000000000000000000000000000000000000000000000000000000000000",
            "0x000000000000000000000000c8514f821a3d801fa8a8c435840a992a4365a13b"
          ],
          "data": "0x",
          "blockHash": "0xd023938ea239465740f0976ecef952d808eb1e9abe07ad277c11102a03a7458c",
          "blockNumber": "0x17fba16",
          "blockTimestamp": "0x6a0fc4c3",
          "transactionHash": "0x81c538d9c555de444786df0430bde842345200efb378374499b810ee9bcda88b",
          "transactionIndex": "0xe3",
          "logIndex": "0x2f2",
          "removed": false
        }
      ],
      "logsBloom": "0x00000000000000000000000000000000000000000000000000000000000000000000000000000000000000000000000000400000000000000000000000000000000000010000000000000000000000000000000000000000000000000000000000000000020000000000000000000820000000000000000000000000000000000000200000000000000800000002000000000000000000800000000000000000000000000000000000000000000000000000000000000040000000000000000000000000000000000000000000000000000000000000000000000000000020000000000000000000000000000000000000000800000000000000000000000000",
      "type": "0x2",
      "transactionHash": "0x81c538d9c555de444786df0430bde842345200efb378374499b810ee9bcda88b",
      "transactionIndex": "0xe3",
      "blockHash": "0xd023938ea239465740f0976ecef952d808eb1e9abe07ad277c11102a03a7458c",
      "blockNumber": "0x17fba16",
      "gasUsed": "0xb976",
      "effectiveGasPrice": "0x66e6bbc",
      "from": "0xcad1a7864a108dbff67f4b8af71fab0c7a86d0b6",
      "to": "0x14277a0bc38a6bb7eb732c3a49190030632f727e",
      "contractAddress": null
    },
    {
      "status": "0x1",
      "cumulativeGasUsed": "0x1954747",
      "logs": [
        {
          "address": "0xf3b5b661b92b75c71fa5aba8fd95d7514a9cd605",
          "topics": [
            "0x34e56df787a7a59706503a81c304ed0ef46ddd2dfcdf1c8c8d1db684f3639fdd",
            "0x00000000000000000000000014277a0bc38a6bb7eb732c3a49190030632f727e"
          ],
          "data": "0x00000000000000000000000000000000000000000000000000000000000000010000000000000000000000000000000000000000000000000000000000000000",
          "blockHash": "0xc0f1a20eaef7ff34d644d2b8e0e28778203b433d7f90a1ad9a8fb8fea987262e",
          "blockNumber": "0x17fba17",
          "blockTimestamp": "0x6a0fc4cf",
          "transactionHash": "0x512a7abc63989e3fd759c9ca9354dc81cf21ef645c4840271061a0282e73f35c",
          "transactionIndex": "0xb6",
          "logIndex": "0x23e",
          "removed": false
        }
      ],
      "logsBloom": "0x00000000000000000000000008000000000000000000000000000000000000000000000000000000000000000000000000000000000000000000000000000020000000000000000000000000000000000000000000000000000000000000000008000000000000000000000000000000000000000000000004000000100000000000000000000000000000000000000000000000000000000000000000000000000000000000000000000000000000000000000000000000000000000000000000800000000000000000000000000000000000000000000000000000000000000000000040000000000000000000000000000000000000000000400000000002",
      "type": "0x2",
      "transactionHash": "0x512a7abc63989e3fd759c9ca9354dc81cf21ef645c4840271061a0282e73f35c",
      "transactionIndex": "0xb6",
      "blockHash": "0xc0f1a20eaef7ff34d644d2b8e0e28778203b433d7f90a1ad9a8fb8fea987262e",
      "blockNumber": "0x17fba17",
      "gasUsed": "0xd3fe",
      "effectiveGasPrice": "0x6829008",
      "from": "0xcad1a7864a108dbff67f4b8af71fab0c7a86d0b6",
      "to": "0xf3b5b661b92b75c71fa5aba8fd95d7514a9cd605",
      "contractAddress": null
    },
    {
      "status": "0x1",
      "cumulativeGasUsed": "0xc1efdd",
      "logs": [
        {
          "address": "0x26f89f4b46eb164303985795ee20b15bb1edb38a",
          "topics": [
            "0x074731357d33727f4901077a97ee097d688cb98f4e4565c7e39e804dd986ced4"
          ],
          "data": "0x0000000000000000000000000000000000000000000000000000000000000000",
          "blockHash": "0xe650b762c9f3cba7f75fb2b28d87e3fbe3026bf06f79f3d9d49d400c89044364",
          "blockNumber": "0x17fba18",
          "blockTimestamp": "0x6a0fc4db",
          "transactionHash": "0x4f23f405204f6aa786b193bdd56280f2c5a85fe7389c276aea4e1183fed8b55b",
          "transactionIndex": "0x54",
          "logIndex": "0x1b9",
          "removed": false
        }
      ],
      "logsBloom": "0x00000000000000000000000000000000000000000000000000000000000000000000000000000000000000000000000000000000000000000000000000000000000000000000200000000000000080000000000000000000000000000000000000000000000000000000000000000000000000000000000000000000000000000000000000000000000000000000000000000000000000000000010000000000000000000000000000002000000000000000000000000000000000000000000100000000000000000000000000000000000000000000000000000000000000000000000000000010000000000000000000000000000000000000000000000000",
      "type": "0x2",
      "transactionHash": "0x4f23f405204f6aa786b193bdd56280f2c5a85fe7389c276aea4e1183fed8b55b",
      "transactionIndex": "0x54",
      "blockHash": "0xe650b762c9f3cba7f75fb2b28d87e3fbe3026bf06f79f3d9d49d400c89044364",
      "blockNumber": "0x17fba18",
      "gasUsed": "0x6a81",
      "effectiveGasPrice": "0x6788d94",
      "from": "0xcad1a7864a108dbff67f4b8af71fab0c7a86d0b6",
      "to": "0x26f89f4b46eb164303985795ee20b15bb1edb38a",
      "contractAddress": null
    },
    {
      "status": "0x1",
      "cumulativeGasUsed": "0x1d9f2ba",
      "logs": [
        {
          "address": "0x26f89f4b46eb164303985795ee20b15bb1edb38a",
          "topics": [
            "0xa7978870153ece652cc4657688816871cbe0106d26a50cbd2239fecedb8de1c4"
          ],
          "data": "0x0000000000000000000000004ef0fde49360ed31c68ed442ff263cc6291041f3",
          "blockHash": "0xfffe4867577d8724b153ba58371851eec70eb02be96e6c0391ac098e0eab0269",
          "blockNumber": "0x17fba19",
          "blockTimestamp": "0x6a0fc4e7",
          "transactionHash": "0x967424c991b0eb550441365d3c68b63ce1bc1b62244a2db71b576abaf1e3f9b8",
          "transactionIndex": "0xb7",
          "logIndex": "0x3bc",
          "removed": false
        }
      ],
      "logsBloom": "0x08000000000000000000000000000000000000000000000000000000000000000000000000000000000000000000000000000000000000000000000000000000000000000000200000000000000000000000000000000000000000000000800000000000000000000000000000000000000000000000000000000000000000000000000000100000000000000000000000000000000000000000000000000000000000000000000000002000000000000000000000000000000000000000000100000000000000000000000000000000000000000000000000000000000000000000000000000000000000000000000000000000000000000000000000000000",
      "type": "0x2",
      "transactionHash": "0x967424c991b0eb550441365d3c68b63ce1bc1b62244a2db71b576abaf1e3f9b8",
      "transactionIndex": "0xb7",
      "blockHash": "0xfffe4867577d8724b153ba58371851eec70eb02be96e6c0391ac098e0eab0269",
      "blockNumber": "0x17fba19",
      "gasUsed": "0xb98b",
      "effectiveGasPrice": "0x6a7ab5f",
      "from": "0xcad1a7864a108dbff67f4b8af71fab0c7a86d0b6",
      "to": "0x26f89f4b46eb164303985795ee20b15bb1edb38a",
      "contractAddress": null
    },
    {
      "status": "0x1",
      "cumulativeGasUsed": "0x1ea8c51",
      "logs": [
        {
          "address": "0x26f89f4b46eb164303985795ee20b15bb1edb38a",
          "topics": [
            "0x8bb9e0231454a91ee956962915e84237dab1cb5513222f17d97db558c0331b4f"
          ],
          "data": "0x0000000000000000000000000b65a4505e8c323ae4fedcc48515fd713dc9d8c0000000000000000000000000d4fa2d31b7968e448877f69a96de69f5de8cd23e000000000000000000000000a0b86991c6218b36c1d19d4a2e9eb0ce3606eb48",
          "blockHash": "0xe04a58458a2a7aa3fd047e09e65c4a0038bc85694136af494cc7331a63c4c5c5",
          "blockNumber": "0x17fba1b",
          "blockTimestamp": "0x6a0fc4ff",
          "transactionHash": "0xdfe869003f4c1f5c3c94d92a427836881019d8a5659ed8d69bb6b39007a3b732",
          "transactionIndex": "0x95",
          "logIndex": "0x49e",
          "removed": false
        }
      ],
      "logsBloom": "0x00000000000000000000000000000000000000000000000000000000000000020000000000000000000000000000000000000000000000000000000000000000000000000000200000000000000000000000000000000000000000000000000000000000000000000000000000000000000000000000000000000000000000000000000000000000000000000000000000000000000000000002000000000000000000010000000000002000000000000000000000000000000000000000000100000000000000000000000000000000000000000000000000000000000000000000000000000000000000000000000000000000000000000000000000000000",
      "type": "0x2",
      "transactionHash": "0xdfe869003f4c1f5c3c94d92a427836881019d8a5659ed8d69bb6b39007a3b732",
      "transactionIndex": "0x95",
      "blockHash": "0xe04a58458a2a7aa3fd047e09e65c4a0038bc85694136af494cc7331a63c4c5c5",
      "blockNumber": "0x17fba1b",
      "gasUsed": "0x16b1f",
      "effectiveGasPrice": "0x67959b4",
      "from": "0xcad1a7864a108dbff67f4b8af71fab0c7a86d0b6",
      "to": "0x26f89f4b46eb164303985795ee20b15bb1edb38a",
      "contractAddress": null
    },
    {
      "status": "0x1",
      "cumulativeGasUsed": "0x177c9a5",
      "logs": [
        {
          "address": "0x26f89f4b46eb164303985795ee20b15bb1edb38a",
          "topics": [
            "0x8f8a455eb36ca8b47d9bf011994919d05afa0aaa307e59fbbcc9d9fa5d856f6a",
            "0x000000000000000000000000cad1a7864a108dbff67f4b8af71fab0c7a86d0b6"
          ],
          "data": "0x0000000000000000000000000000000000000000000000000000000000000001",
          "blockHash": "0xd1077f3f9572374e3ebf29fd706a5893a24326e72c690e524b54e73af53fb661",
          "blockNumber": "0x17fba1c",
          "blockTimestamp": "0x6a0fc50b",
          "transactionHash": "0x898b9b8e487937af368044e5a6470d6cb22f3bb77f3957f74d46cc4895018bdf",
          "transactionIndex": "0xef",
          "logIndex": "0x274",
          "removed": false
        }
      ],
      "logsBloom": "0x00000000000000000020004000000000000000000000000000000400000000000000000000000000000000400000000000000000000000000000000000000000000000000000200000000000000000000000000000000000000000000000000000000000000000000000000000010000000000000000000000000000000000000000000000000000000000000000000000000000000000000000000000000000000000000000000000002000000000000000000000000000000000000000000100000000000000000000000000000000000000000000100000000000000000000000000000000000000000000000000000000000000000000000000000000000",
      "type": "0x2",
      "transactionHash": "0x898b9b8e487937af368044e5a6470d6cb22f3bb77f3957f74d46cc4895018bdf",
      "transactionIndex": "0xef",
      "blockHash": "0xd1077f3f9572374e3ebf29fd706a5893a24326e72c690e524b54e73af53fb661",
      "blockNumber": "0x17fba1c",
      "gasUsed": "0xc22f",
      "effectiveGasPrice": "0x6aba529",
      "from": "0xcad1a7864a108dbff67f4b8af71fab0c7a86d0b6",
      "to": "0x26f89f4b46eb164303985795ee20b15bb1edb38a",
      "contractAddress": null
    },
    {
      "status": "0x1",
      "cumulativeGasUsed": "0x10a7597",
      "logs": [
        {
          "address": "0x26f89f4b46eb164303985795ee20b15bb1edb38a",
          "topics": [
            "0x8f8a455eb36ca8b47d9bf011994919d05afa0aaa307e59fbbcc9d9fa5d856f6a",
            "0x000000000000000000000000cad1a7864a108dbff67f4b8af71fab0c7a86d0b6"
          ],
          "data": "0x0000000000000000000000000000000000000000000000000000000000000001",
          "blockHash": "0x50e30add98bbe75a8c9a2d12ce2347bcdd460c2e43b8242328a210988c19f33e",
          "blockNumber": "0x17fba1d",
          "blockTimestamp": "0x6a0fc517",
          "transactionHash": "0x0796d617a5567d8c05ec2e9d15b2a715ffbbf60dee18f2be9396ff46a4ba04cd",
          "transactionIndex": "0x94",
          "logIndex": "0x1f8",
          "removed": false
        }
      ],
      "logsBloom": "0x00000000000000000020004000000000000000000000000000000400000000000000000000000000000000400000000000000000000000000000000000000000000000000000200000000000000000000000000000000000000000000000000000000000000000000000000000010000000000000000000000000000000000000000000000000000000000000000000000000000000000000000000000000000000000000000000000002000000000000000000000000000000000000000000100000000000000000000000000000000000000000000100000000000000000000000000000000000000000000000000000000000000000000000000000000000",
      "type": "0x2",
      "transactionHash": "0x0796d617a5567d8c05ec2e9d15b2a715ffbbf60dee18f2be9396ff46a4ba04cd",
      "transactionIndex": "0x94",
      "blockHash": "0x50e30add98bbe75a8c9a2d12ce2347bcdd460c2e43b8242328a210988c19f33e",
      "blockNumber": "0x17fba1d",
      "gasUsed": "0x7473",
      "effectiveGasPrice": "0x69933fa",
      "from": "0xcad1a7864a108dbff67f4b8af71fab0c7a86d0b6",
      "to": "0x26f89f4b46eb164303985795ee20b15bb1edb38a",
      "contractAddress": null
    },
    {
      "status": "0x1",
      "cumulativeGasUsed": "0x8f2855",
      "logs": [
        {
          "address": "0xba1333333333a1ba1108e8412f11850a5c319ba9",
          "topics": [
            "0xd1398bee19313d6bf672ccb116e51f4a1a947e91c757907f51fbb5b5e56c698f",
            "0x000000000000000000000000642bb6860b4776cc10b26b8f361fd139e7f0db04",
            "0x0000000000000000000000004da153dc02bb084528d10335759f2c4447e6f73d",
            "0x000000000000000000000000cad1a7864a108dbff67f4b8af71fab0c7a86d0b6"
          ],
          "data": "0x00000000000000000000000000000000000000000000002d47b77070febdbe4c",
          "blockHash": "0x0ec62d36fe57cd8ba1ded89ed237af70932406ca9c346a0f06aad36926f60bca",
          "blockNumber": "0x17fba1e",
          "blockTimestamp": "0x6a0fc523",
          "transactionHash": "0xc384cfa66a3e70bb163eb4c3ea6f8785128d49709a57ca7bb5f3f1ac9da86575",
          "transactionIndex": "0x6a",
          "logIndex": "0xe6",
          "removed": false
        },
        {
          "address": "0x642bb6860b4776cc10b26b8f361fd139e7f0db04",
          "topics": [
            "0xddf252ad1be2c89b69c2b068fc378daa952ba7f163c4a11628f55a4df523b3ef",
            "0x0000000000000000000000004da153dc02bb084528d10335759f2c4447e6f73d",
            "0x000000000000000000000000cad1a7864a108dbff67f4b8af71fab0c7a86d0b6"
          ],
          "data": "0x00000000000000000000000000000000000000000000002d47b77070febdbe4c",
          "blockHash": "0x0ec62d36fe57cd8ba1ded89ed237af70932406ca9c346a0f06aad36926f60bca",
          "blockNumber": "0x17fba1e",
          "blockTimestamp": "0x6a0fc523",
          "transactionHash": "0xc384cfa66a3e70bb163eb4c3ea6f8785128d49709a57ca7bb5f3f1ac9da86575",
          "transactionIndex": "0x6a",
          "logIndex": "0xe7",
          "removed": false
        }
      ],
      "logsBloom": "0x00000000000000000020000000800000000000000000000000008000002000000000000000000000000000408000000000000000000000000000000000000000000000000000000200000008000000000000000000000000000000200000000000000000000000000000000000000000000001000000000000010010000000000000000000000000000000000000000000000000000000000000010000000000000000800000000000000000800000000000000000000000000000000000000000000002000000000000000000000000000000000000100000000000800000000001000000000000002000000000000000000000000100000000000000000000",
      "type": "0x2",
      "transactionHash": "0xc384cfa66a3e70bb163eb4c3ea6f8785128d49709a57ca7bb5f3f1ac9da86575",
      "transactionIndex": "0x6a",
      "blockHash": "0x0ec62d36fe57cd8ba1ded89ed237af70932406ca9c346a0f06aad36926f60bca",
      "blockNumber": "0x17fba1e",
      "gasUsed": "0xf17a",
      "effectiveGasPrice": "0x651eb9c",
      "from": "0xcad1a7864a108dbff67f4b8af71fab0c7a86d0b6",
      "to": "0x4da153dc02bb084528d10335759f2c4447e6f73d",
      "contractAddress": null
    },
    {
      "status": "0x1",
      "cumulativeGasUsed": "0x2d79b4a",
      "logs": [
        {
          "address": "0xba1333333333a1ba1108e8412f11850a5c319ba9",
          "topics": [
            "0xd1398bee19313d6bf672ccb116e51f4a1a947e91c757907f51fbb5b5e56c698f",
            "0x000000000000000000000000642bb6860b4776cc10b26b8f361fd139e7f0db04",
            "0x000000000000000000000000cad1a7864a108dbff67f4b8af71fab0c7a86d0b6",
            "0x00000000000000000000000026f89f4b46eb164303985795ee20b15bb1edb38a"
          ],
          "data": "0x00000000000000000000000000000000000000000000002d47b77070febdbe4c",
          "blockHash": "0xbb58a669e4113488e8cda969b0496531f1ad83b4ab9ad7ad90782ce9628b7446",
          "blockNumber": "0x17fba1f",
          "blockTimestamp": "0x6a0fc52f",
          "transactionHash": "0x06d94c59a3bf56866e2ccb7ac9282e53b5d193faff9c35fa1f91b355b5d9c4d1",
          "transactionIndex": "0xdd",
          "logIndex": "0x6eb",
          "removed": false
        },
        {
          "address": "0x642bb6860b4776cc10b26b8f361fd139e7f0db04",
          "topics": [
            "0xddf252ad1be2c89b69c2b068fc378daa952ba7f163c4a11628f55a4df523b3ef",
            "0x000000000000000000000000cad1a7864a108dbff67f4b8af71fab0c7a86d0b6",
            "0x00000000000000000000000026f89f4b46eb164303985795ee20b15bb1edb38a"
          ],
          "data": "0x00000000000000000000000000000000000000000000002d47b77070febdbe4c",
          "blockHash": "0xbb58a669e4113488e8cda969b0496531f1ad83b4ab9ad7ad90782ce9628b7446",
          "blockNumber": "0x17fba1f",
          "blockTimestamp": "0x6a0fc52f",
          "transactionHash": "0x06d94c59a3bf56866e2ccb7ac9282e53b5d193faff9c35fa1f91b355b5d9c4d1",
          "transactionIndex": "0xdd",
          "logIndex": "0x6ec",
          "removed": false
        }
      ],
      "logsBloom": "0x00000000000000000020000000000000000000000000000000000000002000000000400000000000000000408000000000000000000000000000000000000000000000000000000200000008000000000000000000000000000000000000000000000000000000000000000000000000000001000000000000010010000000000000000000000000000000000000000000000000000000000000010000000000000000800000000000000000800000000000000000000000000000000000008000000002000000000000000000000000000000000000100000000000800000000001000000000000002000000000000000000000000100000000000000000400",
      "type": "0x2",
      "transactionHash": "0x06d94c59a3bf56866e2ccb7ac9282e53b5d193faff9c35fa1f91b355b5d9c4d1",
      "transactionIndex": "0xdd",
      "blockHash": "0xbb58a669e4113488e8cda969b0496531f1ad83b4ab9ad7ad90782ce9628b7446",
      "blockNumber": "0x17fba1f",
      "gasUsed": "0xd2d2",
      "effectiveGasPrice": "0x61a0689",
      "from": "0xcad1a7864a108dbff67f4b8af71fab0c7a86d0b6",
      "to": "0x642bb6860b4776cc10b26b8f361fd139e7f0db04",
      "contractAddress": null
    },
    {
      "status": "0x1",
      "cumulativeGasUsed": "0x1cdcf58",
      "logs": [
        {
          "address": "0xc8514f821a3d801fa8a8c435840a992a4365a13b",
          "topics": [
            "0xe9bc537f99a44d505fbaff3b791a8e05a7bee74082a2895be8d28e3db70edfb9",
            "0x000000000000000000000000be79dc2c302165025166f09193d9905ef262c064",
            "0x00000000000000000000000014277a0bc38a6bb7eb732c3a49190030632f727e"
          ],
          "data": "0x",
          "blockHash": "0xde8d0236a94e359e07dae38b0fb6c86ae2abb15dc61b25f8992b0c5c4503b66d",
          "blockNumber": "0x17fba20",
          "blockTimestamp": "0x6a0fc53b",
          "transactionHash": "0x9370f5f85f08099a2eda68db8d7bf12e1b31a1991093c1e1cc437af8d4f6198b",
          "transactionIndex": "0xc3",
          "logIndex": "0x2fa",
          "removed": false
        }
      ],
      "logsBloom": "0x00002000000000000000000000000000000000000000000000000000000000000000000000004000000000000000000000000000000000000000000000000020000000000000000200000000000000000000000040000000000000000000000000000000000000000000020000000000000000000000000000000000000000000000000000000100000000000000000000000000000000000000000000008000000000000000000000000000000800000000000000000000000000040000000000000000000000000000000000000000000000000000000000000000000000000000000040000000000000000000000000000000000000000000000000000002",
      "type": "0x2",
      "transactionHash": "0x9370f5f85f08099a2eda68db8d7bf12e1b31a1991093c1e1cc437af8d4f6198b",
      "transactionIndex": "0xc3",
      "blockHash": "0xde8d0236a94e359e07dae38b0fb6c86ae2abb15dc61b25f8992b0c5c4503b66d",
      "blockNumber": "0x17fba20",
      "gasUsed": "0x7711",
      "effectiveGasPrice": "0x6ab75ef",
      "from": "0xcad1a7864a108dbff67f4b8af71fab0c7a86d0b6",
      "to": "0xc8514f821a3d801fa8a8c435840a992a4365a13b",
      "contractAddress": null
    },
    {
      "status": "0x1",
      "cumulativeGasUsed": "0xaefc4e",
      "logs": [
        {
          "address": "0x39af088408e815844c567037c157b31d48d2e10f",
          "topics": [
            "0xe78eaa82455c81f88bc948d7f9f98a1012f17152d4958610092bbb4ea6ddf2ad",
            "0x0000000000000000000000000000000000000000000000000000000000000004",
            "0x0000000000000000000000006e957842afbcd01ce9db296d173f39134b362771",
            "0x00000000000000000000000026f89f4b46eb164303985795ee20b15bb1edb38a"
          ],
          "data": "0x",
          "blockHash": "0x76f6c7866e2e75165ada11274c8349624a05e927a90448e566c3d4c3993211b7",
          "blockNumber": "0x17fba21",
          "blockTimestamp": "0x6a0fc547",
          "transactionHash": "0xa72ff10120cb315008468716bd1eea247db46eff4ebae769836d58503b369e95",
          "transactionIndex": "0x10b",
          "logIndex": "0xd3",
          "removed": false
        }
      ],
      "logsBloom": "0x00000000000000000000000000000000000000000000000000000000000000101000400000000000000000000000000000000000000000000000000000000000000000000000000000000000000000000000000000800000000000000000000008000000000000000001000000000800000000000000000000000000000000000000000000000000000000000000000000000000000000000000000000000000000000000000000000000000000000080008000000000000002000000000008000000000000000000000000000000000000000008000000000000000000000000000000000000000000000000000080000000000000000000000000000080400",
      "type": "0x2",
      "transactionHash": "0xa72ff10120cb315008468716bd1eea247db46eff4ebae769836d58503b369e95",
      "transactionIndex": "0x10b",
      "blockHash": "0x76f6c7866e2e75165ada11274c8349624a05e927a90448e566c3d4c3993211b7",
      "blockNumber": "0x17fba21",
      "gasUsed": "0xe9ca",
      "effectiveGasPrice": "0x6d0feca",
      "from": "0xcad1a7864a108dbff67f4b8af71fab0c7a86d0b6",
      "to": "0x39af088408e815844c567037c157b31d48d2e10f",
      "contractAddress": null
    },
    {
      "status": "0x1",
      "cumulativeGasUsed": "0xd47fa7",
      "logs": [
        {
          "address": "0xf3b5b661b92b75c71fa5aba8fd95d7514a9cd605",
          "topics": [
            "0x34e56df787a7a59706503a81c304ed0ef46ddd2dfcdf1c8c8d1db684f3639fdd",
            "0x000000000000000000000000be79dc2c302165025166f09193d9905ef262c064"
          ],
          "data": "0x00000000000000000000000000000000000000000000000000000000000000000000000000000000000000000000000000000000000000000000000000000000",
          "blockHash": "0x703f95f5834ebf8ac2f99ecb3efe454e23e8498c8ffb02d5928a78a7004cd52a",
          "blockNumber": "0x17fba23",
          "blockTimestamp": "0x6a0fc55f",
          "transactionHash": "0xdf47cb5600b140c0e36bf0fc4e3281e1dedda5085f9ea03e3164e323f9483762",
          "transactionIndex": "0xc1",
          "logIndex": "0x14d",
          "removed": false
        }
      ],
      "logsBloom": "0x00000000000000000000000008000000000000000000000000000000000000000000000000000000000000000000000000000000000000000000000000000000000000000000000200000000000000000000000000000000000000000000000008000000000000000000020000000000000000000000000004000000100000000000000000000000000000000000000000000000000000000000000000000000000000000000000000000000000000000000000000000000000000040000000000800000000000000000000000000000000000000000000000000000000000000000000000000000000000000000000000000000000000000000400000000000",
      "type": "0x2",
      "transactionHash": "0xdf47cb5600b140c0e36bf0fc4e3281e1dedda5085f9ea03e3164e323f9483762",
      "transactionIndex": "0xc1",
      "blockHash": "0x703f95f5834ebf8ac2f99ecb3efe454e23e8498c8ffb02d5928a78a7004cd52a",
      "blockNumber": "0x17fba23",
      "gasUsed": "0x7e72",
      "effectiveGasPrice": "0x6605f2c",
      "from": "0xcad1a7864a108dbff67f4b8af71fab0c7a86d0b6",
      "to": "0xf3b5b661b92b75c71fa5aba8fd95d7514a9cd605",
      "contractAddress": null
    },
    {
      "status": "0x1",
      "cumulativeGasUsed": "0x1482909",
      "logs": [
        {
          "address": "0x39af088408e815844c567037c157b31d48d2e10f",
          "topics": [
            "0x002a71fba4e77daaab38dc597889c779faa673a62f32beb3d5826cdbc9fcf527",
            "0x000000000000000000000000cad1a7864a108dbff67f4b8af71fab0c7a86d0b6"
          ],
          "data": "0x0000000000000000000000000000000000000000000000000000000000000001",
          "blockHash": "0xaae2b57a851f854230890db0449d7495bb0a96bdff17931859aa18a2531a7b64",
          "blockNumber": "0x17fba24",
          "blockTimestamp": "0x6a0fc56b",
          "transactionHash": "0xa0061a33d35e7fbb979ba56d7adc4019b685d50d3954d3e90fde270133a538f2",
          "transactionIndex": "0xa5",
          "logIndex": "0x2a7",
          "removed": false
        }
      ],
      "logsBloom": "0x00000000000000000020000000000000000000000000000000000000000000000000000000000000000000400000000000000000000000000000000000000000000000000000000000000000000000000000000000000000000000000000000000000000000000000001000000000000000000000000000000000000000000000000000000000000000000000000000000000000000000000000000000000000000000100000000000000000000000000008000000000000000000000000000000000000000000000000000000000100000000000000100000000000000000000000000000000000000000000000080000000000000000000020000000000000",
      "type": "0x2",
      "transactionHash": "0xa0061a33d35e7fbb979ba56d7adc4019b685d50d3954d3e90fde270133a538f2",
      "transactionIndex": "0xa5",
      "blockHash": "0xaae2b57a851f854230890db0449d7495bb0a96bdff17931859aa18a2531a7b64",
      "blockNumber": "0x17fba24",
      "gasUsed": "0xba85",
      "effectiveGasPrice": "0x64fd875",
      "from": "0xcad1a7864a108dbff67f4b8af71fab0c7a86d0b6",
      "to": "0x39af088408e815844c567037c157b31d48d2e10f",
      "contractAddress": null
    },
    {
      "status": "0x1",
      "cumulativeGasUsed": "0xb715e6",
      "logs": [
        {
          "address": "0x39af088408e815844c567037c157b31d48d2e10f",
          "topics": [
            "0xc3d58168c5ae7397731d063d5bbf3d657854427343f4c083240f7aacaa2d0f62",
            "0x000000000000000000000000cad1a7864a108dbff67f4b8af71fab0c7a86d0b6",
            "0x00000000000000000000000064d3cbab6100782a7839fc1af791027a2f1908d2",
            "0x0000000000000000000000000000000000000000000000000000000000000000"
          ],
          "data": "0x00000000000000000000000000000000000000000000000000000000000000060000000000000000000000000000000000000000000000000000000000000029",
          "blockHash": "0xa5d03b91a83ec5781a1c5ed6c7eb454987bad80d1fd3d485d7e8131ab80f7d51",
          "blockNumber": "0x17fba25",
          "blockTimestamp": "0x6a0fc577",
          "transactionHash": "0xea2325bee52c83b4734af397ca1789ef46c60a16d41912e1c9431fcae0d810bd",
          "transactionIndex": "0x7c",
          "logIndex": "0x130",
          "removed": false
        },
        {
          "address": "0x39af088408e815844c567037c157b31d48d2e10f",
          "topics": [
            "0x4017c8aa5b02846402e81d1adeeb326e07e81c505b2e3281efc119ef130a9d35",
            "0x00000000000000000000000064d3cbab6100782a7839fc1af791027a2f1908d2",
            "0x0000000000000000000000000000000000000000000000000000000000000006"
          ],
          "data": "0x0000000000000000000000000000000000000000000000000000000000000029",
          "blockHash": "0xa5d03b91a83ec5781a1c5ed6c7eb454987bad80d1fd3d485d7e8131ab80f7d51",
          "blockNumber": "0x17fba25",
          "blockTimestamp": "0x6a0fc577",
          "transactionHash": "0xea2325bee52c83b4734af397ca1789ef46c60a16d41912e1c9431fcae0d810bd",
          "transactionIndex": "0x7c",
          "logIndex": "0x131",
          "removed": false
        }
      ],
      "logsBloom": "0x00000000000000000020000000000000000000000000000000000000000000000000000010000000000000400000000000000000000400000000000000082000000000000000000008000000000000000000000000000000000000000000000800000000020000000001000000000800000000000000000000000000000000020000000400000000000000000000000000000000000000008000000000000000000000000000000000000000000000000008000000000000000000080000000000000000000000000000000000000000000000000008100000000000000020000000000000000000000000000000080000000000000000000000080000000000",
      "type": "0x2",
      "transactionHash": "0xea2325bee52c83b4734af397ca1789ef46c60a16d41912e1c9431fcae0d810bd",
      "transactionIndex": "0x7c",
      "blockHash": "0xa5d03b91a83ec5781a1c5ed6c7eb454987bad80d1fd3d485d7e8131ab80f7d51",
      "blockNumber": "0x17fba25",
      "gasUsed": "0x8e84",
      "effectiveGasPrice": "0x627f451",
      "from": "0xcad1a7864a108dbff67f4b8af71fab0c7a86d0b6",
      "to": "0x39af088408e815844c567037c157b31d48d2e10f",
      "contractAddress": null
    },
    {
      "status": "0x1",
      "cumulativeGasUsed": "0x1e4dd4a",
      "logs": [
        {
          "address": "0x39af088408e815844c567037c157b31d48d2e10f",
          "topics": [
            "0x002a71fba4e77daaab38dc597889c779faa673a62f32beb3d5826cdbc9fcf527",
            "0x000000000000000000000000cad1a7864a108dbff67f4b8af71fab0c7a86d0b6"
          ],
          "data": "0x0000000000000000000000000000000000000000000000000000000000000000",
          "blockHash": "0xe8ce52a10b8c5baa90117bfdbcd870062d04012620387cc472c4a4285a3fb2ae",
          "blockNumber": "0x17fba27",
          "blockTimestamp": "0x6a0fc58f",
          "transactionHash": "0xd2b119f1f63be73f968c0f46f7c26eb0c42b06f3e3133b279407d9352d83fce6",
          "transactionIndex": "0x10f",
          "logIndex": "0x359",
          "removed": false
        }
      ],
      "logsBloom": "0x00000000000000000020000000000000000000000000000000000000000000000000000000000000000000400000000000000000000000000000000000000000000000000000000000000000000000000000000000000000000000000000000000000000000000000001000000000000000000000000000000000000000000000000000000000000000000000000000000000000000000000000000000000000000000100000000000000000000000000008000000000000000000000000000000000000000000000000000000000100000000000000100000000000000000000000000000000000000000000000080000000000000000000020000000000000",
      "type": "0x2",
      "transactionHash": "0xd2b119f1f63be73f968c0f46f7c26eb0c42b06f3e3133b279407d9352d83fce6",
      "transactionIndex": "0x10f",
      "blockHash": "0xe8ce52a10b8c5baa90117bfdbcd870062d04012620387cc472c4a4285a3fb2ae",
      "blockNumber": "0x17fba27",
      "gasUsed": "0x64ed",
      "effectiveGasPrice": "0x60e5b71",
      "from": "0xcad1a7864a108dbff67f4b8af71fab0c7a86d0b6",
      "to": "0x39af088408e815844c567037c157b31d48d2e10f",
      "contractAddress": null
    },
    {
      "status": "0x1",
      "cumulativeGasUsed": "0x1a08c33",
      "logs": [
        {
          "address": "0x39af088408e815844c567037c157b31d48d2e10f",
          "topics": [
            "0x7ed45474447adc9c0971020b6844de2f18e31f5cb8dbb2cec429c78951606f4e",
            "0x0000000000000000000000000000000000000000000000000000000000000006"
          ],
          "data": "0x0000000000000000000000000000000000000000000000000000000000000001",
          "blockHash": "0xb863a1fed50d2c3db3602cb0ed7b5f9c2a0d43b3db041d869429f6606368c8ee",
          "blockNumber": "0x17fba28",
          "blockTimestamp": "0x6a0fc59b",
          "transactionHash": "0x5386b39505c02f59309ef4ca311b4ddb0239e4e5a122b33f1b0a7fe1e4ba1e55",
          "transactionIndex": "0xc3",
          "logIndex": "0x417",
          "removed": false
        }
      ],
      "logsBloom": "0x00000000000000000000000000000000000000000000000000000000000000000000000000000000000000000000000000000000000400000000000000000000000000000000002000000000000000000000400000000000000000000000000000000000000000040001000000000000000000000000000000000000000000000000000400000000000000000000000000000000000000000000000000000000000000000000000000000000000000000008000000000000000000080000000000000000000000000000000000000000000000000000000000000000000000000000000000000000000000000000080000000000000000000000000000000000",
      "type": "0x2",
      "transactionHash": "0x5386b39505c02f59309ef4ca311b4ddb0239e4e5a122b33f1b0a7fe1e4ba1e55",
      "transactionIndex": "0xc3",
      "blockHash": "0xb863a1fed50d2c3db3602cb0ed7b5f9c2a0d43b3db041d869429f6606368c8ee",
      "blockNumber": "0x17fba28",
      "gasUsed": "0xc2fd",
      "effectiveGasPrice": "0x6520cf5",
      "from": "0xcad1a7864a108dbff67f4b8af71fab0c7a86d0b6",
      "to": "0x39af088408e815844c567037c157b31d48d2e10f",
      "contractAddress": null
    }
  ],
  "libraries": [],
  "pending": [],
  "returns": {},
  "timestamp": 1779418524723,
  "chain": 1,
  "commit": "379719a"
}