{
  "transactions": [
    {
      "hash": null,
      "transactionType": "CALL",
      "contractName": null,
      "contractAddress": "0xa0b86991c6218b36c1d19d4a2e9eb0ce3606eb48",
      "function": "approve(address,uint256)",
      "arguments": [
        "0x3984eBC84d45a889dDAc595d13dc0aC2E54819F4",
        "47613968"
      ],
      "transaction": {
        "from": "0x3e9003da2ad56a7cc677b6b414ad475a0231eb28",
        "to": "0xa0b86991c6218b36c1d19d4a2e9eb0ce3606eb48",
        "gas": "0x13d76",
        "value": "0x0",
        "input": "0x095ea7b30000000000000000000000003984ebc84d45a889ddac595d13dc0ac2e54819f40000000000000000000000000000000000000000000000000000000002d68810",
        "nonce": "0x2d",
        "chainId": "0x1"
      },
      "additionalContracts": [],
      "isFixedGasLimit": false
    },
    {
      "hash": null,
      "transactionType": "CALL",
      "contractName": null,
      "contractAddress": "0x3984ebc84d45a889ddac595d13dc0ac2e54819f4",
      "function": "collectReward(uint256)",
      "arguments": [
        "47613968"
      ],
      "transaction": {
        "from": "0x3e9003da2ad56a7cc677b6b414ad475a0231eb28",
        "to": "0x3984ebc84d45a889ddac595d13dc0ac2e54819f4",
        "gas": "0x1b720",
        "value": "0x0",
        "input": "0xbd3507da0000000000000000000000000000000000000000000000000000000002d68810",
        "nonce": "0x2e",
        "chainId": "0x1"
      },
      "additionalContracts": [],
      "isFixedGasLimit": false
    }
  ],
  "receipts": [],
  "libraries": [],
  "pending": [],
  "returns": {},
  "timestamp": 1777228654686,
  "chain": 1,
  "commit": "ba7e053"
}