{
  "transactions": [
    {
      "hash": "0x5300b86ebc2d013894af28a841abb7824268ae425f6ee265cbcdd41786bd71f0",
      "transactionType": "CALL",
      "contractName": null,
      "contractAddress": "0x26f89f4b46eb164303985795ee20b15bb1edb38a",
      "function": "setAuthorizedPooler(address,bool)",
      "arguments": [
        "0x186c77B80Bbfd21b01C7D7FA44bA27031322a77F",
        "true"
      ],
      "transaction": {
        "from": "0xcad1a7864a108dbff67f4b8af71fab0c7a86d0b6",
        "to": "0x26f89f4b46eb164303985795ee20b15bb1edb38a",
        "value": "0x0",
        "input": "0x0281d95c000000000000000000000000186c77b80bbfd21b01c7d7fa44ba27031322a77f0000000000000000000000000000000000000000000000000000000000000001",
        "nonce": "0x232",
        "chainId": "0x1"
      },
      "additionalContracts": [],
      "isFixedGasLimit": false
    },
    {
      "hash": "0xd4e099add609a835d2c7e9bba844014bbadf74c8105bfbc0aac9f49437b48fe8",
      "transactionType": "CALL",
      "contractName": null,
      "contractAddress": "0x26f89f4b46eb164303985795ee20b15bb1edb38a",
      "function": "setAuthorizedPooler(address,bool)",
      "arguments": [
        "0x630966B668b321Cc6441754f96519a55F72Cd476",
        "true"
      ],
      "transaction": {
        "from": "0xcad1a7864a108dbff67f4b8af71fab0c7a86d0b6",
        "to": "0x26f89f4b46eb164303985795ee20b15bb1edb38a",
        "value": "0x0",
        "input": "0x0281d95c000000000000000000000000630966b668b321cc6441754f96519a55f72cd4760000000000000000000000000000000000000000000000000000000000000001",
        "nonce": "0x233",
        "chainId": "0x1"
      },
      "additionalContracts": [],
      "isFixedGasLimit": false
    },
    {
      "hash": "0x1020a8537a0c682521854ea591cd897396649b6400543d508ae37622402b0a5d",
      "transactionType": "CALL",
      "contractName": null,
      "contractAddress": "0x26f89f4b46eb164303985795ee20b15bb1edb38a",
      "function": "setAuthorizedPooler(address,bool)",
      "arguments": [
        "0x3E9003DA2ad56A7cc677b6b414AD475A0231Eb28",
        "true"
      ],
      "transaction": {
        "from": "0xcad1a7864a108dbff67f4b8af71fab0c7a86d0b6",
        "to": "0x26f89f4b46eb164303985795ee20b15bb1edb38a",
        "value": "0x0",
        "input": "0x0281d95c0000000000000000000000003e9003da2ad56a7cc677b6b414ad475a0231eb280000000000000000000000000000000000000000000000000000000000000001",
        "nonce": "0x234",
        "chainId": "0x1"
      },
      "additionalContracts": [],
      "isFixedGasLimit": false
    }
  ],
  "receipts": [
    {
      "status": "0x1",
      "cumulativeGasUsed": "0x2aa11aa",
      "logs": [
        {
          "address": "0x26f89f4b46eb164303985795ee20b15bb1edb38a",
          "topics": [
            "0x8f8a455eb36ca8b47d9bf011994919d05afa0aaa307e59fbbcc9d9fa5d856f6a",
            "0x000000000000000000000000186c77b80bbfd21b01c7d7fa44ba27031322a77f"
          ],
          "data": "0x0000000000000000000000000000000000000000000000000000000000000001",
          "blockHash": "0xb4f2c9bfb838ae0060723710872a239a6272a0549fbebdde1ddccfae6b1ae3f6",
          "blockNumber": "0x180ecaf",
          "blockTimestamp": "0x6a1e31f3",
          "transactionHash": "0x5300b86ebc2d013894af28a841abb7824268ae425f6ee265cbcdd41786bd71f0",
          "transactionIndex": "0x276",
          "logIndex": "0x4e9",
          "removed": false
        }
      ],
      "logsBloom": "0x00000000000000000000004000000000000000000000000000000400000000000000000000000000000000000000000000000000000000000000000000000010000000000000200000000000000000000000000000000000000000000000000000000000000000000000000000010020000000000000000000000000000000000000000000000000000000000000000000000000000000000000000000000000000000000000000000002000000000000000000000000000000000000000000100000000000000000000000000000000000000000000000000000000000000000000000000000000000000000000000000000000000000000000000000000010",
      "type": "0x2",
      "transactionHash": "0x5300b86ebc2d013894af28a841abb7824268ae425f6ee265cbcdd41786bd71f0",
      "transactionIndex": "0x276",
      "blockHash": "0xb4f2c9bfb838ae0060723710872a239a6272a0549fbebdde1ddccfae6b1ae3f6",
      "blockNumber": "0x180ecaf",
      "gasUsed": "0xc22f",
      "effectiveGasPrice": "0x7de0581",
      "from": "0xcad1a7864a108dbff67f4b8af71fab0c7a86d0b6",
      "to": "0x26f89f4b46eb164303985795ee20b15bb1edb38a",
      "contractAddress": null
    },
    {
      "status": "0x1",
      "cumulativeGasUsed": "0x16e3d42",
      "logs": [
        {
          "address": "0x26f89f4b46eb164303985795ee20b15bb1edb38a",
          "topics": [
            "0x8f8a455eb36ca8b47d9bf011994919d05afa0aaa307e59fbbcc9d9fa5d856f6a",
            "0x000000000000000000000000630966b668b321cc6441754f96519a55f72cd476"
          ],
          "data": "0x0000000000000000000000000000000000000000000000000000000000000001",
          "blockHash": "0xa5e07f232bedd38d51b894013d2b3abd5475c92f2f0064fe23b517eed902a2e4",
          "blockNumber": "0x180ecb1",
          "blockTimestamp": "0x6a1e320b",
          "transactionHash": "0xd4e099add609a835d2c7e9bba844014bbadf74c8105bfbc0aac9f49437b48fe8",
          "transactionIndex": "0x97",
          "logIndex": "0x314",
          "removed": false
        }
      ],
      "logsBloom": "0x00000000000000000000004000000000400000000000000000000400000000000000000000000000000000000000000000000000000000000000000000000000000000000000200000040000000000000000000000000000000000000000000000000000000000000000000000010000000000000000000000000000000000000000000000000000000000000000000000000000000000000000000000000000000000000000000000002000000000000000000000000000000000000000000100000000000000000000000000000000000000000000000000000000000000000000020000000000000000000000000000000000000000000000000000000000",
      "type": "0x2",
      "transactionHash": "0xd4e099add609a835d2c7e9bba844014bbadf74c8105bfbc0aac9f49437b48fe8",
      "transactionIndex": "0x97",
      "blockHash": "0xa5e07f232bedd38d51b894013d2b3abd5475c92f2f0064fe23b517eed902a2e4",
      "blockNumber": "0x180ecb1",
      "gasUsed": "0xc22f",
      "effectiveGasPrice": "0x8e9b5ba",
      "from": "0xcad1a7864a108dbff67f4b8af71fab0c7a86d0b6",
      "to": "0x26f89f4b46eb164303985795ee20b15bb1edb38a",
      "contractAddress": null
    },
    {
      "status": "0x1",
      "cumulativeGasUsed": "0x3125347",
      "logs": [
        {
          "address": "0x26f89f4b46eb164303985795ee20b15bb1edb38a",
          "topics": [
            "0x8f8a455eb36ca8b47d9bf011994919d05afa0aaa307e59fbbcc9d9fa5d856f6a",
            "0x0000000000000000000000003e9003da2ad56a7cc677b6b414ad475a0231eb28"
          ],
          "data": "0x0000000000000000000000000000000000000000000000000000000000000001",
          "blockHash": "0xd5d21842acff7bd7f3317d58c31f3856baf5c25279c10d111a9df539ecfe6153",
          "blockNumber": "0x180ecb3",
          "blockTimestamp": "0x6a1e3223",
          "transactionHash": "0x1020a8537a0c682521854ea591cd897396649b6400543d508ae37622402b0a5d",
          "transactionIndex": "0x1c1",
          "logIndex": "0x5f6",
          "removed": false
        }
      ],
      "logsBloom": "0x00000000000000000000004000000000000000000000000000000400000000000000000000000000000000000000000000000000000000000000000000000000000000400000200000000000000000000000000000000000000000000000000000000000000000000000000000010000000008000000000000000000000000000000000000000000000000000000000000000000000000000000000000000000000000000000000000002000000000040000000000000000000000000000000100000000000000000000000000000000000000000000000000000000000000000000000000000000000000000000000000000000000000000000000000000000",
      "type": "0x2",
      "transactionHash": "0x1020a8537a0c682521854ea591cd897396649b6400543d508ae37622402b0a5d",
      "transactionIndex": "0x1c1",
      "blockHash": "0xd5d21842acff7bd7f3317d58c31f3856baf5c25279c10d111a9df539ecfe6153",
      "blockNumber": "0x180ecb3",
      "gasUsed": "0xc22f",
      "effectiveGasPrice": "0x8137e9e",
      "from": "0xcad1a7864a108dbff67f4b8af71fab0c7a86d0b6",
      "to": "0x26f89f4b46eb164303985795ee20b15bb1edb38a",
      "contractAddress": null
    }
  ],
  "libraries": [],
  "pending": [],
  "returns": {},
  "timestamp": 1780363814389,
  "chain": 1,
  "commit": "912f57c"
}