{
  "transactions": [
    {
      "hash": "0x642e1a0300e2a0420bbb76f161889f317a46badf4e1e33b69a965a45df7db714",
      "transactionType": "CALL",
      "contractName": null,
      "contractAddress": "0x4da153dc02bb084528d10335759f2c4447e6f73d",
      "function": "setAuthorizedPooler(address,bool)",
      "arguments": [
        "0xCad1a7864a108DBFF67F4b8af71fAB0C7A86D0B6",
        "true"
      ],
      "transaction": {
        "from": "0xcad1a7864a108dbff67f4b8af71fab0c7a86d0b6",
        "to": "0x4da153dc02bb084528d10335759f2c4447e6f73d",
        "value": "0x0",
        "input": "0x0281d95c000000000000000000000000cad1a7864a108dbff67f4b8af71fab0c7a86d0b60000000000000000000000000000000000000000000000000000000000000001",
        "nonce": "0x1dc",
        "chainId": "0x1"
      },
      "additionalContracts": [],
      "isFixedGasLimit": false
    }
  ],
  "receipts": [
    {
      "status": "0x1",
      "cumulativeGasUsed": "0x12d3eb2",
      "logs": [
        {
          "address": "0x4da153dc02bb084528d10335759f2c4447e6f73d",
          "topics": [
            "0x8f8a455eb36ca8b47d9bf011994919d05afa0aaa307e59fbbcc9d9fa5d856f6a",
            "0x000000000000000000000000cad1a7864a108dbff67f4b8af71fab0c7a86d0b6"
          ],
          "data": "0x0000000000000000000000000000000000000000000000000000000000000001",
          "blockHash": "0x630150229294a9c1ca215fdc71e912c1297a50e8c936bb51b37f3209e8532417",
          "blockNumber": "0x17f83d8",
          "blockTimestamp": "0x6a0d37bf",
          "transactionHash": "0x642e1a0300e2a0420bbb76f161889f317a46badf4e1e33b69a965a45df7db714",
          "transactionIndex": "0x5d",
          "logIndex": "0x21a",
          "removed": false
        }
      ],
      "logsBloom": "0x00000000000000000020004000000000000000000000000000000400000000000000000000000000000040400000000000000000000000000000000000000000000000000000000000000000000000000000000000000000000000000000000000000000000000000000000000010000000000000000000000000000200000000000000000000000000000000000000000000000000000000000000000000000000000000000000000000000000000000000000000000000000000000000000000000000000000000000000000000000000000000000100000000000000000000000000000000000000000000000000000000000000000000000000000000100",
      "type": "0x2",
      "transactionHash": "0x642e1a0300e2a0420bbb76f161889f317a46badf4e1e33b69a965a45df7db714",
      "transactionIndex": "0x5d",
      "blockHash": "0x630150229294a9c1ca215fdc71e912c1297a50e8c936bb51b37f3209e8532417",
      "blockNumber": "0x17f83d8",
      "gasUsed": "0xc22f",
      "effectiveGasPrice": "0x71e8bea",
      "from": "0xcad1a7864a108dbff67f4b8af71fab0c7a86d0b6",
      "to": "0x4da153dc02bb084528d10335759f2c4447e6f73d",
      "contractAddress": null
    }
  ],
  "libraries": [],
  "pending": [],
  "returns": {},
  "timestamp": 1779251134655,
  "chain": 1,
  "commit": "bfcb9da"
}