{
  "transactions": [
    {
      "hash": "0x28768dea076d6fed529c493ab6d26f617ced78da83a9e28824f2be1468a921a2",
      "transactionType": "CALL",
      "contractName": null,
      "contractAddress": "0xfc629bc5f6339f77635f4f656fbb114a31f7bcb3",
      "function": "setPauser(address)",
      "arguments": [
        "0xCad1a7864a108DBFF67F4b8af71fAB0C7A86D0B6"
      ],
      "transaction": {
        "from": "0xcad1a7864a108dbff67f4b8af71fab0c7a86d0b6",
        "to": "0xfc629bc5f6339f77635f4f656fbb114a31f7bcb3",
        "gas": "0xa441",
        "value": "0x0",
        "input": "0x2d88af4a000000000000000000000000cad1a7864a108dbff67f4b8af71fab0c7a86d0b6",
        "nonce": "0x13f",
        "chainId": "0x1"
      },
      "additionalContracts": [],
      "isFixedGasLimit": false
    },
    {
      "hash": "0xffbbb4d84a85381d35c93c80a2699ec17b4a272d2c6f77fd8efc4fe36305db01",
      "transactionType": "CALL",
      "contractName": null,
      "contractAddress": "0xfc629bc5f6339f77635f4f656fbb114a31f7bcb3",
      "function": "unpause()",
      "arguments": [],
      "transaction": {
        "from": "0xcad1a7864a108dbff67f4b8af71fab0c7a86d0b6",
        "to": "0xfc629bc5f6339f77635f4f656fbb114a31f7bcb3",
        "gas": "0x9d00",
        "value": "0x0",
        "input": "0x3f4ba83a",
        "nonce": "0x140",
        "chainId": "0x1"
      },
      "additionalContracts": [],
      "isFixedGasLimit": false
    },
    {
      "hash": "0x6d4438bab9549caf13c81b8045f25e6bbacd647f4174cb8855c88e103822d22a",
      "transactionType": "CALL",
      "contractName": null,
      "contractAddress": "0xfc629bc5f6339f77635f4f656fbb114a31f7bcb3",
      "function": "setPauser(address)",
      "arguments": [
        "0x7c5A8EeF1d836450C019FB036453ac6eC97885a3"
      ],
      "transaction": {
        "from": "0xcad1a7864a108dbff67f4b8af71fab0c7a86d0b6",
        "to": "0xfc629bc5f6339f77635f4f656fbb114a31f7bcb3",
        "gas": "0xa441",
        "value": "0x0",
        "input": "0x2d88af4a0000000000000000000000007c5a8eef1d836450c019fb036453ac6ec97885a3",
        "nonce": "0x141",
        "chainId": "0x1"
      },
      "additionalContracts": [],
      "isFixedGasLimit": false
    }
  ],
  "receipts": [
    {
      "status": "0x1",
      "cumulativeGasUsed": "0x14e3692",
      "logs": [
        {
          "address": "0xfc629bc5f6339f77635f4f656fbb114a31f7bcb3",
          "topics": [
            "0x5dcaa27e7d9a9fdd8d01662749f4c51d8a9d7933cc5c31bc05ce70aef865d004",
            "0x0000000000000000000000007c5a8eef1d836450c019fb036453ac6ec97885a3",
            "0x000000000000000000000000cad1a7864a108dbff67f4b8af71fab0c7a86d0b6"
          ],
          "data": "0x",
          "blockHash": "0x2d131cf55659332342ba068cc94899d445eee2f941047590d29b650ccd0a34b9",
          "blockNumber": "0x17b026a",
          "blockTimestamp": "0x69d6fb6b",
          "transactionHash": "0x28768dea076d6fed529c493ab6d26f617ced78da83a9e28824f2be1468a921a2",
          "transactionIndex": "0x140",
          "logIndex": "0x1d7",
          "removed": false
        }
      ],
      "logsBloom": "0x00000000000000000020000000000000000000000000000000000000000000000000001000000000000000400000000000000000200000000000000000000000000000004000000000000000000000000000000000000000000000000000000000000000000000000000000000000000000000000000000000000000000000000000000000000000000000000000000000000000000000000000000000000000000000000000100000000000000040000000000000000000000000000000000000000000000000000000000000000c00000000000000100000000000000000000000000000000000800000000000000010000000000000000000000000000000",
      "type": "0x2",
      "transactionHash": "0x28768dea076d6fed529c493ab6d26f617ced78da83a9e28824f2be1468a921a2",
      "transactionIndex": "0x140",
      "blockHash": "0x2d131cf55659332342ba068cc94899d445eee2f941047590d29b650ccd0a34b9",
      "blockNumber": "0x17b026a",
      "gasUsed": "0x76ec",
      "effectiveGasPrice": "0x3225108",
      "from": "0xcad1a7864a108dbff67f4b8af71fab0c7a86d0b6",
      "to": "0xfc629bc5f6339f77635f4f656fbb114a31f7bcb3",
      "contractAddress": null
    },
    {
      "status": "0x1",
      "cumulativeGasUsed": "0x13f4f1a",
      "logs": [
        {
          "address": "0xfc629bc5f6339f77635f4f656fbb114a31f7bcb3",
          "topics": [
            "0x5db9ee0a495bf2e6ff9c91a7834c1ba4fdd244a5e8aa4e537bd38aeae4b073aa"
          ],
          "data": "0x000000000000000000000000cad1a7864a108dbff67f4b8af71fab0c7a86d0b6",
          "blockHash": "0xf884d9faba971835a14d492ad8c5e0e4b99c5a6474eb9757d296d83ae2ed8660",
          "blockNumber": "0x17b026c",
          "blockTimestamp": "0x69d6fb83",
          "transactionHash": "0xffbbb4d84a85381d35c93c80a2699ec17b4a272d2c6f77fd8efc4fe36305db01",
          "transactionIndex": "0xe9",
          "logIndex": "0x1f8",
          "removed": false
        }
      ],
      "logsBloom": "0x00000000000000000000000000000000000000000000000080000000000000000000000000000000000000000000000000000000000000000000000000000000000000000000000000000000000000000000000000000000000000008000000000000000000000000000000000000000000000000000000000000000000000000000000000000000000000000000000000000000000000000000000000000000000000000000000000000000000040000000000000000000000000000000000000000000000000000000000000000800000000000000000000000000000000000000000000000000800000000000000000000000000000000000000000000400",
      "type": "0x2",
      "transactionHash": "0xffbbb4d84a85381d35c93c80a2699ec17b4a272d2c6f77fd8efc4fe36305db01",
      "transactionIndex": "0xe9",
      "blockHash": "0xf884d9faba971835a14d492ad8c5e0e4b99c5a6474eb9757d296d83ae2ed8660",
      "blockNumber": "0x17b026c",
      "gasUsed": "0x6b5a",
      "effectiveGasPrice": "0x32ee4e9",
      "from": "0xcad1a7864a108dbff67f4b8af71fab0c7a86d0b6",
      "to": "0xfc629bc5f6339f77635f4f656fbb114a31f7bcb3",
      "contractAddress": null
    },
    {
      "status": "0x1",
      "cumulativeGasUsed": "0x19c5fe1",
      "logs": [
        {
          "address": "0xfc629bc5f6339f77635f4f656fbb114a31f7bcb3",
          "topics": [
            "0x5dcaa27e7d9a9fdd8d01662749f4c51d8a9d7933cc5c31bc05ce70aef865d004",
            "0x000000000000000000000000cad1a7864a108dbff67f4b8af71fab0c7a86d0b6",
            "0x0000000000000000000000007c5a8eef1d836450c019fb036453ac6ec97885a3"
          ],
          "data": "0x",
          "blockHash": "0xe9c157999c1a5cc621ae6231fedda0da3d577f8316b916294d3eed958bbb395e",
          "blockNumber": "0x17b026d",
          "blockTimestamp": "0x69d6fb8f",
          "transactionHash": "0x6d4438bab9549caf13c81b8045f25e6bbacd647f4174cb8855c88e103822d22a",
          "transactionIndex": "0xb8",
          "logIndex": "0x232",
          "removed": false
        }
      ],
      "logsBloom": "0x00000000000000000020000000000000000000000000000000000000000000000000001000000000000000400000000000000000200000000000000000000000000000004000000000000000000000000000000000000000000000000000000000000000000000000000000000000000000000000000000000000000000000000000000000000000000000000000000000000000000000000000000000000000000000000000100000000000000040000000000000000000000000000000000000000000000000000000000000000c00000000000000100000000000000000000000000000000000800000000000000010000000000000000000000000000000",
      "type": "0x2",
      "transactionHash": "0x6d4438bab9549caf13c81b8045f25e6bbacd647f4174cb8855c88e103822d22a",
      "transactionIndex": "0xb8",
      "blockHash": "0xe9c157999c1a5cc621ae6231fedda0da3d577f8316b916294d3eed958bbb395e",
      "blockNumber": "0x17b026d",
      "gasUsed": "0x76ec",
      "effectiveGasPrice": "0x343559e",
      "from": "0xcad1a7864a108dbff67f4b8af71fab0c7a86d0b6",
      "to": "0xfc629bc5f6339f77635f4f656fbb114a31f7bcb3",
      "contractAddress": null
    }
  ],
  "libraries": [],
  "pending": [],
  "returns": {},
  "timestamp": 1775696784201,
  "chain": 1,
  "commit": "50313b0"
}