{
  "transactions": [
    {
      "hash": "0xec71a03ab65e4ad33fc55c5816d7816577c3b6054484ba5509d6cb5325d61d89",
      "transactionType": "CALL",
      "contractName": null,
      "contractAddress": "0x90ce274b20a2af4265152b369d09ce6e6dc177f9",
      "function": "depositAsOwner(address,uint256,address)",
      "arguments": [
        "0x865377367054516e17014CcdED1e7d814EDC9ce4",
        "13816564202291221245191",
        "0x435B0A1884bd0fb5667677C9eb0e59425b1477E5"
      ],
      "transaction": {
        "from": "0xcad1a7864a108dbff67f4b8af71fab0c7a86d0b6",
        "to": "0x90ce274b20a2af4265152b369d09ce6e6dc177f9",
        "value": "0x0",
        "input": "0x5a4e1b1d000000000000000000000000865377367054516e17014ccded1e7d814edc9ce40000000000000000000000000000000000000000000002ecff58a2b07a942d07000000000000000000000000435b0a1884bd0fb5667677c9eb0e59425b1477e5",
        "nonce": "0x2a8",
        "chainId": "0x1"
      },
      "additionalContracts": [],
      "isFixedGasLimit": false
    },
    {
      "hash": "0xb94dd4dc095fee766df626c4eb0b8eb21aa5ef2d661f2f79a6717d57b7534a2d",
      "transactionType": "CALL",
      "contractName": null,
      "contractAddress": "0x90af002ee537ad5c2c9817ebd4ef22b2e8952470",
      "function": "setClient(address,bool)",
      "arguments": [
        "0x435B0A1884bd0fb5667677C9eb0e59425b1477E5",
        "true"
      ],
      "transaction": {
        "from": "0xcad1a7864a108dbff67f4b8af71fab0c7a86d0b6",
        "to": "0x90af002ee537ad5c2c9817ebd4ef22b2e8952470",
        "value": "0x0",
        "input": "0x40cf018e000000000000000000000000435b0a1884bd0fb5667677c9eb0e59425b1477e50000000000000000000000000000000000000000000000000000000000000001",
        "nonce": "0x2a9",
        "chainId": "0x1"
      },
      "additionalContracts": [],
      "isFixedGasLimit": false
    },
    {
      "hash": "0x794a6d0ec29411337d11188c10dcb8acf17a6b61531d669007f09706062b4bde",
      "transactionType": "CALL",
      "contractName": null,
      "contractAddress": "0x435b0a1884bd0fb5667677c9eb0e59425b1477e5",
      "function": "registerStablecoin(address,address,uint256,uint8)",
      "arguments": [
        "0xA0b86991c6218b36c1d19D4a2e9Eb0cE3606eB48",
        "0x90af002Ee537Ad5C2c9817Ebd4EF22B2e8952470",
        "1000000000000000000",
        "6"
      ],
      "transaction": {
        "from": "0xcad1a7864a108dbff67f4b8af71fab0c7a86d0b6",
        "to": "0x435b0a1884bd0fb5667677c9eb0e59425b1477e5",
        "value": "0x0",
        "input": "0x13c7e33c000000000000000000000000a0b86991c6218b36c1d19d4a2e9eb0ce3606eb4800000000000000000000000090af002ee537ad5c2c9817ebd4ef22b2e89524700000000000000000000000000000000000000000000000000de0b6b3a76400000000000000000000000000000000000000000000000000000000000000000006",
        "nonce": "0x2aa",
        "chainId": "0x1"
      },
      "additionalContracts": [],
      "isFixedGasLimit": false
    },
    {
      "hash": "0xe5282416aa52e534ef8b9038eaecd4620d0575c2e4514dba5e4034e9aec8828c",
      "transactionType": "CALL",
      "contractName": null,
      "contractAddress": "0x435b0a1884bd0fb5667677c9eb0e59425b1477e5",
      "function": "approveYS(address,address)",
      "arguments": [
        "0xA0b86991c6218b36c1d19D4a2e9Eb0cE3606eB48",
        "0x90af002Ee537Ad5C2c9817Ebd4EF22B2e8952470"
      ],
      "transaction": {
        "from": "0xcad1a7864a108dbff67f4b8af71fab0c7a86d0b6",
        "to": "0x435b0a1884bd0fb5667677c9eb0e59425b1477e5",
        "value": "0x0",
        "input": "0xa5546712000000000000000000000000a0b86991c6218b36c1d19d4a2e9eb0ce3606eb4800000000000000000000000090af002ee537ad5c2c9817ebd4ef22b2e8952470",
        "nonce": "0x2ab",
        "chainId": "0x1"
      },
      "additionalContracts": [],
      "isFixedGasLimit": false
    },
    {
      "hash": "0xd9cd06164f2856ec64c3f14af29ad536bb924e5d1875333e275e43e475b708b2",
      "transactionType": "CALL",
      "contractName": null,
      "contractAddress": "0xa0b86991c6218b36c1d19d4a2e9eb0ce3606eb48",
      "function": "approve(address,uint256)",
      "arguments": [
        "0x90af002Ee537Ad5C2c9817Ebd4EF22B2e8952470",
        "11935645684"
      ],
      "transaction": {
        "from": "0xcad1a7864a108dbff67f4b8af71fab0c7a86d0b6",
        "to": "0xa0b86991c6218b36c1d19d4a2e9eb0ce3606eb48",
        "value": "0x0",
        "input": "0x095ea7b300000000000000000000000090af002ee537ad5c2c9817ebd4ef22b2e895247000000000000000000000000000000000000000000000000000000002c76b7ff4",
        "nonce": "0x2ac",
        "chainId": "0x1"
      },
      "additionalContracts": [],
      "isFixedGasLimit": false
    },
    {
      "hash": "0x3646738d79e6203c683cc7d0411c76ce5e820890c23f688026fce4deb5af94ae",
      "transactionType": "CALL",
      "contractName": null,
      "contractAddress": "0x90af002ee537ad5c2c9817ebd4ef22b2e8952470",
      "function": "depositAsOwner(address,uint256,address)",
      "arguments": [
        "0xA0b86991c6218b36c1d19D4a2e9Eb0cE3606eB48",
        "11935645684",
        "0x435B0A1884bd0fb5667677C9eb0e59425b1477E5"
      ],
      "transaction": {
        "from": "0xcad1a7864a108dbff67f4b8af71fab0c7a86d0b6",
        "to": "0x90af002ee537ad5c2c9817ebd4ef22b2e8952470",
        "value": "0x0",
        "input": "0x5a4e1b1d000000000000000000000000a0b86991c6218b36c1d19d4a2e9eb0ce3606eb4800000000000000000000000000000000000000000000000000000002c76b7ff4000000000000000000000000435b0a1884bd0fb5667677c9eb0e59425b1477e5",
        "nonce": "0x2ad",
        "chainId": "0x1"
      },
      "additionalContracts": [],
      "isFixedGasLimit": false
    },
    {
      "hash": "0xa251496ade23446df0ff87705c1d52892c21e191abae8f16791f0938050af296",
      "transactionType": "CALL",
      "contractName": null,
      "contractAddress": "0xac2e5936eca286ec364d4d5bcca33145fbe57f95",
      "function": "setClient(address,bool)",
      "arguments": [
        "0x435B0A1884bd0fb5667677C9eb0e59425b1477E5",
        "true"
      ],
      "transaction": {
        "from": "0xcad1a7864a108dbff67f4b8af71fab0c7a86d0b6",
        "to": "0xac2e5936eca286ec364d4d5bcca33145fbe57f95",
        "value": "0x0",
        "input": "0x40cf018e000000000000000000000000435b0a1884bd0fb5667677c9eb0e59425b1477e50000000000000000000000000000000000000000000000000000000000000001",
        "nonce": "0x2ae",
        "chainId": "0x1"
      },
      "additionalContracts": [],
      "isFixedGasLimit": false
    },
    {
      "hash": "0x1086d6a83baeede3ee33ca1c3623b1151d2bfdb818f02d7f195dfa57ba984f6a",
      "transactionType": "CALL",
      "contractName": null,
      "contractAddress": "0x435b0a1884bd0fb5667677c9eb0e59425b1477e5",
      "function": "registerStablecoin(address,address,uint256,uint8)",
      "arguments": [
        "0x4c9EDD5852cd905f086C759E8383e09bff1E68B3",
        "0xaC2e5936Eca286eC364d4D5Bcca33145fBe57f95",
        "1000000000000000000",
        "18"
      ],
      "transaction": {
        "from": "0xcad1a7864a108dbff67f4b8af71fab0c7a86d0b6",
        "to": "0x435b0a1884bd0fb5667677c9eb0e59425b1477e5",
        "value": "0x0",
        "input": "0x13c7e33c0000000000000000000000004c9edd5852cd905f086c759e8383e09bff1e68b3000000000000000000000000ac2e5936eca286ec364d4d5bcca33145fbe57f950000000000000000000000000000000000000000000000000de0b6b3a76400000000000000000000000000000000000000000000000000000000000000000012",
        "nonce": "0x2af",
        "chainId": "0x1"
      },
      "additionalContracts": [],
      "isFixedGasLimit": false
    },
    {
      "hash": "0x76dea5efed45a18ccf6f4022670460d5734444847454091eeeff988be1e4adc1",
      "transactionType": "CALL",
      "contractName": null,
      "contractAddress": "0x435b0a1884bd0fb5667677c9eb0e59425b1477e5",
      "function": "approveYS(address,address)",
      "arguments": [
        "0x4c9EDD5852cd905f086C759E8383e09bff1E68B3",
        "0xaC2e5936Eca286eC364d4D5Bcca33145fBe57f95"
      ],
      "transaction": {
        "from": "0xcad1a7864a108dbff67f4b8af71fab0c7a86d0b6",
        "to": "0x435b0a1884bd0fb5667677c9eb0e59425b1477e5",
        "value": "0x0",
        "input": "0xa55467120000000000000000000000004c9edd5852cd905f086c759e8383e09bff1e68b3000000000000000000000000ac2e5936eca286ec364d4d5bcca33145fbe57f95",
        "nonce": "0x2b0",
        "chainId": "0x1"
      },
      "additionalContracts": [],
      "isFixedGasLimit": false
    },
    {
      "hash": "0x981e7280de8c0389c5f6c5a3b7202cdfea32ca294924700c85d0811e0e4cb5f2",
      "transactionType": "CALL",
      "contractName": null,
      "contractAddress": "0x4c9edd5852cd905f086c759e8383e09bff1e68b3",
      "function": "approve(address,uint256)",
      "arguments": [
        "0xaC2e5936Eca286eC364d4D5Bcca33145fBe57f95",
        "3760900993410333255682"
      ],
      "transaction": {
        "from": "0xcad1a7864a108dbff67f4b8af71fab0c7a86d0b6",
        "to": "0x4c9edd5852cd905f086c759e8383e09bff1e68b3",
        "value": "0x0",
        "input": "0x095ea7b3000000000000000000000000ac2e5936eca286ec364d4d5bcca33145fbe57f950000000000000000000000000000000000000000000000cbe0fc676634a1a802",
        "nonce": "0x2b1",
        "chainId": "0x1"
      },
      "additionalContracts": [],
      "isFixedGasLimit": false
    },
    {
      "hash": "0x32bdd6ce2a04b1c967fb6c7d57a0366517b5502f5d6d2842bf9c88847e382bc4",
      "transactionType": "CALL",
      "contractName": null,
      "contractAddress": "0xac2e5936eca286ec364d4d5bcca33145fbe57f95",
      "function": "depositAsOwner(address,uint256,address)",
      "arguments": [
        "0x4c9EDD5852cd905f086C759E8383e09bff1E68B3",
        "3760900993410333255682",
        "0x435B0A1884bd0fb5667677C9eb0e59425b1477E5"
      ],
      "transaction": {
        "from": "0xcad1a7864a108dbff67f4b8af71fab0c7a86d0b6",
        "to": "0xac2e5936eca286ec364d4d5bcca33145fbe57f95",
        "value": "0x0",
        "input": "0x5a4e1b1d0000000000000000000000004c9edd5852cd905f086c759e8383e09bff1e68b30000000000000000000000000000000000000000000000cbe0fc676634a1a802000000000000000000000000435b0a1884bd0fb5667677c9eb0e59425b1477e5",
        "nonce": "0x2b2",
        "chainId": "0x1"
      },
      "additionalContracts": [],
      "isFixedGasLimit": false
    },
    {
      "hash": "0xe5ec7c7db1591cef56601c08b33ce1d7fbb89338de77397e59d4648a2afb1e64",
      "transactionType": "CALL",
      "contractName": null,
      "contractAddress": "0x3bbe928340c61a65cb6c4a87b3fb59b6f3f7606a",
      "function": "addYieldStrategy(address,address)",
      "arguments": [
        "0x90ce274b20A2aF4265152B369d09ce6E6Dc177F9",
        "0x865377367054516e17014CcdED1e7d814EDC9ce4"
      ],
      "transaction": {
        "from": "0xcad1a7864a108dbff67f4b8af71fab0c7a86d0b6",
        "to": "0x3bbe928340c61a65cb6c4a87b3fb59b6f3f7606a",
        "value": "0x0",
        "input": "0x454ee0ca00000000000000000000000090ce274b20a2af4265152b369d09ce6e6dc177f9000000000000000000000000865377367054516e17014ccded1e7d814edc9ce4",
        "nonce": "0x2b3",
        "chainId": "0x1"
      },
      "additionalContracts": [],
      "isFixedGasLimit": false
    },
    {
      "hash": "0xb038e5ed2f374ab07df8536ac10a7dfa310a7eea5be31de62dbeabc47deb312b",
      "transactionType": "CALL",
      "contractName": null,
      "contractAddress": "0x90ce274b20a2af4265152b369d09ce6e6dc177f9",
      "function": "setWithdrawer(address,bool)",
      "arguments": [
        "0x3bBE928340c61a65Cb6C4a87B3fb59B6f3F7606a",
        "true"
      ],
      "transaction": {
        "from": "0xcad1a7864a108dbff67f4b8af71fab0c7a86d0b6",
        "to": "0x90ce274b20a2af4265152b369d09ce6e6dc177f9",
        "value": "0x0",
        "input": "0x82c3b9650000000000000000000000003bbe928340c61a65cb6c4a87b3fb59b6f3f7606a0000000000000000000000000000000000000000000000000000000000000001",
        "nonce": "0x2b4",
        "chainId": "0x1"
      },
      "additionalContracts": [],
      "isFixedGasLimit": false
    },
    {
      "hash": "0xd4366f75e6834a59687d3c6050ca4f1b0f4e64d1840a09dfc60e84a4372cd30b",
      "transactionType": "CALL",
      "contractName": null,
      "contractAddress": "0x3bbe928340c61a65cb6c4a87b3fb59b6f3f7606a",
      "function": "addYieldStrategy(address,address)",
      "arguments": [
        "0x90af002Ee537Ad5C2c9817Ebd4EF22B2e8952470",
        "0xA0b86991c6218b36c1d19D4a2e9Eb0cE3606eB48"
      ],
      "transaction": {
        "from": "0xcad1a7864a108dbff67f4b8af71fab0c7a86d0b6",
        "to": "0x3bbe928340c61a65cb6c4a87b3fb59b6f3f7606a",
        "value": "0x0",
        "input": "0x454ee0ca00000000000000000000000090af002ee537ad5c2c9817ebd4ef22b2e8952470000000000000000000000000a0b86991c6218b36c1d19d4a2e9eb0ce3606eb48",
        "nonce": "0x2b5",
        "chainId": "0x1"
      },
      "additionalContracts": [],
      "isFixedGasLimit": false
    },
    {
      "hash": "0x75107be4ee082523014b5c5923555df73161e99b003063a1a1547b74fe4c71ac",
      "transactionType": "CALL",
      "contractName": null,
      "contractAddress": "0x90af002ee537ad5c2c9817ebd4ef22b2e8952470",
      "function": "setWithdrawer(address,bool)",
      "arguments": [
        "0x3bBE928340c61a65Cb6C4a87B3fb59B6f3F7606a",
        "true"
      ],
      "transaction": {
        "from": "0xcad1a7864a108dbff67f4b8af71fab0c7a86d0b6",
        "to": "0x90af002ee537ad5c2c9817ebd4ef22b2e8952470",
        "value": "0x0",
        "input": "0x82c3b9650000000000000000000000003bbe928340c61a65cb6c4a87b3fb59b6f3f7606a0000000000000000000000000000000000000000000000000000000000000001",
        "nonce": "0x2b6",
        "chainId": "0x1"
      },
      "additionalContracts": [],
      "isFixedGasLimit": false
    },
    {
      "hash": "0xd479b5f71e01d83dd9ffa48b16df44ef238357847c661b90e6c259f59cab24be",
      "transactionType": "CALL",
      "contractName": null,
      "contractAddress": "0x3bbe928340c61a65cb6c4a87b3fb59b6f3f7606a",
      "function": "addYieldStrategy(address,address)",
      "arguments": [
        "0xaC2e5936Eca286eC364d4D5Bcca33145fBe57f95",
        "0x4c9EDD5852cd905f086C759E8383e09bff1E68B3"
      ],
      "transaction": {
        "from": "0xcad1a7864a108dbff67f4b8af71fab0c7a86d0b6",
        "to": "0x3bbe928340c61a65cb6c4a87b3fb59b6f3f7606a",
        "value": "0x0",
        "input": "0x454ee0ca000000000000000000000000ac2e5936eca286ec364d4d5bcca33145fbe57f950000000000000000000000004c9edd5852cd905f086c759e8383e09bff1e68b3",
        "nonce": "0x2b7",
        "chainId": "0x1"
      },
      "additionalContracts": [],
      "isFixedGasLimit": false
    },
    {
      "hash": "0x41a42af9d04c6b5c4fcb1b56b3a0f9eaca4e6adc8c2abe6ae9a4adf1637d7af9",
      "transactionType": "CALL",
      "contractName": null,
      "contractAddress": "0xac2e5936eca286ec364d4d5bcca33145fbe57f95",
      "function": "setWithdrawer(address,bool)",
      "arguments": [
        "0x3bBE928340c61a65Cb6C4a87B3fb59B6f3F7606a",
        "true"
      ],
      "transaction": {
        "from": "0xcad1a7864a108dbff67f4b8af71fab0c7a86d0b6",
        "to": "0xac2e5936eca286ec364d4d5bcca33145fbe57f95",
        "value": "0x0",
        "input": "0x82c3b9650000000000000000000000003bbe928340c61a65cb6c4a87b3fb59b6f3f7606a0000000000000000000000000000000000000000000000000000000000000001",
        "nonce": "0x2b8",
        "chainId": "0x1"
      },
      "additionalContracts": [],
      "isFixedGasLimit": false
    },
    {
      "hash": "0x767905bbe2293781365c2662e767b14ce93a3be5eb36555a417483ab48e7694a",
      "transactionType": "CALL",
      "contractName": null,
      "contractAddress": "0x3bbe928340c61a65cb6c4a87b3fb59b6f3f7606a",
      "function": "removeYieldStrategy(address)",
      "arguments": [
        "0xE7aEC21BF6420FF483107adCB9360C4b31d69D78"
      ],
      "transaction": {
        "from": "0xcad1a7864a108dbff67f4b8af71fab0c7a86d0b6",
        "to": "0x3bbe928340c61a65cb6c4a87b3fb59b6f3f7606a",
        "value": "0x0",
        "input": "0x3a8107cf000000000000000000000000e7aec21bf6420ff483107adcb9360c4b31d69d78",
        "nonce": "0x2b9",
        "chainId": "0x1"
      },
      "additionalContracts": [],
      "isFixedGasLimit": false
    },
    {
      "hash": "0x15e692b77579f14dbf9949cc48209b828fb8a380cf3125f57635fc539ab2048e",
      "transactionType": "CALL",
      "contractName": null,
      "contractAddress": "0x3bbe928340c61a65cb6c4a87b3fb59b6f3f7606a",
      "function": "removeYieldStrategy(address)",
      "arguments": [
        "0x8b4A75290A1C4935eC1dfd990374AC4BD4D33952"
      ],
      "transaction": {
        "from": "0xcad1a7864a108dbff67f4b8af71fab0c7a86d0b6",
        "to": "0x3bbe928340c61a65cb6c4a87b3fb59b6f3f7606a",
        "value": "0x0",
        "input": "0x3a8107cf0000000000000000000000008b4a75290a1c4935ec1dfd990374ac4bd4d33952",
        "nonce": "0x2ba",
        "chainId": "0x1"
      },
      "additionalContracts": [],
      "isFixedGasLimit": false
    },
    {
      "hash": "0xe4522948db21cf8ecfeda5a48f77a01104b9bc9f9cbb1cc3d4b6ed7811579f11",
      "transactionType": "CALL",
      "contractName": null,
      "contractAddress": "0x3bbe928340c61a65cb6c4a87b3fb59b6f3f7606a",
      "function": "removeYieldStrategy(address)",
      "arguments": [
        "0xFc629bC5F6339F77635f4F656FBb114A31F7bCB3"
      ],
      "transaction": {
        "from": "0xcad1a7864a108dbff67f4b8af71fab0c7a86d0b6",
        "to": "0x3bbe928340c61a65cb6c4a87b3fb59b6f3f7606a",
        "value": "0x0",
        "input": "0x3a8107cf000000000000000000000000fc629bc5f6339f77635f4f656fbb114a31f7bcb3",
        "nonce": "0x2bb",
        "chainId": "0x1"
      },
      "additionalContracts": [],
      "isFixedGasLimit": false
    },
    {
      "hash": "0xed1fcbcf5f9baf04466ba28e9c0a5ae2959213e01d18e0b57e7b7377466c9e12",
      "transactionType": "CREATE",
      "contractName": "StableStaker",
      "contractAddress": "0xbce8abc09baedcabe93419bf875f6186e182079a",
      "function": null,
      "arguments": [
        "0xf3B5B661b92B75C71fA5Aba8Fd95D7514A9CD605",
        "0xCad1a7864a108DBFF67F4b8af71fAB0C7A86D0B6"
      ],
      "transaction": {
        "from": "0xcad1a7864a108dbff67f4b8af71fab0c7a86d0b6",
        "value": "0x0",
        "input": "0x60a03461016c57601f613aca38819003918201601f19168301916001600160401b0383118484101761017057808492604094855283398101031261016c578051906001600160a01b0382169081830361016c57602001516001600160a01b038116919082900361016c578115610159575f80546001600160a01b031981168417825560405193916001600160a01b03909116907f8be0079c531659141344cd1fd0a4f28419497f9722a3daafe3b4186f6b6457e09080a360017f9b779b17422d0df92223018b32b4d1fa46e071723d6817e2486d003becc55f00551561011757506080526040516139459081610185823960805181818161035001528181611e3401528181611f2a01528181612a1501526133690152f35b62461bcd60e51b815260206004820152601860248201527f537461626c655374616b65723a207a65726f20706855534400000000000000006044820152606490fd5b631e4fbdf760e01b5f525f60045260245ffd5b5f80fd5b634e487b7160e01b5f52604160045260245ffdfe60806040526004361015610011575f80fd5b5f5f3560e01c80630ad9aeb9146122375780630c15763d146121265780630e469a7c146120b25780630f208beb146120555780631e83409a14611e58578063236b721b14611e1457806323cf311814611d985780632be8746314611d605780632d88af4a14611cdf57806332fcd96614611cbc5780633f4ba83a14611b8e57806347251aea146119e357806352eac084146119b55780635c975abb1461199057806368f8898a1461160c5780636ff1c9bc146114f2578063715018a61461148157806371726c92146111b957806374f0314f1461119b578063791936101461111d5780637cd07e47146110f65780637dab10cc146110b45780638456cb5914610fdb5780638da5cb5b14610fb557806399cd120f14610f415780639a7b5f1114610ee65780639ced7e7614610d725780639fd0506d14610d4b578063a2d682bf14610d11578063adc9772e14610ba9578063af842beb14610b15578063b2118a8d1461092e578063b3db428b14610776578063bb7829431461063b578063d48bfca71461053c578063f2fde38b146104865763f3fef3a3146101b1575f80fd5b34610483576040600319360112610483576101ca612419565b602435906101d6612888565b6101de612b92565b6001600160a01b03811690610206610201835f52600760205260405f2054151590565b61250c565b6102118315156127f2565b818452600960205260ff6040852054166002811015610456576102349015612798565b8184526003602052604084208285526004602052604085206001600160a01b0333165f5260205260405f2084815410610412578491869161027485612bc8565b805491670de0b6b3a76400006102cb600183019360038361029687548961270a565b04946102b28a6102ac6001860198895490612754565b99612754565b8355016102c0898254612754565b90555493548461270a565b049055156103f7575b80610343575b50506102e9906102f092612f9e565b3383612ae2565b6040519182527fd1c19fbcd4551a5edfb66d43d2e337c04837afda3482b42bdf569a8fccdae5fb60203393a360017f9b779b17422d0df92223018b32b4d1fa46e071723d6817e2486d003becc55f005580f35b9091506001600160a01b037f000000000000000000000000000000000000000000000000000000000000000016803b156103f3576040517f40c10f19000000000000000000000000000000000000000000000000000000008152336004820152602481019290925290919081908390604490829084905af19182156103e6578592156102da57819250906103d6916125eb565b6103e25782845f6102da565b8380fd5b50604051903d90823e3d90fd5b8280fd5b848252600560205261040c3360408420613770565b506102d4565b606460405162461bcd60e51b815260206004820152602060248201527f537461626c655374616b65723a20696e73756666696369656e74207374616b656044820152fd5b6024857f4e487b710000000000000000000000000000000000000000000000000000000081526021600452fd5b80fd5b5034610483576020600319360112610483576001600160a01b036104a8612419565b6104b0612c8b565b168015610510576001600160a01b038254827fffffffffffffffffffffffff00000000000000000000000000000000000000008216178455167f8be0079c531659141344cd1fd0a4f28419497f9722a3daafe3b4186f6b6457e08380a380f35b6024827f1e4fbdf700000000000000000000000000000000000000000000000000000000815280600452fd5b5034610483576020600319360112610483576001600160a01b0361055e612419565b610566612c8b565b1680156105f75761057681613863565b156105b35780825260036020524260026040842001557f784c8f4dbf0ffedd6e72c76501c545a70f8b203b30a26ce542bf92ba87c248a48280a280f35b606460405162461bcd60e51b815260206004820152601a60248201527f537461626c655374616b65723a20746f6b656e206578697374730000000000006044820152fd5b606460405162461bcd60e51b815260206004820152601860248201527f537461626c655374616b65723a207a65726f20746f6b656e00000000000000006044820152fd5b503461048357606060031936011261048357610655612419565b6040602435926001600160a01b036044359316815260056020522091825480831161076e575b5081811161072a5761068d8183612754565b927fffffffffffffffffffffffffffffffffffffffffffffffffffffffffffffffe06106d16106bb8661262c565b956106c960405197886125eb565b80875261262c565b01366020860137815b8381106106f357604051806106ef8782612445565b0390f35b806001600160a01b036107086001938561375b565b90549060031b1c1661072361071d8684612754565b88612644565b52016106da565b606460405162461bcd60e51b815260206004820152601760248201527f537461626c655374616b65723a206261642072616e67650000000000000000006044820152fd5b91505f61067b565b50346104835761078536612487565b909161078f612888565b6107a56001600160a01b036002541633146124c1565b6001600160a01b038116916107c8610201845f52600760205260405f2054151590565b6107d38115156127f2565b828552600960205260ff604086205416600281101561090157846001670de0b6b3a76400006108af6108797f11fa725a956e1222d809b94ec211abe46e4218803a3c67d50f6fd9e46ba20a0e976108736020986108318e9915612798565b8b895260038a526040808a209961084785612bc8565b8d815260048c52206001600160a01b0389165f528a5261086c8960405f20809a613324565b33836133fc565b90613572565b9461088586151561283d565b610890868654612685565b8555600381016108a1878254612685565b90558385549101549061270a565b04910155838652600582526108d26001600160a01b0360408820961680966138bd565b50604051908152a360017f9b779b17422d0df92223018b32b4d1fa46e071723d6817e2486d003becc55f005580f35b6024867f4e487b710000000000000000000000000000000000000000000000000000000081526021600452fd5b50346104835761093d36612487565b610945612c8b565b6001600160a01b038216928315610ad1576001600160a01b03169182855260086020526001600160a01b03604086205416155f14610acb57828552600360205260036040862001545b6040517f70a08231000000000000000000000000000000000000000000000000000000008152306004820152602081602481885afa908115610ac05784908892610a86575b506109de9192612685565b11610a1c5781610a127f8bbfbb5d7fcacf6fc74005cdede0635561638507f576c95f7f294c22141be2e59360209386612ae2565b604051908152a380f35b608460405162461bcd60e51b815260206004820152602860248201527f537461626c655374616b65723a20776f756c6420746f7563682075736572207060448201527f72696e636970616c0000000000000000000000000000000000000000000000006064820152fd5b9150506020813d602011610ab8575b81610aa2602093836125eb565b81010312610ab45751836109de6109d3565b5f80fd5b3d9150610a95565b6040513d89823e3d90fd5b8461098e565b606460405162461bcd60e51b815260206004820152601c60248201527f537461626c655374616b65723a207a65726f20726563697069656e74000000006044820152fd5b503461048357604060031936011261048357610b2f612419565b7f83e15551372e4d4bb4b7602905b434efa1bd61fd20b4d43d838d913418f5569b6040602435610b5d612c8b565b610b886001600160a01b03851694610b83610201875f52600760205260405f2054151590565b612bc8565b6201518081048486526003602052808387205582519182526020820152a280f35b503461048357604060031936011261048357610bc3612419565b602435610bce612888565b610bd6612b92565b6001600160a01b03821690610bf9610201835f52600760205260405f2054151590565b610c048115156127f2565b818452600960205260ff604085205416600281101561045657610c279015612798565b81845260036020526001670de0b6b3a7640000610ca4610c7c6040882096610c4e81612bc8565b8689526004602052604089206001600160a01b0333165f5260205261087360405f209661086c8a8933613324565b95610c8887151561283d565b610c93878654612685565b8555600381016108a1888254612685565b049101558083526005602052610cbd33604085206138bd565b506040519182527f5dac0c1b1112564a045ba943c9d50270893e8e826c49be8e7073adc713ab7bd760203393a360017f9b779b17422d0df92223018b32b4d1fa46e071723d6817e2486d003becc55f005580f35b5034610483576020600319360112610483576001600160a01b03604060209282610d39612419565b16815260088452205416604051908152f35b503461048357806003193601126104835760206001600160a01b0360015416604051908152f35b503461048357604060031936011261048357610d8c612419565b6001600160a01b03610d9c61242f565b91169081835260036020526040832091600183015492818552600960205260ff6040862054166002811015610901571580610ed9575b80610ecc575b610e29575b6020610e2185856001600160a01b0360408a888152600487522091165f5283526001670de0b6b3a7640000610e1760405f2093845461270a565b0491015490612754565b604051908152f35b610e45610e3d600283969496015442612754565b82549061270a565b90670de0b6b3a7640000820291808304670de0b6b3a76400001490151715610e9f57602095610e92610e21969594610e8c6001600160a01b0395600360409601549061271d565b90612685565b9550955050919091610ddd565b6024867f4e487b710000000000000000000000000000000000000000000000000000000081526011600452fd5b5060038101541515610dd8565b5060028101544211610dd2565b50346104835760206003193601126104835760406080916001600160a01b03610f0d612419565b1681526003602052208054906001810154906003600282015491015491604051938452602084015260408301526060820152f35b5034610483576020600319360112610483576001600160a01b03610f63612419565b168152600960205260ff604082205416604051906002811015610f8857602092508152f35b6024837f4e487b710000000000000000000000000000000000000000000000000000000081526021600452fd5b50346104835780600319360112610483576001600160a01b036020915416604051908152f35b50346104835780600319360112610483576001600160a01b0360015416330361107057611006612b92565b740100000000000000000000000000000000000000007fffffffffffffffffffffff00ffffffffffffffffffffffffffffffffffffffff8254161781557f62e78cea01bee320cd4e420270b5ea74000d11b0c9f74754ebdbfc544b05a2586020604051338152a180f35b606460405162461bcd60e51b815260206004820152601960248201527f537461626c655374616b65723a206f6e6c7920706175736572000000000000006044820152fd5b503461048357602060031936011261048357604080916001600160a01b036110da612419565b168152600a602052206001815491015482519182526020820152f35b503461048357806003193601126104835760206001600160a01b0360025416604051908152f35b5034610483576020600319360112610483576001600160a01b0361113f612419565b168152600560205260408120604051918260208354918281520192825260208220915b818110611185576106ef85611179818703826125eb565b60405191829182612445565b8254845260209093019260019283019201611162565b50346104835780600319360112610483576020604051620151808152f35b5034610483576020600319360112610483576111d3612419565b6111db612888565b6111f16001600160a01b036002541633146124c1565b6001600160a01b03811690611214610201835f52600760205260405f2054151590565b818352600960205260ff6040842054166002811015611454576112379015612798565b61124081612bc8565b818352600360205260036040842001549082845260086020526001600160a01b03604085205416916112728183612de8565b908315801593846113c4575b5015611380577fa2a75f8a973d2f48e592c963d71dfd27c2d74fcabf86d721a2b68f4430125b299360409361133f575b50848652600960205282862060017fffffffffffffffffffffffffffffffffffffffffffffffffffffffffffffff0082541617905582516112ee816125a2565b828152600160208201838152878952600a602052858920925183555191015582519182526020820152a260017f9b779b17422d0df92223018b32b4d1fa46e071723d6817e2486d003becc55f005580f35b61134990866132b8565b84865260086020528286207fffffffffffffffffffffffff000000000000000000000000000000000000000081541690555f6112ae565b606460405162461bcd60e51b815260206004820152601d60248201527f537461626c655374616b65723a20696e636f6d706c65746520657869740000006044820152fd5b6040517fbe875e4f0000000000000000000000000000000000000000000000000000000081526001600160a01b039190911660048201523060248201529050602081604481885afa908115610ac0578791611422575b50155f61127e565b90506020813d60201161144c575b8161143d602093836125eb565b81010312610ab457515f61141a565b3d9150611430565b6024847f4e487b710000000000000000000000000000000000000000000000000000000081526021600452fd5b503461048357806003193601126104835761149a612c8b565b806001600160a01b0381547fffffffffffffffffffffffff000000000000000000000000000000000000000081168355167f8be0079c531659141344cd1fd0a4f28419497f9722a3daafe3b4186f6b6457e08280a380f35b50346104835760206003193601126104835761150c612419565b611514612888565b6001600160a01b03811690818352600960205260ff6040842054166002811015611454576102e96001939261154c6115b99315612798565b8386526004602052604086206001600160a01b0333165f5260205260405f209086825496879361157d8515156126bf565b828155015584875260036020526003604088200161159c838254612754565b905584875260056020526115b33360408920613770565b50612de8565b6040519182527f457e4fe0c9f161a0c6f3bfb8d7809a4ac19f6291bd81b03b86b0d00f9af3717b60203393a360017f9b779b17422d0df92223018b32b4d1fa46e071723d6817e2486d003becc55f005580f35b503461048357604060031936011261048357611626612419565b602435906001600160a01b0382168092036103f357611643612c8b565b6001600160a01b038116611665610201825f52600760205260405f2054151590565b808452600960205260ff6040852054166002811015610456576116889015612798565b8084526003602052600360408520015461194c5780845260086020526001600160a01b03604085205416918261189d575b818552600860205260408520847fffffffffffffffffffffffff00000000000000000000000000000000000000008254161790558361171b575b507f3516568a649d8b032ca21ab63e0a7648daa892b0f3b8bf042a620ecbabb9b3b38480a480f35b6117275f198584613630565b15611851575b6040517f70a08231000000000000000000000000000000000000000000000000000000008152306004820152602081602481865afa908115611846578691611814575b508061177d575b506116f3565b6040517ff45346dc0000000000000000000000000000000000000000000000000000000081526001600160a01b03929092166004830152602482015230604482015260208160648188885af18015611809576117da575b80611777565b6117fb9060203d602011611802575b6117f381836125eb565b8101906127e3565b505f6117d4565b503d6117e9565b6040513d87823e3d90fd5b90506020813d60201161183e575b8161182f602093836125eb565b81010312610ab457515f611770565b3d9150611822565b6040513d88823e3d90fd5b61185b8483613697565b156118715761186c5f198584613706565b61172d575b602485837f5274afe7000000000000000000000000000000000000000000000000000000008252600452fd5b6118a78382612cca565b6118e25781855260036020526003604086200154806118d1575b506118cc83836132b8565b6116b9565b6118db9082612de8565b505f6118c1565b608460405162461bcd60e51b815260206004820152602560248201527f537461626c655374616b65723a206f6c6420737472617465677920756e64657260448201527f77617465720000000000000000000000000000000000000000000000000000006064820152fd5b606460405162461bcd60e51b815260206004820152601c60248201527f537461626c655374616b65723a20706f6f6c206e6f7420656d707479000000006044820152fd5b503461048357806003193601126104835760ff6020915460a01c166040519015158152f35b50346104835760206003193601126104835760206119d96119d4612419565b612761565b6040519015158152f35b5034610483576020600319360112610483576001600160a01b03611a05612419565b611a0d612c8b565b16611a26610201825f52600760205260405f2054151590565b808252600960205260ff6040832054166002811015610f88576001611a4b9114612557565b80825260056020526040822054611b4a5780825260036020526003604083200154611b0657604051611a7c816125a2565b828152600160208201848152838552600a60205260408520925183555191015580825260036020524260026040842001558082526009602052604082207fffffffffffffffffffffffffffffffffffffffffffffffffffffffffffffff0081541690557f166f3ed4a8705d397d4e3d9f51ffaa9f9977cbaa7ce64891f1f88faccb6017d68280a280f35b606460405162461bcd60e51b815260206004820152601f60248201527f537461626c655374616b65723a207072696e636970616c2072656d61696e73006044820152fd5b606460405162461bcd60e51b815260206004820152601c60248201527f537461626c655374616b65723a207374616b6572732072656d61696e000000006044820152fd5b503461048357806003193601126104835780546001600160a01b03811633148015611ca8575b15611c3e5760ff8160a01c1615611c16577fffffffffffffffffffffff00ffffffffffffffffffffffffffffffffffffffff1681557f5db9ee0a495bf2e6ff9c91a7834c1ba4fdd244a5e8aa4e537bd38aeae4b073aa6020604051338152a180f35b6004827f8dfc202b000000000000000000000000000000000000000000000000000000008152fd5b608460405162461bcd60e51b815260206004820152602260248201527f537461626c655374616b65723a206f6e6c79206f776e6572206f72207061757360448201527f65720000000000000000000000000000000000000000000000000000000000006064820152fd5b506001600160a01b03600154163314611bb4565b50346104835780600319360112610483576020604051670de0b6b3a76400008152f35b503461048357602060031936011261048357611cf9612419565b611d01612c8b565b6001600160a01b0380600154921691827fffffffffffffffffffffffff0000000000000000000000000000000000000000821617600155167f1ff153f4b082245afbf3211a8d2d207da4c5df490e965f9a9ad141b0cd001dda8380a380f35b50346104835760206003193601126104835760406020916001600160a01b03611d87612419565b168152600583522054604051908152f35b5034610483576020600319360112610483576001600160a01b03611dba612419565b611dc2612c8b565b16807fffffffffffffffffffffffff000000000000000000000000000000000000000060025416176002557f3ba4758949febc607e14523620298f8b5995b1848492ad7aa083372ac886ae078280a280f35b503461048357806003193601126104835760206040516001600160a01b037f0000000000000000000000000000000000000000000000000000000000000000168152f35b5034610ab4576020600319360112610ab457611e72612419565b611e7a612888565b611e82612b92565b6001600160a01b038116611ea4610201825f52600760205260405f2054151590565b805f526003602052611eb960405f2092612bc8565b805f52600460205260405f206001600160a01b0333165f5260205260405f2060018154930154611f036001670de0b6b3a7640000611ef7848861270a565b04930192835490612754565b93841561201157670de0b6b3a764000091611f1d9161270a565b0490556001600160a01b037f000000000000000000000000000000000000000000000000000000000000000016803b15610ab4576040517f40c10f1900000000000000000000000000000000000000000000000000000000815233600482015260248101849052905f908290604490829084905af1801561200657611ff1575b506040519182527ff7a40077ff7a04c7e61f6f26fb13774259ddf1b6bce9ecf26a8276cdd399268360203393a360017f9b779b17422d0df92223018b32b4d1fa46e071723d6817e2486d003becc55f005580f35b611ffe9193505f906125eb565b5f915f611f9d565b6040513d5f823e3d90fd5b606460405162461bcd60e51b815260206004820152601e60248201527f537461626c655374616b65723a206e6f7468696e6720746f20636c61696d00006044820152fd5b34610ab4576040600319360112610ab45761206e612419565b6001600160a01b0361207e61242f565b91165f5260046020526001600160a01b0360405f2091165f526020526040805f206001815491015482519182526020820152f35b34610ab4575f600319360112610ab45760405180602060065491828152019060065f527ff652222313e28459528d920b65115c16c04f3efc82aaedc97be59f3f377c0d3f905f5b818110612110576106ef85611179818703826125eb565b82548452602090930192600192830192016120f9565b34610ab4576020600319360112610ab45761213f612419565b612147612888565b6001600160a01b03811690815f52600960205260ff60405f20541690600282101561220a5761217b60016121ac9314612557565b825f52600460205260405f206001600160a01b0333165f526020526121a560405f205415156126bf565b33906128ff565b906121b8823383612ae2565b6040519182527ff495d56a893b888fe44719a283334decb99c2483075e5c1b618fcf145cb98eda60203393a360017f9b779b17422d0df92223018b32b4d1fa46e071723d6817e2486d003becc55f0055005b7f4e487b71000000000000000000000000000000000000000000000000000000005f52602160045260245ffd5b34610ab4576040600319360112610ab457612250612419565b6024359067ffffffffffffffff8211610ab45736602383011215610ab45781600401359067ffffffffffffffff8211610ab4573660248360051b85010111610ab45761229a612888565b6122b06001600160a01b036002541633146124c1565b6001600160a01b038116906122d3610201835f52600760205260405f2054151590565b815f52600960205260ff60405f205416600281101561220a5760016122f89114612557565b6123018361262c565b9361230f60405195866125eb565b83855261231b8461262c565b7fffffffffffffffffffffffffffffffffffffffffffffffffffffffffffffffe06020870191013682375f93845b868610156123955760248660051b850101356001600160a01b0381168103610ab45760019161237b61238d92886128ff565b90816123878a8d612644565b52612685565b950194612349565b87935080612407575b50509060017f9b779b17422d0df92223018b32b4d1fa46e071723d6817e2486d003becc55f0055604051918291602083019060208452518091526040830191905f5b8181106123ee575050500390f35b82518452859450602093840193909201916001016123e0565b612412913390612ae2565b828061239e565b600435906001600160a01b0382168203610ab457565b602435906001600160a01b0382168203610ab457565b60206040818301928281528451809452019201905f5b8181106124685750505090565b82516001600160a01b031684526020938401939092019160010161245b565b6003196060910112610ab4576004356001600160a01b0381168103610ab457906024356001600160a01b0381168103610ab4579060443590565b156124c857565b606460405162461bcd60e51b815260206004820152601b60248201527f537461626c655374616b65723a206f6e6c79206d69677261746f7200000000006044820152fd5b1561251357565b606460405162461bcd60e51b815260206004820152601b60248201527f537461626c655374616b65723a20756e6b6e6f776e20746f6b656e00000000006044820152fd5b1561255e57565b606460405162461bcd60e51b815260206004820152602060248201527f537461626c655374616b65723a20706f6f6c206e6f74206d6967726174696e676044820152fd5b6040810190811067ffffffffffffffff8211176125be57604052565b7f4e487b71000000000000000000000000000000000000000000000000000000005f52604160045260245ffd5b90601f7fffffffffffffffffffffffffffffffffffffffffffffffffffffffffffffffe0910116810190811067ffffffffffffffff8211176125be57604052565b67ffffffffffffffff81116125be5760051b60200190565b80518210156126585760209160051b010190565b7f4e487b71000000000000000000000000000000000000000000000000000000005f52603260045260245ffd5b9190820180921161269257565b7f4e487b71000000000000000000000000000000000000000000000000000000005f52601160045260245ffd5b156126c657565b606460405162461bcd60e51b815260206004820152601c60248201527f537461626c655374616b65723a206e6f7468696e67207374616b6564000000006044820152fd5b8181029291811591840414171561269257565b8115612727570490565b7f4e487b71000000000000000000000000000000000000000000000000000000005f52601260045260245ffd5b9190820391821161269257565b6001600160a01b0381165f5260086020526001600160a01b0360405f20541680156127925761278f91612cca565b90565b50505f90565b1561279f57565b606460405162461bcd60e51b815260206004820152601d60248201527f537461626c655374616b65723a20706f6f6c206e6f74206163746976650000006044820152fd5b90816020910312610ab4575190565b156127f957565b606460405162461bcd60e51b815260206004820152601660248201527f537461626c655374616b65723a20616d6f756e743d30000000000000000000006044820152fd5b1561284457565b606460405162461bcd60e51b815260206004820152601e60248201527f537461626c655374616b65723a206e6f7468696e6720637265646974656400006044820152fd5b60027f9b779b17422d0df92223018b32b4d1fa46e071723d6817e2486d003becc55f0054146128d75760027f9b779b17422d0df92223018b32b4d1fa46e071723d6817e2486d003becc55f0055565b7f3ee5aeb5000000000000000000000000000000000000000000000000000000005f5260045ffd5b6001600160a01b03909291921691825f52600460205260405f206001600160a01b0382165f5260205260405f20928354938415612ada57815f52600a60205261296560405f20600181015490548181105f14612ad057612960905b8861270a565b61271d565b94825f5260036020526129ad600360405f205f670de0b6b3a764000061298f60018401548761270a565b04816129a16001890192835490612754565b97555501918254612754565b9055815f52600560205260405f20926129d06001600160a01b0382168095613770565b5081612a0a575b5060407f8df5f93d7bf3c165bfade24de267a17c16f43a3e2bdbc1f4aa919a19f42056cd918151908782526020820152a3565b906001600160a01b037f000000000000000000000000000000000000000000000000000000000000000016803b15610ab4576040517f40c10f190000000000000000000000000000000000000000000000000000000081526001600160a01b03939093166004840152602483018290525f908390604490829084905af1908115612006577f8df5f93d7bf3c165bfade24de267a17c16f43a3e2bdbc1f4aa919a19f42056cd92604092612ac0575b5091506129d7565b5f612aca916125eb565b5f612ab8565b506129608161295a565b505f93505050565b916001600160a01b03604051927fa9059cbb000000000000000000000000000000000000000000000000000000005f521660045260245260205f60448180865af19060015f5114821615612b71575b60405215612b3c5750565b6001600160a01b03907f5274afe7000000000000000000000000000000000000000000000000000000005f521660045260245ffd5b906001811516612b8957823b15153d15161690612b31565b503d5f823e3d90fd5b60ff5f5460a01c16612ba057565b7fd93c0665000000000000000000000000000000000000000000000000000000005f5260045ffd5b6001600160a01b0316805f52600960205260ff60405f205416600281101561220a57612c88575f52600360205260405f2060028101908154421115612c845760038101548015612c7d57612c28612c20845442612754565b83549061270a565b9081158015612c3b575b50505050429055565b670de0b6b3a76400008302928304670de0b6b3a764000014171561269257612c68600191612c729361271d565b9201918254612685565b90555f808080612c32565b5050429055565b5050565b50565b6001600160a01b035f54163303612c9e57565b7f118cdaa7000000000000000000000000000000000000000000000000000000005f523360045260245ffd5b6040517f84d10bff0000000000000000000000000000000000000000000000000000000081526001600160a01b0382811660048301523060248301529192909116602082604481845afa918215612006575f92612db2575b506040517fbe875e4f0000000000000000000000000000000000000000000000000000000081526001600160a01b03909316600484015230602484015260209083908180604481015b03915afa918215612006575f92612d8157501090565b9091506020813d602011612daa575b81612d9d602093836125eb565b81010312610ab457511190565b3d9150612d90565b9091506020813d602011612de0575b81612dce602093836125eb565b81010312610ab4575190612d6b612d22565b3d9150612dc1565b6001600160a01b03811691825f5260086020526001600160a01b0360405f205416928315612f97575f91604051937f70a08231000000000000000000000000000000000000000000000000000000008552306004860152602085602481865afa948515612006575f95612f63575b50853b15610ab4576040517f69328dec0000000000000000000000000000000000000000000000000000000081526001600160a01b039190911660048201526024810191909152306044820152935f908590606490829084905af193841561200657602494612f4d575b50602090604051948580927f70a082310000000000000000000000000000000000000000000000000000000082523060048301525afa908115612f415790612f0d575b61278f9250612754565b506020823d602011612f39575b81612f27602093836125eb565b81010312610ab45761278f9151612f03565b3d9150612f1a565b604051903d90823e3d90fd5b612f5a9192505f906125eb565b5f906020612ec0565b9094506020813d602011612f8f575b81612f7f602093836125eb565b81010312610ab45751935f612e56565b3d9150612f72565b5091505090565b9190915f926001600160a01b03821690815f5260086020526001600160a01b0360405f2054169283156132b157612fd58482612cca565b61312a578590604051947f70a08231000000000000000000000000000000000000000000000000000000008652306004870152602086602481885afa95861561311f5783966130e8575b50803b156103f3576040517f69328dec0000000000000000000000000000000000000000000000000000000081526001600160a01b039290921660048301526024820193909352306044820152918290606490829084905af18015611809576130d3575b5092602060249394604051948580927f70a082310000000000000000000000000000000000000000000000000000000082523060048301525afa908115612f415790612f0d5761278f9250612754565b6130de8580926125eb565b6103e2575f613083565b925094506020823d602011613117575b81613105602093836125eb565b81010312610ab457869151945f61301f565b3d91506130f8565b6040513d85823e3d90fd5b9291909394506040517f70a08231000000000000000000000000000000000000000000000000000000008152306004820152602081602481855afa80156120065785915f9161327c575b5010156131e557608460405162461bcd60e51b815260206004820152602160248201527f537461626c655374616b65723a20737472617465677920756e6465727761746560448201527f72000000000000000000000000000000000000000000000000000000000000006064820152fd5b604051908482527f75743a8adbb2d6af4afcdc51b1af74f7ca1a7765ca9ec153675e41342db5f2be60203393a3803b15610ab4576040517f32ab5f7f0000000000000000000000000000000000000000000000000000000081526001600160a01b03929092166004830152602482018390525f908290604490829084905af1801561200657613272575090565b5f61278f916125eb565b9150506020813d6020116132a9575b81613298602093836125eb565b81010312610ab4578490515f613174565b3d915061328b565b5093505050565b906132c45f8284613630565b156132cd575050565b6132d78183613697565b156132ef575f6132e79183613706565b15612b3c5750565b6001600160a01b03827f5274afe7000000000000000000000000000000000000000000000000000000005f521660045260245ffd5b919080549182613335575b50505050565b670de0b6b3a7640000610e17613351946001809401549061270a565b908161335f575b808061332f565b6001600160a01b037f00000000000000000000000000000000000000000000000000000000000000001691823b15610ab4576040517f40c10f190000000000000000000000000000000000000000000000000000000081526001600160a01b039290921660048301526024820152905f908290604490829084905af18015612006576133ec575b80613358565b5f6133f6916125eb565b5f6133e6565b6001600160a01b039092919216604051917f70a08231000000000000000000000000000000000000000000000000000000008352306004840152602083602481855afa928315612006575f9361353e575b506001600160a01b03604051947f23b872dd000000000000000000000000000000000000000000000000000000005f52166004523060245260445260205f60648180855af160015f511481161561351f575b836040525f606052156134f457826024816020937f70a082310000000000000000000000000000000000000000000000000000000082523060048301525afa8015612006575f90612f0d5761278f9250612754565b7f5274afe7000000000000000000000000000000000000000000000000000000005f5260045260245ffd5b600181151661353557813b15153d15161661349f565b833d5f823e3d90fd5b9092506020813d60201161356a575b8161355a602093836125eb565b81010312610ab45751915f61344d565b3d915061354d565b6001600160a01b0381165f5260086020526001600160a01b0360405f205416801561362b576040517ff45346dc0000000000000000000000000000000000000000000000000000000081526001600160a01b03929092166004830152602482019290925230604482015290602090829060649082905f905af1908115612006575f916135fc575090565b90506020813d602011613623575b81613617602093836125eb565b81010312610ab4575190565b3d915061360a565b505090565b92916001600160a01b03604051927f095ea7b3000000000000000000000000000000000000000000000000000000005f521660045260245260205f60448180875af19260015f5114841615613686575b50604052565b3d15903b151516909216915f613680565b91906001600160a01b03604051917f095ea7b3000000000000000000000000000000000000000000000000000000005f52166004525f60245260205f60448180875af19260015f51148416156136ed5750604052565b60018492941516613535573b15153d151616915f613680565b92916001600160a01b03604051927f095ea7b3000000000000000000000000000000000000000000000000000000005f521660045260245260205f60448180875af19260015f51148416156136ed5750604052565b8054821015612658575f5260205f2001905f90565b906001820191815f528260205260405f20548015155f1461385b575f198101818111612692578254905f19820191821161269257818103613810575b505050805480156137e3575f1901906137c5828261375b565b5f1982549160031b1b19169055555f526020525f6040812055600190565b7f4e487b71000000000000000000000000000000000000000000000000000000005f52603160045260245ffd5b613846613820613830938661375b565b90549060031b1c9283928661375b565b81939154905f199060031b92831b921b19161790565b90555f528360205260405f20555f80806137ac565b505050505f90565b805f52600760205260405f2054155f146138b857600654680100000000000000008110156125be576138a1613830826001859401600655600661375b565b9055600654905f52600760205260405f2055600190565b505f90565b5f82815260018201602052604090205461279257805490680100000000000000008210156125be57826138fa61383084600180960185558461375b565b90558054925f520160205260405f205560019056fea2646970667358221220b7d0d805ca2358fc3662d9a730b8d012a04425fd86cdedf3fba66e1b77d99e0564736f6c634300081e0033000000000000000000000000f3b5b661b92b75c71fa5aba8fd95d7514a9cd605000000000000000000000000cad1a7864a108dbff67f4b8af71fab0c7a86d0b6",
        "nonce": "0x2bc",
        "chainId": "0x1"
      },
      "additionalContracts": [],
      "isFixedGasLimit": false
    },
    {
      "hash": "0xa41a7c4544af926205fac63853c27a0d721659bb4b4dafd194078a21e1d39f80",
      "transactionType": "CALL",
      "contractName": "StableStaker",
      "contractAddress": "0xbce8abc09baedcabe93419bf875f6186e182079a",
      "function": "setPauser(address)",
      "arguments": [
        "0x7c5A8EeF1d836450C019FB036453ac6eC97885a3"
      ],
      "transaction": {
        "from": "0xcad1a7864a108dbff67f4b8af71fab0c7a86d0b6",
        "to": "0xbce8abc09baedcabe93419bf875f6186e182079a",
        "value": "0x0",
        "input": "0x2d88af4a0000000000000000000000007c5a8eef1d836450c019fb036453ac6ec97885a3",
        "nonce": "0x2bd",
        "chainId": "0x1"
      },
      "additionalContracts": [],
      "isFixedGasLimit": false
    },
    {
      "hash": "0xb50c0ccafb502fa3e398b66067b94b5fd7d9f140cb5bb918b18ef14377cec16a",
      "transactionType": "CALL",
      "contractName": null,
      "contractAddress": "0x7c5a8eef1d836450c019fb036453ac6ec97885a3",
      "function": "register(address)",
      "arguments": [
        "0xbce8ABC09BaEDCabE93419bF875f6186e182079A"
      ],
      "transaction": {
        "from": "0xcad1a7864a108dbff67f4b8af71fab0c7a86d0b6",
        "to": "0x7c5a8eef1d836450c019fb036453ac6ec97885a3",
        "value": "0x0",
        "input": "0x4420e486000000000000000000000000bce8abc09baedcabe93419bf875f6186e182079a",
        "nonce": "0x2be",
        "chainId": "0x1"
      },
      "additionalContracts": [],
      "isFixedGasLimit": false
    },
    {
      "hash": "0xf33f8e0e5165d57502e1c3b822b06d97a43f6ad300c7496f77139f39bb9b42cf",
      "transactionType": "CALL",
      "contractName": null,
      "contractAddress": "0xf3b5b661b92b75c71fa5aba8fd95d7514a9cd605",
      "function": "setMinter(address,bool)",
      "arguments": [
        "0xbce8ABC09BaEDCabE93419bF875f6186e182079A",
        "true"
      ],
      "transaction": {
        "from": "0xcad1a7864a108dbff67f4b8af71fab0c7a86d0b6",
        "to": "0xf3b5b661b92b75c71fa5aba8fd95d7514a9cd605",
        "value": "0x0",
        "input": "0xcf456ae7000000000000000000000000bce8abc09baedcabe93419bf875f6186e182079a0000000000000000000000000000000000000000000000000000000000000001",
        "nonce": "0x2bf",
        "chainId": "0x1"
      },
      "additionalContracts": [],
      "isFixedGasLimit": false
    },
    {
      "hash": "0x404c712337649e04e48b0e4349cbd03efca76be59dfeecd243ae6b1a66a23c5f",
      "transactionType": "CALL",
      "contractName": "StableStaker",
      "contractAddress": "0xbce8abc09baedcabe93419bf875f6186e182079a",
      "function": "addToken(address)",
      "arguments": [
        "0x865377367054516e17014CcdED1e7d814EDC9ce4"
      ],
      "transaction": {
        "from": "0xcad1a7864a108dbff67f4b8af71fab0c7a86d0b6",
        "to": "0xbce8abc09baedcabe93419bf875f6186e182079a",
        "value": "0x0",
        "input": "0xd48bfca7000000000000000000000000865377367054516e17014ccded1e7d814edc9ce4",
        "nonce": "0x2c0",
        "chainId": "0x1"
      },
      "additionalContracts": [],
      "isFixedGasLimit": false
    },
    {
      "hash": "0xb7787e348be6e4352e65d0c648b178338e0bdfb47cd5d6fde5c30ae286b09619",
      "transactionType": "CALL",
      "contractName": null,
      "contractAddress": "0x90ce274b20a2af4265152b369d09ce6e6dc177f9",
      "function": "setClient(address,bool)",
      "arguments": [
        "0xbce8ABC09BaEDCabE93419bF875f6186e182079A",
        "true"
      ],
      "transaction": {
        "from": "0xcad1a7864a108dbff67f4b8af71fab0c7a86d0b6",
        "to": "0x90ce274b20a2af4265152b369d09ce6e6dc177f9",
        "value": "0x0",
        "input": "0x40cf018e000000000000000000000000bce8abc09baedcabe93419bf875f6186e182079a0000000000000000000000000000000000000000000000000000000000000001",
        "nonce": "0x2c1",
        "chainId": "0x1"
      },
      "additionalContracts": [],
      "isFixedGasLimit": false
    },
    {
      "hash": "0x67d80be0f733917b489cb3405a0fd614431ba6ace796a7ed41f867e5a0e09f26",
      "transactionType": "CALL",
      "contractName": "StableStaker",
      "contractAddress": "0xbce8abc09baedcabe93419bf875f6186e182079a",
      "function": "setYieldStrategy(address,address)",
      "arguments": [
        "0x865377367054516e17014CcdED1e7d814EDC9ce4",
        "0x90ce274b20A2aF4265152B369d09ce6E6Dc177F9"
      ],
      "transaction": {
        "from": "0xcad1a7864a108dbff67f4b8af71fab0c7a86d0b6",
        "to": "0xbce8abc09baedcabe93419bf875f6186e182079a",
        "value": "0x0",
        "input": "0x68f8898a000000000000000000000000865377367054516e17014ccded1e7d814edc9ce400000000000000000000000090ce274b20a2af4265152b369d09ce6e6dc177f9",
        "nonce": "0x2c2",
        "chainId": "0x1"
      },
      "additionalContracts": [],
      "isFixedGasLimit": false
    },
    {
      "hash": "0x2f3a4e530c0446914174771c1b5eed63dd7fb272d4e826a8d93c56db33ed145e",
      "transactionType": "CALL",
      "contractName": null,
      "contractAddress": "0x90ce274b20a2af4265152b369d09ce6e6dc177f9",
      "function": "setSetAsideBuffer(address,uint256)",
      "arguments": [
        "0xbce8ABC09BaEDCabE93419bF875f6186e182079A",
        "10"
      ],
      "transaction": {
        "from": "0xcad1a7864a108dbff67f4b8af71fab0c7a86d0b6",
        "to": "0x90ce274b20a2af4265152b369d09ce6e6dc177f9",
        "value": "0x0",
        "input": "0x9c118c95000000000000000000000000bce8abc09baedcabe93419bf875f6186e182079a000000000000000000000000000000000000000000000000000000000000000a",
        "nonce": "0x2c3",
        "chainId": "0x1"
      },
      "additionalContracts": [],
      "isFixedGasLimit": false
    },
    {
      "hash": "0xd72d0aef598c43941c9ce2e9f94b531b2a4cab7d1ebfd6c9e782902aee90300b",
      "transactionType": "CALL",
      "contractName": "StableStaker",
      "contractAddress": "0xbce8abc09baedcabe93419bf875f6186e182079a",
      "function": "phUSDPerDay(address,uint256)",
      "arguments": [
        "0x865377367054516e17014CcdED1e7d814EDC9ce4",
        "5000000000000000000"
      ],
      "transaction": {
        "from": "0xcad1a7864a108dbff67f4b8af71fab0c7a86d0b6",
        "to": "0xbce8abc09baedcabe93419bf875f6186e182079a",
        "value": "0x0",
        "input": "0xaf842beb000000000000000000000000865377367054516e17014ccded1e7d814edc9ce40000000000000000000000000000000000000000000000004563918244f40000",
        "nonce": "0x2c4",
        "chainId": "0x1"
      },
      "additionalContracts": [],
      "isFixedGasLimit": false
    },
    {
      "hash": "0xb0bc5a73a155e8791104d944edab996d787fb03834c5034f340315180cbe25d9",
      "transactionType": "CALL",
      "contractName": "StableStaker",
      "contractAddress": "0xbce8abc09baedcabe93419bf875f6186e182079a",
      "function": "addToken(address)",
      "arguments": [
        "0xA0b86991c6218b36c1d19D4a2e9Eb0cE3606eB48"
      ],
      "transaction": {
        "from": "0xcad1a7864a108dbff67f4b8af71fab0c7a86d0b6",
        "to": "0xbce8abc09baedcabe93419bf875f6186e182079a",
        "value": "0x0",
        "input": "0xd48bfca7000000000000000000000000a0b86991c6218b36c1d19d4a2e9eb0ce3606eb48",
        "nonce": "0x2c5",
        "chainId": "0x1"
      },
      "additionalContracts": [],
      "isFixedGasLimit": false
    },
    {
      "hash": "0xac801d007481735581ecbdfdfa6dbefb93de6d0afe4c1ea49b472eb613343c7e",
      "transactionType": "CALL",
      "contractName": null,
      "contractAddress": "0x90af002ee537ad5c2c9817ebd4ef22b2e8952470",
      "function": "setClient(address,bool)",
      "arguments": [
        "0xbce8ABC09BaEDCabE93419bF875f6186e182079A",
        "true"
      ],
      "transaction": {
        "from": "0xcad1a7864a108dbff67f4b8af71fab0c7a86d0b6",
        "to": "0x90af002ee537ad5c2c9817ebd4ef22b2e8952470",
        "value": "0x0",
        "input": "0x40cf018e000000000000000000000000bce8abc09baedcabe93419bf875f6186e182079a0000000000000000000000000000000000000000000000000000000000000001",
        "nonce": "0x2c6",
        "chainId": "0x1"
      },
      "additionalContracts": [],
      "isFixedGasLimit": false
    },
    {
      "hash": "0xdb50f6e7a7b39e5c3fc5a6d4b04de107b52e3552d5619379fb5075ef9a2e21ef",
      "transactionType": "CALL",
      "contractName": "StableStaker",
      "contractAddress": "0xbce8abc09baedcabe93419bf875f6186e182079a",
      "function": "setYieldStrategy(address,address)",
      "arguments": [
        "0xA0b86991c6218b36c1d19D4a2e9Eb0cE3606eB48",
        "0x90af002Ee537Ad5C2c9817Ebd4EF22B2e8952470"
      ],
      "transaction": {
        "from": "0xcad1a7864a108dbff67f4b8af71fab0c7a86d0b6",
        "to": "0xbce8abc09baedcabe93419bf875f6186e182079a",
        "value": "0x0",
        "input": "0x68f8898a000000000000000000000000a0b86991c6218b36c1d19d4a2e9eb0ce3606eb4800000000000000000000000090af002ee537ad5c2c9817ebd4ef22b2e8952470",
        "nonce": "0x2c7",
        "chainId": "0x1"
      },
      "additionalContracts": [],
      "isFixedGasLimit": false
    },
    {
      "hash": "0x6447b9c2b82768ac94e4198694062354ed2519a725a7baca773b2166aa0f246f",
      "transactionType": "CALL",
      "contractName": null,
      "contractAddress": "0x90af002ee537ad5c2c9817ebd4ef22b2e8952470",
      "function": "setSetAsideBuffer(address,uint256)",
      "arguments": [
        "0xbce8ABC09BaEDCabE93419bF875f6186e182079A",
        "10"
      ],
      "transaction": {
        "from": "0xcad1a7864a108dbff67f4b8af71fab0c7a86d0b6",
        "to": "0x90af002ee537ad5c2c9817ebd4ef22b2e8952470",
        "value": "0x0",
        "input": "0x9c118c95000000000000000000000000bce8abc09baedcabe93419bf875f6186e182079a000000000000000000000000000000000000000000000000000000000000000a",
        "nonce": "0x2c8",
        "chainId": "0x1"
      },
      "additionalContracts": [],
      "isFixedGasLimit": false
    },
    {
      "hash": "0xe23b0feee9e9f8545905fd6536155218273a51f3865e99ecd6aea401a0fb5be1",
      "transactionType": "CALL",
      "contractName": "StableStaker",
      "contractAddress": "0xbce8abc09baedcabe93419bf875f6186e182079a",
      "function": "phUSDPerDay(address,uint256)",
      "arguments": [
        "0xA0b86991c6218b36c1d19D4a2e9Eb0cE3606eB48",
        "7000000000000000000"
      ],
      "transaction": {
        "from": "0xcad1a7864a108dbff67f4b8af71fab0c7a86d0b6",
        "to": "0xbce8abc09baedcabe93419bf875f6186e182079a",
        "value": "0x0",
        "input": "0xaf842beb000000000000000000000000a0b86991c6218b36c1d19d4a2e9eb0ce3606eb480000000000000000000000000000000000000000000000006124fee993bc0000",
        "nonce": "0x2c9",
        "chainId": "0x1"
      },
      "additionalContracts": [],
      "isFixedGasLimit": false
    },
    {
      "hash": "0xecd1d70e11995ac4839edef5aeed1e6c5ecbf605774b39eba316d3ebb7b9368e",
      "transactionType": "CALL",
      "contractName": "StableStaker",
      "contractAddress": "0xbce8abc09baedcabe93419bf875f6186e182079a",
      "function": "addToken(address)",
      "arguments": [
        "0x4c9EDD5852cd905f086C759E8383e09bff1E68B3"
      ],
      "transaction": {
        "from": "0xcad1a7864a108dbff67f4b8af71fab0c7a86d0b6",
        "to": "0xbce8abc09baedcabe93419bf875f6186e182079a",
        "value": "0x0",
        "input": "0xd48bfca70000000000000000000000004c9edd5852cd905f086c759e8383e09bff1e68b3",
        "nonce": "0x2ca",
        "chainId": "0x1"
      },
      "additionalContracts": [],
      "isFixedGasLimit": false
    },
    {
      "hash": "0xfcc20cb282a1f369e711bf9fb8185de1dfc91b6c02bd3c316fce9ed93ce291ce",
      "transactionType": "CALL",
      "contractName": null,
      "contractAddress": "0xac2e5936eca286ec364d4d5bcca33145fbe57f95",
      "function": "setClient(address,bool)",
      "arguments": [
        "0xbce8ABC09BaEDCabE93419bF875f6186e182079A",
        "true"
      ],
      "transaction": {
        "from": "0xcad1a7864a108dbff67f4b8af71fab0c7a86d0b6",
        "to": "0xac2e5936eca286ec364d4d5bcca33145fbe57f95",
        "value": "0x0",
        "input": "0x40cf018e000000000000000000000000bce8abc09baedcabe93419bf875f6186e182079a0000000000000000000000000000000000000000000000000000000000000001",
        "nonce": "0x2cb",
        "chainId": "0x1"
      },
      "additionalContracts": [],
      "isFixedGasLimit": false
    },
    {
      "hash": "0xfe69a70f4b3b29982d19a1ce9d0cbb4f93d9e53d2a2e31efbd6c15e99d884fb2",
      "transactionType": "CALL",
      "contractName": "StableStaker",
      "contractAddress": "0xbce8abc09baedcabe93419bf875f6186e182079a",
      "function": "setYieldStrategy(address,address)",
      "arguments": [
        "0x4c9EDD5852cd905f086C759E8383e09bff1E68B3",
        "0xaC2e5936Eca286eC364d4D5Bcca33145fBe57f95"
      ],
      "transaction": {
        "from": "0xcad1a7864a108dbff67f4b8af71fab0c7a86d0b6",
        "to": "0xbce8abc09baedcabe93419bf875f6186e182079a",
        "value": "0x0",
        "input": "0x68f8898a0000000000000000000000004c9edd5852cd905f086c759e8383e09bff1e68b3000000000000000000000000ac2e5936eca286ec364d4d5bcca33145fbe57f95",
        "nonce": "0x2cc",
        "chainId": "0x1"
      },
      "additionalContracts": [],
      "isFixedGasLimit": false
    },
    {
      "hash": "0x43bd6341824f9fb20e62fd111ab0158e58a75876d860a788a27bb565988a044d",
      "transactionType": "CALL",
      "contractName": null,
      "contractAddress": "0xac2e5936eca286ec364d4d5bcca33145fbe57f95",
      "function": "setSetAsideBuffer(address,uint256)",
      "arguments": [
        "0xbce8ABC09BaEDCabE93419bF875f6186e182079A",
        "10"
      ],
      "transaction": {
        "from": "0xcad1a7864a108dbff67f4b8af71fab0c7a86d0b6",
        "to": "0xac2e5936eca286ec364d4d5bcca33145fbe57f95",
        "value": "0x0",
        "input": "0x9c118c95000000000000000000000000bce8abc09baedcabe93419bf875f6186e182079a000000000000000000000000000000000000000000000000000000000000000a",
        "nonce": "0x2cd",
        "chainId": "0x1"
      },
      "additionalContracts": [],
      "isFixedGasLimit": false
    },
    {
      "hash": "0x9df71adf94b13dace1b73b8913e39b53ecbbb1357efca6470c82a18636d12a24",
      "transactionType": "CALL",
      "contractName": "StableStaker",
      "contractAddress": "0xbce8abc09baedcabe93419bf875f6186e182079a",
      "function": "phUSDPerDay(address,uint256)",
      "arguments": [
        "0x4c9EDD5852cd905f086C759E8383e09bff1E68B3",
        "10000000000000000000"
      ],
      "transaction": {
        "from": "0xcad1a7864a108dbff67f4b8af71fab0c7a86d0b6",
        "to": "0xbce8abc09baedcabe93419bf875f6186e182079a",
        "value": "0x0",
        "input": "0xaf842beb0000000000000000000000004c9edd5852cd905f086c759e8383e09bff1e68b30000000000000000000000000000000000000000000000008ac7230489e80000",
        "nonce": "0x2ce",
        "chainId": "0x1"
      },
      "additionalContracts": [],
      "isFixedGasLimit": false
    }
  ],
  "receipts": [
    {
      "status": "0x1",
      "cumulativeGasUsed": "0x34a6ad2",
      "logs": [
        {
          "address": "0x865377367054516e17014ccded1e7d814edc9ce4",
          "topics": [
            "0xddf252ad1be2c89b69c2b068fc378daa952ba7f163c4a11628f55a4df523b3ef",
            "0x000000000000000000000000cad1a7864a108dbff67f4b8af71fab0c7a86d0b6",
            "0x00000000000000000000000090ce274b20a2af4265152b369d09ce6e6dc177f9"
          ],
          "data": "0x0000000000000000000000000000000000000000000002ecff58a2b07a942d07",
          "blockHash": "0xf721d07f86128398cece1cef880c06a089e1605dde7acc62e5267a7e9b51a657",
          "blockNumber": "0x181d1e1",
          "blockTimestamp": "0x6a28fc33",
          "transactionHash": "0xec71a03ab65e4ad33fc55c5816d7816577c3b6054484ba5509d6cb5325d61d89",
          "transactionIndex": "0x13c",
          "logIndex": "0x4fe",
          "removed": false
        },
        {
          "address": "0x865377367054516e17014ccded1e7d814edc9ce4",
          "topics": [
            "0xddf252ad1be2c89b69c2b068fc378daa952ba7f163c4a11628f55a4df523b3ef",
            "0x00000000000000000000000090ce274b20a2af4265152b369d09ce6e6dc177f9",
            "0x00000000000000000000000079eb84b5e30ef2481c8f00fd0aa7aad6ac0aa54d"
          ],
          "data": "0x0000000000000000000000000000000000000000000002ecff58a2b07a942d07",
          "blockHash": "0xf721d07f86128398cece1cef880c06a089e1605dde7acc62e5267a7e9b51a657",
          "blockNumber": "0x181d1e1",
          "blockTimestamp": "0x6a28fc33",
          "transactionHash": "0xec71a03ab65e4ad33fc55c5816d7816577c3b6054484ba5509d6cb5325d61d89",
          "transactionIndex": "0x13c",
          "logIndex": "0x4ff",
          "removed": false
        },
        {
          "address": "0x79eb84b5e30ef2481c8f00fd0aa7aad6ac0aa54d",
          "topics": [
            "0xddf252ad1be2c89b69c2b068fc378daa952ba7f163c4a11628f55a4df523b3ef",
            "0x0000000000000000000000000000000000000000000000000000000000000000",
            "0x00000000000000000000000090ce274b20a2af4265152b369d09ce6e6dc177f9"
          ],
          "data": "0x0000000000000000000000000000000000000000000002812233613e9a55cabe",
          "blockHash": "0xf721d07f86128398cece1cef880c06a089e1605dde7acc62e5267a7e9b51a657",
          "blockNumber": "0x181d1e1",
          "blockTimestamp": "0x6a28fc33",
          "transactionHash": "0xec71a03ab65e4ad33fc55c5816d7816577c3b6054484ba5509d6cb5325d61d89",
          "transactionIndex": "0x13c",
          "logIndex": "0x500",
          "removed": false
        },
        {
          "address": "0x79eb84b5e30ef2481c8f00fd0aa7aad6ac0aa54d",
          "topics": [
            "0xdcbc1c05240f31ff3ad067ef1ee35ce4997762752e3a095284754544f4c709d7",
            "0x00000000000000000000000090ce274b20a2af4265152b369d09ce6e6dc177f9",
            "0x00000000000000000000000090ce274b20a2af4265152b369d09ce6e6dc177f9"
          ],
          "data": "0x0000000000000000000000000000000000000000000002ecff58a2b07a942d070000000000000000000000000000000000000000000002812233613e9a55cabe",
          "blockHash": "0xf721d07f86128398cece1cef880c06a089e1605dde7acc62e5267a7e9b51a657",
          "blockNumber": "0x181d1e1",
          "blockTimestamp": "0x6a28fc33",
          "transactionHash": "0xec71a03ab65e4ad33fc55c5816d7816577c3b6054484ba5509d6cb5325d61d89",
          "transactionIndex": "0x13c",
          "logIndex": "0x501",
          "removed": false
        },
        {
          "address": "0x79eb84b5e30ef2481c8f00fd0aa7aad6ac0aa54d",
          "topics": [
            "0xfde591d4268ec544cdd14ce6872b792705c3a22041dda226551134062d3e05e8"
          ],
          "data": "0x00000000000000000000000000000000000000000000032393468e1bc427267600000000000000000000000000000000000000000000197ec37b454a66202b1100000000000000000000000000000000000000000000188701840631fc8c2792",
          "blockHash": "0xf721d07f86128398cece1cef880c06a089e1605dde7acc62e5267a7e9b51a657",
          "blockNumber": "0x181d1e1",
          "blockTimestamp": "0x6a28fc33",
          "transactionHash": "0xec71a03ab65e4ad33fc55c5816d7816577c3b6054484ba5509d6cb5325d61d89",
          "transactionIndex": "0x13c",
          "logIndex": "0x502",
          "removed": false
        },
        {
          "address": "0x90ce274b20a2af4265152b369d09ce6e6dc177f9",
          "topics": [
            "0xb045190548dadae679cfe9e337437613ca6dd73efdf984f75e56f152ccee22f0",
            "0x000000000000000000000000865377367054516e17014ccded1e7d814edc9ce4",
            "0x000000000000000000000000cad1a7864a108dbff67f4b8af71fab0c7a86d0b6",
            "0x000000000000000000000000435b0a1884bd0fb5667677c9eb0e59425b1477e5"
          ],
          "data": "0x0000000000000000000000000000000000000000000002ecff58a2b07a942d070000000000000000000000000000000000000000000002812233613e9a55cabe",
          "blockHash": "0xf721d07f86128398cece1cef880c06a089e1605dde7acc62e5267a7e9b51a657",
          "blockNumber": "0x181d1e1",
          "blockTimestamp": "0x6a28fc33",
          "transactionHash": "0xec71a03ab65e4ad33fc55c5816d7816577c3b6054484ba5509d6cb5325d61d89",
          "transactionIndex": "0x13c",
          "logIndex": "0x503",
          "removed": false
        }
      ],
      "logsBloom": "0x000000000000000001200000000000000000820000000000000600000000000000000000000200200000084000000800000000000000000000000000000000000000004000000000000000080000000000000000000000000000000000000000000000000200000000000000000008000000000000040020000004100000800001000000000000000000000000040000000000000000000000000000000000000000000000000000000000000008000000000000000000100000000000000000000000060010000020000000000000000000000a0008100000000000000024000204000000000000000000000000000000001000000000000000000000000000",
      "type": "0x2",
      "transactionHash": "0xec71a03ab65e4ad33fc55c5816d7816577c3b6054484ba5509d6cb5325d61d89",
      "transactionIndex": "0x13c",
      "blockHash": "0xf721d07f86128398cece1cef880c06a089e1605dde7acc62e5267a7e9b51a657",
      "blockNumber": "0x181d1e1",
      "gasUsed": "0x3a773",
      "effectiveGasPrice": "0x7d4a9bd",
      "from": "0xcad1a7864a108dbff67f4b8af71fab0c7a86d0b6",
      "to": "0x90ce274b20a2af4265152b369d09ce6e6dc177f9",
      "contractAddress": null
    },
    {
      "status": "0x1",
      "cumulativeGasUsed": "0x21942c9",
      "logs": [
        {
          "address": "0x90af002ee537ad5c2c9817ebd4ef22b2e8952470",
          "topics": [
            "0x50b24d98d3da51f5db279e5872fa50584b172048aa9bfa6c6edb4d0cfbb4dc58",
            "0x000000000000000000000000435b0a1884bd0fb5667677c9eb0e59425b1477e5"
          ],
          "data": "0x0000000000000000000000000000000000000000000000000000000000000001",
          "blockHash": "0x814e40c70bbe20827d6f15f2f8aa2d99be7cf9bc92ac689e1a99c0e929cd8be8",
          "blockNumber": "0x181d1e2",
          "blockTimestamp": "0x6a28fc3f",
          "transactionHash": "0xb94dd4dc095fee766df626c4eb0b8eb21aa5ef2d661f2f79a6717d57b7534a2d",
          "transactionIndex": "0xe0",
          "logIndex": "0x2cf",
          "removed": false
        }
      ],
      "logsBloom": "0x00000000000000000000000000000000000000000000000000000000000010000000000000000400000000000000080000000000000000000000000000000000000000000000000000000000000000000000000000000000000000000000000000000000000000000000000000000000000000000000000000100000000000000100000000000000000000000000000000000000000000000000000000000000010000000000000800000000000000000000000000000000000000000000000000000004000000000000000000000000000000000000000000000000000000000000000000000000000000000000000000000000000000000000000000000080",
      "type": "0x2",
      "transactionHash": "0xb94dd4dc095fee766df626c4eb0b8eb21aa5ef2d661f2f79a6717d57b7534a2d",
      "transactionIndex": "0xe0",
      "blockHash": "0x814e40c70bbe20827d6f15f2f8aa2d99be7cf9bc92ac689e1a99c0e929cd8be8",
      "blockNumber": "0x181d1e2",
      "gasUsed": "0x169b3",
      "effectiveGasPrice": "0x8c3c802",
      "from": "0xcad1a7864a108dbff67f4b8af71fab0c7a86d0b6",
      "to": "0x90af002ee537ad5c2c9817ebd4ef22b2e8952470",
      "contractAddress": null
    },
    {
      "status": "0x1",
      "cumulativeGasUsed": "0x25ec717",
      "logs": [
        {
          "address": "0x435b0a1884bd0fb5667677c9eb0e59425b1477e5",
          "topics": [
            "0xc3a31eaea4c0b528b360d168d8797d781302b685df4bdb2b4fdfae9592806399",
            "0x000000000000000000000000a0b86991c6218b36c1d19d4a2e9eb0ce3606eb48",
            "0x00000000000000000000000090af002ee537ad5c2c9817ebd4ef22b2e8952470"
          ],
          "data": "0x0000000000000000000000000000000000000000000000000de0b6b3a76400000000000000000000000000000000000000000000000000000000000000000006",
          "blockHash": "0xcaa26e2f7f34756dccaf7432dbe59d1a75d7f91b44f230a5a4d67afacc16e0a7",
          "blockNumber": "0x181d1e4",
          "blockTimestamp": "0x6a28fc57",
          "transactionHash": "0x794a6d0ec29411337d11188c10dcb8acf17a6b61531d669007f09706062b4bde",
          "transactionIndex": "0x10e",
          "logIndex": "0x3c6",
          "removed": false
        }
      ],
      "logsBloom": "0x00000000000000000000000100000000000000000000000000000000000000000000000000000000000002000000000000000000000000000000000000000000000000000000000000000000000000000000000000000000000000000000000000000020000000000000000000000000000000000000000000000000000000000000000000001000000000000000000200000000000000000000000000000000010000000000000000000000000000000000000000004000000000000000000000000000000000000000008000000000000000020000000000000000000000000000000000000000000100000000000004000000000400000000000000000000",
      "type": "0x2",
      "transactionHash": "0x794a6d0ec29411337d11188c10dcb8acf17a6b61531d669007f09706062b4bde",
      "transactionIndex": "0x10e",
      "blockHash": "0xcaa26e2f7f34756dccaf7432dbe59d1a75d7f91b44f230a5a4d67afacc16e0a7",
      "blockNumber": "0x181d1e4",
      "gasUsed": "0xeb1c",
      "effectiveGasPrice": "0x96cabc9",
      "from": "0xcad1a7864a108dbff67f4b8af71fab0c7a86d0b6",
      "to": "0x435b0a1884bd0fb5667677c9eb0e59425b1477e5",
      "contractAddress": null
    },
    {
      "status": "0x1",
      "cumulativeGasUsed": "0x15bf82a",
      "logs": [
        {
          "address": "0xa0b86991c6218b36c1d19d4a2e9eb0ce3606eb48",
          "topics": [
            "0x8c5be1e5ebec7d5bd14f71427d1e84f3dd0314c0f7b2291e5b200ac8c7c3b925",
            "0x000000000000000000000000435b0a1884bd0fb5667677c9eb0e59425b1477e5",
            "0x00000000000000000000000090af002ee537ad5c2c9817ebd4ef22b2e8952470"
          ],
          "data": "0xffffffffffffffffffffffffffffffffffffffffffffffffffffffffffffffff",
          "blockHash": "0xc3df3dc22855d76105092299e1dee22e1a220ddd42a6f07ef2b35277e8c99ff5",
          "blockNumber": "0x181d1e6",
          "blockTimestamp": "0x6a28fc6f",
          "transactionHash": "0xe5282416aa52e534ef8b9038eaecd4620d0575c2e4514dba5e4034e9aec8828c",
          "transactionIndex": "0x6f",
          "logIndex": "0x248",
          "removed": false
        },
        {
          "address": "0x435b0a1884bd0fb5667677c9eb0e59425b1477e5",
          "topics": [
            "0x19a490fe10389a19852ba145f5f2c242d1eb13e72a38c85212b51bb65fb10984",
            "0x000000000000000000000000a0b86991c6218b36c1d19d4a2e9eb0ce3606eb48",
            "0x00000000000000000000000090af002ee537ad5c2c9817ebd4ef22b2e8952470"
          ],
          "data": "0x",
          "blockHash": "0xc3df3dc22855d76105092299e1dee22e1a220ddd42a6f07ef2b35277e8c99ff5",
          "blockNumber": "0x181d1e6",
          "blockTimestamp": "0x6a28fc6f",
          "transactionHash": "0xe5282416aa52e534ef8b9038eaecd4620d0575c2e4514dba5e4034e9aec8828c",
          "transactionIndex": "0x6f",
          "logIndex": "0x249",
          "removed": false
        }
      ],
      "logsBloom": "0x00000000000000000000000000000000000000000000000000000000000000000000000000000000000002000000080000000000000000000000000000200000000000000000000008000000000000000000000000000000000000000000000000000000000000000001000020000000000000000400000000000000000000000100000000001000000000000000000200000000010000000000000000000000030000000000200000000000000000000000000000004000000000000000000000000004000000000000008000000000000000020000000000000000000000000010000000000000000000000000000004000000000400000000000000000000",
      "type": "0x2",
      "transactionHash": "0xe5282416aa52e534ef8b9038eaecd4620d0575c2e4514dba5e4034e9aec8828c",
      "transactionIndex": "0x6f",
      "blockHash": "0xc3df3dc22855d76105092299e1dee22e1a220ddd42a6f07ef2b35277e8c99ff5",
      "blockNumber": "0x181d1e6",
      "gasUsed": "0xf692",
      "effectiveGasPrice": "0xa18503f",
      "from": "0xcad1a7864a108dbff67f4b8af71fab0c7a86d0b6",
      "to": "0x435b0a1884bd0fb5667677c9eb0e59425b1477e5",
      "contractAddress": null
    },
    {
      "status": "0x1",
      "cumulativeGasUsed": "0x1c4a86e",
      "logs": [
        {
          "address": "0xa0b86991c6218b36c1d19d4a2e9eb0ce3606eb48",
          "topics": [
            "0x8c5be1e5ebec7d5bd14f71427d1e84f3dd0314c0f7b2291e5b200ac8c7c3b925",
            "0x000000000000000000000000cad1a7864a108dbff67f4b8af71fab0c7a86d0b6",
            "0x00000000000000000000000090af002ee537ad5c2c9817ebd4ef22b2e8952470"
          ],
          "data": "0x00000000000000000000000000000000000000000000000000000002c76b7ff4",
          "blockHash": "0xcc435516f0d7b6e3fdf99c34fd963ea9ce8da01537ef9f6bad3cad0cea82ac3a",
          "blockNumber": "0x181d1e7",
          "blockTimestamp": "0x6a28fc7b",
          "transactionHash": "0xd9cd06164f2856ec64c3f14af29ad536bb924e5d1875333e275e43e475b708b2",
          "transactionIndex": "0x18c",
          "logIndex": "0x229",
          "removed": false
        }
      ],
      "logsBloom": "0x00000000000000000020000000000000000000000000000000000000000000000000000000000000000000400000000000000000000000000000000000200000000000000000000008000000000000000000000000000000000000000000000000000000000000000000000000000000000000000000000000000000000000000000000000000000000000000000000000000000010000000000000000000000020000000000200000000000000000000000000000004000000000000000000000000000000000000000008000000000000000000000100000000000000000000010000000000000000000000000000000000000000400000000000000000000",
      "type": "0x2",
      "transactionHash": "0xd9cd06164f2856ec64c3f14af29ad536bb924e5d1875333e275e43e475b708b2",
      "transactionIndex": "0x18c",
      "blockHash": "0xcc435516f0d7b6e3fdf99c34fd963ea9ce8da01537ef9f6bad3cad0cea82ac3a",
      "blockNumber": "0x181d1e7",
      "gasUsed": "0xd912",
      "effectiveGasPrice": "0xa0c144e",
      "from": "0xcad1a7864a108dbff67f4b8af71fab0c7a86d0b6",
      "to": "0xa0b86991c6218b36c1d19d4a2e9eb0ce3606eb48",
      "contractAddress": null
    },
    {
      "status": "0x1",
      "cumulativeGasUsed": "0x242b076",
      "logs": [
        {
          "address": "0xa0b86991c6218b36c1d19d4a2e9eb0ce3606eb48",
          "topics": [
            "0xddf252ad1be2c89b69c2b068fc378daa952ba7f163c4a11628f55a4df523b3ef",
            "0x000000000000000000000000cad1a7864a108dbff67f4b8af71fab0c7a86d0b6",
            "0x00000000000000000000000090af002ee537ad5c2c9817ebd4ef22b2e8952470"
          ],
          "data": "0x00000000000000000000000000000000000000000000000000000002c76b7ff4",
          "blockHash": "0xd3f4e5059c4fcc7b81dad4ae4c33f4ab3cbd5d6181586157c6bbf5b5a03b8474",
          "blockNumber": "0x181d1e8",
          "blockTimestamp": "0x6a28fc87",
          "transactionHash": "0x3646738d79e6203c683cc7d0411c76ce5e820890c23f688026fce4deb5af94ae",
          "transactionIndex": "0xd5",
          "logIndex": "0x264",
          "removed": false
        },
        {
          "address": "0xa0b86991c6218b36c1d19d4a2e9eb0ce3606eb48",
          "topics": [
            "0xddf252ad1be2c89b69c2b068fc378daa952ba7f163c4a11628f55a4df523b3ef",
            "0x00000000000000000000000090af002ee537ad5c2c9817ebd4ef22b2e8952470",
            "0x000000000000000000000000a7569a44f348d3d70d8ad5889e50f78e33d80d35"
          ],
          "data": "0x00000000000000000000000000000000000000000000000000000002c76b7ff4",
          "blockHash": "0xd3f4e5059c4fcc7b81dad4ae4c33f4ab3cbd5d6181586157c6bbf5b5a03b8474",
          "blockNumber": "0x181d1e8",
          "blockTimestamp": "0x6a28fc87",
          "transactionHash": "0x3646738d79e6203c683cc7d0411c76ce5e820890c23f688026fce4deb5af94ae",
          "transactionIndex": "0xd5",
          "logIndex": "0x265",
          "removed": false
        },
        {
          "address": "0xa7569a44f348d3d70d8ad5889e50f78e33d80d35",
          "topics": [
            "0xddf252ad1be2c89b69c2b068fc378daa952ba7f163c4a11628f55a4df523b3ef",
            "0x0000000000000000000000000000000000000000000000000000000000000000",
            "0x00000000000000000000000090af002ee537ad5c2c9817ebd4ef22b2e8952470"
          ],
          "data": "0x000000000000000000000000000000000000000000000253764ca619b93ff267",
          "blockHash": "0xd3f4e5059c4fcc7b81dad4ae4c33f4ab3cbd5d6181586157c6bbf5b5a03b8474",
          "blockNumber": "0x181d1e8",
          "blockTimestamp": "0x6a28fc87",
          "transactionHash": "0x3646738d79e6203c683cc7d0411c76ce5e820890c23f688026fce4deb5af94ae",
          "transactionIndex": "0xd5",
          "logIndex": "0x266",
          "removed": false
        },
        {
          "address": "0xa7569a44f348d3d70d8ad5889e50f78e33d80d35",
          "topics": [
            "0xdcbc1c05240f31ff3ad067ef1ee35ce4997762752e3a095284754544f4c709d7",
            "0x00000000000000000000000090af002ee537ad5c2c9817ebd4ef22b2e8952470",
            "0x00000000000000000000000090af002ee537ad5c2c9817ebd4ef22b2e8952470"
          ],
          "data": "0x00000000000000000000000000000000000000000000000000000002c76b7ff4000000000000000000000000000000000000000000000253764ca619b93ff267",
          "blockHash": "0xd3f4e5059c4fcc7b81dad4ae4c33f4ab3cbd5d6181586157c6bbf5b5a03b8474",
          "blockNumber": "0x181d1e8",
          "blockTimestamp": "0x6a28fc87",
          "transactionHash": "0x3646738d79e6203c683cc7d0411c76ce5e820890c23f688026fce4deb5af94ae",
          "transactionIndex": "0xd5",
          "logIndex": "0x267",
          "removed": false
        },
        {
          "address": "0xa7569a44f348d3d70d8ad5889e50f78e33d80d35",
          "topics": [
            "0xfde591d4268ec544cdd14ce6872b792705c3a22041dda226551134062d3e05e8"
          ],
          "data": "0x00000000000000000000000000000000000000000000000000000003425fbc6d000000000000000000000000000000000000000000000000000006ab1a42d3140000000000000000000000000000000000000000000597b6144cfe6a910047bd",
          "blockHash": "0xd3f4e5059c4fcc7b81dad4ae4c33f4ab3cbd5d6181586157c6bbf5b5a03b8474",
          "blockNumber": "0x181d1e8",
          "blockTimestamp": "0x6a28fc87",
          "transactionHash": "0x3646738d79e6203c683cc7d0411c76ce5e820890c23f688026fce4deb5af94ae",
          "transactionIndex": "0xd5",
          "logIndex": "0x268",
          "removed": false
        },
        {
          "address": "0x90af002ee537ad5c2c9817ebd4ef22b2e8952470",
          "topics": [
            "0xb045190548dadae679cfe9e337437613ca6dd73efdf984f75e56f152ccee22f0",
            "0x000000000000000000000000a0b86991c6218b36c1d19d4a2e9eb0ce3606eb48",
            "0x000000000000000000000000cad1a7864a108dbff67f4b8af71fab0c7a86d0b6",
            "0x000000000000000000000000435b0a1884bd0fb5667677c9eb0e59425b1477e5"
          ],
          "data": "0x00000000000000000000000000000000000000000000000000000002c76b7ff4000000000000000000000000000000000000000000000253764ca619b93ff267",
          "blockHash": "0xd3f4e5059c4fcc7b81dad4ae4c33f4ab3cbd5d6181586157c6bbf5b5a03b8474",
          "blockNumber": "0x181d1e8",
          "blockTimestamp": "0x6a28fc87",
          "transactionHash": "0x3646738d79e6203c683cc7d0411c76ce5e820890c23f688026fce4deb5af94ae",
          "transactionIndex": "0xd5",
          "logIndex": "0x269",
          "removed": false
        }
      ],
      "logsBloom": "0x00000000000000000020000000000000000080000000000000000000000010000000000000020400000002400000080000000002000000000000000000000000000000400000000008000008000000000000000000000000000004000000000000000000020000000000000008000800000000000004000000000410000000000100000000000000000000000004000200000000010000000000000000000001000000000000200000000000000000000000000000004000000000000000000000000006001000000000008000000000000000000008100000000000000020400000000020000000000000000000000004001000000400000000000000000080",
      "type": "0x2",
      "transactionHash": "0x3646738d79e6203c683cc7d0411c76ce5e820890c23f688026fce4deb5af94ae",
      "transactionIndex": "0xd5",
      "blockHash": "0xd3f4e5059c4fcc7b81dad4ae4c33f4ab3cbd5d6181586157c6bbf5b5a03b8474",
      "blockNumber": "0x181d1e8",
      "gasUsed": "0x3c215",
      "effectiveGasPrice": "0xa4fdbc4",
      "from": "0xcad1a7864a108dbff67f4b8af71fab0c7a86d0b6",
      "to": "0x90af002ee537ad5c2c9817ebd4ef22b2e8952470",
      "contractAddress": null
    },
    {
      "status": "0x1",
      "cumulativeGasUsed": "0x1419109",
      "logs": [
        {
          "address": "0xac2e5936eca286ec364d4d5bcca33145fbe57f95",
          "topics": [
            "0x50b24d98d3da51f5db279e5872fa50584b172048aa9bfa6c6edb4d0cfbb4dc58",
            "0x000000000000000000000000435b0a1884bd0fb5667677c9eb0e59425b1477e5"
          ],
          "data": "0x0000000000000000000000000000000000000000000000000000000000000001",
          "blockHash": "0x259b7c6051d93c8a26321f233a495e768e6462928fe85b54c82567f8ad0f61c6",
          "blockNumber": "0x181d1e9",
          "blockTimestamp": "0x6a28fc93",
          "transactionHash": "0xa251496ade23446df0ff87705c1d52892c21e191abae8f16791f0938050af296",
          "transactionIndex": "0x63",
          "logIndex": "0x4fc",
          "removed": false
        }
      ],
      "logsBloom": "0x00000000000000000000000000000000001000000000000000000000000000000000000000000000000000000000080000000000000000000000000000000000000000000000004000000000010000000000000000000000000000000000000000000000000000000000000000000000000000000000000000100000000000000100000000000000000000000000000000000000000000000000000000000000010000000000000800000000000000000000000000000000000000000000000000000004000000000000000000000000000000000000000000000000000000000000000000000000000000000000000000000000000000000000000000000000",
      "type": "0x2",
      "transactionHash": "0xa251496ade23446df0ff87705c1d52892c21e191abae8f16791f0938050af296",
      "transactionIndex": "0x63",
      "blockHash": "0x259b7c6051d93c8a26321f233a495e768e6462928fe85b54c82567f8ad0f61c6",
      "blockNumber": "0x181d1e9",
      "gasUsed": "0x169df",
      "effectiveGasPrice": "0xb126b95",
      "from": "0xcad1a7864a108dbff67f4b8af71fab0c7a86d0b6",
      "to": "0xac2e5936eca286ec364d4d5bcca33145fbe57f95",
      "contractAddress": null
    },
    {
      "status": "0x1",
      "cumulativeGasUsed": "0xfefb00",
      "logs": [
        {
          "address": "0x435b0a1884bd0fb5667677c9eb0e59425b1477e5",
          "topics": [
            "0xc3a31eaea4c0b528b360d168d8797d781302b685df4bdb2b4fdfae9592806399",
            "0x0000000000000000000000004c9edd5852cd905f086c759e8383e09bff1e68b3",
            "0x000000000000000000000000ac2e5936eca286ec364d4d5bcca33145fbe57f95"
          ],
          "data": "0x0000000000000000000000000000000000000000000000000de0b6b3a76400000000000000000000000000000000000000000000000000000000000000000012",
          "blockHash": "0x8cdf7ea39d1ef80dd19ee515191e77434db29c7c64c3a7b0f4752cad1c205e0d",
          "blockNumber": "0x181d1ea",
          "blockTimestamp": "0x6a28fc9f",
          "transactionHash": "0x1086d6a83baeede3ee33ca1c3623b1151d2bfdb818f02d7f195dfa57ba984f6a",
          "transactionIndex": "0x110",
          "logIndex": "0x1db",
          "removed": false
        }
      ],
      "logsBloom": "0x00000000000000000000000100000000000000000000000000000000000000000000000000000004000000000000000000000000000000000000000000000000000040000000000008000000000000000000000000000000000000000000000000000020000000000000000000000000000000000000000000000000000000000000000000001000000000000000000000000001000000000000000000000000010000000000000000000000000000000000000000000000000000000000020000000000000000000000000000000000000000020000000000000000000000000000000000000000000100000000080000000000000000000000000000000000",
      "type": "0x2",
      "transactionHash": "0x1086d6a83baeede3ee33ca1c3623b1151d2bfdb818f02d7f195dfa57ba984f6a",
      "transactionIndex": "0x110",
      "blockHash": "0x8cdf7ea39d1ef80dd19ee515191e77434db29c7c64c3a7b0f4752cad1c205e0d",
      "blockNumber": "0x181d1ea",
      "gasUsed": "0xeb28",
      "effectiveGasPrice": "0xad19e97",
      "from": "0xcad1a7864a108dbff67f4b8af71fab0c7a86d0b6",
      "to": "0x435b0a1884bd0fb5667677c9eb0e59425b1477e5",
      "contractAddress": null
    },
    {
      "status": "0x1",
      "cumulativeGasUsed": "0xf6b135",
      "logs": [
        {
          "address": "0x4c9edd5852cd905f086c759e8383e09bff1e68b3",
          "topics": [
            "0x8c5be1e5ebec7d5bd14f71427d1e84f3dd0314c0f7b2291e5b200ac8c7c3b925",
            "0x000000000000000000000000435b0a1884bd0fb5667677c9eb0e59425b1477e5",
            "0x000000000000000000000000ac2e5936eca286ec364d4d5bcca33145fbe57f95"
          ],
          "data": "0xffffffffffffffffffffffffffffffffffffffffffffffffffffffffffffffff",
          "blockHash": "0xda0fbf98f8e89fd802a4f6a74a811818ecb6b24aac02fb63ecafb92bd414574c",
          "blockNumber": "0x181d1eb",
          "blockTimestamp": "0x6a28fcab",
          "transactionHash": "0x76dea5efed45a18ccf6f4022670460d5734444847454091eeeff988be1e4adc1",
          "transactionIndex": "0x10c",
          "logIndex": "0x12d",
          "removed": false
        },
        {
          "address": "0x435b0a1884bd0fb5667677c9eb0e59425b1477e5",
          "topics": [
            "0x19a490fe10389a19852ba145f5f2c242d1eb13e72a38c85212b51bb65fb10984",
            "0x0000000000000000000000004c9edd5852cd905f086c759e8383e09bff1e68b3",
            "0x000000000000000000000000ac2e5936eca286ec364d4d5bcca33145fbe57f95"
          ],
          "data": "0x",
          "blockHash": "0xda0fbf98f8e89fd802a4f6a74a811818ecb6b24aac02fb63ecafb92bd414574c",
          "blockNumber": "0x181d1eb",
          "blockTimestamp": "0x6a28fcab",
          "transactionHash": "0x76dea5efed45a18ccf6f4022670460d5734444847454091eeeff988be1e4adc1",
          "transactionIndex": "0x10c",
          "logIndex": "0x12e",
          "removed": false
        }
      ],
      "logsBloom": "0x00000000000000000000000000000000000000000000000000000000000000000000000000000004000000000000080800000000000000000000000000200000000040000000000008000000000000000000000000000000000000000000000000000000000000000001000020000000000000000400000000000000000000000100000000001000000000000000000000000001008000000000000000000000030000000000000000000000000000000000000000100000000000000000020000000004000000000000000000000000000000020000000000000000000000000010000000000000000000000000080000000000000000000000000000000000",
      "type": "0x2",
      "transactionHash": "0x76dea5efed45a18ccf6f4022670460d5734444847454091eeeff988be1e4adc1",
      "transactionIndex": "0x10c",
      "blockHash": "0xda0fbf98f8e89fd802a4f6a74a811818ecb6b24aac02fb63ecafb92bd414574c",
      "blockNumber": "0x181d1eb",
      "gasUsed": "0xd23d",
      "effectiveGasPrice": "0xaa5b5dd",
      "from": "0xcad1a7864a108dbff67f4b8af71fab0c7a86d0b6",
      "to": "0x435b0a1884bd0fb5667677c9eb0e59425b1477e5",
      "contractAddress": null
    },
    {
      "status": "0x1",
      "cumulativeGasUsed": "0x20b9d0a",
      "logs": [
        {
          "address": "0x4c9edd5852cd905f086c759e8383e09bff1e68b3",
          "topics": [
            "0x8c5be1e5ebec7d5bd14f71427d1e84f3dd0314c0f7b2291e5b200ac8c7c3b925",
            "0x000000000000000000000000cad1a7864a108dbff67f4b8af71fab0c7a86d0b6",
            "0x000000000000000000000000ac2e5936eca286ec364d4d5bcca33145fbe57f95"
          ],
          "data": "0x0000000000000000000000000000000000000000000000cbe0fc676634a1a802",
          "blockHash": "0x7983870004653c274a0539d9fbca76fe0a239788144b7ecf34606c1aa8f63329",
          "blockNumber": "0x181d1ec",
          "blockTimestamp": "0x6a28fcc3",
          "transactionHash": "0x981e7280de8c0389c5f6c5a3b7202cdfea32ca294924700c85d0811e0e4cb5f2",
          "transactionIndex": "0x162",
          "logIndex": "0x418",
          "removed": false
        }
      ],
      "logsBloom": "0x00000000000000000020000000000000000000000000000000000000000000000000000000000004000000400000000800000000000000000000000000200000000040000000000008000000000000000000000000000000000000000000000000000000000000000000000000000000000000000000000000000000000000000000000000000000000000000000000000000000008000000000000000000000020000000000000000000000000000000000000000100000000000000000000000000000000000000000000000000000000000000000100000000000000000000010000000000000000000000000000000000000000000000000000000000000",
      "type": "0x2",
      "transactionHash": "0x981e7280de8c0389c5f6c5a3b7202cdfea32ca294924700c85d0811e0e4cb5f2",
      "transactionIndex": "0x162",
      "blockHash": "0x7983870004653c274a0539d9fbca76fe0a239788144b7ecf34606c1aa8f63329",
      "blockNumber": "0x181d1ec",
      "gasUsed": "0xb4ed",
      "effectiveGasPrice": "0xa4e94be",
      "from": "0xcad1a7864a108dbff67f4b8af71fab0c7a86d0b6",
      "to": "0x4c9edd5852cd905f086c759e8383e09bff1e68b3",
      "contractAddress": null
    },
    {
      "status": "0x1",
      "cumulativeGasUsed": "0x1cd7391",
      "logs": [
        {
          "address": "0x4c9edd5852cd905f086c759e8383e09bff1e68b3",
          "topics": [
            "0x8c5be1e5ebec7d5bd14f71427d1e84f3dd0314c0f7b2291e5b200ac8c7c3b925",
            "0x000000000000000000000000cad1a7864a108dbff67f4b8af71fab0c7a86d0b6",
            "0x000000000000000000000000ac2e5936eca286ec364d4d5bcca33145fbe57f95"
          ],
          "data": "0x0000000000000000000000000000000000000000000000000000000000000000",
          "blockHash": "0xeeaede6c023bff6be41717e5ee5e476913cdc1598b6e6ef2e67cb60413d0e4c9",
          "blockNumber": "0x181d1ed",
          "blockTimestamp": "0x6a28fccf",
          "transactionHash": "0x32bdd6ce2a04b1c967fb6c7d57a0366517b5502f5d6d2842bf9c88847e382bc4",
          "transactionIndex": "0xa4",
          "logIndex": "0x39a",
          "removed": false
        },
        {
          "address": "0x4c9edd5852cd905f086c759e8383e09bff1e68b3",
          "topics": [
            "0xddf252ad1be2c89b69c2b068fc378daa952ba7f163c4a11628f55a4df523b3ef",
            "0x000000000000000000000000cad1a7864a108dbff67f4b8af71fab0c7a86d0b6",
            "0x000000000000000000000000ac2e5936eca286ec364d4d5bcca33145fbe57f95"
          ],
          "data": "0x0000000000000000000000000000000000000000000000cbe0fc676634a1a802",
          "blockHash": "0xeeaede6c023bff6be41717e5ee5e476913cdc1598b6e6ef2e67cb60413d0e4c9",
          "blockNumber": "0x181d1ed",
          "blockTimestamp": "0x6a28fccf",
          "transactionHash": "0x32bdd6ce2a04b1c967fb6c7d57a0366517b5502f5d6d2842bf9c88847e382bc4",
          "transactionIndex": "0xa4",
          "logIndex": "0x39b",
          "removed": false
        },
        {
          "address": "0x4c9edd5852cd905f086c759e8383e09bff1e68b3",
          "topics": [
            "0x8c5be1e5ebec7d5bd14f71427d1e84f3dd0314c0f7b2291e5b200ac8c7c3b925",
            "0x000000000000000000000000ac2e5936eca286ec364d4d5bcca33145fbe57f95",
            "0x0000000000000000000000002d024e0d03fb6ead4f8e7ba1ebecf6db0e755d6f"
          ],
          "data": "0x0000000000000000000000000000000000000000000000cbe0fc676634a1a802",
          "blockHash": "0xeeaede6c023bff6be41717e5ee5e476913cdc1598b6e6ef2e67cb60413d0e4c9",
          "blockNumber": "0x181d1ed",
          "blockTimestamp": "0x6a28fccf",
          "transactionHash": "0x32bdd6ce2a04b1c967fb6c7d57a0366517b5502f5d6d2842bf9c88847e382bc4",
          "transactionIndex": "0xa4",
          "logIndex": "0x39c",
          "removed": false
        },
        {
          "address": "0x4c9edd5852cd905f086c759e8383e09bff1e68b3",
          "topics": [
            "0x8c5be1e5ebec7d5bd14f71427d1e84f3dd0314c0f7b2291e5b200ac8c7c3b925",
            "0x000000000000000000000000ac2e5936eca286ec364d4d5bcca33145fbe57f95",
            "0x0000000000000000000000002d024e0d03fb6ead4f8e7ba1ebecf6db0e755d6f"
          ],
          "data": "0x0000000000000000000000000000000000000000000000000000000000000000",
          "blockHash": "0xeeaede6c023bff6be41717e5ee5e476913cdc1598b6e6ef2e67cb60413d0e4c9",
          "blockNumber": "0x181d1ed",
          "blockTimestamp": "0x6a28fccf",
          "transactionHash": "0x32bdd6ce2a04b1c967fb6c7d57a0366517b5502f5d6d2842bf9c88847e382bc4",
          "transactionIndex": "0xa4",
          "logIndex": "0x39d",
          "removed": false
        },
        {
          "address": "0x4c9edd5852cd905f086c759e8383e09bff1e68b3",
          "topics": [
            "0xddf252ad1be2c89b69c2b068fc378daa952ba7f163c4a11628f55a4df523b3ef",
            "0x000000000000000000000000ac2e5936eca286ec364d4d5bcca33145fbe57f95",
            "0x0000000000000000000000002d024e0d03fb6ead4f8e7ba1ebecf6db0e755d6f"
          ],
          "data": "0x0000000000000000000000000000000000000000000000cbe0fc676634a1a802",
          "blockHash": "0xeeaede6c023bff6be41717e5ee5e476913cdc1598b6e6ef2e67cb60413d0e4c9",
          "blockNumber": "0x181d1ed",
          "blockTimestamp": "0x6a28fccf",
          "transactionHash": "0x32bdd6ce2a04b1c967fb6c7d57a0366517b5502f5d6d2842bf9c88847e382bc4",
          "transactionIndex": "0xa4",
          "logIndex": "0x39e",
          "removed": false
        },
        {
          "address": "0x4c9edd5852cd905f086c759e8383e09bff1e68b3",
          "topics": [
            "0x8c5be1e5ebec7d5bd14f71427d1e84f3dd0314c0f7b2291e5b200ac8c7c3b925",
            "0x0000000000000000000000002d024e0d03fb6ead4f8e7ba1ebecf6db0e755d6f",
            "0x00000000000000000000000016c6521dff6bab339122a0fe25a9116693265353"
          ],
          "data": "0x0000000000000000000000000000000000000000000000cbe0fc676634a1a802",
          "blockHash": "0xeeaede6c023bff6be41717e5ee5e476913cdc1598b6e6ef2e67cb60413d0e4c9",
          "blockNumber": "0x181d1ed",
          "blockTimestamp": "0x6a28fccf",
          "transactionHash": "0x32bdd6ce2a04b1c967fb6c7d57a0366517b5502f5d6d2842bf9c88847e382bc4",
          "transactionIndex": "0xa4",
          "logIndex": "0x39f",
          "removed": false
        },
        {
          "address": "0x4c9edd5852cd905f086c759e8383e09bff1e68b3",
          "topics": [
            "0x8c5be1e5ebec7d5bd14f71427d1e84f3dd0314c0f7b2291e5b200ac8c7c3b925",
            "0x0000000000000000000000002d024e0d03fb6ead4f8e7ba1ebecf6db0e755d6f",
            "0x00000000000000000000000016c6521dff6bab339122a0fe25a9116693265353"
          ],
          "data": "0x0000000000000000000000000000000000000000000000000000000000000000",
          "blockHash": "0xeeaede6c023bff6be41717e5ee5e476913cdc1598b6e6ef2e67cb60413d0e4c9",
          "blockNumber": "0x181d1ed",
          "blockTimestamp": "0x6a28fccf",
          "transactionHash": "0x32bdd6ce2a04b1c967fb6c7d57a0366517b5502f5d6d2842bf9c88847e382bc4",
          "transactionIndex": "0xa4",
          "logIndex": "0x3a0",
          "removed": false
        },
        {
          "address": "0x4c9edd5852cd905f086c759e8383e09bff1e68b3",
          "topics": [
            "0xddf252ad1be2c89b69c2b068fc378daa952ba7f163c4a11628f55a4df523b3ef",
            "0x0000000000000000000000002d024e0d03fb6ead4f8e7ba1ebecf6db0e755d6f",
            "0x00000000000000000000000016c6521dff6bab339122a0fe25a9116693265353"
          ],
          "data": "0x0000000000000000000000000000000000000000000000cbe0fc676634a1a802",
          "blockHash": "0xeeaede6c023bff6be41717e5ee5e476913cdc1598b6e6ef2e67cb60413d0e4c9",
          "blockNumber": "0x181d1ed",
          "blockTimestamp": "0x6a28fccf",
          "transactionHash": "0x32bdd6ce2a04b1c967fb6c7d57a0366517b5502f5d6d2842bf9c88847e382bc4",
          "transactionIndex": "0xa4",
          "logIndex": "0x3a1",
          "removed": false
        },
        {
          "address": "0x4c9edd5852cd905f086c759e8383e09bff1e68b3",
          "topics": [
            "0xddf252ad1be2c89b69c2b068fc378daa952ba7f163c4a11628f55a4df523b3ef",
            "0x00000000000000000000000016c6521dff6bab339122a0fe25a9116693265353",
            "0x000000000000000000000000f55b0f6f2da5ffddb104b58a60f2862745960442"
          ],
          "data": "0x0000000000000000000000000000000000000000000000cbe0fc676634a1a802",
          "blockHash": "0xeeaede6c023bff6be41717e5ee5e476913cdc1598b6e6ef2e67cb60413d0e4c9",
          "blockNumber": "0x181d1ed",
          "blockTimestamp": "0x6a28fccf",
          "transactionHash": "0x32bdd6ce2a04b1c967fb6c7d57a0366517b5502f5d6d2842bf9c88847e382bc4",
          "transactionIndex": "0xa4",
          "logIndex": "0x3a2",
          "removed": false
        },
        {
          "address": "0xf939e0a03fb07f59a73314e73794be0e57ac1b4e",
          "topics": [
            "0xddf252ad1be2c89b69c2b068fc378daa952ba7f163c4a11628f55a4df523b3ef",
            "0x000000000000000000000000f55b0f6f2da5ffddb104b58a60f2862745960442",
            "0x00000000000000000000000016c6521dff6bab339122a0fe25a9116693265353"
          ],
          "data": "0x0000000000000000000000000000000000000000000000cbe47509acd2ef46ff",
          "blockHash": "0xeeaede6c023bff6be41717e5ee5e476913cdc1598b6e6ef2e67cb60413d0e4c9",
          "blockNumber": "0x181d1ed",
          "blockTimestamp": "0x6a28fccf",
          "transactionHash": "0x32bdd6ce2a04b1c967fb6c7d57a0366517b5502f5d6d2842bf9c88847e382bc4",
          "transactionIndex": "0xa4",
          "logIndex": "0x3a3",
          "removed": false
        },
        {
          "address": "0xf55b0f6f2da5ffddb104b58a60f2862745960442",
          "topics": [
            "0x8b3e96f2b889fa771c53c981b40daf005f63f637f1869f707052d15a3dd97140",
            "0x00000000000000000000000016c6521dff6bab339122a0fe25a9116693265353"
          ],
          "data": "0x00000000000000000000000000000000000000000000000000000000000000000000000000000000000000000000000000000000000000cbe0fc676634a1a80200000000000000000000000000000000000000000000000000000000000000010000000000000000000000000000000000000000000000cbe47509acd2ef46ff",
          "blockHash": "0xeeaede6c023bff6be41717e5ee5e476913cdc1598b6e6ef2e67cb60413d0e4c9",
          "blockNumber": "0x181d1ed",
          "blockTimestamp": "0x6a28fccf",
          "transactionHash": "0x32bdd6ce2a04b1c967fb6c7d57a0366517b5502f5d6d2842bf9c88847e382bc4",
          "transactionIndex": "0xa4",
          "logIndex": "0x3a4",
          "removed": false
        },
        {
          "address": "0xf939e0a03fb07f59a73314e73794be0e57ac1b4e",
          "topics": [
            "0xddf252ad1be2c89b69c2b068fc378daa952ba7f163c4a11628f55a4df523b3ef",
            "0x00000000000000000000000016c6521dff6bab339122a0fe25a9116693265353",
            "0x00000000000000000000000057064f49ad7123c92560882a45518374ad982e85"
          ],
          "data": "0x0000000000000000000000000000000000000000000000cbe47509acd2ef46ff",
          "blockHash": "0xeeaede6c023bff6be41717e5ee5e476913cdc1598b6e6ef2e67cb60413d0e4c9",
          "blockNumber": "0x181d1ed",
          "blockTimestamp": "0x6a28fccf",
          "transactionHash": "0x32bdd6ce2a04b1c967fb6c7d57a0366517b5502f5d6d2842bf9c88847e382bc4",
          "transactionIndex": "0xa4",
          "logIndex": "0x3a5",
          "removed": false
        },
        {
          "address": "0x9d39a5de30e57443bff2a8307a4256c8797a3497",
          "topics": [
            "0xddf252ad1be2c89b69c2b068fc378daa952ba7f163c4a11628f55a4df523b3ef",
            "0x00000000000000000000000057064f49ad7123c92560882a45518374ad982e85",
            "0x00000000000000000000000016c6521dff6bab339122a0fe25a9116693265353"
          ],
          "data": "0x0000000000000000000000000000000000000000000000a518eed5890b2e3b4f",
          "blockHash": "0xeeaede6c023bff6be41717e5ee5e476913cdc1598b6e6ef2e67cb60413d0e4c9",
          "blockNumber": "0x181d1ed",
          "blockTimestamp": "0x6a28fccf",
          "transactionHash": "0x32bdd6ce2a04b1c967fb6c7d57a0366517b5502f5d6d2842bf9c88847e382bc4",
          "transactionIndex": "0xa4",
          "logIndex": "0x3a6",
          "removed": false
        },
        {
          "address": "0x57064f49ad7123c92560882a45518374ad982e85",
          "topics": [
            "0x8b3e96f2b889fa771c53c981b40daf005f63f637f1869f707052d15a3dd97140",
            "0x00000000000000000000000016c6521dff6bab339122a0fe25a9116693265353"
          ],
          "data": "0x00000000000000000000000000000000000000000000000000000000000000000000000000000000000000000000000000000000000000cbe47509acd2ef46ff00000000000000000000000000000000000000000000000000000000000000010000000000000000000000000000000000000000000000a518eed5890b2e3b4f",
          "blockHash": "0xeeaede6c023bff6be41717e5ee5e476913cdc1598b6e6ef2e67cb60413d0e4c9",
          "blockNumber": "0x181d1ed",
          "blockTimestamp": "0x6a28fccf",
          "transactionHash": "0x32bdd6ce2a04b1c967fb6c7d57a0366517b5502f5d6d2842bf9c88847e382bc4",
          "transactionIndex": "0xa4",
          "logIndex": "0x3a7",
          "removed": false
        },
        {
          "address": "0x9d39a5de30e57443bff2a8307a4256c8797a3497",
          "topics": [
            "0xddf252ad1be2c89b69c2b068fc378daa952ba7f163c4a11628f55a4df523b3ef",
            "0x00000000000000000000000016c6521dff6bab339122a0fe25a9116693265353",
            "0x000000000000000000000000ac2e5936eca286ec364d4d5bcca33145fbe57f95"
          ],
          "data": "0x0000000000000000000000000000000000000000000000a518eed5890b2e3b4f",
          "blockHash": "0xeeaede6c023bff6be41717e5ee5e476913cdc1598b6e6ef2e67cb60413d0e4c9",
          "blockNumber": "0x181d1ed",
          "blockTimestamp": "0x6a28fccf",
          "transactionHash": "0x32bdd6ce2a04b1c967fb6c7d57a0366517b5502f5d6d2842bf9c88847e382bc4",
          "transactionIndex": "0xa4",
          "logIndex": "0x3a8",
          "removed": false
        },
        {
          "address": "0x16c6521dff6bab339122a0fe25a9116693265353",
          "topics": [
            "0x56d0661e240dfb199ef196e16e6f42473990366314f0226ac978f7be3cd9ee83",
            "0x0000000000000000000000002d024e0d03fb6ead4f8e7ba1ebecf6db0e755d6f",
            "0x000000000000000000000000ac2e5936eca286ec364d4d5bcca33145fbe57f95"
          ],
          "data": "0x0000000000000000000000004c9edd5852cd905f086c759e8383e09bff1e68b3000000000000000000000000f55b0f6f2da5ffddb104b58a60f2862745960442000000000000000000000000f939e0a03fb07f59a73314e73794be0e57ac1b4e00000000000000000000000057064f49ad7123c92560882a45518374ad982e850000000000000000000000009d39a5de30e57443bff2a8307a4256c8797a3497000000000000000000000000000000000000000000000000000000000000000000000000000000000000000000000000000000000000000000000000000000000000000000000000000000000000000000000000000000000000000000000000000000000000000000000000000000000000000000000000000000000000000000000000000000000000000000000000000000000000000000000000000000000000000000000000000000000000000000000000000000000000000000000000000000000000000000000000000000000000000000000000000000000000000000000000000000000000000000000000000000000000000000000000000000010000000000000000000000000000000000000000000000000000000000000001000000000000000000000000000000000000000000000000000000000000000a0000000000000000000000000000000000000000000000000000000000000002000000000000000000000000000000000000000000000000000000000000000000000000000000000000000000000000000000000000000000000000000000010000000000000000000000000000000000000000000000000000000000000001000000000000000000000000000000000000000000000000000000000000000a0000000000000000000000000000000000000000000000000000000000000002000000000000000000000000000000000000000000000000000000000000000000000000000000000000000000000000000000000000000000000000000000000000000000000000000000000000000000000000000000000000000000000000000000000000000000000000000000000000000000000000000000000000000000000000000000000000000000000000000000000000000000000000000000000000000000000000000000000000000000000000000000000000000000000000000000000000000000000000000000000000000000000000000000000000000000000000000000000000000000000000000000000000000000000000000000000000000000000000000000000000000000000000000000000000000000000000000000000000000000000000000000000000000000000000000000000000000000000000000000000000000000000000000000000000000000000000000000000000000000000000000000000000000000000000000000000000000000000000000000000000000000000000000000000000000000000000000000000000000000000000000000000000000000000000000000000000000000000000000000000000000000000000000000000000000000000000000000000000000000000000000000000000000000000000000000000000000000000000000000000000000000000000000000000000000000000000000000000000000000000000000000000000000000000000000000000000000000000000000000000000000000000000000000000000000000000000000000000000000000000000000000000000000000000000000000000000000000000000000000000000000000000000000000000000000000000000000000000000000000000000000000cbe0fc676634a1a8020000000000000000000000000000000000000000000000a518eed5890b2e3b4f",
          "blockHash": "0xeeaede6c023bff6be41717e5ee5e476913cdc1598b6e6ef2e67cb60413d0e4c9",
          "blockNumber": "0x181d1ed",
          "blockTimestamp": "0x6a28fccf",
          "transactionHash": "0x32bdd6ce2a04b1c967fb6c7d57a0366517b5502f5d6d2842bf9c88847e382bc4",
          "transactionIndex": "0xa4",
          "logIndex": "0x3a9",
          "removed": false
        },
        {
          "address": "0x2d024e0d03fb6ead4f8e7ba1ebecf6db0e755d6f",
          "topics": [
            "0xa078c4190abe07940190effc1846be0ccf03ad6007bc9e93f9697d0b460befbb",
            "0x0000000000000000000000004c9edd5852cd905f086c759e8383e09bff1e68b3",
            "0x0000000000000000000000009d39a5de30e57443bff2a8307a4256c8797a3497"
          ],
          "data": "0x0000000000000000000000000000000000000000000000cbe0fc676634a1a8020000000000000000000000000000000000000000000000a518eed5890b2e3b4f",
          "blockHash": "0xeeaede6c023bff6be41717e5ee5e476913cdc1598b6e6ef2e67cb60413d0e4c9",
          "blockNumber": "0x181d1ed",
          "blockTimestamp": "0x6a28fccf",
          "transactionHash": "0x32bdd6ce2a04b1c967fb6c7d57a0366517b5502f5d6d2842bf9c88847e382bc4",
          "transactionIndex": "0xa4",
          "logIndex": "0x3aa",
          "removed": false
        },
        {
          "address": "0xac2e5936eca286ec364d4d5bcca33145fbe57f95",
          "topics": [
            "0xb045190548dadae679cfe9e337437613ca6dd73efdf984f75e56f152ccee22f0",
            "0x0000000000000000000000004c9edd5852cd905f086c759e8383e09bff1e68b3",
            "0x000000000000000000000000cad1a7864a108dbff67f4b8af71fab0c7a86d0b6",
            "0x000000000000000000000000435b0a1884bd0fb5667677c9eb0e59425b1477e5"
          ],
          "data": "0x0000000000000000000000000000000000000000000000cbe0fc676634a1a8020000000000000000000000000000000000000000000000a518eed5890b2e3b4f",
          "blockHash": "0xeeaede6c023bff6be41717e5ee5e476913cdc1598b6e6ef2e67cb60413d0e4c9",
          "blockNumber": "0x181d1ed",
          "blockTimestamp": "0x6a28fccf",
          "transactionHash": "0x32bdd6ce2a04b1c967fb6c7d57a0366517b5502f5d6d2842bf9c88847e382bc4",
          "transactionIndex": "0xa4",
          "logIndex": "0x3ab",
          "removed": false
        }
      ],
      "logsBloom": "0x0000100000000000002000000000000080100000000000000000000000000000000000000002000400000040000008180000000000800000002100000020000000404000000000400800200c010000200000000000000000001000000000800000000000000001000004000000001080040000001000000000000010000000000100000000000000000000402008021000080001008000000000000000000000024000002002008000000000000000000000000040100000000000000000020000000006001000200000080000000100000000100000100000000000000002002010080080000000000000000080880000001001000000000000000000000000",
      "type": "0x2",
      "transactionHash": "0x32bdd6ce2a04b1c967fb6c7d57a0366517b5502f5d6d2842bf9c88847e382bc4",
      "transactionIndex": "0xa4",
      "blockHash": "0xeeaede6c023bff6be41717e5ee5e476913cdc1598b6e6ef2e67cb60413d0e4c9",
      "blockNumber": "0x181d1ed",
      "gasUsed": "0x806ce",
      "effectiveGasPrice": "0xa9e6f1d",
      "from": "0xcad1a7864a108dbff67f4b8af71fab0c7a86d0b6",
      "to": "0xac2e5936eca286ec364d4d5bcca33145fbe57f95",
      "contractAddress": null
    },
    {
      "status": "0x1",
      "cumulativeGasUsed": "0xfb1431",
      "logs": [
        {
          "address": "0x3bbe928340c61a65cb6c4a87b3fb59b6f3f7606a",
          "topics": [
            "0xdc4b546afdb935e93f993a347dbbab9b6a533a7c1ab745d14e05163767d5b10a",
            "0x00000000000000000000000090ce274b20a2af4265152b369d09ce6e6dc177f9"
          ],
          "data": "0x",
          "blockHash": "0x0a62c7547e46bab0068664d44be04aacf9dd97f26cde324fbf4abcfea8afb9f3",
          "blockNumber": "0x181d1ee",
          "blockTimestamp": "0x6a28fcdb",
          "transactionHash": "0xe5ec7c7db1591cef56601c08b33ce1d7fbb89338de77397e59d4648a2afb1e64",
          "transactionIndex": "0x6c",
          "logIndex": "0x17c",
          "removed": false
        }
      ],
      "logsBloom": "0x00000000000000000000000000000000000000000000000000020000000000000000000000105000000000000000000000000000000000000004000000000000000000000000000000000000000000000000000000000000000000000000000000000000000000000000000000000000000000000000000000000000000000000000000000000000000000000000000000000000000000000000000000000000000000000000000000000000000000000000000000000000000000000000000000000000000000000000000000000000000000080000000000000000000004000400000000000000000000000000000000000000000000000000000020000000",
      "type": "0x2",
      "transactionHash": "0xe5ec7c7db1591cef56601c08b33ce1d7fbb89338de77397e59d4648a2afb1e64",
      "transactionIndex": "0x6c",
      "blockHash": "0x0a62c7547e46bab0068664d44be04aacf9dd97f26cde324fbf4abcfea8afb9f3",
      "blockNumber": "0x181d1ee",
      "gasUsed": "0x17d52",
      "effectiveGasPrice": "0xb5462d7",
      "from": "0xcad1a7864a108dbff67f4b8af71fab0c7a86d0b6",
      "to": "0x3bbe928340c61a65cb6c4a87b3fb59b6f3f7606a",
      "contractAddress": null
    },
    {
      "status": "0x1",
      "cumulativeGasUsed": "0x1e33afd",
      "logs": [
        {
          "address": "0x90ce274b20a2af4265152b369d09ce6e6dc177f9",
          "topics": [
            "0x5c8df9226b5390a36c31cb0bb75ccd51f1106fc9c93332f6305e2a4a7ae4e771",
            "0x0000000000000000000000003bbe928340c61a65cb6c4a87b3fb59b6f3f7606a"
          ],
          "data": "0x0000000000000000000000000000000000000000000000000000000000000001",
          "blockHash": "0x0f7bc5b62fc3a1bb39a5752052c4e781b06f4b03e3ba98f65fd6d4953c448eff",
          "blockNumber": "0x181d1f1",
          "blockTimestamp": "0x6a28fcff",
          "transactionHash": "0xb038e5ed2f374ab07df8536ac10a7dfa310a7eea5be31de62dbeabc47deb312b",
          "transactionIndex": "0x19b",
          "logIndex": "0x310",
          "removed": false
        }
      ],
      "logsBloom": "0x00000000000000000000000000000000000002000000000000000000000000000000000000000000000000000000000000000000000000000000000000000000000000000000000000000000000000000000000000000000000400000000000000000000000000000000000000000000000000000000000000000000000000000000000000000000000000000000000000000000000000000000000000000000000000000000000000000000000400000000000000000000000000000000000000000000000000002400000002000000000000002080000000000000000000000200000000000000000000000000000000000000000000000000000000000000",
      "type": "0x2",
      "transactionHash": "0xb038e5ed2f374ab07df8536ac10a7dfa310a7eea5be31de62dbeabc47deb312b",
      "transactionIndex": "0x19b",
      "blockHash": "0x0f7bc5b62fc3a1bb39a5752052c4e781b06f4b03e3ba98f65fd6d4953c448eff",
      "blockNumber": "0x181d1f1",
      "gasUsed": "0xbbe3",
      "effectiveGasPrice": "0x9724145",
      "from": "0xcad1a7864a108dbff67f4b8af71fab0c7a86d0b6",
      "to": "0x90ce274b20a2af4265152b369d09ce6e6dc177f9",
      "contractAddress": null
    },
    {
      "status": "0x1",
      "cumulativeGasUsed": "0xee4f8a",
      "logs": [
        {
          "address": "0x3bbe928340c61a65cb6c4a87b3fb59b6f3f7606a",
          "topics": [
            "0xdc4b546afdb935e93f993a347dbbab9b6a533a7c1ab745d14e05163767d5b10a",
            "0x00000000000000000000000090af002ee537ad5c2c9817ebd4ef22b2e8952470"
          ],
          "data": "0x",
          "blockHash": "0x1bd6f4200ff62a220798cee96762b41177f006c509e8ff3aaf4a6470927ad5c4",
          "blockNumber": "0x181d1f3",
          "blockTimestamp": "0x6a28fd17",
          "transactionHash": "0xd4366f75e6834a59687d3c6050ca4f1b0f4e64d1840a09dfc60e84a4372cd30b",
          "transactionIndex": "0x99",
          "logIndex": "0x18a",
          "removed": false
        }
      ],
      "logsBloom": "0x00000000000000000000000000000000000000000000000000000000000000000000000000105000000000000000000000000000000000000004000000000000000000000000000000000000000000000000000000000000000000000000000000000000000000000000000000000000000000000000000000000000000000000000000000000000000000000000000000000000000000000000000000000000000000000000000000000000000000000000000000004000000000000000000000000000000000000000008000000000000000000000000000000000000000000400000000000000000000000000000000000000000400000000000020000000",
      "type": "0x2",
      "transactionHash": "0xd4366f75e6834a59687d3c6050ca4f1b0f4e64d1840a09dfc60e84a4372cd30b",
      "transactionIndex": "0x99",
      "blockHash": "0x1bd6f4200ff62a220798cee96762b41177f006c509e8ff3aaf4a6470927ad5c4",
      "blockNumber": "0x181d1f3",
      "gasUsed": "0x17d46",
      "effectiveGasPrice": "0xacd25b6",
      "from": "0xcad1a7864a108dbff67f4b8af71fab0c7a86d0b6",
      "to": "0x3bbe928340c61a65cb6c4a87b3fb59b6f3f7606a",
      "contractAddress": null
    },
    {
      "status": "0x1",
      "cumulativeGasUsed": "0x136f5bd",
      "logs": [
        {
          "address": "0x90af002ee537ad5c2c9817ebd4ef22b2e8952470",
          "topics": [
            "0x5c8df9226b5390a36c31cb0bb75ccd51f1106fc9c93332f6305e2a4a7ae4e771",
            "0x0000000000000000000000003bbe928340c61a65cb6c4a87b3fb59b6f3f7606a"
          ],
          "data": "0x0000000000000000000000000000000000000000000000000000000000000001",
          "blockHash": "0x489fb77f13e783f4b8099d84e573da4fe4388b37d5ea0d3de31bf558d65a0570",
          "blockNumber": "0x181d1f4",
          "blockTimestamp": "0x6a28fd23",
          "transactionHash": "0x75107be4ee082523014b5c5923555df73161e99b003063a1a1547b74fe4c71ac",
          "transactionIndex": "0xb0",
          "logIndex": "0x1de",
          "removed": false
        }
      ],
      "logsBloom": "0x00000000000000000000000000000000000000000000000000000000000010000000000000000400000000000000000000000000000000000000000000000000000000000000000000000000000000000000000000000000000400000000000000000000000000000000000000000000000000000000000000000000000000000000000000000000000000000000000000000000000000000000000000000000000000000000000000000000000400000000000000000000000000000000000000000000000000000400000002000000000000002080000000000000000000000000000000000000000000000000000000000000000000000000000000000080",
      "type": "0x2",
      "transactionHash": "0x75107be4ee082523014b5c5923555df73161e99b003063a1a1547b74fe4c71ac",
      "transactionIndex": "0xb0",
      "blockHash": "0x489fb77f13e783f4b8099d84e573da4fe4388b37d5ea0d3de31bf558d65a0570",
      "blockNumber": "0x181d1f4",
      "gasUsed": "0xbbe3",
      "effectiveGasPrice": "0xa64fd6b",
      "from": "0xcad1a7864a108dbff67f4b8af71fab0c7a86d0b6",
      "to": "0x90af002ee537ad5c2c9817ebd4ef22b2e8952470",
      "contractAddress": null
    },
    {
      "status": "0x1",
      "cumulativeGasUsed": "0x1042964",
      "logs": [
        {
          "address": "0x3bbe928340c61a65cb6c4a87b3fb59b6f3f7606a",
          "topics": [
            "0xdc4b546afdb935e93f993a347dbbab9b6a533a7c1ab745d14e05163767d5b10a",
            "0x000000000000000000000000ac2e5936eca286ec364d4d5bcca33145fbe57f95"
          ],
          "data": "0x",
          "blockHash": "0x272fa76c4e220ae4401e2e66b16bbf88bb93114053199f2137dff7e4cd0b9323",
          "blockNumber": "0x181d1f6",
          "blockTimestamp": "0x6a28fd3b",
          "transactionHash": "0xd479b5f71e01d83dd9ffa48b16df44ef238357847c661b90e6c259f59cab24be",
          "transactionIndex": "0x92",
          "logIndex": "0x19c",
          "removed": false
        }
      ],
      "logsBloom": "0x00000000000000000000000000000000000000000000000000000000000000000000000000105004000000000000000000000000000000000004000000000000000040000000000008000000000000000000000000000000000000000000000000000000000000000000000000000000000000000000000000000000000000000000000000000000000000000000000000000000000000000000000000000000000000000000000000000000000000000000000000000000000000000000000000000000000000000000000000000000000000000000000000000000000000000400000000000000000000000000000000000000000000000000000020000000",
      "type": "0x2",
      "transactionHash": "0xd479b5f71e01d83dd9ffa48b16df44ef238357847c661b90e6c259f59cab24be",
      "transactionIndex": "0x92",
      "blockHash": "0x272fa76c4e220ae4401e2e66b16bbf88bb93114053199f2137dff7e4cd0b9323",
      "blockNumber": "0x181d1f6",
      "gasUsed": "0x17d52",
      "effectiveGasPrice": "0xab849e9",
      "from": "0xcad1a7864a108dbff67f4b8af71fab0c7a86d0b6",
      "to": "0x3bbe928340c61a65cb6c4a87b3fb59b6f3f7606a",
      "contractAddress": null
    },
    {
      "status": "0x1",
      "cumulativeGasUsed": "0x1e4c9de",
      "logs": [
        {
          "address": "0xac2e5936eca286ec364d4d5bcca33145fbe57f95",
          "topics": [
            "0x5c8df9226b5390a36c31cb0bb75ccd51f1106fc9c93332f6305e2a4a7ae4e771",
            "0x0000000000000000000000003bbe928340c61a65cb6c4a87b3fb59b6f3f7606a"
          ],
          "data": "0x0000000000000000000000000000000000000000000000000000000000000001",
          "blockHash": "0xb5ce531eb7a15530a90c869bffb5df457c20b3e4c4822a866886064575c7e3e4",
          "blockNumber": "0x181d1f7",
          "blockTimestamp": "0x6a28fd47",
          "transactionHash": "0x41a42af9d04c6b5c4fcb1b56b3a0f9eaca4e6adc8c2abe6ae9a4adf1637d7af9",
          "transactionIndex": "0x10d",
          "logIndex": "0x304",
          "removed": false
        }
      ],
      "logsBloom": "0x00000000000000000000000000000000001000000000000000000000000000000000000000000000000000000000000000000000000000000000000000000000000000000000004000000000010000000000000000000000000400000000000000000000000000000000000000000000000000000000000000000000000000000000000000000000000000000000000000000000000000000000000000000000000000000000000000000000000400000000000000000000000000000000000000000000000000000400000002000000000000002080000000000000000000000000000000000000000000000000000000000000000000000000000000000000",
      "type": "0x2",
      "transactionHash": "0x41a42af9d04c6b5c4fcb1b56b3a0f9eaca4e6adc8c2abe6ae9a4adf1637d7af9",
      "transactionIndex": "0x10d",
      "blockHash": "0xb5ce531eb7a15530a90c869bffb5df457c20b3e4c4822a866886064575c7e3e4",
      "blockNumber": "0x181d1f7",
      "gasUsed": "0xbc0f",
      "effectiveGasPrice": "0xad2141d",
      "from": "0xcad1a7864a108dbff67f4b8af71fab0c7a86d0b6",
      "to": "0xac2e5936eca286ec364d4d5bcca33145fbe57f95",
      "contractAddress": null
    },
    {
      "status": "0x1",
      "cumulativeGasUsed": "0x126fb34",
      "logs": [
        {
          "address": "0x3bbe928340c61a65cb6c4a87b3fb59b6f3f7606a",
          "topics": [
            "0x7bc7e967314c87be019a6f018822e621cf2548b9231ed0605002aceb282e1608",
            "0x000000000000000000000000e7aec21bf6420ff483107adcb9360c4b31d69d78"
          ],
          "data": "0x",
          "blockHash": "0x74f2112fea5b671258b00c8852327765e6b9ecfd48ff07fba6f0f75ccc222f1c",
          "blockNumber": "0x181d1f8",
          "blockTimestamp": "0x6a28fd53",
          "transactionHash": "0x767905bbe2293781365c2662e767b14ce93a3be5eb36555a417483ab48e7694a",
          "transactionIndex": "0x10a",
          "logIndex": "0x1b7",
          "removed": false
        }
      ],
      "logsBloom": "0x00000000000000000000000000000000000000000000000000000000000000000000000010001000000000000000000000000000000000000000000100000000000000000000000000000000000000000000000000000000000000000000000000000000000000002000000000000000000000000000000000000000000000000000000000004000000000000000000000000000000000000000000000000020000000000000000000000020000000000000000000000000000000000000000000000000000000000000000000000000000000000000000000000000000000000400000000000000000000000000000000000000000000000000000020000000",
      "type": "0x2",
      "transactionHash": "0x767905bbe2293781365c2662e767b14ce93a3be5eb36555a417483ab48e7694a",
      "transactionIndex": "0x10a",
      "blockHash": "0x74f2112fea5b671258b00c8852327765e6b9ecfd48ff07fba6f0f75ccc222f1c",
      "blockNumber": "0x181d1f8",
      "gasUsed": "0xa21d",
      "effectiveGasPrice": "0xaf2f8a6",
      "from": "0xcad1a7864a108dbff67f4b8af71fab0c7a86d0b6",
      "to": "0x3bbe928340c61a65cb6c4a87b3fb59b6f3f7606a",
      "contractAddress": null
    },
    {
      "status": "0x1",
      "cumulativeGasUsed": "0x1052fb9",
      "logs": [
        {
          "address": "0x3bbe928340c61a65cb6c4a87b3fb59b6f3f7606a",
          "topics": [
            "0x7bc7e967314c87be019a6f018822e621cf2548b9231ed0605002aceb282e1608",
            "0x0000000000000000000000008b4a75290a1c4935ec1dfd990374ac4bd4d33952"
          ],
          "data": "0x",
          "blockHash": "0xacb4419df1137038c6c22f40ffa410f4ce6e241c99a88608d72f74a878b24bb7",
          "blockNumber": "0x181d1f9",
          "blockTimestamp": "0x6a28fd5f",
          "transactionHash": "0x15e692b77579f14dbf9949cc48209b828fb8a380cf3125f57635fc539ab2048e",
          "transactionIndex": "0x6a",
          "logIndex": "0x10e",
          "removed": false
        }
      ],
      "logsBloom": "0x00000000000000000000000000000000000000000000000000000000000000000000000010001000000000000000000000000000000000000000000100000000000000000000000000000000000000000000000000000000000000000000000000000000000000002000000000020000000000000000000000000000000000000000000000000000000000000000000000000000000000000000000000000000010000002000000000000000000000000000000000000000000000000000000000000000000000000000000000000000000000000000000000000000000000000400000000000000000000000000000000000000000000000000000020000000",
      "type": "0x2",
      "transactionHash": "0x15e692b77579f14dbf9949cc48209b828fb8a380cf3125f57635fc539ab2048e",
      "transactionIndex": "0x6a",
      "blockHash": "0xacb4419df1137038c6c22f40ffa410f4ce6e241c99a88608d72f74a878b24bb7",
      "blockNumber": "0x181d1f9",
      "gasUsed": "0xa9f7",
      "effectiveGasPrice": "0xabe3057",
      "from": "0xcad1a7864a108dbff67f4b8af71fab0c7a86d0b6",
      "to": "0x3bbe928340c61a65cb6c4a87b3fb59b6f3f7606a",
      "contractAddress": null
    },
    {
      "status": "0x1",
      "cumulativeGasUsed": "0x2d5bbd4",
      "logs": [
        {
          "address": "0x3bbe928340c61a65cb6c4a87b3fb59b6f3f7606a",
          "topics": [
            "0x7bc7e967314c87be019a6f018822e621cf2548b9231ed0605002aceb282e1608",
            "0x000000000000000000000000fc629bc5f6339f77635f4f656fbb114a31f7bcb3"
          ],
          "data": "0x",
          "blockHash": "0xd668bccff56a476c647fa214fc3389328828e4599368fc4ade6cc271b114d101",
          "blockNumber": "0x181d1fa",
          "blockTimestamp": "0x6a28fd6b",
          "transactionHash": "0xe4522948db21cf8ecfeda5a48f77a01104b9bc9f9cbb1cc3d4b6ed7811579f11",
          "transactionIndex": "0x19a",
          "logIndex": "0x3de",
          "removed": false
        }
      ],
      "logsBloom": "0x00000000000000000000000000000000000000000000000000000000000000000000000010001000000000000000000000000000000000000000000100000000000000000000000000000000000000000000000000000000000000000000000000000000000000002000000000000000000000000000000000000000000800000000000000000000000000000000000000000000000000000000000000000000000000000000000000000000000000000000000000000400000000000000000000000000000000000000000000000000000000000100000000000000000000000400000000000000000000000000000000000000000000000000000020000000",
      "type": "0x2",
      "transactionHash": "0xe4522948db21cf8ecfeda5a48f77a01104b9bc9f9cbb1cc3d4b6ed7811579f11",
      "transactionIndex": "0x19a",
      "blockHash": "0xd668bccff56a476c647fa214fc3389328828e4599368fc4ade6cc271b114d101",
      "blockNumber": "0x181d1fa",
      "gasUsed": "0xb1d0",
      "effectiveGasPrice": "0xa7dd8b1",
      "from": "0xcad1a7864a108dbff67f4b8af71fab0c7a86d0b6",
      "to": "0x3bbe928340c61a65cb6c4a87b3fb59b6f3f7606a",
      "contractAddress": null
    },
    {
      "status": "0x1",
      "cumulativeGasUsed": "0x1108d02",
      "logs": [
        {
          "address": "0xbce8abc09baedcabe93419bf875f6186e182079a",
          "topics": [
            "0x8be0079c531659141344cd1fd0a4f28419497f9722a3daafe3b4186f6b6457e0",
            "0x0000000000000000000000000000000000000000000000000000000000000000",
            "0x000000000000000000000000cad1a7864a108dbff67f4b8af71fab0c7a86d0b6"
          ],
          "data": "0x",
          "blockHash": "0xcc96286f4ebff51837a09cb0effd829b6aa3112873733de6086e53ab0f091278",
          "blockNumber": "0x181d1fb",
          "blockTimestamp": "0x6a28fd77",
          "transactionHash": "0xed1fcbcf5f9baf04466ba28e9c0a5ae2959213e01d18e0b57e7b7377466c9e12",
          "transactionIndex": "0x71",
          "logIndex": "0x1e5",
          "removed": false
        }
      ],
      "logsBloom": "0x00000000000000000020000000000000000000000000000000800000000000000000000000000000000000400000000000000000000000000000000000000000010000000200000000000000000000000001000000000000000000000000000000000000020000000000000000000800000000000000000000000000000000400000000000000000000000000000020000000000000000000000000000000000000000000000000000000000000000000000000000000000000000000000000000000000000000000000000000000000000000000000100000000000000020000000000000000000000000000000000000000000000000000000000000000000",
      "type": "0x2",
      "transactionHash": "0xed1fcbcf5f9baf04466ba28e9c0a5ae2959213e01d18e0b57e7b7377466c9e12",
      "transactionIndex": "0x71",
      "blockHash": "0xcc96286f4ebff51837a09cb0effd829b6aa3112873733de6086e53ab0f091278",
      "blockNumber": "0x181d1fb",
      "gasUsed": "0x31a9f9",
      "effectiveGasPrice": "0xb69d534",
      "from": "0xcad1a7864a108dbff67f4b8af71fab0c7a86d0b6",
      "to": null,
      "contractAddress": "0xbce8abc09baedcabe93419bf875f6186e182079a"
    },
    {
      "status": "0x1",
      "cumulativeGasUsed": "0x110e83e",
      "logs": [
        {
          "address": "0xbce8abc09baedcabe93419bf875f6186e182079a",
          "topics": [
            "0x1ff153f4b082245afbf3211a8d2d207da4c5df490e965f9a9ad141b0cd001dda",
            "0x0000000000000000000000000000000000000000000000000000000000000000",
            "0x0000000000000000000000007c5a8eef1d836450c019fb036453ac6ec97885a3"
          ],
          "data": "0x",
          "blockHash": "0x8c0671fa6dcdd755870220192935ab9475234e72e6a120d6d03f3f76c05046e1",
          "blockNumber": "0x181d1fc",
          "blockTimestamp": "0x6a28fd83",
          "transactionHash": "0xa41a7c4544af926205fac63853c27a0d721659bb4b4dafd194078a21e1d39f80",
          "transactionIndex": "0x94",
          "logIndex": "0x1e9",
          "removed": false
        }
      ],
      "logsBloom": "0x00000001000000000000000000000000000000000000000000000000000000000000000000000000000000000000000000000000200000000000000000000000010000000200000000000000000000000000000000000000000000000000000000000000020000000000080000000800000000000000000000000000000000000000000000000000000000000000020000000000000000000000000000000000000000000000000000400000000000000000000000000000000000000000000000000000000000000000000000000400000000000000000000000000000020000000000000000000000000000000000010000000000000000000000000000000",
      "type": "0x2",
      "transactionHash": "0xa41a7c4544af926205fac63853c27a0d721659bb4b4dafd194078a21e1d39f80",
      "transactionIndex": "0x94",
      "blockHash": "0x8c0671fa6dcdd755870220192935ab9475234e72e6a120d6d03f3f76c05046e1",
      "blockNumber": "0x181d1fc",
      "gasUsed": "0xba10",
      "effectiveGasPrice": "0xb8ec760",
      "from": "0xcad1a7864a108dbff67f4b8af71fab0c7a86d0b6",
      "to": "0xbce8abc09baedcabe93419bf875f6186e182079a",
      "contractAddress": null
    },
    {
      "status": "0x1",
      "cumulativeGasUsed": "0xc0d9ed",
      "logs": [
        {
          "address": "0x7c5a8eef1d836450c019fb036453ac6ec97885a3",
          "topics": [
            "0xc25d1d022102ce7b344c33d14de2893a248fabd34bb630dc982e2fbc20f29543",
            "0x000000000000000000000000bce8abc09baedcabe93419bf875f6186e182079a"
          ],
          "data": "0x",
          "blockHash": "0xf8d1b09ab2d7ff0ff06173c23d65513c94f238016cb4918800e06057c6d86c20",
          "blockNumber": "0x181d1fd",
          "blockTimestamp": "0x6a28fd8f",
          "transactionHash": "0xb50c0ccafb502fa3e398b66067b94b5fd7d9f140cb5bb918b18ef14377cec16a",
          "transactionIndex": "0x9f",
          "logIndex": "0x19a",
          "removed": false
        }
      ],
      "logsBloom": "0x00000000000000000000000000000000000000000000000000000000000000000000000000000000000000000000000000000000000000000000000000000000000000000000000000000000000000200000000000000000000000000000100000000000800000000000000000000001000000000000000000000000000000000000000000000000000000000000000000000000000000000000000000000000008000000000000000008000000000000000000000000000000000000000000000002000000000000000000000000000000001000000000000000000000000000000000000000000000000000000000000000000000000000000000000800000",
      "type": "0x2",
      "transactionHash": "0xb50c0ccafb502fa3e398b66067b94b5fd7d9f140cb5bb918b18ef14377cec16a",
      "transactionIndex": "0x9f",
      "blockHash": "0xf8d1b09ab2d7ff0ff06173c23d65513c94f238016cb4918800e06057c6d86c20",
      "blockNumber": "0x181d1fd",
      "gasUsed": "0x194d1",
      "effectiveGasPrice": "0xafffe7d",
      "from": "0xcad1a7864a108dbff67f4b8af71fab0c7a86d0b6",
      "to": "0x7c5a8eef1d836450c019fb036453ac6ec97885a3",
      "contractAddress": null
    },
    {
      "status": "0x1",
      "cumulativeGasUsed": "0x17d528d",
      "logs": [
        {
          "address": "0xf3b5b661b92b75c71fa5aba8fd95d7514a9cd605",
          "topics": [
            "0x34e56df787a7a59706503a81c304ed0ef46ddd2dfcdf1c8c8d1db684f3639fdd",
            "0x000000000000000000000000bce8abc09baedcabe93419bf875f6186e182079a"
          ],
          "data": "0x00000000000000000000000000000000000000000000000000000000000000010000000000000000000000000000000000000000000000000000000000000000",
          "blockHash": "0x26d4018ac579fe293e62d8166555f24efd945c7546f55f2075cc53e559e8e663",
          "blockNumber": "0x181d1ff",
          "blockTimestamp": "0x6a28fda7",
          "transactionHash": "0xf33f8e0e5165d57502e1c3b822b06d97a43f6ad300c7496f77139f39bb9b42cf",
          "transactionIndex": "0xe5",
          "logIndex": "0x23a",
          "removed": false
        }
      ],
      "logsBloom": "0x00000000000000000000000008000000000000000000000000000000000000000000000000000000000000000000000000000000000000000000000000000000000000000000000000000000000000000000000000000000000000000000000008000000800000000000000000000000000000000000000004000000100000000000000000000000000000000000000000000000000000000000000000000000008000000000000000000000000000000000000000000000000000000000000000800000000000000000000000000000000000000000000000000000000000000000000000000000000000000000000000000000000000000000400000800000",
      "type": "0x2",
      "transactionHash": "0xf33f8e0e5165d57502e1c3b822b06d97a43f6ad300c7496f77139f39bb9b42cf",
      "transactionIndex": "0xe5",
      "blockHash": "0x26d4018ac579fe293e62d8166555f24efd945c7546f55f2075cc53e559e8e663",
      "blockNumber": "0x181d1ff",
      "gasUsed": "0xd40a",
      "effectiveGasPrice": "0xb512543",
      "from": "0xcad1a7864a108dbff67f4b8af71fab0c7a86d0b6",
      "to": "0xf3b5b661b92b75c71fa5aba8fd95d7514a9cd605",
      "contractAddress": null
    },
    {
      "status": "0x1",
      "cumulativeGasUsed": "0x275bed2",
      "logs": [
        {
          "address": "0xbce8abc09baedcabe93419bf875f6186e182079a",
          "topics": [
            "0x784c8f4dbf0ffedd6e72c76501c545a70f8b203b30a26ce542bf92ba87c248a4",
            "0x000000000000000000000000865377367054516e17014ccded1e7d814edc9ce4"
          ],
          "data": "0x",
          "blockHash": "0xe5029efda8cb1f537a2ce2ca2f8d341717e430ea069202adff335fc011ae7e09",
          "blockNumber": "0x181d202",
          "blockTimestamp": "0x6a28fdcb",
          "transactionHash": "0x404c712337649e04e48b0e4349cbd03efca76be59dfeecd243ae6b1a66a23c5f",
          "transactionIndex": "0x104",
          "logIndex": "0x3de",
          "removed": false
        }
      ],
      "logsBloom": "0x00000000000000000000000000000000000000000000000000000000000000000000000000000000000000000000000000000000000000000000000000000000010000000200000000000000000000000000000000000000000000000000000000000000000000000000000000000000000000000000200000000010000000000000000000000000000000000000020000000000000000000000000000000000000000000000000000200000000000000000000000000000000000000000000000000000001000000000000000000000000000020000000000000000000000000000000000000000000000000000000000000000000000001000000000000000",
      "type": "0x2",
      "transactionHash": "0x404c712337649e04e48b0e4349cbd03efca76be59dfeecd243ae6b1a66a23c5f",
      "transactionIndex": "0x104",
      "blockHash": "0xe5029efda8cb1f537a2ce2ca2f8d341717e430ea069202adff335fc011ae7e09",
      "blockNumber": "0x181d202",
      "gasUsed": "0x1c07d",
      "effectiveGasPrice": "0xac11096",
      "from": "0xcad1a7864a108dbff67f4b8af71fab0c7a86d0b6",
      "to": "0xbce8abc09baedcabe93419bf875f6186e182079a",
      "contractAddress": null
    },
    {
      "status": "0x1",
      "cumulativeGasUsed": "0x19e6115",
      "logs": [
        {
          "address": "0x90ce274b20a2af4265152b369d09ce6e6dc177f9",
          "topics": [
            "0x50b24d98d3da51f5db279e5872fa50584b172048aa9bfa6c6edb4d0cfbb4dc58",
            "0x000000000000000000000000bce8abc09baedcabe93419bf875f6186e182079a"
          ],
          "data": "0x0000000000000000000000000000000000000000000000000000000000000001",
          "blockHash": "0xab826669aca731d52cfdabe0bde92068e57757dc24421aeecc005bee2808f085",
          "blockNumber": "0x181d203",
          "blockTimestamp": "0x6a28fdd7",
          "transactionHash": "0xb7787e348be6e4352e65d0c648b178338e0bdfb47cd5d6fde5c30ae286b09619",
          "transactionIndex": "0x9a",
          "logIndex": "0x28a",
          "removed": false
        }
      ],
      "logsBloom": "0x00000000000000000000000000000000000002000000000000000000000000000000000000000000000000000000000000000000000000000000000000000000000000000000000000000000000000000000000000000000000000000000000000000000800000000000000000000000000000000000000000100000000000000000000000000000000000000000000000000000000000000000000000000000018000000000000800000000000000000000000000000000000000000000000000000000000000002000000000000000000000000000000000000000000000000200000000000000000000000000000000000000000000000000000000800000",
      "type": "0x2",
      "transactionHash": "0xb7787e348be6e4352e65d0c648b178338e0bdfb47cd5d6fde5c30ae286b09619",
      "transactionIndex": "0x9a",
      "blockHash": "0xab826669aca731d52cfdabe0bde92068e57757dc24421aeecc005bee2808f085",
      "blockNumber": "0x181d203",
      "gasUsed": "0x126e7",
      "effectiveGasPrice": "0xba91539",
      "from": "0xcad1a7864a108dbff67f4b8af71fab0c7a86d0b6",
      "to": "0x90ce274b20a2af4265152b369d09ce6e6dc177f9",
      "contractAddress": null
    },
    {
      "status": "0x1",
      "cumulativeGasUsed": "0x27db7fb",
      "logs": [
        {
          "address": "0x865377367054516e17014ccded1e7d814edc9ce4",
          "topics": [
            "0x8c5be1e5ebec7d5bd14f71427d1e84f3dd0314c0f7b2291e5b200ac8c7c3b925",
            "0x000000000000000000000000bce8abc09baedcabe93419bf875f6186e182079a",
            "0x00000000000000000000000090ce274b20a2af4265152b369d09ce6e6dc177f9"
          ],
          "data": "0xffffffffffffffffffffffffffffffffffffffffffffffffffffffffffffffff",
          "blockHash": "0x5bd3662a13403a25e166daf1d3bb00aef81c400c7404f0101e2e53f0f9a07f87",
          "blockNumber": "0x181d208",
          "blockTimestamp": "0x6a28fe13",
          "transactionHash": "0x67d80be0f733917b489cb3405a0fd614431ba6ace796a7ed41f867e5a0e09f26",
          "transactionIndex": "0xb5",
          "logIndex": "0x4b3",
          "removed": false
        },
        {
          "address": "0xbce8abc09baedcabe93419bf875f6186e182079a",
          "topics": [
            "0x3516568a649d8b032ca21ab63e0a7648daa892b0f3b8bf042a620ecbabb9b3b3",
            "0x000000000000000000000000865377367054516e17014ccded1e7d814edc9ce4",
            "0x0000000000000000000000000000000000000000000000000000000000000000",
            "0x00000000000000000000000090ce274b20a2af4265152b369d09ce6e6dc177f9"
          ],
          "data": "0x",
          "blockHash": "0x5bd3662a13403a25e166daf1d3bb00aef81c400c7404f0101e2e53f0f9a07f87",
          "blockNumber": "0x181d208",
          "blockTimestamp": "0x6a28fe13",
          "transactionHash": "0x67d80be0f733917b489cb3405a0fd614431ba6ace796a7ed41f867e5a0e09f26",
          "transactionIndex": "0xb5",
          "logIndex": "0x4b4",
          "removed": false
        }
      ],
      "logsBloom": "0x000000000000000000000000000000000000000000000000000600000000000000000000000000000000080000000000000000000000000000000000002000000100000002000000000000000000000000000000000000000000000000000000000000008200000000020000000008000001000000000000000000100000800000000000000000000000000000000200000000000000000000000000000000000280000020000000000000000000000000000000000000000000000000000000000000000010000000000000000000000000000a0000000000000000000024000010000000000000000000000000000000000000000000000000000000800000",
      "type": "0x2",
      "transactionHash": "0x67d80be0f733917b489cb3405a0fd614431ba6ace796a7ed41f867e5a0e09f26",
      "transactionIndex": "0xb5",
      "blockHash": "0x5bd3662a13403a25e166daf1d3bb00aef81c400c7404f0101e2e53f0f9a07f87",
      "blockNumber": "0x181d208",
      "gasUsed": "0x14e5d",
      "effectiveGasPrice": "0xb370d99",
      "from": "0xcad1a7864a108dbff67f4b8af71fab0c7a86d0b6",
      "to": "0xbce8abc09baedcabe93419bf875f6186e182079a",
      "contractAddress": null
    },
    {
      "status": "0x1",
      "cumulativeGasUsed": "0x3429d3a",
      "logs": [
        {
          "address": "0x90ce274b20a2af4265152b369d09ce6e6dc177f9",
          "topics": [
            "0x7f5fae2f2ea0d248c289f00cb1738844937f7fe3bd3c11357de14780c9805b9a",
            "0x000000000000000000000000bce8abc09baedcabe93419bf875f6186e182079a"
          ],
          "data": "0x0000000000000000000000000000000000000000000000000000000000000000000000000000000000000000000000000000000000000000000000000000000a",
          "blockHash": "0x8a637fc6d5ed00a6a71fad1b5a12e6dfe74e0b2ce4660c7ee8cdd3ef26e7320f",
          "blockNumber": "0x181d20a",
          "blockTimestamp": "0x6a28fe2b",
          "transactionHash": "0x2f3a4e530c0446914174771c1b5eed63dd7fb272d4e826a8d93c56db33ed145e",
          "transactionIndex": "0x181",
          "logIndex": "0x24b",
          "removed": false
        }
      ],
      "logsBloom": "0x00000000000000000000000000000000000002000000000000000000000000000000000000000000000000000000002000000000000000000000000000000000000000000000000000000000000000001000000000000000000000000000000000000000800000000000000000000000000000000000000000000000000000000000000000000000000000000000000000000000001000000000000000000000008000000000000000000000000000000000000000000000000000000000000000000000000000002000000000000000000000000000000000000000000000000200000000000000000000000000000000000000000000000000000000800000",
      "type": "0x2",
      "transactionHash": "0x2f3a4e530c0446914174771c1b5eed63dd7fb272d4e826a8d93c56db33ed145e",
      "transactionIndex": "0x181",
      "blockHash": "0x8a637fc6d5ed00a6a71fad1b5a12e6dfe74e0b2ce4660c7ee8cdd3ef26e7320f",
      "blockNumber": "0x181d20a",
      "gasUsed": "0xbd8e",
      "effectiveGasPrice": "0xbe30f30",
      "from": "0xcad1a7864a108dbff67f4b8af71fab0c7a86d0b6",
      "to": "0x90ce274b20a2af4265152b369d09ce6e6dc177f9",
      "contractAddress": null
    },
    {
      "status": "0x1",
      "cumulativeGasUsed": "0x105570a",
      "logs": [
        {
          "address": "0xbce8abc09baedcabe93419bf875f6186e182079a",
          "topics": [
            "0x83e15551372e4d4bb4b7602905b434efa1bd61fd20b4d43d838d913418f5569b",
            "0x000000000000000000000000865377367054516e17014ccded1e7d814edc9ce4"
          ],
          "data": "0x0000000000000000000000000000000000000000000000004563918244f40000000000000000000000000000000000000000000000000000000034a1fede7342",
          "blockHash": "0xc71fc6822dbff214cf4b7c46313786ee8d430b0bbd49e0cfe1e30e3044beeb72",
          "blockNumber": "0x181d20b",
          "blockTimestamp": "0x6a28fe37",
          "transactionHash": "0xd72d0aef598c43941c9ce2e9f94b531b2a4cab7d1ebfd6c9e782902aee90300b",
          "transactionIndex": "0xa6",
          "logIndex": "0x17f",
          "removed": false
        }
      ],
      "logsBloom": "0x00000000000000000000000000000000000000000000000000000000000000000000000000000000000000000000000000000000000000000000000000000000010000000200000000000000000000000000000000000000000000000000000000000000000000000000000100000000000000000000000000000010000000000000000000000000000000000000020000000000000000000000000000000000000000000000000000000000000000000000000000000000000000000000000000000000001000000000000000000000000000020000000000000000000000000000000000000800000000000000000000000000000000000000000000000000",
      "type": "0x2",
      "transactionHash": "0xd72d0aef598c43941c9ce2e9f94b531b2a4cab7d1ebfd6c9e782902aee90300b",
      "transactionIndex": "0xa6",
      "blockHash": "0xc71fc6822dbff214cf4b7c46313786ee8d430b0bbd49e0cfe1e30e3044beeb72",
      "blockNumber": "0x181d20b",
      "gasUsed": "0xeb5f",
      "effectiveGasPrice": "0xd5d3ccc",
      "from": "0xcad1a7864a108dbff67f4b8af71fab0c7a86d0b6",
      "to": "0xbce8abc09baedcabe93419bf875f6186e182079a",
      "contractAddress": null
    },
    {
      "status": "0x1",
      "cumulativeGasUsed": "0xb5ea2e",
      "logs": [
        {
          "address": "0xbce8abc09baedcabe93419bf875f6186e182079a",
          "topics": [
            "0x784c8f4dbf0ffedd6e72c76501c545a70f8b203b30a26ce542bf92ba87c248a4",
            "0x000000000000000000000000a0b86991c6218b36c1d19d4a2e9eb0ce3606eb48"
          ],
          "data": "0x",
          "blockHash": "0xf99b96a9a883dbc2d35f4e83ad87285c2dfb1ff6b45d9574e5e172aa5d94e869",
          "blockNumber": "0x181d20c",
          "blockTimestamp": "0x6a28fe43",
          "transactionHash": "0xb0bc5a73a155e8791104d944edab996d787fb03834c5034f340315180cbe25d9",
          "transactionIndex": "0x50",
          "logIndex": "0x113",
          "removed": false
        }
      ],
      "logsBloom": "0x00000000000000000000000000000000000000000000000000000000000000000000000000000000000002000000000000000000000000000000000000000000010000000200000000000000000000000000000000000000000000000000000000000000000000000000000000000000000000000000200000000000000000000000000000000000000000000000020200000000000000000000000000000000000000000000000000200000000000000000000000000000000000000000000000000000000000000000000000000000000000000000000000000000000000000000000000000000000000000000000004000000000000001000000000000000",
      "type": "0x2",
      "transactionHash": "0xb0bc5a73a155e8791104d944edab996d787fb03834c5034f340315180cbe25d9",
      "transactionIndex": "0x50",
      "blockHash": "0xf99b96a9a883dbc2d35f4e83ad87285c2dfb1ff6b45d9574e5e172aa5d94e869",
      "blockNumber": "0x181d20c",
      "gasUsed": "0x17db1",
      "effectiveGasPrice": "0xd678334",
      "from": "0xcad1a7864a108dbff67f4b8af71fab0c7a86d0b6",
      "to": "0xbce8abc09baedcabe93419bf875f6186e182079a",
      "contractAddress": null
    },
    {
      "status": "0x1",
      "cumulativeGasUsed": "0xf62800",
      "logs": [
        {
          "address": "0x90af002ee537ad5c2c9817ebd4ef22b2e8952470",
          "topics": [
            "0x50b24d98d3da51f5db279e5872fa50584b172048aa9bfa6c6edb4d0cfbb4dc58",
            "0x000000000000000000000000bce8abc09baedcabe93419bf875f6186e182079a"
          ],
          "data": "0x0000000000000000000000000000000000000000000000000000000000000001",
          "blockHash": "0x32fc89c1c088996043771b1e707be35cb18a7d0f62685004f279d14b157206ab",
          "blockNumber": "0x181d20d",
          "blockTimestamp": "0x6a28fe4f",
          "transactionHash": "0xac801d007481735581ecbdfdfa6dbefb93de6d0afe4c1ea49b472eb613343c7e",
          "transactionIndex": "0x8d",
          "logIndex": "0x1bd",
          "removed": false
        }
      ],
      "logsBloom": "0x00000000000000000000000000000000000000000000000000000000000010000000000000000400000000000000000000000000000000000000000000000000000000000000000000000000000000000000000000000000000000000000000000000000800000000000000000000000000000000000000000100000000000000000000000000000000000000000000000000000000000000000000000000000018000000000000800000000000000000000000000000000000000000000000000000000000000000000000000000000000000000000000000000000000000000000000000000000000000000000000000000000000000000000000000800080",
      "type": "0x2",
      "transactionHash": "0xac801d007481735581ecbdfdfa6dbefb93de6d0afe4c1ea49b472eb613343c7e",
      "transactionIndex": "0x8d",
      "blockHash": "0x32fc89c1c088996043771b1e707be35cb18a7d0f62685004f279d14b157206ab",
      "blockNumber": "0x181d20d",
      "gasUsed": "0x126e7",
      "effectiveGasPrice": "0xdd012bd",
      "from": "0xcad1a7864a108dbff67f4b8af71fab0c7a86d0b6",
      "to": "0x90af002ee537ad5c2c9817ebd4ef22b2e8952470",
      "contractAddress": null
    },
    {
      "status": "0x1",
      "cumulativeGasUsed": "0x21c22fa",
      "logs": [
        {
          "address": "0xa0b86991c6218b36c1d19d4a2e9eb0ce3606eb48",
          "topics": [
            "0x8c5be1e5ebec7d5bd14f71427d1e84f3dd0314c0f7b2291e5b200ac8c7c3b925",
            "0x000000000000000000000000bce8abc09baedcabe93419bf875f6186e182079a",
            "0x00000000000000000000000090af002ee537ad5c2c9817ebd4ef22b2e8952470"
          ],
          "data": "0xffffffffffffffffffffffffffffffffffffffffffffffffffffffffffffffff",
          "blockHash": "0x2786101a32ea4e84422f13ff964daeca10d7058442e6daf7cb70160d0580ecf6",
          "blockNumber": "0x181d20f",
          "blockTimestamp": "0x6a28fe67",
          "transactionHash": "0xdb50f6e7a7b39e5c3fc5a6d4b04de107b52e3552d5619379fb5075ef9a2e21ef",
          "transactionIndex": "0xcb",
          "logIndex": "0x331",
          "removed": false
        },
        {
          "address": "0xbce8abc09baedcabe93419bf875f6186e182079a",
          "topics": [
            "0x3516568a649d8b032ca21ab63e0a7648daa892b0f3b8bf042a620ecbabb9b3b3",
            "0x000000000000000000000000a0b86991c6218b36c1d19d4a2e9eb0ce3606eb48",
            "0x0000000000000000000000000000000000000000000000000000000000000000",
            "0x00000000000000000000000090af002ee537ad5c2c9817ebd4ef22b2e8952470"
          ],
          "data": "0x",
          "blockHash": "0x2786101a32ea4e84422f13ff964daeca10d7058442e6daf7cb70160d0580ecf6",
          "blockNumber": "0x181d20f",
          "blockTimestamp": "0x6a28fe67",
          "transactionHash": "0xdb50f6e7a7b39e5c3fc5a6d4b04de107b52e3552d5619379fb5075ef9a2e21ef",
          "transactionIndex": "0xcb",
          "logIndex": "0x332",
          "removed": false
        }
      ],
      "logsBloom": "0x00000000000000000000000000000000000000000000000000000000000000000000000000000000000002000000000000000000000000000000000000200000010000000200000008000000000000000000000000000000000000000000000000000000820000000002000000000800000100000000000000000000000000000000000000000000000000000000020200000000010000000000000000000000028000002000200000000000000000000000000000004000000000000000000000000000000000000000008000000000000000000000000000000000000020000010000000000000000000000000000004000000000400000000000000800000",
      "type": "0x2",
      "transactionHash": "0xdb50f6e7a7b39e5c3fc5a6d4b04de107b52e3552d5619379fb5075ef9a2e21ef",
      "transactionIndex": "0xcb",
      "blockHash": "0x2786101a32ea4e84422f13ff964daeca10d7058442e6daf7cb70160d0580ecf6",
      "blockNumber": "0x181d20f",
      "gasUsed": "0x176d0",
      "effectiveGasPrice": "0xcf82c2c",
      "from": "0xcad1a7864a108dbff67f4b8af71fab0c7a86d0b6",
      "to": "0xbce8abc09baedcabe93419bf875f6186e182079a",
      "contractAddress": null
    },
    {
      "status": "0x1",
      "cumulativeGasUsed": "0x12bcd40",
      "logs": [
        {
          "address": "0x90af002ee537ad5c2c9817ebd4ef22b2e8952470",
          "topics": [
            "0x7f5fae2f2ea0d248c289f00cb1738844937f7fe3bd3c11357de14780c9805b9a",
            "0x000000000000000000000000bce8abc09baedcabe93419bf875f6186e182079a"
          ],
          "data": "0x0000000000000000000000000000000000000000000000000000000000000000000000000000000000000000000000000000000000000000000000000000000a",
          "blockHash": "0x47ef59ac9824cd98687f6821386dd679f9520dfa6695c9d7ac077b758681f1cc",
          "blockNumber": "0x181d211",
          "blockTimestamp": "0x6a28fe7f",
          "transactionHash": "0x6447b9c2b82768ac94e4198694062354ed2519a725a7baca773b2166aa0f246f",
          "transactionIndex": "0xb0",
          "logIndex": "0x1d8",
          "removed": false
        }
      ],
      "logsBloom": "0x00000000000000000000000000000000000000000000000000000000000010000000000000000400000000000000002000000000000000000000000000000000000000000000000000000000000000001000000000000000000000000000000000000000800000000000000000000000000000000000000000000000000000000000000000000000000000000000000000000000001000000000000000000000008000000000000000000000000000000000000000000000000000000000000000000000000000000000000000000000000000000000000000000000000000000000000000000000000000000000000000000000000000000000000000800080",
      "type": "0x2",
      "transactionHash": "0x6447b9c2b82768ac94e4198694062354ed2519a725a7baca773b2166aa0f246f",
      "transactionIndex": "0xb0",
      "blockHash": "0x47ef59ac9824cd98687f6821386dd679f9520dfa6695c9d7ac077b758681f1cc",
      "blockNumber": "0x181d211",
      "gasUsed": "0xbd8e",
      "effectiveGasPrice": "0xefb960f",
      "from": "0xcad1a7864a108dbff67f4b8af71fab0c7a86d0b6",
      "to": "0x90af002ee537ad5c2c9817ebd4ef22b2e8952470",
      "contractAddress": null
    },
    {
      "status": "0x1",
      "cumulativeGasUsed": "0x33f27e3",
      "logs": [
        {
          "address": "0xbce8abc09baedcabe93419bf875f6186e182079a",
          "topics": [
            "0x83e15551372e4d4bb4b7602905b434efa1bd61fd20b4d43d838d913418f5569b",
            "0x000000000000000000000000a0b86991c6218b36c1d19d4a2e9eb0ce3606eb48"
          ],
          "data": "0x0000000000000000000000000000000000000000000000006124fee993bc0000000000000000000000000000000000000000000000000000000049af98043af6",
          "blockHash": "0x63ea18ea83891b888248ca45a346e686b5ec776545185b31bf026fc90cceb495",
          "blockNumber": "0x181d213",
          "blockTimestamp": "0x6a28fe97",
          "transactionHash": "0xe23b0feee9e9f8545905fd6536155218273a51f3865e99ecd6aea401a0fb5be1",
          "transactionIndex": "0x131",
          "logIndex": "0x565",
          "removed": false
        }
      ],
      "logsBloom": "0x00000000000000000000000000000000000000000000000000000000000000000000000000000000000002000000000000000000000000000000000000000000010000000200000000000000000000000000000000000000000000000000000000000000000000000000000100000000000000000000000000000000000000000000000000000000000000000000020200000000000000000000000000000000000000000000000000000000000000000000000000000000000000000000000000000000001000000000000000000000000000000000000000000000000000000000000000000800000000000000000004000000000000000000000000000000",
      "type": "0x2",
      "transactionHash": "0xe23b0feee9e9f8545905fd6536155218273a51f3865e99ecd6aea401a0fb5be1",
      "transactionIndex": "0x131",
      "blockHash": "0x63ea18ea83891b888248ca45a346e686b5ec776545185b31bf026fc90cceb495",
      "blockNumber": "0x181d213",
      "gasUsed": "0xeb5f",
      "effectiveGasPrice": "0xd6ba163",
      "from": "0xcad1a7864a108dbff67f4b8af71fab0c7a86d0b6",
      "to": "0xbce8abc09baedcabe93419bf875f6186e182079a",
      "contractAddress": null
    },
    {
      "status": "0x1",
      "cumulativeGasUsed": "0x1aa104d",
      "logs": [
        {
          "address": "0xbce8abc09baedcabe93419bf875f6186e182079a",
          "topics": [
            "0x784c8f4dbf0ffedd6e72c76501c545a70f8b203b30a26ce542bf92ba87c248a4",
            "0x0000000000000000000000004c9edd5852cd905f086c759e8383e09bff1e68b3"
          ],
          "data": "0x",
          "blockHash": "0x8a750ff3f11e6dda49910ff27eead75e63ce91c16f7291b03e49ce8ea411e5ff",
          "blockNumber": "0x181d214",
          "blockTimestamp": "0x6a28fea3",
          "transactionHash": "0xecd1d70e11995ac4839edef5aeed1e6c5ecbf605774b39eba316d3ebb7b9368e",
          "transactionIndex": "0xbe",
          "logIndex": "0x2e1",
          "removed": false
        }
      ],
      "logsBloom": "0x00000000000000000000000000000000000000000000000000000000000000000000000000000000000000000000000000000000000000000000000000000000010000000200000000000000000000000000000000000000000000000000000000000000000000000000000000000000000000000000200000000000000000000000000000000000000000000000020000000001000000000000000000000000000000000000000000200000000000000000000000000000000000000000020000000000000000000000000000000000000000000000000000000000000000000000000000000000000000000000080000000000000000001000000000000000",
      "type": "0x2",
      "transactionHash": "0xecd1d70e11995ac4839edef5aeed1e6c5ecbf605774b39eba316d3ebb7b9368e",
      "transactionIndex": "0xbe",
      "blockHash": "0x8a750ff3f11e6dda49910ff27eead75e63ce91c16f7291b03e49ce8ea411e5ff",
      "blockNumber": "0x181d214",
      "gasUsed": "0x17db1",
      "effectiveGasPrice": "0xee43c71",
      "from": "0xcad1a7864a108dbff67f4b8af71fab0c7a86d0b6",
      "to": "0xbce8abc09baedcabe93419bf875f6186e182079a",
      "contractAddress": null
    },
    {
      "status": "0x1",
      "cumulativeGasUsed": "0x1135838",
      "logs": [
        {
          "address": "0xac2e5936eca286ec364d4d5bcca33145fbe57f95",
          "topics": [
            "0x50b24d98d3da51f5db279e5872fa50584b172048aa9bfa6c6edb4d0cfbb4dc58",
            "0x000000000000000000000000bce8abc09baedcabe93419bf875f6186e182079a"
          ],
          "data": "0x0000000000000000000000000000000000000000000000000000000000000001",
          "blockHash": "0x0a04357d3c5dfab0f847c6faf743a9ed55b164d387fed40c1235e276d9040997",
          "blockNumber": "0x181d215",
          "blockTimestamp": "0x6a28feaf",
          "transactionHash": "0xfcc20cb282a1f369e711bf9fb8185de1dfc91b6c02bd3c316fce9ed93ce291ce",
          "transactionIndex": "0xb2",
          "logIndex": "0x220",
          "removed": false
        }
      ],
      "logsBloom": "0x00000000000000000000000000000000001000000000000000000000000000000000000000000000000000000000000000000000000000000000000000000000000000000000004000000000010000000000000000000000000000000000000000000000800000000000000000000000000000000000000000100000000000000000000000000000000000000000000000000000000000000000000000000000018000000000000800000000000000000000000000000000000000000000000000000000000000000000000000000000000000000000000000000000000000000000000000000000000000000000000000000000000000000000000000800000",
      "type": "0x2",
      "transactionHash": "0xfcc20cb282a1f369e711bf9fb8185de1dfc91b6c02bd3c316fce9ed93ce291ce",
      "transactionIndex": "0xb2",
      "blockHash": "0x0a04357d3c5dfab0f847c6faf743a9ed55b164d387fed40c1235e276d9040997",
      "blockNumber": "0x181d215",
      "gasUsed": "0x12713",
      "effectiveGasPrice": "0xf302945",
      "from": "0xcad1a7864a108dbff67f4b8af71fab0c7a86d0b6",
      "to": "0xac2e5936eca286ec364d4d5bcca33145fbe57f95",
      "contractAddress": null
    },
    {
      "status": "0x1",
      "cumulativeGasUsed": "0x15b443c",
      "logs": [
        {
          "address": "0x4c9edd5852cd905f086c759e8383e09bff1e68b3",
          "topics": [
            "0x8c5be1e5ebec7d5bd14f71427d1e84f3dd0314c0f7b2291e5b200ac8c7c3b925",
            "0x000000000000000000000000bce8abc09baedcabe93419bf875f6186e182079a",
            "0x000000000000000000000000ac2e5936eca286ec364d4d5bcca33145fbe57f95"
          ],
          "data": "0xffffffffffffffffffffffffffffffffffffffffffffffffffffffffffffffff",
          "blockHash": "0x8c1000b580d1fc055bb9935cc41672310ff7507eaf819267a126b17c86521646",
          "blockNumber": "0x181d217",
          "blockTimestamp": "0x6a28fec7",
          "transactionHash": "0xfe69a70f4b3b29982d19a1ce9d0cbb4f93d9e53d2a2e31efbd6c15e99d884fb2",
          "transactionIndex": "0xc6",
          "logIndex": "0x133",
          "removed": false
        },
        {
          "address": "0xbce8abc09baedcabe93419bf875f6186e182079a",
          "topics": [
            "0x3516568a649d8b032ca21ab63e0a7648daa892b0f3b8bf042a620ecbabb9b3b3",
            "0x0000000000000000000000004c9edd5852cd905f086c759e8383e09bff1e68b3",
            "0x0000000000000000000000000000000000000000000000000000000000000000",
            "0x000000000000000000000000ac2e5936eca286ec364d4d5bcca33145fbe57f95"
          ],
          "data": "0x",
          "blockHash": "0x8c1000b580d1fc055bb9935cc41672310ff7507eaf819267a126b17c86521646",
          "blockNumber": "0x181d217",
          "blockTimestamp": "0x6a28fec7",
          "transactionHash": "0xfe69a70f4b3b29982d19a1ce9d0cbb4f93d9e53d2a2e31efbd6c15e99d884fb2",
          "transactionIndex": "0xc6",
          "logIndex": "0x134",
          "removed": false
        }
      ],
      "logsBloom": "0x00000000000000000000000000000000000000000000000000000000000000000000000000000004000000000000000800000000000000000000000000200000010040000200000008000000000000000000000000000000000000000000000000000000820000000002000000000800000100000000000000000000000000000000000000000000000000000000020000000001008000000000000000000000028000002000000000000000000000000000000000100000000000000000020000000000000000000000000000000000000000000000000000000000000020000010000000000000000000000000080000000000000000000000000000800000",
      "type": "0x2",
      "transactionHash": "0xfe69a70f4b3b29982d19a1ce9d0cbb4f93d9e53d2a2e31efbd6c15e99d884fb2",
      "transactionIndex": "0xc6",
      "blockHash": "0x8c1000b580d1fc055bb9935cc41672310ff7507eaf819267a126b17c86521646",
      "blockNumber": "0x181d217",
      "gasUsed": "0x14f84",
      "effectiveGasPrice": "0xf31eeb5",
      "from": "0xcad1a7864a108dbff67f4b8af71fab0c7a86d0b6",
      "to": "0xbce8abc09baedcabe93419bf875f6186e182079a",
      "contractAddress": null
    },
    {
      "status": "0x1",
      "cumulativeGasUsed": "0x20b12f9",
      "logs": [
        {
          "address": "0xac2e5936eca286ec364d4d5bcca33145fbe57f95",
          "topics": [
            "0x7f5fae2f2ea0d248c289f00cb1738844937f7fe3bd3c11357de14780c9805b9a",
            "0x000000000000000000000000bce8abc09baedcabe93419bf875f6186e182079a"
          ],
          "data": "0x0000000000000000000000000000000000000000000000000000000000000000000000000000000000000000000000000000000000000000000000000000000a",
          "blockHash": "0x9cd8d5f3b7da92f6dc62bb131a244ed3ec70bff6dfa761c293ac27076488e835",
          "blockNumber": "0x181d21a",
          "blockTimestamp": "0x6a28feeb",
          "transactionHash": "0x43bd6341824f9fb20e62fd111ab0158e58a75876d860a788a27bb565988a044d",
          "transactionIndex": "0xba",
          "logIndex": "0x308",
          "removed": false
        }
      ],
      "logsBloom": "0x00000000000000000000000000000000001000000000000000000000000000000000000000000000000000000000002000000000000000000000000000000000000000000000004000000000010000001000000000000000000000000000000000000000800000000000000000000000000000000000000000000000000000000000000000000000000000000000000000000000001000000000000000000000008000000000000000000000000000000000000000000000000000000000000000000000000000000000000000000000000000000000000000000000000000000000000000000000000000000000000000000000000000000000000000800000",
      "type": "0x2",
      "transactionHash": "0x43bd6341824f9fb20e62fd111ab0158e58a75876d860a788a27bb565988a044d",
      "transactionIndex": "0xba",
      "blockHash": "0x9cd8d5f3b7da92f6dc62bb131a244ed3ec70bff6dfa761c293ac27076488e835",
      "blockNumber": "0x181d21a",
      "gasUsed": "0xbdd0",
      "effectiveGasPrice": "0xfe74a83",
      "from": "0xcad1a7864a108dbff67f4b8af71fab0c7a86d0b6",
      "to": "0xac2e5936eca286ec364d4d5bcca33145fbe57f95",
      "contractAddress": null
    },
    {
      "status": "0x1",
      "cumulativeGasUsed": "0xf02611",
      "logs": [
        {
          "address": "0xbce8abc09baedcabe93419bf875f6186e182079a",
          "topics": [
            "0x83e15551372e4d4bb4b7602905b434efa1bd61fd20b4d43d838d913418f5569b",
            "0x0000000000000000000000004c9edd5852cd905f086c759e8383e09bff1e68b3"
          ],
          "data": "0x0000000000000000000000000000000000000000000000008ac7230489e8000000000000000000000000000000000000000000000000000000006943fdbce684",
          "blockHash": "0xf495b8e4282102c5be3a525dcc0254472b03d419f674247517ecbc49ae6ddd30",
          "blockNumber": "0x181d21b",
          "blockTimestamp": "0x6a28fef7",
          "transactionHash": "0x9df71adf94b13dace1b73b8913e39b53ecbbb1357efca6470c82a18636d12a24",
          "transactionIndex": "0xd5",
          "logIndex": "0x1c5",
          "removed": false
        }
      ],
      "logsBloom": "0x00000000000000000000000000000000000000000000000000000000000000000000000000000000000000000000000000000000000000000000000000000000010000000200000000000000000000000000000000000000000000000000000000000000000000000000000100000000000000000000000000000000000000000000000000000000000000000000020000000001000000000000000000000000000000000000000000000000000000000000000000000000000000000000020000000000001000000000000000000000000000000000000000000000000000000000000000000800000000000000080000000000000000000000000000000000",
      "type": "0x2",
      "transactionHash": "0x9df71adf94b13dace1b73b8913e39b53ecbbb1357efca6470c82a18636d12a24",
      "transactionIndex": "0xd5",
      "blockHash": "0xf495b8e4282102c5be3a525dcc0254472b03d419f674247517ecbc49ae6ddd30",
      "blockNumber": "0x181d21b",
      "gasUsed": "0xeb5f",
      "effectiveGasPrice": "0x104f851b",
      "from": "0xcad1a7864a108dbff67f4b8af71fab0c7a86d0b6",
      "to": "0xbce8abc09baedcabe93419bf875f6186e182079a",
      "contractAddress": null
    }
  ],
  "libraries": [],
  "pending": [],
  "returns": {},
  "timestamp": 1781071608721,
  "chain": 1,
  "commit": "3cf66ef"
}