{
  "transactions": [
    {
      "hash": "0x0950c75fff4e136907a557be475b513613aad21056e0512b6c25c460aaa86a2f",
      "transactionType": "CALL",
      "contractName": null,
      "contractAddress": "0x3984ebc84d45a889ddac595d13dc0ac2e54819f4",
      "function": "setDepletionDuration(uint256)",
      "arguments": [
        "1209600"
      ],
      "transaction": {
        "from": "0xcad1a7864a108dbff67f4b8af71fab0c7a86d0b6",
        "to": "0x3984ebc84d45a889ddac595d13dc0ac2e54819f4",
        "gas": "0x16f01",
        "value": "0x0",
        "input": "0xfaa285760000000000000000000000000000000000000000000000000000000000127500",
        "nonce": "0x46",
        "chainId": "0x1"
      },
      "additionalContracts": [],
      "isFixedGasLimit": false
    }
  ],
  "receipts": [
    {
      "status": "0x1",
      "cumulativeGasUsed": "0x381473e",
      "logs": [
        {
          "address": "0x3984ebc84d45a889ddac595d13dc0ac2e54819f4",
          "topics": [
            "0xbd6629d3139b5595966cce9ee4270867a7a5ebaca81943509f0094021854a443"
          ],
          "data": "0x0000000000000000000000000000000000000000000000000000000000093a800000000000000000000000000000000000000000000000000000000000127500",
          "blockHash": "0x84b72ae5b011ef2767f2290212418a6353f5522694be1845304a751428b6aeb0",
          "blockNumber": "0x174a8e6",
          "blockTimestamp": "0x698a73eb",
          "transactionHash": "0x0950c75fff4e136907a557be475b513613aad21056e0512b6c25c460aaa86a2f",
          "transactionIndex": "0x11c",
          "logIndex": "0x2bd",
          "removed": false
        }
      ],
      "logsBloom": "0x00000000000000000000000000000000000000000000000000000000000000000000000000000000000000400000000000000000000000000000000000000000000000000000000000000000000000000000000000000000000000000000000000000000100000000000000010000000000000000000000000000000000000000008000000000000000000000000000000000000000000000000000000000000000000000000000000000000000000000000000000000000000000004080000000000000000000000000000000000000000000000000000000000000000000000000000000000000000000000000000000000000000000000000000000000000",
      "type": "0x2",
      "transactionHash": "0x0950c75fff4e136907a557be475b513613aad21056e0512b6c25c460aaa86a2f",
      "transactionIndex": "0x11c",
      "blockHash": "0x84b72ae5b011ef2767f2290212418a6353f5522694be1845304a751428b6aeb0",
      "blockNumber": "0x174a8e6",
      "gasUsed": "0xfaf2",
      "effectiveGasPrice": "0x2650046",
      "from": "0xcad1a7864a108dbff67f4b8af71fab0c7a86d0b6",
      "to": "0x3984ebc84d45a889ddac595d13dc0ac2e54819f4",
      "contractAddress": null
    }
  ],
  "libraries": [],
  "pending": [],
  "returns": {},
  "timestamp": 1770681325298,
  "chain": 1,
  "commit": "6fc5824"
}