{
  "transactions": [
    {
      "hash": "0x9031a20f19c692cc4926358550f1fb70afd2002fdf556fde9c4e06c8354e387d",
      "transactionType": "CALL",
      "contractName": null,
      "contractAddress": "0xf3b5b661b92b75c71fa5aba8fd95d7514a9cd605",
      "function": "mint(address,uint256)",
      "arguments": [
        "0xCad1a7864a108DBFF67F4b8af71fAB0C7A86D0B6",
        "100000000000000000000"
      ],
      "transaction": {
        "from": "0xcad1a7864a108dbff67f4b8af71fab0c7a86d0b6",
        "to": "0xf3b5b661b92b75c71fa5aba8fd95d7514a9cd605",
        "gas": "0xe981",
        "value": "0x0",
        "input": "0x40c10f19000000000000000000000000cad1a7864a108dbff67f4b8af71fab0c7a86d0b60000000000000000000000000000000000000000000000056bc75e2d63100000",
        "nonce": "0x254",
        "chainId": "0x1"
      },
      "additionalContracts": [],
      "isFixedGasLimit": false
    },
    {
      "hash": "0x1ec836116a46020457fa9929c45411ec0489bd2bcd940ea8ee229716bd277577",
      "transactionType": "CALL",
      "contractName": null,
      "contractAddress": "0xf3b5b661b92b75c71fa5aba8fd95d7514a9cd605",
      "function": "approve(address,uint256)",
      "arguments": [
        "0x000000000022D473030F116dDEE9F6B43aC78BA3",
        "115792089237316195423570985008687907853269984665640564039457584007913129639935"
      ],
      "transaction": {
        "from": "0xcad1a7864a108dbff67f4b8af71fab0c7a86d0b6",
        "to": "0xf3b5b661b92b75c71fa5aba8fd95d7514a9cd605",
        "gas": "0x1109f",
        "value": "0x0",
        "input": "0x095ea7b3000000000000000000000000000000000022d473030f116ddee9f6b43ac78ba3ffffffffffffffffffffffffffffffffffffffffffffffffffffffffffffffff",
        "nonce": "0x255",
        "chainId": "0x1"
      },
      "additionalContracts": [],
      "isFixedGasLimit": false
    },
    {
      "hash": "0x9b8e92cf5e295c5fb32ac7e5f1d8383c65df77c81a0e7fa526103eabe4a0132f",
      "transactionType": "CALL",
      "contractName": null,
      "contractAddress": "0x000000000022d473030f116ddee9f6b43ac78ba3",
      "function": "approve(address,address,uint160,uint48)",
      "arguments": [
        "0xf3B5B661b92B75C71fA5Aba8Fd95D7514A9CD605",
        "0x5C6fb490BDFD3246EB0bB062c168DeCAF4bD9FDd",
        "1461501637330902918203684832716283019655932542975",
        "281474976710655"
      ],
      "transaction": {
        "from": "0xcad1a7864a108dbff67f4b8af71fab0c7a86d0b6",
        "to": "0x000000000022d473030f116ddee9f6b43ac78ba3",
        "gas": "0x1112d",
        "value": "0x0",
        "input": "0x87517c45000000000000000000000000f3b5b661b92b75c71fa5aba8fd95d7514a9cd6050000000000000000000000005c6fb490bdfd3246eb0bb062c168decaf4bd9fdd000000000000000000000000ffffffffffffffffffffffffffffffffffffffff0000000000000000000000000000000000000000000000000000ffffffffffff",
        "nonce": "0x256",
        "chainId": "0x1"
      },
      "additionalContracts": [],
      "isFixedGasLimit": false
    },
    {
      "hash": "0xe3f9497af65bb7cd51dc7f6a3a7bf7bde1971ac18ea6038e3c8dc564f29dec40",
      "transactionType": "CALL",
      "contractName": null,
      "contractAddress": "0x5c6fb490bdfd3246eb0bb062c168decaf4bd9fdd",
      "function": "swapSingleTokenExactIn(address,address,address,uint256,uint256,uint256,bool,bytes)",
      "arguments": [
        "0x642BB6860b4776CC10b26B8f361Fd139E7f0db04",
        "0xf3B5B661b92B75C71fA5Aba8Fd95D7514A9CD605",
        "0xa3931d71877C0E7a3148CB7Eb4463524FEc27fbD",
        "100000000000000000000",
        "85357178622843937128",
        "1780568111",
        "false",
        "0x"
      ],
      "transaction": {
        "from": "0xcad1a7864a108dbff67f4b8af71fab0c7a86d0b6",
        "to": "0x5c6fb490bdfd3246eb0bb062c168decaf4bd9fdd",
        "gas": "0x3c613",
        "value": "0x0",
        "input": "0x750283bc000000000000000000000000642bb6860b4776cc10b26b8f361fd139e7f0db04000000000000000000000000f3b5b661b92b75c71fa5aba8fd95d7514a9cd605000000000000000000000000a3931d71877c0e7a3148cb7eb4463524fec27fbd0000000000000000000000000000000000000000000000056bc75e2d63100000000000000000000000000000000000000000000000000004a0919db73c2de168000000000000000000000000000000000000000000000000000000006a21502f000000000000000000000000000000000000000000000000000000000000000000000000000000000000000000000000000000000000000000000000000001000000000000000000000000000000000000000000000000000000000000000000",
        "nonce": "0x257",
        "chainId": "0x1"
      },
      "additionalContracts": [],
      "isFixedGasLimit": false
    },
    {
      "hash": "0x4976c622e6a2759086824c664c56fec5a6eabc678919c536556984eef2b7e415",
      "transactionType": "CALL",
      "contractName": null,
      "contractAddress": "0xa3931d71877c0e7a3148cb7eb4463524fec27fbd",
      "function": "redeem(uint256,address,address)",
      "arguments": [
        "86219372346307007200",
        "0xCad1a7864a108DBFF67F4b8af71fAB0C7A86D0B6",
        "0xCad1a7864a108DBFF67F4b8af71fAB0C7A86D0B6"
      ],
      "transaction": {
        "from": "0xcad1a7864a108dbff67f4b8af71fab0c7a86d0b6",
        "to": "0xa3931d71877c0e7a3148cb7eb4463524fec27fbd",
        "gas": "0x2a64e",
        "value": "0x0",
        "input": "0xba087652000000000000000000000000000000000000000000000004ac88be56d2c452e0000000000000000000000000cad1a7864a108dbff67f4b8af71fab0c7a86d0b6000000000000000000000000cad1a7864a108dbff67f4b8af71fab0c7a86d0b6",
        "nonce": "0x258",
        "chainId": "0x1"
      },
      "additionalContracts": [],
      "isFixedGasLimit": false
    },
    {
      "hash": "0x1859b9e740e7743bb6df91395a1447725d772fe73c99f012b00b0305222df0a3",
      "transactionType": "CALL",
      "contractName": null,
      "contractAddress": "0xdc035d45d973e3ec169d2276ddab16f1e407384f",
      "function": "approve(address,uint256)",
      "arguments": [
        "0xA188EEC8F81263234dA3622A406892F3D630f98c",
        "94728075000000000000"
      ],
      "transaction": {
        "from": "0xcad1a7864a108dbff67f4b8af71fab0c7a86d0b6",
        "to": "0xdc035d45d973e3ec169d2276ddab16f1e407384f",
        "gas": "0x123ea",
        "value": "0x0",
        "input": "0x095ea7b3000000000000000000000000a188eec8f81263234da3622a406892f3d630f98c000000000000000000000000000000000000000000000005229dba52578fb000",
        "nonce": "0x259",
        "chainId": "0x1"
      },
      "additionalContracts": [],
      "isFixedGasLimit": false
    },
    {
      "hash": "0xd140bb4241f69b6b7bf48bafacee498b64f2436b7d7bc8aad687b8c5e42bdef1",
      "transactionType": "CALL",
      "contractName": null,
      "contractAddress": "0xa188eec8f81263234da3622a406892f3d630f98c",
      "function": "buyGem(address,uint256)",
      "arguments": [
        "0x6e9886AfDF07DD67dc70b8335E4e9DF14B445071",
        "94728075"
      ],
      "transaction": {
        "from": "0xcad1a7864a108dbff67f4b8af71fab0c7a86d0b6",
        "to": "0xa188eec8f81263234da3622a406892f3d630f98c",
        "gas": "0x42e76",
        "value": "0x0",
        "input": "0x8d7ef9bb0000000000000000000000006e9886afdf07dd67dc70b8335e4e9df14b4450710000000000000000000000000000000000000000000000000000000005a56f8b",
        "nonce": "0x25a",
        "chainId": "0x1"
      },
      "additionalContracts": [],
      "isFixedGasLimit": false
    },
    {
      "hash": "0xddf80a80c8d0feaad476616bc49aa3afa2c1fc4afb17351a27d7bb468960760a",
      "transactionType": "CALL",
      "contractName": null,
      "contractAddress": "0xdc035d45d973e3ec169d2276ddab16f1e407384f",
      "function": "approve(address,uint256)",
      "arguments": [
        "0xA188EEC8F81263234dA3622A406892F3D630f98c",
        "0"
      ],
      "transaction": {
        "from": "0xcad1a7864a108dbff67f4b8af71fab0c7a86d0b6",
        "to": "0xdc035d45d973e3ec169d2276ddab16f1e407384f",
        "gas": "0xa7ce",
        "value": "0x0",
        "input": "0x095ea7b3000000000000000000000000a188eec8f81263234da3622a406892f3d630f98c0000000000000000000000000000000000000000000000000000000000000000",
        "nonce": "0x25b",
        "chainId": "0x1"
      },
      "additionalContracts": [],
      "isFixedGasLimit": false
    }
  ],
  "receipts": [
    {
      "status": "0x1",
      "cumulativeGasUsed": "0x19cdad3",
      "logs": [
        {
          "address": "0xf3b5b661b92b75c71fa5aba8fd95d7514a9cd605",
          "topics": [
            "0xddf252ad1be2c89b69c2b068fc378daa952ba7f163c4a11628f55a4df523b3ef",
            "0x0000000000000000000000000000000000000000000000000000000000000000",
            "0x000000000000000000000000cad1a7864a108dbff67f4b8af71fab0c7a86d0b6"
          ],
          "data": "0x0000000000000000000000000000000000000000000000056bc75e2d63100000",
          "blockHash": "0x9a205578beca9265a6416ffa12d9e23f4826961111e46ee7c7c048ef41f862f9",
          "blockNumber": "0x1812ecf",
          "blockTimestamp": "0x6a214f4b",
          "transactionHash": "0x9031a20f19c692cc4926358550f1fb70afd2002fdf556fde9c4e06c8354e387d",
          "transactionIndex": "0x107",
          "logIndex": "0x2c4",
          "removed": false
        }
      ],
      "logsBloom": "0x00000000000000000020000008000000000000000000000000000000000000000000000000000000000000400000000000000000000000000000000000000000000000000000000000000008000000000000000000000000000000000000000008000000020000000000000000000800000000000000000000000010100000000000000000000000000000000000000000000000000000000000000000000000000000000000000000000000000000000000000000000000000000000000000000000002000000000000000000000000000000000000100000000000000020000000000000000000000000000000000000000000000000000000000000000000",
      "type": "0x2",
      "transactionHash": "0x9031a20f19c692cc4926358550f1fb70afd2002fdf556fde9c4e06c8354e387d",
      "transactionIndex": "0x107",
      "blockHash": "0x9a205578beca9265a6416ffa12d9e23f4826961111e46ee7c7c048ef41f862f9",
      "blockNumber": "0x1812ecf",
      "gasUsed": "0xa90f",
      "effectiveGasPrice": "0x15bad06d",
      "from": "0xcad1a7864a108dbff67f4b8af71fab0c7a86d0b6",
      "to": "0xf3b5b661b92b75c71fa5aba8fd95d7514a9cd605",
      "contractAddress": null
    },
    {
      "status": "0x1",
      "cumulativeGasUsed": "0x1e4411d",
      "logs": [
        {
          "address": "0xf3b5b661b92b75c71fa5aba8fd95d7514a9cd605",
          "topics": [
            "0x8c5be1e5ebec7d5bd14f71427d1e84f3dd0314c0f7b2291e5b200ac8c7c3b925",
            "0x000000000000000000000000cad1a7864a108dbff67f4b8af71fab0c7a86d0b6",
            "0x000000000000000000000000000000000022d473030f116ddee9f6b43ac78ba3"
          ],
          "data": "0xffffffffffffffffffffffffffffffffffffffffffffffffffffffffffffffff",
          "blockHash": "0xd967609cf7d1afd7cf2061464ddc18f3434c7c1d68733283012143a93ebcc362",
          "blockNumber": "0x1812ed2",
          "blockTimestamp": "0x6a214f6f",
          "transactionHash": "0x1ec836116a46020457fa9929c45411ec0489bd2bcd940ea8ee229716bd277577",
          "transactionIndex": "0x118",
          "logIndex": "0x32a",
          "removed": false
        }
      ],
      "logsBloom": "0x00000000000000000020000008000000000000000000000000000000000000000000000000000000000000400000000000000000800000000000000000200000000000000000000000004000000000000000000000000800000000000000000008000000000000000000000000000000000000000000000000000000100000000000000000000000000000000000000000000000000000000000000000000000020000000000000000000000000000000000000000000000000000000000000000000000000000000000000000000000000000000000100000000000000000000010000000000000000000000000000000000000000000000000000000000000",
      "type": "0x2",
      "transactionHash": "0x1ec836116a46020457fa9929c45411ec0489bd2bcd940ea8ee229716bd277577",
      "transactionIndex": "0x118",
      "blockHash": "0xd967609cf7d1afd7cf2061464ddc18f3434c7c1d68733283012143a93ebcc362",
      "blockNumber": "0x1812ed2",
      "gasUsed": "0xba69",
      "effectiveGasPrice": "0x14376b61",
      "from": "0xcad1a7864a108dbff67f4b8af71fab0c7a86d0b6",
      "to": "0xf3b5b661b92b75c71fa5aba8fd95d7514a9cd605",
      "contractAddress": null
    },
    {
      "status": "0x1",
      "cumulativeGasUsed": "0x2098a18",
      "logs": [
        {
          "address": "0x000000000022d473030f116ddee9f6b43ac78ba3",
          "topics": [
            "0xda9fa7c1b00402c17d0161b249b1ab8bbec047c5a52207b9c112deffd817036b",
            "0x000000000000000000000000cad1a7864a108dbff67f4b8af71fab0c7a86d0b6",
            "0x000000000000000000000000f3b5b661b92b75c71fa5aba8fd95d7514a9cd605",
            "0x0000000000000000000000005c6fb490bdfd3246eb0bb062c168decaf4bd9fdd"
          ],
          "data": "0x000000000000000000000000ffffffffffffffffffffffffffffffffffffffff0000000000000000000000000000000000000000000000000000ffffffffffff",
          "blockHash": "0xca242eb51d9dc6ef11372b2ea58f40913965558ac4cf190fa09776cac649e7b8",
          "blockNumber": "0x1812ed3",
          "blockTimestamp": "0x6a214f7b",
          "transactionHash": "0x9b8e92cf5e295c5fb32ac7e5f1d8383c65df77c81a0e7fa526103eabe4a0132f",
          "transactionIndex": "0xe8",
          "logIndex": "0x436",
          "removed": false
        }
      ],
      "logsBloom": "0x00010000000000000020000000000000000000000000000000000000000000000000000000000000000000400000000000000000000000000000000080080000000000000000000000000000000000000000000000000000008000000000000000000000000000000000000000040000000000000000000000000000000000000020000000000000000000000002000000000000000000000000000000000000000000000000000000000000000000000000000000000000000200080000000000000000000000000000000000000000000000000000100040000000000000008000000000000000000000000000000000000000000000000000000000000400",
      "type": "0x2",
      "transactionHash": "0x9b8e92cf5e295c5fb32ac7e5f1d8383c65df77c81a0e7fa526103eabe4a0132f",
      "transactionIndex": "0xe8",
      "blockHash": "0xca242eb51d9dc6ef11372b2ea58f40913965558ac4cf190fa09776cac649e7b8",
      "blockNumber": "0x1812ed3",
      "gasUsed": "0xbaca",
      "effectiveGasPrice": "0x14bd3ec2",
      "from": "0xcad1a7864a108dbff67f4b8af71fab0c7a86d0b6",
      "to": "0x000000000022d473030f116ddee9f6b43ac78ba3",
      "contractAddress": null
    },
    {
      "status": "0x1",
      "cumulativeGasUsed": "0x1b90789",
      "logs": [
        {
          "address": "0xba1333333333a1ba1108e8412f11850a5c319ba9",
          "topics": [
            "0x0874b2d545cb271cdbda4e093020c452328b24af12382ed62c4d00f5c26709db",
            "0x000000000000000000000000642bb6860b4776cc10b26b8f361fd139e7f0db04",
            "0x000000000000000000000000f3b5b661b92b75c71fa5aba8fd95d7514a9cd605",
            "0x000000000000000000000000a3931d71877c0e7a3148cb7eb4463524fec27fbd"
          ],
          "data": "0x0000000000000000000000000000000000000000000000056bc75e2d63100000000000000000000000000000000000000000000000000004ac88be56d2c452e0000000000000000000000000000000000000000000000000000aa87bee5380000000000000000000000000000000000000000000000000000429d069189e0000",
          "blockHash": "0x6d06cac8fa69097c7edaef2f2ed02dc1f1de6e07f51e2664efe677e87a1b2752",
          "blockNumber": "0x1812ed4",
          "blockTimestamp": "0x6a214f87",
          "transactionHash": "0xe3f9497af65bb7cd51dc7f6a3a7bf7bde1971ac18ea6038e3c8dc564f29dec40",
          "transactionIndex": "0xf4",
          "logIndex": "0x26c",
          "removed": false
        },
        {
          "address": "0xf3b5b661b92b75c71fa5aba8fd95d7514a9cd605",
          "topics": [
            "0xddf252ad1be2c89b69c2b068fc378daa952ba7f163c4a11628f55a4df523b3ef",
            "0x000000000000000000000000cad1a7864a108dbff67f4b8af71fab0c7a86d0b6",
            "0x000000000000000000000000ba1333333333a1ba1108e8412f11850a5c319ba9"
          ],
          "data": "0x0000000000000000000000000000000000000000000000056bc75e2d63100000",
          "blockHash": "0x6d06cac8fa69097c7edaef2f2ed02dc1f1de6e07f51e2664efe677e87a1b2752",
          "blockNumber": "0x1812ed4",
          "blockTimestamp": "0x6a214f87",
          "transactionHash": "0xe3f9497af65bb7cd51dc7f6a3a7bf7bde1971ac18ea6038e3c8dc564f29dec40",
          "transactionIndex": "0xf4",
          "logIndex": "0x26d",
          "removed": false
        },
        {
          "address": "0xa3931d71877c0e7a3148cb7eb4463524fec27fbd",
          "topics": [
            "0xddf252ad1be2c89b69c2b068fc378daa952ba7f163c4a11628f55a4df523b3ef",
            "0x000000000000000000000000ba1333333333a1ba1108e8412f11850a5c319ba9",
            "0x000000000000000000000000cad1a7864a108dbff67f4b8af71fab0c7a86d0b6"
          ],
          "data": "0x000000000000000000000000000000000000000000000004ac88be56d2c452e0",
          "blockHash": "0x6d06cac8fa69097c7edaef2f2ed02dc1f1de6e07f51e2664efe677e87a1b2752",
          "blockNumber": "0x1812ed4",
          "blockTimestamp": "0x6a214f87",
          "transactionHash": "0xe3f9497af65bb7cd51dc7f6a3a7bf7bde1971ac18ea6038e3c8dc564f29dec40",
          "transactionIndex": "0xf4",
          "logIndex": "0x26e",
          "removed": false
        }
      ],
      "logsBloom": "0x00000000000000000020000008000000000080000000000000000000402000000000000000000000000000408000000000000000000000000000000080000000002000000000000000000008000000000000004000008000000000000000000008000000000000000000000000040000000001000000000000010014100000000000000000000000000000000002000004000000000000000010000000000000000000010080000000000000800000000000000000000000000000000000000200000002000000000000000000000000000000010000100000000000000000000000000000000000002000000000000000000000000000000000000000000000",
      "type": "0x2",
      "transactionHash": "0xe3f9497af65bb7cd51dc7f6a3a7bf7bde1971ac18ea6038e3c8dc564f29dec40",
      "transactionIndex": "0xf4",
      "blockHash": "0x6d06cac8fa69097c7edaef2f2ed02dc1f1de6e07f51e2664efe677e87a1b2752",
      "blockNumber": "0x1812ed4",
      "gasUsed": "0x2bb6d",
      "effectiveGasPrice": "0x1560fe49",
      "from": "0xcad1a7864a108dbff67f4b8af71fab0c7a86d0b6",
      "to": "0x5c6fb490bdfd3246eb0bb062c168decaf4bd9fdd",
      "contractAddress": null
    },
    {
      "status": "0x1",
      "cumulativeGasUsed": "0x2501a24",
      "logs": [
        {
          "address": "0x35d1b3f3d7966a1dfe207aa4514c12a259a0492b",
          "topics": [
            "0xf24e23eb00000000000000000000000000000000000000000000000000000000",
            "0x000000000000000000000000a950524441892a31ebddf91d3ceefa04bf454466",
            "0x000000000000000000000000a3931d71877c0e7a3148cb7eb4463524fec27fbd",
            "0x0000000000000000000000002b8975d17c0182ec44d70eda44fa064f00000000"
          ],
          "data": "0x000000000000000000000000000000000000000000000000000000000000002000000000000000000000000000000000000000000000000000000000000000e0f24e23eb000000000000000000000000a950524441892a31ebddf91d3ceefa04bf454466000000000000000000000000a3931d71877c0e7a3148cb7eb4463524fec27fbd0000000000000000000000002b8975d17c0182ec44d70eda44fa064f0000000000000000000000000000000000000000000000000000000000000000000000000000000000000000000000000000000000000000000000000000000000000000000000000000000000000000000000000000000000000000000000000000000000000000000000000000000000000000000000000000000000000000",
          "blockHash": "0x0033e1f3b1f5b49bd4fa2c784764b137b062dfe97bc513a40c4ea17d4d031d47",
          "blockNumber": "0x1812ed5",
          "blockTimestamp": "0x6a214f93",
          "transactionHash": "0x4976c622e6a2759086824c664c56fec5a6eabc678919c536556984eef2b7e415",
          "transactionIndex": "0xcd",
          "logIndex": "0x3cc",
          "removed": false
        },
        {
          "address": "0x35d1b3f3d7966a1dfe207aa4514c12a259a0492b",
          "topics": [
            "0xbb35783b00000000000000000000000000000000000000000000000000000000",
            "0x000000000000000000000000a3931d71877c0e7a3148cb7eb4463524fec27fbd",
            "0x0000000000000000000000003c0f895007ca717aa01c8693e59df1e8c3777feb",
            "0x0000000000000000000000002b8975d17c0182ec44d70eda44fa064f00000000"
          ],
          "data": "0x000000000000000000000000000000000000000000000000000000000000002000000000000000000000000000000000000000000000000000000000000000e0bb35783b000000000000000000000000a3931d71877c0e7a3148cb7eb4463524fec27fbd0000000000000000000000003c0f895007ca717aa01c8693e59df1e8c3777feb0000000000000000000000002b8975d17c0182ec44d70eda44fa064f0000000000000000000000000000000000000000000000000000000000000000000000000000000000000000000000000000000000000000000000000000000000000000000000000000000000000000000000000000000000000000000000000000000000000000000000000000000000000000000000000000000000000000",
          "blockHash": "0x0033e1f3b1f5b49bd4fa2c784764b137b062dfe97bc513a40c4ea17d4d031d47",
          "blockNumber": "0x1812ed5",
          "blockTimestamp": "0x6a214f93",
          "transactionHash": "0x4976c622e6a2759086824c664c56fec5a6eabc678919c536556984eef2b7e415",
          "transactionIndex": "0xcd",
          "logIndex": "0x3cd",
          "removed": false
        },
        {
          "address": "0xdc035d45d973e3ec169d2276ddab16f1e407384f",
          "topics": [
            "0xddf252ad1be2c89b69c2b068fc378daa952ba7f163c4a11628f55a4df523b3ef",
            "0x0000000000000000000000000000000000000000000000000000000000000000",
            "0x000000000000000000000000a3931d71877c0e7a3148cb7eb4463524fec27fbd"
          ],
          "data": "0x00000000000000000000000000000000000000000000000d795a558f5bb3fb60",
          "blockHash": "0x0033e1f3b1f5b49bd4fa2c784764b137b062dfe97bc513a40c4ea17d4d031d47",
          "blockNumber": "0x1812ed5",
          "blockTimestamp": "0x6a214f93",
          "transactionHash": "0x4976c622e6a2759086824c664c56fec5a6eabc678919c536556984eef2b7e415",
          "transactionIndex": "0xcd",
          "logIndex": "0x3ce",
          "removed": false
        },
        {
          "address": "0x3c0f895007ca717aa01c8693e59df1e8c3777feb",
          "topics": [
            "0xbc2a67d422c268da6fe45f3e7d194e1d98906d221f1cfad62a5c80f2cd209f4c",
            "0x000000000000000000000000a3931d71877c0e7a3148cb7eb4463524fec27fbd",
            "0x000000000000000000000000a3931d71877c0e7a3148cb7eb4463524fec27fbd"
          ],
          "data": "0x00000000000000000000000000000000000000000000000d795a558f5bb3fb60",
          "blockHash": "0x0033e1f3b1f5b49bd4fa2c784764b137b062dfe97bc513a40c4ea17d4d031d47",
          "blockNumber": "0x1812ed5",
          "blockTimestamp": "0x6a214f93",
          "transactionHash": "0x4976c622e6a2759086824c664c56fec5a6eabc678919c536556984eef2b7e415",
          "transactionIndex": "0xcd",
          "logIndex": "0x3cf",
          "removed": false
        },
        {
          "address": "0xa3931d71877c0e7a3148cb7eb4463524fec27fbd",
          "topics": [
            "0xad1e8a53178522eb68a9d94d862bf30c841f709d2115f743eb6b34528751c79f"
          ],
          "data": "0x0000000000000000000000000000000000000000038ccffdc2566d2a1b2ff0da00000000000000000000000000000000000000000000000d795a558f5bb3fb60",
          "blockHash": "0x0033e1f3b1f5b49bd4fa2c784764b137b062dfe97bc513a40c4ea17d4d031d47",
          "blockNumber": "0x1812ed5",
          "blockTimestamp": "0x6a214f93",
          "transactionHash": "0x4976c622e6a2759086824c664c56fec5a6eabc678919c536556984eef2b7e415",
          "transactionIndex": "0xcd",
          "logIndex": "0x3d0",
          "removed": false
        },
        {
          "address": "0xdc035d45d973e3ec169d2276ddab16f1e407384f",
          "topics": [
            "0xddf252ad1be2c89b69c2b068fc378daa952ba7f163c4a11628f55a4df523b3ef",
            "0x000000000000000000000000a3931d71877c0e7a3148cb7eb4463524fec27fbd",
            "0x000000000000000000000000cad1a7864a108dbff67f4b8af71fab0c7a86d0b6"
          ],
          "data": "0x000000000000000000000000000000000000000000000005229dc8ebbe292e43",
          "blockHash": "0x0033e1f3b1f5b49bd4fa2c784764b137b062dfe97bc513a40c4ea17d4d031d47",
          "blockNumber": "0x1812ed5",
          "blockTimestamp": "0x6a214f93",
          "transactionHash": "0x4976c622e6a2759086824c664c56fec5a6eabc678919c536556984eef2b7e415",
          "transactionIndex": "0xcd",
          "logIndex": "0x3d1",
          "removed": false
        },
        {
          "address": "0xa3931d71877c0e7a3148cb7eb4463524fec27fbd",
          "topics": [
            "0xddf252ad1be2c89b69c2b068fc378daa952ba7f163c4a11628f55a4df523b3ef",
            "0x000000000000000000000000cad1a7864a108dbff67f4b8af71fab0c7a86d0b6",
            "0x0000000000000000000000000000000000000000000000000000000000000000"
          ],
          "data": "0x000000000000000000000000000000000000000000000004ac88be56d2c452e0",
          "blockHash": "0x0033e1f3b1f5b49bd4fa2c784764b137b062dfe97bc513a40c4ea17d4d031d47",
          "blockNumber": "0x1812ed5",
          "blockTimestamp": "0x6a214f93",
          "transactionHash": "0x4976c622e6a2759086824c664c56fec5a6eabc678919c536556984eef2b7e415",
          "transactionIndex": "0xcd",
          "logIndex": "0x3d2",
          "removed": false
        },
        {
          "address": "0xa3931d71877c0e7a3148cb7eb4463524fec27fbd",
          "topics": [
            "0xfbde797d201c681b91056529119e0b02407c7bb96a4a2c75c01fc9667232c8db",
            "0x000000000000000000000000cad1a7864a108dbff67f4b8af71fab0c7a86d0b6",
            "0x000000000000000000000000cad1a7864a108dbff67f4b8af71fab0c7a86d0b6",
            "0x000000000000000000000000cad1a7864a108dbff67f4b8af71fab0c7a86d0b6"
          ],
          "data": "0x000000000000000000000000000000000000000000000005229dc8ebbe292e43000000000000000000000000000000000000000000000004ac88be56d2c452e0",
          "blockHash": "0x0033e1f3b1f5b49bd4fa2c784764b137b062dfe97bc513a40c4ea17d4d031d47",
          "blockNumber": "0x1812ed5",
          "blockTimestamp": "0x6a214f93",
          "transactionHash": "0x4976c622e6a2759086824c664c56fec5a6eabc678919c536556984eef2b7e415",
          "transactionIndex": "0xcd",
          "logIndex": "0x3d3",
          "removed": false
        }
      ],
      "logsBloom": "0x00000000000000400020000000000000000000000000000000000000400008000000100000000000000000400000010100100000000000000000000001000000000000000000000000000008000000000000004400028000004040000040000040000040020200000000000000000800000000000000000000000012000000000000000200000000000000000000040000000000000000000010000000000000000000010600000000000000000000020000000080010000000000000000000200000002001000000000000002000000800800000000100000200000002020000000000000000000802000000000000000000000000010000000000000000000",
      "type": "0x2",
      "transactionHash": "0x4976c622e6a2759086824c664c56fec5a6eabc678919c536556984eef2b7e415",
      "transactionIndex": "0xcd",
      "blockHash": "0x0033e1f3b1f5b49bd4fa2c784764b137b062dfe97bc513a40c4ea17d4d031d47",
      "blockNumber": "0x1812ed5",
      "gasUsed": "0x1eb15",
      "effectiveGasPrice": "0x15bf0343",
      "from": "0xcad1a7864a108dbff67f4b8af71fab0c7a86d0b6",
      "to": "0xa3931d71877c0e7a3148cb7eb4463524fec27fbd",
      "contractAddress": null
    },
    {
      "status": "0x1",
      "cumulativeGasUsed": "0x1ba7332",
      "logs": [
        {
          "address": "0xdc035d45d973e3ec169d2276ddab16f1e407384f",
          "topics": [
            "0x8c5be1e5ebec7d5bd14f71427d1e84f3dd0314c0f7b2291e5b200ac8c7c3b925",
            "0x000000000000000000000000cad1a7864a108dbff67f4b8af71fab0c7a86d0b6",
            "0x000000000000000000000000a188eec8f81263234da3622a406892f3d630f98c"
          ],
          "data": "0x000000000000000000000000000000000000000000000005229dba52578fb000",
          "blockHash": "0x403fa9310862ae060102936af10c31e58d265a2318ca3da512232511664650bb",
          "blockNumber": "0x1812ed6",
          "blockTimestamp": "0x6a214f9f",
          "transactionHash": "0x1859b9e740e7743bb6df91395a1447725d772fe73c99f012b00b0305222df0a3",
          "transactionIndex": "0xe0",
          "logIndex": "0x49b",
          "removed": false
        }
      ],
      "logsBloom": "0x00000000000000000020000000000000000000000000000000000000000000000000000000000000000000400000000100000000000000000000000000200000000000000000000000000000000000000000000000000000000000000000000000000000000600000000000000000000000000000000000000000000000000000000000000000000000000000000000000000000000000000000000010000000020000000000000000000000000000000000000100000000000000000000000000000000000000000000000000000000000000000000100000000000000000000010000000000000800000000000000000000000000000000000000000000000",
      "type": "0x2",
      "transactionHash": "0x1859b9e740e7743bb6df91395a1447725d772fe73c99f012b00b0305222df0a3",
      "transactionIndex": "0xe0",
      "blockHash": "0x403fa9310862ae060102936af10c31e58d265a2318ca3da512232511664650bb",
      "blockNumber": "0x1812ed6",
      "gasUsed": "0xc79a",
      "effectiveGasPrice": "0x16f4dae5",
      "from": "0xcad1a7864a108dbff67f4b8af71fab0c7a86d0b6",
      "to": "0xdc035d45d973e3ec169d2276ddab16f1e407384f",
      "contractAddress": null
    },
    {
      "status": "0x1",
      "cumulativeGasUsed": "0x2f0a95f",
      "logs": [
        {
          "address": "0xdc035d45d973e3ec169d2276ddab16f1e407384f",
          "topics": [
            "0xddf252ad1be2c89b69c2b068fc378daa952ba7f163c4a11628f55a4df523b3ef",
            "0x000000000000000000000000cad1a7864a108dbff67f4b8af71fab0c7a86d0b6",
            "0x000000000000000000000000a188eec8f81263234da3622a406892f3d630f98c"
          ],
          "data": "0x000000000000000000000000000000000000000000000005229dba52578fb000",
          "blockHash": "0xebe996d7e352eb7442cb67cfe916f647d3cf6bb3c379d2768b56124738fba81e",
          "blockNumber": "0x1812edd",
          "blockTimestamp": "0x6a214ff3",
          "transactionHash": "0xd140bb4241f69b6b7bf48bafacee498b64f2436b7d7bc8aad687b8c5e42bdef1",
          "transactionIndex": "0x174",
          "logIndex": "0x586",
          "removed": false
        },
        {
          "address": "0x35d1b3f3d7966a1dfe207aa4514c12a259a0492b",
          "topics": [
            "0xbb35783b00000000000000000000000000000000000000000000000000000000",
            "0x0000000000000000000000003c0f895007ca717aa01c8693e59df1e8c3777feb",
            "0x000000000000000000000000a188eec8f81263234da3622a406892f3d630f98c",
            "0x0000000000000000000000001097c0f89121fd9e10166afdfd07778000000000"
          ],
          "data": "0x000000000000000000000000000000000000000000000000000000000000002000000000000000000000000000000000000000000000000000000000000000e0bb35783b0000000000000000000000003c0f895007ca717aa01c8693e59df1e8c3777feb000000000000000000000000a188eec8f81263234da3622a406892f3d630f98c0000000000000000000000001097c0f89121fd9e10166afdfd0777800000000000000000000000000000000000000000000000000000000000000000000000000000000000000000000000000000000000000000000000000000000000000000000000000000000000000000000000000000000000000000000000000000000000000000000000000000000000000000000000000000000000000000",
          "blockHash": "0xebe996d7e352eb7442cb67cfe916f647d3cf6bb3c379d2768b56124738fba81e",
          "blockNumber": "0x1812edd",
          "blockTimestamp": "0x6a214ff3",
          "transactionHash": "0xd140bb4241f69b6b7bf48bafacee498b64f2436b7d7bc8aad687b8c5e42bdef1",
          "transactionIndex": "0x174",
          "logIndex": "0x587",
          "removed": false
        },
        {
          "address": "0xdc035d45d973e3ec169d2276ddab16f1e407384f",
          "topics": [
            "0xddf252ad1be2c89b69c2b068fc378daa952ba7f163c4a11628f55a4df523b3ef",
            "0x000000000000000000000000a188eec8f81263234da3622a406892f3d630f98c",
            "0x0000000000000000000000000000000000000000000000000000000000000000"
          ],
          "data": "0x000000000000000000000000000000000000000000000005229dba52578fb000",
          "blockHash": "0xebe996d7e352eb7442cb67cfe916f647d3cf6bb3c379d2768b56124738fba81e",
          "blockNumber": "0x1812edd",
          "blockTimestamp": "0x6a214ff3",
          "transactionHash": "0xd140bb4241f69b6b7bf48bafacee498b64f2436b7d7bc8aad687b8c5e42bdef1",
          "transactionIndex": "0x174",
          "logIndex": "0x588",
          "removed": false
        },
        {
          "address": "0x3c0f895007ca717aa01c8693e59df1e8c3777feb",
          "topics": [
            "0x0e64978d073561c3dfd4d4e3e4dce066cde2ab246a44f990fabb0a21a4a3bd95",
            "0x000000000000000000000000a188eec8f81263234da3622a406892f3d630f98c",
            "0x000000000000000000000000a188eec8f81263234da3622a406892f3d630f98c"
          ],
          "data": "0x000000000000000000000000000000000000000000000005229dba52578fb000",
          "blockHash": "0xebe996d7e352eb7442cb67cfe916f647d3cf6bb3c379d2768b56124738fba81e",
          "blockNumber": "0x1812edd",
          "blockTimestamp": "0x6a214ff3",
          "transactionHash": "0xd140bb4241f69b6b7bf48bafacee498b64f2436b7d7bc8aad687b8c5e42bdef1",
          "transactionIndex": "0x174",
          "logIndex": "0x589",
          "removed": false
        },
        {
          "address": "0x35d1b3f3d7966a1dfe207aa4514c12a259a0492b",
          "topics": [
            "0xbb35783b00000000000000000000000000000000000000000000000000000000",
            "0x000000000000000000000000a188eec8f81263234da3622a406892f3d630f98c",
            "0x0000000000000000000000009759a6ac90977b93b58547b4a71c78317f391a28",
            "0x0000000000000000000000001097c0f89121fd9e10166afdfd07778000000000"
          ],
          "data": "0x000000000000000000000000000000000000000000000000000000000000002000000000000000000000000000000000000000000000000000000000000000e0bb35783b000000000000000000000000a188eec8f81263234da3622a406892f3d630f98c0000000000000000000000009759a6ac90977b93b58547b4a71c78317f391a280000000000000000000000001097c0f89121fd9e10166afdfd0777800000000000000000000000000000000000000000000000000000000000000000000000000000000000000000000000000000000000000000000000000000000000000000000000000000000000000000000000000000000000000000000000000000000000000000000000000000000000000000000000000000000000000000",
          "blockHash": "0xebe996d7e352eb7442cb67cfe916f647d3cf6bb3c379d2768b56124738fba81e",
          "blockNumber": "0x1812edd",
          "blockTimestamp": "0x6a214ff3",
          "transactionHash": "0xd140bb4241f69b6b7bf48bafacee498b64f2436b7d7bc8aad687b8c5e42bdef1",
          "transactionIndex": "0x174",
          "logIndex": "0x58a",
          "removed": false
        },
        {
          "address": "0x6b175474e89094c44da98b954eedeac495271d0f",
          "topics": [
            "0xddf252ad1be2c89b69c2b068fc378daa952ba7f163c4a11628f55a4df523b3ef",
            "0x0000000000000000000000000000000000000000000000000000000000000000",
            "0x000000000000000000000000a188eec8f81263234da3622a406892f3d630f98c"
          ],
          "data": "0x000000000000000000000000000000000000000000000005229dba52578fb000",
          "blockHash": "0xebe996d7e352eb7442cb67cfe916f647d3cf6bb3c379d2768b56124738fba81e",
          "blockNumber": "0x1812edd",
          "blockTimestamp": "0x6a214ff3",
          "transactionHash": "0xd140bb4241f69b6b7bf48bafacee498b64f2436b7d7bc8aad687b8c5e42bdef1",
          "transactionIndex": "0x174",
          "logIndex": "0x58b",
          "removed": false
        },
        {
          "address": "0x9759a6ac90977b93b58547b4a71c78317f391a28",
          "topics": [
            "0xef693bed00000000000000000000000000000000000000000000000000000000",
            "0x000000000000000000000000a188eec8f81263234da3622a406892f3d630f98c",
            "0x000000000000000000000000a188eec8f81263234da3622a406892f3d630f98c",
            "0x000000000000000000000000000000000000000000000005229dba52578fb000"
          ],
          "data": "0x000000000000000000000000000000000000000000000000000000000000002000000000000000000000000000000000000000000000000000000000000000e0ef693bed000000000000000000000000a188eec8f81263234da3622a406892f3d630f98c000000000000000000000000000000000000000000000005229dba52578fb000000000000000000000000000000000000000000000000000000000000000000000000000000000000000000000000000000000000000000000000000000000000000000000000000000000000000000000000000000000000000000000000000000000000000000000000000000000000000000000000000000000000000000000000000000000000000000000000000000000000000000000000000",
          "blockHash": "0xebe996d7e352eb7442cb67cfe916f647d3cf6bb3c379d2768b56124738fba81e",
          "blockNumber": "0x1812edd",
          "blockTimestamp": "0x6a214ff3",
          "transactionHash": "0xd140bb4241f69b6b7bf48bafacee498b64f2436b7d7bc8aad687b8c5e42bdef1",
          "transactionIndex": "0x174",
          "logIndex": "0x58c",
          "removed": false
        },
        {
          "address": "0x6b175474e89094c44da98b954eedeac495271d0f",
          "topics": [
            "0xddf252ad1be2c89b69c2b068fc378daa952ba7f163c4a11628f55a4df523b3ef",
            "0x000000000000000000000000a188eec8f81263234da3622a406892f3d630f98c",
            "0x000000000000000000000000f6e72db5454dd049d0788e411b06cfaf16853042"
          ],
          "data": "0x000000000000000000000000000000000000000000000005229dba52578fb000",
          "blockHash": "0xebe996d7e352eb7442cb67cfe916f647d3cf6bb3c379d2768b56124738fba81e",
          "blockNumber": "0x1812edd",
          "blockTimestamp": "0x6a214ff3",
          "transactionHash": "0xd140bb4241f69b6b7bf48bafacee498b64f2436b7d7bc8aad687b8c5e42bdef1",
          "transactionIndex": "0x174",
          "logIndex": "0x58d",
          "removed": false
        },
        {
          "address": "0xa0b86991c6218b36c1d19d4a2e9eb0ce3606eb48",
          "topics": [
            "0xddf252ad1be2c89b69c2b068fc378daa952ba7f163c4a11628f55a4df523b3ef",
            "0x00000000000000000000000037305b1cd40574e4c5ce33f8e8306be057fd7341",
            "0x0000000000000000000000006e9886afdf07dd67dc70b8335e4e9df14b445071"
          ],
          "data": "0x0000000000000000000000000000000000000000000000000000000005a56f8b",
          "blockHash": "0xebe996d7e352eb7442cb67cfe916f647d3cf6bb3c379d2768b56124738fba81e",
          "blockNumber": "0x1812edd",
          "blockTimestamp": "0x6a214ff3",
          "transactionHash": "0xd140bb4241f69b6b7bf48bafacee498b64f2436b7d7bc8aad687b8c5e42bdef1",
          "transactionIndex": "0x174",
          "logIndex": "0x58e",
          "removed": false
        },
        {
          "address": "0xf6e72db5454dd049d0788e411b06cfaf16853042",
          "topics": [
            "0x085d06ecf4c34b237767a31c0888e121d89546a77f186f1987c6b8715e1a8caa",
            "0x0000000000000000000000006e9886afdf07dd67dc70b8335e4e9df14b445071"
          ],
          "data": "0x0000000000000000000000000000000000000000000000000000000005a56f8b0000000000000000000000000000000000000000000000000000000000000000",
          "blockHash": "0xebe996d7e352eb7442cb67cfe916f647d3cf6bb3c379d2768b56124738fba81e",
          "blockNumber": "0x1812edd",
          "blockTimestamp": "0x6a214ff3",
          "transactionHash": "0xd140bb4241f69b6b7bf48bafacee498b64f2436b7d7bc8aad687b8c5e42bdef1",
          "transactionIndex": "0x174",
          "logIndex": "0x58f",
          "removed": false
        }
      ],
      "logsBloom": "0x00000000000000000030004000000000000000000000002000000000000000000000000440000000000001400000010100100000000400000000008000000000000000001000000008000008000080010000000002000240004050200000000010000004020600000000020000000800000000000000000000000012000000000000000000000000000000200000008000000000010000000000000010000000000000000200200000000000000000002000000180010000000000000000000000000002000000600000040002000028000802080000100000000000002020400000000000000000802000000000000000000000800000000010810000000000",
      "type": "0x2",
      "transactionHash": "0xd140bb4241f69b6b7bf48bafacee498b64f2436b7d7bc8aad687b8c5e42bdef1",
      "transactionIndex": "0x174",
      "blockHash": "0xebe996d7e352eb7442cb67cfe916f647d3cf6bb3c379d2768b56124738fba81e",
      "blockNumber": "0x1812edd",
      "gasUsed": "0x2dbf1",
      "effectiveGasPrice": "0x13c8d35c",
      "from": "0xcad1a7864a108dbff67f4b8af71fab0c7a86d0b6",
      "to": "0xa188eec8f81263234da3622a406892f3d630f98c",
      "contractAddress": null
    },
    {
      "status": "0x1",
      "cumulativeGasUsed": "0x1601a15",
      "logs": [
        {
          "address": "0xdc035d45d973e3ec169d2276ddab16f1e407384f",
          "topics": [
            "0x8c5be1e5ebec7d5bd14f71427d1e84f3dd0314c0f7b2291e5b200ac8c7c3b925",
            "0x000000000000000000000000cad1a7864a108dbff67f4b8af71fab0c7a86d0b6",
            "0x000000000000000000000000a188eec8f81263234da3622a406892f3d630f98c"
          ],
          "data": "0x0000000000000000000000000000000000000000000000000000000000000000",
          "blockHash": "0x1732f0dbec3a6f9079e42d2d7841d2629456e65e2e0b9023232f4b66c1ba46d5",
          "blockNumber": "0x1812ede",
          "blockTimestamp": "0x6a214fff",
          "transactionHash": "0xddf80a80c8d0feaad476616bc49aa3afa2c1fc4afb17351a27d7bb468960760a",
          "transactionIndex": "0xc9",
          "logIndex": "0x207",
          "removed": false
        }
      ],
      "logsBloom": "0x00000000000000000020000000000000000000000000000000000000000000000000000000000000000000400000000100000000000000000000000000200000000000000000000000000000000000000000000000000000000000000000000000000000000600000000000000000000000000000000000000000000000000000000000000000000000000000000000000000000000000000000000010000000020000000000000000000000000000000000000100000000000000000000000000000000000000000000000000000000000000000000100000000000000000000010000000000000800000000000000000000000000000000000000000000000",
      "type": "0x2",
      "transactionHash": "0xddf80a80c8d0feaad476616bc49aa3afa2c1fc4afb17351a27d7bb468960760a",
      "transactionIndex": "0xc9",
      "blockHash": "0x1732f0dbec3a6f9079e42d2d7841d2629456e65e2e0b9023232f4b66c1ba46d5",
      "blockNumber": "0x1812ede",
      "gasUsed": "0x797e",
      "effectiveGasPrice": "0x162c8d34",
      "from": "0xcad1a7864a108dbff67f4b8af71fab0c7a86d0b6",
      "to": "0xdc035d45d973e3ec169d2276ddab16f1e407384f",
      "contractAddress": null
    }
  ],
  "libraries": [],
  "pending": [],
  "returns": {},
  "timestamp": 1780568065258,
  "chain": 1,
  "commit": "a330664"
}