{
  "transactions": [
    {
      "hash": null,
      "transactionType": "CALL",
      "contractName": null,
      "contractAddress": "0xfc629bc5f6339f77635f4f656fbb114a31f7bcb3",
      "function": "setPauser(address)",
      "arguments": [
        "0xCad1a7864a108DBFF67F4b8af71fAB0C7A86D0B6"
      ],
      "transaction": {
        "from": "0xcad1a7864a108dbff67f4b8af71fab0c7a86d0b6",
        "to": "0xfc629bc5f6339f77635f4f656fbb114a31f7bcb3",
        "gas": "0xa441",
        "value": "0x0",
        "input": "0x2d88af4a000000000000000000000000cad1a7864a108dbff67f4b8af71fab0c7a86d0b6",
        "nonce": "0x13f",
        "chainId": "0x1"
      },
      "additionalContracts": [],
      "isFixedGasLimit": false
    },
    {
      "hash": null,
      "transactionType": "CALL",
      "contractName": null,
      "contractAddress": "0xfc629bc5f6339f77635f4f656fbb114a31f7bcb3",
      "function": "unpause()",
      "arguments": [],
      "transaction": {
        "from": "0xcad1a7864a108dbff67f4b8af71fab0c7a86d0b6",
        "to": "0xfc629bc5f6339f77635f4f656fbb114a31f7bcb3",
        "gas": "0x9d00",
        "value": "0x0",
        "input": "0x3f4ba83a",
        "nonce": "0x140",
        "chainId": "0x1"
      },
      "additionalContracts": [],
      "isFixedGasLimit": false
    },
    {
      "hash": null,
      "transactionType": "CALL",
      "contractName": null,
      "contractAddress": "0xfc629bc5f6339f77635f4f656fbb114a31f7bcb3",
      "function": "setPauser(address)",
      "arguments": [
        "0x7c5A8EeF1d836450C019FB036453ac6eC97885a3"
      ],
      "transaction": {
        "from": "0xcad1a7864a108dbff67f4b8af71fab0c7a86d0b6",
        "to": "0xfc629bc5f6339f77635f4f656fbb114a31f7bcb3",
        "gas": "0xa441",
        "value": "0x0",
        "input": "0x2d88af4a0000000000000000000000007c5a8eef1d836450c019fb036453ac6ec97885a3",
        "nonce": "0x141",
        "chainId": "0x1"
      },
      "additionalContracts": [],
      "isFixedGasLimit": false
    }
  ],
  "receipts": [],
  "libraries": [],
  "pending": [],
  "returns": {},
  "timestamp": 1775696682098,
  "chain": 1,
  "commit": "50313b0"
}