{
  "transactions": [
    {
      "hash": "0xbe4466e7d2f1ecec2d8033624b11e570d3226920d659da2c3641db961e66be22",
      "transactionType": "CREATE",
      "contractName": "StableYieldAccumulator",
      "contractAddress": "0x3c690ec3b2524104de269bf0f9baa7f045ef8270",
      "function": null,
      "arguments": null,
      "transaction": {
        "from": "0xcad1a7864a108dbff67f4b8af71fab0c7a86d0b6",
        "value": "0x0",
        "input": "0x6080806040523460955733156082575f8054336001600160a01b0319821681178355916001600160a01b03909116907f8be0079c531659141344cd1fd0a4f28419497f9722a3daafe3b4186f6b6457e09080a360017f9b779b17422d0df92223018b32b4d1fa46e071723d6817e2486d003becc55f0055612832908161009a8239f35b631e4fbdf760e01b5f525f60045260245ffd5b5f80fdfe60806040526004361015610011575f80fd5b5f5f3560e01c80630316bd24146115795780630ccb091d146115365780631b69dc5f146114de5780632d88af4a1461145d5780632fbe6839146113dc5780633a8107cf146111b85780633b3bff0f146111315780633f4ba83a1461100f57806341103d4214610f25578063454ee0ca14610d945780634c74183c146103225780635c975abb14610d6f57806364c3397714610d4b57806364f5005714610d11578063715018a614610ca05780637aec978d14610c125780637bd1f33514610b915780637c41ad2c14610b075780637c69febd14610a7f5780638456cb59146109665780638aee8127146109095780638da5cb5b146108e35780639008a642146108bc5780639fd0506d14610895578063a1164e7a1461086e578063a93e2fd3146107ba578063a9b639aa14610775578063b9d3a4381461074e578063ba854ee614610521578063bf3506c1146104f3578063cb67e3b114610463578063cf82f16914610426578063db3692f114610408578063dde41c7014610340578063e6c0e6d514610322578063f2fde38b1461026c578063f7c618c1146102455763fe3ffbac146101bc575f80fd5b34610242576020600319360112610242576004356101d86124fd565b6064811161021a5760407fc4df7cf7130f9356fe3a29a136c893959b0cdf945bc850d1829b45df203e3ee691600854908060085582519182526020820152a180f35b6004827f3a74cdc7000000000000000000000000000000000000000000000000000000008152fd5b80fd5b503461024257806003193601126102425760206001600160a01b0360025416604051908152f35b5034610242576020600319360112610242576001600160a01b0361028e611e7f565b6102966124fd565b1680156102f6576001600160a01b038254827fffffffffffffffffffffffff00000000000000000000000000000000000000008216178455167f8be0079c531659141344cd1fd0a4f28419497f9722a3daafe3b4186f6b6457e08380a380f35b6024827f1e4fbdf700000000000000000000000000000000000000000000000000000000815280600452fd5b50346102425780600319360112610242576020600554604051908152f35b503461024257806003193601126102425760405180602060035491828152018091600385527fc2575a0e9e593c00f959f8c92f12db2869c3395a3b0502d05e2516446f71f85b90855b8181106103e9575050508261039f910383611f02565b604051928392602084019060208552518091526040840192915b8181106103c7575050500390f35b82516001600160a01b03168452859450602093840193909201916001016103b9565b82546001600160a01b0316845260209093019260019283019201610389565b50346102425780600319360112610242576020600854604051908152f35b50346102425760206003193601126102425760ff60406020926001600160a01b0361044f611e7f565b168152600984522054166040519015158152f35b50346102425760206003193601126102425760406060916001600160a01b0361048a611e7f565b8284805161049781611eb9565b82815282602082015201521681526004602052206040516104b781611eb9565b60ff82541691828252604060ff600260018401549360208601948552015416920191151582526040519283525160208301525115156040820152f35b5034610242576020600319360112610242576020610517610512611e7f565b6121a1565b6040519015158152f35b50346102425760206003193601126102425760043561053e6124fd565b6001600160a01b03600654168015610726576001600160a01b03600254169182156106fe576040517f095ea7b3000000000000000000000000000000000000000000000000000000008552826004528160245260208560448180885af19060018651148216156106ef575b604052156105b5578380f35b6040517f095ea7b3000000000000000000000000000000000000000000000000000000008552826004528460245260208560448180885af19060018651148216156106ce575b604052156106a257604051917f095ea7b300000000000000000000000000000000000000000000000000000000855260045260245260208360448180865af1906001845114821615610681575b604052156106565780808380f35b7f5274afe7000000000000000000000000000000000000000000000000000000008252600452602490fd5b90600181151661069957823b15153d15161690610648565b503d83823e3d90fd5b602484847f5274afe7000000000000000000000000000000000000000000000000000000008252600452fd5b9060018115166106e657843b15153d151616906105fb565b503d85823e3d90fd5b90843b15153d151616906105a9565b6004847fd92e233d000000000000000000000000000000000000000000000000000000008152fd5b6004837fd92e233d000000000000000000000000000000000000000000000000000000008152fd5b503461024257806003193601126102425760206001600160a01b0360065416604051908152f35b5034610242576020600319360112610242576004359067ffffffffffffffff82116102425760206107b26107ac3660048601611e09565b90612048565b604051908152f35b5034610242576020600319360112610242576001600160a01b036107dc611e7f565b6107e46124fd565b168015610846576001600160a01b03600654827fffffffffffffffffffffffff0000000000000000000000000000000000000000821617600655167fa7e775663e2a425eb025700e66923142815918016f708c7ae545e2ebf1477bdc8380a380f35b6004827fd92e233d000000000000000000000000000000000000000000000000000000008152fd5b503461024257806003193601126102425760206001600160a01b03600b5416604051908152f35b503461024257806003193601126102425760206001600160a01b0360015416604051908152f35b503461024257806003193601126102425760206001600160a01b0360075416604051908152f35b50346102425780600319360112610242576001600160a01b036020915416604051908152f35b5034610242576020600319360112610242576001600160a01b0361092b611e7f565b6109336124fd565b168015610846577fffffffffffffffffffffffff0000000000000000000000000000000000000000600254161760025580f35b50346102425780600319360112610242576001600160a01b036001541633036109fb576109916122d2565b740100000000000000000000000000000000000000007fffffffffffffffffffffff00ffffffffffffffffffffffffffffffffffffffff8254161781557f62e78cea01bee320cd4e420270b5ea74000d11b0c9f74754ebdbfc544b05a2586020604051338152a180f35b60846040517f08c379a000000000000000000000000000000000000000000000000000000000815260206004820152602260248201527f4f6e6c79207061757365722063616e2063616c6c20746869732066756e63746960448201527f6f6e0000000000000000000000000000000000000000000000000000000000006064820152fd5b503461024257602060031936011261024257600435610a9c6124fd565b6127108111610adf5760407fbde6b2554a797ee1ab75b4f90ad50200dcd2a80165488896faacd30a0a01317491600554908060055582519182526020820152a180f35b6004827f360df246000000000000000000000000000000000000000000000000000000008152fd5b5034610242576020600319360112610242576001600160a01b03610b29611e7f565b610b316124fd565b1680825260046020526002604083200160017fffffffffffffffffffffffffffffffffffffffffffffffffffffffffffffff008254161790557ff017c0de579727a3cd3ee18077ee8b4c43bf21892985952d1d5a0d52f983502d8280a280f35b503461024257602060031936011261024257610bab611e7f565b610bb36124fd565b6001600160a01b0380600b54921691827fffffffffffffffffffffffff0000000000000000000000000000000000000000821617600b55167fa4795e14b1c917ddad7be29b25eaa17e823ed7d0efa398a75d645b11b8476a488380a380f35b50346102425780600319360112610242578081600354905b818410610c3c57602083604051908152f35b90916001600160a01b03610c4f85611e3a565b90549060031b1c16808352600a6020526001600160a01b03604084205416908115610c955791610c84610c8a926001946127dd565b90611f43565b935b01929190610c2a565b505092600190610c8c565b5034610242578060031936011261024257610cb96124fd565b806001600160a01b0381547fffffffffffffffffffffffff000000000000000000000000000000000000000081168355167f8be0079c531659141344cd1fd0a4f28419497f9722a3daafe3b4186f6b6457e08280a380f35b5034610242576020600319360112610242576001600160a01b03604060209282610d39611e7f565b168152600a8452205416604051908152f35b50346102425760206003193601126102425760206107b2610d6a611e7f565b611fd4565b503461024257806003193601126102425760ff6020915460a01c166040519015158152f35b503461024257604060031936011261024257610dae611e7f565b6024356001600160a01b038116809103610f2157610dca6124fd565b6001600160a01b0382169182156106fe5781156106fe57828452600960205260ff604085205416610ef95760035468010000000000000000811015610ecc5790610e1d826001610e3c9401600355611e3a565b9091906001600160a01b038084549260031b9316831b921b1916179055565b81835260096020526040832060017fffffffffffffffffffffffffffffffffffffffffffffffffffffffffffffff00825416179055818352600a60205260408320907fffffffffffffffffffffffff00000000000000000000000000000000000000008254161790557fdc4b546afdb935e93f993a347dbbab9b6a533a7c1ab745d14e05163767d5b10a8280a280f35b6024857f4e487b710000000000000000000000000000000000000000000000000000000081526041600452fd5b6004847fabc225e9000000000000000000000000000000000000000000000000000000008152fd5b8280fd5b503461024257606060031936011261024257610f3f611e7f565b60243560ff8116809103610f21576001600160a01b0360443592610f616124fd565b169182156106fe5760128211610fe7577f58e9aed9f5d55d3f9514533a98d34269ea1369f4f0f27c5600146f9c8dca770f916040918486526004602052828620827fffffffffffffffffffffffffffffffffffffffffffffffffffffffffffffff008254161790558486526004602052806001848820015582519182526020820152a280f35b6004847fd25598a0000000000000000000000000000000000000000000000000000000008152fd5b503461024257806003193601126102425780546001600160a01b0381163314801561111d575b156110bf5760ff8160a01c1615611097577fffffffffffffffffffffff00ffffffffffffffffffffffffffffffffffffffff1681557f5db9ee0a495bf2e6ff9c91a7834c1ba4fdd244a5e8aa4e537bd38aeae4b073aa6020604051338152a180f35b6004827f8dfc202b000000000000000000000000000000000000000000000000000000008152fd5b60646040517f08c379a000000000000000000000000000000000000000000000000000000000815260206004820152602060248201527f4f6e6c79206f776e6572206f72207061757365722063616e20756e70617573656044820152fd5b506001600160a01b03600154163314611035565b5034610242576020600319360112610242576001600160a01b03611153611e7f565b61115b6124fd565b168082526004602052600260408320017fffffffffffffffffffffffffffffffffffffffffffffffffffffffffffffff0081541690557ff38578ed892ce2ce655ca8ae03c73464ad74915a1331a9b4085e637534daeedf8280a280f35b5034610242576020600319360112610242576001600160a01b036111da611e7f565b6111e26124fd565b16808252600960205260ff604083205416156113b457815b600354808210156113ad57826001600160a01b0361121784611e3a565b90549060031b1c161461122d57506001016111fa565b7fffffffffffffffffffffffffffffffffffffffffffffffffffffffffffffffff81019081116113805790610e1d6001600160a01b0361126f61127d94611e3a565b90549060031b1c1691611e3a565b6003548015611353577fffffffffffffffffffffffffffffffffffffffffffffffffffffffffffffffff016112b181611e3a565b6001600160a01b0382549160031b1b191690556003555b8082526009602052604082207fffffffffffffffffffffffffffffffffffffffffffffffffffffffffffffff008154169055808252600a602052604082207fffffffffffffffffffffffff000000000000000000000000000000000000000081541690557f7bc7e967314c87be019a6f018822e621cf2548b9231ed0605002aceb282e16088280a280f35b6024837f4e487b710000000000000000000000000000000000000000000000000000000081526031600452fd5b6024847f4e487b710000000000000000000000000000000000000000000000000000000081526011600452fd5b50506112c8565b6004827f4f343756000000000000000000000000000000000000000000000000000000008152fd5b5034610242576020600319360112610242576113f6611e7f565b6113fe6124fd565b6001600160a01b0380600754921691827fffffffffffffffffffffffff0000000000000000000000000000000000000000821617600755167fb94dcf2c9ff6813b44ddb73cffafcc975ecb6a70ad6d75e2ed65495b201a419e8380a380f35b503461024257602060031936011261024257611477611e7f565b61147f6124fd565b6001600160a01b0380600154921691827fffffffffffffffffffffffff0000000000000000000000000000000000000000821617600155167f1ff153f4b082245afbf3211a8d2d207da4c5df490e965f9a9ad141b0cd001dda8380a380f35b50346102425760206003193601126102425760406060916001600160a01b03611505611e7f565b16815260046020522060ff8154169060ff600260018301549201541690604051928352602083015215156040820152f35b503461024257602060031936011261024257600435906003548210156102425760206001600160a01b0361156984611e3a565b90549060031b1c16604051908152f35b503461188c57606060031936011261188c5760043560443567ffffffffffffffff811161188c576115ae903690600401611e09565b916115b76122d2565b60027f9b779b17422d0df92223018b32b4d1fa46e071723d6817e2486d003becc55f005414611de15760027f9b779b17422d0df92223018b32b4d1fa46e071723d6817e2486d003becc55f00556001600160a01b036006541615611db9576001600160a01b036002541615611db9575f5b838110611d5e57506001600160a01b03600b5416908115611d00578015611ca2576040517efdd58e00000000000000000000000000000000000000000000000000000000815233600482015260248101829052602081604481865afa908115611c3d575f91611c70575b5015611c4857813b1561188c575f916064839260405194859384927ff5298aca0000000000000000000000000000000000000000000000000000000084523360048501526024840152600160448401525af18015611c3d57611c28575b508280805b6003548110156118f4576001600160a01b0361170f82611e3a565b90549060031b1c16808452600a6020526001600160a01b036040852054169081156118a357818552600460205260ff6002604087200154166118a35784855b8881106118ad575b506118a3576040517f18b668050000000000000000000000000000000000000000000000000000000081526001600160a01b03831660048201523360248201529060208260448189855af1918215611898578692611861575b50816117c3575b5050506001905b016116f4565b91610c84916117fe949995937ff404cd4814ff561c9e00078e4984b7c5580a7d479c47554807962de186f34e9a6020604051848152a261235b565b907fffffffffffffffffffffffffffffffffffffffffffffffffffffffffffffffff811461183457600180910195905f806117b6565b6024837f4e487b710000000000000000000000000000000000000000000000000000000081526011600452fd5b9091506020813d8211611890575b8161187c60209383611f02565b8101031261188c5751905f6117af565b5f80fd5b3d915061186f565b6040513d88823e3d90fd5b50506001906117bd565b826001600160a01b036118d06118cb848d8d98999a9d9e979e611e95565b611ea5565b16146118e657600101979097969392919661174e565b50965094919060015f611756565b5084908015611c005760055461271003906127108211611380576127109161191b91611f8a565b04906119336001600160a01b0360025416809361242f565b916024358310611bd857600854151580611bc5575b611b9d576040517f23b872dd00000000000000000000000000000000000000000000000000000000855233600452306024528360445260208560648180865af1906001865114821615611b85575b6040528460605215611b5a57508260646119b260085485611f8a565b046119bd8185611f7d565b9080611a9c575b5080611a25575b505060405191825260208201527fdacbdde355ba930696a362ea6738feb9f8bd52dfb3d81947558fd3217e23e32560403392a260017f9b779b17422d0df92223018b32b4d1fa46e071723d6817e2486d003becc55f005580f35b6001600160a01b036006541690813b15610f215782916024839260405194859384927fbd3507da00000000000000000000000000000000000000000000000000000000845260048401525af18015611a9157156119cb5781611a8691611f02565b610f215782846119cb565b6040513d84823e3d90fd5b9091506001600160a01b0360025416906001600160a01b036007541690604051917fa9059cbb00000000000000000000000000000000000000000000000000000000885260045260245260208660448180865af1906001875114821615611b39575b60405215611b0e579084916119c4565b7f5274afe7000000000000000000000000000000000000000000000000000000008552600452602484fd5b906001811516611b5157823b15153d15161690611afe565b503d86823e3d90fd5b7f5274afe7000000000000000000000000000000000000000000000000000000008452600452602483fd5b9060018115166106e657823b15153d15161690611996565b6004847f31a06177000000000000000000000000000000000000000000000000000000008152fd5b506001600160a01b036007541615611948565b6004847ffa3505cf000000000000000000000000000000000000000000000000000000008152fd5b6004837f1f2a2005000000000000000000000000000000000000000000000000000000008152fd5b611c359193505f90611f02565b5f915f6116ef565b6040513d5f823e3d90fd5b7f0d78b379000000000000000000000000000000000000000000000000000000005f5260045ffd5b90506020813d602011611c9a575b81611c8b60209383611f02565b8101031261188c57515f611692565b3d9150611c7e565b60646040517f08c379a000000000000000000000000000000000000000000000000000000000815260206004820152600d60248201527f496e76616c696420696e646578000000000000000000000000000000000000006044820152fd5b60646040517f08c379a000000000000000000000000000000000000000000000000000000000815260206004820152601960248201527f4e4654206d696e746572206e6f7420636f6e66696775726564000000000000006044820152fd5b6001600160a01b03611d746118cb838787611e95565b165f52600960205260ff60405f20541615611d9157600101611628565b7f57f9f27a000000000000000000000000000000000000000000000000000000005f5260045ffd5b7fd92e233d000000000000000000000000000000000000000000000000000000005f5260045ffd5b7f3ee5aeb5000000000000000000000000000000000000000000000000000000005f5260045ffd5b9181601f8401121561188c5782359167ffffffffffffffff831161188c576020808501948460051b01011161188c57565b600354811015611e525760035f5260205f2001905f90565b7f4e487b71000000000000000000000000000000000000000000000000000000005f52603260045260245ffd5b600435906001600160a01b038216820361188c57565b9190811015611e525760051b0190565b356001600160a01b038116810361188c5790565b6060810190811067ffffffffffffffff821117611ed557604052565b7f4e487b71000000000000000000000000000000000000000000000000000000005f52604160045260245ffd5b90601f7fffffffffffffffffffffffffffffffffffffffffffffffffffffffffffffffe0910116810190811067ffffffffffffffff821117611ed557604052565b91908201809211611f5057565b7f4e487b71000000000000000000000000000000000000000000000000000000005f52601160045260245ffd5b91908203918211611f5057565b81810292918115918404141715611f5057565b8115611fa7570490565b7f4e487b71000000000000000000000000000000000000000000000000000000005f52601260045260245ffd5b6001600160a01b038116805f52600960205260ff60405f20541615612020575f52600a6020526001600160a01b0360405f205416801561201a5761201791612550565b90565b50505f90565b7f4f343756000000000000000000000000000000000000000000000000000000005f5260045ffd5b905f5b81811061216e57506003545f92835b8281106120a35750505050801561209e57600554612710036127108111611f505761208b6127109161201793611f8a565b046001600160a01b03600254169061242f565b505f90565b6001600160a01b036120b482611e3a565b90549060031b1c16805f52600a6020526001600160a01b0360405f20541690811561213557815f52600460205260ff600260405f20015416612135575f5f5b87811061213f575b50612135578161210a91612550565b8061211c575b50506001905b0161205a565b95610c8461212d926001949861235b565b94905f612110565b5050600190612116565b826001600160a01b036121566118cb848c8b611e95565b1614612164576001016120f3565b505060015f6120fb565b6001600160a01b036121846118cb838587611e95565b165f52600960205260ff60405f20541615611d915760010161204b565b6001600160a01b03600b541690811561201a57604051917ffc7e9c6f000000000000000000000000000000000000000000000000000000008352602083600481845afa928315611c3d575f9361229e575b5060015b83811061220557505050505f90565b6040517efdd58e0000000000000000000000000000000000000000000000000000000081526001600160a01b038416600482015260248101829052602081604481865afa908115611c3d575f9161226d575b50612264576001016121f6565b50505050600190565b90506020813d8211612296575b8161228760209383611f02565b8101031261188c57515f612257565b3d915061227a565b9092506020813d6020116122ca575b816122ba60209383611f02565b8101031261188c5751915f6121f2565b3d91506122ad565b60ff5f5460a01c166122e057565b7fd93c0665000000000000000000000000000000000000000000000000000000005f5260045ffd5b60ff7fffffffffffffffffffffffffffffffffffffffffffffffffffffffffffffffee9116019060ff8211611f5057565b60ff166012039060ff8211611f5057565b60ff16604d8111611f5057600a0a90565b6001600160a01b039091165f908152600460205260409020805460019091015460ff9190911691821580612427575b612421578060128410156123f057506123ae6123a96123b49394612339565b61234a565b90611f8a565b905b801515806123de575b6123c7575090565b6123da90670de0b6b3a764000092611f8a565b0490565b50670de0b6b3a76400008114156123bf565b9260128111612401575b50506123b6565b6124199293506123a961241391612308565b90611f9d565b905f806123fa565b91505090565b50811561238a565b906001600160a01b0316805f52600460205260ff60405f205416905f526004602052600160405f200154918115806124f5575b612421578092801515806124e3575b6124ad575b5050601281101561249157906124136123a961201793612339565b6012811161249d575090565b906123ae6123a961201793612308565b90919250670de0b6b3a7640000820291808304670de0b6b3a76400001490151715611f50576124db91611f9d565b905f80612476565b50670de0b6b3a7640000811415612471565b508215612462565b6001600160a01b035f5416330361251057565b7f118cdaa7000000000000000000000000000000000000000000000000000000005f523360045260245ffd5b8051821015611e525760209160051b010190565b6001600160a01b031690604051907f428439750000000000000000000000000000000000000000000000000000000082525f82600481865afa918215611c3d575f92612730575b505f905f5b83518110156127285761260a60206001600160a01b036125bc848861253c565b5116604051809381927f84d10bff00000000000000000000000000000000000000000000000000000000835287600484019092916001600160a01b0360209181604085019616845216910152565b0381895afa8015611c3d575f906126f5575b612683915060206001600160a01b03612635858961253c565b5116604051809481927fbe875e4f00000000000000000000000000000000000000000000000000000000835288600484019092916001600160a01b0360209181604085019616845216910152565b03818a5afa918215611c3d575f926126c2575b508181116126a9575b505060010161259c565b93610c846126ba9260019496611f7d565b92905f61269f565b9091506020813d82116126ed575b816126dd60209383611f02565b8101031261188c5751905f612696565b3d91506126d0565b506020813d8211612720575b8161270e60209383611f02565b8101031261188c57612683905161261c565b3d9150612701565b505091505090565b9091503d805f833e6127428183611f02565b81019060208183031261188c5780519067ffffffffffffffff821161188c570181601f8201121561188c5780519167ffffffffffffffff8311611ed5578260051b91604051936127956020850186611f02565b845260208085019382010191821161188c57602001915b8183106127bd57505050905f612597565b82516001600160a01b038116810361188c578152602092830192016127ac565b816127e791612550565b90816127f35750505f90565b6120179161235b56fea2646970667358221220a6c785af571a9ebc053e27a7b7fa8a4cfb51c091351645efcac529a077b0c45964736f6c634300081e0033",
        "nonce": "0x2ef",
        "chainId": "0x1"
      },
      "additionalContracts": [],
      "isFixedGasLimit": false
    },
    {
      "hash": "0x485bb762e20e716d82c8c88c69a1781e60fc2b59af2044f9303eddc51a7c3e9c",
      "transactionType": "CALL",
      "contractName": "StableYieldAccumulator",
      "contractAddress": "0x3c690ec3b2524104de269bf0f9baa7f045ef8270",
      "function": "setRewardToken(address)",
      "arguments": [
        "0xA0b86991c6218b36c1d19D4a2e9Eb0cE3606eB48"
      ],
      "transaction": {
        "from": "0xcad1a7864a108dbff67f4b8af71fab0c7a86d0b6",
        "to": "0x3c690ec3b2524104de269bf0f9baa7f045ef8270",
        "value": "0x0",
        "input": "0x8aee8127000000000000000000000000a0b86991c6218b36c1d19d4a2e9eb0ce3606eb48",
        "nonce": "0x2f0",
        "chainId": "0x1"
      },
      "additionalContracts": [],
      "isFixedGasLimit": false
    },
    {
      "hash": "0x39e836c5a4b0bc05d61ebedbe0e9131d055e3cc4da7505494714402a62ed2e31",
      "transactionType": "CALL",
      "contractName": "StableYieldAccumulator",
      "contractAddress": "0x3c690ec3b2524104de269bf0f9baa7f045ef8270",
      "function": "setPhlimbo(address)",
      "arguments": [
        "0x6084a02C2Ac0127ddF1e617De257c61480A2AeE0"
      ],
      "transaction": {
        "from": "0xcad1a7864a108dbff67f4b8af71fab0c7a86d0b6",
        "to": "0x3c690ec3b2524104de269bf0f9baa7f045ef8270",
        "value": "0x0",
        "input": "0xa93e2fd30000000000000000000000006084a02c2ac0127ddf1e617de257c61480a2aee0",
        "nonce": "0x2f1",
        "chainId": "0x1"
      },
      "additionalContracts": [],
      "isFixedGasLimit": false
    },
    {
      "hash": "0xcba33c5189eee5cde8eaec98866322b92478cc98ab3eb0ca854725a3e88721be",
      "transactionType": "CALL",
      "contractName": "StableYieldAccumulator",
      "contractAddress": "0x3c690ec3b2524104de269bf0f9baa7f045ef8270",
      "function": "approvePhlimbo(uint256)",
      "arguments": [
        "115792089237316195423570985008687907853269984665640564039457584007913129639935"
      ],
      "transaction": {
        "from": "0xcad1a7864a108dbff67f4b8af71fab0c7a86d0b6",
        "to": "0x3c690ec3b2524104de269bf0f9baa7f045ef8270",
        "value": "0x0",
        "input": "0xba854ee6ffffffffffffffffffffffffffffffffffffffffffffffffffffffffffffffff",
        "nonce": "0x2f2",
        "chainId": "0x1"
      },
      "additionalContracts": [],
      "isFixedGasLimit": false
    },
    {
      "hash": "0x8ab66bc437956cae308b2694952023c13edecaadfe66679204f8f7d5931fb79f",
      "transactionType": "CALL",
      "contractName": "StableYieldAccumulator",
      "contractAddress": "0x3c690ec3b2524104de269bf0f9baa7f045ef8270",
      "function": "setNFTMinter(address)",
      "arguments": [
        "0x39Af088408e815844c567037C157B31d48d2E10F"
      ],
      "transaction": {
        "from": "0xcad1a7864a108dbff67f4b8af71fab0c7a86d0b6",
        "to": "0x3c690ec3b2524104de269bf0f9baa7f045ef8270",
        "value": "0x0",
        "input": "0x7bd1f33500000000000000000000000039af088408e815844c567037c157b31d48d2e10f",
        "nonce": "0x2f3",
        "chainId": "0x1"
      },
      "additionalContracts": [],
      "isFixedGasLimit": false
    },
    {
      "hash": "0xeee45fea1c7792260fe9ce0a90e0ca070c10e4da341c226cbccc9693cd4cb712",
      "transactionType": "CALL",
      "contractName": "StableYieldAccumulator",
      "contractAddress": "0x3c690ec3b2524104de269bf0f9baa7f045ef8270",
      "function": "setNudgeAddress(address)",
      "arguments": [
        "0x86866e01a115C17892Ed04c548F2e8638851029d"
      ],
      "transaction": {
        "from": "0xcad1a7864a108dbff67f4b8af71fab0c7a86d0b6",
        "to": "0x3c690ec3b2524104de269bf0f9baa7f045ef8270",
        "value": "0x0",
        "input": "0x2fbe683900000000000000000000000086866e01a115c17892ed04c548f2e8638851029d",
        "nonce": "0x2f4",
        "chainId": "0x1"
      },
      "additionalContracts": [],
      "isFixedGasLimit": false
    },
    {
      "hash": "0x187a41924ba892c7d9501e0cf761bbadd1f17f256f8244b49a064c082017ac60",
      "transactionType": "CALL",
      "contractName": "StableYieldAccumulator",
      "contractAddress": "0x3c690ec3b2524104de269bf0f9baa7f045ef8270",
      "function": "setNudgeSplit(uint256)",
      "arguments": [
        "20"
      ],
      "transaction": {
        "from": "0xcad1a7864a108dbff67f4b8af71fab0c7a86d0b6",
        "to": "0x3c690ec3b2524104de269bf0f9baa7f045ef8270",
        "value": "0x0",
        "input": "0xfe3ffbac0000000000000000000000000000000000000000000000000000000000000014",
        "nonce": "0x2f5",
        "chainId": "0x1"
      },
      "additionalContracts": [],
      "isFixedGasLimit": false
    },
    {
      "hash": "0x58058debba34e4ce0c3d80ef0682f982ccde9481d665fcdaea779e33ebe555c8",
      "transactionType": "CALL",
      "contractName": "StableYieldAccumulator",
      "contractAddress": "0x3c690ec3b2524104de269bf0f9baa7f045ef8270",
      "function": "setPauser(address)",
      "arguments": [
        "0x7c5A8EeF1d836450C019FB036453ac6eC97885a3"
      ],
      "transaction": {
        "from": "0xcad1a7864a108dbff67f4b8af71fab0c7a86d0b6",
        "to": "0x3c690ec3b2524104de269bf0f9baa7f045ef8270",
        "value": "0x0",
        "input": "0x2d88af4a0000000000000000000000007c5a8eef1d836450c019fb036453ac6ec97885a3",
        "nonce": "0x2f6",
        "chainId": "0x1"
      },
      "additionalContracts": [],
      "isFixedGasLimit": false
    },
    {
      "hash": "0xe8c031753f61b4b564f3efb96b1fc625df62ddebcce3457a8c6e9da37d0611f1",
      "transactionType": "CALL",
      "contractName": "StableYieldAccumulator",
      "contractAddress": "0x3c690ec3b2524104de269bf0f9baa7f045ef8270",
      "function": "setTokenConfig(address,uint8,uint256)",
      "arguments": [
        "0x865377367054516e17014CcdED1e7d814EDC9ce4",
        "18",
        "1000000000000000000"
      ],
      "transaction": {
        "from": "0xcad1a7864a108dbff67f4b8af71fab0c7a86d0b6",
        "to": "0x3c690ec3b2524104de269bf0f9baa7f045ef8270",
        "value": "0x0",
        "input": "0x41103d42000000000000000000000000865377367054516e17014ccded1e7d814edc9ce400000000000000000000000000000000000000000000000000000000000000120000000000000000000000000000000000000000000000000de0b6b3a7640000",
        "nonce": "0x2f7",
        "chainId": "0x1"
      },
      "additionalContracts": [],
      "isFixedGasLimit": false
    },
    {
      "hash": "0xa106b8e7f456deead532ec0d4ca78bed8bffdcf2f33bd9f7c9690a1df83dbcde",
      "transactionType": "CALL",
      "contractName": "StableYieldAccumulator",
      "contractAddress": "0x3c690ec3b2524104de269bf0f9baa7f045ef8270",
      "function": "setTokenConfig(address,uint8,uint256)",
      "arguments": [
        "0x4c9EDD5852cd905f086C759E8383e09bff1E68B3",
        "18",
        "1000000000000000000"
      ],
      "transaction": {
        "from": "0xcad1a7864a108dbff67f4b8af71fab0c7a86d0b6",
        "to": "0x3c690ec3b2524104de269bf0f9baa7f045ef8270",
        "value": "0x0",
        "input": "0x41103d420000000000000000000000004c9edd5852cd905f086c759e8383e09bff1e68b300000000000000000000000000000000000000000000000000000000000000120000000000000000000000000000000000000000000000000de0b6b3a7640000",
        "nonce": "0x2f8",
        "chainId": "0x1"
      },
      "additionalContracts": [],
      "isFixedGasLimit": false
    },
    {
      "hash": "0x2556b78387737a863b8536af30dcbf6e5289c2123901865522eefa600a7fce64",
      "transactionType": "CALL",
      "contractName": "StableYieldAccumulator",
      "contractAddress": "0x3c690ec3b2524104de269bf0f9baa7f045ef8270",
      "function": "setTokenConfig(address,uint8,uint256)",
      "arguments": [
        "0xA0b86991c6218b36c1d19D4a2e9Eb0cE3606eB48",
        "6",
        "1000000000000000000"
      ],
      "transaction": {
        "from": "0xcad1a7864a108dbff67f4b8af71fab0c7a86d0b6",
        "to": "0x3c690ec3b2524104de269bf0f9baa7f045ef8270",
        "value": "0x0",
        "input": "0x41103d42000000000000000000000000a0b86991c6218b36c1d19d4a2e9eb0ce3606eb4800000000000000000000000000000000000000000000000000000000000000060000000000000000000000000000000000000000000000000de0b6b3a7640000",
        "nonce": "0x2f9",
        "chainId": "0x1"
      },
      "additionalContracts": [],
      "isFixedGasLimit": false
    },
    {
      "hash": "0x9448dd3df8d6088b0f3e4d7c1fa0b3f8c1b3294d947a0c8f3e42b64265cc6e8f",
      "transactionType": "CALL",
      "contractName": "StableYieldAccumulator",
      "contractAddress": "0x3c690ec3b2524104de269bf0f9baa7f045ef8270",
      "function": "addYieldStrategy(address,address)",
      "arguments": [
        "0x90ce274b20A2aF4265152B369d09ce6E6Dc177F9",
        "0x865377367054516e17014CcdED1e7d814EDC9ce4"
      ],
      "transaction": {
        "from": "0xcad1a7864a108dbff67f4b8af71fab0c7a86d0b6",
        "to": "0x3c690ec3b2524104de269bf0f9baa7f045ef8270",
        "value": "0x0",
        "input": "0x454ee0ca00000000000000000000000090ce274b20a2af4265152b369d09ce6e6dc177f9000000000000000000000000865377367054516e17014ccded1e7d814edc9ce4",
        "nonce": "0x2fa",
        "chainId": "0x1"
      },
      "additionalContracts": [],
      "isFixedGasLimit": false
    },
    {
      "hash": "0x218baaf0771ae490e651ebb296dc4f97d0385eb6fa9adb1a4ed1a8ab6b73090a",
      "transactionType": "CALL",
      "contractName": "StableYieldAccumulator",
      "contractAddress": "0x3c690ec3b2524104de269bf0f9baa7f045ef8270",
      "function": "addYieldStrategy(address,address)",
      "arguments": [
        "0xaC2e5936Eca286eC364d4D5Bcca33145fBe57f95",
        "0x4c9EDD5852cd905f086C759E8383e09bff1E68B3"
      ],
      "transaction": {
        "from": "0xcad1a7864a108dbff67f4b8af71fab0c7a86d0b6",
        "to": "0x3c690ec3b2524104de269bf0f9baa7f045ef8270",
        "value": "0x0",
        "input": "0x454ee0ca000000000000000000000000ac2e5936eca286ec364d4d5bcca33145fbe57f950000000000000000000000004c9edd5852cd905f086c759e8383e09bff1e68b3",
        "nonce": "0x2fb",
        "chainId": "0x1"
      },
      "additionalContracts": [],
      "isFixedGasLimit": false
    },
    {
      "hash": "0x602f27cdc6f05d9e3f21fce3335064be274f04644da8fa10479126860e8a0f4d",
      "transactionType": "CALL",
      "contractName": "StableYieldAccumulator",
      "contractAddress": "0x3c690ec3b2524104de269bf0f9baa7f045ef8270",
      "function": "addYieldStrategy(address,address)",
      "arguments": [
        "0x90af002Ee537Ad5C2c9817Ebd4EF22B2e8952470",
        "0xA0b86991c6218b36c1d19D4a2e9Eb0cE3606eB48"
      ],
      "transaction": {
        "from": "0xcad1a7864a108dbff67f4b8af71fab0c7a86d0b6",
        "to": "0x3c690ec3b2524104de269bf0f9baa7f045ef8270",
        "value": "0x0",
        "input": "0x454ee0ca00000000000000000000000090af002ee537ad5c2c9817ebd4ef22b2e8952470000000000000000000000000a0b86991c6218b36c1d19d4a2e9eb0ce3606eb48",
        "nonce": "0x2fc",
        "chainId": "0x1"
      },
      "additionalContracts": [],
      "isFixedGasLimit": false
    },
    {
      "hash": "0x51bc36cb8b0950f8df0fb6b88c889274f75e9916d60e74cbf75ef5ea230fd8c5",
      "transactionType": "CALL",
      "contractName": "StableYieldAccumulator",
      "contractAddress": "0x3c690ec3b2524104de269bf0f9baa7f045ef8270",
      "function": "setDiscountRate(uint256)",
      "arguments": [
        "3000"
      ],
      "transaction": {
        "from": "0xcad1a7864a108dbff67f4b8af71fab0c7a86d0b6",
        "to": "0x3c690ec3b2524104de269bf0f9baa7f045ef8270",
        "value": "0x0",
        "input": "0x7c69febd0000000000000000000000000000000000000000000000000000000000000bb8",
        "nonce": "0x2fd",
        "chainId": "0x1"
      },
      "additionalContracts": [],
      "isFixedGasLimit": false
    },
    {
      "hash": "0xcfc7cb85f9224e8db080c5435ac28fe949aa5cd7b6172480dbe3213391e48361",
      "transactionType": "CALL",
      "contractName": null,
      "contractAddress": "0x90ce274b20a2af4265152b369d09ce6e6dc177f9",
      "function": "setWithdrawer(address,bool)",
      "arguments": [
        "0x3C690EC3B2524104dE269bf0F9baa7f045eF8270",
        "true"
      ],
      "transaction": {
        "from": "0xcad1a7864a108dbff67f4b8af71fab0c7a86d0b6",
        "to": "0x90ce274b20a2af4265152b369d09ce6e6dc177f9",
        "value": "0x0",
        "input": "0x82c3b9650000000000000000000000003c690ec3b2524104de269bf0f9baa7f045ef82700000000000000000000000000000000000000000000000000000000000000001",
        "nonce": "0x2fe",
        "chainId": "0x1"
      },
      "additionalContracts": [],
      "isFixedGasLimit": false
    },
    {
      "hash": "0x3143e510034a05dc80ca635342dfdd0aa5ad2f8f2ffec33f84ef63bfb1eabbe8",
      "transactionType": "CALL",
      "contractName": null,
      "contractAddress": "0x90ce274b20a2af4265152b369d09ce6e6dc177f9",
      "function": "setWithdrawer(address,bool)",
      "arguments": [
        "0x3bBE928340c61a65Cb6C4a87B3fb59B6f3F7606a",
        "false"
      ],
      "transaction": {
        "from": "0xcad1a7864a108dbff67f4b8af71fab0c7a86d0b6",
        "to": "0x90ce274b20a2af4265152b369d09ce6e6dc177f9",
        "value": "0x0",
        "input": "0x82c3b9650000000000000000000000003bbe928340c61a65cb6c4a87b3fb59b6f3f7606a0000000000000000000000000000000000000000000000000000000000000000",
        "nonce": "0x2ff",
        "chainId": "0x1"
      },
      "additionalContracts": [],
      "isFixedGasLimit": false
    },
    {
      "hash": "0xbd1c818da210b32266af854071c4284dfb36b50aae17823184e5ddd0b8e73648",
      "transactionType": "CALL",
      "contractName": null,
      "contractAddress": "0x90ce274b20a2af4265152b369d09ce6e6dc177f9",
      "function": "setSetAsideBuffer(address,uint256)",
      "arguments": [
        "0x435B0A1884bd0fb5667677C9eb0e59425b1477E5",
        "25"
      ],
      "transaction": {
        "from": "0xcad1a7864a108dbff67f4b8af71fab0c7a86d0b6",
        "to": "0x90ce274b20a2af4265152b369d09ce6e6dc177f9",
        "value": "0x0",
        "input": "0x9c118c95000000000000000000000000435b0a1884bd0fb5667677c9eb0e59425b1477e50000000000000000000000000000000000000000000000000000000000000019",
        "nonce": "0x300",
        "chainId": "0x1"
      },
      "additionalContracts": [],
      "isFixedGasLimit": false
    },
    {
      "hash": "0x68632a1bcc4ed781c28d6556441a30d3e9e1319463333626d99d3e6da58dd0a4",
      "transactionType": "CALL",
      "contractName": null,
      "contractAddress": "0x90ce274b20a2af4265152b369d09ce6e6dc177f9",
      "function": "setSetAsideBuffer(address,uint256)",
      "arguments": [
        "0xbce8ABC09BaEDCabE93419bF875f6186e182079A",
        "25"
      ],
      "transaction": {
        "from": "0xcad1a7864a108dbff67f4b8af71fab0c7a86d0b6",
        "to": "0x90ce274b20a2af4265152b369d09ce6e6dc177f9",
        "value": "0x0",
        "input": "0x9c118c95000000000000000000000000bce8abc09baedcabe93419bf875f6186e182079a0000000000000000000000000000000000000000000000000000000000000019",
        "nonce": "0x301",
        "chainId": "0x1"
      },
      "additionalContracts": [],
      "isFixedGasLimit": false
    },
    {
      "hash": "0xcd54dfbaa453c35d4a0ef45d9a9cb0a4ceda93317c7430a1483a75749bd12d6a",
      "transactionType": "CALL",
      "contractName": null,
      "contractAddress": "0xac2e5936eca286ec364d4d5bcca33145fbe57f95",
      "function": "setWithdrawer(address,bool)",
      "arguments": [
        "0x3C690EC3B2524104dE269bf0F9baa7f045eF8270",
        "true"
      ],
      "transaction": {
        "from": "0xcad1a7864a108dbff67f4b8af71fab0c7a86d0b6",
        "to": "0xac2e5936eca286ec364d4d5bcca33145fbe57f95",
        "value": "0x0",
        "input": "0x82c3b9650000000000000000000000003c690ec3b2524104de269bf0f9baa7f045ef82700000000000000000000000000000000000000000000000000000000000000001",
        "nonce": "0x302",
        "chainId": "0x1"
      },
      "additionalContracts": [],
      "isFixedGasLimit": false
    },
    {
      "hash": "0x883a7705bb58e1bc04be30dc93e3b42eddf1cab6f6174a747da414717a78a944",
      "transactionType": "CALL",
      "contractName": null,
      "contractAddress": "0xac2e5936eca286ec364d4d5bcca33145fbe57f95",
      "function": "setWithdrawer(address,bool)",
      "arguments": [
        "0x3bBE928340c61a65Cb6C4a87B3fb59B6f3F7606a",
        "false"
      ],
      "transaction": {
        "from": "0xcad1a7864a108dbff67f4b8af71fab0c7a86d0b6",
        "to": "0xac2e5936eca286ec364d4d5bcca33145fbe57f95",
        "value": "0x0",
        "input": "0x82c3b9650000000000000000000000003bbe928340c61a65cb6c4a87b3fb59b6f3f7606a0000000000000000000000000000000000000000000000000000000000000000",
        "nonce": "0x303",
        "chainId": "0x1"
      },
      "additionalContracts": [],
      "isFixedGasLimit": false
    },
    {
      "hash": "0x792affcedde892bc708c9abc76070de549d7802cb0d1921077c1dd8536e049d9",
      "transactionType": "CALL",
      "contractName": null,
      "contractAddress": "0xac2e5936eca286ec364d4d5bcca33145fbe57f95",
      "function": "setSetAsideBuffer(address,uint256)",
      "arguments": [
        "0x435B0A1884bd0fb5667677C9eb0e59425b1477E5",
        "25"
      ],
      "transaction": {
        "from": "0xcad1a7864a108dbff67f4b8af71fab0c7a86d0b6",
        "to": "0xac2e5936eca286ec364d4d5bcca33145fbe57f95",
        "value": "0x0",
        "input": "0x9c118c95000000000000000000000000435b0a1884bd0fb5667677c9eb0e59425b1477e50000000000000000000000000000000000000000000000000000000000000019",
        "nonce": "0x304",
        "chainId": "0x1"
      },
      "additionalContracts": [],
      "isFixedGasLimit": false
    },
    {
      "hash": "0x7a5712037e781b1ae2380d93a12a6b1a2a8751900d88a1b271ceadf8fa70f31c",
      "transactionType": "CALL",
      "contractName": null,
      "contractAddress": "0xac2e5936eca286ec364d4d5bcca33145fbe57f95",
      "function": "setSetAsideBuffer(address,uint256)",
      "arguments": [
        "0xbce8ABC09BaEDCabE93419bF875f6186e182079A",
        "25"
      ],
      "transaction": {
        "from": "0xcad1a7864a108dbff67f4b8af71fab0c7a86d0b6",
        "to": "0xac2e5936eca286ec364d4d5bcca33145fbe57f95",
        "value": "0x0",
        "input": "0x9c118c95000000000000000000000000bce8abc09baedcabe93419bf875f6186e182079a0000000000000000000000000000000000000000000000000000000000000019",
        "nonce": "0x305",
        "chainId": "0x1"
      },
      "additionalContracts": [],
      "isFixedGasLimit": false
    },
    {
      "hash": "0xda58458b8b7635114d2b2c1e5193b8024174a7df18e481dee3b1ae167b685f5d",
      "transactionType": "CALL",
      "contractName": null,
      "contractAddress": "0x90af002ee537ad5c2c9817ebd4ef22b2e8952470",
      "function": "setWithdrawer(address,bool)",
      "arguments": [
        "0x3C690EC3B2524104dE269bf0F9baa7f045eF8270",
        "true"
      ],
      "transaction": {
        "from": "0xcad1a7864a108dbff67f4b8af71fab0c7a86d0b6",
        "to": "0x90af002ee537ad5c2c9817ebd4ef22b2e8952470",
        "value": "0x0",
        "input": "0x82c3b9650000000000000000000000003c690ec3b2524104de269bf0f9baa7f045ef82700000000000000000000000000000000000000000000000000000000000000001",
        "nonce": "0x306",
        "chainId": "0x1"
      },
      "additionalContracts": [],
      "isFixedGasLimit": false
    },
    {
      "hash": "0xc05ab5bf1b8baf0aa165c5fe17343abf90257be6064d1daf7a742a3ca19fcef8",
      "transactionType": "CALL",
      "contractName": null,
      "contractAddress": "0x90af002ee537ad5c2c9817ebd4ef22b2e8952470",
      "function": "setWithdrawer(address,bool)",
      "arguments": [
        "0x3bBE928340c61a65Cb6C4a87B3fb59B6f3F7606a",
        "false"
      ],
      "transaction": {
        "from": "0xcad1a7864a108dbff67f4b8af71fab0c7a86d0b6",
        "to": "0x90af002ee537ad5c2c9817ebd4ef22b2e8952470",
        "value": "0x0",
        "input": "0x82c3b9650000000000000000000000003bbe928340c61a65cb6c4a87b3fb59b6f3f7606a0000000000000000000000000000000000000000000000000000000000000000",
        "nonce": "0x307",
        "chainId": "0x1"
      },
      "additionalContracts": [],
      "isFixedGasLimit": false
    },
    {
      "hash": "0xba8a463bb791e93ede7ddf54692ade49a45a0525d520de148e7756893c4f1843",
      "transactionType": "CALL",
      "contractName": null,
      "contractAddress": "0x90af002ee537ad5c2c9817ebd4ef22b2e8952470",
      "function": "setSetAsideBuffer(address,uint256)",
      "arguments": [
        "0x435B0A1884bd0fb5667677C9eb0e59425b1477E5",
        "25"
      ],
      "transaction": {
        "from": "0xcad1a7864a108dbff67f4b8af71fab0c7a86d0b6",
        "to": "0x90af002ee537ad5c2c9817ebd4ef22b2e8952470",
        "value": "0x0",
        "input": "0x9c118c95000000000000000000000000435b0a1884bd0fb5667677c9eb0e59425b1477e50000000000000000000000000000000000000000000000000000000000000019",
        "nonce": "0x308",
        "chainId": "0x1"
      },
      "additionalContracts": [],
      "isFixedGasLimit": false
    },
    {
      "hash": "0x20699a6b401513edab6487bcd7c584bfa853259cef8bddbb2fc930ce4de4cd9c",
      "transactionType": "CALL",
      "contractName": null,
      "contractAddress": "0x90af002ee537ad5c2c9817ebd4ef22b2e8952470",
      "function": "setSetAsideBuffer(address,uint256)",
      "arguments": [
        "0xbce8ABC09BaEDCabE93419bF875f6186e182079A",
        "25"
      ],
      "transaction": {
        "from": "0xcad1a7864a108dbff67f4b8af71fab0c7a86d0b6",
        "to": "0x90af002ee537ad5c2c9817ebd4ef22b2e8952470",
        "value": "0x0",
        "input": "0x9c118c95000000000000000000000000bce8abc09baedcabe93419bf875f6186e182079a0000000000000000000000000000000000000000000000000000000000000019",
        "nonce": "0x309",
        "chainId": "0x1"
      },
      "additionalContracts": [],
      "isFixedGasLimit": false
    },
    {
      "hash": "0x4dd3d74812e1f99112ae9a317dde172806be7f9c33f7c37fd667825ff4a283e7",
      "transactionType": "CALL",
      "contractName": null,
      "contractAddress": "0x39af088408e815844c567037c157b31d48d2e10f",
      "function": "setAuthorizedBurner(address,bool)",
      "arguments": [
        "0x3C690EC3B2524104dE269bf0F9baa7f045eF8270",
        "true"
      ],
      "transaction": {
        "from": "0xcad1a7864a108dbff67f4b8af71fab0c7a86d0b6",
        "to": "0x39af088408e815844c567037c157b31d48d2e10f",
        "value": "0x0",
        "input": "0x0ac28ff80000000000000000000000003c690ec3b2524104de269bf0f9baa7f045ef82700000000000000000000000000000000000000000000000000000000000000001",
        "nonce": "0x30a",
        "chainId": "0x1"
      },
      "additionalContracts": [],
      "isFixedGasLimit": false
    },
    {
      "hash": "0xa2b35c49dc4126a4b1cfc9ee60b0e254dd1f9e99be1467c8a18ce45d758d4ce0",
      "transactionType": "CALL",
      "contractName": null,
      "contractAddress": "0x39af088408e815844c567037c157b31d48d2e10f",
      "function": "setAuthorizedBurner(address,bool)",
      "arguments": [
        "0x3bBE928340c61a65Cb6C4a87B3fb59B6f3F7606a",
        "false"
      ],
      "transaction": {
        "from": "0xcad1a7864a108dbff67f4b8af71fab0c7a86d0b6",
        "to": "0x39af088408e815844c567037c157b31d48d2e10f",
        "value": "0x0",
        "input": "0x0ac28ff80000000000000000000000003bbe928340c61a65cb6c4a87b3fb59b6f3f7606a0000000000000000000000000000000000000000000000000000000000000000",
        "nonce": "0x30b",
        "chainId": "0x1"
      },
      "additionalContracts": [],
      "isFixedGasLimit": false
    },
    {
      "hash": "0xca18f09db84e6a237e5f4d1b2f26adf06ea96fd9b0816ac8d25b9f678e60c067",
      "transactionType": "CALL",
      "contractName": null,
      "contractAddress": "0x7c5a8eef1d836450c019fb036453ac6ec97885a3",
      "function": "register(address)",
      "arguments": [
        "0x3C690EC3B2524104dE269bf0F9baa7f045eF8270"
      ],
      "transaction": {
        "from": "0xcad1a7864a108dbff67f4b8af71fab0c7a86d0b6",
        "to": "0x7c5a8eef1d836450c019fb036453ac6ec97885a3",
        "value": "0x0",
        "input": "0x4420e4860000000000000000000000003c690ec3b2524104de269bf0f9baa7f045ef8270",
        "nonce": "0x30c",
        "chainId": "0x1"
      },
      "additionalContracts": [],
      "isFixedGasLimit": false
    },
    {
      "hash": "0x082fcc11027453b7b16edf8c895adf1751de7a3e3042bb6b42824ed807122984",
      "transactionType": "CALL",
      "contractName": null,
      "contractAddress": "0x3bbe928340c61a65cb6c4a87b3fb59b6f3f7606a",
      "function": "setPauser(address)",
      "arguments": [
        "0x0000000000000000000000000000000000000000"
      ],
      "transaction": {
        "from": "0xcad1a7864a108dbff67f4b8af71fab0c7a86d0b6",
        "to": "0x3bbe928340c61a65cb6c4a87b3fb59b6f3f7606a",
        "value": "0x0",
        "input": "0x2d88af4a0000000000000000000000000000000000000000000000000000000000000000",
        "nonce": "0x30d",
        "chainId": "0x1"
      },
      "additionalContracts": [],
      "isFixedGasLimit": false
    },
    {
      "hash": "0x5d067db08978b8908ff525d4833112b4f4713c7fb9188193e91172d641d71ecc",
      "transactionType": "CALL",
      "contractName": null,
      "contractAddress": "0x7c5a8eef1d836450c019fb036453ac6ec97885a3",
      "function": "unregister(address)",
      "arguments": [
        "0x3bBE928340c61a65Cb6C4a87B3fb59B6f3F7606a"
      ],
      "transaction": {
        "from": "0xcad1a7864a108dbff67f4b8af71fab0c7a86d0b6",
        "to": "0x7c5a8eef1d836450c019fb036453ac6ec97885a3",
        "value": "0x0",
        "input": "0x2ec2c2460000000000000000000000003bbe928340c61a65cb6c4a87b3fb59b6f3f7606a",
        "nonce": "0x30e",
        "chainId": "0x1"
      },
      "additionalContracts": [],
      "isFixedGasLimit": false
    },
    {
      "hash": "0x9bdca77a7b47f509564ee67ee9f2a66b70720dabf9b5848c9e2b856b846e3cce",
      "transactionType": "CALL",
      "contractName": null,
      "contractAddress": "0x3bbe928340c61a65cb6c4a87b3fb59b6f3f7606a",
      "function": "removeYieldStrategy(address)",
      "arguments": [
        "0xaC2e5936Eca286eC364d4D5Bcca33145fBe57f95"
      ],
      "transaction": {
        "from": "0xcad1a7864a108dbff67f4b8af71fab0c7a86d0b6",
        "to": "0x3bbe928340c61a65cb6c4a87b3fb59b6f3f7606a",
        "value": "0x0",
        "input": "0x3a8107cf000000000000000000000000ac2e5936eca286ec364d4d5bcca33145fbe57f95",
        "nonce": "0x30f",
        "chainId": "0x1"
      },
      "additionalContracts": [],
      "isFixedGasLimit": false
    },
    {
      "hash": "0xd9db249474870c7828ff370d59921c6aae6b7629d15203e706cad4c030bb3a08",
      "transactionType": "CALL",
      "contractName": null,
      "contractAddress": "0x3bbe928340c61a65cb6c4a87b3fb59b6f3f7606a",
      "function": "removeYieldStrategy(address)",
      "arguments": [
        "0x90af002Ee537Ad5C2c9817Ebd4EF22B2e8952470"
      ],
      "transaction": {
        "from": "0xcad1a7864a108dbff67f4b8af71fab0c7a86d0b6",
        "to": "0x3bbe928340c61a65cb6c4a87b3fb59b6f3f7606a",
        "value": "0x0",
        "input": "0x3a8107cf00000000000000000000000090af002ee537ad5c2c9817ebd4ef22b2e8952470",
        "nonce": "0x310",
        "chainId": "0x1"
      },
      "additionalContracts": [],
      "isFixedGasLimit": false
    },
    {
      "hash": "0xd34fa91ad035529b66dabf5c5fb75adda1de0e19312ac0ddbe888697605f4872",
      "transactionType": "CALL",
      "contractName": null,
      "contractAddress": "0x3bbe928340c61a65cb6c4a87b3fb59b6f3f7606a",
      "function": "removeYieldStrategy(address)",
      "arguments": [
        "0x90ce274b20A2aF4265152B369d09ce6E6Dc177F9"
      ],
      "transaction": {
        "from": "0xcad1a7864a108dbff67f4b8af71fab0c7a86d0b6",
        "to": "0x3bbe928340c61a65cb6c4a87b3fb59b6f3f7606a",
        "value": "0x0",
        "input": "0x3a8107cf00000000000000000000000090ce274b20a2af4265152b369d09ce6e6dc177f9",
        "nonce": "0x311",
        "chainId": "0x1"
      },
      "additionalContracts": [],
      "isFixedGasLimit": false
    }
  ],
  "receipts": [
    {
      "status": "0x1",
      "cumulativeGasUsed": "0x1dc60c7",
      "logs": [
        {
          "address": "0x3c690ec3b2524104de269bf0f9baa7f045ef8270",
          "topics": [
            "0x8be0079c531659141344cd1fd0a4f28419497f9722a3daafe3b4186f6b6457e0",
            "0x0000000000000000000000000000000000000000000000000000000000000000",
            "0x000000000000000000000000cad1a7864a108dbff67f4b8af71fab0c7a86d0b6"
          ],
          "data": "0x",
          "blockHash": "0x6cb2c75722f4d323b9ebba1b87307da19bc9fb7825828bc447054ea47a6e8828",
          "blockNumber": "0x181d762",
          "blockTimestamp": "0x6a293e87",
          "transactionHash": "0xbe4466e7d2f1ecec2d8033624b11e570d3226920d659da2c3641db961e66be22",
          "transactionIndex": "0x106",
          "logIndex": "0x34b",
          "removed": false
        }
      ],
      "logsBloom": "0x00000000000000000020000000000000000000000000000000800000000000000000000000000000000000400000000002000000000000000000000000000000000000000000000000000000000000000001000000000000000000000000000000000000020000000000000000000800000000000000000000000000000000400000000000000000000000000000000000000000000000000000000000000000000000000000000000000000000000000000000000000000000000080000000000000000000000000000000000000000000000000000500000000000000020000000000000000000000000000000000000000000000000000000000000000000",
      "type": "0x2",
      "transactionHash": "0xbe4466e7d2f1ecec2d8033624b11e570d3226920d659da2c3641db961e66be22",
      "transactionIndex": "0x106",
      "blockHash": "0x6cb2c75722f4d323b9ebba1b87307da19bc9fb7825828bc447054ea47a6e8828",
      "blockNumber": "0x181d762",
      "gasUsed": "0x23311d",
      "effectiveGasPrice": "0x7f63262",
      "from": "0xcad1a7864a108dbff67f4b8af71fab0c7a86d0b6",
      "to": null,
      "contractAddress": "0x3c690ec3b2524104de269bf0f9baa7f045ef8270"
    },
    {
      "status": "0x1",
      "cumulativeGasUsed": "0x1b119f7",
      "logs": [],
      "logsBloom": "0x00000000000000000000000000000000000000000000000000000000000000000000000000000000000000000000000000000000000000000000000000000000000000000000000000000000000000000000000000000000000000000000000000000000000000000000000000000000000000000000000000000000000000000000000000000000000000000000000000000000000000000000000000000000000000000000000000000000000000000000000000000000000000000000000000000000000000000000000000000000000000000000000000000000000000000000000000000000000000000000000000000000000000000000000000000000",
      "type": "0x2",
      "transactionHash": "0x485bb762e20e716d82c8c88c69a1781e60fc2b59af2044f9303eddc51a7c3e9c",
      "transactionIndex": "0xe3",
      "blockHash": "0xdca021b2537559a3072d70e9c2210442c0f58a601f3bd73110b3ca89a612b4bf",
      "blockNumber": "0x181d763",
      "gasUsed": "0xb534",
      "effectiveGasPrice": "0x80f5fb5",
      "from": "0xcad1a7864a108dbff67f4b8af71fab0c7a86d0b6",
      "to": "0x3c690ec3b2524104de269bf0f9baa7f045ef8270",
      "contractAddress": null
    },
    {
      "status": "0x1",
      "cumulativeGasUsed": "0x180a5ae",
      "logs": [
        {
          "address": "0x3c690ec3b2524104de269bf0f9baa7f045ef8270",
          "topics": [
            "0xa7e775663e2a425eb025700e66923142815918016f708c7ae545e2ebf1477bdc",
            "0x0000000000000000000000000000000000000000000000000000000000000000",
            "0x0000000000000000000000006084a02c2ac0127ddf1e617de257c61480a2aee0"
          ],
          "data": "0x",
          "blockHash": "0xb0527b062d6385881cce8775e2a05e62df228f01bde93c1381b617a90f44cd4d",
          "blockNumber": "0x181d764",
          "blockTimestamp": "0x6a293e9f",
          "transactionHash": "0x39e836c5a4b0bc05d61ebedbe0e9131d055e3cc4da7505494714402a62ed2e31",
          "transactionIndex": "0xfa",
          "logIndex": "0x335",
          "removed": false
        }
      ],
      "logsBloom": "0x00000000000000000000000000000000000000000000000000000000000000000000000000000000000000000000000002000000000000000000000000040000000000000000000000000000000000000000000000000000000000000000000000000008020000000000000400000800000000000000000000000000000000000000000000000080000000000000000000000000000000000000000000000000000000000000000000000020000000000000000000000040000000080000000000000000000000000000000000000000000000000000400000000000000020000000000000000000000000000000000000000000000000000000000000000000",
      "type": "0x2",
      "transactionHash": "0x39e836c5a4b0bc05d61ebedbe0e9131d055e3cc4da7505494714402a62ed2e31",
      "transactionIndex": "0xfa",
      "blockHash": "0xb0527b062d6385881cce8775e2a05e62df228f01bde93c1381b617a90f44cd4d",
      "blockNumber": "0x181d764",
      "gasUsed": "0xbb9f",
      "effectiveGasPrice": "0x8331c9e",
      "from": "0xcad1a7864a108dbff67f4b8af71fab0c7a86d0b6",
      "to": "0x3c690ec3b2524104de269bf0f9baa7f045ef8270",
      "contractAddress": null
    },
    {
      "status": "0x1",
      "cumulativeGasUsed": "0xfc0af9",
      "logs": [
        {
          "address": "0xa0b86991c6218b36c1d19d4a2e9eb0ce3606eb48",
          "topics": [
            "0x8c5be1e5ebec7d5bd14f71427d1e84f3dd0314c0f7b2291e5b200ac8c7c3b925",
            "0x0000000000000000000000003c690ec3b2524104de269bf0f9baa7f045ef8270",
            "0x0000000000000000000000006084a02c2ac0127ddf1e617de257c61480a2aee0"
          ],
          "data": "0xffffffffffffffffffffffffffffffffffffffffffffffffffffffffffffffff",
          "blockHash": "0x100e9de7415a0e2c46cf57dcb70bfcec0d04e66d4ff066b467f8fc6b48dc4d7a",
          "blockNumber": "0x181d765",
          "blockTimestamp": "0x6a293eab",
          "transactionHash": "0xcba33c5189eee5cde8eaec98866322b92478cc98ab3eb0ca854725a3e88721be",
          "transactionIndex": "0xc4",
          "logIndex": "0x24b",
          "removed": false
        }
      ],
      "logsBloom": "0x00000000000000000000000000000000000000000000000000000000000000200000000000000000000000000000000000000000000000000000000000200000000000000000000008000000000000000000000000000000000000200000000000000008000000000000000000000000000000000000000000000000000000000000000000000000000000000000000000000000010000000000000000000000020000000000200000000020000000000000000000000140000000000000000000000000000000000000000000000000000000000000000000000000000000000010000000000000000000000000000000000000000000000000000000000000",
      "type": "0x2",
      "transactionHash": "0xcba33c5189eee5cde8eaec98866322b92478cc98ab3eb0ca854725a3e88721be",
      "transactionIndex": "0xc4",
      "blockHash": "0x100e9de7415a0e2c46cf57dcb70bfcec0d04e66d4ff066b467f8fc6b48dc4d7a",
      "blockNumber": "0x181d765",
      "gasUsed": "0xffaa",
      "effectiveGasPrice": "0x858cf8f",
      "from": "0xcad1a7864a108dbff67f4b8af71fab0c7a86d0b6",
      "to": "0x3c690ec3b2524104de269bf0f9baa7f045ef8270",
      "contractAddress": null
    },
    {
      "status": "0x1",
      "cumulativeGasUsed": "0x1d89f4f",
      "logs": [
        {
          "address": "0x3c690ec3b2524104de269bf0f9baa7f045ef8270",
          "topics": [
            "0xa4795e14b1c917ddad7be29b25eaa17e823ed7d0efa398a75d645b11b8476a48",
            "0x0000000000000000000000000000000000000000000000000000000000000000",
            "0x00000000000000000000000039af088408e815844c567037c157b31d48d2e10f"
          ],
          "data": "0x",
          "blockHash": "0x87c19a6c7d4849d5740433c589499a05afa6652be33ad9ab8ffaf637f56c36af",
          "blockNumber": "0x181d767",
          "blockTimestamp": "0x6a293ec3",
          "transactionHash": "0x8ab66bc437956cae308b2694952023c13edecaadfe66679204f8f7d5931fb79f",
          "transactionIndex": "0xc6",
          "logIndex": "0x3a2",
          "removed": false
        }
      ],
      "logsBloom": "0x000000000000000000000000000000000002000000000000000000000000000000000000000000000000000000000000020000000000000000000000000000000000000040000000000000000000000000000000000000000000000000000000000000000200000000000000000008000000000000000000000000000000000000000000000000000000000000000000000000000000000000000000000000000000000000004000000000000000400000000000000000000000000800000000000000000000000000000000000000000000000000004000000000000000200000000000000000000000000000a0000000000000000000000000000000000000",
      "type": "0x2",
      "transactionHash": "0x8ab66bc437956cae308b2694952023c13edecaadfe66679204f8f7d5931fb79f",
      "transactionIndex": "0xc6",
      "blockHash": "0x87c19a6c7d4849d5740433c589499a05afa6652be33ad9ab8ffaf637f56c36af",
      "blockNumber": "0x181d767",
      "gasUsed": "0xbac0",
      "effectiveGasPrice": "0x7faf4ce",
      "from": "0xcad1a7864a108dbff67f4b8af71fab0c7a86d0b6",
      "to": "0x3c690ec3b2524104de269bf0f9baa7f045ef8270",
      "contractAddress": null
    },
    {
      "status": "0x1",
      "cumulativeGasUsed": "0x20231f2",
      "logs": [
        {
          "address": "0x3c690ec3b2524104de269bf0f9baa7f045ef8270",
          "topics": [
            "0xb94dcf2c9ff6813b44ddb73cffafcc975ecb6a70ad6d75e2ed65495b201a419e",
            "0x0000000000000000000000000000000000000000000000000000000000000000",
            "0x00000000000000000000000086866e01a115c17892ed04c548f2e8638851029d"
          ],
          "data": "0x",
          "blockHash": "0xb1a4d484f06c7ecd54858cded38a60fc46a4a28b9cf85eb1f5e4d3e97246a000",
          "blockNumber": "0x181d76b",
          "blockTimestamp": "0x6a293ef3",
          "transactionHash": "0xeee45fea1c7792260fe9ce0a90e0ca070c10e4da341c226cbccc9693cd4cb712",
          "transactionIndex": "0x182",
          "logIndex": "0x46f",
          "removed": false
        }
      ],
      "logsBloom": "0x00000080000000000000000000000000000000000000000000000000000000000000000000000000000000000000000002400000000000000000000000000000000000000000000000000000000000000000000000000000000000000000000000000000020000000000000000000800000000000000000000000000000004000000000000000000000000000000000000000000000000010000000000000000000000000000000000000000000000000000000000000000000000080000000000008000000001000000000000000000000000000000400000000000000020000000000000000000000000000000000000000000000000000000000000000000",
      "type": "0x2",
      "transactionHash": "0xeee45fea1c7792260fe9ce0a90e0ca070c10e4da341c226cbccc9693cd4cb712",
      "transactionIndex": "0x182",
      "blockHash": "0xb1a4d484f06c7ecd54858cded38a60fc46a4a28b9cf85eb1f5e4d3e97246a000",
      "blockNumber": "0x181d76b",
      "gasUsed": "0xb9b8",
      "effectiveGasPrice": "0x771695d",
      "from": "0xcad1a7864a108dbff67f4b8af71fab0c7a86d0b6",
      "to": "0x3c690ec3b2524104de269bf0f9baa7f045ef8270",
      "contractAddress": null
    },
    {
      "status": "0x1",
      "cumulativeGasUsed": "0x18eca95",
      "logs": [
        {
          "address": "0x3c690ec3b2524104de269bf0f9baa7f045ef8270",
          "topics": [
            "0xc4df7cf7130f9356fe3a29a136c893959b0cdf945bc850d1829b45df203e3ee6"
          ],
          "data": "0x00000000000000000000000000000000000000000000000000000000000000000000000000000000000000000000000000000000000000000000000000000014",
          "blockHash": "0xc6d983eac4524760062a0ac8f306965f13d0d7b418535c761ea73f08d4c146ca",
          "blockNumber": "0x181d76c",
          "blockTimestamp": "0x6a293eff",
          "transactionHash": "0x187a41924ba892c7d9501e0cf761bbadd1f17f256f8244b49a064c082017ac60",
          "transactionIndex": "0xdc",
          "logIndex": "0x250",
          "removed": false
        }
      ],
      "logsBloom": "0x00000000000000000000000000000000000000000000000000000000000000000000000000000000000000000000000002000000000000000000000000000000000000000000000000000000000000000000000040000000000000000000000000000000000000000000000000000000000000000000000000000000000000000000000000000001000000000000000000000000000000000000000000000000000000000000000000000000000000000000000000000000000000080000000000000000000000000000000000000000000000000000400000000000000000400000000000000000000000000000000000000000000000000000000000000000",
      "type": "0x2",
      "transactionHash": "0x187a41924ba892c7d9501e0cf761bbadd1f17f256f8244b49a064c082017ac60",
      "transactionIndex": "0xdc",
      "blockHash": "0xc6d983eac4524760062a0ac8f306965f13d0d7b418535c761ea73f08d4c146ca",
      "blockNumber": "0x181d76c",
      "gasUsed": "0xba87",
      "effectiveGasPrice": "0x7d17f0d",
      "from": "0xcad1a7864a108dbff67f4b8af71fab0c7a86d0b6",
      "to": "0x3c690ec3b2524104de269bf0f9baa7f045ef8270",
      "contractAddress": null
    },
    {
      "status": "0x1",
      "cumulativeGasUsed": "0x1282be2",
      "logs": [
        {
          "address": "0x3c690ec3b2524104de269bf0f9baa7f045ef8270",
          "topics": [
            "0x1ff153f4b082245afbf3211a8d2d207da4c5df490e965f9a9ad141b0cd001dda",
            "0x0000000000000000000000000000000000000000000000000000000000000000",
            "0x0000000000000000000000007c5a8eef1d836450c019fb036453ac6ec97885a3"
          ],
          "data": "0x",
          "blockHash": "0xd4ace527017be2369969f6566eca3b647dabd6cbb0719e5f2b66e4778ec51505",
          "blockNumber": "0x181d76d",
          "blockTimestamp": "0x6a293f0b",
          "transactionHash": "0x58058debba34e4ce0c3d80ef0682f982ccde9481d665fcdaea779e33ebe555c8",
          "transactionIndex": "0x102",
          "logIndex": "0x185",
          "removed": false
        }
      ],
      "logsBloom": "0x00000001000000000000000000000000000000000000000000000000000000000000000000000000000000000000000002000000200000000000000000000000000000000000000000000000000000000000000000000000000000000000000000000000020000000000080000000800000000000000000000000000000000000000000000000000000000000000000000000000000000000000000000000000000000000000000000400000000000000000000000000000000000080000000000000000000000000000000000000400000000000000400000000000000020000000000000000000000000000000000010000000000000000000000000000000",
      "type": "0x2",
      "transactionHash": "0x58058debba34e4ce0c3d80ef0682f982ccde9481d665fcdaea779e33ebe555c8",
      "transactionIndex": "0x102",
      "blockHash": "0xd4ace527017be2369969f6566eca3b647dabd6cbb0719e5f2b66e4778ec51505",
      "blockNumber": "0x181d76d",
      "gasUsed": "0xb9a2",
      "effectiveGasPrice": "0x7bcb5c5",
      "from": "0xcad1a7864a108dbff67f4b8af71fab0c7a86d0b6",
      "to": "0x3c690ec3b2524104de269bf0f9baa7f045ef8270",
      "contractAddress": null
    },
    {
      "status": "0x1",
      "cumulativeGasUsed": "0xfcea75",
      "logs": [
        {
          "address": "0x3c690ec3b2524104de269bf0f9baa7f045ef8270",
          "topics": [
            "0x58e9aed9f5d55d3f9514533a98d34269ea1369f4f0f27c5600146f9c8dca770f",
            "0x000000000000000000000000865377367054516e17014ccded1e7d814edc9ce4"
          ],
          "data": "0x00000000000000000000000000000000000000000000000000000000000000120000000000000000000000000000000000000000000000000de0b6b3a7640000",
          "blockHash": "0x3e1f8d50af72fbc1cfb38a0e417876744d180ae37cbbcde091db4be80d9c7434",
          "blockNumber": "0x181d76f",
          "blockTimestamp": "0x6a293f23",
          "transactionHash": "0xe8c031753f61b4b564f3efb96b1fc625df62ddebcce3457a8c6e9da37d0611f1",
          "transactionIndex": "0xbd",
          "logIndex": "0x19a",
          "removed": false
        }
      ],
      "logsBloom": "0x00000000000000000000000000000000000000000000000000000000000000000000000000000000000000000000000002000000000000000000000000000000000000000000000000000000000000000000000000000000000000000000000000000000000000000000000000000000000000000000000000000010000200000000000000000000000000000000000000000000000000000000000000010000000000000000000000000000000000000000000004000000000000080000000000000000001000000000000000000000000000020000400000000000000000000000000000000000000000000000000000000000000000000000000000000000",
      "type": "0x2",
      "transactionHash": "0xe8c031753f61b4b564f3efb96b1fc625df62ddebcce3457a8c6e9da37d0611f1",
      "transactionIndex": "0xbd",
      "blockHash": "0x3e1f8d50af72fbc1cfb38a0e417876744d180ae37cbbcde091db4be80d9c7434",
      "blockNumber": "0x181d76f",
      "gasUsed": "0x11340",
      "effectiveGasPrice": "0x7a8fb25",
      "from": "0xcad1a7864a108dbff67f4b8af71fab0c7a86d0b6",
      "to": "0x3c690ec3b2524104de269bf0f9baa7f045ef8270",
      "contractAddress": null
    },
    {
      "status": "0x1",
      "cumulativeGasUsed": "0x13da0f0",
      "logs": [
        {
          "address": "0x3c690ec3b2524104de269bf0f9baa7f045ef8270",
          "topics": [
            "0x58e9aed9f5d55d3f9514533a98d34269ea1369f4f0f27c5600146f9c8dca770f",
            "0x0000000000000000000000004c9edd5852cd905f086c759e8383e09bff1e68b3"
          ],
          "data": "0x00000000000000000000000000000000000000000000000000000000000000120000000000000000000000000000000000000000000000000de0b6b3a7640000",
          "blockHash": "0x7b4102d0b01b5b96e6cd9a4e726c83e41a2281ad0d9e1a04d361f7b95ef42e91",
          "blockNumber": "0x181d770",
          "blockTimestamp": "0x6a293f2f",
          "transactionHash": "0xa106b8e7f456deead532ec0d4ca78bed8bffdcf2f33bd9f7c9690a1df83dbcde",
          "transactionIndex": "0xd5",
          "logIndex": "0x2eb",
          "removed": false
        }
      ],
      "logsBloom": "0x00000000000000000000000000000000000000000000000000000000000000000000000000000000000000000000000002000000000000000000000000000000000000000000000000000000000000000000000000000000000000000000000000000000000000000000000000000000000000000000000000000000000200000000000000000000000000000000000000000001000000000000000000010000000000000000000000000000000000000000000004000000000000080000020000000000000000000000000000000000000000000000400000000000000000000000000000000000000000000000080000000000000000000000000000000000",
      "type": "0x2",
      "transactionHash": "0xa106b8e7f456deead532ec0d4ca78bed8bffdcf2f33bd9f7c9690a1df83dbcde",
      "transactionIndex": "0xd5",
      "blockHash": "0x7b4102d0b01b5b96e6cd9a4e726c83e41a2281ad0d9e1a04d361f7b95ef42e91",
      "blockNumber": "0x181d770",
      "gasUsed": "0x11340",
      "effectiveGasPrice": "0x7c2ac33",
      "from": "0xcad1a7864a108dbff67f4b8af71fab0c7a86d0b6",
      "to": "0x3c690ec3b2524104de269bf0f9baa7f045ef8270",
      "contractAddress": null
    },
    {
      "status": "0x1",
      "cumulativeGasUsed": "0x1fa3406",
      "logs": [
        {
          "address": "0x3c690ec3b2524104de269bf0f9baa7f045ef8270",
          "topics": [
            "0x58e9aed9f5d55d3f9514533a98d34269ea1369f4f0f27c5600146f9c8dca770f",
            "0x000000000000000000000000a0b86991c6218b36c1d19d4a2e9eb0ce3606eb48"
          ],
          "data": "0x00000000000000000000000000000000000000000000000000000000000000060000000000000000000000000000000000000000000000000de0b6b3a7640000",
          "blockHash": "0x0a61794d660d61c8a4c8106bd80c10fbfd07864f3cc2485c5d806f13acdba862",
          "blockNumber": "0x181d773",
          "blockTimestamp": "0x6a293f53",
          "transactionHash": "0x2556b78387737a863b8536af30dcbf6e5289c2123901865522eefa600a7fce64",
          "transactionIndex": "0xed",
          "logIndex": "0x4ed",
          "removed": false
        }
      ],
      "logsBloom": "0x00000000000000000000000000000000000000000000000000000000000000000000000000000000000002000000000002000000000000000000000000000000000000000000000000000000000000000000000000000000000000000000000000000000000000000000000000000000000000000000000000000000000200000000000000000000000000000000000200000000000000000000000000010000000000000000000000000000000000000000000004000000000000080000000000000000000000000000000000000000000000000000400000000000000000000000000000000000000000000000000004000000000000000000000000000000",
      "type": "0x2",
      "transactionHash": "0x2556b78387737a863b8536af30dcbf6e5289c2123901865522eefa600a7fce64",
      "transactionIndex": "0xed",
      "blockHash": "0x0a61794d660d61c8a4c8106bd80c10fbfd07864f3cc2485c5d806f13acdba862",
      "blockNumber": "0x181d773",
      "gasUsed": "0x11340",
      "effectiveGasPrice": "0x7c289e8",
      "from": "0xcad1a7864a108dbff67f4b8af71fab0c7a86d0b6",
      "to": "0x3c690ec3b2524104de269bf0f9baa7f045ef8270",
      "contractAddress": null
    },
    {
      "status": "0x1",
      "cumulativeGasUsed": "0x1571935",
      "logs": [
        {
          "address": "0x3c690ec3b2524104de269bf0f9baa7f045ef8270",
          "topics": [
            "0xdc4b546afdb935e93f993a347dbbab9b6a533a7c1ab745d14e05163767d5b10a",
            "0x00000000000000000000000090ce274b20a2af4265152b369d09ce6e6dc177f9"
          ],
          "data": "0x",
          "blockHash": "0x28352004344f868ebefd4588afdf9a70d569a6e8812b7c249f879665ac4f8db8",
          "blockNumber": "0x181d774",
          "blockTimestamp": "0x6a293f5f",
          "transactionHash": "0x9448dd3df8d6088b0f3e4d7c1fa0b3f8c1b3294d947a0c8f3e42b64265cc6e8f",
          "transactionIndex": "0x8e",
          "logIndex": "0x27b",
          "removed": false
        }
      ],
      "logsBloom": "0x00000000000000000000000000000000000000000000000000020000000000000000000000104000000000000000000002000000000000000004000000000000000000000000000000000000000000000000000000000000000000000000000000000000000000000000000000000000000000000000000000000000000000000000000000000000000000000000000000000000000000000000000000000000000000000000000000000000000000000000000000000000000000080000000000000000000000000000000000000000000000080000400000000000000004000000000000000000000000000000000000000000000000000000000000000000",
      "type": "0x2",
      "transactionHash": "0x9448dd3df8d6088b0f3e4d7c1fa0b3f8c1b3294d947a0c8f3e42b64265cc6e8f",
      "transactionIndex": "0x8e",
      "blockHash": "0x28352004344f868ebefd4588afdf9a70d569a6e8812b7c249f879665ac4f8db8",
      "blockNumber": "0x181d774",
      "gasUsed": "0x1c008",
      "effectiveGasPrice": "0x7fcc3da",
      "from": "0xcad1a7864a108dbff67f4b8af71fab0c7a86d0b6",
      "to": "0x3c690ec3b2524104de269bf0f9baa7f045ef8270",
      "contractAddress": null
    },
    {
      "status": "0x1",
      "cumulativeGasUsed": "0x1915076",
      "logs": [
        {
          "address": "0x3c690ec3b2524104de269bf0f9baa7f045ef8270",
          "topics": [
            "0xdc4b546afdb935e93f993a347dbbab9b6a533a7c1ab745d14e05163767d5b10a",
            "0x000000000000000000000000ac2e5936eca286ec364d4d5bcca33145fbe57f95"
          ],
          "data": "0x",
          "blockHash": "0x90f477a5c769a630b2cd868f929cbd3f91303160bb22994095bf056201bad469",
          "blockNumber": "0x181d776",
          "blockTimestamp": "0x6a293f77",
          "transactionHash": "0x218baaf0771ae490e651ebb296dc4f97d0385eb6fa9adb1a4ed1a8ab6b73090a",
          "transactionIndex": "0xd1",
          "logIndex": "0x200",
          "removed": false
        }
      ],
      "logsBloom": "0x00000000000000000000000000000000000000000000000000000000000000000000000000104004000000000000000002000000000000000004000000000000000040000000000008000000000000000000000000000000000000000000000000000000000000000000000000000000000000000000000000000000000000000000000000000000000000000000000000000000000000000000000000000000000000000000000000000000000000000000000000000000000000080000000000000000000000000000000000000000000000000000400000000000000000000000000000000000000000000000000000000000000000000000000000000000",
      "type": "0x2",
      "transactionHash": "0x218baaf0771ae490e651ebb296dc4f97d0385eb6fa9adb1a4ed1a8ab6b73090a",
      "transactionIndex": "0xd1",
      "blockHash": "0x90f477a5c769a630b2cd868f929cbd3f91303160bb22994095bf056201bad469",
      "blockNumber": "0x181d776",
      "gasUsed": "0x17d3c",
      "effectiveGasPrice": "0x7c76fa4",
      "from": "0xcad1a7864a108dbff67f4b8af71fab0c7a86d0b6",
      "to": "0x3c690ec3b2524104de269bf0f9baa7f045ef8270",
      "contractAddress": null
    },
    {
      "status": "0x1",
      "cumulativeGasUsed": "0x1667732",
      "logs": [
        {
          "address": "0x3c690ec3b2524104de269bf0f9baa7f045ef8270",
          "topics": [
            "0xdc4b546afdb935e93f993a347dbbab9b6a533a7c1ab745d14e05163767d5b10a",
            "0x00000000000000000000000090af002ee537ad5c2c9817ebd4ef22b2e8952470"
          ],
          "data": "0x",
          "blockHash": "0xb8a2c0cc34ded7345cd356a946dd3d19ac32ab3bcb7da0317cd596a7ef91fdb6",
          "blockNumber": "0x181d777",
          "blockTimestamp": "0x6a293f83",
          "transactionHash": "0x602f27cdc6f05d9e3f21fce3335064be274f04644da8fa10479126860e8a0f4d",
          "transactionIndex": "0xed",
          "logIndex": "0x275",
          "removed": false
        }
      ],
      "logsBloom": "0x00000000000000000000000000000000000000000000000000000000000000000000000000104000000000000000000002000000000000000004000000000000000000000000000000000000000000000000000000000000000000000000000000000000000000000000000000000000000000000000000000000000000000000000000000000000000000000000000000000000000000000000000000000000000000000000000000000000000000000000000000004000000000080000000000000000000000000000008000000000000000000000400000000000000000000000000000000000000000000000000000000000000400000000000000000000",
      "type": "0x2",
      "transactionHash": "0x602f27cdc6f05d9e3f21fce3335064be274f04644da8fa10479126860e8a0f4d",
      "transactionIndex": "0xed",
      "blockHash": "0xb8a2c0cc34ded7345cd356a946dd3d19ac32ab3bcb7da0317cd596a7ef91fdb6",
      "blockNumber": "0x181d777",
      "gasUsed": "0x17d30",
      "effectiveGasPrice": "0x7da6f56",
      "from": "0xcad1a7864a108dbff67f4b8af71fab0c7a86d0b6",
      "to": "0x3c690ec3b2524104de269bf0f9baa7f045ef8270",
      "contractAddress": null
    },
    {
      "status": "0x1",
      "cumulativeGasUsed": "0x1624d3f",
      "logs": [
        {
          "address": "0x3c690ec3b2524104de269bf0f9baa7f045ef8270",
          "topics": [
            "0xbde6b2554a797ee1ab75b4f90ad50200dcd2a80165488896faacd30a0a013174"
          ],
          "data": "0x00000000000000000000000000000000000000000000000000000000000000000000000000000000000000000000000000000000000000000000000000000bb8",
          "blockHash": "0x73bd4221f4407d9d0e6de45bb254231b4e867e57ec0d5597d46cb7995c280250",
          "blockNumber": "0x181d778",
          "blockTimestamp": "0x6a293f8f",
          "transactionHash": "0x51bc36cb8b0950f8df0fb6b88c889274f75e9916d60e74cbf75ef5ea230fd8c5",
          "transactionIndex": "0x98",
          "logIndex": "0x471",
          "removed": false
        }
      ],
      "logsBloom": "0x00000000000000000000000000000000000000000000000000000000000000000000000000000000000000000000000002004000000000000000000000000000000000000000000000000000000000000000000000000000000000000000000000000000000000000000100000000000000000000000000000000000000000000000000000000000000000000000000000000000000000000000000000000000000000000000000000000000000000000000000000000000000000080000000000000000000000000000000000000000000000000000400000010000000000000000000000000000000000000000000000000000000000000000000000000000",
      "type": "0x2",
      "transactionHash": "0x51bc36cb8b0950f8df0fb6b88c889274f75e9916d60e74cbf75ef5ea230fd8c5",
      "transactionIndex": "0x98",
      "blockHash": "0x73bd4221f4407d9d0e6de45bb254231b4e867e57ec0d5597d46cb7995c280250",
      "blockNumber": "0x181d778",
      "gasUsed": "0xb8f6",
      "effectiveGasPrice": "0x7c7b225",
      "from": "0xcad1a7864a108dbff67f4b8af71fab0c7a86d0b6",
      "to": "0x3c690ec3b2524104de269bf0f9baa7f045ef8270",
      "contractAddress": null
    },
    {
      "status": "0x1",
      "cumulativeGasUsed": "0x144c6c3",
      "logs": [
        {
          "address": "0x90ce274b20a2af4265152b369d09ce6e6dc177f9",
          "topics": [
            "0x5c8df9226b5390a36c31cb0bb75ccd51f1106fc9c93332f6305e2a4a7ae4e771",
            "0x0000000000000000000000003c690ec3b2524104de269bf0f9baa7f045ef8270"
          ],
          "data": "0x0000000000000000000000000000000000000000000000000000000000000001",
          "blockHash": "0x9bd178446b71edb524870145ab8083508ee7edd0fd3d445f9454ff8c52509d6c",
          "blockNumber": "0x181d77a",
          "blockTimestamp": "0x6a293fa7",
          "transactionHash": "0xcfc7cb85f9224e8db080c5435ac28fe949aa5cd7b6172480dbe3213391e48361",
          "transactionIndex": "0xc3",
          "logIndex": "0x37c",
          "removed": false
        }
      ],
      "logsBloom": "0x00000000000000000000000000000000000002000000000000000000000000200000000000000000000000000000000000000000000000000000000000000000000000000000000000000000000000000000000000000000000400200000000000000000000000000000000000000000000000000000000000000000000000000000000000000000000000000000000000000000000000000000000000000000000000000000000000000000000400000000000000000100000000000000000000000000000000002000000000000000000000000080000000000000000000000200000000000000000000000000000000000000000000000000000000000000",
      "type": "0x2",
      "transactionHash": "0xcfc7cb85f9224e8db080c5435ac28fe949aa5cd7b6172480dbe3213391e48361",
      "transactionIndex": "0xc3",
      "blockHash": "0x9bd178446b71edb524870145ab8083508ee7edd0fd3d445f9454ff8c52509d6c",
      "blockNumber": "0x181d77a",
      "gasUsed": "0xbbe3",
      "effectiveGasPrice": "0x789384c",
      "from": "0xcad1a7864a108dbff67f4b8af71fab0c7a86d0b6",
      "to": "0x90ce274b20a2af4265152b369d09ce6e6dc177f9",
      "contractAddress": null
    },
    {
      "status": "0x1",
      "cumulativeGasUsed": "0x191c1e7",
      "logs": [
        {
          "address": "0x90ce274b20a2af4265152b369d09ce6e6dc177f9",
          "topics": [
            "0x5c8df9226b5390a36c31cb0bb75ccd51f1106fc9c93332f6305e2a4a7ae4e771",
            "0x0000000000000000000000003bbe928340c61a65cb6c4a87b3fb59b6f3f7606a"
          ],
          "data": "0x0000000000000000000000000000000000000000000000000000000000000000",
          "blockHash": "0xfa292049a7e072a255ca07c70cbc4155ab37f4c93370eb72ce950e618efdb592",
          "blockNumber": "0x181d78a",
          "blockTimestamp": "0x6a294067",
          "transactionHash": "0x3143e510034a05dc80ca635342dfdd0aa5ad2f8f2ffec33f84ef63bfb1eabbe8",
          "transactionIndex": "0xec",
          "logIndex": "0x359",
          "removed": false
        }
      ],
      "logsBloom": "0x00000000000000000000000000000000000002000000000000000000000000000000000000000000000000000000000000000000000000000000000000000000000000000000000000000000000000000000000000000000000400000000000000000000000000000000000000000000000000000000000000000000000000000000000000000000000000000000000000000000000000000000000000000000000000000000000000000000000400000000000000000000000000000000000000000000000000002400000002000000000000002080000000000000000000000200000000000000000000000000000000000000000000000000000000000000",
      "type": "0x2",
      "transactionHash": "0x3143e510034a05dc80ca635342dfdd0aa5ad2f8f2ffec33f84ef63bfb1eabbe8",
      "transactionIndex": "0xec",
      "blockHash": "0xfa292049a7e072a255ca07c70cbc4155ab37f4c93370eb72ce950e618efdb592",
      "blockNumber": "0x181d78a",
      "gasUsed": "0x664b",
      "effectiveGasPrice": "0x7761a15",
      "from": "0xcad1a7864a108dbff67f4b8af71fab0c7a86d0b6",
      "to": "0x90ce274b20a2af4265152b369d09ce6e6dc177f9",
      "contractAddress": null
    },
    {
      "status": "0x1",
      "cumulativeGasUsed": "0xf8cab7",
      "logs": [
        {
          "address": "0x90ce274b20a2af4265152b369d09ce6e6dc177f9",
          "topics": [
            "0x7f5fae2f2ea0d248c289f00cb1738844937f7fe3bd3c11357de14780c9805b9a",
            "0x000000000000000000000000435b0a1884bd0fb5667677c9eb0e59425b1477e5"
          ],
          "data": "0x00000000000000000000000000000000000000000000000000000000000000000000000000000000000000000000000000000000000000000000000000000019",
          "blockHash": "0x7d57f5d3f0a7f8654719fd8084c16d1fa9a0bbe32c9210c4394a80465b5932d0",
          "blockNumber": "0x181d78b",
          "blockTimestamp": "0x6a294073",
          "transactionHash": "0xbd1c818da210b32266af854071c4284dfb36b50aae17823184e5ddd0b8e73648",
          "transactionIndex": "0xc6",
          "logIndex": "0x262",
          "removed": false
        }
      ],
      "logsBloom": "0x00000000000000000000000000000000000002000000000000000000000000000000000000000000000000000000082000000000000000000000000000000000000000000000000000000000000000001000000000000000000000000000000000000000000000000000000000000000000000000000000000000000000000000100000000000000000000000000000000000000001000000000000000000000000000000000000000000000000000000000000000000000000000000000000000000004000000002000000000000000000000000000000000000000000000000200000000000000000000000000000000000000000000000000000000000000",
      "type": "0x2",
      "transactionHash": "0xbd1c818da210b32266af854071c4284dfb36b50aae17823184e5ddd0b8e73648",
      "transactionIndex": "0xc6",
      "blockHash": "0x7d57f5d3f0a7f8654719fd8084c16d1fa9a0bbe32c9210c4394a80465b5932d0",
      "blockNumber": "0x181d78b",
      "gasUsed": "0xbd8e",
      "effectiveGasPrice": "0x75e644b",
      "from": "0xcad1a7864a108dbff67f4b8af71fab0c7a86d0b6",
      "to": "0x90ce274b20a2af4265152b369d09ce6e6dc177f9",
      "contractAddress": null
    },
    {
      "status": "0x1",
      "cumulativeGasUsed": "0x2121490",
      "logs": [
        {
          "address": "0x90ce274b20a2af4265152b369d09ce6e6dc177f9",
          "topics": [
            "0x7f5fae2f2ea0d248c289f00cb1738844937f7fe3bd3c11357de14780c9805b9a",
            "0x000000000000000000000000bce8abc09baedcabe93419bf875f6186e182079a"
          ],
          "data": "0x000000000000000000000000000000000000000000000000000000000000000a0000000000000000000000000000000000000000000000000000000000000019",
          "blockHash": "0xda8967de06e50dd92c211aee139364e27108cc987b0fcda4d4331a626b0070d3",
          "blockNumber": "0x181d78d",
          "blockTimestamp": "0x6a29408b",
          "transactionHash": "0x68632a1bcc4ed781c28d6556441a30d3e9e1319463333626d99d3e6da58dd0a4",
          "transactionIndex": "0x164",
          "logIndex": "0x326",
          "removed": false
        }
      ],
      "logsBloom": "0x00000000000000000000000000000000000002000000000000000000000000000000000000000000000000000000002000000000000000000000000000000000000000000000000000000000000000001000000000000000000000000000000000000000800000000000000000000000000000000000000000000000000000000000000000000000000000000000000000000000001000000000000000000000008000000000000000000000000000000000000000000000000000000000000000000000000000002000000000000000000000000000000000000000000000000200000000000000000000000000000000000000000000000000000000800000",
      "type": "0x2",
      "transactionHash": "0x68632a1bcc4ed781c28d6556441a30d3e9e1319463333626d99d3e6da58dd0a4",
      "transactionIndex": "0x164",
      "blockHash": "0xda8967de06e50dd92c211aee139364e27108cc987b0fcda4d4331a626b0070d3",
      "blockNumber": "0x181d78d",
      "gasUsed": "0x7ac2",
      "effectiveGasPrice": "0x7dc256b",
      "from": "0xcad1a7864a108dbff67f4b8af71fab0c7a86d0b6",
      "to": "0x90ce274b20a2af4265152b369d09ce6e6dc177f9",
      "contractAddress": null
    },
    {
      "status": "0x1",
      "cumulativeGasUsed": "0x282050f",
      "logs": [
        {
          "address": "0xac2e5936eca286ec364d4d5bcca33145fbe57f95",
          "topics": [
            "0x5c8df9226b5390a36c31cb0bb75ccd51f1106fc9c93332f6305e2a4a7ae4e771",
            "0x0000000000000000000000003c690ec3b2524104de269bf0f9baa7f045ef8270"
          ],
          "data": "0x0000000000000000000000000000000000000000000000000000000000000001",
          "blockHash": "0x4109787d6ff974a299664554217c50d2b0cd5efce561e330f365695398a7902c",
          "blockNumber": "0x181d78f",
          "blockTimestamp": "0x6a2940a3",
          "transactionHash": "0xcd54dfbaa453c35d4a0ef45d9a9cb0a4ceda93317c7430a1483a75749bd12d6a",
          "transactionIndex": "0x127",
          "logIndex": "0x54f",
          "removed": false
        }
      ],
      "logsBloom": "0x00000000000000000000000000000000001000000000000000000000000000200000000000000000000000000000000000000000000000000000000000000000000000000000004000000000010000000000000000000000000400200000000000000000000000000000000000000000000000000000000000000000000000000000000000000000000000000000000000000000000000000000000000000000000000000000000000000000000400000000000000000100000000000000000000000000000000000000000000000000000000000080000000000000000000000000000000000000000000000000000000000000000000000000000000000000",
      "type": "0x2",
      "transactionHash": "0xcd54dfbaa453c35d4a0ef45d9a9cb0a4ceda93317c7430a1483a75749bd12d6a",
      "transactionIndex": "0x127",
      "blockHash": "0x4109787d6ff974a299664554217c50d2b0cd5efce561e330f365695398a7902c",
      "blockNumber": "0x181d78f",
      "gasUsed": "0xbc0f",
      "effectiveGasPrice": "0x7871359",
      "from": "0xcad1a7864a108dbff67f4b8af71fab0c7a86d0b6",
      "to": "0xac2e5936eca286ec364d4d5bcca33145fbe57f95",
      "contractAddress": null
    },
    {
      "status": "0x1",
      "cumulativeGasUsed": "0x1e61b42",
      "logs": [
        {
          "address": "0xac2e5936eca286ec364d4d5bcca33145fbe57f95",
          "topics": [
            "0x5c8df9226b5390a36c31cb0bb75ccd51f1106fc9c93332f6305e2a4a7ae4e771",
            "0x0000000000000000000000003bbe928340c61a65cb6c4a87b3fb59b6f3f7606a"
          ],
          "data": "0x0000000000000000000000000000000000000000000000000000000000000000",
          "blockHash": "0x2f88ae27e37bd6b5cc65edd3cf2d3dcf755cb6f0ec60a077e36245892b0222f3",
          "blockNumber": "0x181d790",
          "blockTimestamp": "0x6a2940af",
          "transactionHash": "0x883a7705bb58e1bc04be30dc93e3b42eddf1cab6f6174a747da414717a78a944",
          "transactionIndex": "0xf0",
          "logIndex": "0x2da",
          "removed": false
        }
      ],
      "logsBloom": "0x00000000000000000000000000000000001000000000000000000000000000000000000000000000000000000000000000000000000000000000000000000000000000000000004000000000010000000000000000000000000400000000000000000000000000000000000000000000000000000000000000000000000000000000000000000000000000000000000000000000000000000000000000000000000000000000000000000000000400000000000000000000000000000000000000000000000000000400000002000000000000002080000000000000000000000000000000000000000000000000000000000000000000000000000000000000",
      "type": "0x2",
      "transactionHash": "0x883a7705bb58e1bc04be30dc93e3b42eddf1cab6f6174a747da414717a78a944",
      "transactionIndex": "0xf0",
      "blockHash": "0x2f88ae27e37bd6b5cc65edd3cf2d3dcf755cb6f0ec60a077e36245892b0222f3",
      "blockNumber": "0x181d790",
      "gasUsed": "0x6677",
      "effectiveGasPrice": "0x82da787",
      "from": "0xcad1a7864a108dbff67f4b8af71fab0c7a86d0b6",
      "to": "0xac2e5936eca286ec364d4d5bcca33145fbe57f95",
      "contractAddress": null
    },
    {
      "status": "0x1",
      "cumulativeGasUsed": "0x1ff8335",
      "logs": [
        {
          "address": "0xac2e5936eca286ec364d4d5bcca33145fbe57f95",
          "topics": [
            "0x7f5fae2f2ea0d248c289f00cb1738844937f7fe3bd3c11357de14780c9805b9a",
            "0x000000000000000000000000435b0a1884bd0fb5667677c9eb0e59425b1477e5"
          ],
          "data": "0x00000000000000000000000000000000000000000000000000000000000000000000000000000000000000000000000000000000000000000000000000000019",
          "blockHash": "0x6a6e84a76847f38fe7e40efaae0b5a0d11fb4fca04b6af98900171ed7e806731",
          "blockNumber": "0x181d791",
          "blockTimestamp": "0x6a2940bb",
          "transactionHash": "0x792affcedde892bc708c9abc76070de549d7802cb0d1921077c1dd8536e049d9",
          "transactionIndex": "0x105",
          "logIndex": "0x384",
          "removed": false
        }
      ],
      "logsBloom": "0x00000000000000000000000000000000001000000000000000000000000000000000000000000000000000000000082000000000000000000000000000000000000000000000004000000000010000001000000000000000000000000000000000000000000000000000000000000000000000000000000000000000000000000100000000000000000000000000000000000000001000000000000000000000000000000000000000000000000000000000000000000000000000000000000000000004000000000000000000000000000000000000000000000000000000000000000000000000000000000000000000000000000000000000000000000000",
      "type": "0x2",
      "transactionHash": "0x792affcedde892bc708c9abc76070de549d7802cb0d1921077c1dd8536e049d9",
      "transactionIndex": "0x105",
      "blockHash": "0x6a6e84a76847f38fe7e40efaae0b5a0d11fb4fca04b6af98900171ed7e806731",
      "blockNumber": "0x181d791",
      "gasUsed": "0xbdd0",
      "effectiveGasPrice": "0x84e4e1b",
      "from": "0xcad1a7864a108dbff67f4b8af71fab0c7a86d0b6",
      "to": "0xac2e5936eca286ec364d4d5bcca33145fbe57f95",
      "contractAddress": null
    },
    {
      "status": "0x1",
      "cumulativeGasUsed": "0x1b95c63",
      "logs": [
        {
          "address": "0xac2e5936eca286ec364d4d5bcca33145fbe57f95",
          "topics": [
            "0x7f5fae2f2ea0d248c289f00cb1738844937f7fe3bd3c11357de14780c9805b9a",
            "0x000000000000000000000000bce8abc09baedcabe93419bf875f6186e182079a"
          ],
          "data": "0x000000000000000000000000000000000000000000000000000000000000000a0000000000000000000000000000000000000000000000000000000000000019",
          "blockHash": "0x1b86355211c418c3d4f2550e8e991fee3b18942e07f2ebe346d6eaa5017414fd",
          "blockNumber": "0x181d792",
          "blockTimestamp": "0x6a2940c7",
          "transactionHash": "0x7a5712037e781b1ae2380d93a12a6b1a2a8751900d88a1b271ceadf8fa70f31c",
          "transactionIndex": "0xbd",
          "logIndex": "0x302",
          "removed": false
        }
      ],
      "logsBloom": "0x00000000000000000000000000000000001000000000000000000000000000000000000000000000000000000000002000000000000000000000000000000000000000000000004000000000010000001000000000000000000000000000000000000000800000000000000000000000000000000000000000000000000000000000000000000000000000000000000000000000001000000000000000000000008000000000000000000000000000000000000000000000000000000000000000000000000000000000000000000000000000000000000000000000000000000000000000000000000000000000000000000000000000000000000000800000",
      "type": "0x2",
      "transactionHash": "0x7a5712037e781b1ae2380d93a12a6b1a2a8751900d88a1b271ceadf8fa70f31c",
      "transactionIndex": "0xbd",
      "blockHash": "0x1b86355211c418c3d4f2550e8e991fee3b18942e07f2ebe346d6eaa5017414fd",
      "blockNumber": "0x181d792",
      "gasUsed": "0x7b04",
      "effectiveGasPrice": "0x89e94ee",
      "from": "0xcad1a7864a108dbff67f4b8af71fab0c7a86d0b6",
      "to": "0xac2e5936eca286ec364d4d5bcca33145fbe57f95",
      "contractAddress": null
    },
    {
      "status": "0x1",
      "cumulativeGasUsed": "0x18c9c21",
      "logs": [
        {
          "address": "0x90af002ee537ad5c2c9817ebd4ef22b2e8952470",
          "topics": [
            "0x5c8df9226b5390a36c31cb0bb75ccd51f1106fc9c93332f6305e2a4a7ae4e771",
            "0x0000000000000000000000003c690ec3b2524104de269bf0f9baa7f045ef8270"
          ],
          "data": "0x0000000000000000000000000000000000000000000000000000000000000001",
          "blockHash": "0x6a5a9561de97b313720e28ecb8a104adf2010b99eae4524c51ed0ae284617a50",
          "blockNumber": "0x181d794",
          "blockTimestamp": "0x6a2940df",
          "transactionHash": "0xda58458b8b7635114d2b2c1e5193b8024174a7df18e481dee3b1ae167b685f5d",
          "transactionIndex": "0x145",
          "logIndex": "0x2a0",
          "removed": false
        }
      ],
      "logsBloom": "0x00000000000000000000000000000000000000000000000000000000000010200000000000000400000000000000000000000000000000000000000000000000000000000000000000000000000000000000000000000000000400200000000000000000000000000000000000000000000000000000000000000000000000000000000000000000000000000000000000000000000000000000000000000000000000000000000000000000000400000000000000000100000000000000000000000000000000000000000000000000000000000080000000000000000000000000000000000000000000000000000000000000000000000000000000000080",
      "type": "0x2",
      "transactionHash": "0xda58458b8b7635114d2b2c1e5193b8024174a7df18e481dee3b1ae167b685f5d",
      "transactionIndex": "0x145",
      "blockHash": "0x6a5a9561de97b313720e28ecb8a104adf2010b99eae4524c51ed0ae284617a50",
      "blockNumber": "0x181d794",
      "gasUsed": "0xbbe3",
      "effectiveGasPrice": "0x88a5dfa",
      "from": "0xcad1a7864a108dbff67f4b8af71fab0c7a86d0b6",
      "to": "0x90af002ee537ad5c2c9817ebd4ef22b2e8952470",
      "contractAddress": null
    },
    {
      "status": "0x1",
      "cumulativeGasUsed": "0x13f93f4",
      "logs": [
        {
          "address": "0x90af002ee537ad5c2c9817ebd4ef22b2e8952470",
          "topics": [
            "0x5c8df9226b5390a36c31cb0bb75ccd51f1106fc9c93332f6305e2a4a7ae4e771",
            "0x0000000000000000000000003bbe928340c61a65cb6c4a87b3fb59b6f3f7606a"
          ],
          "data": "0x0000000000000000000000000000000000000000000000000000000000000000",
          "blockHash": "0xccd4f26b043a8794352be5f2ce4a66bf545fa328615e241cb30b889e57f1af26",
          "blockNumber": "0x181d796",
          "blockTimestamp": "0x6a2940f7",
          "transactionHash": "0xc05ab5bf1b8baf0aa165c5fe17343abf90257be6064d1daf7a742a3ca19fcef8",
          "transactionIndex": "0xca",
          "logIndex": "0x391",
          "removed": false
        }
      ],
      "logsBloom": "0x00000000000000000000000000000000000000000000000000000000000010000000000000000400000000000000000000000000000000000000000000000000000000000000000000000000000000000000000000000000000400000000000000000000000000000000000000000000000000000000000000000000000000000000000000000000000000000000000000000000000000000000000000000000000000000000000000000000000400000000000000000000000000000000000000000000000000000400000002000000000000002080000000000000000000000000000000000000000000000000000000000000000000000000000000000080",
      "type": "0x2",
      "transactionHash": "0xc05ab5bf1b8baf0aa165c5fe17343abf90257be6064d1daf7a742a3ca19fcef8",
      "transactionIndex": "0xca",
      "blockHash": "0xccd4f26b043a8794352be5f2ce4a66bf545fa328615e241cb30b889e57f1af26",
      "blockNumber": "0x181d796",
      "gasUsed": "0x664b",
      "effectiveGasPrice": "0x8636a76",
      "from": "0xcad1a7864a108dbff67f4b8af71fab0c7a86d0b6",
      "to": "0x90af002ee537ad5c2c9817ebd4ef22b2e8952470",
      "contractAddress": null
    },
    {
      "status": "0x1",
      "cumulativeGasUsed": "0xbe88e2",
      "logs": [
        {
          "address": "0x90af002ee537ad5c2c9817ebd4ef22b2e8952470",
          "topics": [
            "0x7f5fae2f2ea0d248c289f00cb1738844937f7fe3bd3c11357de14780c9805b9a",
            "0x000000000000000000000000435b0a1884bd0fb5667677c9eb0e59425b1477e5"
          ],
          "data": "0x00000000000000000000000000000000000000000000000000000000000000000000000000000000000000000000000000000000000000000000000000000019",
          "blockHash": "0x6d44a9bfe8f71ad05045b08bd6c86ced099a5f3263f19e95eec67c945463c37e",
          "blockNumber": "0x181d79a",
          "blockTimestamp": "0x6a294127",
          "transactionHash": "0xba8a463bb791e93ede7ddf54692ade49a45a0525d520de148e7756893c4f1843",
          "transactionIndex": "0xb0",
          "logIndex": "0x147",
          "removed": false
        }
      ],
      "logsBloom": "0x00000000000000000000000000000000000000000000000000000000000010000000000000000400000000000000082000000000000000000000000000000000000000000000000000000000000000001000000000000000000000000000000000000000000000000000000000000000000000000000000000000000000000000100000000000000000000000000000000000000001000000000000000000000000000000000000000000000000000000000000000000000000000000000000000000004000000000000000000000000000000000000000000000000000000000000000000000000000000000000000000000000000000000000000000000080",
      "type": "0x2",
      "transactionHash": "0xba8a463bb791e93ede7ddf54692ade49a45a0525d520de148e7756893c4f1843",
      "transactionIndex": "0xb0",
      "blockHash": "0x6d44a9bfe8f71ad05045b08bd6c86ced099a5f3263f19e95eec67c945463c37e",
      "blockNumber": "0x181d79a",
      "gasUsed": "0xbd8e",
      "effectiveGasPrice": "0x7b179bf",
      "from": "0xcad1a7864a108dbff67f4b8af71fab0c7a86d0b6",
      "to": "0x90af002ee537ad5c2c9817ebd4ef22b2e8952470",
      "contractAddress": null
    },
    {
      "status": "0x1",
      "cumulativeGasUsed": "0xf1c7dc",
      "logs": [
        {
          "address": "0x90af002ee537ad5c2c9817ebd4ef22b2e8952470",
          "topics": [
            "0x7f5fae2f2ea0d248c289f00cb1738844937f7fe3bd3c11357de14780c9805b9a",
            "0x000000000000000000000000bce8abc09baedcabe93419bf875f6186e182079a"
          ],
          "data": "0x000000000000000000000000000000000000000000000000000000000000000a0000000000000000000000000000000000000000000000000000000000000019",
          "blockHash": "0x868535f5908ae069ce50f89a7a77421849b3774b5f88d6e6714a012e271894db",
          "blockNumber": "0x181d79d",
          "blockTimestamp": "0x6a29414b",
          "transactionHash": "0x20699a6b401513edab6487bcd7c584bfa853259cef8bddbb2fc930ce4de4cd9c",
          "transactionIndex": "0x5e",
          "logIndex": "0x1d2",
          "removed": false
        }
      ],
      "logsBloom": "0x00000000000000000000000000000000000000000000000000000000000010000000000000000400000000000000002000000000000000000000000000000000000000000000000000000000000000001000000000000000000000000000000000000000800000000000000000000000000000000000000000000000000000000000000000000000000000000000000000000000001000000000000000000000008000000000000000000000000000000000000000000000000000000000000000000000000000000000000000000000000000000000000000000000000000000000000000000000000000000000000000000000000000000000000000800080",
      "type": "0x2",
      "transactionHash": "0x20699a6b401513edab6487bcd7c584bfa853259cef8bddbb2fc930ce4de4cd9c",
      "transactionIndex": "0x5e",
      "blockHash": "0x868535f5908ae069ce50f89a7a77421849b3774b5f88d6e6714a012e271894db",
      "blockNumber": "0x181d79d",
      "gasUsed": "0x7ac2",
      "effectiveGasPrice": "0x77d9f99",
      "from": "0xcad1a7864a108dbff67f4b8af71fab0c7a86d0b6",
      "to": "0x90af002ee537ad5c2c9817ebd4ef22b2e8952470",
      "contractAddress": null
    },
    {
      "status": "0x1",
      "cumulativeGasUsed": "0x330057f",
      "logs": [
        {
          "address": "0x39af088408e815844c567037c157b31d48d2e10f",
          "topics": [
            "0x002a71fba4e77daaab38dc597889c779faa673a62f32beb3d5826cdbc9fcf527",
            "0x0000000000000000000000003c690ec3b2524104de269bf0f9baa7f045ef8270"
          ],
          "data": "0x0000000000000000000000000000000000000000000000000000000000000001",
          "blockHash": "0x45219d275c08f3aecf7284fd6b3fd5ad92dd7d715c1f0e86b084d92ff57e088b",
          "blockNumber": "0x181d7a4",
          "blockTimestamp": "0x6a29419f",
          "transactionHash": "0x4dd3d74812e1f99112ae9a317dde172806be7f9c33f7c37fd667825ff4a283e7",
          "transactionIndex": "0x253",
          "logIndex": "0x5c0",
          "removed": false
        }
      ],
      "logsBloom": "0x00000000000000000000000000000000000000000000000000000000000000200000000000000000000000000000000000000000000000000000000000000000000000000000000000000000000000000000000000000000000000200000000000000000000000000001000000000000000000000000000000000000000000000000000000000000000000000000000000000000000000000000000000000000000000100000000000000000000000000008000000000100000000000000000000000000000000000000000000000100000000000000000000000000000000000000000000000000000000000000080000000000000000000020000000000000",
      "type": "0x2",
      "transactionHash": "0x4dd3d74812e1f99112ae9a317dde172806be7f9c33f7c37fd667825ff4a283e7",
      "transactionIndex": "0x253",
      "blockHash": "0x45219d275c08f3aecf7284fd6b3fd5ad92dd7d715c1f0e86b084d92ff57e088b",
      "blockNumber": "0x181d7a4",
      "gasUsed": "0xba85",
      "effectiveGasPrice": "0x8b7d924",
      "from": "0xcad1a7864a108dbff67f4b8af71fab0c7a86d0b6",
      "to": "0x39af088408e815844c567037c157b31d48d2e10f",
      "contractAddress": null
    },
    {
      "status": "0x1",
      "cumulativeGasUsed": "0x16af5bc",
      "logs": [
        {
          "address": "0x39af088408e815844c567037c157b31d48d2e10f",
          "topics": [
            "0x002a71fba4e77daaab38dc597889c779faa673a62f32beb3d5826cdbc9fcf527",
            "0x0000000000000000000000003bbe928340c61a65cb6c4a87b3fb59b6f3f7606a"
          ],
          "data": "0x0000000000000000000000000000000000000000000000000000000000000000",
          "blockHash": "0x0bbf7c59b0ed2db79d96765e33f116dba9a43b1b8f05726c2460a1a367cceb76",
          "blockNumber": "0x181d7a5",
          "blockTimestamp": "0x6a2941ab",
          "transactionHash": "0xa2b35c49dc4126a4b1cfc9ee60b0e254dd1f9e99be1467c8a18ce45d758d4ce0",
          "transactionIndex": "0x12c",
          "logIndex": "0x326",
          "removed": false
        }
      ],
      "logsBloom": "0x00000000000000000000000000000000000000000000000000000000000000000000000000000000000000000000000000000000000000000000000000000000000000000000000000000000000000000000000000000000000000000000000000000000000000000001000000000000000000000000000000000000000000000000000000000000000000000000000000000000000000000000000000000000000000100000000000000000000000000008000000000000000000000000000000000000000000000400000002000100000000002000000000000000000000000000000000000000000000000000080000000000000000000020000000000000",
      "type": "0x2",
      "transactionHash": "0xa2b35c49dc4126a4b1cfc9ee60b0e254dd1f9e99be1467c8a18ce45d758d4ce0",
      "transactionIndex": "0x12c",
      "blockHash": "0x0bbf7c59b0ed2db79d96765e33f116dba9a43b1b8f05726c2460a1a367cceb76",
      "blockNumber": "0x181d7a5",
      "gasUsed": "0x64ed",
      "effectiveGasPrice": "0x9ac8ca9",
      "from": "0xcad1a7864a108dbff67f4b8af71fab0c7a86d0b6",
      "to": "0x39af088408e815844c567037c157b31d48d2e10f",
      "contractAddress": null
    },
    {
      "status": "0x1",
      "cumulativeGasUsed": "0x18d979a",
      "logs": [
        {
          "address": "0x7c5a8eef1d836450c019fb036453ac6ec97885a3",
          "topics": [
            "0xc25d1d022102ce7b344c33d14de2893a248fabd34bb630dc982e2fbc20f29543",
            "0x0000000000000000000000003c690ec3b2524104de269bf0f9baa7f045ef8270"
          ],
          "data": "0x",
          "blockHash": "0xdf8503a28d3fa27fa4ac2d7781fabc0a9f3e449288e652e0725859f65cf79c2e",
          "blockNumber": "0x181d7a8",
          "blockTimestamp": "0x6a2941cf",
          "transactionHash": "0xca18f09db84e6a237e5f4d1b2f26adf06ea96fd9b0816ac8d25b9f678e60c067",
          "transactionIndex": "0xdd",
          "logIndex": "0x4d2",
          "removed": false
        }
      ],
      "logsBloom": "0x00000000000000000000000000000000000000000000000000000000000000200000000000000000000000000000000000000000000000000000000000000000000000000000000000000000000000200000000000000000000000200000100000000000000000000000000000000001000000000000000000000000000000000000000000000000000000000000000000000000000000000000000000000000000000000000000000008000000000000000000000000100000000000000000000002000000000000000000000000000000001000000000000000000000000000000000000000000000000000000000000000000000000000000000000000000",
      "type": "0x2",
      "transactionHash": "0xca18f09db84e6a237e5f4d1b2f26adf06ea96fd9b0816ac8d25b9f678e60c067",
      "transactionIndex": "0xdd",
      "blockHash": "0xdf8503a28d3fa27fa4ac2d7781fabc0a9f3e449288e652e0725859f65cf79c2e",
      "blockNumber": "0x181d7a8",
      "gasUsed": "0x19479",
      "effectiveGasPrice": "0x8f06616",
      "from": "0xcad1a7864a108dbff67f4b8af71fab0c7a86d0b6",
      "to": "0x7c5a8eef1d836450c019fb036453ac6ec97885a3",
      "contractAddress": null
    },
    {
      "status": "0x1",
      "cumulativeGasUsed": "0x1504bd1",
      "logs": [
        {
          "address": "0x3bbe928340c61a65cb6c4a87b3fb59b6f3f7606a",
          "topics": [
            "0x1ff153f4b082245afbf3211a8d2d207da4c5df490e965f9a9ad141b0cd001dda",
            "0x0000000000000000000000007c5a8eef1d836450c019fb036453ac6ec97885a3",
            "0x0000000000000000000000000000000000000000000000000000000000000000"
          ],
          "data": "0x",
          "blockHash": "0xa35561ea78b36bf6136070e61bdeb9ff81ac651f4f2b5532d78ae4ef49c8b80f",
          "blockNumber": "0x181d7ac",
          "blockTimestamp": "0x6a2941ff",
          "transactionHash": "0x082fcc11027453b7b16edf8c895adf1751de7a3e3042bb6b42824ed807122984",
          "transactionIndex": "0xf6",
          "logIndex": "0x37e",
          "removed": false
        }
      ],
      "logsBloom": "0x00000001000000000000000000000000000000000000000000000000000000000000000000001000000000000000000000000000200000000000000000000000000000000000000000000000000000000000000000000000000000000000000000000000020000000000080000000800000000000000000000000000000000000000000000000000000000000000000000000000000000000000000000000000000000000000000000400000000000000000000000000000000000000000000000000000000000000000000000000400000000000000000000000000000020000400000000000000000000000000000010000000000000000000000020000000",
      "type": "0x2",
      "transactionHash": "0x082fcc11027453b7b16edf8c895adf1751de7a3e3042bb6b42824ed807122984",
      "transactionIndex": "0xf6",
      "blockHash": "0xa35561ea78b36bf6136070e61bdeb9ff81ac651f4f2b5532d78ae4ef49c8b80f",
      "blockNumber": "0x181d7ac",
      "gasUsed": "0x6326",
      "effectiveGasPrice": "0x8f7ca9e",
      "from": "0xcad1a7864a108dbff67f4b8af71fab0c7a86d0b6",
      "to": "0x3bbe928340c61a65cb6c4a87b3fb59b6f3f7606a",
      "contractAddress": null
    },
    {
      "status": "0x1",
      "cumulativeGasUsed": "0x23d8b3e",
      "logs": [
        {
          "address": "0x7c5a8eef1d836450c019fb036453ac6ec97885a3",
          "topics": [
            "0x3475b9891ecf29e996feed01eeb42a860ec225283a439d214ffaeac5e006be7d",
            "0x0000000000000000000000003bbe928340c61a65cb6c4a87b3fb59b6f3f7606a"
          ],
          "data": "0x",
          "blockHash": "0x79221ba4b669c656b448a6b12f01c9670d5b20b899ff4fcbcddcf2a507e0e3f7",
          "blockNumber": "0x181d7ae",
          "blockTimestamp": "0x6a294217",
          "transactionHash": "0x5d067db08978b8908ff525d4833112b4f4713c7fb9188193e91172d641d71ecc",
          "transactionIndex": "0x141",
          "logIndex": "0x3f2",
          "removed": false
        }
      ],
      "logsBloom": "0x00000000000000000000000000000000000000000000000000000000000000000000000000000000000000000000000000000000000000000000000000000000000002000000000000000000000000200000000000000000000000000000100000000000000000000000000000000000000000000000000000000000000000000000000000000000000000000000000000000000000000000000000000000000000000000000000000000000000000000000000000000000000000000000000000000000000000000400000002000000000001002000000040000000000000000000000000000000000000200000000000000000000000000000000000000000",
      "type": "0x2",
      "transactionHash": "0x5d067db08978b8908ff525d4833112b4f4713c7fb9188193e91172d641d71ecc",
      "transactionIndex": "0x141",
      "blockHash": "0x79221ba4b669c656b448a6b12f01c9670d5b20b899ff4fcbcddcf2a507e0e3f7",
      "blockNumber": "0x181d7ae",
      "gasUsed": "0xc4b0",
      "effectiveGasPrice": "0x8c007a6",
      "from": "0xcad1a7864a108dbff67f4b8af71fab0c7a86d0b6",
      "to": "0x7c5a8eef1d836450c019fb036453ac6ec97885a3",
      "contractAddress": null
    },
    {
      "status": "0x1",
      "cumulativeGasUsed": "0x1280a87",
      "logs": [
        {
          "address": "0x3bbe928340c61a65cb6c4a87b3fb59b6f3f7606a",
          "topics": [
            "0x7bc7e967314c87be019a6f018822e621cf2548b9231ed0605002aceb282e1608",
            "0x000000000000000000000000ac2e5936eca286ec364d4d5bcca33145fbe57f95"
          ],
          "data": "0x",
          "blockHash": "0x6d6ac1f5db8dc33edf540d9572aa4ac14c274ae9e788f9b8876576f2e19ffbaf",
          "blockNumber": "0x181d7b2",
          "blockTimestamp": "0x6a294247",
          "transactionHash": "0x9bdca77a7b47f509564ee67ee9f2a66b70720dabf9b5848c9e2b856b846e3cce",
          "transactionIndex": "0xc8",
          "logIndex": "0x1ed",
          "removed": false
        }
      ],
      "logsBloom": "0x00000000000000000000000000000000000000000000000000000000000000000000000010001004000000000000000000000000000000000000000100000000000040000000000008000000000000000000000000000000000000000000000000000000000000002000000000000000000000000000000000000000000000000000000000000000000000000000000000000000000000000000000000000000000000000000000000000000000000000000000000000000000000000000000000000000000000000000000000000000000000000000000000000000000000000400000000000000000000000000000000000000000000000000000020000000",
      "type": "0x2",
      "transactionHash": "0x9bdca77a7b47f509564ee67ee9f2a66b70720dabf9b5848c9e2b856b846e3cce",
      "transactionIndex": "0xc8",
      "blockHash": "0x6d6ac1f5db8dc33edf540d9572aa4ac14c274ae9e788f9b8876576f2e19ffbaf",
      "blockNumber": "0x181d7b2",
      "gasUsed": "0xa21d",
      "effectiveGasPrice": "0x8e420cb",
      "from": "0xcad1a7864a108dbff67f4b8af71fab0c7a86d0b6",
      "to": "0x3bbe928340c61a65cb6c4a87b3fb59b6f3f7606a",
      "contractAddress": null
    },
    {
      "status": "0x1",
      "cumulativeGasUsed": "0x3499647",
      "logs": [
        {
          "address": "0x3bbe928340c61a65cb6c4a87b3fb59b6f3f7606a",
          "topics": [
            "0x7bc7e967314c87be019a6f018822e621cf2548b9231ed0605002aceb282e1608",
            "0x00000000000000000000000090af002ee537ad5c2c9817ebd4ef22b2e8952470"
          ],
          "data": "0x",
          "blockHash": "0x6a6b1433aa59ecd9571af0897ef721cc67157ca579ef18a2580130150faf203c",
          "blockNumber": "0x181d7b5",
          "blockTimestamp": "0x6a29426b",
          "transactionHash": "0xd9db249474870c7828ff370d59921c6aae6b7629d15203e706cad4c030bb3a08",
          "transactionIndex": "0x29f",
          "logIndex": "0x607",
          "removed": false
        }
      ],
      "logsBloom": "0x00000000000000000000000000000000000000000000000000000000000000000000000010001000000000000000000000000000000000000000000100000000000000000000000000000000000000000000000000000000000000000000000000000000000000002000000000000000000000000000000000000000000000000000000000000000000000000000000000000000000000000000000000000000000000000000000000000000000000000000000000004000000000000000000000000000000000000000008000000000000000000000000000000000000000000400000000000000000000000000000000000000000400000000000020000000",
      "type": "0x2",
      "transactionHash": "0xd9db249474870c7828ff370d59921c6aae6b7629d15203e706cad4c030bb3a08",
      "transactionIndex": "0x29f",
      "blockHash": "0x6a6b1433aa59ecd9571af0897ef721cc67157ca579ef18a2580130150faf203c",
      "blockNumber": "0x181d7b5",
      "gasUsed": "0x9aed",
      "effectiveGasPrice": "0x88f8ed9",
      "from": "0xcad1a7864a108dbff67f4b8af71fab0c7a86d0b6",
      "to": "0x3bbe928340c61a65cb6c4a87b3fb59b6f3f7606a",
      "contractAddress": null
    },
    {
      "status": "0x1",
      "cumulativeGasUsed": "0x164d1e8",
      "logs": [
        {
          "address": "0x3bbe928340c61a65cb6c4a87b3fb59b6f3f7606a",
          "topics": [
            "0x7bc7e967314c87be019a6f018822e621cf2548b9231ed0605002aceb282e1608",
            "0x00000000000000000000000090ce274b20a2af4265152b369d09ce6e6dc177f9"
          ],
          "data": "0x",
          "blockHash": "0xc4ec041ae703ba2fea82f721f01b7b0f4e8f92b4472ff6a677674bd39ce076c4",
          "blockNumber": "0x181d7b6",
          "blockTimestamp": "0x6a294277",
          "transactionHash": "0xd34fa91ad035529b66dabf5c5fb75adda1de0e19312ac0ddbe888697605f4872",
          "transactionIndex": "0xfa",
          "logIndex": "0x2f3",
          "removed": false
        }
      ],
      "logsBloom": "0x00000000000000000000000000000000000000000000000000020000000000000000000010001000000000000000000000000000000000000000000100000000000000000000000000000000000000000000000000000000000000000000000000000000000000002000000000000000000000000000000000000000000000000000000000000000000000000000000000000000000000000000000000000000000000000000000000000000000000000000000000000000000000000000000000000000000000000000000000000000000000080000000000000000000004000400000000000000000000000000000000000000000000000000000020000000",
      "type": "0x2",
      "transactionHash": "0xd34fa91ad035529b66dabf5c5fb75adda1de0e19312ac0ddbe888697605f4872",
      "transactionIndex": "0xfa",
      "blockHash": "0xc4ec041ae703ba2fea82f721f01b7b0f4e8f92b4472ff6a677674bd39ce076c4",
      "blockNumber": "0x181d7b6",
      "gasUsed": "0x931d",
      "effectiveGasPrice": "0x97f7912",
      "from": "0xcad1a7864a108dbff67f4b8af71fab0c7a86d0b6",
      "to": "0x3bbe928340c61a65cb6c4a87b3fb59b6f3f7606a",
      "contractAddress": null
    }
  ],
  "libraries": [],
  "pending": [],
  "returns": {},
  "timestamp": 1781088890670,
  "chain": 1,
  "commit": "28f20d1"
}