{
  "transactions": [
    {
      "hash": "0x3ab3b58cb448a17bd29f5a6a5a68206b36986148f0a9c6ac85c16c50e4a5c369",
      "transactionType": "CALL",
      "contractName": null,
      "contractAddress": "0x4da153dc02bb084528d10335759f2c4447e6f73d",
      "function": "rescueERC20(address,address,uint256)",
      "arguments": [
        "0xa3931d71877C0E7a3148CB7Eb4463524FEc27fbD",
        "0xCad1a7864a108DBFF67F4b8af71fAB0C7A86D0B6",
        "44949732551121051707"
      ],
      "transaction": {
        "from": "0xcad1a7864a108dbff67f4b8af71fab0c7a86d0b6",
        "to": "0x4da153dc02bb084528d10335759f2c4447e6f73d",
        "value": "0x0",
        "input": "0xb2118a8d000000000000000000000000a3931d71877c0e7a3148cb7eb4463524fec27fbd000000000000000000000000cad1a7864a108dbff67f4b8af71fab0c7a86d0b60000000000000000000000000000000000000000000000026fcd8799f262203b",
        "nonce": "0x1dd",
        "chainId": "0x1"
      },
      "additionalContracts": [],
      "isFixedGasLimit": false
    },
    {
      "hash": "0xc4492e75b3819eccdebd53b1f23957f0ed1d5a83bff93b3c450b94fafa59448e",
      "transactionType": "CALL",
      "contractName": null,
      "contractAddress": "0x4da153dc02bb084528d10335759f2c4447e6f73d",
      "function": "setBatchDonationSize(uint256)",
      "arguments": [
        "0"
      ],
      "transaction": {
        "from": "0xcad1a7864a108dbff67f4b8af71fab0c7a86d0b6",
        "to": "0x4da153dc02bb084528d10335759f2c4447e6f73d",
        "value": "0x0",
        "input": "0xa1d65e390000000000000000000000000000000000000000000000000000000000000000",
        "nonce": "0x1de",
        "chainId": "0x1"
      },
      "additionalContracts": [],
      "isFixedGasLimit": false
    },
    {
      "hash": "0x0f9489d8bcb3ebc4376a407d7005a0e5635291f12aca59b8ed90ba5cb7a972d2",
      "transactionType": "CALL",
      "contractName": null,
      "contractAddress": "0x4da153dc02bb084528d10335759f2c4447e6f73d",
      "function": "pool(uint256,uint256)",
      "arguments": [
        "215000000000000000000",
        "0"
      ],
      "transaction": {
        "from": "0xcad1a7864a108dbff67f4b8af71fab0c7a86d0b6",
        "to": "0x4da153dc02bb084528d10335759f2c4447e6f73d",
        "value": "0x0",
        "input": "0x9b1b615e00000000000000000000000000000000000000000000000ba7b970e194fc00000000000000000000000000000000000000000000000000000000000000000000",
        "nonce": "0x1df",
        "chainId": "0x1"
      },
      "additionalContracts": [],
      "isFixedGasLimit": false
    },
    {
      "hash": "0xa4688d7461536a9ff5b62a949f1bcce30a01ddd6b528bbc8f1dd52285047e8a9",
      "transactionType": "CREATE",
      "contractName": "DonationRescueHelper",
      "contractAddress": "0x4429f0bfc4e068a1fad5d350443e1dd694634e40",
      "function": null,
      "arguments": [
        "0xbA1333333333a1BA1108E8412f11850A5C319bA9",
        "0x0B65A4505E8C323AE4fEDcc48515FD713dC9d8C0",
        "0xa3931d71877C0E7a3148CB7Eb4463524FEc27fbD",
        "0xD4fa2D31b7968E448877f69A96DE69f5de8cD23E",
        "0xA0b86991c6218b36c1d19D4a2e9Eb0cE3606eB48",
        "0x4ef0fDe49360ed31c68ED442Ff263CC6291041f3"
      ],
      "transaction": {
        "from": "0xcad1a7864a108dbff67f4b8af71fab0c7a86d0b6",
        "value": "0x0",
        "input": "0x6101603461012857601f610d7d38819003918201601f19168301916001600160401b0383118484101761012c5780849260c0946040528339810103126101285761004881610140565b9061005560208201610140565b61006160408301610140565b61006d60608401610140565b9161008660a061007f60808701610140565b9501610140565b943360805260a05260c05260e052610100526101205261014052604051610c28908161015582396080518181816107360152610788015260a05181818160ad015281816101c80152610895015260c05181818161015201526102d2015260e05181818161023701526109e20152610100518181816102750152610a800152610120518181816105300152610a3201526101405181818161010101526104fa0152f35b5f80fd5b634e487b7160e01b5f52604160045260245ffd5b51906001600160a01b03821682036101285756fe6080806040526004361015610012575f80fd5b5f905f3560e01c9081632baaf74514610a56575080633e413bee14610a065780634f5a19df146109b65780635601eaea1461075a5780638da5cb5b1461070a57806391dd734614610176578063982697dd14610125578063d0d164bd146100d45763fbfa77cf14610081575f80fd5b346100d157806003193601126100d157602060405173ffffffffffffffffffffffffffffffffffffffff7f0000000000000000000000000000000000000000000000000000000000000000168152f35b80fd5b50346100d157806003193601126100d157602060405173ffffffffffffffffffffffffffffffffffffffff7f0000000000000000000000000000000000000000000000000000000000000000168152f35b50346100d157806003193601126100d157602060405173ffffffffffffffffffffffffffffffffffffffff7f0000000000000000000000000000000000000000000000000000000000000000168152f35b50346105ec5760206003193601126105ec5760043567ffffffffffffffff81116105ec57366023820112156105ec57806004013567ffffffffffffffff81116105ec578101903660248301116105ec577f00000000000000000000000000000000000000000000000000000000000000009173ffffffffffffffffffffffffffffffffffffffff8316908133036106e257604090839003126105ec576044602483013592013561025e8373ffffffffffffffffffffffffffffffffffffffff7f0000000000000000000000000000000000000000000000000000000000000000169586610b28565b73ffffffffffffffffffffffffffffffffffffffff7f0000000000000000000000000000000000000000000000000000000000000000166040519260e0840184811067ffffffffffffffff8211176106b5576040525f8452602084019573ffffffffffffffffffffffffffffffffffffffff7f0000000000000000000000000000000000000000000000000000000000000000168752604085019681885260608601848152608087019188835260a08801995f8b5260209a604051906103248d83610ae7565b5f825260c08b019182526040519a7f2bfb780c000000000000000000000000000000000000000000000000000000008c528d60048d0152519560028710156106885773ffffffffffffffffffffffffffffffffffffffff8c96816103c196818a9960609c60248c0152511660448a015251166064880152511660848601525160a48501525160c48401525160e060e4840152610104830190610aa4565b03815f865af194851561061c575f95610651575b50604051907f15afd409000000000000000000000000000000000000000000000000000000008252600482015285602482015286816044815f865af1801561061c57610627575b50803b156105ec575f80916064604051809481937fae6393290000000000000000000000000000000000000000000000000000000083528760048401523060248401528960448401525af1801561061c57610602575b50908486926064604051809981937fba0876520000000000000000000000000000000000000000000000000000000083528860048401523060248401523060448401525af19586156105f75782966105c4575b508086106105945750507ffb506edda4f2df34b536cca4ce34ee38b3ff88f7ebc9bd1773a566dff4595fc891606091610555867f000000000000000000000000000000000000000000000000000000000000000073ffffffffffffffffffffffffffffffffffffffff7f000000000000000000000000000000000000000000000000000000000000000016610b28565b60405191825284820152846040820152a1604051918183015280825261057c604083610ae7565b610590604051928284938452830190610aa4565b0390f35b60449250857f65225158000000000000000000000000000000000000000000000000000000008352600452602452fd5b9095508481813d83116105f0575b6105dc8183610ae7565b810103126105ec5751945f6104c5565b5f80fd5b503d6105d2565b6040513d84823e3d90fd5b8596505f61061291939293610ae7565b5f95919091610472565b6040513d5f823e3d90fd5b8681813d831161064a575b61063c8183610ae7565b810103126105ec575161041c565b503d610632565b9094506060813d606011610680575b8161066d60609383610ae7565b810103126105ec5760400151935f6103d5565b3d9150610660565b7f4e487b71000000000000000000000000000000000000000000000000000000005f52602160045260245ffd5b7f4e487b71000000000000000000000000000000000000000000000000000000005f52604160045260245ffd5b7f62df0545000000000000000000000000000000000000000000000000000000005f5260045ffd5b346105ec575f6003193601126105ec57602060405173ffffffffffffffffffffffffffffffffffffffff7f0000000000000000000000000000000000000000000000000000000000000000168152f35b346105ec5760406003193601126105ec5760043560243573ffffffffffffffffffffffffffffffffffffffff7f000000000000000000000000000000000000000000000000000000000000000016330361098e5761081461084061087b935f936040519160208301526040820152604081526107d7606082610ae7565b6040519283917f91dd7346000000000000000000000000000000000000000000000000000000006020840152602060248401526044830190610aa4565b037fffffffffffffffffffffffffffffffffffffffffffffffffffffffffffffffe08101835282610ae7565b604051809381927f48c89491000000000000000000000000000000000000000000000000000000008352602060048401526024830190610aa4565b03818373ffffffffffffffffffffffffffffffffffffffff7f0000000000000000000000000000000000000000000000000000000000000000165af190811561061c575f916108e6575b50602081519181808201938492010103126105ec5760209051604051908152f35b90503d805f833e6108f78183610ae7565b8101906020818303126105ec5780519067ffffffffffffffff82116105ec570181601f820112156105ec5780519067ffffffffffffffff82116106b5576040519261096a601f84017fffffffffffffffffffffffffffffffffffffffffffffffffffffffffffffffe01660200185610ae7565b828452602083830101116105ec57815f9260208093018386015e83010152816108c5565b7f30cd7471000000000000000000000000000000000000000000000000000000005f5260045ffd5b346105ec575f6003193601126105ec57602060405173ffffffffffffffffffffffffffffffffffffffff7f0000000000000000000000000000000000000000000000000000000000000000168152f35b346105ec575f6003193601126105ec57602060405173ffffffffffffffffffffffffffffffffffffffff7f0000000000000000000000000000000000000000000000000000000000000000168152f35b346105ec575f6003193601126105ec5760209073ffffffffffffffffffffffffffffffffffffffff7f0000000000000000000000000000000000000000000000000000000000000000168152f35b907fffffffffffffffffffffffffffffffffffffffffffffffffffffffffffffffe0601f602080948051918291828752018686015e5f8582860101520116010190565b90601f7fffffffffffffffffffffffffffffffffffffffffffffffffffffffffffffffe0910116810190811067ffffffffffffffff8211176106b557604052565b9173ffffffffffffffffffffffffffffffffffffffff604051927fa9059cbb000000000000000000000000000000000000000000000000000000005f521660045260245260205f60448180865af19060015f5114821615610bd1575b60405215610b8f5750565b73ffffffffffffffffffffffffffffffffffffffff907f5274afe7000000000000000000000000000000000000000000000000000000005f521660045260245ffd5b906001811516610be957823b15153d15161690610b84565b503d5f823e3d90fdfea264697066735822122022c5b3eea59679b86edb765fb8593c54113cd1ea8b8a6e0d7ae7148fd252ddaf64736f6c634300081e0033000000000000000000000000ba1333333333a1ba1108e8412f11850a5c319ba90000000000000000000000000b65a4505e8c323ae4fedcc48515fd713dc9d8c0000000000000000000000000a3931d71877c0e7a3148cb7eb4463524fec27fbd000000000000000000000000d4fa2d31b7968e448877f69a96de69f5de8cd23e000000000000000000000000a0b86991c6218b36c1d19d4a2e9eb0ce3606eb480000000000000000000000004ef0fde49360ed31c68ed442ff263cc6291041f3",
        "nonce": "0x1e0",
        "chainId": "0x1"
      },
      "additionalContracts": [],
      "isFixedGasLimit": false
    },
    {
      "hash": "0x38083232e3969b19e9a818adce2c7a8ac1a4deac106841eff12467de8f2d4b21",
      "transactionType": "CALL",
      "contractName": null,
      "contractAddress": "0xa3931d71877c0e7a3148cb7eb4463524fec27fbd",
      "function": "transfer(address,uint256)",
      "arguments": [
        "0x4429F0BfC4E068A1fAd5D350443e1DD694634E40",
        "44949732551121051707"
      ],
      "transaction": {
        "from": "0xcad1a7864a108dbff67f4b8af71fab0c7a86d0b6",
        "to": "0xa3931d71877c0e7a3148cb7eb4463524fec27fbd",
        "value": "0x0",
        "input": "0xa9059cbb0000000000000000000000004429f0bfc4e068a1fad5d350443e1dd694634e400000000000000000000000000000000000000000000000026fcd8799f262203b",
        "nonce": "0x1e1",
        "chainId": "0x1"
      },
      "additionalContracts": [],
      "isFixedGasLimit": false
    },
    {
      "hash": "0xa284cd9ba1a1b9e5d0c530970ec1aa0c2e84cd09271715ce5d8f63611338f4c3",
      "transactionType": "CALL",
      "contractName": "DonationRescueHelper",
      "contractAddress": "0x4429f0bfc4e068a1fad5d350443e1dd694634e40",
      "function": "execute(uint256,uint256)",
      "arguments": [
        "44949732551121051707",
        "46500000"
      ],
      "transaction": {
        "from": "0xcad1a7864a108dbff67f4b8af71fab0c7a86d0b6",
        "to": "0x4429f0bfc4e068a1fad5d350443e1dd694634e40",
        "value": "0x0",
        "input": "0x5601eaea0000000000000000000000000000000000000000000000026fcd8799f262203b0000000000000000000000000000000000000000000000000000000002c588a0",
        "nonce": "0x1e2",
        "chainId": "0x1"
      },
      "additionalContracts": [],
      "isFixedGasLimit": false
    }
  ],
  "receipts": [
    {
      "status": "0x1",
      "cumulativeGasUsed": "0x3216039",
      "logs": [
        {
          "address": "0xa3931d71877c0e7a3148cb7eb4463524fec27fbd",
          "topics": [
            "0xddf252ad1be2c89b69c2b068fc378daa952ba7f163c4a11628f55a4df523b3ef",
            "0x0000000000000000000000004da153dc02bb084528d10335759f2c4447e6f73d",
            "0x000000000000000000000000cad1a7864a108dbff67f4b8af71fab0c7a86d0b6"
          ],
          "data": "0x0000000000000000000000000000000000000000000000026fcd8799f262203b",
          "blockHash": "0x5604ddf60b90dc51d44eeebaceb97d274d760aa12364e891cf0e485ad9c84750",
          "blockNumber": "0x17f84bc",
          "blockTimestamp": "0x6a0d4287",
          "transactionHash": "0x3ab3b58cb448a17bd29f5a6a5a68206b36986148f0a9c6ac85c16c50e4a5c369",
          "transactionIndex": "0x1fb",
          "logIndex": "0x57c",
          "removed": false
        }
      ],
      "logsBloom": "0x00000000000000000020000000800000000000000000000000008000400000000000000000000000000000400000000000000000000000000000000000000000000000000000000000000008000000000000004000000000000000200000000000000000000000000000000000000000000000000000000000000010000000000000000000000000000000000000000000000000000000000010000000000000000000000000000000000000000000000000000000000000000000000000000000000002000000000000000000000000000000000000100000000000000000000000000000000000000000000000000000000000000000000000000000000000",
      "type": "0x2",
      "transactionHash": "0x3ab3b58cb448a17bd29f5a6a5a68206b36986148f0a9c6ac85c16c50e4a5c369",
      "transactionIndex": "0x1fb",
      "blockHash": "0x5604ddf60b90dc51d44eeebaceb97d274d760aa12364e891cf0e485ad9c84750",
      "blockNumber": "0x17f84bc",
      "gasUsed": "0xb1a5",
      "effectiveGasPrice": "0x74ed4cf",
      "from": "0xcad1a7864a108dbff67f4b8af71fab0c7a86d0b6",
      "to": "0x4da153dc02bb084528d10335759f2c4447e6f73d",
      "contractAddress": null
    },
    {
      "status": "0x1",
      "cumulativeGasUsed": "0x23c6552",
      "logs": [
        {
          "address": "0x4da153dc02bb084528d10335759f2c4447e6f73d",
          "topics": [
            "0x074731357d33727f4901077a97ee097d688cb98f4e4565c7e39e804dd986ced4"
          ],
          "data": "0x0000000000000000000000000000000000000000000000000000000000000000",
          "blockHash": "0xa4235374a72c2af9a088c0f7d9c026e209dc800fa73606f53b43b3763f71c874",
          "blockNumber": "0x17f84bf",
          "blockTimestamp": "0x6a0d42ab",
          "transactionHash": "0xc4492e75b3819eccdebd53b1f23957f0ed1d5a83bff93b3c450b94fafa59448e",
          "transactionIndex": "0x140",
          "logIndex": "0x486",
          "removed": false
        }
      ],
      "logsBloom": "0x00000000000000000000000000000000000000000000000000000000000000000000000000000000000040000000000000000000000000000000000000000000000000000000000000000000000080000000000000000000000000000000000000000000000000000000000000000000000000000000000000000000200000000000000000000000000000000000000000000000000000000000010000000000000000000000000000000000000000000000000000000000000000000000000000000000000000000000000000000000000000000000000000000000000000000000000000000010000000000000000000000000000000000000000000000100",
      "type": "0x2",
      "transactionHash": "0xc4492e75b3819eccdebd53b1f23957f0ed1d5a83bff93b3c450b94fafa59448e",
      "transactionIndex": "0x140",
      "blockHash": "0xa4235374a72c2af9a088c0f7d9c026e209dc800fa73606f53b43b3763f71c874",
      "blockNumber": "0x17f84bf",
      "gasUsed": "0x62b1",
      "effectiveGasPrice": "0x7f19a1d",
      "from": "0xcad1a7864a108dbff67f4b8af71fab0c7a86d0b6",
      "to": "0x4da153dc02bb084528d10335759f2c4447e6f73d",
      "contractAddress": null
    },
    {
      "status": "0x1",
      "cumulativeGasUsed": "0x1af695e",
      "logs": [
        {
          "address": "0xa3931d71877c0e7a3148cb7eb4463524fec27fbd",
          "topics": [
            "0xddf252ad1be2c89b69c2b068fc378daa952ba7f163c4a11628f55a4df523b3ef",
            "0x0000000000000000000000004da153dc02bb084528d10335759f2c4447e6f73d",
            "0x000000000000000000000000ba1333333333a1ba1108e8412f11850a5c319ba9"
          ],
          "data": "0x000000000000000000000000000000000000000000000015ee39c46985732218",
          "blockHash": "0xe875b78d00ff3df2f9207a799254020f0f43129aa98e97530b1c3654d9731aab",
          "blockNumber": "0x17f84c2",
          "blockTimestamp": "0x6a0d42cf",
          "transactionHash": "0x0f9489d8bcb3ebc4376a407d7005a0e5635291f12aca59b8ed90ba5cb7a972d2",
          "transactionIndex": "0x108",
          "logIndex": "0x304",
          "removed": false
        },
        {
          "address": "0xba1333333333a1ba1108e8412f11850a5c319ba9",
          "topics": [
            "0xd1398bee19313d6bf672ccb116e51f4a1a947e91c757907f51fbb5b5e56c698f",
            "0x000000000000000000000000642bb6860b4776cc10b26b8f361fd139e7f0db04",
            "0x0000000000000000000000000000000000000000000000000000000000000000",
            "0x0000000000000000000000004da153dc02bb084528d10335759f2c4447e6f73d"
          ],
          "data": "0x00000000000000000000000000000000000000000000000beb8e8f6db9a9049e",
          "blockHash": "0xe875b78d00ff3df2f9207a799254020f0f43129aa98e97530b1c3654d9731aab",
          "blockNumber": "0x17f84c2",
          "blockTimestamp": "0x6a0d42cf",
          "transactionHash": "0x0f9489d8bcb3ebc4376a407d7005a0e5635291f12aca59b8ed90ba5cb7a972d2",
          "transactionIndex": "0x108",
          "logIndex": "0x305",
          "removed": false
        },
        {
          "address": "0x642bb6860b4776cc10b26b8f361fd139e7f0db04",
          "topics": [
            "0xddf252ad1be2c89b69c2b068fc378daa952ba7f163c4a11628f55a4df523b3ef",
            "0x0000000000000000000000000000000000000000000000000000000000000000",
            "0x0000000000000000000000004da153dc02bb084528d10335759f2c4447e6f73d"
          ],
          "data": "0x00000000000000000000000000000000000000000000000beb8e8f6db9a9049e",
          "blockHash": "0xe875b78d00ff3df2f9207a799254020f0f43129aa98e97530b1c3654d9731aab",
          "blockNumber": "0x17f84c2",
          "blockTimestamp": "0x6a0d42cf",
          "transactionHash": "0x0f9489d8bcb3ebc4376a407d7005a0e5635291f12aca59b8ed90ba5cb7a972d2",
          "transactionIndex": "0x108",
          "logIndex": "0x306",
          "removed": false
        },
        {
          "address": "0xba1333333333a1ba1108e8412f11850a5c319ba9",
          "topics": [
            "0xa26a52d8d53702bba7f137907b8e1f99ff87f6d450144270ca25e72481cca871",
            "0x000000000000000000000000642bb6860b4776cc10b26b8f361fd139e7f0db04",
            "0x0000000000000000000000004da153dc02bb084528d10335759f2c4447e6f73d",
            "0x0000000000000000000000000000000000000000000000000000000000000001"
          ],
          "data": "0x0000000000000000000000000000000000000000000002c8b84b7f79a72a266f000000000000000000000000000000000000000000000000000000000000006000000000000000000000000000000000000000000000000000000000000000c00000000000000000000000000000000000000000000000000000000000000002000000000000000000000000000000000000000000000015ee39c4698573221800000000000000000000000000000000000000000000000000000000000000000000000000000000000000000000000000000000000000000000000000000002000000000000000000000000000000000000000000000000087e11ecc5c1100c0000000000000000000000000000000000000000000000000000000000000000",
          "blockHash": "0xe875b78d00ff3df2f9207a799254020f0f43129aa98e97530b1c3654d9731aab",
          "blockNumber": "0x17f84c2",
          "blockTimestamp": "0x6a0d42cf",
          "transactionHash": "0x0f9489d8bcb3ebc4376a407d7005a0e5635291f12aca59b8ed90ba5cb7a972d2",
          "transactionIndex": "0x108",
          "logIndex": "0x307",
          "removed": false
        },
        {
          "address": "0x4da153dc02bb084528d10335759f2c4447e6f73d",
          "topics": [
            "0xaf6cb2e6187986f98607346b0da39860f8bcc4e2e024c1926efa779809b07adb",
            "0x000000000000000000000000cad1a7864a108dbff67f4b8af71fab0c7a86d0b6"
          ],
          "data": "0x000000000000000000000000000000000000000000000015ee39c4698573221800000000000000000000000000000000000000000000000beb8e8f6db9a9049e00000000000000000000000000000000000000000000000ba7b970e194fc0000",
          "blockHash": "0xe875b78d00ff3df2f9207a799254020f0f43129aa98e97530b1c3654d9731aab",
          "blockNumber": "0x17f84c2",
          "blockTimestamp": "0x6a0d42cf",
          "transactionHash": "0x0f9489d8bcb3ebc4376a407d7005a0e5635291f12aca59b8ed90ba5cb7a972d2",
          "transactionIndex": "0x108",
          "logIndex": "0x308",
          "removed": false
        }
      ],
      "logsBloom": "0x0000000000000000002000000080000000008000000000000000c000402000000000000000000000000040408000000000000000000000000000000000040000802000000000000200000008000000000000004000040000000000200000000000000000020000000000000000000800000001000000000008010010200000000000000000000000000000000000000002000000000000000010010000020000000000800080000000040000800000000000000000000000000000000000000000000002000000000000000000000000000000000000100000000000800060000001000000000000002000000000000000000000000100000000000000000100",
      "type": "0x2",
      "transactionHash": "0x0f9489d8bcb3ebc4376a407d7005a0e5635291f12aca59b8ed90ba5cb7a972d2",
      "transactionIndex": "0x108",
      "blockHash": "0xe875b78d00ff3df2f9207a799254020f0f43129aa98e97530b1c3654d9731aab",
      "blockNumber": "0x17f84c2",
      "gasUsed": "0x2c1f2",
      "effectiveGasPrice": "0x7c8c21d",
      "from": "0xcad1a7864a108dbff67f4b8af71fab0c7a86d0b6",
      "to": "0x4da153dc02bb084528d10335759f2c4447e6f73d",
      "contractAddress": null
    },
    {
      "status": "0x1",
      "cumulativeGasUsed": "0x23733b3",
      "logs": [],
      "logsBloom": "0x00000000000000000000000000000000000000000000000000000000000000000000000000000000000000000000000000000000000000000000000000000000000000000000000000000000000000000000000000000000000000000000000000000000000000000000000000000000000000000000000000000000000000000000000000000000000000000000000000000000000000000000000000000000000000000000000000000000000000000000000000000000000000000000000000000000000000000000000000000000000000000000000000000000000000000000000000000000000000000000000000000000000000000000000000000000",
      "type": "0x2",
      "transactionHash": "0xa4688d7461536a9ff5b62a949f1bcce30a01ddd6b528bbc8f1dd52285047e8a9",
      "transactionIndex": "0xd3",
      "blockHash": "0x9c75d948452d9dee16d3b391f611361feb22811f2dbab4d2150c6597ea48904e",
      "blockNumber": "0x17f84c4",
      "gasUsed": "0xb0d89",
      "effectiveGasPrice": "0x77fee66",
      "from": "0xcad1a7864a108dbff67f4b8af71fab0c7a86d0b6",
      "to": null,
      "contractAddress": "0x4429f0bfc4e068a1fad5d350443e1dd694634e40"
    },
    {
      "status": "0x1",
      "cumulativeGasUsed": "0x1ab8e64",
      "logs": [
        {
          "address": "0xa3931d71877c0e7a3148cb7eb4463524fec27fbd",
          "topics": [
            "0xddf252ad1be2c89b69c2b068fc378daa952ba7f163c4a11628f55a4df523b3ef",
            "0x000000000000000000000000cad1a7864a108dbff67f4b8af71fab0c7a86d0b6",
            "0x0000000000000000000000004429f0bfc4e068a1fad5d350443e1dd694634e40"
          ],
          "data": "0x0000000000000000000000000000000000000000000000026fcd8799f262203b",
          "blockHash": "0x9b21d630aa228792da0bf21423df35697e094731f391502bf9143ae84f917748",
          "blockNumber": "0x17f84c5",
          "blockTimestamp": "0x6a0d42f3",
          "transactionHash": "0x38083232e3969b19e9a818adce2c7a8ac1a4deac106841eff12467de8f2d4b21",
          "transactionIndex": "0xfb",
          "logIndex": "0x358",
          "removed": false
        }
      ],
      "logsBloom": "0x00000000000008000020000000000800000000000000000000000000400000000000000000000000000000400000000000000000000000000000000000000000000000000000000000000008000000000000004000000000000000000000000000000000000000000000000000000000000000000000000000000010000000000000000000000000000000000000000000000000000000000010000000000000000000000000000000000000000000000000000000000000000000000000000000000002000000000000000000000000000000000000100000000000000000000000000010000000000000000000000000000000000000000000000000000000",
      "type": "0x2",
      "transactionHash": "0x38083232e3969b19e9a818adce2c7a8ac1a4deac106841eff12467de8f2d4b21",
      "transactionIndex": "0xfb",
      "blockHash": "0x9b21d630aa228792da0bf21423df35697e094731f391502bf9143ae84f917748",
      "blockNumber": "0x17f84c5",
      "gasUsed": "0xdc48",
      "effectiveGasPrice": "0x7ff11d7",
      "from": "0xcad1a7864a108dbff67f4b8af71fab0c7a86d0b6",
      "to": "0xa3931d71877c0e7a3148cb7eb4463524fec27fbd",
      "contractAddress": null
    },
    {
      "status": "0x1",
      "cumulativeGasUsed": "0x1741f49",
      "logs": [
        {
          "address": "0xa3931d71877c0e7a3148cb7eb4463524fec27fbd",
          "topics": [
            "0xddf252ad1be2c89b69c2b068fc378daa952ba7f163c4a11628f55a4df523b3ef",
            "0x0000000000000000000000004429f0bfc4e068a1fad5d350443e1dd694634e40",
            "0x000000000000000000000000ba1333333333a1ba1108e8412f11850a5c319ba9"
          ],
          "data": "0x0000000000000000000000000000000000000000000000026fcd8799f262203b",
          "blockHash": "0x19455be57ab0fd3fe884c5f84c7e6674328a5ed898048b18ce06262bbbdd3fd7",
          "blockNumber": "0x17f84c6",
          "blockTimestamp": "0x6a0d42ff",
          "transactionHash": "0xa284cd9ba1a1b9e5d0c530970ec1aa0c2e84cd09271715ce5d8f63611338f4c3",
          "transactionIndex": "0x7d",
          "logIndex": "0x260",
          "removed": false
        },
        {
          "address": "0xba1333333333a1ba1108e8412f11850a5c319ba9",
          "topics": [
            "0x0874b2d545cb271cdbda4e093020c452328b24af12382ed62c4d00f5c26709db",
            "0x0000000000000000000000000b65a4505e8c323ae4fedcc48515fd713dc9d8c0",
            "0x000000000000000000000000a3931d71877c0e7a3148cb7eb4463524fec27fbd",
            "0x000000000000000000000000d4fa2d31b7968e448877f69a96de69f5de8cd23e"
          ],
          "data": "0x0000000000000000000000000000000000000000000000026fcd8799f262203b00000000000000000000000000000000000000000000000000000000028166ad0000000000000000000000000000000000000000000000000002f70982b100f6000000000000000000000000000000000000000000000000008546845422160c",
          "blockHash": "0x19455be57ab0fd3fe884c5f84c7e6674328a5ed898048b18ce06262bbbdd3fd7",
          "blockNumber": "0x17f84c6",
          "blockTimestamp": "0x6a0d42ff",
          "transactionHash": "0xa284cd9ba1a1b9e5d0c530970ec1aa0c2e84cd09271715ce5d8f63611338f4c3",
          "transactionIndex": "0x7d",
          "logIndex": "0x261",
          "removed": false
        },
        {
          "address": "0xd4fa2d31b7968e448877f69a96de69f5de8cd23e",
          "topics": [
            "0xddf252ad1be2c89b69c2b068fc378daa952ba7f163c4a11628f55a4df523b3ef",
            "0x000000000000000000000000ba1333333333a1ba1108e8412f11850a5c319ba9",
            "0x0000000000000000000000004429f0bfc4e068a1fad5d350443e1dd694634e40"
          ],
          "data": "0x00000000000000000000000000000000000000000000000000000000028166ad",
          "blockHash": "0x19455be57ab0fd3fe884c5f84c7e6674328a5ed898048b18ce06262bbbdd3fd7",
          "blockNumber": "0x17f84c6",
          "blockTimestamp": "0x6a0d42ff",
          "transactionHash": "0xa284cd9ba1a1b9e5d0c530970ec1aa0c2e84cd09271715ce5d8f63611338f4c3",
          "transactionIndex": "0x7d",
          "logIndex": "0x262",
          "removed": false
        },
        {
          "address": "0xd4fa2d31b7968e448877f69a96de69f5de8cd23e",
          "topics": [
            "0xddf252ad1be2c89b69c2b068fc378daa952ba7f163c4a11628f55a4df523b3ef",
            "0x0000000000000000000000004429f0bfc4e068a1fad5d350443e1dd694634e40",
            "0x0000000000000000000000000000000000000000000000000000000000000000"
          ],
          "data": "0x00000000000000000000000000000000000000000000000000000000028166ad",
          "blockHash": "0x19455be57ab0fd3fe884c5f84c7e6674328a5ed898048b18ce06262bbbdd3fd7",
          "blockNumber": "0x17f84c6",
          "blockTimestamp": "0x6a0d42ff",
          "transactionHash": "0xa284cd9ba1a1b9e5d0c530970ec1aa0c2e84cd09271715ce5d8f63611338f4c3",
          "transactionIndex": "0x7d",
          "logIndex": "0x263",
          "removed": false
        },
        {
          "address": "0x87870bca3f3fd6335c3f4ce8392d69350b4fa4e2",
          "topics": [
            "0x804c9b842b2748a22bb64b345453a3de7ca54a6ca45ce00d415894979e22897a",
            "0x000000000000000000000000a0b86991c6218b36c1d19d4a2e9eb0ce3606eb48"
          ],
          "data": "0x0000000000000000000000000000000000000000001fc36de315fff647f6e57a000000000000000000000000000000000000000000000000000000000000000000000000000000000000000000000000000000000026287e341d47813de59de5000000000000000000000000000000000000000003c9926d2d8e7c78baa6317f000000000000000000000000000000000000000003fac7b08d1bfb82b61f7a1e",
          "blockHash": "0x19455be57ab0fd3fe884c5f84c7e6674328a5ed898048b18ce06262bbbdd3fd7",
          "blockNumber": "0x17f84c6",
          "blockTimestamp": "0x6a0d42ff",
          "transactionHash": "0xa284cd9ba1a1b9e5d0c530970ec1aa0c2e84cd09271715ce5d8f63611338f4c3",
          "transactionIndex": "0x7d",
          "logIndex": "0x264",
          "removed": false
        },
        {
          "address": "0x98c23e9d8f34fefb1b7bd6a91b7ff122f4e16f5c",
          "topics": [
            "0xddf252ad1be2c89b69c2b068fc378daa952ba7f163c4a11628f55a4df523b3ef",
            "0x000000000000000000000000d4fa2d31b7968e448877f69a96de69f5de8cd23e",
            "0x0000000000000000000000000000000000000000000000000000000000000000"
          ],
          "data": "0x0000000000000000000000000000000000000000000000000000000002c7efe7",
          "blockHash": "0x19455be57ab0fd3fe884c5f84c7e6674328a5ed898048b18ce06262bbbdd3fd7",
          "blockNumber": "0x17f84c6",
          "blockTimestamp": "0x6a0d42ff",
          "transactionHash": "0xa284cd9ba1a1b9e5d0c530970ec1aa0c2e84cd09271715ce5d8f63611338f4c3",
          "transactionIndex": "0x7d",
          "logIndex": "0x265",
          "removed": false
        },
        {
          "address": "0x98c23e9d8f34fefb1b7bd6a91b7ff122f4e16f5c",
          "topics": [
            "0x4cf25bc1d991c17529c25213d3cc0cda295eeaad5f13f361969b12ea48015f90",
            "0x000000000000000000000000d4fa2d31b7968e448877f69a96de69f5de8cd23e",
            "0x0000000000000000000000004429f0bfc4e068a1fad5d350443e1dd694634e40"
          ],
          "data": "0x0000000000000000000000000000000000000000000000000000000002c7efe7000000000000000000000000000000000000000000000000000000000027e008000000000000000000000000000000000000000003c9926d2d8e7c78baa6317f",
          "blockHash": "0x19455be57ab0fd3fe884c5f84c7e6674328a5ed898048b18ce06262bbbdd3fd7",
          "blockNumber": "0x17f84c6",
          "blockTimestamp": "0x6a0d42ff",
          "transactionHash": "0xa284cd9ba1a1b9e5d0c530970ec1aa0c2e84cd09271715ce5d8f63611338f4c3",
          "transactionIndex": "0x7d",
          "logIndex": "0x266",
          "removed": false
        },
        {
          "address": "0xa0b86991c6218b36c1d19d4a2e9eb0ce3606eb48",
          "topics": [
            "0xddf252ad1be2c89b69c2b068fc378daa952ba7f163c4a11628f55a4df523b3ef",
            "0x00000000000000000000000098c23e9d8f34fefb1b7bd6a91b7ff122f4e16f5c",
            "0x0000000000000000000000004429f0bfc4e068a1fad5d350443e1dd694634e40"
          ],
          "data": "0x0000000000000000000000000000000000000000000000000000000002efcfef",
          "blockHash": "0x19455be57ab0fd3fe884c5f84c7e6674328a5ed898048b18ce06262bbbdd3fd7",
          "blockNumber": "0x17f84c6",
          "blockTimestamp": "0x6a0d42ff",
          "transactionHash": "0xa284cd9ba1a1b9e5d0c530970ec1aa0c2e84cd09271715ce5d8f63611338f4c3",
          "transactionIndex": "0x7d",
          "logIndex": "0x267",
          "removed": false
        },
        {
          "address": "0x87870bca3f3fd6335c3f4ce8392d69350b4fa4e2",
          "topics": [
            "0x3115d1449a7b732c986cba18244e897a450f61e1bb8d589cd2e69e6c8924f9f7",
            "0x000000000000000000000000a0b86991c6218b36c1d19d4a2e9eb0ce3606eb48",
            "0x000000000000000000000000d4fa2d31b7968e448877f69a96de69f5de8cd23e",
            "0x0000000000000000000000004429f0bfc4e068a1fad5d350443e1dd694634e40"
          ],
          "data": "0x0000000000000000000000000000000000000000000000000000000002efcfef",
          "blockHash": "0x19455be57ab0fd3fe884c5f84c7e6674328a5ed898048b18ce06262bbbdd3fd7",
          "blockNumber": "0x17f84c6",
          "blockTimestamp": "0x6a0d42ff",
          "transactionHash": "0xa284cd9ba1a1b9e5d0c530970ec1aa0c2e84cd09271715ce5d8f63611338f4c3",
          "transactionIndex": "0x7d",
          "logIndex": "0x268",
          "removed": false
        },
        {
          "address": "0xd4fa2d31b7968e448877f69a96de69f5de8cd23e",
          "topics": [
            "0xfbde797d201c681b91056529119e0b02407c7bb96a4a2c75c01fc9667232c8db",
            "0x0000000000000000000000004429f0bfc4e068a1fad5d350443e1dd694634e40",
            "0x0000000000000000000000004429f0bfc4e068a1fad5d350443e1dd694634e40",
            "0x0000000000000000000000004429f0bfc4e068a1fad5d350443e1dd694634e40"
          ],
          "data": "0x0000000000000000000000000000000000000000000000000000000002efcfef00000000000000000000000000000000000000000000000000000000028166ad",
          "blockHash": "0x19455be57ab0fd3fe884c5f84c7e6674328a5ed898048b18ce06262bbbdd3fd7",
          "blockNumber": "0x17f84c6",
          "blockTimestamp": "0x6a0d42ff",
          "transactionHash": "0xa284cd9ba1a1b9e5d0c530970ec1aa0c2e84cd09271715ce5d8f63611338f4c3",
          "transactionIndex": "0x7d",
          "logIndex": "0x269",
          "removed": false
        },
        {
          "address": "0xa0b86991c6218b36c1d19d4a2e9eb0ce3606eb48",
          "topics": [
            "0xddf252ad1be2c89b69c2b068fc378daa952ba7f163c4a11628f55a4df523b3ef",
            "0x0000000000000000000000004429f0bfc4e068a1fad5d350443e1dd694634e40",
            "0x0000000000000000000000004ef0fde49360ed31c68ed442ff263cc6291041f3"
          ],
          "data": "0x0000000000000000000000000000000000000000000000000000000002efcfef",
          "blockHash": "0x19455be57ab0fd3fe884c5f84c7e6674328a5ed898048b18ce06262bbbdd3fd7",
          "blockNumber": "0x17f84c6",
          "blockTimestamp": "0x6a0d42ff",
          "transactionHash": "0xa284cd9ba1a1b9e5d0c530970ec1aa0c2e84cd09271715ce5d8f63611338f4c3",
          "transactionIndex": "0x7d",
          "logIndex": "0x26a",
          "removed": false
        },
        {
          "address": "0x4429f0bfc4e068a1fad5d350443e1dd694634e40",
          "topics": [
            "0xfb506edda4f2df34b536cca4ce34ee38b3ff88f7ebc9bd1773a566dff4595fc8"
          ],
          "data": "0x0000000000000000000000000000000000000000000000026fcd8799f262203b00000000000000000000000000000000000000000000000000000000028166ad0000000000000000000000000000000000000000000000000000000002efcfef",
          "blockHash": "0x19455be57ab0fd3fe884c5f84c7e6674328a5ed898048b18ce06262bbbdd3fd7",
          "blockNumber": "0x17f84c6",
          "blockTimestamp": "0x6a0d42ff",
          "transactionHash": "0xa284cd9ba1a1b9e5d0c530970ec1aa0c2e84cd09271715ce5d8f63611338f4c3",
          "transactionIndex": "0x7d",
          "logIndex": "0x26b",
          "removed": false
        }
      ],
      "logsBloom": "0x100082200000084000000000000008000080800000000000000000004020000200000010200000200000020000000000000100000000000000000000800000000020000000000010080000080000000000000040000080000000000000000000000000080200000000000080000008080000011400000200000000140001000800000000000000000000000000002002040000000100000000100000000000000000800120c0200000000000000000020000000020002000000000000000010200000002000000000000002000004800000000010000000040008000000020040000008010000000002000000000000004000000000000000000000000000000",
      "type": "0x2",
      "transactionHash": "0xa284cd9ba1a1b9e5d0c530970ec1aa0c2e84cd09271715ce5d8f63611338f4c3",
      "transactionIndex": "0x7d",
      "blockHash": "0x19455be57ab0fd3fe884c5f84c7e6674328a5ed898048b18ce06262bbbdd3fd7",
      "blockNumber": "0x17f84c6",
      "gasUsed": "0x6dbd2",
      "effectiveGasPrice": "0x7f16f89",
      "from": "0xcad1a7864a108dbff67f4b8af71fab0c7a86d0b6",
      "to": "0x4429f0bfc4e068a1fad5d350443e1dd694634e40",
      "contractAddress": null
    }
  ],
  "libraries": [],
  "pending": [],
  "returns": {},
  "timestamp": 1779254017823,
  "chain": 1,
  "commit": "bfcb9da"
}