{
  "transactions": [
    {
      "hash": "0x895ea6c5aa0f93f6ff2ea3622115e0d868abf2527cac13b98934c39934341037",
      "transactionType": "CALL",
      "contractName": null,
      "contractAddress": "0x26f89f4b46eb164303985795ee20b15bb1edb38a",
      "function": "setMinter(address)",
      "arguments": [
        "0x39Af088408e815844c567037C157B31d48d2E10F"
      ],
      "transaction": {
        "from": "0xcad1a7864a108dbff67f4b8af71fab0c7a86d0b6",
        "to": "0x26f89f4b46eb164303985795ee20b15bb1edb38a",
        "value": "0x0",
        "input": "0xfca3b5aa00000000000000000000000039af088408e815844c567037c157b31d48d2e10f",
        "nonce": "0x20b",
        "chainId": "0x1"
      },
      "additionalContracts": [],
      "isFixedGasLimit": false
    }
  ],
  "receipts": [
    {
      "status": "0x1",
      "cumulativeGasUsed": "0x2998aa0",
      "logs": [],
      "logsBloom": "0x00000000000000000000000000000000000000000000000000000000000000000000000000000000000000000000000000000000000000000000000000000000000000000000000000000000000000000000000000000000000000000000000000000000000000000000000000000000000000000000000000000000000000000000000000000000000000000000000000000000000000000000000000000000000000000000000000000000000000000000000000000000000000000000000000000000000000000000000000000000000000000000000000000000000000000000000000000000000000000000000000000000000000000000000000000000",
      "type": "0x2",
      "transactionHash": "0x895ea6c5aa0f93f6ff2ea3622115e0d868abf2527cac13b98934c39934341037",
      "transactionIndex": "0x13f",
      "blockHash": "0x594b87bea02f544342efd5e10d43aa55a562dd664ed5bbb54dfbb84f0058c274",
      "blockNumber": "0x17fbc88",
      "gasUsed": "0xb65b",
      "effectiveGasPrice": "0x8a32715",
      "from": "0xcad1a7864a108dbff67f4b8af71fab0c7a86d0b6",
      "to": "0x26f89f4b46eb164303985795ee20b15bb1edb38a",
      "contractAddress": null
    }
  ],
  "libraries": [],
  "pending": [],
  "returns": {},
  "timestamp": 1779425856484,
  "chain": 1,
  "commit": "22ae35d"
}