{
  "transactions": [
    {
      "hash": "0xb7b1bc3283982cbf788915f1ccb753e83ca29e2310b70ded55b890736b123e89",
      "transactionType": "CALL",
      "contractName": null,
      "contractAddress": "0xa0b86991c6218b36c1d19d4a2e9eb0ce3606eb48",
      "function": "approve(address,uint256)",
      "arguments": [
        "0x3984eBC84d45a889dDAc595d13dc0aC2E54819F4",
        "47613968"
      ],
      "transaction": {
        "from": "0x3e9003da2ad56a7cc677b6b414ad475a0231eb28",
        "to": "0xa0b86991c6218b36c1d19d4a2e9eb0ce3606eb48",
        "gas": "0x13d76",
        "value": "0x0",
        "input": "0x095ea7b30000000000000000000000003984ebc84d45a889ddac595d13dc0ac2e54819f40000000000000000000000000000000000000000000000000000000002d68810",
        "nonce": "0x2d",
        "chainId": "0x1"
      },
      "additionalContracts": [],
      "isFixedGasLimit": false
    },
    {
      "hash": "0x05b3b72914f0ca69bb94b8525fbad183c898fbec0db36a593457b1d03520355b",
      "transactionType": "CALL",
      "contractName": null,
      "contractAddress": "0x3984ebc84d45a889ddac595d13dc0ac2e54819f4",
      "function": "collectReward(uint256)",
      "arguments": [
        "47613968"
      ],
      "transaction": {
        "from": "0x3e9003da2ad56a7cc677b6b414ad475a0231eb28",
        "to": "0x3984ebc84d45a889ddac595d13dc0ac2e54819f4",
        "gas": "0x1b720",
        "value": "0x0",
        "input": "0xbd3507da0000000000000000000000000000000000000000000000000000000002d68810",
        "nonce": "0x2e",
        "chainId": "0x1"
      },
      "additionalContracts": [],
      "isFixedGasLimit": false
    }
  ],
  "receipts": [
    {
      "status": "0x1",
      "cumulativeGasUsed": "0x15cc78b",
      "logs": [
        {
          "address": "0xa0b86991c6218b36c1d19d4a2e9eb0ce3606eb48",
          "topics": [
            "0x8c5be1e5ebec7d5bd14f71427d1e84f3dd0314c0f7b2291e5b200ac8c7c3b925",
            "0x0000000000000000000000003e9003da2ad56a7cc677b6b414ad475a0231eb28",
            "0x0000000000000000000000003984ebc84d45a889ddac595d13dc0ac2e54819f4"
          ],
          "data": "0x0000000000000000000000000000000000000000000000000000000002d68810",
          "blockHash": "0x71d318069196d522fa4c095d74a3876f65b811a01d8ac1888d34977ceac29089",
          "blockNumber": "0x17cf39f",
          "blockTimestamp": "0x69ee5bdb",
          "transactionHash": "0xb7b1bc3283982cbf788915f1ccb753e83ca29e2310b70ded55b890736b123e89",
          "transactionIndex": "0xf5",
          "logIndex": "0x26a",
          "removed": false
        }
      ],
      "logsBloom": "0x00000000000000000000000000000000000000000000000000000000000000000000000000000000020000000000000000000000000000000000000000200000000000400000000008000000000000000000000000000000000000000000000000000000000000000000000000000000000008000000000000000000000000000000000000000000000000000000000000000000010000000000000000000000020000000000200000000000000000040000000000000000000400000000000000000000000000000000000000000000000000000000000000000000000000000010000010000000000000000000000000000000000000000000000000000000",
      "type": "0x2",
      "transactionHash": "0xb7b1bc3283982cbf788915f1ccb753e83ca29e2310b70ded55b890736b123e89",
      "transactionIndex": "0xf5",
      "blockHash": "0x71d318069196d522fa4c095d74a3876f65b811a01d8ac1888d34977ceac29089",
      "blockNumber": "0x17cf39f",
      "gasUsed": "0xd912",
      "effectiveGasPrice": "0x87f02101",
      "from": "0x3e9003da2ad56a7cc677b6b414ad475a0231eb28",
      "to": "0xa0b86991c6218b36c1d19d4a2e9eb0ce3606eb48",
      "contractAddress": null
    },
    {
      "status": "0x1",
      "cumulativeGasUsed": "0x17100c2",
      "logs": [
        {
          "address": "0xa0b86991c6218b36c1d19d4a2e9eb0ce3606eb48",
          "topics": [
            "0xddf252ad1be2c89b69c2b068fc378daa952ba7f163c4a11628f55a4df523b3ef",
            "0x0000000000000000000000003e9003da2ad56a7cc677b6b414ad475a0231eb28",
            "0x0000000000000000000000003984ebc84d45a889ddac595d13dc0ac2e54819f4"
          ],
          "data": "0x0000000000000000000000000000000000000000000000000000000002d68810",
          "blockHash": "0x228cd9d7e515688bc5f3a1762cb0646409c8f4011296c37fea188fd8f5192094",
          "blockNumber": "0x17cf3a1",
          "blockTimestamp": "0x69ee5bf3",
          "transactionHash": "0x05b3b72914f0ca69bb94b8525fbad183c898fbec0db36a593457b1d03520355b",
          "transactionIndex": "0x102",
          "logIndex": "0x295",
          "removed": false
        },
        {
          "address": "0x3984ebc84d45a889ddac595d13dc0ac2e54819f4",
          "topics": [
            "0xa9ba87905525541e4348d30950feb0e0ac84fc2632206644e892923e32da79c0"
          ],
          "data": "0x0000000000000000000000000000000000000000000000000000000002d688100000000000000000000000000000000000000000000000000000000003a689580000000000000000000000000000000000000000000000057d59bbad2d26bea5",
          "blockHash": "0x228cd9d7e515688bc5f3a1762cb0646409c8f4011296c37fea188fd8f5192094",
          "blockNumber": "0x17cf3a1",
          "blockTimestamp": "0x69ee5bf3",
          "transactionHash": "0x05b3b72914f0ca69bb94b8525fbad183c898fbec0db36a593457b1d03520355b",
          "transactionIndex": "0x102",
          "logIndex": "0x296",
          "removed": false
        }
      ],
      "logsBloom": "0x00000000000000000000000000000000000000000000000000000000000000000000000000000000020000400200000000000000000000000000000000000000000000400000000008000008000000000000000000000000000000000000000000000000000000000000000000000000000008000000000000000010002000000000000000000000000000000000000000000000010000000000000000000000000000000000200000000000000000040000000200000000000400004080000000000002000000000000000000000000000000000000000000000000000000000000000010000000000000000000000000000000000000000000000000000000",
      "type": "0x2",
      "transactionHash": "0x05b3b72914f0ca69bb94b8525fbad183c898fbec0db36a593457b1d03520355b",
      "transactionIndex": "0x102",
      "blockHash": "0x228cd9d7e515688bc5f3a1762cb0646409c8f4011296c37fea188fd8f5192094",
      "blockNumber": "0x17cf3a1",
      "gasUsed": "0x13dec",
      "effectiveGasPrice": "0x7efad65e",
      "from": "0x3e9003da2ad56a7cc677b6b414ad475a0231eb28",
      "to": "0x3984ebc84d45a889ddac595d13dc0ac2e54819f4",
      "contractAddress": null
    }
  ],
  "libraries": [],
  "pending": [],
  "returns": {},
  "timestamp": 1777228789026,
  "chain": 1,
  "commit": "ba7e053"
}