{
  "transactions": [
    {
      "hash": "0x2abb058a15481240d155a95a3e0833ef27722b6b98dc36cfc9724edb10216b3d",
      "transactionType": "CALL",
      "contractName": null,
      "contractAddress": "0xa0b86991c6218b36c1d19d4a2e9eb0ce3606eb48",
      "function": "approve(address,uint256)",
      "arguments": [
        "0x3984eBC84d45a889dDAc595d13dc0aC2E54819F4",
        "25118833"
      ],
      "transaction": {
        "from": "0x3e9003da2ad56a7cc677b6b414ad475a0231eb28",
        "to": "0xa0b86991c6218b36c1d19d4a2e9eb0ce3606eb48",
        "gas": "0x13d76",
        "value": "0x0",
        "input": "0x095ea7b30000000000000000000000003984ebc84d45a889ddac595d13dc0ac2e54819f400000000000000000000000000000000000000000000000000000000017f4871",
        "nonce": "0x1",
        "chainId": "0x1"
      },
      "additionalContracts": [],
      "isFixedGasLimit": false
    },
    {
      "hash": "0x84f506785fb6771084ceb34c5f39af6c7aa1f609b1b4e55c9ba0007962b2cb6f",
      "transactionType": "CALL",
      "contractName": null,
      "contractAddress": "0x3984ebc84d45a889ddac595d13dc0ac2e54819f4",
      "function": "collectReward(uint256)",
      "arguments": [
        "25118833"
      ],
      "transaction": {
        "from": "0x3e9003da2ad56a7cc677b6b414ad475a0231eb28",
        "to": "0x3984ebc84d45a889ddac595d13dc0ac2e54819f4",
        "gas": "0x1d805",
        "value": "0x0",
        "input": "0xbd3507da00000000000000000000000000000000000000000000000000000000017f4871",
        "nonce": "0x2",
        "chainId": "0x1"
      },
      "additionalContracts": [],
      "isFixedGasLimit": false
    }
  ],
  "receipts": [
    {
      "status": "0x1",
      "cumulativeGasUsed": "0x31bac79",
      "logs": [
        {
          "address": "0xa0b86991c6218b36c1d19d4a2e9eb0ce3606eb48",
          "topics": [
            "0x8c5be1e5ebec7d5bd14f71427d1e84f3dd0314c0f7b2291e5b200ac8c7c3b925",
            "0x0000000000000000000000003e9003da2ad56a7cc677b6b414ad475a0231eb28",
            "0x0000000000000000000000003984ebc84d45a889ddac595d13dc0ac2e54819f4"
          ],
          "data": "0x00000000000000000000000000000000000000000000000000000000017f4871",
          "blockHash": "0x9d09c8c303c9686d3554268a7a391b4660e9d9b5e6ba53acebf3cce007b4ed63",
          "blockNumber": "0x1733062",
          "blockTimestamp": "0x6978b2d3",
          "transactionHash": "0x2abb058a15481240d155a95a3e0833ef27722b6b98dc36cfc9724edb10216b3d",
          "transactionIndex": "0x1fd",
          "logIndex": "0x4e4",
          "removed": false
        }
      ],
      "logsBloom": "0x00000000000000000000000000000000000000000000000000000000000000000000000000000000020000000000000000000000000000000000000000200000000000400000000008000000000000000000000000000000000000000000000000000000000000000000000000000000000008000000000000000000000000000000000000000000000000000000000000000000010000000000000000000000020000000000200000000000000000040000000000000000000400000000000000000000000000000000000000000000000000000000000000000000000000000010000010000000000000000000000000000000000000000000000000000000",
      "type": "0x2",
      "transactionHash": "0x2abb058a15481240d155a95a3e0833ef27722b6b98dc36cfc9724edb10216b3d",
      "transactionIndex": "0x1fd",
      "blockHash": "0x9d09c8c303c9686d3554268a7a391b4660e9d9b5e6ba53acebf3cce007b4ed63",
      "blockNumber": "0x1733062",
      "gasUsed": "0xd912",
      "effectiveGasPrice": "0x6d9ead0",
      "from": "0x3e9003da2ad56a7cc677b6b414ad475a0231eb28",
      "to": "0xa0b86991c6218b36c1d19d4a2e9eb0ce3606eb48",
      "contractAddress": null
    },
    {
      "status": "0x1",
      "cumulativeGasUsed": "0x169286f",
      "logs": [
        {
          "address": "0xa0b86991c6218b36c1d19d4a2e9eb0ce3606eb48",
          "topics": [
            "0xddf252ad1be2c89b69c2b068fc378daa952ba7f163c4a11628f55a4df523b3ef",
            "0x0000000000000000000000003e9003da2ad56a7cc677b6b414ad475a0231eb28",
            "0x0000000000000000000000003984ebc84d45a889ddac595d13dc0ac2e54819f4"
          ],
          "data": "0x00000000000000000000000000000000000000000000000000000000017f4871",
          "blockHash": "0x6dd752c69e8ed2e37f868c819b00739c82075e7cce76818819141cf3dc149fe9",
          "blockNumber": "0x1733063",
          "blockTimestamp": "0x6978b2df",
          "transactionHash": "0x84f506785fb6771084ceb34c5f39af6c7aa1f609b1b4e55c9ba0007962b2cb6f",
          "transactionIndex": "0x15e",
          "logIndex": "0x309",
          "removed": false
        },
        {
          "address": "0x3984ebc84d45a889ddac595d13dc0ac2e54819f4",
          "topics": [
            "0xa9ba87905525541e4348d30950feb0e0ac84fc2632206644e892923e32da79c0"
          ],
          "data": "0x00000000000000000000000000000000000000000000000000000000017f48710000000000000000000000000000000000000000000000000000000002ddf97f000000000000000000000000000000000000000000000000fdd8235911dbf8b0",
          "blockHash": "0x6dd752c69e8ed2e37f868c819b00739c82075e7cce76818819141cf3dc149fe9",
          "blockNumber": "0x1733063",
          "blockTimestamp": "0x6978b2df",
          "transactionHash": "0x84f506785fb6771084ceb34c5f39af6c7aa1f609b1b4e55c9ba0007962b2cb6f",
          "transactionIndex": "0x15e",
          "logIndex": "0x30a",
          "removed": false
        }
      ],
      "logsBloom": "0x00000000000000000000000000000000000000000000000000000000000000000000000000000000020000400200000000000000000000000000000000000000000000400000000008000008000000000000000000000000000000000000000000000000000000000000000000000000000008000000000000000010002000000000000000000000000000000000000000000000010000000000000000000000000000000000200000000000000000040000000200000000000400004080000000000002000000000000000000000000000000000000000000000000000000000000000010000000000000000000000000000000000000000000000000000000",
      "type": "0x2",
      "transactionHash": "0x84f506785fb6771084ceb34c5f39af6c7aa1f609b1b4e55c9ba0007962b2cb6f",
      "transactionIndex": "0x15e",
      "blockHash": "0x6dd752c69e8ed2e37f868c819b00739c82075e7cce76818819141cf3dc149fe9",
      "blockNumber": "0x1733063",
      "gasUsed": "0x155bd",
      "effectiveGasPrice": "0x7a022ea",
      "from": "0x3e9003da2ad56a7cc677b6b414ad475a0231eb28",
      "to": "0x3984ebc84d45a889ddac595d13dc0ac2e54819f4",
      "contractAddress": null
    }
  ],
  "libraries": [],
  "pending": [],
  "returns": {},
  "timestamp": 1769517795179,
  "chain": 1,
  "commit": "eff9c7c"
}