{
  "transactions": [
    {
      "hash": "0x6fcae132b419cd25a4b8500d0d63ed949dd2c1708a7160818c968c4a2b629ebf",
      "transactionType": "CALL",
      "contractName": null,
      "contractAddress": "0xa0b86991c6218b36c1d19d4a2e9eb0ce3606eb48",
      "function": "approve(address,uint256)",
      "arguments": [
        "0x3984eBC84d45a889dDAc595d13dc0aC2E54819F4",
        "25000000"
      ],
      "transaction": {
        "from": "0x2593be17dd1c31b4c124a18bac3a7ae19567ae37",
        "to": "0xa0b86991c6218b36c1d19d4a2e9eb0ce3606eb48",
        "gas": "0x13d76",
        "value": "0x0",
        "input": "0x095ea7b30000000000000000000000003984ebc84d45a889ddac595d13dc0ac2e54819f400000000000000000000000000000000000000000000000000000000017d7840",
        "nonce": "0x8d9",
        "chainId": "0x1"
      },
      "additionalContracts": [],
      "isFixedGasLimit": false
    },
    {
      "hash": "0xd1d0b881aeba4874a6e35ae60c05f28bfb65bc1fa82eac75d64251b7a6567a10",
      "transactionType": "CALL",
      "contractName": null,
      "contractAddress": "0x3984ebc84d45a889ddac595d13dc0ac2e54819f4",
      "function": "collectReward(uint256)",
      "arguments": [
        "25000000"
      ],
      "transaction": {
        "from": "0x2593be17dd1c31b4c124a18bac3a7ae19567ae37",
        "to": "0x3984ebc84d45a889ddac595d13dc0ac2e54819f4",
        "gas": "0x29674",
        "value": "0x0",
        "input": "0xbd3507da00000000000000000000000000000000000000000000000000000000017d7840",
        "nonce": "0x8da",
        "chainId": "0x1"
      },
      "additionalContracts": [],
      "isFixedGasLimit": false
    }
  ],
  "receipts": [
    {
      "status": "0x1",
      "cumulativeGasUsed": "0x188f0e5",
      "logs": [
        {
          "address": "0xa0b86991c6218b36c1d19d4a2e9eb0ce3606eb48",
          "topics": [
            "0x8c5be1e5ebec7d5bd14f71427d1e84f3dd0314c0f7b2291e5b200ac8c7c3b925",
            "0x0000000000000000000000002593be17dd1c31b4c124a18bac3a7ae19567ae37",
            "0x0000000000000000000000003984ebc84d45a889ddac595d13dc0ac2e54819f4"
          ],
          "data": "0x00000000000000000000000000000000000000000000000000000000017d7840",
          "blockHash": "0x609cb570177da4d22e6bbb8c8dfd885be8994eacdb89ea9cd08c0f4839286c49",
          "blockNumber": "0x172e9a1",
          "blockTimestamp": "0x69755e67",
          "transactionHash": "0x6fcae132b419cd25a4b8500d0d63ed949dd2c1708a7160818c968c4a2b629ebf",
          "transactionIndex": "0xe8",
          "logIndex": "0x215",
          "removed": false
        }
      ],
      "logsBloom": "0x00000000000100000000000000000000040000000000000000000000000000000000000000000000020000000000000000000000000000000000000000200000000000000000000008000000000000000000000000000000000000000000000000000000000000000000000000000080000000000000000000000000000000000000000000000000000000000000000000000000010000000000000000000000020000000000200000000000000000000000000000000000000400000000000000000000000000000000000000000000000000000000000000000000000000000010000010000000000000000000000000000000000000000000000000000000",
      "type": "0x2",
      "transactionHash": "0x6fcae132b419cd25a4b8500d0d63ed949dd2c1708a7160818c968c4a2b629ebf",
      "transactionIndex": "0xe8",
      "blockHash": "0x609cb570177da4d22e6bbb8c8dfd885be8994eacdb89ea9cd08c0f4839286c49",
      "blockNumber": "0x172e9a1",
      "gasUsed": "0xd912",
      "effectiveGasPrice": "0x2278d12",
      "from": "0x2593be17dd1c31b4c124a18bac3a7ae19567ae37",
      "to": "0xa0b86991c6218b36c1d19d4a2e9eb0ce3606eb48",
      "contractAddress": null
    },
    {
      "status": "0x1",
      "cumulativeGasUsed": "0x130e52d",
      "logs": [
        {
          "address": "0xa0b86991c6218b36c1d19d4a2e9eb0ce3606eb48",
          "topics": [
            "0xddf252ad1be2c89b69c2b068fc378daa952ba7f163c4a11628f55a4df523b3ef",
            "0x0000000000000000000000002593be17dd1c31b4c124a18bac3a7ae19567ae37",
            "0x0000000000000000000000003984ebc84d45a889ddac595d13dc0ac2e54819f4"
          ],
          "data": "0x00000000000000000000000000000000000000000000000000000000017d7840",
          "blockHash": "0x9708edb1a829727fad5512191488e0c8083a46850891ff133b459c958618c257",
          "blockNumber": "0x172e9a2",
          "blockTimestamp": "0x69755e73",
          "transactionHash": "0xd1d0b881aeba4874a6e35ae60c05f28bfb65bc1fa82eac75d64251b7a6567a10",
          "transactionIndex": "0xd0",
          "logIndex": "0x22b",
          "removed": false
        },
        {
          "address": "0x3984ebc84d45a889ddac595d13dc0ac2e54819f4",
          "topics": [
            "0xa9ba87905525541e4348d30950feb0e0ac84fc2632206644e892923e32da79c0"
          ],
          "data": "0x00000000000000000000000000000000000000000000000000000000017d784000000000000000000000000000000000000000000000000000000000017d784000000000000000000000000000000000000000000000000083ee4deeef9f0da9",
          "blockHash": "0x9708edb1a829727fad5512191488e0c8083a46850891ff133b459c958618c257",
          "blockNumber": "0x172e9a2",
          "blockTimestamp": "0x69755e73",
          "transactionHash": "0xd1d0b881aeba4874a6e35ae60c05f28bfb65bc1fa82eac75d64251b7a6567a10",
          "transactionIndex": "0xd0",
          "logIndex": "0x22c",
          "removed": false
        }
      ],
      "logsBloom": "0x00000000000100000000000000000000040000000000000000000000000000000000000000000000020000400200000000000000000000000000000000000000000000000000000008000008000000000000000000000000000000000000000000000000000000000000000000000080000000000000000000000010002000000000000000000000000000000000000000000000010000000000000000000000000000000000200000000000000000000000000200000000000400004080000000000002000000000000000000000000000000000000000000000000000000000000000010000000000000000000000000000000000000000000000000000000",
      "type": "0x2",
      "transactionHash": "0xd1d0b881aeba4874a6e35ae60c05f28bfb65bc1fa82eac75d64251b7a6567a10",
      "transactionIndex": "0xd0",
      "blockHash": "0x9708edb1a829727fad5512191488e0c8083a46850891ff133b459c958618c257",
      "blockNumber": "0x172e9a2",
      "gasUsed": "0x1df9c",
      "effectiveGasPrice": "0x2310f98",
      "from": "0x2593be17dd1c31b4c124a18bac3a7ae19567ae37",
      "to": "0x3984ebc84d45a889ddac595d13dc0ac2e54819f4",
      "contractAddress": null
    }
  ],
  "libraries": [],
  "pending": [],
  "returns": {},
  "timestamp": 1769299574106,
  "chain": 1,
  "commit": "eff9c7c"
}