{
  "transactions": [
    {
      "hash": "0x34953887f4220ff7934d5b397a0383212a09c42c760bb004d766d560c0765733",
      "transactionType": "CREATE",
      "contractName": "BalancerPooler",
      "contractAddress": "0xc2d1a82c66fd535ae218b59f77a1b716919a46c3",
      "function": null,
      "arguments": [
        "0xa3931d71877C0E7a3148CB7Eb4463524FEc27fbD",
        "0x5B26d938F0bE6357C39e936Cc9c2277b9334eA58",
        "0xbA1333333333a1BA1108E8412f11850A5C319bA9",
        "true",
        "0xCad1a7864a108DBFF67F4b8af71fAB0C7A86D0B6"
      ],
      "transaction": {
        "from": "0xcad1a7864a108dbff67f4b8af71fab0c7a86d0b6",
        "value": "0x0",
        "input": "0x6101003461014c57601f611a5a38819003918201601f19168301916001600160401b038311848410176101505780849260a09460405283398101031261014c5761004881610164565b9061005560208201610164565b61006160408301610164565b90606083015192831515840361014c57608061007d9101610164565b936001600160a01b0385168015610139575f8054610100600160a81b03198116600898891b610100600160a81b0316178255604051971c6001600160a01b0316907f8be0079c531659141344cd1fd0a4f28419497f9722a3daafe3b4186f6b6457e09080a360805260a05260c05260e0526118e19081610179823960805181818160f80152610550015260a05181818161045901526106f2015260c0518181816101b0015281816104ef0152610d50015260e051816106820152f35b631e4fbdf760e01b5f525f60045260245ffd5b5f80fd5b634e487b7160e01b5f52604160045260245ffd5b51906001600160a01b038216820361014c5756fe6080806040526004361015610012575f80fd5b5f3560e01c90816306fdde031461153a575080630890d80c14610fc15780633f4ba83a14610f0b5780635c975abb14610eea578063715018a614610e6b5780637284e41614610dc6578063734c5b2c14610c0c5780638456cb5914610b7c5780638da5cb5b14610b4757806391dd7346146104bc578063c580a540146103c2578063f2fde38b146102d4578063f3ccaac0146101d4578063fbfa77cf14610184578063fca3b5aa146101205763fe5a451a146100cc575f80fd5b3461011c575f60031936011261011c57602060405173ffffffffffffffffffffffffffffffffffffffff7f0000000000000000000000000000000000000000000000000000000000000000168152f35b5f80fd5b3461011c57602060031936011261011c5773ffffffffffffffffffffffffffffffffffffffff61014e61162f565b610156611829565b167fffffffffffffffffffffffff000000000000000000000000000000000000000060015416176001555f80f35b3461011c575f60031936011261011c57602060405173ffffffffffffffffffffffffffffffffffffffff7f0000000000000000000000000000000000000000000000000000000000000000168152f35b3461011c575f60031936011261011c576040515f6003546101f481611652565b80845290600181169081156102925750600114610234575b6102308361021c818503826116a3565b6040519182916020835260208301906115dc565b0390f35b91905060035f527fc2575a0e9e593c00f959f8c92f12db2869c3395a3b0502d05e2516446f71f85b915f905b8082106102785750909150810160200161021c61020c565b919260018160209254838588010152019101909291610260565b7fffffffffffffffffffffffffffffffffffffffffffffffffffffffffffffff001660208086019190915291151560051b8401909101915061021c905061020c565b3461011c57602060031936011261011c576102ed61162f565b6102f5611829565b73ffffffffffffffffffffffffffffffffffffffff81169081156103965773ffffffffffffffffffffffffffffffffffffffff9074ffffffffffffffffffffffffffffffffffffffff005f549160081b167fffffffffffffffffffffff0000000000000000000000000000000000000000ff8216175f5560081c167f8be0079c531659141344cd1fd0a4f28419497f9722a3daafe3b4186f6b6457e05f80a3005b7f1e4fbdf7000000000000000000000000000000000000000000000000000000005f525f60045260245ffd5b3461011c57604060031936011261011c5761043f60206103e061162f565b6103e8611829565b6040517fa9059cbb00000000000000000000000000000000000000000000000000000000815273ffffffffffffffffffffffffffffffffffffffff9091166004820152602480359082015291829081906044820190565b03815f73ffffffffffffffffffffffffffffffffffffffff7f0000000000000000000000000000000000000000000000000000000000000000165af180156104b15761048757005b6104a89060203d6020116104aa575b6104a081836116a3565b8101906117c7565b005b503d610496565b6040513d5f823e3d90fd5b3461011c57602060031936011261011c5760043567ffffffffffffffff811161011c576104ed903690600401611601565b7f000000000000000000000000000000000000000000000000000000000000000073ffffffffffffffffffffffffffffffffffffffff811691823303610ac357836040918101031261011c5773ffffffffffffffffffffffffffffffffffffffff7f00000000000000000000000000000000000000000000000000000000000000001690604051907f70a08231000000000000000000000000000000000000000000000000000000008252836004830152602082602481865afa9182156104b1575f92610a8e575b506040517fa9059cbb00000000000000000000000000000000000000000000000000000000815273ffffffffffffffffffffffffffffffffffffffff919091166004820152843560248201526020816044815f875af180156104b157610a71575b50604051907f70a08231000000000000000000000000000000000000000000000000000000008252836004830152602082602481865afa9182156104b1575f92610a3d575b508103908111610a1057604051916106746060846116a3565b6002835260403660208501377f0000000000000000000000000000000000000000000000000000000000000000156109f557816106b0846117df565b525f6106bb84611819565b525b6040519260c0840184811067ffffffffffffffff8211176109875760405273ffffffffffffffffffffffffffffffffffffffff7f000000000000000000000000000000000000000000000000000000000000000016845260208401933085526040810191825260206060820197013587526080810160018152602097604051936107478a866116a3565b5f855260a0840194855273ffffffffffffffffffffffffffffffffffffffff604051987f4af29ec4000000000000000000000000000000000000000000000000000000008a528b60048b01528160e48b0196511660248b015251166044890152519260c0606489015283518091528961010489019401905f5b8b8282106109e15750505050516084870152519160058310156109b45761081b869283925f9560a4850152517fffffffffffffffffffffffffffffffffffffffffffffffffffffffffffffffdc8483030160c48501526115dc565b038183885af19283156104b15785936108c6575b506044905f60405195869485937f15afd409000000000000000000000000000000000000000000000000000000008552600485015260248401525af180156104b15761089c575b506040519061088581836116a3565b5f82526102306040519282849384528301906115dc565b8181813d83116108bf575b6108b181836116a3565b8101031261011c5751610876565b503d6108a7565b9092503d805f833e6108d881836116a3565b81019260608285031261011c57815167ffffffffffffffff811161011c57820184601f8201121561011c5780519067ffffffffffffffff82116109875787808360051b938185019061092d60405192836116a3565b815201928201019186831161011c5788809201905b838210610978575050505060408201519167ffffffffffffffff831161011c5786946044936109719201611771565b509061082f565b81518152908201908201610942565b7f4e487b71000000000000000000000000000000000000000000000000000000005f52604160045260245ffd5b7f4e487b71000000000000000000000000000000000000000000000000000000005f52602160045260245ffd5b8351875295860195909201916001016107c0565b5f6109ff846117df565b5281610a0a84611819565b526106bd565b7f4e487b71000000000000000000000000000000000000000000000000000000005f52601160045260245ffd5b9091506020813d602011610a69575b81610a59602093836116a3565b8101031261011c5751908561065b565b3d9150610a4c565b610a899060203d6020116104aa576104a081836116a3565b610616565b9091506020813d602011610abb575b81610aaa602093836116a3565b8101031261011c57519060206105b5565b3d9150610a9d565b60846040517f08c379a000000000000000000000000000000000000000000000000000000000815260206004820152602360248201527f42616c616e636572506f6f6c65723a2063616c6c6572206973206e6f7420766160448201527f756c7400000000000000000000000000000000000000000000000000000000006064820152fd5b3461011c575f60031936011261011c57602073ffffffffffffffffffffffffffffffffffffffff5f5460081c16604051908152f35b3461011c575f60031936011261011c57610baf73ffffffffffffffffffffffffffffffffffffffff6001541633146116e6565b610bb7611878565b60017fffffffffffffffffffffffffffffffffffffffffffffffffffffffffffffff005f5416175f557f62e78cea01bee320cd4e420270b5ea74000d11b0c9f74754ebdbfc544b05a2586020604051338152a1005b3461011c57606060031936011261011c57610c2561162f565b5060443567ffffffffffffffff811161011c57610c46903690600401611601565b610c6973ffffffffffffffffffffffffffffffffffffffff6001541633146116e6565b610c71611878565b8015610db457816020918101031261011c575f610ced610cfb610d3693355b604051906024356020830152604082015260408152610cb06060826116a3565b6040519283917f91dd73460000000000000000000000000000000000000000000000000000000060208401526020602484015260448301906115dc565b03601f1981018352826116a3565b604051809381927f48c894910000000000000000000000000000000000000000000000000000000083526020600484015260248301906115dc565b03818373ffffffffffffffffffffffffffffffffffffffff7f0000000000000000000000000000000000000000000000000000000000000000165af180156104b157610d7e57005b3d805f833e610d8d81836116a3565b810160208282031261011c57815167ffffffffffffffff811161011c576104a89201611771565b5050610d365f610ced610cfb82610c90565b3461011c575f60031936011261011c576040515f600454610de681611652565b80845290600181169081156102925750600114610e0d576102308361021c818503826116a3565b91905060045f527f8a35acfbc15ff81a39ae7d344fd709f28e8600b4aa8c65c6b64bfe7fe36bd19b915f905b808210610e515750909150810160200161021c61020c565b919260018160209254838588010152019101909291610e39565b3461011c575f60031936011261011c57610e83611829565b5f73ffffffffffffffffffffffffffffffffffffffff81547fffffffffffffffffffffff0000000000000000000000000000000000000000ff8116835560081c167f8be0079c531659141344cd1fd0a4f28419497f9722a3daafe3b4186f6b6457e08280a3005b3461011c575f60031936011261011c57602060ff5f54166040519015158152f35b3461011c575f60031936011261011c57610f3e73ffffffffffffffffffffffffffffffffffffffff6001541633146116e6565b5f5460ff811615610f99577fffffffffffffffffffffffffffffffffffffffffffffffffffffffffffffff00165f557f5db9ee0a495bf2e6ff9c91a7834c1ba4fdd244a5e8aa4e537bd38aeae4b073aa6020604051338152a1005b7f8dfc202b000000000000000000000000000000000000000000000000000000005f5260045ffd5b3461011c57606060031936011261011c5760043567ffffffffffffffff811161011c57610ff2903690600401611601565b9060243567ffffffffffffffff811161011c57611013903690600401611601565b929060443567ffffffffffffffff811161011c57611035903690600401611601565b909161103f611829565b67ffffffffffffffff841161098757611059600254611652565b601f8111611499575b50835f601f8211600114611418575f9161140d575b508460011b905f198660031b1c1916176002555b67ffffffffffffffff8611610987576110a5600354611652565b601f811161136c575b50855f601f82116001146112eb575f916112e0575b508660011b905f198860031b1c1916176003555b67ffffffffffffffff8211610987576110f1600454611652565b601f811161123f575b505f95601f83116001146111935782916111759161118395947f61b45807b5528344b8b2c26433a3aabead6c9dc6239e146e7ba7c812fded07d0995f91611188575b508460011b905f198660031b1c1916176004555b61116760405198899860608a5260608a01916116c6565b9187830360208901526116c6565b9184830360408601526116c6565b0390a1005b90508501358a61113c565b601f1983169660045f527f8a35acfbc15ff81a39ae7d344fd709f28e8600b4aa8c65c6b64bfe7fe36bd19b975f5b8181106112275750917f61b45807b5528344b8b2c26433a3aabead6c9dc6239e146e7ba7c812fded07d0988594926111839796611175951061120e575b5050600184811b01600455611150565b5f1960f88760031b161c199087013516905589806111fe565b868301358a55600190990198602092830192016111c1565b60045f52601f830160051c7f8a35acfbc15ff81a39ae7d344fd709f28e8600b4aa8c65c6b64bfe7fe36bd19b0190602084106112b8575b601f0160051c7f8a35acfbc15ff81a39ae7d344fd709f28e8600b4aa8c65c6b64bfe7fe36bd19b01905b8181106112ad57506110fa565b5f81556001016112a0565b7f8a35acfbc15ff81a39ae7d344fd709f28e8600b4aa8c65c6b64bfe7fe36bd19b9150611276565b9050810135876110c3565b90601f19169060035f52877fc2575a0e9e593c00f959f8c92f12db2869c3395a3b0502d05e2516446f71f85b925f5b818110611351575010611338575b5050600186811b016003556110d7565b5f1960f88960031b161c19908301351690558680611328565b8584013585556001909401936020938401938b93500161131a565b60035f52601f870160051c7fc2575a0e9e593c00f959f8c92f12db2869c3395a3b0502d05e2516446f71f85b0190602088106113e5575b601f0160051c7fc2575a0e9e593c00f959f8c92f12db2869c3395a3b0502d05e2516446f71f85b01905b8181106113da57506110ae565b5f81556001016113cd565b7fc2575a0e9e593c00f959f8c92f12db2869c3395a3b0502d05e2516446f71f85b91506113a3565b905085013587611077565b90601f19169060025f52857f405787fa12a823e0f2b7631cc41b3ba8828b3321ca811111fa75cd3aa3bb5ace925f5b81811061147e575010611465575b5050600184811b0160025561108b565b5f1960f88760031b161c19908701351690558680611455565b89840135855560019094019360209384019389935001611447565b60025f52601f850160051c7f405787fa12a823e0f2b7631cc41b3ba8828b3321ca811111fa75cd3aa3bb5ace019060208610611512575b601f0160051c7f405787fa12a823e0f2b7631cc41b3ba8828b3321ca811111fa75cd3aa3bb5ace01905b8181106115075750611062565b5f81556001016114fa565b7f405787fa12a823e0f2b7631cc41b3ba8828b3321ca811111fa75cd3aa3bb5ace91506114d0565b3461011c575f60031936011261011c575f60025461155781611652565b8084529060018116908115610292575060011461157e576102308361021c818503826116a3565b91905060025f527f405787fa12a823e0f2b7631cc41b3ba8828b3321ca811111fa75cd3aa3bb5ace915f905b8082106115c25750909150810160200161021c61020c565b9192600181602092548385880101520191019092916115aa565b90601f19601f602080948051918291828752018686015e5f8582860101520116010190565b9181601f8401121561011c5782359167ffffffffffffffff831161011c576020838186019501011161011c57565b6004359073ffffffffffffffffffffffffffffffffffffffff8216820361011c57565b90600182811c92168015611699575b602083101461166c57565b7f4e487b71000000000000000000000000000000000000000000000000000000005f52602260045260245ffd5b91607f1691611661565b90601f601f19910116810190811067ffffffffffffffff82111761098757604052565b601f8260209493601f1993818652868601375f8582860101520116010190565b156116ed57565b60846040517f08c379a000000000000000000000000000000000000000000000000000000000815260206004820152602660248201527f41546f6b656e446973706174636865723a2063616c6c6572206973206e6f742060448201527f6d696e74657200000000000000000000000000000000000000000000000000006064820152fd5b81601f8201121561011c5780519067ffffffffffffffff821161098757604051926117a6601f8401601f1916602001856116a3565b8284526020838301011161011c57815f9260208093018386015e8301015290565b9081602091031261011c5751801515810361011c5790565b8051156117ec5760200190565b7f4e487b71000000000000000000000000000000000000000000000000000000005f52603260045260245ffd5b8051600110156117ec5760400190565b73ffffffffffffffffffffffffffffffffffffffff5f5460081c16330361184c57565b7f118cdaa7000000000000000000000000000000000000000000000000000000005f523360045260245ffd5b60ff5f541661188357565b7fd93c0665000000000000000000000000000000000000000000000000000000005f5260045ffdfea2646970667358221220ca7d47c1a0d09fd1ac55e17a63929670ced8c1b177e73bd07ae65a5d1fd2cee564736f6c634300081e0033000000000000000000000000a3931d71877c0e7a3148cb7eb4463524fec27fbd0000000000000000000000005b26d938f0be6357c39e936cc9c2277b9334ea58000000000000000000000000ba1333333333a1ba1108e8412f11850a5c319ba90000000000000000000000000000000000000000000000000000000000000001000000000000000000000000cad1a7864a108dbff67f4b8af71fab0c7a86d0b6",
        "nonce": "0xa7",
        "chainId": "0x1"
      },
      "additionalContracts": [],
      "isFixedGasLimit": false
    },
    {
      "hash": "0x75e89d108a390dbf4c5e412cf427f84bf5893ee1555b40c15385f8ebef7311bc",
      "transactionType": "CALL",
      "contractName": "BalancerPooler",
      "contractAddress": "0xc2d1a82c66fd535ae218b59f77a1b716919a46c3",
      "function": "setMinter(address)",
      "arguments": [
        "0xd936461f1C15eA9f34Ca1F20ecD54A0819068811"
      ],
      "transaction": {
        "from": "0xcad1a7864a108dbff67f4b8af71fab0c7a86d0b6",
        "to": "0xc2d1a82c66fd535ae218b59f77a1b716919a46c3",
        "value": "0x0",
        "input": "0xfca3b5aa000000000000000000000000d936461f1c15ea9f34ca1f20ecd54a0819068811",
        "nonce": "0xa8",
        "chainId": "0x1"
      },
      "additionalContracts": [],
      "isFixedGasLimit": false
    },
    {
      "hash": "0x4cca1912fba91a4707d2e49654cb8f13c5ee103854d2d0a6da2410bf32b717fc",
      "transactionType": "CALL",
      "contractName": null,
      "contractAddress": "0xd936461f1c15ea9f34ca1f20ecd54a0819068811",
      "function": "setDispatcherDisabled(uint256,bool)",
      "arguments": [
        "4",
        "true"
      ],
      "transaction": {
        "from": "0xcad1a7864a108dbff67f4b8af71fab0c7a86d0b6",
        "to": "0xd936461f1c15ea9f34ca1f20ecd54a0819068811",
        "value": "0x0",
        "input": "0x81546b2100000000000000000000000000000000000000000000000000000000000000040000000000000000000000000000000000000000000000000000000000000001",
        "nonce": "0xa9",
        "chainId": "0x1"
      },
      "additionalContracts": [],
      "isFixedGasLimit": false
    },
    {
      "hash": "0x5a0e475b5e2b0d8b33735c509e90612b6f6f0f45d6f8bd77239c5d170b438f9f",
      "transactionType": "CALL",
      "contractName": null,
      "contractAddress": "0xd936461f1c15ea9f34ca1f20ecd54a0819068811",
      "function": "registerDispatcher(address,uint256,uint256)",
      "arguments": [
        "0xC2d1a82C66Fd535ae218b59F77a1B716919a46C3",
        "3706000000000000000",
        "500"
      ],
      "transaction": {
        "from": "0xcad1a7864a108dbff67f4b8af71fab0c7a86d0b6",
        "to": "0xd936461f1c15ea9f34ca1f20ecd54a0819068811",
        "value": "0x0",
        "input": "0xb3cb0af8000000000000000000000000c2d1a82c66fd535ae218b59f77a1b716919a46c3000000000000000000000000000000000000000000000000336e5b5d6199000000000000000000000000000000000000000000000000000000000000000001f4",
        "nonce": "0xaa",
        "chainId": "0x1"
      },
      "additionalContracts": [],
      "isFixedGasLimit": false
    },
    {
      "hash": "0xeb1a9657cbae2de7071b95228289c962b12cba8e7002ed5f61d50af4e8a66a69",
      "transactionType": "CALL",
      "contractName": null,
      "contractAddress": "0xd936461f1c15ea9f34ca1f20ecd54a0819068811",
      "function": "setPrice(uint256,uint256)",
      "arguments": [
        "5",
        "7120"
      ],
      "transaction": {
        "from": "0xcad1a7864a108dbff67f4b8af71fab0c7a86d0b6",
        "to": "0xd936461f1c15ea9f34ca1f20ecd54a0819068811",
        "value": "0x0",
        "input": "0xf7d9757700000000000000000000000000000000000000000000000000000000000000050000000000000000000000000000000000000000000000000000000000001bd0",
        "nonce": "0xab",
        "chainId": "0x1"
      },
      "additionalContracts": [],
      "isFixedGasLimit": false
    }
  ],
  "receipts": [
    {
      "status": "0x1",
      "cumulativeGasUsed": "0xea2ef0",
      "logs": [
        {
          "address": "0xc2d1a82c66fd535ae218b59f77a1b716919a46c3",
          "topics": [
            "0x8be0079c531659141344cd1fd0a4f28419497f9722a3daafe3b4186f6b6457e0",
            "0x0000000000000000000000000000000000000000000000000000000000000000",
            "0x000000000000000000000000cad1a7864a108dbff67f4b8af71fab0c7a86d0b6"
          ],
          "data": "0x",
          "blockHash": "0x7144e7655092619b33640950f3efc2b6394a887ce147557ec2fc1aea7771596a",
          "blockNumber": "0x178d273",
          "blockTimestamp": "0x69bca23f",
          "transactionHash": "0x34953887f4220ff7934d5b397a0383212a09c42c760bb004d766d560c0765733",
          "transactionIndex": "0x4b",
          "logIndex": "0x160",
          "removed": false
        }
      ],
      "logsBloom": "0x00000000000000000020000000000000000000000000000000800000000000000000000000000000000000400000000000000000000000000000000000000000000000000000000000000000000000000001000000000000000000000000000000000000020000000000000000000800000000000000000000000000000000400000000000000000000000000000000000000000000000000000000000000000000000000000000000000000000000000000000000000001000000000000000000000000000000000000000000000000000000000000100000080000000020000000001000000000000000000000000000000000000000000000000000000000",
      "type": "0x2",
      "transactionHash": "0x34953887f4220ff7934d5b397a0383212a09c42c760bb004d766d560c0765733",
      "transactionIndex": "0x4b",
      "blockHash": "0x7144e7655092619b33640950f3efc2b6394a887ce147557ec2fc1aea7771596a",
      "blockNumber": "0x178d273",
      "gasUsed": "0x162539",
      "effectiveGasPrice": "0x310baed",
      "from": "0xcad1a7864a108dbff67f4b8af71fab0c7a86d0b6",
      "to": null,
      "contractAddress": "0xc2d1a82c66fd535ae218b59f77a1b716919a46c3"
    },
    {
      "status": "0x1",
      "cumulativeGasUsed": "0xbb04cb",
      "logs": [],
      "logsBloom": "0x00000000000000000000000000000000000000000000000000000000000000000000000000000000000000000000000000000000000000000000000000000000000000000000000000000000000000000000000000000000000000000000000000000000000000000000000000000000000000000000000000000000000000000000000000000000000000000000000000000000000000000000000000000000000000000000000000000000000000000000000000000000000000000000000000000000000000000000000000000000000000000000000000000000000000000000000000000000000000000000000000000000000000000000000000000000",
      "type": "0x2",
      "transactionHash": "0x75e89d108a390dbf4c5e412cf427f84bf5893ee1555b40c15385f8ebef7311bc",
      "transactionIndex": "0x53",
      "blockHash": "0x2078193498c2b1547030a72219c0ff1e39ecc7625d9c24bcb6bbbc231e20cb04",
      "blockNumber": "0x178d274",
      "gasUsed": "0xb485",
      "effectiveGasPrice": "0x337e231",
      "from": "0xcad1a7864a108dbff67f4b8af71fab0c7a86d0b6",
      "to": "0xc2d1a82c66fd535ae218b59f77a1b716919a46c3",
      "contractAddress": null
    },
    {
      "status": "0x1",
      "cumulativeGasUsed": "0x111ac2f",
      "logs": [
        {
          "address": "0xd936461f1c15ea9f34ca1f20ecd54a0819068811",
          "topics": [
            "0x7ed45474447adc9c0971020b6844de2f18e31f5cb8dbb2cec429c78951606f4e",
            "0x0000000000000000000000000000000000000000000000000000000000000004"
          ],
          "data": "0x0000000000000000000000000000000000000000000000000000000000000001",
          "blockHash": "0xaf6850e210abd7fedd8fa8c4fefa9f1fdd5ce55a4f3f2bdc2d0c1b45ef2fb7d0",
          "blockNumber": "0x178d275",
          "blockTimestamp": "0x69bca257",
          "transactionHash": "0x4cca1912fba91a4707d2e49654cb8f13c5ee103854d2d0a6da2410bf32b717fc",
          "transactionIndex": "0xf3",
          "logIndex": "0x12a",
          "removed": false
        }
      ],
      "logsBloom": "0x00000000000008000000000000000000000000000000000000000000000000000000000000000000000000000000000000000000000000000000000000000000000000800000002000000000000000000000400000000000400000000000000008000000000000040000000000000000000000000000000000000000000000000000000000000000000000000000000000000000000000000000000000000000000000000000000000000000000000000000000000000000002000000000000000000000000000000000000000000000000000008000000000000000000000000000000000000000000000000000000000000000000000000000000000000000",
      "type": "0x2",
      "transactionHash": "0x4cca1912fba91a4707d2e49654cb8f13c5ee103854d2d0a6da2410bf32b717fc",
      "transactionIndex": "0xf3",
      "blockHash": "0xaf6850e210abd7fedd8fa8c4fefa9f1fdd5ce55a4f3f2bdc2d0c1b45ef2fb7d0",
      "blockNumber": "0x178d275",
      "gasUsed": "0xc2fd",
      "effectiveGasPrice": "0x3416a13",
      "from": "0xcad1a7864a108dbff67f4b8af71fab0c7a86d0b6",
      "to": "0xd936461f1c15ea9f34ca1f20ecd54a0819068811",
      "contractAddress": null
    },
    {
      "status": "0x1",
      "cumulativeGasUsed": "0x20abf00",
      "logs": [
        {
          "address": "0xd936461f1c15ea9f34ca1f20ecd54a0819068811",
          "topics": [
            "0x69312339c05092f4a83b5f46ce1187538cf296cf8a8041ef32dd3a6f9c086242",
            "0x0000000000000000000000000000000000000000000000000000000000000006",
            "0x000000000000000000000000c2d1a82c66fd535ae218b59f77a1b716919a46c3",
            "0x000000000000000000000000a3931d71877c0e7a3148cb7eb4463524fec27fbd"
          ],
          "data": "0x000000000000000000000000000000000000000000000000336e5b5d6199000000000000000000000000000000000000000000000000000000000000000001f4",
          "blockHash": "0x9a0c28f9440e9245c633ece41585ba9e9ec8b2495bcbf97df553cb7ddf2868df",
          "blockNumber": "0x178d277",
          "blockTimestamp": "0x69bca27b",
          "transactionHash": "0x5a0e475b5e2b0d8b33735c509e90612b6f6f0f45d6f8bd77239c5d170b438f9f",
          "transactionIndex": "0x297",
          "logIndex": "0x291",
          "removed": false
        }
      ],
      "logsBloom": "0x00000000000008000000000000000000000000000000200000000000000000000000000000000000000000000000000000000000000400000000000000000000000000800000000000000000080000000000000000008000400000000000000000000000000000000000000000000000000000000000000000000000000000000000000400080000000000000000000000000000000000000000000000000000000000010008008000000000000000000000000000000000000000080000000200000000000000000000000000000000000000000000000000000000000000000000000000000000000002000000000000000000000000000000000000000000",
      "type": "0x2",
      "transactionHash": "0x5a0e475b5e2b0d8b33735c509e90612b6f6f0f45d6f8bd77239c5d170b438f9f",
      "transactionIndex": "0x297",
      "blockHash": "0x9a0c28f9440e9245c633ece41585ba9e9ec8b2495bcbf97df553cb7ddf2868df",
      "blockNumber": "0x178d277",
      "gasUsed": "0x2b25b",
      "effectiveGasPrice": "0x339cf08",
      "from": "0xcad1a7864a108dbff67f4b8af71fab0c7a86d0b6",
      "to": "0xd936461f1c15ea9f34ca1f20ecd54a0819068811",
      "contractAddress": null
    },
    {
      "status": "0x1",
      "cumulativeGasUsed": "0x15e7b42",
      "logs": [
        {
          "address": "0xd936461f1c15ea9f34ca1f20ecd54a0819068811",
          "topics": [
            "0x15819dd2fd9f6418b142e798d08a18d0bf06ea368f4480b7b0d3f75bd966bc48",
            "0x0000000000000000000000000000000000000000000000000000000000000005"
          ],
          "data": "0x00000000000000000000000000000000000000000000000000000000000002c80000000000000000000000000000000000000000000000000000000000001bd0",
          "blockHash": "0x37da7fe957dc2c9a025ca0a32153a777063dda65ebef4d4e20aa7a3f1b648897",
          "blockNumber": "0x178d279",
          "blockTimestamp": "0x69bca293",
          "transactionHash": "0xeb1a9657cbae2de7071b95228289c962b12cba8e7002ed5f61d50af4e8a66a69",
          "transactionIndex": "0xb4",
          "logIndex": "0x1f4",
          "removed": false
        }
      ],
      "logsBloom": "0x00000000000408000000000000000000000000000000000000000000000000000000000000000000000000000000000000000000000000000000000000000000000010800000000000000000000000000000000000000000400000000000000000000000200000000000000000000000000000000000000000000000000000000000000000000000000000000000001000000800000000000000000000000000000000000000000000000000000000000000000000000000000000000000000000000000000000000000000000000000000000000002000000000000000000000000000000000000000000000000000000000000000000000000000000000000",
      "type": "0x2",
      "transactionHash": "0xeb1a9657cbae2de7071b95228289c962b12cba8e7002ed5f61d50af4e8a66a69",
      "transactionIndex": "0xb4",
      "blockHash": "0x37da7fe957dc2c9a025ca0a32153a777063dda65ebef4d4e20aa7a3f1b648897",
      "blockNumber": "0x178d279",
      "gasUsed": "0x82ae",
      "effectiveGasPrice": "0x3667bfd",
      "from": "0xcad1a7864a108dbff67f4b8af71fab0c7a86d0b6",
      "to": "0xd936461f1c15ea9f34ca1f20ecd54a0819068811",
      "contractAddress": null
    }
  ],
  "libraries": [],
  "pending": [],
  "returns": {},
  "timestamp": 1773970068967,
  "chain": 1,
  "commit": "f573984"
}