{
  "transactions": [
    {
      "hash": null,
      "transactionType": "CALL",
      "contractName": null,
      "contractAddress": "0x8b4a75290a1c4935ec1dfd990374ac4bd4d33952",
      "function": "setPauser(address)",
      "arguments": [
        "0xCad1a7864a108DBFF67F4b8af71fAB0C7A86D0B6"
      ],
      "transaction": {
        "from": "0xcad1a7864a108dbff67f4b8af71fab0c7a86d0b6",
        "to": "0x8b4a75290a1c4935ec1dfd990374ac4bd4d33952",
        "gas": "0xa406",
        "value": "0x0",
        "input": "0x2d88af4a000000000000000000000000cad1a7864a108dbff67f4b8af71fab0c7a86d0b6",
        "nonce": "0x14a",
        "chainId": "0x1"
      },
      "additionalContracts": [],
      "isFixedGasLimit": false
    },
    {
      "hash": null,
      "transactionType": "CALL",
      "contractName": null,
      "contractAddress": "0x8b4a75290a1c4935ec1dfd990374ac4bd4d33952",
      "function": "pause()",
      "arguments": [],
      "transaction": {
        "from": "0xcad1a7864a108dbff67f4b8af71fab0c7a86d0b6",
        "to": "0x8b4a75290a1c4935ec1dfd990374ac4bd4d33952",
        "gas": "0xaad7",
        "value": "0x0",
        "input": "0x8456cb59",
        "nonce": "0x14b",
        "chainId": "0x1"
      },
      "additionalContracts": [],
      "isFixedGasLimit": false
    },
    {
      "hash": null,
      "transactionType": "CALL",
      "contractName": null,
      "contractAddress": "0xe7aec21bf6420ff483107adcb9360c4b31d69d78",
      "function": "setPauser(address)",
      "arguments": [
        "0xCad1a7864a108DBFF67F4b8af71fAB0C7A86D0B6"
      ],
      "transaction": {
        "from": "0xcad1a7864a108dbff67f4b8af71fab0c7a86d0b6",
        "to": "0xe7aec21bf6420ff483107adcb9360c4b31d69d78",
        "gas": "0xa406",
        "value": "0x0",
        "input": "0x2d88af4a000000000000000000000000cad1a7864a108dbff67f4b8af71fab0c7a86d0b6",
        "nonce": "0x14c",
        "chainId": "0x1"
      },
      "additionalContracts": [],
      "isFixedGasLimit": false
    },
    {
      "hash": null,
      "transactionType": "CALL",
      "contractName": null,
      "contractAddress": "0xe7aec21bf6420ff483107adcb9360c4b31d69d78",
      "function": "pause()",
      "arguments": [],
      "transaction": {
        "from": "0xcad1a7864a108dbff67f4b8af71fab0c7a86d0b6",
        "to": "0xe7aec21bf6420ff483107adcb9360c4b31d69d78",
        "gas": "0xaad7",
        "value": "0x0",
        "input": "0x8456cb59",
        "nonce": "0x14d",
        "chainId": "0x1"
      },
      "additionalContracts": [],
      "isFixedGasLimit": false
    },
    {
      "hash": null,
      "transactionType": "CALL",
      "contractName": null,
      "contractAddress": "0xfc629bc5f6339f77635f4f656fbb114a31f7bcb3",
      "function": "setPauser(address)",
      "arguments": [
        "0xCad1a7864a108DBFF67F4b8af71fAB0C7A86D0B6"
      ],
      "transaction": {
        "from": "0xcad1a7864a108dbff67f4b8af71fab0c7a86d0b6",
        "to": "0xfc629bc5f6339f77635f4f656fbb114a31f7bcb3",
        "gas": "0xa441",
        "value": "0x0",
        "input": "0x2d88af4a000000000000000000000000cad1a7864a108dbff67f4b8af71fab0c7a86d0b6",
        "nonce": "0x14e",
        "chainId": "0x1"
      },
      "additionalContracts": [],
      "isFixedGasLimit": false
    },
    {
      "hash": null,
      "transactionType": "CALL",
      "contractName": null,
      "contractAddress": "0xfc629bc5f6339f77635f4f656fbb114a31f7bcb3",
      "function": "pause()",
      "arguments": [],
      "transaction": {
        "from": "0xcad1a7864a108dbff67f4b8af71fab0c7a86d0b6",
        "to": "0xfc629bc5f6339f77635f4f656fbb114a31f7bcb3",
        "gas": "0xa196",
        "value": "0x0",
        "input": "0x8456cb59",
        "nonce": "0x14f",
        "chainId": "0x1"
      },
      "additionalContracts": [],
      "isFixedGasLimit": false
    },
    {
      "hash": null,
      "transactionType": "CALL",
      "contractName": null,
      "contractAddress": "0x435b0a1884bd0fb5667677c9eb0e59425b1477e5",
      "function": "setPauser(address)",
      "arguments": [
        "0xCad1a7864a108DBFF67F4b8af71fAB0C7A86D0B6"
      ],
      "transaction": {
        "from": "0xcad1a7864a108dbff67f4b8af71fab0c7a86d0b6",
        "to": "0x435b0a1884bd0fb5667677c9eb0e59425b1477e5",
        "gas": "0xb129",
        "value": "0x0",
        "input": "0x2d88af4a000000000000000000000000cad1a7864a108dbff67f4b8af71fab0c7a86d0b6",
        "nonce": "0x150",
        "chainId": "0x1"
      },
      "additionalContracts": [],
      "isFixedGasLimit": false
    },
    {
      "hash": null,
      "transactionType": "CALL",
      "contractName": null,
      "contractAddress": "0x435b0a1884bd0fb5667677c9eb0e59425b1477e5",
      "function": "pause()",
      "arguments": [],
      "transaction": {
        "from": "0xcad1a7864a108dbff67f4b8af71fab0c7a86d0b6",
        "to": "0x435b0a1884bd0fb5667677c9eb0e59425b1477e5",
        "gas": "0x9ec9",
        "value": "0x0",
        "input": "0x8456cb59",
        "nonce": "0x151",
        "chainId": "0x1"
      },
      "additionalContracts": [],
      "isFixedGasLimit": false
    },
    {
      "hash": null,
      "transactionType": "CALL",
      "contractName": null,
      "contractAddress": "0xb9639e6be92033f55e6d9e375fd1c28ceedba50e",
      "function": "setPauser(address)",
      "arguments": [
        "0xCad1a7864a108DBFF67F4b8af71fAB0C7A86D0B6"
      ],
      "transaction": {
        "from": "0xcad1a7864a108dbff67f4b8af71fab0c7a86d0b6",
        "to": "0xb9639e6be92033f55e6d9e375fd1c28ceedba50e",
        "gas": "0xada2",
        "value": "0x0",
        "input": "0x2d88af4a000000000000000000000000cad1a7864a108dbff67f4b8af71fab0c7a86d0b6",
        "nonce": "0x152",
        "chainId": "0x1"
      },
      "additionalContracts": [],
      "isFixedGasLimit": false
    },
    {
      "hash": null,
      "transactionType": "CALL",
      "contractName": null,
      "contractAddress": "0xb9639e6be92033f55e6d9e375fd1c28ceedba50e",
      "function": "pause()",
      "arguments": [],
      "transaction": {
        "from": "0xcad1a7864a108dbff67f4b8af71fab0c7a86d0b6",
        "to": "0xb9639e6be92033f55e6d9e375fd1c28ceedba50e",
        "gas": "0xaaef",
        "value": "0x0",
        "input": "0x8456cb59",
        "nonce": "0x153",
        "chainId": "0x1"
      },
      "additionalContracts": [],
      "isFixedGasLimit": false
    },
    {
      "hash": null,
      "transactionType": "CALL",
      "contractName": null,
      "contractAddress": "0x8b4a75290a1c4935ec1dfd990374ac4bd4d33952",
      "function": "unpause()",
      "arguments": [],
      "transaction": {
        "from": "0xcad1a7864a108dbff67f4b8af71fab0c7a86d0b6",
        "to": "0x8b4a75290a1c4935ec1dfd990374ac4bd4d33952",
        "gas": "0x9409",
        "value": "0x0",
        "input": "0x3f4ba83a",
        "nonce": "0x154",
        "chainId": "0x1"
      },
      "additionalContracts": [],
      "isFixedGasLimit": false
    },
    {
      "hash": null,
      "transactionType": "CALL",
      "contractName": null,
      "contractAddress": "0x8b4a75290a1c4935ec1dfd990374ac4bd4d33952",
      "function": "totalWithdrawal(address,address)",
      "arguments": [
        "0xA0b86991c6218b36c1d19D4a2e9Eb0cE3606eB48",
        "0x435B0A1884bd0fb5667677C9eb0e59425b1477E5"
      ],
      "transaction": {
        "from": "0xcad1a7864a108dbff67f4b8af71fab0c7a86d0b6",
        "to": "0x8b4a75290a1c4935ec1dfd990374ac4bd4d33952",
        "gas": "0x43783",
        "value": "0x0",
        "input": "0x32e4036d000000000000000000000000a0b86991c6218b36c1d19d4a2e9eb0ce3606eb48000000000000000000000000435b0a1884bd0fb5667677c9eb0e59425b1477e5",
        "nonce": "0x155",
        "chainId": "0x1"
      },
      "additionalContracts": [],
      "isFixedGasLimit": false
    },
    {
      "hash": null,
      "transactionType": "CALL",
      "contractName": null,
      "contractAddress": "0x8b4a75290a1c4935ec1dfd990374ac4bd4d33952",
      "function": "pause()",
      "arguments": [],
      "transaction": {
        "from": "0xcad1a7864a108dbff67f4b8af71fab0c7a86d0b6",
        "to": "0x8b4a75290a1c4935ec1dfd990374ac4bd4d33952",
        "gas": "0xaad7",
        "value": "0x0",
        "input": "0x8456cb59",
        "nonce": "0x156",
        "chainId": "0x1"
      },
      "additionalContracts": [],
      "isFixedGasLimit": false
    },
    {
      "hash": null,
      "transactionType": "CALL",
      "contractName": null,
      "contractAddress": "0xe7aec21bf6420ff483107adcb9360c4b31d69d78",
      "function": "unpause()",
      "arguments": [],
      "transaction": {
        "from": "0xcad1a7864a108dbff67f4b8af71fab0c7a86d0b6",
        "to": "0xe7aec21bf6420ff483107adcb9360c4b31d69d78",
        "gas": "0x9409",
        "value": "0x0",
        "input": "0x3f4ba83a",
        "nonce": "0x157",
        "chainId": "0x1"
      },
      "additionalContracts": [],
      "isFixedGasLimit": false
    },
    {
      "hash": null,
      "transactionType": "CALL",
      "contractName": null,
      "contractAddress": "0xe7aec21bf6420ff483107adcb9360c4b31d69d78",
      "function": "totalWithdrawal(address,address)",
      "arguments": [
        "0x865377367054516e17014CcdED1e7d814EDC9ce4",
        "0x435B0A1884bd0fb5667677C9eb0e59425b1477E5"
      ],
      "transaction": {
        "from": "0xcad1a7864a108dbff67f4b8af71fab0c7a86d0b6",
        "to": "0xe7aec21bf6420ff483107adcb9360c4b31d69d78",
        "gas": "0x242f5f",
        "value": "0x0",
        "input": "0x32e4036d000000000000000000000000865377367054516e17014ccded1e7d814edc9ce4000000000000000000000000435b0a1884bd0fb5667677c9eb0e59425b1477e5",
        "nonce": "0x158",
        "chainId": "0x1"
      },
      "additionalContracts": [],
      "isFixedGasLimit": false
    },
    {
      "hash": null,
      "transactionType": "CALL",
      "contractName": null,
      "contractAddress": "0xe7aec21bf6420ff483107adcb9360c4b31d69d78",
      "function": "pause()",
      "arguments": [],
      "transaction": {
        "from": "0xcad1a7864a108dbff67f4b8af71fab0c7a86d0b6",
        "to": "0xe7aec21bf6420ff483107adcb9360c4b31d69d78",
        "gas": "0xaad7",
        "value": "0x0",
        "input": "0x8456cb59",
        "nonce": "0x159",
        "chainId": "0x1"
      },
      "additionalContracts": [],
      "isFixedGasLimit": false
    },
    {
      "hash": null,
      "transactionType": "CALL",
      "contractName": null,
      "contractAddress": "0x435b0a1884bd0fb5667677c9eb0e59425b1477e5",
      "function": "unpause()",
      "arguments": [],
      "transaction": {
        "from": "0xcad1a7864a108dbff67f4b8af71fab0c7a86d0b6",
        "to": "0x435b0a1884bd0fb5667677c9eb0e59425b1477e5",
        "gas": "0x95d7",
        "value": "0x0",
        "input": "0x3f4ba83a",
        "nonce": "0x15a",
        "chainId": "0x1"
      },
      "additionalContracts": [],
      "isFixedGasLimit": false
    },
    {
      "hash": null,
      "transactionType": "CALL",
      "contractName": null,
      "contractAddress": "0x8b4a75290a1c4935ec1dfd990374ac4bd4d33952",
      "function": "unpause()",
      "arguments": [],
      "transaction": {
        "from": "0xcad1a7864a108dbff67f4b8af71fab0c7a86d0b6",
        "to": "0x8b4a75290a1c4935ec1dfd990374ac4bd4d33952",
        "gas": "0x9409",
        "value": "0x0",
        "input": "0x3f4ba83a",
        "nonce": "0x15b",
        "chainId": "0x1"
      },
      "additionalContracts": [],
      "isFixedGasLimit": false
    },
    {
      "hash": null,
      "transactionType": "CALL",
      "contractName": null,
      "contractAddress": "0xa0b86991c6218b36c1d19d4a2e9eb0ce3606eb48",
      "function": "approve(address,uint256)",
      "arguments": [
        "0x435B0A1884bd0fb5667677C9eb0e59425b1477E5",
        "10152060684"
      ],
      "transaction": {
        "from": "0xcad1a7864a108dbff67f4b8af71fab0c7a86d0b6",
        "to": "0xa0b86991c6218b36c1d19d4a2e9eb0ce3606eb48",
        "gas": "0x12be3",
        "value": "0x0",
        "input": "0x095ea7b3000000000000000000000000435b0a1884bd0fb5667677c9eb0e59425b1477e5000000000000000000000000000000000000000000000000000000025d1c270c",
        "nonce": "0x15c",
        "chainId": "0x1"
      },
      "additionalContracts": [],
      "isFixedGasLimit": false
    },
    {
      "hash": null,
      "transactionType": "CALL",
      "contractName": null,
      "contractAddress": "0x435b0a1884bd0fb5667677c9eb0e59425b1477e5",
      "function": "noMintDeposit(address,address,uint256)",
      "arguments": [
        "0x8b4A75290A1C4935eC1dfd990374AC4BD4D33952",
        "0xA0b86991c6218b36c1d19D4a2e9Eb0cE3606eB48",
        "10152060684"
      ],
      "transaction": {
        "from": "0xcad1a7864a108dbff67f4b8af71fab0c7a86d0b6",
        "to": "0x435b0a1884bd0fb5667677c9eb0e59425b1477e5",
        "gas": "0x5cfa5",
        "value": "0x0",
        "input": "0x41a93d060000000000000000000000008b4a75290a1c4935ec1dfd990374ac4bd4d33952000000000000000000000000a0b86991c6218b36c1d19d4a2e9eb0ce3606eb48000000000000000000000000000000000000000000000000000000025d1c270c",
        "nonce": "0x15d",
        "chainId": "0x1"
      },
      "additionalContracts": [],
      "isFixedGasLimit": false
    },
    {
      "hash": null,
      "transactionType": "CALL",
      "contractName": null,
      "contractAddress": "0x8b4a75290a1c4935ec1dfd990374ac4bd4d33952",
      "function": "setPauser(address)",
      "arguments": [
        "0x7c5A8EeF1d836450C019FB036453ac6eC97885a3"
      ],
      "transaction": {
        "from": "0xcad1a7864a108dbff67f4b8af71fab0c7a86d0b6",
        "to": "0x8b4a75290a1c4935ec1dfd990374ac4bd4d33952",
        "gas": "0xa406",
        "value": "0x0",
        "input": "0x2d88af4a0000000000000000000000007c5a8eef1d836450c019fb036453ac6ec97885a3",
        "nonce": "0x15e",
        "chainId": "0x1"
      },
      "additionalContracts": [],
      "isFixedGasLimit": false
    },
    {
      "hash": null,
      "transactionType": "CALL",
      "contractName": null,
      "contractAddress": "0xe7aec21bf6420ff483107adcb9360c4b31d69d78",
      "function": "unpause()",
      "arguments": [],
      "transaction": {
        "from": "0xcad1a7864a108dbff67f4b8af71fab0c7a86d0b6",
        "to": "0xe7aec21bf6420ff483107adcb9360c4b31d69d78",
        "gas": "0x9409",
        "value": "0x0",
        "input": "0x3f4ba83a",
        "nonce": "0x15f",
        "chainId": "0x1"
      },
      "additionalContracts": [],
      "isFixedGasLimit": false
    },
    {
      "hash": null,
      "transactionType": "CALL",
      "contractName": "ERC20",
      "contractAddress": "0x865377367054516e17014ccded1e7d814edc9ce4",
      "function": "approve(address,uint256)",
      "arguments": [
        "0x435B0A1884bd0fb5667677C9eb0e59425b1477E5",
        "11204457321341426438533"
      ],
      "transaction": {
        "from": "0xcad1a7864a108dbff67f4b8af71fab0c7a86d0b6",
        "to": "0x865377367054516e17014ccded1e7d814edc9ce4",
        "gas": "0xf8e8",
        "value": "0x0",
        "input": "0x095ea7b3000000000000000000000000435b0a1884bd0fb5667677c9eb0e59425b1477e500000000000000000000000000000000000000000000025f6514ca003c7d9185",
        "nonce": "0x160",
        "chainId": "0x1"
      },
      "additionalContracts": [],
      "isFixedGasLimit": false
    },
    {
      "hash": null,
      "transactionType": "CALL",
      "contractName": null,
      "contractAddress": "0x435b0a1884bd0fb5667677c9eb0e59425b1477e5",
      "function": "noMintDeposit(address,address,uint256)",
      "arguments": [
        "0xE7aEC21BF6420FF483107adCB9360C4b31d69D78",
        "0x865377367054516e17014CcdED1e7d814EDC9ce4",
        "11204457321341426438533"
      ],
      "transaction": {
        "from": "0xcad1a7864a108dbff67f4b8af71fab0c7a86d0b6",
        "to": "0x435b0a1884bd0fb5667677c9eb0e59425b1477e5",
        "gas": "0x55804",
        "value": "0x0",
        "input": "0x41a93d06000000000000000000000000e7aec21bf6420ff483107adcb9360c4b31d69d78000000000000000000000000865377367054516e17014ccded1e7d814edc9ce400000000000000000000000000000000000000000000025f6514ca003c7d9185",
        "nonce": "0x161",
        "chainId": "0x1"
      },
      "additionalContracts": [],
      "isFixedGasLimit": false
    },
    {
      "hash": null,
      "transactionType": "CALL",
      "contractName": null,
      "contractAddress": "0xe7aec21bf6420ff483107adcb9360c4b31d69d78",
      "function": "setPauser(address)",
      "arguments": [
        "0x7c5A8EeF1d836450C019FB036453ac6eC97885a3"
      ],
      "transaction": {
        "from": "0xcad1a7864a108dbff67f4b8af71fab0c7a86d0b6",
        "to": "0xe7aec21bf6420ff483107adcb9360c4b31d69d78",
        "gas": "0xa406",
        "value": "0x0",
        "input": "0x2d88af4a0000000000000000000000007c5a8eef1d836450c019fb036453ac6ec97885a3",
        "nonce": "0x162",
        "chainId": "0x1"
      },
      "additionalContracts": [],
      "isFixedGasLimit": false
    },
    {
      "hash": null,
      "transactionType": "CALL",
      "contractName": null,
      "contractAddress": "0xa0b86991c6218b36c1d19d4a2e9eb0ce3606eb48",
      "function": "approve(address,uint256)",
      "arguments": [
        "0x16C6521Dff6baB339122a0FE25a9116693265353",
        "1791540121"
      ],
      "transaction": {
        "from": "0xcad1a7864a108dbff67f4b8af71fab0c7a86d0b6",
        "to": "0xa0b86991c6218b36c1d19d4a2e9eb0ce3606eb48",
        "gas": "0x13d76",
        "value": "0x0",
        "input": "0x095ea7b300000000000000000000000016c6521dff6bab339122a0fe25a9116693265353000000000000000000000000000000000000000000000000000000006ac8bb99",
        "nonce": "0x163",
        "chainId": "0x1"
      },
      "additionalContracts": [],
      "isFixedGasLimit": false
    },
    {
      "hash": null,
      "transactionType": "CALL",
      "contractName": null,
      "contractAddress": "0x16c6521dff6bab339122a0fe25a9116693265353",
      "function": "exchange(address[11],uint256[5][5],uint256,uint256,address[5],address)",
      "arguments": [
        "[0xA0b86991c6218b36c1d19D4a2e9Eb0cE3606eB48, 0x02950460E2b9529D0E00284A5fA2d7bDF3fA4d72, 0x4c9EDD5852cd905f086C759E8383e09bff1E68B3, 0x0000000000000000000000000000000000000000, 0x0000000000000000000000000000000000000000, 0x0000000000000000000000000000000000000000, 0x0000000000000000000000000000000000000000, 0x0000000000000000000000000000000000000000, 0x0000000000000000000000000000000000000000, 0x0000000000000000000000000000000000000000, 0x0000000000000000000000000000000000000000]",
        "[[1, 0, 1, 10, 2], [0, 0, 0, 0, 0], [0, 0, 0, 0, 0], [0, 0, 0, 0, 0], [0, 0, 0, 0, 0]]",
        "1791540121",
        "1787957040758000000000",
        "[0x0000000000000000000000000000000000000000, 0x0000000000000000000000000000000000000000, 0x0000000000000000000000000000000000000000, 0x0000000000000000000000000000000000000000, 0x0000000000000000000000000000000000000000]",
        "0xCad1a7864a108DBFF67F4b8af71fAB0C7A86D0B6"
      ],
      "transaction": {
        "from": "0xcad1a7864a108dbff67f4b8af71fab0c7a86d0b6",
        "to": "0x16c6521dff6bab339122a0fe25a9116693265353",
        "gas": "0x4f99d",
        "value": "0x0",
        "input": "0xc872a3c5000000000000000000000000a0b86991c6218b36c1d19d4a2e9eb0ce3606eb4800000000000000000000000002950460e2b9529d0e00284a5fa2d7bdf3fa4d720000000000000000000000004c9edd5852cd905f086c759e8383e09bff1e68b300000000000000000000000000000000000000000000000000000000000000000000000000000000000000000000000000000000000000000000000000000000000000000000000000000000000000000000000000000000000000000000000000000000000000000000000000000000000000000000000000000000000000000000000000000000000000000000000000000000000000000000000000000000000000000000000000000000000000000000000000000000000000000000000000000000000000000000000000000000000000000000000000000000000000000000000000000000000000000000000000000000000000000000000000000000000000000000000000000000000000000000000000000000000000000000000100000000000000000000000000000000000000000000000000000000000000000000000000000000000000000000000000000000000000000000000000000001000000000000000000000000000000000000000000000000000000000000000a000000000000000000000000000000000000000000000000000000000000000200000000000000000000000000000000000000000000000000000000000000000000000000000000000000000000000000000000000000000000000000000000000000000000000000000000000000000000000000000000000000000000000000000000000000000000000000000000000000000000000000000000000000000000000000000000000000000000000000000000000000000000000000000000000000000000000000000000000000000000000000000000000000000000000000000000000000000000000000000000000000000000000000000000000000000000000000000000000000000000000000000000000000000000000000000000000000000000000000000000000000000000000000000000000000000000000000000000000000000000000000000000000000000000000000000000000000000000000000000000000000000000000000000000000000000000000000000000000000000000000000000000000000000000000000000000000000000000000000000000000000000000000000000000000000000000000000000000000000000000000000000000000000000000000000000000000000000000000000000000000000000000000000000000000000000000000000000000000000000000000000000000000000000000000000000000000000000000000000000000000000000000000000000000000000000000000000000000000000000000000000000000000000000000000000000000000000000000000000000000000000000000000000000000000000000000000000000000000000000000000000000000000000000000000000000000000000000000000000000000000000000000000000000000000000000000000000000000000000000000000000000000000000006ac8bb99000000000000000000000000000000000000000000000060ece36f9127351c0000000000000000000000000000000000000000000000000000000000000000000000000000000000000000000000000000000000000000000000000000000000000000000000000000000000000000000000000000000000000000000000000000000000000000000000000000000000000000000000000000000000000000000000000000000000000000000000000000000000000000000000000000000000000000000000000000000000cad1a7864a108dbff67f4b8af71fab0c7a86d0b6",
        "nonce": "0x164",
        "chainId": "0x1"
      },
      "additionalContracts": [],
      "isFixedGasLimit": false
    },
    {
      "hash": null,
      "transactionType": "CALL",
      "contractName": "ERC20",
      "contractAddress": "0x865377367054516e17014ccded1e7d814edc9ce4",
      "function": "approve(address,uint256)",
      "arguments": [
        "0x16C6521Dff6baB339122a0FE25a9116693265353",
        "1977257174354369371506"
      ],
      "transaction": {
        "from": "0xcad1a7864a108dbff67f4b8af71fab0c7a86d0b6",
        "to": "0x865377367054516e17014ccded1e7d814edc9ce4",
        "gas": "0xf8e8",
        "value": "0x0",
        "input": "0x095ea7b300000000000000000000000016c6521dff6bab339122a0fe25a911669326535300000000000000000000000000000000000000000000006b2ff49c1e28cadd72",
        "nonce": "0x165",
        "chainId": "0x1"
      },
      "additionalContracts": [],
      "isFixedGasLimit": false
    },
    {
      "hash": null,
      "transactionType": "CALL",
      "contractName": null,
      "contractAddress": "0x16c6521dff6bab339122a0fe25a9116693265353",
      "function": "exchange(address[11],uint256[5][5],uint256,uint256,address[5],address)",
      "arguments": [
        "[0x865377367054516e17014CcdED1e7d814EDC9ce4, 0x8b83c4aA949254895507D09365229BC3a8c7f710, 0xa3931d71877C0E7a3148CB7Eb4463524FEc27fbD, 0x00836Fe54625BE242BcFA286207795405ca4fD10, 0xdAC17F958D2ee523a2206206994597C13D831ec7, 0x5B03CcCAb7BA3010fA5CAd23746cbf0794938e96, 0x4c9EDD5852cd905f086C759E8383e09bff1E68B3, 0x0000000000000000000000000000000000000000, 0x0000000000000000000000000000000000000000, 0x0000000000000000000000000000000000000000, 0x0000000000000000000000000000000000000000]",
        "[[0, 1, 1, 10, 2], [0, 1, 1, 10, 2], [0, 1, 1, 10, 2], [0, 0, 0, 0, 0], [0, 0, 0, 0, 0]]",
        "1977257174354369371506",
        "1957484602610825677790",
        "[0x0000000000000000000000000000000000000000, 0x0000000000000000000000000000000000000000, 0x0000000000000000000000000000000000000000, 0x0000000000000000000000000000000000000000, 0x0000000000000000000000000000000000000000]",
        "0xCad1a7864a108DBFF67F4b8af71fAB0C7A86D0B6"
      ],
      "transaction": {
        "from": "0xcad1a7864a108dbff67f4b8af71fab0c7a86d0b6",
        "to": "0x16c6521dff6bab339122a0fe25a9116693265353",
        "gas": "0x94b71",
        "value": "0x0",
        "input": "0xc872a3c5000000000000000000000000865377367054516e17014ccded1e7d814edc9ce40000000000000000000000008b83c4aa949254895507d09365229bc3a8c7f710000000000000000000000000a3931d71877c0e7a3148cb7eb4463524fec27fbd00000000000000000000000000836fe54625be242bcfa286207795405ca4fd10000000000000000000000000dac17f958d2ee523a2206206994597c13d831ec70000000000000000000000005b03cccab7ba3010fa5cad23746cbf0794938e960000000000000000000000004c9edd5852cd905f086c759e8383e09bff1e68b30000000000000000000000000000000000000000000000000000000000000000000000000000000000000000000000000000000000000000000000000000000000000000000000000000000000000000000000000000000000000000000000000000000000000000000000000000000000000000000000000000000000000000000000000000000000000000000000000000000000000000000000000000000000000000000000000000000000000000000000000000000000000000000000010000000000000000000000000000000000000000000000000000000000000001000000000000000000000000000000000000000000000000000000000000000a0000000000000000000000000000000000000000000000000000000000000002000000000000000000000000000000000000000000000000000000000000000000000000000000000000000000000000000000000000000000000000000000010000000000000000000000000000000000000000000000000000000000000001000000000000000000000000000000000000000000000000000000000000000a0000000000000000000000000000000000000000000000000000000000000002000000000000000000000000000000000000000000000000000000000000000000000000000000000000000000000000000000000000000000000000000000010000000000000000000000000000000000000000000000000000000000000001000000000000000000000000000000000000000000000000000000000000000a0000000000000000000000000000000000000000000000000000000000000002000000000000000000000000000000000000000000000000000000000000000000000000000000000000000000000000000000000000000000000000000000000000000000000000000000000000000000000000000000000000000000000000000000000000000000000000000000000000000000000000000000000000000000000000000000000000000000000000000000000000000000000000000000000000000000000000000000000000000000000000000000000000000000000000000000000000000000000000000000000000000000000000000000000000000000000000000000000000000000000000000000000000000000000000000000000000000000000000000000000000000000000000000000000000000000000000000000000000000000000000000000000000000000000000000000000000000000000000000000000000000000000000000000000000006b2ff49c1e28cadd7200000000000000000000000000000000000000000000006a1d8e52e06af1cbde00000000000000000000000000000000000000000000000000000000000000000000000000000000000000000000000000000000000000000000000000000000000000000000000000000000000000000000000000000000000000000000000000000000000000000000000000000000000000000000000000000000000000000000000000000000000000000000000000000000000000000000000000000000000000000000000000000000cad1a7864a108dbff67f4b8af71fab0c7a86d0b6",
        "nonce": "0x166",
        "chainId": "0x1"
      },
      "additionalContracts": [],
      "isFixedGasLimit": false
    },
    {
      "hash": null,
      "transactionType": "CALL",
      "contractName": null,
      "contractAddress": "0xfc629bc5f6339f77635f4f656fbb114a31f7bcb3",
      "function": "unpause()",
      "arguments": [],
      "transaction": {
        "from": "0xcad1a7864a108dbff67f4b8af71fab0c7a86d0b6",
        "to": "0xfc629bc5f6339f77635f4f656fbb114a31f7bcb3",
        "gas": "0x9d00",
        "value": "0x0",
        "input": "0x3f4ba83a",
        "nonce": "0x167",
        "chainId": "0x1"
      },
      "additionalContracts": [],
      "isFixedGasLimit": false
    },
    {
      "hash": null,
      "transactionType": "CALL",
      "contractName": null,
      "contractAddress": "0x4c9edd5852cd905f086c759e8383e09bff1e68b3",
      "function": "approve(address,uint256)",
      "arguments": [
        "0x435B0A1884bd0fb5667677C9eb0e59425b1477E5",
        "3752625616374500787886"
      ],
      "transaction": {
        "from": "0xcad1a7864a108dbff67f4b8af71fab0c7a86d0b6",
        "to": "0x4c9edd5852cd905f086c759e8383e09bff1e68b3",
        "gas": "0xf9e6",
        "value": "0x0",
        "input": "0x095ea7b3000000000000000000000000435b0a1884bd0fb5667677c9eb0e59425b1477e50000000000000000000000000000000000000000000000cb6e245bd4796986ae",
        "nonce": "0x168",
        "chainId": "0x1"
      },
      "additionalContracts": [],
      "isFixedGasLimit": false
    },
    {
      "hash": null,
      "transactionType": "CALL",
      "contractName": null,
      "contractAddress": "0x435b0a1884bd0fb5667677c9eb0e59425b1477e5",
      "function": "noMintDeposit(address,address,uint256)",
      "arguments": [
        "0xFc629bC5F6339F77635f4F656FBb114A31F7bCB3",
        "0x4c9EDD5852cd905f086C759E8383e09bff1E68B3",
        "3752625616374500787886"
      ],
      "transaction": {
        "from": "0xcad1a7864a108dbff67f4b8af71fab0c7a86d0b6",
        "to": "0x435b0a1884bd0fb5667677c9eb0e59425b1477e5",
        "gas": "0xae4e6",
        "value": "0x0",
        "input": "0x41a93d06000000000000000000000000fc629bc5f6339f77635f4f656fbb114a31f7bcb30000000000000000000000004c9edd5852cd905f086c759e8383e09bff1e68b30000000000000000000000000000000000000000000000cb6e245bd4796986ae",
        "nonce": "0x169",
        "chainId": "0x1"
      },
      "additionalContracts": [],
      "isFixedGasLimit": false
    },
    {
      "hash": null,
      "transactionType": "CALL",
      "contractName": null,
      "contractAddress": "0xfc629bc5f6339f77635f4f656fbb114a31f7bcb3",
      "function": "setPauser(address)",
      "arguments": [
        "0x7c5A8EeF1d836450C019FB036453ac6eC97885a3"
      ],
      "transaction": {
        "from": "0xcad1a7864a108dbff67f4b8af71fab0c7a86d0b6",
        "to": "0xfc629bc5f6339f77635f4f656fbb114a31f7bcb3",
        "gas": "0xa441",
        "value": "0x0",
        "input": "0x2d88af4a0000000000000000000000007c5a8eef1d836450c019fb036453ac6ec97885a3",
        "nonce": "0x16a",
        "chainId": "0x1"
      },
      "additionalContracts": [],
      "isFixedGasLimit": false
    },
    {
      "hash": null,
      "transactionType": "CALL",
      "contractName": null,
      "contractAddress": "0x435b0a1884bd0fb5667677c9eb0e59425b1477e5",
      "function": "setPauser(address)",
      "arguments": [
        "0x7c5A8EeF1d836450C019FB036453ac6eC97885a3"
      ],
      "transaction": {
        "from": "0xcad1a7864a108dbff67f4b8af71fab0c7a86d0b6",
        "to": "0x435b0a1884bd0fb5667677c9eb0e59425b1477e5",
        "gas": "0xb129",
        "value": "0x0",
        "input": "0x2d88af4a0000000000000000000000007c5a8eef1d836450c019fb036453ac6ec97885a3",
        "nonce": "0x16b",
        "chainId": "0x1"
      },
      "additionalContracts": [],
      "isFixedGasLimit": false
    },
    {
      "hash": null,
      "transactionType": "CALL",
      "contractName": null,
      "contractAddress": "0xb9639e6be92033f55e6d9e375fd1c28ceedba50e",
      "function": "unpause()",
      "arguments": [],
      "transaction": {
        "from": "0xcad1a7864a108dbff67f4b8af71fab0c7a86d0b6",
        "to": "0xb9639e6be92033f55e6d9e375fd1c28ceedba50e",
        "gas": "0x941f",
        "value": "0x0",
        "input": "0x3f4ba83a",
        "nonce": "0x16c",
        "chainId": "0x1"
      },
      "additionalContracts": [],
      "isFixedGasLimit": false
    },
    {
      "hash": null,
      "transactionType": "CALL",
      "contractName": null,
      "contractAddress": "0xb9639e6be92033f55e6d9e375fd1c28ceedba50e",
      "function": "setPauser(address)",
      "arguments": [
        "0x7c5A8EeF1d836450C019FB036453ac6eC97885a3"
      ],
      "transaction": {
        "from": "0xcad1a7864a108dbff67f4b8af71fab0c7a86d0b6",
        "to": "0xb9639e6be92033f55e6d9e375fd1c28ceedba50e",
        "gas": "0xada2",
        "value": "0x0",
        "input": "0x2d88af4a0000000000000000000000007c5a8eef1d836450c019fb036453ac6ec97885a3",
        "nonce": "0x16d",
        "chainId": "0x1"
      },
      "additionalContracts": [],
      "isFixedGasLimit": false
    }
  ],
  "receipts": [],
  "libraries": [],
  "pending": [],
  "returns": {},
  "timestamp": 1775850670879,
  "chain": 1,
  "commit": "4bb2bc9"
}