{
  "transactions": [
    {
      "hash": "0xf4f121668b67bfa9b0a6e8511fe961adf0c09ea2213a6d57fb9f0bb1403518c1",
      "transactionType": "CALL",
      "contractName": null,
      "contractAddress": "0x39af088408e815844c567037c157b31d48d2e10f",
      "function": "setDispatcherDisabled(uint256,bool)",
      "arguments": [
        "4",
        "false"
      ],
      "transaction": {
        "from": "0xcad1a7864a108dbff67f4b8af71fab0c7a86d0b6",
        "to": "0x39af088408e815844c567037c157b31d48d2e10f",
        "value": "0x0",
        "input": "0x81546b2100000000000000000000000000000000000000000000000000000000000000040000000000000000000000000000000000000000000000000000000000000000",
        "nonce": "0x209",
        "chainId": "0x1"
      },
      "additionalContracts": [],
      "isFixedGasLimit": false
    },
    {
      "hash": "0x1a183344e8617a174b52909e9de3f884487a643b7e1e9034f11c4458a32c6927",
      "transactionType": "CALL",
      "contractName": null,
      "contractAddress": "0xc17ce1ce5ebb43fc0cfda9fe8bbc849c0894631a",
      "function": "setPage(bytes32,address)",
      "arguments": [
        "0xdaf0b3c5710379609eb5495f1ecd348cb28167711b73609fe565a72734550354",
        "0x64FE63ca7BA456a9Bb190140e35DF2e437AbD119"
      ],
      "transaction": {
        "from": "0xcad1a7864a108dbff67f4b8af71fab0c7a86d0b6",
        "to": "0xc17ce1ce5ebb43fc0cfda9fe8bbc849c0894631a",
        "value": "0x0",
        "input": "0x4b79851cdaf0b3c5710379609eb5495f1ecd348cb28167711b73609fe565a7273455035400000000000000000000000064fe63ca7ba456a9bb190140e35df2e437abd119",
        "nonce": "0x20a",
        "chainId": "0x1"
      },
      "additionalContracts": [],
      "isFixedGasLimit": false
    }
  ],
  "receipts": [
    {
      "status": "0x1",
      "cumulativeGasUsed": "0x11ec4e6",
      "logs": [
        {
          "address": "0x39af088408e815844c567037c157b31d48d2e10f",
          "topics": [
            "0x7ed45474447adc9c0971020b6844de2f18e31f5cb8dbb2cec429c78951606f4e",
            "0x0000000000000000000000000000000000000000000000000000000000000004"
          ],
          "data": "0x0000000000000000000000000000000000000000000000000000000000000000",
          "blockHash": "0xe942365c25570f5f99e3cb13f53e0e5c956661a95ade5b493dd1f359687de501",
          "blockNumber": "0x17fbc6b",
          "blockTimestamp": "0x6a0fe0d7",
          "transactionHash": "0xf4f121668b67bfa9b0a6e8511fe961adf0c09ea2213a6d57fb9f0bb1403518c1",
          "transactionIndex": "0xc6",
          "logIndex": "0x233",
          "removed": false
        }
      ],
      "logsBloom": "0x00000000000000000000000000000000000000000000000000000000000000000000000000000000000000000000000000000000000000000000000000000000000000000000002000000000000000000000400000000000000000000000000008000000000000040001000000000000000000000000000000000000000000000000000000000000000000000000000000000000000000000000000000000000000000000000000000000000000000000008000000000000002000000000000000000000000000000000000000000000000000008000000000000000000000000000000000000000000000000000080000000000000000000000000000000000",
      "type": "0x2",
      "transactionHash": "0xf4f121668b67bfa9b0a6e8511fe961adf0c09ea2213a6d57fb9f0bb1403518c1",
      "transactionIndex": "0xc6",
      "blockHash": "0xe942365c25570f5f99e3cb13f53e0e5c956661a95ade5b493dd1f359687de501",
      "blockNumber": "0x17fbc6b",
      "gasUsed": "0x6d65",
      "effectiveGasPrice": "0x886d123",
      "from": "0xcad1a7864a108dbff67f4b8af71fab0c7a86d0b6",
      "to": "0x39af088408e815844c567037c157b31d48d2e10f",
      "contractAddress": null
    },
    {
      "status": "0x1",
      "cumulativeGasUsed": "0x2c9af45",
      "logs": [
        {
          "address": "0xc17ce1ce5ebb43fc0cfda9fe8bbc849c0894631a",
          "topics": [
            "0x44f142af6f53df2b0161c86109efbe1333c9bc646587e098499f604b0137b352",
            "0xdaf0b3c5710379609eb5495f1ecd348cb28167711b73609fe565a72734550354"
          ],
          "data": "0x00000000000000000000000064fe63ca7ba456a9bb190140e35df2e437abd119",
          "blockHash": "0xa55b5ce5e7efd2730c08e0d0472c2707bb135787bf76f826097bf1d9d65bbc81",
          "blockNumber": "0x17fbc6d",
          "blockTimestamp": "0x6a0fe0ef",
          "transactionHash": "0x1a183344e8617a174b52909e9de3f884487a643b7e1e9034f11c4458a32c6927",
          "transactionIndex": "0xb0",
          "logIndex": "0x81c",
          "removed": false
        }
      ],
      "logsBloom": "0x00000040000000000000000000000000000000000000000000000008000000000000000000000000000000000000000000000000000000000000000000000002000000000000000000000000000000000000000200000000000000000000000000000000000000000000000000000000000000000004000000000000000010000000000000000000000000000000000000000000000000000000000000000000000000000000000000000002000000000000000000000000000000000000000000000000000020000000000000000000000000001000000000000000000000000000000000000000000000000000000000000000000000000000000000000000",
      "type": "0x2",
      "transactionHash": "0x1a183344e8617a174b52909e9de3f884487a643b7e1e9034f11c4458a32c6927",
      "transactionIndex": "0xb0",
      "blockHash": "0xa55b5ce5e7efd2730c08e0d0472c2707bb135787bf76f826097bf1d9d65bbc81",
      "blockNumber": "0x17fbc6d",
      "gasUsed": "0x784c",
      "effectiveGasPrice": "0x7b27ff4",
      "from": "0xcad1a7864a108dbff67f4b8af71fab0c7a86d0b6",
      "to": "0xc17ce1ce5ebb43fc0cfda9fe8bbc849c0894631a",
      "contractAddress": null
    }
  ],
  "libraries": [],
  "pending": [],
  "returns": {},
  "timestamp": 1779425522264,
  "chain": 1,
  "commit": "22ae35d"
}