{
  "transactions": [
    {
      "hash": "0xb3b54fb8664e875e57832eabac56780ff73e74ac004dfe2acc3f25ec498ec1e7",
      "transactionType": "CALL",
      "contractName": null,
      "contractAddress": "0xe7f1725e7734ce288f8367e1bb143e90bb3f0512",
      "function": "mint(address,uint256)",
      "arguments": [
        "0x82e01223d51Eb87e16A03E24687EDF0F294da6f1",
        "100000000000"
      ],
      "transaction": {
        "from": "0xf39fd6e51aad88f6f4ce6ab8827279cfffb92266",
        "to": "0xe7f1725e7734ce288f8367e1bb143e90bb3f0512",
        "gas": "0x12330",
        "value": "0x0",
        "input": "0x40c10f1900000000000000000000000082e01223d51eb87e16a03e24687edf0f294da6f1000000000000000000000000000000000000000000000000000000174876e800",
        "nonce": "0x93",
        "chainId": "0x7a69"
      },
      "additionalContracts": [],
      "isFixedGasLimit": false
    },
    {
      "hash": "0xbeb92216c95940ca922f676074b989e5e0317b5250311bcf841fb23dccccc0e6",
      "transactionType": "CALL",
      "contractName": null,
      "contractAddress": "0x9fe46736679d2d9a65f0992f2272de9f3c7fa6e0",
      "function": "mint(address,uint256)",
      "arguments": [
        "0xf39Fd6e51aad88F6F4ce6aB8827279cffFb92266",
        "100000000000000000000"
      ],
      "transaction": {
        "from": "0xf39fd6e51aad88f6f4ce6ab8827279cfffb92266",
        "to": "0x9fe46736679d2d9a65f0992f2272de9f3c7fa6e0",
        "gas": "0xb6d2",
        "value": "0x0",
        "input": "0x40c10f19000000000000000000000000f39fd6e51aad88f6f4ce6ab8827279cfffb922660000000000000000000000000000000000000000000000056bc75e2d63100000",
        "nonce": "0x94",
        "chainId": "0x7a69"
      },
      "additionalContracts": [],
      "isFixedGasLimit": false
    },
    {
      "hash": "0x6c5a7b9e45e66868e251d27defb39462ba0c7236feaee625e626f8d0a2ffff71",
      "transactionType": "CALL",
      "contractName": null,
      "contractAddress": "0x9fe46736679d2d9a65f0992f2272de9f3c7fa6e0",
      "function": "approve(address,uint256)",
      "arguments": [
        "0xCf7Ed3AccA5a467e9e704C703E8D87F634fB0Fc9",
        "100000000000000000000"
      ],
      "transaction": {
        "from": "0xf39fd6e51aad88f6f4ce6ab8827279cfffb92266",
        "to": "0x9fe46736679d2d9a65f0992f2272de9f3c7fa6e0",
        "gas": "0x1067a",
        "value": "0x0",
        "input": "0x095ea7b3000000000000000000000000cf7ed3acca5a467e9e704c703e8d87f634fb0fc90000000000000000000000000000000000000000000000056bc75e2d63100000",
        "nonce": "0x95",
        "chainId": "0x7a69"
      },
      "additionalContracts": [],
      "isFixedGasLimit": false
    },
    {
      "hash": "0x7f730e188cb0a5ea6e86bbaea895d6636dcfbd400c397edcf35428a501bfb773",
      "transactionType": "CALL",
      "contractName": null,
      "contractAddress": "0xcf7ed3acca5a467e9e704c703e8d87f634fb0fc9",
      "function": "deposit(uint256,address)",
      "arguments": [
        "100000000000000000000",
        "0xf39Fd6e51aad88F6F4ce6aB8827279cffFb92266"
      ],
      "transaction": {
        "from": "0xf39fd6e51aad88f6f4ce6ab8827279cfffb92266",
        "to": "0xcf7ed3acca5a467e9e704c703e8d87f634fb0fc9",
        "gas": "0x11ff1",
        "value": "0x0",
        "input": "0x6e553f650000000000000000000000000000000000000000000000056bc75e2d63100000000000000000000000000000f39fd6e51aad88f6f4ce6ab8827279cfffb92266",
        "nonce": "0x96",
        "chainId": "0x7a69"
      },
      "additionalContracts": [],
      "isFixedGasLimit": false
    },
    {
      "hash": "0x63edc84d52ebc944c4bb4eb7fa9e82ac45f73fbc81d994983575ef6a8d1004c6",
      "transactionType": "CALL",
      "contractName": null,
      "contractAddress": "0xcf7ed3acca5a467e9e704c703e8d87f634fb0fc9",
      "function": "transfer(address,uint256)",
      "arguments": [
        "0x99bbA657f2BbC93c02D617f8bA121cB8Fc104Acf",
        "100000000000000000000"
      ],
      "transaction": {
        "from": "0xf39fd6e51aad88f6f4ce6ab8827279cfffb92266",
        "to": "0xcf7ed3acca5a467e9e704c703e8d87f634fb0fc9",
        "gas": "0x11544",
        "value": "0x0",
        "input": "0xa9059cbb00000000000000000000000099bba657f2bbc93c02d617f8ba121cb8fc104acf0000000000000000000000000000000000000000000000056bc75e2d63100000",
        "nonce": "0x97",
        "chainId": "0x7a69"
      },
      "additionalContracts": [],
      "isFixedGasLimit": false
    },
    {
      "hash": "0xbb98b3383a845e30695b50ebed152c6f35c70e04572359ebf5a7e8a3145dd13a",
      "transactionType": "CALL",
      "contractName": null,
      "contractAddress": "0x99bba657f2bbc93c02d617f8ba121cb8fc104acf",
      "function": "pool(uint256,uint256)",
      "arguments": [
        "0",
        "1"
      ],
      "transaction": {
        "from": "0xf39fd6e51aad88f6f4ce6ab8827279cfffb92266",
        "to": "0x99bba657f2bbc93c02d617f8ba121cb8fc104acf",
        "gas": "0x4ab06",
        "value": "0x0",
        "input": "0x9b1b615e00000000000000000000000000000000000000000000000000000000000000000000000000000000000000000000000000000000000000000000000000000001",
        "nonce": "0x98",
        "chainId": "0x7a69"
      },
      "additionalContracts": [],
      "isFixedGasLimit": false
    },
    {
      "hash": "0xdcd20f4a54ec50781ca985c015bafacce9d7d75a83e5a2b2dc4ae308e4a224cb",
      "transactionType": "CALL",
      "contractName": null,
      "contractAddress": "0x9fe46736679d2d9a65f0992f2272de9f3c7fa6e0",
      "function": "mint(address,uint256)",
      "arguments": [
        "0xf39Fd6e51aad88F6F4ce6aB8827279cffFb92266",
        "100000000000000000000"
      ],
      "transaction": {
        "from": "0xf39fd6e51aad88f6f4ce6ab8827279cfffb92266",
        "to": "0x9fe46736679d2d9a65f0992f2272de9f3c7fa6e0",
        "gas": "0xb6d2",
        "value": "0x0",
        "input": "0x40c10f19000000000000000000000000f39fd6e51aad88f6f4ce6ab8827279cfffb922660000000000000000000000000000000000000000000000056bc75e2d63100000",
        "nonce": "0x99",
        "chainId": "0x7a69"
      },
      "additionalContracts": [],
      "isFixedGasLimit": false
    },
    {
      "hash": "0x89822c1d7671d17887a55af3fbfac37364ec9da9d99f81dbfc905b402d649cff",
      "transactionType": "CALL",
      "contractName": null,
      "contractAddress": "0x9fe46736679d2d9a65f0992f2272de9f3c7fa6e0",
      "function": "approve(address,uint256)",
      "arguments": [
        "0xCf7Ed3AccA5a467e9e704C703E8D87F634fB0Fc9",
        "100000000000000000000"
      ],
      "transaction": {
        "from": "0xf39fd6e51aad88f6f4ce6ab8827279cfffb92266",
        "to": "0x9fe46736679d2d9a65f0992f2272de9f3c7fa6e0",
        "gas": "0x1067a",
        "value": "0x0",
        "input": "0x095ea7b3000000000000000000000000cf7ed3acca5a467e9e704c703e8d87f634fb0fc90000000000000000000000000000000000000000000000056bc75e2d63100000",
        "nonce": "0x9a",
        "chainId": "0x7a69"
      },
      "additionalContracts": [],
      "isFixedGasLimit": false
    },
    {
      "hash": "0xc071cab1427b76883cc8f9bc8e83cb23419aa7771f2a941352e5fb34fab5026e",
      "transactionType": "CALL",
      "contractName": null,
      "contractAddress": "0xcf7ed3acca5a467e9e704c703e8d87f634fb0fc9",
      "function": "deposit(uint256,address)",
      "arguments": [
        "100000000000000000000",
        "0xf39Fd6e51aad88F6F4ce6aB8827279cffFb92266"
      ],
      "transaction": {
        "from": "0xf39fd6e51aad88f6f4ce6ab8827279cfffb92266",
        "to": "0xcf7ed3acca5a467e9e704c703e8d87f634fb0fc9",
        "gas": "0x11ff1",
        "value": "0x0",
        "input": "0x6e553f650000000000000000000000000000000000000000000000056bc75e2d63100000000000000000000000000000f39fd6e51aad88f6f4ce6ab8827279cfffb92266",
        "nonce": "0x9b",
        "chainId": "0x7a69"
      },
      "additionalContracts": [],
      "isFixedGasLimit": false
    },
    {
      "hash": "0x5f50569bda148a66636df116df1df75a89161d65a583ad2e024653d9aaf1a3f7",
      "transactionType": "CALL",
      "contractName": null,
      "contractAddress": "0xcf7ed3acca5a467e9e704c703e8d87f634fb0fc9",
      "function": "transfer(address,uint256)",
      "arguments": [
        "0x99bbA657f2BbC93c02D617f8bA121cB8Fc104Acf",
        "100000000000000000000"
      ],
      "transaction": {
        "from": "0xf39fd6e51aad88f6f4ce6ab8827279cfffb92266",
        "to": "0xcf7ed3acca5a467e9e704c703e8d87f634fb0fc9",
        "gas": "0x11544",
        "value": "0x0",
        "input": "0xa9059cbb00000000000000000000000099bba657f2bbc93c02d617f8ba121cb8fc104acf0000000000000000000000000000000000000000000000056bc75e2d63100000",
        "nonce": "0x9c",
        "chainId": "0x7a69"
      },
      "additionalContracts": [],
      "isFixedGasLimit": false
    },
    {
      "hash": "0xf5289dba48bbab93aaa237f305a260219e7750bc7808b367585e21bbc9e07291",
      "transactionType": "CALL",
      "contractName": null,
      "contractAddress": "0x4a679253410272dd5232b3ff7cf5dbb88f295319",
      "function": "setSwapRate(address,address,uint256,uint256)",
      "arguments": [
        "0xCf7Ed3AccA5a467e9e704C703E8D87F634fB0Fc9",
        "0x82e01223d51Eb87e16A03E24687EDF0F294da6f1",
        "0",
        "1"
      ],
      "transaction": {
        "from": "0xf39fd6e51aad88f6f4ce6ab8827279cfffb92266",
        "to": "0x4a679253410272dd5232b3ff7cf5dbb88f295319",
        "gas": "0x9fa6",
        "value": "0x0",
        "input": "0x7db9b46f000000000000000000000000cf7ed3acca5a467e9e704c703e8d87f634fb0fc900000000000000000000000082e01223d51eb87e16a03e24687edf0f294da6f100000000000000000000000000000000000000000000000000000000000000000000000000000000000000000000000000000000000000000000000000000001",
        "nonce": "0x9d",
        "chainId": "0x7a69"
      },
      "additionalContracts": [],
      "isFixedGasLimit": false
    },
    {
      "hash": "0xc8c5186c9c2aeb379bb5724e541b5c437e5bd3a61c5f1bdd31766c64004ec561",
      "transactionType": "CALL",
      "contractName": null,
      "contractAddress": "0x4a679253410272dd5232b3ff7cf5dbb88f295319",
      "function": "setSwapRate(address,address,uint256,uint256)",
      "arguments": [
        "0xCf7Ed3AccA5a467e9e704C703E8D87F634fB0Fc9",
        "0x82e01223d51Eb87e16A03E24687EDF0F294da6f1",
        "1",
        "1000000000000"
      ],
      "transaction": {
        "from": "0xf39fd6e51aad88f6f4ce6ab8827279cfffb92266",
        "to": "0x4a679253410272dd5232b3ff7cf5dbb88f295319",
        "gas": "0x10d33",
        "value": "0x0",
        "input": "0x7db9b46f000000000000000000000000cf7ed3acca5a467e9e704c703e8d87f634fb0fc900000000000000000000000082e01223d51eb87e16a03e24687edf0f294da6f10000000000000000000000000000000000000000000000000000000000000001000000000000000000000000000000000000000000000000000000e8d4a51000",
        "nonce": "0x9e",
        "chainId": "0x7a69"
      },
      "additionalContracts": [],
      "isFixedGasLimit": false
    }
  ],
  "receipts": [
    {
      "status": "0x1",
      "cumulativeGasUsed": "0xc71b",
      "logs": [
        {
          "address": "0xe7f1725e7734ce288f8367e1bb143e90bb3f0512",
          "topics": [
            "0xddf252ad1be2c89b69c2b068fc378daa952ba7f163c4a11628f55a4df523b3ef",
            "0x0000000000000000000000000000000000000000000000000000000000000000",
            "0x00000000000000000000000082e01223d51eb87e16a03e24687edf0f294da6f1"
          ],
          "data": "0x000000000000000000000000000000000000000000000000000000174876e800",
          "blockHash": "0x8988de66ddfbcfd970b75451aad1f6f208f86b1a3d69fda795f6484da9ba5f12",
          "blockNumber": "0x94",
          "blockTimestamp": "0x69feeccd",
          "transactionHash": "0xb3b54fb8664e875e57832eabac56780ff73e74ac004dfe2acc3f25ec498ec1e7",
          "transactionIndex": "0x0",
          "logIndex": "0x0",
          "removed": false
        }
      ],
      "logsBloom": "0x00000000000000000000000000000000000000000000000000000000000000000000000000000000000000000000000010000000000000000000000000000000000000000000000000000008000000000000000000000000000000000000000000000000020000000000000000000800000000000100000000000010000000000000000000000000000000000000000000000000000000000000000000000040000000000000000000000000000000000000000000000000000000000000000000000002010000000000000000001000000000000000000000000000000020000000000000000000000000000000000000000000000000800000000000000000",
      "type": "0x2",
      "transactionHash": "0xb3b54fb8664e875e57832eabac56780ff73e74ac004dfe2acc3f25ec498ec1e7",
      "transactionIndex": "0x0",
      "blockHash": "0x8988de66ddfbcfd970b75451aad1f6f208f86b1a3d69fda795f6484da9ba5f12",
      "blockNumber": "0x94",
      "gasUsed": "0xc71b",
      "effectiveGasPrice": "0xb",
      "blobGasPrice": "0x1",
      "from": "0xf39fd6e51aad88f6f4ce6ab8827279cfffb92266",
      "to": "0xe7f1725e7734ce288f8367e1bb143e90bb3f0512",
      "contractAddress": null
    },
    {
      "status": "0x1",
      "cumulativeGasUsed": "0x845d",
      "logs": [
        {
          "address": "0x9fe46736679d2d9a65f0992f2272de9f3c7fa6e0",
          "topics": [
            "0xddf252ad1be2c89b69c2b068fc378daa952ba7f163c4a11628f55a4df523b3ef",
            "0x0000000000000000000000000000000000000000000000000000000000000000",
            "0x000000000000000000000000f39fd6e51aad88f6f4ce6ab8827279cfffb92266"
          ],
          "data": "0x0000000000000000000000000000000000000000000000056bc75e2d63100000",
          "blockHash": "0x5e36adaa5594a67ed1bb2be533d41e638eb2b85e521882ee61913787729f2fc7",
          "blockNumber": "0x95",
          "blockTimestamp": "0x69feeccd",
          "transactionHash": "0xbeb92216c95940ca922f676074b989e5e0317b5250311bcf841fb23dccccc0e6",
          "transactionIndex": "0x0",
          "logIndex": "0x0",
          "removed": false
        }
      ],
      "logsBloom": "0x00000000000000000000000000000000000000000000000000000000000000000000000000000000000000000000000000000000000040200000000000000000000000000000000000000008000000000000000000000000000000000000000000000000020000000000000100000800000000000000000000000010000000000000000000000000000000000000000000000000000000000000000000000000000000000000000000000000000000000000000000000000000000000000000000000002000000200000000000000000000000002000000000000000000020000000000000000000000000000000000000000000000000400000000000000000",
      "type": "0x2",
      "transactionHash": "0xbeb92216c95940ca922f676074b989e5e0317b5250311bcf841fb23dccccc0e6",
      "transactionIndex": "0x0",
      "blockHash": "0x5e36adaa5594a67ed1bb2be533d41e638eb2b85e521882ee61913787729f2fc7",
      "blockNumber": "0x95",
      "gasUsed": "0x845d",
      "effectiveGasPrice": "0xa",
      "blobGasPrice": "0x1",
      "from": "0xf39fd6e51aad88f6f4ce6ab8827279cfffb92266",
      "to": "0x9fe46736679d2d9a65f0992f2272de9f3c7fa6e0",
      "contractAddress": null
    },
    {
      "status": "0x1",
      "cumulativeGasUsed": "0xb379",
      "logs": [
        {
          "address": "0x9fe46736679d2d9a65f0992f2272de9f3c7fa6e0",
          "topics": [
            "0x8c5be1e5ebec7d5bd14f71427d1e84f3dd0314c0f7b2291e5b200ac8c7c3b925",
            "0x000000000000000000000000f39fd6e51aad88f6f4ce6ab8827279cfffb92266",
            "0x000000000000000000000000cf7ed3acca5a467e9e704c703e8d87f634fb0fc9"
          ],
          "data": "0x0000000000000000000000000000000000000000000000056bc75e2d63100000",
          "blockHash": "0x92f75410d93d64d75d74fe6cdfdc0e3736846bfba0ea2b38be473a4896898a27",
          "blockNumber": "0x96",
          "blockTimestamp": "0x69feeccd",
          "transactionHash": "0xc8c5186c9c2aeb379bb5724e541b5c437e5bd3a61c5f1bdd31766c64004ec561",
          "transactionIndex": "0x0",
          "logIndex": "0x0",
          "removed": false
        }
      ],
      "logsBloom": "0x00000000000000000000000000000000000000000000000000000000000000000000000000000080000000000000000000000000000040200000000000200000000000000000000000000000000000000000000000000000000000000000000000000000000000000000000100000000000000000000000000000000000000000000000000000000000000000000000000000000000000000000000000000000020000001000000000000000000000000000000000000000000000000000000000000000000000200000000000000000000000002000000000000000000000000010000000000000008000000000000000000000000000400000000000000000",
      "type": "0x2",
      "transactionHash": "0xc8c5186c9c2aeb379bb5724e541b5c437e5bd3a61c5f1bdd31766c64004ec561",
      "transactionIndex": "0x0",
      "blockHash": "0x92f75410d93d64d75d74fe6cdfdc0e3736846bfba0ea2b38be473a4896898a27",
      "blockNumber": "0x96",
      "gasUsed": "0xb379",
      "effectiveGasPrice": "0x9",
      "blobGasPrice": "0x1",
      "from": "0xf39fd6e51aad88f6f4ce6ab8827279cfffb92266",
      "to": "0x9fe46736679d2d9a65f0992f2272de9f3c7fa6e0",
      "contractAddress": null
    },
    {
      "status": "0x1",
      "cumulativeGasUsed": "0x183f1",
      "logs": [
        {
          "address": "0x9fe46736679d2d9a65f0992f2272de9f3c7fa6e0",
          "topics": [
            "0xddf252ad1be2c89b69c2b068fc378daa952ba7f163c4a11628f55a4df523b3ef",
            "0x000000000000000000000000f39fd6e51aad88f6f4ce6ab8827279cfffb92266",
            "0x000000000000000000000000cf7ed3acca5a467e9e704c703e8d87f634fb0fc9"
          ],
          "data": "0x0000000000000000000000000000000000000000000000056bc75e2d63100000",
          "blockHash": "0x92f75410d93d64d75d74fe6cdfdc0e3736846bfba0ea2b38be473a4896898a27",
          "blockNumber": "0x96",
          "blockTimestamp": "0x69feeccd",
          "transactionHash": "0xc071cab1427b76883cc8f9bc8e83cb23419aa7771f2a941352e5fb34fab5026e",
          "transactionIndex": "0x1",
          "logIndex": "0x1",
          "removed": false
        },
        {
          "address": "0xcf7ed3acca5a467e9e704c703e8d87f634fb0fc9",
          "topics": [
            "0xddf252ad1be2c89b69c2b068fc378daa952ba7f163c4a11628f55a4df523b3ef",
            "0x0000000000000000000000000000000000000000000000000000000000000000",
            "0x000000000000000000000000f39fd6e51aad88f6f4ce6ab8827279cfffb92266"
          ],
          "data": "0x0000000000000000000000000000000000000000000000056bc75e2d63100000",
          "blockHash": "0x92f75410d93d64d75d74fe6cdfdc0e3736846bfba0ea2b38be473a4896898a27",
          "blockNumber": "0x96",
          "blockTimestamp": "0x69feeccd",
          "transactionHash": "0xc071cab1427b76883cc8f9bc8e83cb23419aa7771f2a941352e5fb34fab5026e",
          "transactionIndex": "0x1",
          "logIndex": "0x2",
          "removed": false
        },
        {
          "address": "0xcf7ed3acca5a467e9e704c703e8d87f634fb0fc9",
          "topics": [
            "0xdcbc1c05240f31ff3ad067ef1ee35ce4997762752e3a095284754544f4c709d7",
            "0x000000000000000000000000f39fd6e51aad88f6f4ce6ab8827279cfffb92266",
            "0x000000000000000000000000f39fd6e51aad88f6f4ce6ab8827279cfffb92266"
          ],
          "data": "0x0000000000000000000000000000000000000000000000056bc75e2d631000000000000000000000000000000000000000000000000000056bc75e2d63100000",
          "blockHash": "0x92f75410d93d64d75d74fe6cdfdc0e3736846bfba0ea2b38be473a4896898a27",
          "blockNumber": "0x96",
          "blockTimestamp": "0x69feeccd",
          "transactionHash": "0xc071cab1427b76883cc8f9bc8e83cb23419aa7771f2a941352e5fb34fab5026e",
          "transactionIndex": "0x1",
          "logIndex": "0x3",
          "removed": false
        }
      ],
      "logsBloom": "0x00000000000000000000000000000000000000000000000000000000000000000000000000000080000000000000080000000000000040200000000000000001000000400000000000000008000000000000000000000000000000000000000000000000020000000000000100000800000000000004000000000010000000000000000008000000000000000000000000000000000000000000000000000000000000001000000000000000000000000000000000000000000000000000000000000002000000200000000000000000000000002008000000000000000020000000000000000000008000000000000000000000000000400000000000000000",
      "type": "0x2",
      "transactionHash": "0xc071cab1427b76883cc8f9bc8e83cb23419aa7771f2a941352e5fb34fab5026e",
      "transactionIndex": "0x1",
      "blockHash": "0x92f75410d93d64d75d74fe6cdfdc0e3736846bfba0ea2b38be473a4896898a27",
      "blockNumber": "0x96",
      "gasUsed": "0xd078",
      "effectiveGasPrice": "0x9",
      "blobGasPrice": "0x1",
      "from": "0xf39fd6e51aad88f6f4ce6ab8827279cfffb92266",
      "to": "0xcf7ed3acca5a467e9e704c703e8d87f634fb0fc9",
      "contractAddress": null
    },
    {
      "status": "0x1",
      "cumulativeGasUsed": "0x24cae",
      "logs": [
        {
          "address": "0xcf7ed3acca5a467e9e704c703e8d87f634fb0fc9",
          "topics": [
            "0xddf252ad1be2c89b69c2b068fc378daa952ba7f163c4a11628f55a4df523b3ef",
            "0x000000000000000000000000f39fd6e51aad88f6f4ce6ab8827279cfffb92266",
            "0x00000000000000000000000099bba657f2bbc93c02d617f8ba121cb8fc104acf"
          ],
          "data": "0x0000000000000000000000000000000000000000000000056bc75e2d63100000",
          "blockHash": "0x92f75410d93d64d75d74fe6cdfdc0e3736846bfba0ea2b38be473a4896898a27",
          "blockNumber": "0x96",
          "blockTimestamp": "0x69feeccd",
          "transactionHash": "0x5f50569bda148a66636df116df1df75a89161d65a583ad2e024653d9aaf1a3f7",
          "transactionIndex": "0x2",
          "logIndex": "0x4",
          "removed": false
        }
      ],
      "logsBloom": "0x00000000000000000000000000000000000000000000000000000000000000000000000000000000000000000000080000000000010000000000000000000001000000000000000000000008000000000000000000000000000000000000000000000000000000000000000100000000000000000000000000000010000000000000000008000000100000000000000000000000000000000000000000000000000000000000000000000000000000000000000000000000000000000000000000000002200000200000000000000000000000002000000000000000000000000000000000000000000000000000000000000000000000000000000000000000",
      "type": "0x2",
      "transactionHash": "0x5f50569bda148a66636df116df1df75a89161d65a583ad2e024653d9aaf1a3f7",
      "transactionIndex": "0x2",
      "blockHash": "0x92f75410d93d64d75d74fe6cdfdc0e3736846bfba0ea2b38be473a4896898a27",
      "blockNumber": "0x96",
      "gasUsed": "0xc8bd",
      "effectiveGasPrice": "0x9",
      "blobGasPrice": "0x1",
      "from": "0xf39fd6e51aad88f6f4ce6ab8827279cfffb92266",
      "to": "0xcf7ed3acca5a467e9e704c703e8d87f634fb0fc9",
      "contractAddress": null
    },
    {
      "status": "0x1",
      "cumulativeGasUsed": "0x5addc",
      "logs": [
        {
          "address": "0xcf7ed3acca5a467e9e704c703e8d87f634fb0fc9",
          "topics": [
            "0xddf252ad1be2c89b69c2b068fc378daa952ba7f163c4a11628f55a4df523b3ef",
            "0x00000000000000000000000099bba657f2bbc93c02d617f8ba121cb8fc104acf",
            "0x0000000000000000000000004a679253410272dd5232b3ff7cf5dbb88f295319"
          ],
          "data": "0x000000000000000000000000000000000000000000000001a055690d9db80000",
          "blockHash": "0x92f75410d93d64d75d74fe6cdfdc0e3736846bfba0ea2b38be473a4896898a27",
          "blockNumber": "0x96",
          "blockTimestamp": "0x69feeccd",
          "transactionHash": "0x89822c1d7671d17887a55af3fbfac37364ec9da9d99f81dbfc905b402d649cff",
          "transactionIndex": "0x3",
          "logIndex": "0x5",
          "removed": false
        },
        {
          "address": "0x82e01223d51eb87e16a03e24687edf0f294da6f1",
          "topics": [
            "0xddf252ad1be2c89b69c2b068fc378daa952ba7f163c4a11628f55a4df523b3ef",
            "0x0000000000000000000000000000000000000000000000000000000000000000",
            "0x00000000000000000000000099bba657f2bbc93c02d617f8ba121cb8fc104acf"
          ],
          "data": "0x0000000000000000000000000000000000000000000000000000000001c9c380",
          "blockHash": "0x92f75410d93d64d75d74fe6cdfdc0e3736846bfba0ea2b38be473a4896898a27",
          "blockNumber": "0x96",
          "blockTimestamp": "0x69feeccd",
          "transactionHash": "0x89822c1d7671d17887a55af3fbfac37364ec9da9d99f81dbfc905b402d649cff",
          "transactionIndex": "0x3",
          "logIndex": "0x6",
          "removed": false
        },
        {
          "address": "0x82e01223d51eb87e16a03e24687edf0f294da6f1",
          "topics": [
            "0xddf252ad1be2c89b69c2b068fc378daa952ba7f163c4a11628f55a4df523b3ef",
            "0x00000000000000000000000099bba657f2bbc93c02d617f8ba121cb8fc104acf",
            "0x0000000000000000000000000000000000000000000000000000000000000000"
          ],
          "data": "0x0000000000000000000000000000000000000000000000000000000001c9c380",
          "blockHash": "0x92f75410d93d64d75d74fe6cdfdc0e3736846bfba0ea2b38be473a4896898a27",
          "blockNumber": "0x96",
          "blockTimestamp": "0x69feeccd",
          "transactionHash": "0x89822c1d7671d17887a55af3fbfac37364ec9da9d99f81dbfc905b402d649cff",
          "transactionIndex": "0x3",
          "logIndex": "0x7",
          "removed": false
        },
        {
          "address": "0xe7f1725e7734ce288f8367e1bb143e90bb3f0512",
          "topics": [
            "0xddf252ad1be2c89b69c2b068fc378daa952ba7f163c4a11628f55a4df523b3ef",
            "0x00000000000000000000000082e01223d51eb87e16a03e24687edf0f294da6f1",
            "0x00000000000000000000000099bba657f2bbc93c02d617f8ba121cb8fc104acf"
          ],
          "data": "0x0000000000000000000000000000000000000000000000000000000001c9c380",
          "blockHash": "0x92f75410d93d64d75d74fe6cdfdc0e3736846bfba0ea2b38be473a4896898a27",
          "blockNumber": "0x96",
          "blockTimestamp": "0x69feeccd",
          "transactionHash": "0x89822c1d7671d17887a55af3fbfac37364ec9da9d99f81dbfc905b402d649cff",
          "transactionIndex": "0x3",
          "logIndex": "0x8",
          "removed": false
        },
        {
          "address": "0xe7f1725e7734ce288f8367e1bb143e90bb3f0512",
          "topics": [
            "0xddf252ad1be2c89b69c2b068fc378daa952ba7f163c4a11628f55a4df523b3ef",
            "0x00000000000000000000000099bba657f2bbc93c02d617f8ba121cb8fc104acf",
            "0x000000000000000000000000dc11f7e700a4c898ae5caddb1082cffa76512add"
          ],
          "data": "0x0000000000000000000000000000000000000000000000000000000001c9c380",
          "blockHash": "0x92f75410d93d64d75d74fe6cdfdc0e3736846bfba0ea2b38be473a4896898a27",
          "blockNumber": "0x96",
          "blockTimestamp": "0x69feeccd",
          "transactionHash": "0x89822c1d7671d17887a55af3fbfac37364ec9da9d99f81dbfc905b402d649cff",
          "transactionIndex": "0x3",
          "logIndex": "0x9",
          "removed": false
        },
        {
          "address": "0x99bba657f2bbc93c02d617f8ba121cb8fc104acf",
          "topics": [
            "0xdc972491ab78cde9a1ce2edb29d56c66f4d6aba0a1f1220807b793d70c8dd7ce",
            "0x000000000000000000000000f39fd6e51aad88f6f4ce6ab8827279cfffb92266",
            "0x000000000000000000000000dc11f7e700a4c898ae5caddb1082cffa76512add"
          ],
          "data": "0x000000000000000000000000000000000000000000000001a055690d9db800000000000000000000000000000000000000000000000000000000000001c9c3800000000000000000000000000000000000000000000000000000000001c9c380",
          "blockHash": "0x92f75410d93d64d75d74fe6cdfdc0e3736846bfba0ea2b38be473a4896898a27",
          "blockNumber": "0x96",
          "blockTimestamp": "0x69feeccd",
          "transactionHash": "0x89822c1d7671d17887a55af3fbfac37364ec9da9d99f81dbfc905b402d649cff",
          "transactionIndex": "0x3",
          "logIndex": "0xa",
          "removed": false
        },
        {
          "address": "0xcf7ed3acca5a467e9e704c703e8d87f634fb0fc9",
          "topics": [
            "0xddf252ad1be2c89b69c2b068fc378daa952ba7f163c4a11628f55a4df523b3ef",
            "0x00000000000000000000000099bba657f2bbc93c02d617f8ba121cb8fc104acf",
            "0x0000000000000000000000004a679253410272dd5232b3ff7cf5dbb88f295319"
          ],
          "data": "0x000000000000000000000000000000000000000000000003cb71f51fc5580000",
          "blockHash": "0x92f75410d93d64d75d74fe6cdfdc0e3736846bfba0ea2b38be473a4896898a27",
          "blockNumber": "0x96",
          "blockTimestamp": "0x69feeccd",
          "transactionHash": "0x89822c1d7671d17887a55af3fbfac37364ec9da9d99f81dbfc905b402d649cff",
          "transactionIndex": "0x3",
          "logIndex": "0xb",
          "removed": false
        },
        {
          "address": "0xa85233c63b9ee964add6f2cffe00fd84eb32338f",
          "topics": [
            "0xddf252ad1be2c89b69c2b068fc378daa952ba7f163c4a11628f55a4df523b3ef",
            "0x0000000000000000000000000000000000000000000000000000000000000000",
            "0x00000000000000000000000099bba657f2bbc93c02d617f8ba121cb8fc104acf"
          ],
          "data": "0x000000000000000000000000000000000000000000000003cb71f51fc5580000",
          "blockHash": "0x92f75410d93d64d75d74fe6cdfdc0e3736846bfba0ea2b38be473a4896898a27",
          "blockNumber": "0x96",
          "blockTimestamp": "0x69feeccd",
          "transactionHash": "0x89822c1d7671d17887a55af3fbfac37364ec9da9d99f81dbfc905b402d649cff",
          "transactionIndex": "0x3",
          "logIndex": "0xc",
          "removed": false
        },
        {
          "address": "0x99bba657f2bbc93c02d617f8ba121cb8fc104acf",
          "topics": [
            "0xaf6cb2e6187986f98607346b0da39860f8bcc4e2e024c1926efa779809b07adb",
            "0x000000000000000000000000f39fd6e51aad88f6f4ce6ab8827279cfffb92266"
          ],
          "data": "0x000000000000000000000000000000000000000000000003cb71f51fc5580000000000000000000000000000000000000000000000000003cb71f51fc55800000000000000000000000000000000000000000000000000000000000000000000",
          "blockHash": "0x92f75410d93d64d75d74fe6cdfdc0e3736846bfba0ea2b38be473a4896898a27",
          "blockNumber": "0x96",
          "blockTimestamp": "0x69feeccd",
          "transactionHash": "0x89822c1d7671d17887a55af3fbfac37364ec9da9d99f81dbfc905b402d649cff",
          "transactionIndex": "0x3",
          "logIndex": "0xd",
          "removed": false
        }
      ],
      "logsBloom": "0x00000000000000000000000000000000000000000000000000000000000000000000000000000000080000020000080010000000010000000000000000000009000000000000000000000008000000000000000000000000000000000240000000002140020000000000000100000800000100080100000008000010000000000000000008000001100000000000000002000000400000000080000000020040000000000000000000000000000800000000000008000000000000000000000000000002210000200000000000001000000000002000000000110000080020000000000000000000000000000000000000000000000000800000000000000000",
      "type": "0x2",
      "transactionHash": "0x89822c1d7671d17887a55af3fbfac37364ec9da9d99f81dbfc905b402d649cff",
      "transactionIndex": "0x3",
      "blockHash": "0x92f75410d93d64d75d74fe6cdfdc0e3736846bfba0ea2b38be473a4896898a27",
      "blockNumber": "0x96",
      "gasUsed": "0x3612e",
      "effectiveGasPrice": "0x9",
      "blobGasPrice": "0x1",
      "from": "0xf39fd6e51aad88f6f4ce6ab8827279cfffb92266",
      "to": "0x99bba657f2bbc93c02d617f8ba121cb8fc104acf",
      "contractAddress": null
    },
    {
      "status": "0x1",
      "cumulativeGasUsed": "0x63239",
      "logs": [
        {
          "address": "0x9fe46736679d2d9a65f0992f2272de9f3c7fa6e0",
          "topics": [
            "0xddf252ad1be2c89b69c2b068fc378daa952ba7f163c4a11628f55a4df523b3ef",
            "0x0000000000000000000000000000000000000000000000000000000000000000",
            "0x000000000000000000000000f39fd6e51aad88f6f4ce6ab8827279cfffb92266"
          ],
          "data": "0x0000000000000000000000000000000000000000000000056bc75e2d63100000",
          "blockHash": "0x92f75410d93d64d75d74fe6cdfdc0e3736846bfba0ea2b38be473a4896898a27",
          "blockNumber": "0x96",
          "blockTimestamp": "0x69feeccd",
          "transactionHash": "0x6c5a7b9e45e66868e251d27defb39462ba0c7236feaee625e626f8d0a2ffff71",
          "transactionIndex": "0x4",
          "logIndex": "0xe",
          "removed": false
        }
      ],
      "logsBloom": "0x00000000000000000000000000000000000000000000000000000000000000000000000000000000000000000000000000000000000040200000000000000000000000000000000000000008000000000000000000000000000000000000000000000000020000000000000100000800000000000000000000000010000000000000000000000000000000000000000000000000000000000000000000000000000000000000000000000000000000000000000000000000000000000000000000000002000000200000000000000000000000002000000000000000000020000000000000000000000000000000000000000000000000400000000000000000",
      "type": "0x2",
      "transactionHash": "0x6c5a7b9e45e66868e251d27defb39462ba0c7236feaee625e626f8d0a2ffff71",
      "transactionIndex": "0x4",
      "blockHash": "0x92f75410d93d64d75d74fe6cdfdc0e3736846bfba0ea2b38be473a4896898a27",
      "blockNumber": "0x96",
      "gasUsed": "0x845d",
      "effectiveGasPrice": "0x9",
      "blobGasPrice": "0x1",
      "from": "0xf39fd6e51aad88f6f4ce6ab8827279cfffb92266",
      "to": "0x9fe46736679d2d9a65f0992f2272de9f3c7fa6e0",
      "contractAddress": null
    },
    {
      "status": "0x1",
      "cumulativeGasUsed": "0x6e5b2",
      "logs": [
        {
          "address": "0x9fe46736679d2d9a65f0992f2272de9f3c7fa6e0",
          "topics": [
            "0x8c5be1e5ebec7d5bd14f71427d1e84f3dd0314c0f7b2291e5b200ac8c7c3b925",
            "0x000000000000000000000000f39fd6e51aad88f6f4ce6ab8827279cfffb92266",
            "0x000000000000000000000000cf7ed3acca5a467e9e704c703e8d87f634fb0fc9"
          ],
          "data": "0x0000000000000000000000000000000000000000000000056bc75e2d63100000",
          "blockHash": "0x92f75410d93d64d75d74fe6cdfdc0e3736846bfba0ea2b38be473a4896898a27",
          "blockNumber": "0x96",
          "blockTimestamp": "0x69feeccd",
          "transactionHash": "0x7f730e188cb0a5ea6e86bbaea895d6636dcfbd400c397edcf35428a501bfb773",
          "transactionIndex": "0x5",
          "logIndex": "0xf",
          "removed": false
        }
      ],
      "logsBloom": "0x00000000000000000000000000000000000000000000000000000000000000000000000000000080000000000000000000000000000040200000000000200000000000000000000000000000000000000000000000000000000000000000000000000000000000000000000100000000000000000000000000000000000000000000000000000000000000000000000000000000000000000000000000000000020000001000000000000000000000000000000000000000000000000000000000000000000000200000000000000000000000002000000000000000000000000010000000000000008000000000000000000000000000400000000000000000",
      "type": "0x2",
      "transactionHash": "0x7f730e188cb0a5ea6e86bbaea895d6636dcfbd400c397edcf35428a501bfb773",
      "transactionIndex": "0x5",
      "blockHash": "0x92f75410d93d64d75d74fe6cdfdc0e3736846bfba0ea2b38be473a4896898a27",
      "blockNumber": "0x96",
      "gasUsed": "0xb379",
      "effectiveGasPrice": "0x9",
      "blobGasPrice": "0x1",
      "from": "0xf39fd6e51aad88f6f4ce6ab8827279cfffb92266",
      "to": "0x9fe46736679d2d9a65f0992f2272de9f3c7fa6e0",
      "contractAddress": null
    },
    {
      "status": "0x1",
      "cumulativeGasUsed": "0x7b62a",
      "logs": [
        {
          "address": "0x9fe46736679d2d9a65f0992f2272de9f3c7fa6e0",
          "topics": [
            "0xddf252ad1be2c89b69c2b068fc378daa952ba7f163c4a11628f55a4df523b3ef",
            "0x000000000000000000000000f39fd6e51aad88f6f4ce6ab8827279cfffb92266",
            "0x000000000000000000000000cf7ed3acca5a467e9e704c703e8d87f634fb0fc9"
          ],
          "data": "0x0000000000000000000000000000000000000000000000056bc75e2d63100000",
          "blockHash": "0x92f75410d93d64d75d74fe6cdfdc0e3736846bfba0ea2b38be473a4896898a27",
          "blockNumber": "0x96",
          "blockTimestamp": "0x69feeccd",
          "transactionHash": "0xbb98b3383a845e30695b50ebed152c6f35c70e04572359ebf5a7e8a3145dd13a",
          "transactionIndex": "0x6",
          "logIndex": "0x10",
          "removed": false
        },
        {
          "address": "0xcf7ed3acca5a467e9e704c703e8d87f634fb0fc9",
          "topics": [
            "0xddf252ad1be2c89b69c2b068fc378daa952ba7f163c4a11628f55a4df523b3ef",
            "0x0000000000000000000000000000000000000000000000000000000000000000",
            "0x000000000000000000000000f39fd6e51aad88f6f4ce6ab8827279cfffb92266"
          ],
          "data": "0x0000000000000000000000000000000000000000000000056bc75e2d63100000",
          "blockHash": "0x92f75410d93d64d75d74fe6cdfdc0e3736846bfba0ea2b38be473a4896898a27",
          "blockNumber": "0x96",
          "blockTimestamp": "0x69feeccd",
          "transactionHash": "0xbb98b3383a845e30695b50ebed152c6f35c70e04572359ebf5a7e8a3145dd13a",
          "transactionIndex": "0x6",
          "logIndex": "0x11",
          "removed": false
        },
        {
          "address": "0xcf7ed3acca5a467e9e704c703e8d87f634fb0fc9",
          "topics": [
            "0xdcbc1c05240f31ff3ad067ef1ee35ce4997762752e3a095284754544f4c709d7",
            "0x000000000000000000000000f39fd6e51aad88f6f4ce6ab8827279cfffb92266",
            "0x000000000000000000000000f39fd6e51aad88f6f4ce6ab8827279cfffb92266"
          ],
          "data": "0x0000000000000000000000000000000000000000000000056bc75e2d631000000000000000000000000000000000000000000000000000056bc75e2d63100000",
          "blockHash": "0x92f75410d93d64d75d74fe6cdfdc0e3736846bfba0ea2b38be473a4896898a27",
          "blockNumber": "0x96",
          "blockTimestamp": "0x69feeccd",
          "transactionHash": "0xbb98b3383a845e30695b50ebed152c6f35c70e04572359ebf5a7e8a3145dd13a",
          "transactionIndex": "0x6",
          "logIndex": "0x12",
          "removed": false
        }
      ],
      "logsBloom": "0x00000000000000000000000000000000000000000000000000000000000000000000000000000080000000000000080000000000000040200000000000000001000000400000000000000008000000000000000000000000000000000000000000000000020000000000000100000800000000000004000000000010000000000000000008000000000000000000000000000000000000000000000000000000000000001000000000000000000000000000000000000000000000000000000000000002000000200000000000000000000000002008000000000000000020000000000000000000008000000000000000000000000000400000000000000000",
      "type": "0x2",
      "transactionHash": "0xbb98b3383a845e30695b50ebed152c6f35c70e04572359ebf5a7e8a3145dd13a",
      "transactionIndex": "0x6",
      "blockHash": "0x92f75410d93d64d75d74fe6cdfdc0e3736846bfba0ea2b38be473a4896898a27",
      "blockNumber": "0x96",
      "gasUsed": "0xd078",
      "effectiveGasPrice": "0x9",
      "blobGasPrice": "0x1",
      "from": "0xf39fd6e51aad88f6f4ce6ab8827279cfffb92266",
      "to": "0xcf7ed3acca5a467e9e704c703e8d87f634fb0fc9",
      "contractAddress": null
    },
    {
      "status": "0x1",
      "cumulativeGasUsed": "0x87ee7",
      "logs": [
        {
          "address": "0xcf7ed3acca5a467e9e704c703e8d87f634fb0fc9",
          "topics": [
            "0xddf252ad1be2c89b69c2b068fc378daa952ba7f163c4a11628f55a4df523b3ef",
            "0x000000000000000000000000f39fd6e51aad88f6f4ce6ab8827279cfffb92266",
            "0x00000000000000000000000099bba657f2bbc93c02d617f8ba121cb8fc104acf"
          ],
          "data": "0x0000000000000000000000000000000000000000000000056bc75e2d63100000",
          "blockHash": "0x92f75410d93d64d75d74fe6cdfdc0e3736846bfba0ea2b38be473a4896898a27",
          "blockNumber": "0x96",
          "blockTimestamp": "0x69feeccd",
          "transactionHash": "0x63edc84d52ebc944c4bb4eb7fa9e82ac45f73fbc81d994983575ef6a8d1004c6",
          "transactionIndex": "0x7",
          "logIndex": "0x13",
          "removed": false
        }
      ],
      "logsBloom": "0x00000000000000000000000000000000000000000000000000000000000000000000000000000000000000000000080000000000010000000000000000000001000000000000000000000008000000000000000000000000000000000000000000000000000000000000000100000000000000000000000000000010000000000000000008000000100000000000000000000000000000000000000000000000000000000000000000000000000000000000000000000000000000000000000000000002200000200000000000000000000000002000000000000000000000000000000000000000000000000000000000000000000000000000000000000000",
      "type": "0x2",
      "transactionHash": "0x63edc84d52ebc944c4bb4eb7fa9e82ac45f73fbc81d994983575ef6a8d1004c6",
      "transactionIndex": "0x7",
      "blockHash": "0x92f75410d93d64d75d74fe6cdfdc0e3736846bfba0ea2b38be473a4896898a27",
      "blockNumber": "0x96",
      "gasUsed": "0xc8bd",
      "effectiveGasPrice": "0x9",
      "blobGasPrice": "0x1",
      "from": "0xf39fd6e51aad88f6f4ce6ab8827279cfffb92266",
      "to": "0xcf7ed3acca5a467e9e704c703e8d87f634fb0fc9",
      "contractAddress": null
    },
    {
      "status": "0x1",
      "cumulativeGasUsed": "0x8ec11",
      "logs": [],
      "logsBloom": "0x00000000000000000000000000000000000000000000000000000000000000000000000000000000000000000000000000000000000000000000000000000000000000000000000000000000000000000000000000000000000000000000000000000000000000000000000000000000000000000000000000000000000000000000000000000000000000000000000000000000000000000000000000000000000000000000000000000000000000000000000000000000000000000000000000000000000000000000000000000000000000000000000000000000000000000000000000000000000000000000000000000000000000000000000000000000",
      "type": "0x2",
      "transactionHash": "0xf5289dba48bbab93aaa237f305a260219e7750bc7808b367585e21bbc9e07291",
      "transactionIndex": "0x8",
      "blockHash": "0x92f75410d93d64d75d74fe6cdfdc0e3736846bfba0ea2b38be473a4896898a27",
      "blockNumber": "0x96",
      "gasUsed": "0x6d2a",
      "effectiveGasPrice": "0x9",
      "blobGasPrice": "0x1",
      "from": "0xf39fd6e51aad88f6f4ce6ab8827279cfffb92266",
      "to": "0x4a679253410272dd5232b3ff7cf5dbb88f295319",
      "contractAddress": null
    },
    {
      "status": "0x1",
      "cumulativeGasUsed": "0x9aef7",
      "logs": [],
      "logsBloom": "0x00000000000000000000000000000000000000000000000000000000000000000000000000000000000000000000000000000000000000000000000000000000000000000000000000000000000000000000000000000000000000000000000000000000000000000000000000000000000000000000000000000000000000000000000000000000000000000000000000000000000000000000000000000000000000000000000000000000000000000000000000000000000000000000000000000000000000000000000000000000000000000000000000000000000000000000000000000000000000000000000000000000000000000000000000000000",
      "type": "0x2",
      "transactionHash": "0xdcd20f4a54ec50781ca985c015bafacce9d7d75a83e5a2b2dc4ae308e4a224cb",
      "transactionIndex": "0x9",
      "blockHash": "0x92f75410d93d64d75d74fe6cdfdc0e3736846bfba0ea2b38be473a4896898a27",
      "blockNumber": "0x96",
      "gasUsed": "0xc2e6",
      "effectiveGasPrice": "0x9",
      "blobGasPrice": "0x1",
      "from": "0xf39fd6e51aad88f6f4ce6ab8827279cfffb92266",
      "to": "0x4a679253410272dd5232b3ff7cf5dbb88f295319",
      "contractAddress": null
    }
  ],
  "libraries": [],
  "pending": [],
  "returns": {},
  "timestamp": 1778314445861,
  "chain": 31337,
  "commit": "0ef49f7"
}