{
  "transactions": [
    {
      "hash": "0x01028735bb579fdfe64f1bf5106a898d2a4ff62f23c099afc3f44af7bb9dcf6b",
      "transactionType": "CALL",
      "contractName": "PhlimboEA",
      "contractAddress": "0x3984ebc84d45a889ddac595d13dc0ac2e54819f4",
      "function": "setDepletionDuration(uint256)",
      "arguments": [
        "604800"
      ],
      "transaction": {
        "from": "0xcad1a7864a108dbff67f4b8af71fab0c7a86d0b6",
        "to": "0x3984ebc84d45a889ddac595d13dc0ac2e54819f4",
        "gas": "0x15aad",
        "value": "0x0",
        "input": "0xfaa285760000000000000000000000000000000000000000000000000000000000093a80",
        "nonce": "0x16f",
        "chainId": "0x1"
      },
      "additionalContracts": [],
      "isFixedGasLimit": false
    },
    {
      "hash": "0xe83a6844be76bd7fc5083dbcc159cd4c7af8d7fc752e287c62742991a958ab45",
      "transactionType": "CALL",
      "contractName": null,
      "contractAddress": "0xb9639e6be92033f55e6d9e375fd1c28ceedba50e",
      "function": "setDiscountRate(uint256)",
      "arguments": [
        "4000"
      ],
      "transaction": {
        "from": "0xcad1a7864a108dbff67f4b8af71fab0c7a86d0b6",
        "to": "0xb9639e6be92033f55e6d9e375fd1c28ceedba50e",
        "gas": "0xa310",
        "value": "0x0",
        "input": "0x7c69febd0000000000000000000000000000000000000000000000000000000000000fa0",
        "nonce": "0x170",
        "chainId": "0x1"
      },
      "additionalContracts": [],
      "isFixedGasLimit": false
    },
    {
      "hash": "0xe138a586d0a3e09a57671856dec88f3b7d05aa022c797bb7587c6feee564c9ba",
      "transactionType": "CALL",
      "contractName": "PhlimboEA",
      "contractAddress": "0x3984ebc84d45a889ddac595d13dc0ac2e54819f4",
      "function": "setDesiredAPY(uint256)",
      "arguments": [
        "0"
      ],
      "transaction": {
        "from": "0xcad1a7864a108dbff67f4b8af71fab0c7a86d0b6",
        "to": "0x3984ebc84d45a889ddac595d13dc0ac2e54819f4",
        "gas": "0x1206c",
        "value": "0x0",
        "input": "0x0310ba8b0000000000000000000000000000000000000000000000000000000000000000",
        "nonce": "0x171",
        "chainId": "0x1"
      },
      "additionalContracts": [],
      "isFixedGasLimit": false
    },
    {
      "hash": "0x48071837a4d90ac921a203d2ab8d830d58d74c92eef0835c7c1ec8af23000fbb",
      "transactionType": "CALL",
      "contractName": "PhlimboEA",
      "contractAddress": "0x3984ebc84d45a889ddac595d13dc0ac2e54819f4",
      "function": "setDesiredAPY(uint256)",
      "arguments": [
        "0"
      ],
      "transaction": {
        "from": "0xcad1a7864a108dbff67f4b8af71fab0c7a86d0b6",
        "to": "0x3984ebc84d45a889ddac595d13dc0ac2e54819f4",
        "gas": "0xd8f6",
        "value": "0x0",
        "input": "0x0310ba8b0000000000000000000000000000000000000000000000000000000000000000",
        "nonce": "0x172",
        "chainId": "0x1"
      },
      "additionalContracts": [],
      "isFixedGasLimit": false
    }
  ],
  "receipts": [
    {
      "status": "0x1",
      "cumulativeGasUsed": "0x19bb213",
      "logs": [
        {
          "address": "0x3984ebc84d45a889ddac595d13dc0ac2e54819f4",
          "topics": [
            "0xbd6629d3139b5595966cce9ee4270867a7a5ebaca81943509f0094021854a443"
          ],
          "data": "0x00000000000000000000000000000000000000000000000000000000001275000000000000000000000000000000000000000000000000000000000000093a80",
          "blockHash": "0x5853ffa8946ddce644c750742c67ed7e746a2b23b4a2dd35665d41264e5e9740",
          "blockNumber": "0x17c1888",
          "blockTimestamp": "0x69e40fb3",
          "transactionHash": "0x01028735bb579fdfe64f1bf5106a898d2a4ff62f23c099afc3f44af7bb9dcf6b",
          "transactionIndex": "0x106",
          "logIndex": "0x2dc",
          "removed": false
        }
      ],
      "logsBloom": "0x00000000000000000000000000000000000000000000000000000000000000000000000000000000000000400000000000000000000000000000000000000000000000000000000000000000000000000000000000000000000000000000000000000000100000000000000010000000000000000000000000000000000000000008000000000000000000000000000000000000000000000000000000000000000000000000000000000000000000000000000000000000000000004080000000000000000000000000000000000000000000000000000000000000000000000000000000000000000000000000000000000000000000000000000000000000",
      "type": "0x2",
      "transactionHash": "0x01028735bb579fdfe64f1bf5106a898d2a4ff62f23c099afc3f44af7bb9dcf6b",
      "transactionIndex": "0x106",
      "blockHash": "0x5853ffa8946ddce644c750742c67ed7e746a2b23b4a2dd35665d41264e5e9740",
      "blockNumber": "0x17c1888",
      "gasUsed": "0xfafe",
      "effectiveGasPrice": "0x4573b849",
      "from": "0xcad1a7864a108dbff67f4b8af71fab0c7a86d0b6",
      "to": "0x3984ebc84d45a889ddac595d13dc0ac2e54819f4",
      "contractAddress": null
    },
    {
      "status": "0x1",
      "cumulativeGasUsed": "0x11f1b85",
      "logs": [
        {
          "address": "0xb9639e6be92033f55e6d9e375fd1c28ceedba50e",
          "topics": [
            "0xbde6b2554a797ee1ab75b4f90ad50200dcd2a80165488896faacd30a0a013174"
          ],
          "data": "0x0000000000000000000000000000000000000000000000000000000000000dac0000000000000000000000000000000000000000000000000000000000000fa0",
          "blockHash": "0x28bd526865146c558e83fef66d4f69fd82d5868df9922a404d481c6e0249f042",
          "blockNumber": "0x17c1889",
          "blockTimestamp": "0x69e40fbf",
          "transactionHash": "0xe83a6844be76bd7fc5083dbcc159cd4c7af8d7fc752e287c62742991a958ab45",
          "transactionIndex": "0xb4",
          "logIndex": "0x258",
          "removed": false
        }
      ],
      "logsBloom": "0x00000000000000000000000000000000000000000000000000000000000000004000000000000000000000000000000000004000000000000000000000000000200000000000000000000000000000000000000000000000000000000000000000000000000000000000100000000000000000000000000000000000000000000000000000000000000000004000000000000000000000000000000000000000000000000000000000000000000000000000000000000000000000000000000000000000000000000000000000000000000000000000000000010000000000000000000000000000000000000000000000000000000000000000000000000000",
      "type": "0x2",
      "transactionHash": "0xe83a6844be76bd7fc5083dbcc159cd4c7af8d7fc752e287c62742991a958ab45",
      "transactionIndex": "0xb4",
      "blockHash": "0x28bd526865146c558e83fef66d4f69fd82d5868df9922a404d481c6e0249f042",
      "blockNumber": "0x17c1889",
      "gasUsed": "0x760f",
      "effectiveGasPrice": "0x47342de5",
      "from": "0xcad1a7864a108dbff67f4b8af71fab0c7a86d0b6",
      "to": "0xb9639e6be92033f55e6d9e375fd1c28ceedba50e",
      "contractAddress": null
    },
    {
      "status": "0x1",
      "cumulativeGasUsed": "0x1bd8b8d",
      "logs": [
        {
          "address": "0x3984ebc84d45a889ddac595d13dc0ac2e54819f4",
          "topics": [
            "0xf36724fbbf2685c5998d22a2a0c456aef7fa52993217cfc000e9f63f49a079a4",
            "0x0000000000000000000000000000000000000000000000000000000000000000",
            "0x000000000000000000000000cad1a7864a108dbff67f4b8af71fab0c7a86d0b6"
          ],
          "data": "0x00000000000000000000000000000000000000000000000000000000017c188a",
          "blockHash": "0xa82cddb391ef93752925032c4d795c67457cc37b3ad5e0900269a1238976f7e7",
          "blockNumber": "0x17c188a",
          "blockTimestamp": "0x69e40fcb",
          "transactionHash": "0xe138a586d0a3e09a57671856dec88f3b7d05aa022c797bb7587c6feee564c9ba",
          "transactionIndex": "0xa1",
          "logIndex": "0x43e",
          "removed": false
        }
      ],
      "logsBloom": "0x00000000000000000020000000000000000000000000000000000000000000000000000000000000000000400000000000000000000000000000000000000000000000000000000000000000000000000000000000000000001000000000000000000000020000000000000000000800000000000000000000002000000000000000000000000000000000000000000000000000000000000000000000000000000000000000000000000000000000000000000000000000000000004080000000000000000000000000000000000000000000000000100000000002000020000000000000000000000000000000000000000000000000000000000000000000",
      "type": "0x2",
      "transactionHash": "0xe138a586d0a3e09a57671856dec88f3b7d05aa022c797bb7587c6feee564c9ba",
      "transactionIndex": "0xa1",
      "blockHash": "0xa82cddb391ef93752925032c4d795c67457cc37b3ad5e0900269a1238976f7e7",
      "blockNumber": "0x17c188a",
      "gasUsed": "0xd0d0",
      "effectiveGasPrice": "0x462875ad",
      "from": "0xcad1a7864a108dbff67f4b8af71fab0c7a86d0b6",
      "to": "0x3984ebc84d45a889ddac595d13dc0ac2e54819f4",
      "contractAddress": null
    }
  ],
  "libraries": [],
  "pending": [],
  "returns": {},
  "timestamp": 1776553949262,
  "chain": 1,
  "commit": "1128a52"
}