{
  "transactions": [
    {
      "hash": "0x7c99d67e46d322b069ecbd99644c1a83be152b33a7cd521fa962677579a047b4",
      "transactionType": "CALL",
      "contractName": null,
      "contractAddress": "0x17dc492afa0c25fb7293edc5c00c7d4d2fccb342",
      "function": "rescueERC20(address,address,uint256)",
      "arguments": [
        "0x865377367054516e17014CcdED1e7d814EDC9ce4",
        "0xCad1a7864a108DBFF67F4b8af71fAB0C7A86D0B6",
        "26975766744554772569"
      ],
      "transaction": {
        "from": "0xcad1a7864a108dbff67f4b8af71fab0c7a86d0b6",
        "to": "0x17dc492afa0c25fb7293edc5c00c7d4d2fccb342",
        "gas": "0xdc65",
        "value": "0x0",
        "input": "0xb2118a8d000000000000000000000000865377367054516e17014ccded1e7d814edc9ce4000000000000000000000000cad1a7864a108dbff67f4b8af71fab0c7a86d0b6000000000000000000000000000000000000000000000001765d2cee30fb9859",
        "nonce": "0x36b",
        "chainId": "0x1"
      },
      "additionalContracts": [],
      "isFixedGasLimit": false
    },
    {
      "hash": "0xbc289d7b56346d096bfe26808b88491649eb1cc20c3ac16debac8eb1aec3d138",
      "transactionType": "CALL",
      "contractName": null,
      "contractAddress": "0x17dc492afa0c25fb7293edc5c00c7d4d2fccb342",
      "function": "rescueERC20(address,address,uint256)",
      "arguments": [
        "0xA0b86991c6218b36c1d19D4a2e9Eb0cE3606eB48",
        "0xCad1a7864a108DBFF67F4b8af71fAB0C7A86D0B6",
        "26831811"
      ],
      "transaction": {
        "from": "0xcad1a7864a108dbff67f4b8af71fab0c7a86d0b6",
        "to": "0x17dc492afa0c25fb7293edc5c00c7d4d2fccb342",
        "gas": "0x10e80",
        "value": "0x0",
        "input": "0xb2118a8d000000000000000000000000a0b86991c6218b36c1d19d4a2e9eb0ce3606eb48000000000000000000000000cad1a7864a108dbff67f4b8af71fab0c7a86d0b60000000000000000000000000000000000000000000000000000000001996bc3",
        "nonce": "0x36c",
        "chainId": "0x1"
      },
      "additionalContracts": [],
      "isFixedGasLimit": false
    }
  ],
  "receipts": [
    {
      "status": "0x1",
      "cumulativeGasUsed": "0x33bf7d3",
      "logs": [
        {
          "address": "0x865377367054516e17014ccded1e7d814edc9ce4",
          "topics": [
            "0xddf252ad1be2c89b69c2b068fc378daa952ba7f163c4a11628f55a4df523b3ef",
            "0x00000000000000000000000017dc492afa0c25fb7293edc5c00c7d4d2fccb342",
            "0x000000000000000000000000cad1a7864a108dbff67f4b8af71fab0c7a86d0b6"
          ],
          "data": "0x000000000000000000000000000000000000000000000001765d2cee30fb9859",
          "blockHash": "0xce74a1d1adee205275b20830b3ec8d80699940a68d22c9ce58956edc5f319130",
          "blockNumber": "0x182792a",
          "blockTimestamp": "0x6a30db73",
          "transactionHash": "0x7c99d67e46d322b069ecbd99644c1a83be152b33a7cd521fa962677579a047b4",
          "transactionIndex": "0x158",
          "logIndex": "0x657",
          "removed": false
        }
      ],
      "logsBloom": "0x00000000000008000020000000000000000000000000000000040000000000000000000000000000000008400000000000000080000000000000000000000000000000000000000000000008000000000000000000000000000000000000000000000000000000000000000000000000000000000000000000000010000080000000000000000000000000000000000000000000000000000000000000000000000000000000000000000000000000000000000000000000000000000000000000000002000000000000000000000000000000000000100000000000000000000200000000000000000000000000000000000000000000000000000000000000",
      "type": "0x2",
      "transactionHash": "0x7c99d67e46d322b069ecbd99644c1a83be152b33a7cd521fa962677579a047b4",
      "transactionIndex": "0x158",
      "blockHash": "0xce74a1d1adee205275b20830b3ec8d80699940a68d22c9ce58956edc5f319130",
      "blockNumber": "0x182792a",
      "gasUsed": "0x96b3",
      "effectiveGasPrice": "0x7b3c8aa",
      "from": "0xcad1a7864a108dbff67f4b8af71fab0c7a86d0b6",
      "to": "0x17dc492afa0c25fb7293edc5c00c7d4d2fccb342",
      "contractAddress": null
    },
    {
      "status": "0x1",
      "cumulativeGasUsed": "0x19dcbb3",
      "logs": [
        {
          "address": "0xa0b86991c6218b36c1d19d4a2e9eb0ce3606eb48",
          "topics": [
            "0xddf252ad1be2c89b69c2b068fc378daa952ba7f163c4a11628f55a4df523b3ef",
            "0x00000000000000000000000017dc492afa0c25fb7293edc5c00c7d4d2fccb342",
            "0x000000000000000000000000cad1a7864a108dbff67f4b8af71fab0c7a86d0b6"
          ],
          "data": "0x0000000000000000000000000000000000000000000000000000000001996bc3",
          "blockHash": "0xaf5212e286a3b09ab4020b83bbeed7e51d6248008afe33062e83caa7e09297d4",
          "blockNumber": "0x182792b",
          "blockTimestamp": "0x6a30db7f",
          "transactionHash": "0xbc289d7b56346d096bfe26808b88491649eb1cc20c3ac16debac8eb1aec3d138",
          "transactionIndex": "0x79",
          "logIndex": "0x2c1",
          "removed": false
        }
      ],
      "logsBloom": "0x00000000000008000020000000000000000000000000000000000000000000000000000000000000000000400000000000000080000000000000000000000000000000000000000008000008000000000000000000000000000000000000000000000000000000000000000000000000000000000000000000000010000000000000000000000000000000000000000000000000010000000000000000000000000000000000200000000000000000000000000000000000000000000000000000000002000000000000000000000000000000000000100000000000000000000200000000000000000000000000000000000000000000000000000000000000",
      "type": "0x2",
      "transactionHash": "0xbc289d7b56346d096bfe26808b88491649eb1cc20c3ac16debac8eb1aec3d138",
      "transactionIndex": "0x79",
      "blockHash": "0xaf5212e286a3b09ab4020b83bbeed7e51d6248008afe33062e83caa7e09297d4",
      "blockNumber": "0x182792b",
      "gasUsed": "0xc3d7",
      "effectiveGasPrice": "0x8a85224",
      "from": "0xcad1a7864a108dbff67f4b8af71fab0c7a86d0b6",
      "to": "0x17dc492afa0c25fb7293edc5c00c7d4d2fccb342",
      "contractAddress": null
    }
  ],
  "libraries": [],
  "pending": [],
  "returns": {},
  "timestamp": 1781586814212,
  "chain": 1,
  "commit": "10b4aca"
}