{
  "transactions": [
    {
      "hash": "0x0a2ee0744344af95adeab7c96c8ee7dc467da50b2b6ed8e11496d6eb5b05b8c8",
      "transactionType": "CALL",
      "contractName": null,
      "contractAddress": "0x8b4a75290a1c4935ec1dfd990374ac4bd4d33952",
      "function": "totalWithdrawal(address,address)",
      "arguments": [
        "0xA0b86991c6218b36c1d19D4a2e9Eb0cE3606eB48",
        "0x435B0A1884bd0fb5667677C9eb0e59425b1477E5"
      ],
      "transaction": {
        "from": "0xcad1a7864a108dbff67f4b8af71fab0c7a86d0b6",
        "to": "0x8b4a75290a1c4935ec1dfd990374ac4bd4d33952",
        "gas": "0x22173",
        "value": "0x0",
        "input": "0x32e4036d000000000000000000000000a0b86991c6218b36c1d19d4a2e9eb0ce3606eb48000000000000000000000000435b0a1884bd0fb5667677c9eb0e59425b1477e5",
        "nonce": "0x146",
        "chainId": "0x1"
      },
      "additionalContracts": [],
      "isFixedGasLimit": false
    },
    {
      "hash": "0xd2ef3a2fbe6e0eb40ab9fb2f987e302c5dc9272c8f54586dca52b951d58cf317",
      "transactionType": "CALL",
      "contractName": null,
      "contractAddress": "0xe7aec21bf6420ff483107adcb9360c4b31d69d78",
      "function": "totalWithdrawal(address,address)",
      "arguments": [
        "0x865377367054516e17014CcdED1e7d814EDC9ce4",
        "0x435B0A1884bd0fb5667677C9eb0e59425b1477E5"
      ],
      "transaction": {
        "from": "0xcad1a7864a108dbff67f4b8af71fab0c7a86d0b6",
        "to": "0xe7aec21bf6420ff483107adcb9360c4b31d69d78",
        "gas": "0x22173",
        "value": "0x0",
        "input": "0x32e4036d000000000000000000000000865377367054516e17014ccded1e7d814edc9ce4000000000000000000000000435b0a1884bd0fb5667677c9eb0e59425b1477e5",
        "nonce": "0x147",
        "chainId": "0x1"
      },
      "additionalContracts": [],
      "isFixedGasLimit": false
    }
  ],
  "receipts": [
    {
      "status": "0x1",
      "cumulativeGasUsed": "0x23fade8",
      "logs": [
        {
          "address": "0x8b4a75290a1c4935ec1dfd990374ac4bd4d33952",
          "topics": [
            "0xd9fbd8fe4451ae979e36c7923543e61b94e26b6f1510866805ee90023a61aa21",
            "0x000000000000000000000000a0b86991c6218b36c1d19d4a2e9eb0ce3606eb48",
            "0x000000000000000000000000435b0a1884bd0fb5667677c9eb0e59425b1477e5"
          ],
          "data": "0x00000000000000000000000000000000000000000000000000000002c6b234470000000000000000000000000000000000000000000000000000000069d7b7cf0000000000000000000000000000000000000000000000000000000069d9094f",
          "blockHash": "0x848038948b13000318ab5f9c3ce907a48f82b5313b770e6a5e5e19e696a91ab5",
          "blockNumber": "0x17b120b",
          "blockTimestamp": "0x69d7b7cf",
          "transactionHash": "0x0a2ee0744344af95adeab7c96c8ee7dc467da50b2b6ed8e11496d6eb5b05b8c8",
          "transactionIndex": "0x1ae",
          "logIndex": "0x4bd",
          "removed": false
        }
      ],
      "logsBloom": "0x00000000000000000000000040000000000000000000000000000000000000001000000000000000000002000000080000000000000000000000000000800000000000000000000000000000000000000000000000000000000000000000000000000000000000000000000000000000000000000000000000000000000000000100000000000000000000000000000200000000000000000000000000000000000000000000000200000000000000000000000000000000000000002400000000000004000000000000000000000000000000000000000000000000000000000000000000000000000000000000000004000000000000000000000000000000",
      "type": "0x2",
      "transactionHash": "0x0a2ee0744344af95adeab7c96c8ee7dc467da50b2b6ed8e11496d6eb5b05b8c8",
      "transactionIndex": "0x1ae",
      "blockHash": "0x848038948b13000318ab5f9c3ce907a48f82b5313b770e6a5e5e19e696a91ab5",
      "blockNumber": "0x17b120b",
      "gasUsed": "0x18ae6",
      "effectiveGasPrice": "0x606d884",
      "from": "0xcad1a7864a108dbff67f4b8af71fab0c7a86d0b6",
      "to": "0x8b4a75290a1c4935ec1dfd990374ac4bd4d33952",
      "contractAddress": null
    },
    {
      "status": "0x1",
      "cumulativeGasUsed": "0x24cdada",
      "logs": [
        {
          "address": "0xe7aec21bf6420ff483107adcb9360c4b31d69d78",
          "topics": [
            "0xd9fbd8fe4451ae979e36c7923543e61b94e26b6f1510866805ee90023a61aa21",
            "0x000000000000000000000000865377367054516e17014ccded1e7d814edc9ce4",
            "0x000000000000000000000000435b0a1884bd0fb5667677c9eb0e59425b1477e5"
          ],
          "data": "0x0000000000000000000000000000000000000000000002ccf9c64b1be4a83fe80000000000000000000000000000000000000000000000000000000069d7b7f30000000000000000000000000000000000000000000000000000000069d90973",
          "blockHash": "0xbcff391ae880839d0c65e2b4fe3026b951bfc510a58dfe1684f46283db7f7255",
          "blockNumber": "0x17b120e",
          "blockTimestamp": "0x69d7b7f3",
          "transactionHash": "0xd2ef3a2fbe6e0eb40ab9fb2f987e302c5dc9272c8f54586dca52b951d58cf317",
          "transactionIndex": "0x225",
          "logIndex": "0x3b7",
          "removed": false
        }
      ],
      "logsBloom": "0x00000000000000000000000040000000000000000000000000000000000000001000000000000000000000000000080000000000000000000000000000800000000000000000000000000000000000000000000000000000000000000000000000000000000000000000010000000000000000000000000000000010000000000180000000000000000000000000000000000000000000000000000000000000000000000000000000000000000000000000000000000000000000000000000000000004001000000000000000000000000000020000000000000000000002000000000000000000000000000000000000000000000000000000000000000000",
      "type": "0x2",
      "transactionHash": "0xd2ef3a2fbe6e0eb40ab9fb2f987e302c5dc9272c8f54586dca52b951d58cf317",
      "transactionIndex": "0x225",
      "blockHash": "0xbcff391ae880839d0c65e2b4fe3026b951bfc510a58dfe1684f46283db7f7255",
      "blockNumber": "0x17b120e",
      "gasUsed": "0x18ae6",
      "effectiveGasPrice": "0x5edd1c3",
      "from": "0xcad1a7864a108dbff67f4b8af71fab0c7a86d0b6",
      "to": "0xe7aec21bf6420ff483107adcb9360c4b31d69d78",
      "contractAddress": null
    }
  ],
  "libraries": [],
  "pending": [],
  "returns": {},
  "timestamp": 1775745013542,
  "chain": 1,
  "commit": "4bb2bc9"
}