{
  "transactions": [
    {
      "hash": "0x297d486f848ba8d05dce6a37d8ae88714e81e4d55c43315ee1242ae07328ca46",
      "transactionType": "CALL",
      "contractName": null,
      "contractAddress": "0x7f74388bc970de5e2822036a1ad06fccd156786b",
      "function": "pool(uint256)",
      "arguments": [
        "248216767918216569372"
      ],
      "transaction": {
        "from": "0xcad1a7864a108dbff67f4b8af71fab0c7a86d0b6",
        "to": "0x7f74388bc970de5e2822036a1ad06fccd156786b",
        "value": "0x0",
        "input": "0xfe31311200000000000000000000000000000000000000000000000d74b31b5014dfe21c",
        "nonce": "0x26f",
        "chainId": "0x1"
      },
      "additionalContracts": [],
      "isFixedGasLimit": false
    }
  ],
  "receipts": [
    {
      "status": "0x1",
      "cumulativeGasUsed": "0x2d2f141",
      "logs": [
        {
          "address": "0xa3931d71877c0e7a3148cb7eb4463524fec27fbd",
          "topics": [
            "0xddf252ad1be2c89b69c2b068fc378daa952ba7f163c4a11628f55a4df523b3ef",
            "0x0000000000000000000000007f74388bc970de5e2822036a1ad06fccd156786b",
            "0x000000000000000000000000ba1333333333a1ba1108e8412f11850a5c319ba9"
          ],
          "data": "0x000000000000000000000000000000000000000000000019f3cff0d0688c8c70",
          "blockHash": "0x2806da84e72b702c4d4aa2058f9a5667e6b58d6da7f9509df87165674c0563a1",
          "blockNumber": "0x1813bf8",
          "blockTimestamp": "0x6a21ee33",
          "transactionHash": "0x297d486f848ba8d05dce6a37d8ae88714e81e4d55c43315ee1242ae07328ca46",
          "transactionIndex": "0xe5",
          "logIndex": "0x5c7",
          "removed": false
        },
        {
          "address": "0xba1333333333a1ba1108e8412f11850a5c319ba9",
          "topics": [
            "0xd1398bee19313d6bf672ccb116e51f4a1a947e91c757907f51fbb5b5e56c698f",
            "0x000000000000000000000000642bb6860b4776cc10b26b8f361fd139e7f0db04",
            "0x0000000000000000000000000000000000000000000000000000000000000000",
            "0x0000000000000000000000007f74388bc970de5e2822036a1ad06fccd156786b"
          ],
          "data": "0x00000000000000000000000000000000000000000000000d977e9ce1b2d2a12a",
          "blockHash": "0x2806da84e72b702c4d4aa2058f9a5667e6b58d6da7f9509df87165674c0563a1",
          "blockNumber": "0x1813bf8",
          "blockTimestamp": "0x6a21ee33",
          "transactionHash": "0x297d486f848ba8d05dce6a37d8ae88714e81e4d55c43315ee1242ae07328ca46",
          "transactionIndex": "0xe5",
          "logIndex": "0x5c8",
          "removed": false
        },
        {
          "address": "0x642bb6860b4776cc10b26b8f361fd139e7f0db04",
          "topics": [
            "0xddf252ad1be2c89b69c2b068fc378daa952ba7f163c4a11628f55a4df523b3ef",
            "0x0000000000000000000000000000000000000000000000000000000000000000",
            "0x0000000000000000000000007f74388bc970de5e2822036a1ad06fccd156786b"
          ],
          "data": "0x00000000000000000000000000000000000000000000000d977e9ce1b2d2a12a",
          "blockHash": "0x2806da84e72b702c4d4aa2058f9a5667e6b58d6da7f9509df87165674c0563a1",
          "blockNumber": "0x1813bf8",
          "blockTimestamp": "0x6a21ee33",
          "transactionHash": "0x297d486f848ba8d05dce6a37d8ae88714e81e4d55c43315ee1242ae07328ca46",
          "transactionIndex": "0xe5",
          "logIndex": "0x5c9",
          "removed": false
        },
        {
          "address": "0xba1333333333a1ba1108e8412f11850a5c319ba9",
          "topics": [
            "0xa26a52d8d53702bba7f137907b8e1f99ff87f6d450144270ca25e72481cca871",
            "0x000000000000000000000000642bb6860b4776cc10b26b8f361fd139e7f0db04",
            "0x0000000000000000000000007f74388bc970de5e2822036a1ad06fccd156786b",
            "0x0000000000000000000000000000000000000000000000000000000000000001"
          ],
          "data": "0x0000000000000000000000000000000000000000000003e2b630fb464d433cf5000000000000000000000000000000000000000000000000000000000000006000000000000000000000000000000000000000000000000000000000000000c00000000000000000000000000000000000000000000000000000000000000002000000000000000000000000000000000000000000000019f3cff0d0688c8c70000000000000000000000000000000000000000000000000000000000000000000000000000000000000000000000000000000000000000000000000000000020000000000000000000000000000000000000000000000000a08ccccf3ac8dd20000000000000000000000000000000000000000000000000000000000000000",
          "blockHash": "0x2806da84e72b702c4d4aa2058f9a5667e6b58d6da7f9509df87165674c0563a1",
          "blockNumber": "0x1813bf8",
          "blockTimestamp": "0x6a21ee33",
          "transactionHash": "0x297d486f848ba8d05dce6a37d8ae88714e81e4d55c43315ee1242ae07328ca46",
          "transactionIndex": "0xe5",
          "logIndex": "0x5ca",
          "removed": false
        },
        {
          "address": "0x7f74388bc970de5e2822036a1ad06fccd156786b",
          "topics": [
            "0xaf6cb2e6187986f98607346b0da39860f8bcc4e2e024c1926efa779809b07adb",
            "0x000000000000000000000000cad1a7864a108dbff67f4b8af71fab0c7a86d0b6"
          ],
          "data": "0x000000000000000000000000000000000000000000000019f3cff0d0688c8c7000000000000000000000000000000000000000000000000d977e9ce1b2d2a12a00000000000000000000000000000000000000000000000d74b31b5014dfe21c",
          "blockHash": "0x2806da84e72b702c4d4aa2058f9a5667e6b58d6da7f9509df87165674c0563a1",
          "blockNumber": "0x1813bf8",
          "blockTimestamp": "0x6a21ee33",
          "transactionHash": "0x297d486f848ba8d05dce6a37d8ae88714e81e4d55c43315ee1242ae07328ca46",
          "transactionIndex": "0xe5",
          "logIndex": "0x5cb",
          "removed": false
        }
      ],
      "logsBloom": "0x00000000000000000020000000000000000080000004000040004000402000000000000000000000000000408000000000000000000000000000000000040000802000000000000200000008000000000000004000040000000000000000000000000000020000000000004000000800000001000000020008010010000000000000000000000000000000000000000002000002000000000010010000020000000000800080000000040000800000000000000000000000000000000000000000000002000000000000000000000000000000000000100000000000800060000001000040000000002000000000000000000000000100000000000000000000",
      "type": "0x2",
      "transactionHash": "0x297d486f848ba8d05dce6a37d8ae88714e81e4d55c43315ee1242ae07328ca46",
      "transactionIndex": "0xe5",
      "blockHash": "0x2806da84e72b702c4d4aa2058f9a5667e6b58d6da7f9509df87165674c0563a1",
      "blockNumber": "0x1813bf8",
      "gasUsed": "0x2baff",
      "effectiveGasPrice": "0xc28374d",
      "from": "0xcad1a7864a108dbff67f4b8af71fab0c7a86d0b6",
      "to": "0x7f74388bc970de5e2822036a1ad06fccd156786b",
      "contractAddress": null
    }
  ],
  "libraries": [],
  "pending": [],
  "returns": {},
  "timestamp": 1780608565170,
  "chain": 1,
  "commit": "a330664"
}