{
  "transactions": [
    {
      "hash": "0xe0f61becc9d2d1e2c4639d7ee1deb0f7ae35a3930d36125d8b74b4934b066a3f",
      "transactionType": "CALL",
      "contractName": null,
      "contractAddress": "0x7f74388bc970de5e2822036a1ad06fccd156786b",
      "function": "pool(uint256)",
      "arguments": [
        "249062401256474662164"
      ],
      "transaction": {
        "from": "0xcad1a7864a108dbff67f4b8af71fab0c7a86d0b6",
        "to": "0x7f74388bc970de5e2822036a1ad06fccd156786b",
        "value": "0x0",
        "input": "0xfe31311200000000000000000000000000000000000000000000000d806f665a85f9d514",
        "nonce": "0x273",
        "chainId": "0x1"
      },
      "additionalContracts": [],
      "isFixedGasLimit": false
    }
  ],
  "receipts": [
    {
      "status": "0x1",
      "cumulativeGasUsed": "0x187413f",
      "logs": [
        {
          "address": "0xa3931d71877c0e7a3148cb7eb4463524fec27fbd",
          "topics": [
            "0xddf252ad1be2c89b69c2b068fc378daa952ba7f163c4a11628f55a4df523b3ef",
            "0x0000000000000000000000007f74388bc970de5e2822036a1ad06fccd156786b",
            "0x000000000000000000000000ba1333333333a1ba1108e8412f11850a5c319ba9"
          ],
          "data": "0x00000000000000000000000000000000000000000000001a0e6ecf5d15d49e4b",
          "blockHash": "0x6dfa2f475cfcaee09020ed70f0346e403096f7ecb50be6511b1858d7e2da3172",
          "blockNumber": "0x1813c39",
          "blockTimestamp": "0x6a21f14b",
          "transactionHash": "0xe0f61becc9d2d1e2c4639d7ee1deb0f7ae35a3930d36125d8b74b4934b066a3f",
          "transactionIndex": "0x95",
          "logIndex": "0x31c",
          "removed": false
        },
        {
          "address": "0xba1333333333a1ba1108e8412f11850a5c319ba9",
          "topics": [
            "0xd1398bee19313d6bf672ccb116e51f4a1a947e91c757907f51fbb5b5e56c698f",
            "0x000000000000000000000000642bb6860b4776cc10b26b8f361fd139e7f0db04",
            "0x0000000000000000000000000000000000000000000000000000000000000000",
            "0x0000000000000000000000007f74388bc970de5e2822036a1ad06fccd156786b"
          ],
          "data": "0x00000000000000000000000000000000000000000000000da35940997f9255f1",
          "blockHash": "0x6dfa2f475cfcaee09020ed70f0346e403096f7ecb50be6511b1858d7e2da3172",
          "blockNumber": "0x1813c39",
          "blockTimestamp": "0x6a21f14b",
          "transactionHash": "0xe0f61becc9d2d1e2c4639d7ee1deb0f7ae35a3930d36125d8b74b4934b066a3f",
          "transactionIndex": "0x95",
          "logIndex": "0x31d",
          "removed": false
        },
        {
          "address": "0x642bb6860b4776cc10b26b8f361fd139e7f0db04",
          "topics": [
            "0xddf252ad1be2c89b69c2b068fc378daa952ba7f163c4a11628f55a4df523b3ef",
            "0x0000000000000000000000000000000000000000000000000000000000000000",
            "0x0000000000000000000000007f74388bc970de5e2822036a1ad06fccd156786b"
          ],
          "data": "0x00000000000000000000000000000000000000000000000da35940997f9255f1",
          "blockHash": "0x6dfa2f475cfcaee09020ed70f0346e403096f7ecb50be6511b1858d7e2da3172",
          "blockNumber": "0x1813c39",
          "blockTimestamp": "0x6a21f14b",
          "transactionHash": "0xe0f61becc9d2d1e2c4639d7ee1deb0f7ae35a3930d36125d8b74b4934b066a3f",
          "transactionIndex": "0x95",
          "logIndex": "0x31e",
          "removed": false
        },
        {
          "address": "0xba1333333333a1ba1108e8412f11850a5c319ba9",
          "topics": [
            "0xa26a52d8d53702bba7f137907b8e1f99ff87f6d450144270ca25e72481cca871",
            "0x000000000000000000000000642bb6860b4776cc10b26b8f361fd139e7f0db04",
            "0x0000000000000000000000007f74388bc970de5e2822036a1ad06fccd156786b",
            "0x0000000000000000000000000000000000000000000000000000000000000001"
          ],
          "data": "0x0000000000000000000000000000000000000000000003f0598a3bdfccd592e6000000000000000000000000000000000000000000000000000000000000006000000000000000000000000000000000000000000000000000000000000000c0000000000000000000000000000000000000000000000000000000000000000200000000000000000000000000000000000000000000001a0e6ecf5d15d49e4b000000000000000000000000000000000000000000000000000000000000000000000000000000000000000000000000000000000000000000000000000000020000000000000000000000000000000000000000000000000a12e9825785e8680000000000000000000000000000000000000000000000000000000000000000",
          "blockHash": "0x6dfa2f475cfcaee09020ed70f0346e403096f7ecb50be6511b1858d7e2da3172",
          "blockNumber": "0x1813c39",
          "blockTimestamp": "0x6a21f14b",
          "transactionHash": "0xe0f61becc9d2d1e2c4639d7ee1deb0f7ae35a3930d36125d8b74b4934b066a3f",
          "transactionIndex": "0x95",
          "logIndex": "0x31f",
          "removed": false
        },
        {
          "address": "0x7f74388bc970de5e2822036a1ad06fccd156786b",
          "topics": [
            "0xaf6cb2e6187986f98607346b0da39860f8bcc4e2e024c1926efa779809b07adb",
            "0x000000000000000000000000cad1a7864a108dbff67f4b8af71fab0c7a86d0b6"
          ],
          "data": "0x00000000000000000000000000000000000000000000001a0e6ecf5d15d49e4b00000000000000000000000000000000000000000000000da35940997f9255f100000000000000000000000000000000000000000000000d806f665a85f9d514",
          "blockHash": "0x6dfa2f475cfcaee09020ed70f0346e403096f7ecb50be6511b1858d7e2da3172",
          "blockNumber": "0x1813c39",
          "blockTimestamp": "0x6a21f14b",
          "transactionHash": "0xe0f61becc9d2d1e2c4639d7ee1deb0f7ae35a3930d36125d8b74b4934b066a3f",
          "transactionIndex": "0x95",
          "logIndex": "0x320",
          "removed": false
        }
      ],
      "logsBloom": "0x00000000000000000020000000000000000080000004000040004000402000000000000000000000000000408000000000000000000000000000000000040000802000000000000200000008000000000000004000040000000000000000000000000000020000000000004000000800000001000000020008010010000000000000000000000000000000000000000002000002000000000010010000020000000000800080000000040000800000000000000000000000000000000000000000000002000000000000000000000000000000000000100000000000800060000001000040000000002000000000000000000000000100000000000000000000",
      "type": "0x2",
      "transactionHash": "0xe0f61becc9d2d1e2c4639d7ee1deb0f7ae35a3930d36125d8b74b4934b066a3f",
      "transactionIndex": "0x95",
      "blockHash": "0x6dfa2f475cfcaee09020ed70f0346e403096f7ecb50be6511b1858d7e2da3172",
      "blockNumber": "0x1813c39",
      "gasUsed": "0x2bad5",
      "effectiveGasPrice": "0x14072860",
      "from": "0xcad1a7864a108dbff67f4b8af71fab0c7a86d0b6",
      "to": "0x7f74388bc970de5e2822036a1ad06fccd156786b",
      "contractAddress": null
    }
  ],
  "libraries": [],
  "pending": [],
  "returns": {},
  "timestamp": 1780609358106,
  "chain": 1,
  "commit": "a330664"
}