{
  "transactions": [
    {
      "hash": "0x696dbce33219d74b5900f7c241fa0faa7ec1b0cc54a3f03a5aeac085788a74c8",
      "transactionType": "CALL",
      "contractName": null,
      "contractAddress": "0x7f74388bc970de5e2822036a1ad06fccd156786b",
      "function": "pool(uint256)",
      "arguments": [
        "250005173359372077721"
      ],
      "transaction": {
        "from": "0xcad1a7864a108dbff67f4b8af71fab0c7a86d0b6",
        "to": "0x7f74388bc970de5e2822036a1ad06fccd156786b",
        "value": "0x0",
        "input": "0xfe31311200000000000000000000000000000000000000000000000d8d84cc960f530a99",
        "nonce": "0x277",
        "chainId": "0x1"
      },
      "additionalContracts": [],
      "isFixedGasLimit": false
    }
  ],
  "receipts": [
    {
      "status": "0x1",
      "cumulativeGasUsed": "0xe3b919",
      "logs": [
        {
          "address": "0xa3931d71877c0e7a3148cb7eb4463524fec27fbd",
          "topics": [
            "0xddf252ad1be2c89b69c2b068fc378daa952ba7f163c4a11628f55a4df523b3ef",
            "0x0000000000000000000000007f74388bc970de5e2822036a1ad06fccd156786b",
            "0x000000000000000000000000ba1333333333a1ba1108e8412f11850a5c319ba9"
          ],
          "data": "0x00000000000000000000000000000000000000000000001a2929259734574596",
          "blockHash": "0x500133c893dd515059ae3f4ae66e24acc58b9195688b7dffbf690b86bf6d4a14",
          "blockNumber": "0x1813fb2",
          "blockTimestamp": "0x6a221b27",
          "transactionHash": "0x696dbce33219d74b5900f7c241fa0faa7ec1b0cc54a3f03a5aeac085788a74c8",
          "transactionIndex": "0x74",
          "logIndex": "0x1e6",
          "removed": false
        },
        {
          "address": "0xba1333333333a1ba1108e8412f11850a5c319ba9",
          "topics": [
            "0xd1398bee19313d6bf672ccb116e51f4a1a947e91c757907f51fbb5b5e56c698f",
            "0x000000000000000000000000642bb6860b4776cc10b26b8f361fd139e7f0db04",
            "0x0000000000000000000000000000000000000000000000000000000000000000",
            "0x0000000000000000000000007f74388bc970de5e2822036a1ad06fccd156786b"
          ],
          "data": "0x00000000000000000000000000000000000000000000000db0907be7bcbb5086",
          "blockHash": "0x500133c893dd515059ae3f4ae66e24acc58b9195688b7dffbf690b86bf6d4a14",
          "blockNumber": "0x1813fb2",
          "blockTimestamp": "0x6a221b27",
          "transactionHash": "0x696dbce33219d74b5900f7c241fa0faa7ec1b0cc54a3f03a5aeac085788a74c8",
          "transactionIndex": "0x74",
          "logIndex": "0x1e7",
          "removed": false
        },
        {
          "address": "0x642bb6860b4776cc10b26b8f361fd139e7f0db04",
          "topics": [
            "0xddf252ad1be2c89b69c2b068fc378daa952ba7f163c4a11628f55a4df523b3ef",
            "0x0000000000000000000000000000000000000000000000000000000000000000",
            "0x0000000000000000000000007f74388bc970de5e2822036a1ad06fccd156786b"
          ],
          "data": "0x00000000000000000000000000000000000000000000000db0907be7bcbb5086",
          "blockHash": "0x500133c893dd515059ae3f4ae66e24acc58b9195688b7dffbf690b86bf6d4a14",
          "blockNumber": "0x1813fb2",
          "blockTimestamp": "0x6a221b27",
          "transactionHash": "0x696dbce33219d74b5900f7c241fa0faa7ec1b0cc54a3f03a5aeac085788a74c8",
          "transactionIndex": "0x74",
          "logIndex": "0x1e8",
          "removed": false
        },
        {
          "address": "0xba1333333333a1ba1108e8412f11850a5c319ba9",
          "topics": [
            "0xa26a52d8d53702bba7f137907b8e1f99ff87f6d450144270ca25e72481cca871",
            "0x000000000000000000000000642bb6860b4776cc10b26b8f361fd139e7f0db04",
            "0x0000000000000000000000007f74388bc970de5e2822036a1ad06fccd156786b",
            "0x0000000000000000000000000000000000000000000000000000000000000001"
          ],
          "data": "0x0000000000000000000000000000000000000000000003fe0a1ab7c78990e36c000000000000000000000000000000000000000000000000000000000000006000000000000000000000000000000000000000000000000000000000000000c0000000000000000000000000000000000000000000000000000000000000000200000000000000000000000000000000000000000000001a2929259734574596000000000000000000000000000000000000000000000000000000000000000000000000000000000000000000000000000000000000000000000000000000020000000000000000000000000000000000000000000000000a1d1339b11bf63f0000000000000000000000000000000000000000000000000000000000000000",
          "blockHash": "0x500133c893dd515059ae3f4ae66e24acc58b9195688b7dffbf690b86bf6d4a14",
          "blockNumber": "0x1813fb2",
          "blockTimestamp": "0x6a221b27",
          "transactionHash": "0x696dbce33219d74b5900f7c241fa0faa7ec1b0cc54a3f03a5aeac085788a74c8",
          "transactionIndex": "0x74",
          "logIndex": "0x1e9",
          "removed": false
        },
        {
          "address": "0x7f74388bc970de5e2822036a1ad06fccd156786b",
          "topics": [
            "0xaf6cb2e6187986f98607346b0da39860f8bcc4e2e024c1926efa779809b07adb",
            "0x000000000000000000000000cad1a7864a108dbff67f4b8af71fab0c7a86d0b6"
          ],
          "data": "0x00000000000000000000000000000000000000000000001a292925973457459600000000000000000000000000000000000000000000000db0907be7bcbb508600000000000000000000000000000000000000000000000d8d84cc960f530a99",
          "blockHash": "0x500133c893dd515059ae3f4ae66e24acc58b9195688b7dffbf690b86bf6d4a14",
          "blockNumber": "0x1813fb2",
          "blockTimestamp": "0x6a221b27",
          "transactionHash": "0x696dbce33219d74b5900f7c241fa0faa7ec1b0cc54a3f03a5aeac085788a74c8",
          "transactionIndex": "0x74",
          "logIndex": "0x1ea",
          "removed": false
        }
      ],
      "logsBloom": "0x00000000000000000020000000000000000080000004000040004000402000000000000000000000000000408000000000000000000000000000000000040000802000000000000200000008000000000000004000040000000000000000000000000000020000000000004000000800000001000000020008010010000000000000000000000000000000000000000002000002000000000010010000020000000000800080000000040000800000000000000000000000000000000000000000000002000000000000000000000000000000000000100000000000800060000001000040000000002000000000000000000000000100000000000000000000",
      "type": "0x2",
      "transactionHash": "0x696dbce33219d74b5900f7c241fa0faa7ec1b0cc54a3f03a5aeac085788a74c8",
      "transactionIndex": "0x74",
      "blockHash": "0x500133c893dd515059ae3f4ae66e24acc58b9195688b7dffbf690b86bf6d4a14",
      "blockNumber": "0x1813fb2",
      "gasUsed": "0x2bad5",
      "effectiveGasPrice": "0x116e3d81",
      "from": "0xcad1a7864a108dbff67f4b8af71fab0c7a86d0b6",
      "to": "0x7f74388bc970de5e2822036a1ad06fccd156786b",
      "contractAddress": null
    }
  ],
  "libraries": [],
  "pending": [],
  "returns": {},
  "timestamp": 1780620074319,
  "chain": 1,
  "commit": "a330664"
}