{
  "transactions": [
    {
      "hash": "0x5b7ba34665716ff142e8435915c2ae90764f6eb86d2f0c6e2fc8c3bef753b67e",
      "transactionType": "CALL",
      "contractName": null,
      "contractAddress": "0x7f74388bc970de5e2822036a1ad06fccd156786b",
      "function": "pool(uint256)",
      "arguments": [
        "265464232614424730871"
      ],
      "transaction": {
        "from": "0xcad1a7864a108dbff67f4b8af71fab0c7a86d0b6",
        "to": "0x7f74388bc970de5e2822036a1ad06fccd156786b",
        "value": "0x0",
        "input": "0xfe31311200000000000000000000000000000000000000000000000e640e6912b273dcf7",
        "nonce": "0x282",
        "chainId": "0x1"
      },
      "additionalContracts": [],
      "isFixedGasLimit": false
    }
  ],
  "receipts": [
    {
      "status": "0x1",
      "cumulativeGasUsed": "0x15fe2cd",
      "logs": [
        {
          "address": "0xa3931d71877c0e7a3148cb7eb4463524fec27fbd",
          "topics": [
            "0xddf252ad1be2c89b69c2b068fc378daa952ba7f163c4a11628f55a4df523b3ef",
            "0x0000000000000000000000007f74388bc970de5e2822036a1ad06fccd156786b",
            "0x000000000000000000000000ba1333333333a1ba1108e8412f11850a5c319ba9"
          ],
          "data": "0x00000000000000000000000000000000000000000000001a5eb18bfc399cde49",
          "blockHash": "0x1e7151cc58d693e20eb2df1d09fa640ce6957b3cd657a6f6ff649303b39bb77e",
          "blockNumber": "0x18147d4",
          "blockTimestamp": "0x6a227d4f",
          "transactionHash": "0x5b7ba34665716ff142e8435915c2ae90764f6eb86d2f0c6e2fc8c3bef753b67e",
          "transactionIndex": "0xd9",
          "logIndex": "0x219",
          "removed": false
        },
        {
          "address": "0xba1333333333a1ba1108e8412f11850a5c319ba9",
          "topics": [
            "0xd1398bee19313d6bf672ccb116e51f4a1a947e91c757907f51fbb5b5e56c698f",
            "0x000000000000000000000000642bb6860b4776cc10b26b8f361fd139e7f0db04",
            "0x0000000000000000000000000000000000000000000000000000000000000000",
            "0x0000000000000000000000007f74388bc970de5e2822036a1ad06fccd156786b"
          ],
          "data": "0x00000000000000000000000000000000000000000000000e8944dbe9831fb33d",
          "blockHash": "0x1e7151cc58d693e20eb2df1d09fa640ce6957b3cd657a6f6ff649303b39bb77e",
          "blockNumber": "0x18147d4",
          "blockTimestamp": "0x6a227d4f",
          "transactionHash": "0x5b7ba34665716ff142e8435915c2ae90764f6eb86d2f0c6e2fc8c3bef753b67e",
          "transactionIndex": "0xd9",
          "logIndex": "0x21a",
          "removed": false
        },
        {
          "address": "0x642bb6860b4776cc10b26b8f361fd139e7f0db04",
          "topics": [
            "0xddf252ad1be2c89b69c2b068fc378daa952ba7f163c4a11628f55a4df523b3ef",
            "0x0000000000000000000000000000000000000000000000000000000000000000",
            "0x0000000000000000000000007f74388bc970de5e2822036a1ad06fccd156786b"
          ],
          "data": "0x00000000000000000000000000000000000000000000000e8944dbe9831fb33d",
          "blockHash": "0x1e7151cc58d693e20eb2df1d09fa640ce6957b3cd657a6f6ff649303b39bb77e",
          "blockNumber": "0x18147d4",
          "blockTimestamp": "0x6a227d4f",
          "transactionHash": "0x5b7ba34665716ff142e8435915c2ae90764f6eb86d2f0c6e2fc8c3bef753b67e",
          "transactionIndex": "0xd9",
          "logIndex": "0x21b",
          "removed": false
        },
        {
          "address": "0xba1333333333a1ba1108e8412f11850a5c319ba9",
          "topics": [
            "0xa26a52d8d53702bba7f137907b8e1f99ff87f6d450144270ca25e72481cca871",
            "0x000000000000000000000000642bb6860b4776cc10b26b8f361fd139e7f0db04",
            "0x0000000000000000000000007f74388bc970de5e2822036a1ad06fccd156786b",
            "0x0000000000000000000000000000000000000000000000000000000000000001"
          ],
          "data": "0x00000000000000000000000000000000000000000000041a531c52f7d78da4d3000000000000000000000000000000000000000000000000000000000000006000000000000000000000000000000000000000000000000000000000000000c0000000000000000000000000000000000000000000000000000000000000000200000000000000000000000000000000000000000000001a5eb18bfc399cde49000000000000000000000000000000000000000000000000000000000000000000000000000000000000000000000000000000000000000000000000000000020000000000000000000000000000000000000000000000000a325b3c6ab1d6450000000000000000000000000000000000000000000000000000000000000000",
          "blockHash": "0x1e7151cc58d693e20eb2df1d09fa640ce6957b3cd657a6f6ff649303b39bb77e",
          "blockNumber": "0x18147d4",
          "blockTimestamp": "0x6a227d4f",
          "transactionHash": "0x5b7ba34665716ff142e8435915c2ae90764f6eb86d2f0c6e2fc8c3bef753b67e",
          "transactionIndex": "0xd9",
          "logIndex": "0x21c",
          "removed": false
        },
        {
          "address": "0x7f74388bc970de5e2822036a1ad06fccd156786b",
          "topics": [
            "0xaf6cb2e6187986f98607346b0da39860f8bcc4e2e024c1926efa779809b07adb",
            "0x000000000000000000000000cad1a7864a108dbff67f4b8af71fab0c7a86d0b6"
          ],
          "data": "0x00000000000000000000000000000000000000000000001a5eb18bfc399cde4900000000000000000000000000000000000000000000000e8944dbe9831fb33d00000000000000000000000000000000000000000000000e640e6912b273dcf7",
          "blockHash": "0x1e7151cc58d693e20eb2df1d09fa640ce6957b3cd657a6f6ff649303b39bb77e",
          "blockNumber": "0x18147d4",
          "blockTimestamp": "0x6a227d4f",
          "transactionHash": "0x5b7ba34665716ff142e8435915c2ae90764f6eb86d2f0c6e2fc8c3bef753b67e",
          "transactionIndex": "0xd9",
          "logIndex": "0x21d",
          "removed": false
        }
      ],
      "logsBloom": "0x00000000000000000020000000000000000080000004000040004000402000000000000000000000000000408000000000000000000000000000000000040000802000000000000200000008000000000000004000040000000000000000000000000000020000000000004000000800000001000000020008010010000000000000000000000000000000000000000002000002000000000010010000020000000000800080000000040000800000000000000000000000000000000000000000000002000000000000000000000000000000000000100000000000800060000001000040000000002000000000000000000000000100000000000000000000",
      "type": "0x2",
      "transactionHash": "0x5b7ba34665716ff142e8435915c2ae90764f6eb86d2f0c6e2fc8c3bef753b67e",
      "transactionIndex": "0xd9",
      "blockHash": "0x1e7151cc58d693e20eb2df1d09fa640ce6957b3cd657a6f6ff649303b39bb77e",
      "blockNumber": "0x18147d4",
      "gasUsed": "0x2bb53",
      "effectiveGasPrice": "0x66d21e8e",
      "from": "0xcad1a7864a108dbff67f4b8af71fab0c7a86d0b6",
      "to": "0x7f74388bc970de5e2822036a1ad06fccd156786b",
      "contractAddress": null
    }
  ],
  "libraries": [],
  "pending": [],
  "returns": {},
  "timestamp": 1780645201338,
  "chain": 1,
  "commit": "1eb72c5"
}