{
  "transactions": [
    {
      "hash": "0xc251792151863c579caa6f99667a2c3dd1e624f46d6577a545a6fe5465c2c0cc",
      "transactionType": "CALL",
      "contractName": null,
      "contractAddress": "0x7f74388bc970de5e2822036a1ad06fccd156786b",
      "function": "pool(uint256)",
      "arguments": [
        "226080524967059388353"
      ],
      "transaction": {
        "from": "0xcad1a7864a108dbff67f4b8af71fab0c7a86d0b6",
        "to": "0x7f74388bc970de5e2822036a1ad06fccd156786b",
        "value": "0x0",
        "input": "0xfe31311200000000000000000000000000000000000000000000000c417f5fa1af67f7c1",
        "nonce": "0x252",
        "chainId": "0x1"
      },
      "additionalContracts": [],
      "isFixedGasLimit": false
    }
  ],
  "receipts": [
    {
      "status": "0x1",
      "cumulativeGasUsed": "0x12f754c",
      "logs": [
        {
          "address": "0xa3931d71877c0e7a3148cb7eb4463524fec27fbd",
          "topics": [
            "0xddf252ad1be2c89b69c2b068fc378daa952ba7f163c4a11628f55a4df523b3ef",
            "0x0000000000000000000000007f74388bc970de5e2822036a1ad06fccd156786b",
            "0x000000000000000000000000ba1333333333a1ba1108e8412f11850a5c319ba9"
          ],
          "data": "0x000000000000000000000000000000000000000000000016fcd25651cb81d2ad",
          "blockHash": "0xc8deb4f67680aa4ec6ea519fbaaa571fcd0cbc2d6f30046667bd2b08e815973d",
          "blockNumber": "0x1812dde",
          "blockTimestamp": "0x6a2143cf",
          "transactionHash": "0xc251792151863c579caa6f99667a2c3dd1e624f46d6577a545a6fe5465c2c0cc",
          "transactionIndex": "0x9c",
          "logIndex": "0x218",
          "removed": false
        },
        {
          "address": "0xba1333333333a1ba1108e8412f11850a5c319ba9",
          "topics": [
            "0xd1398bee19313d6bf672ccb116e51f4a1a947e91c757907f51fbb5b5e56c698f",
            "0x000000000000000000000000642bb6860b4776cc10b26b8f361fd139e7f0db04",
            "0x0000000000000000000000000000000000000000000000000000000000000000",
            "0x0000000000000000000000007f74388bc970de5e2822036a1ad06fccd156786b"
          ],
          "data": "0x00000000000000000000000000000000000000000000000c61307fa0bb857661",
          "blockHash": "0xc8deb4f67680aa4ec6ea519fbaaa571fcd0cbc2d6f30046667bd2b08e815973d",
          "blockNumber": "0x1812dde",
          "blockTimestamp": "0x6a2143cf",
          "transactionHash": "0xc251792151863c579caa6f99667a2c3dd1e624f46d6577a545a6fe5465c2c0cc",
          "transactionIndex": "0x9c",
          "logIndex": "0x219",
          "removed": false
        },
        {
          "address": "0x642bb6860b4776cc10b26b8f361fd139e7f0db04",
          "topics": [
            "0xddf252ad1be2c89b69c2b068fc378daa952ba7f163c4a11628f55a4df523b3ef",
            "0x0000000000000000000000000000000000000000000000000000000000000000",
            "0x0000000000000000000000007f74388bc970de5e2822036a1ad06fccd156786b"
          ],
          "data": "0x00000000000000000000000000000000000000000000000c61307fa0bb857661",
          "blockHash": "0xc8deb4f67680aa4ec6ea519fbaaa571fcd0cbc2d6f30046667bd2b08e815973d",
          "blockNumber": "0x1812dde",
          "blockTimestamp": "0x6a2143cf",
          "transactionHash": "0xc251792151863c579caa6f99667a2c3dd1e624f46d6577a545a6fe5465c2c0cc",
          "transactionIndex": "0x9c",
          "logIndex": "0x21a",
          "removed": false
        },
        {
          "address": "0xba1333333333a1ba1108e8412f11850a5c319ba9",
          "topics": [
            "0xa26a52d8d53702bba7f137907b8e1f99ff87f6d450144270ca25e72481cca871",
            "0x000000000000000000000000642bb6860b4776cc10b26b8f361fd139e7f0db04",
            "0x0000000000000000000000007f74388bc970de5e2822036a1ad06fccd156786b",
            "0x0000000000000000000000000000000000000000000000000000000000000001"
          ],
          "data": "0x0000000000000000000000000000000000000000000003ac33320a0ef0d1b241000000000000000000000000000000000000000000000000000000000000006000000000000000000000000000000000000000000000000000000000000000c00000000000000000000000000000000000000000000000000000000000000002000000000000000000000000000000000000000000000016fcd25651cb81d2ad0000000000000000000000000000000000000000000000000000000000000000000000000000000000000000000000000000000000000000000000000000000200000000000000000000000000000000000000000000000008e2c50aa05ffcd10000000000000000000000000000000000000000000000000000000000000000",
          "blockHash": "0xc8deb4f67680aa4ec6ea519fbaaa571fcd0cbc2d6f30046667bd2b08e815973d",
          "blockNumber": "0x1812dde",
          "blockTimestamp": "0x6a2143cf",
          "transactionHash": "0xc251792151863c579caa6f99667a2c3dd1e624f46d6577a545a6fe5465c2c0cc",
          "transactionIndex": "0x9c",
          "logIndex": "0x21b",
          "removed": false
        },
        {
          "address": "0x7f74388bc970de5e2822036a1ad06fccd156786b",
          "topics": [
            "0xaf6cb2e6187986f98607346b0da39860f8bcc4e2e024c1926efa779809b07adb",
            "0x000000000000000000000000cad1a7864a108dbff67f4b8af71fab0c7a86d0b6"
          ],
          "data": "0x000000000000000000000000000000000000000000000016fcd25651cb81d2ad00000000000000000000000000000000000000000000000c61307fa0bb85766100000000000000000000000000000000000000000000000c417f5fa1af67f7c1",
          "blockHash": "0xc8deb4f67680aa4ec6ea519fbaaa571fcd0cbc2d6f30046667bd2b08e815973d",
          "blockNumber": "0x1812dde",
          "blockTimestamp": "0x6a2143cf",
          "transactionHash": "0xc251792151863c579caa6f99667a2c3dd1e624f46d6577a545a6fe5465c2c0cc",
          "transactionIndex": "0x9c",
          "logIndex": "0x21c",
          "removed": false
        }
      ],
      "logsBloom": "0x00000000000000000020000000000000000080000004000040004000402000000000000000000000000000408000000000000000000000000000000000040000802000000000000200000008000000000000004000040000000000000000000000000000020000000000004000000800000001000000020008010010000000000000000000000000000000000000000002000002000000000010010000020000000000800080000000040000800000000000000000000000000000000000000000000002000000000000000000000000000000000000100000000000800060000001000040000000002000000000000000000000000100000000000000000000",
      "type": "0x2",
      "transactionHash": "0xc251792151863c579caa6f99667a2c3dd1e624f46d6577a545a6fe5465c2c0cc",
      "transactionIndex": "0x9c",
      "blockHash": "0xc8deb4f67680aa4ec6ea519fbaaa571fcd0cbc2d6f30046667bd2b08e815973d",
      "blockNumber": "0x1812dde",
      "gasUsed": "0x2bb29",
      "effectiveGasPrice": "0x1caeb05b",
      "from": "0xcad1a7864a108dbff67f4b8af71fab0c7a86d0b6",
      "to": "0x7f74388bc970de5e2822036a1ad06fccd156786b",
      "contractAddress": null
    }
  ],
  "libraries": [],
  "pending": [],
  "returns": {},
  "timestamp": 1780564944216,
  "chain": 1,
  "commit": "a330664"
}