{
  "transactions": [
    {
      "hash": "0x3e4463d13b1dc34e4721daebfc978e20614d6b99341d6981ecf1d9a10e256863",
      "transactionType": "CALL",
      "contractName": null,
      "contractAddress": "0x7f74388bc970de5e2822036a1ad06fccd156786b",
      "function": "pool(uint256)",
      "arguments": [
        "353981260069587554426"
      ],
      "transaction": {
        "from": "0xcad1a7864a108dbff67f4b8af71fab0c7a86d0b6",
        "to": "0x7f74388bc970de5e2822036a1ad06fccd156786b",
        "value": "0x0",
        "input": "0xfe313112000000000000000000000000000000000000000000000013307a108f68ee907a",
        "nonce": "0x28d",
        "chainId": "0x1"
      },
      "additionalContracts": [],
      "isFixedGasLimit": false
    }
  ],
  "receipts": [
    {
      "status": "0x1",
      "cumulativeGasUsed": "0x246f93f",
      "logs": [
        {
          "address": "0xa3931d71877c0e7a3148cb7eb4463524fec27fbd",
          "topics": [
            "0xddf252ad1be2c89b69c2b068fc378daa952ba7f163c4a11628f55a4df523b3ef",
            "0x0000000000000000000000007f74388bc970de5e2822036a1ad06fccd156786b",
            "0x000000000000000000000000ba1333333333a1ba1108e8412f11850a5c319ba9"
          ],
          "data": "0x0000000000000000000000000000000000000000000000213d66100050ac99ed",
          "blockHash": "0x50a0961fec51bf5af21459e5804af91045968d04f69e16122a87a7057a39f773",
          "blockNumber": "0x1816b67",
          "blockTimestamp": "0x6a242a43",
          "transactionHash": "0x3e4463d13b1dc34e4721daebfc978e20614d6b99341d6981ecf1d9a10e256863",
          "transactionIndex": "0x11d",
          "logIndex": "0x4d6",
          "removed": false
        },
        {
          "address": "0xba1333333333a1ba1108e8412f11850a5c319ba9",
          "topics": [
            "0xd1398bee19313d6bf672ccb116e51f4a1a947e91c757907f51fbb5b5e56c698f",
            "0x000000000000000000000000642bb6860b4776cc10b26b8f361fd139e7f0db04",
            "0x0000000000000000000000000000000000000000000000000000000000000000",
            "0x0000000000000000000000007f74388bc970de5e2822036a1ad06fccd156786b"
          ],
          "data": "0x000000000000000000000000000000000000000000000013621908f84af62555",
          "blockHash": "0x50a0961fec51bf5af21459e5804af91045968d04f69e16122a87a7057a39f773",
          "blockNumber": "0x1816b67",
          "blockTimestamp": "0x6a242a43",
          "transactionHash": "0x3e4463d13b1dc34e4721daebfc978e20614d6b99341d6981ecf1d9a10e256863",
          "transactionIndex": "0x11d",
          "logIndex": "0x4d7",
          "removed": false
        },
        {
          "address": "0x642bb6860b4776cc10b26b8f361fd139e7f0db04",
          "topics": [
            "0xddf252ad1be2c89b69c2b068fc378daa952ba7f163c4a11628f55a4df523b3ef",
            "0x0000000000000000000000000000000000000000000000000000000000000000",
            "0x0000000000000000000000007f74388bc970de5e2822036a1ad06fccd156786b"
          ],
          "data": "0x000000000000000000000000000000000000000000000013621908f84af62555",
          "blockHash": "0x50a0961fec51bf5af21459e5804af91045968d04f69e16122a87a7057a39f773",
          "blockNumber": "0x1816b67",
          "blockTimestamp": "0x6a242a43",
          "transactionHash": "0x3e4463d13b1dc34e4721daebfc978e20614d6b99341d6981ecf1d9a10e256863",
          "transactionIndex": "0x11d",
          "logIndex": "0x4d8",
          "removed": false
        },
        {
          "address": "0xba1333333333a1ba1108e8412f11850a5c319ba9",
          "topics": [
            "0xa26a52d8d53702bba7f137907b8e1f99ff87f6d450144270ca25e72481cca871",
            "0x000000000000000000000000642bb6860b4776cc10b26b8f361fd139e7f0db04",
            "0x0000000000000000000000007f74388bc970de5e2822036a1ad06fccd156786b",
            "0x0000000000000000000000000000000000000000000000000000000000000001"
          ],
          "data": "0x00000000000000000000000000000000000000000000043d9cc0b3a476b71620000000000000000000000000000000000000000000000000000000000000006000000000000000000000000000000000000000000000000000000000000000c000000000000000000000000000000000000000000000000000000000000000020000000000000000000000000000000000000000000000213d66100050ac99ed000000000000000000000000000000000000000000000000000000000000000000000000000000000000000000000000000000000000000000000000000000020000000000000000000000000000000000000000000000000ce1162daba7eae60000000000000000000000000000000000000000000000000000000000000000",
          "blockHash": "0x50a0961fec51bf5af21459e5804af91045968d04f69e16122a87a7057a39f773",
          "blockNumber": "0x1816b67",
          "blockTimestamp": "0x6a242a43",
          "transactionHash": "0x3e4463d13b1dc34e4721daebfc978e20614d6b99341d6981ecf1d9a10e256863",
          "transactionIndex": "0x11d",
          "logIndex": "0x4d9",
          "removed": false
        },
        {
          "address": "0x7f74388bc970de5e2822036a1ad06fccd156786b",
          "topics": [
            "0xaf6cb2e6187986f98607346b0da39860f8bcc4e2e024c1926efa779809b07adb",
            "0x000000000000000000000000cad1a7864a108dbff67f4b8af71fab0c7a86d0b6"
          ],
          "data": "0x0000000000000000000000000000000000000000000000213d66100050ac99ed000000000000000000000000000000000000000000000013621908f84af62555000000000000000000000000000000000000000000000013307a108f68ee907a",
          "blockHash": "0x50a0961fec51bf5af21459e5804af91045968d04f69e16122a87a7057a39f773",
          "blockNumber": "0x1816b67",
          "blockTimestamp": "0x6a242a43",
          "transactionHash": "0x3e4463d13b1dc34e4721daebfc978e20614d6b99341d6981ecf1d9a10e256863",
          "transactionIndex": "0x11d",
          "logIndex": "0x4da",
          "removed": false
        }
      ],
      "logsBloom": "0x00000000000000000020000000000000000080000004000040004000402000000000000000000000000000408000000000000000000000000000000000040000802000000000000200000008000000000000004000040000000000000000000000000000020000000000004000000800000001000000020008010010000000000000000000000000000000000000000002000002000000000010010000020000000000800080000000040000800000000000000000000000000000000000000000000002000000000000000000000000000000000000100000000000800060000001000040000000002000000000000000000000000100000000000000000000",
      "type": "0x2",
      "transactionHash": "0x3e4463d13b1dc34e4721daebfc978e20614d6b99341d6981ecf1d9a10e256863",
      "transactionIndex": "0x11d",
      "blockHash": "0x50a0961fec51bf5af21459e5804af91045968d04f69e16122a87a7057a39f773",
      "blockNumber": "0x1816b67",
      "gasUsed": "0x2b904",
      "effectiveGasPrice": "0x89ef02a",
      "from": "0xcad1a7864a108dbff67f4b8af71fab0c7a86d0b6",
      "to": "0x7f74388bc970de5e2822036a1ad06fccd156786b",
      "contractAddress": null
    }
  ],
  "libraries": [],
  "pending": [],
  "returns": {},
  "timestamp": 1780755014911,
  "chain": 1,
  "commit": "01f6d19"
}