{
  "transactions": [
    {
      "hash": "0x2798f3f8be445d06582a2187b1cdf935e110f13aa2089a4eb8f004eba9df3d9a",
      "transactionType": "CALL",
      "contractName": null,
      "contractAddress": "0x7f74388bc970de5e2822036a1ad06fccd156786b",
      "function": "pool(uint256)",
      "arguments": [
        "290451829914363928496"
      ],
      "transaction": {
        "from": "0xcad1a7864a108dbff67f4b8af71fab0c7a86d0b6",
        "to": "0x7f74388bc970de5e2822036a1ad06fccd156786b",
        "value": "0x0",
        "input": "0xfe31311200000000000000000000000000000000000000000000000fbed4306d67d69fb0",
        "nonce": "0x289",
        "chainId": "0x1"
      },
      "additionalContracts": [],
      "isFixedGasLimit": false
    }
  ],
  "receipts": [],
  "libraries": [],
  "pending": [
    "0x2798f3f8be445d06582a2187b1cdf935e110f13aa2089a4eb8f004eba9df3d9a"
  ],
  "returns": {},
  "timestamp": 1780723287645,
  "chain": 1,
  "commit": "e11dee2"
}