{
  "transactions": [
    {
      "hash": "0x623ebca672afcf2e9d3fc46e11df6501c6b601f14e3522d1f773f8eb82122b47",
      "transactionType": "CALL",
      "contractName": null,
      "contractAddress": "0x7f74388bc970de5e2822036a1ad06fccd156786b",
      "function": "pool(uint256)",
      "arguments": [
        "250058369877732564676"
      ],
      "transaction": {
        "from": "0xcad1a7864a108dbff67f4b8af71fab0c7a86d0b6",
        "to": "0x7f74388bc970de5e2822036a1ad06fccd156786b",
        "value": "0x0",
        "input": "0xfe31311200000000000000000000000000000000000000000000000d8e41ca89ab7d1ec4",
        "nonce": "0x25c",
        "chainId": "0x1"
      },
      "additionalContracts": [],
      "isFixedGasLimit": false
    }
  ],
  "receipts": [
    {
      "status": "0x1",
      "cumulativeGasUsed": "0x1f9170f",
      "logs": [
        {
          "address": "0xa3931d71877c0e7a3148cb7eb4463524fec27fbd",
          "topics": [
            "0xddf252ad1be2c89b69c2b068fc378daa952ba7f163c4a11628f55a4df523b3ef",
            "0x0000000000000000000000007f74388bc970de5e2822036a1ad06fccd156786b",
            "0x000000000000000000000000ba1333333333a1ba1108e8412f11850a5c319ba9"
          ],
          "data": "0x000000000000000000000000000000000000000000000019a4d96375183f25d1",
          "blockHash": "0x9db74d0aeda96620d0322386b3d4001ea418bad5f44dc9cbf60abb2c2dc0d89c",
          "blockNumber": "0x1812f8c",
          "blockTimestamp": "0x6a215833",
          "transactionHash": "0x623ebca672afcf2e9d3fc46e11df6501c6b601f14e3522d1f773f8eb82122b47",
          "transactionIndex": "0xa5",
          "logIndex": "0x348",
          "removed": false
        },
        {
          "address": "0xba1333333333a1ba1108e8412f11850a5c319ba9",
          "topics": [
            "0xd1398bee19313d6bf672ccb116e51f4a1a947e91c757907f51fbb5b5e56c698f",
            "0x000000000000000000000000642bb6860b4776cc10b26b8f361fd139e7f0db04",
            "0x0000000000000000000000000000000000000000000000000000000000000000",
            "0x0000000000000000000000007f74388bc970de5e2822036a1ad06fccd156786b"
          ],
          "data": "0x00000000000000000000000000000000000000000000000db14f62903b717469",
          "blockHash": "0x9db74d0aeda96620d0322386b3d4001ea418bad5f44dc9cbf60abb2c2dc0d89c",
          "blockNumber": "0x1812f8c",
          "blockTimestamp": "0x6a215833",
          "transactionHash": "0x623ebca672afcf2e9d3fc46e11df6501c6b601f14e3522d1f773f8eb82122b47",
          "transactionIndex": "0xa5",
          "logIndex": "0x349",
          "removed": false
        },
        {
          "address": "0x642bb6860b4776cc10b26b8f361fd139e7f0db04",
          "topics": [
            "0xddf252ad1be2c89b69c2b068fc378daa952ba7f163c4a11628f55a4df523b3ef",
            "0x0000000000000000000000000000000000000000000000000000000000000000",
            "0x0000000000000000000000007f74388bc970de5e2822036a1ad06fccd156786b"
          ],
          "data": "0x00000000000000000000000000000000000000000000000db14f62903b717469",
          "blockHash": "0x9db74d0aeda96620d0322386b3d4001ea418bad5f44dc9cbf60abb2c2dc0d89c",
          "blockNumber": "0x1812f8c",
          "blockTimestamp": "0x6a215833",
          "transactionHash": "0x623ebca672afcf2e9d3fc46e11df6501c6b601f14e3522d1f773f8eb82122b47",
          "transactionIndex": "0xa5",
          "logIndex": "0x34a",
          "removed": false
        },
        {
          "address": "0xba1333333333a1ba1108e8412f11850a5c319ba9",
          "topics": [
            "0xa26a52d8d53702bba7f137907b8e1f99ff87f6d450144270ca25e72481cca871",
            "0x000000000000000000000000642bb6860b4776cc10b26b8f361fd139e7f0db04",
            "0x0000000000000000000000007f74388bc970de5e2822036a1ad06fccd156786b",
            "0x0000000000000000000000000000000000000000000000000000000000000001"
          ],
          "data": "0x0000000000000000000000000000000000000000000003b9e4816c9f2c4326aa000000000000000000000000000000000000000000000000000000000000006000000000000000000000000000000000000000000000000000000000000000c00000000000000000000000000000000000000000000000000000000000000002000000000000000000000000000000000000000000000019a4d96375183f25d10000000000000000000000000000000000000000000000000000000000000000000000000000000000000000000000000000000000000000000000000000000200000000000000000000000000000000000000000000000009eb273569dca72b0000000000000000000000000000000000000000000000000000000000000000",
          "blockHash": "0x9db74d0aeda96620d0322386b3d4001ea418bad5f44dc9cbf60abb2c2dc0d89c",
          "blockNumber": "0x1812f8c",
          "blockTimestamp": "0x6a215833",
          "transactionHash": "0x623ebca672afcf2e9d3fc46e11df6501c6b601f14e3522d1f773f8eb82122b47",
          "transactionIndex": "0xa5",
          "logIndex": "0x34b",
          "removed": false
        },
        {
          "address": "0x7f74388bc970de5e2822036a1ad06fccd156786b",
          "topics": [
            "0xaf6cb2e6187986f98607346b0da39860f8bcc4e2e024c1926efa779809b07adb",
            "0x000000000000000000000000cad1a7864a108dbff67f4b8af71fab0c7a86d0b6"
          ],
          "data": "0x000000000000000000000000000000000000000000000019a4d96375183f25d100000000000000000000000000000000000000000000000db14f62903b71746900000000000000000000000000000000000000000000000d8e41ca89ab7d1ec4",
          "blockHash": "0x9db74d0aeda96620d0322386b3d4001ea418bad5f44dc9cbf60abb2c2dc0d89c",
          "blockNumber": "0x1812f8c",
          "blockTimestamp": "0x6a215833",
          "transactionHash": "0x623ebca672afcf2e9d3fc46e11df6501c6b601f14e3522d1f773f8eb82122b47",
          "transactionIndex": "0xa5",
          "logIndex": "0x34c",
          "removed": false
        }
      ],
      "logsBloom": "0x00000000000000000020000000000000000080000004000040004000402000000000000000000000000000408000000000000000000000000000000000040000802000000000000200000008000000000000004000040000000000000000000000000000020000000000004000000800000001000000020008010010000000000000000000000000000000000000000002000002000000000010010000020000000000800080000000040000800000000000000000000000000000000000000000000002000000000000000000000000000000000000100000000000800060000001000040000000002000000000000000000000000100000000000000000000",
      "type": "0x2",
      "transactionHash": "0x623ebca672afcf2e9d3fc46e11df6501c6b601f14e3522d1f773f8eb82122b47",
      "transactionIndex": "0xa5",
      "blockHash": "0x9db74d0aeda96620d0322386b3d4001ea418bad5f44dc9cbf60abb2c2dc0d89c",
      "blockNumber": "0x1812f8c",
      "gasUsed": "0x2bb29",
      "effectiveGasPrice": "0x2656c5fe",
      "from": "0xcad1a7864a108dbff67f4b8af71fab0c7a86d0b6",
      "to": "0x7f74388bc970de5e2822036a1ad06fccd156786b",
      "contractAddress": null
    }
  ],
  "libraries": [],
  "pending": [],
  "returns": {},
  "timestamp": 1780570165829,
  "chain": 1,
  "commit": "a330664"
}