{
  "transactions": [
    {
      "hash": "0x71970de13b4cf7d6b427326258da1c0b219a4496289dbbe15bf737f0b164bbf4",
      "transactionType": "CALL",
      "contractName": null,
      "contractAddress": "0xfc88ce7ca2f4d2a78b2f96f6d1c34691960a9027",
      "function": "setDiscountRate(uint256)",
      "arguments": [
        "1000"
      ],
      "transaction": {
        "from": "0xcad1a7864a108dbff67f4b8af71fab0c7a86d0b6",
        "to": "0xfc88ce7ca2f4d2a78b2f96f6d1c34691960a9027",
        "gas": "0xa4ca",
        "value": "0x0",
        "input": "0x7c69febd00000000000000000000000000000000000000000000000000000000000003e8",
        "nonce": "0x44",
        "chainId": "0x1"
      },
      "additionalContracts": [],
      "isFixedGasLimit": false
    },
    {
      "hash": "0xc1203f5eca3fd4cd77fd17e00005108abc9dc8b9e35b6fe932b50f7da3f3f56e",
      "transactionType": "CALL",
      "contractName": null,
      "contractAddress": "0x3984ebc84d45a889ddac595d13dc0ac2e54819f4",
      "function": "setDepletionDuration(uint256)",
      "arguments": [
        "604800"
      ],
      "transaction": {
        "from": "0xcad1a7864a108dbff67f4b8af71fab0c7a86d0b6",
        "to": "0x3984ebc84d45a889ddac595d13dc0ac2e54819f4",
        "gas": "0x15aad",
        "value": "0x0",
        "input": "0xfaa285760000000000000000000000000000000000000000000000000000000000093a80",
        "nonce": "0x45",
        "chainId": "0x1"
      },
      "additionalContracts": [],
      "isFixedGasLimit": false
    }
  ],
  "receipts": [
    {
      "status": "0x1",
      "cumulativeGasUsed": "0x25c00a0",
      "logs": [
        {
          "address": "0xfc88ce7ca2f4d2a78b2f96f6d1c34691960a9027",
          "topics": [
            "0xbde6b2554a797ee1ab75b4f90ad50200dcd2a80165488896faacd30a0a013174"
          ],
          "data": "0x00000000000000000000000000000000000000000000000000000000000000c800000000000000000000000000000000000000000000000000000000000003e8",
          "blockHash": "0xe28bece1635ee9408526c6848dbf13377281ffe175bd14f48aafde0552a278d9",
          "blockNumber": "0x1749942",
          "blockTimestamp": "0x6989b787",
          "transactionHash": "0x71970de13b4cf7d6b427326258da1c0b219a4496289dbbe15bf737f0b164bbf4",
          "transactionIndex": "0xff",
          "logIndex": "0x49d",
          "removed": false
        }
      ],
      "logsBloom": "0x00000000000000000000000000000000000000000000000000000000400000000000000000000000000000000000000000004000000000000000000000000000000000000000000000000000000000000000000000000000000000000000000000000000000000000000100000000000000000000000000000000000000000000000000000000000000000000000000000000000000000000000000000000000000000000000000000000000000000000000000000000000000000008000000000000000000000000000000000000000400000000000000000010000000000000000000000000000000000000000000000000000000000000000000000000000",
      "type": "0x2",
      "transactionHash": "0x71970de13b4cf7d6b427326258da1c0b219a4496289dbbe15bf737f0b164bbf4",
      "transactionIndex": "0xff",
      "blockHash": "0xe28bece1635ee9408526c6848dbf13377281ffe175bd14f48aafde0552a278d9",
      "blockNumber": "0x1749942",
      "gasUsed": "0x774f",
      "effectiveGasPrice": "0x5eb59a5",
      "from": "0xcad1a7864a108dbff67f4b8af71fab0c7a86d0b6",
      "to": "0xfc88ce7ca2f4d2a78b2f96f6d1c34691960a9027",
      "contractAddress": null
    },
    {
      "status": "0x1",
      "cumulativeGasUsed": "0x298b320",
      "logs": [
        {
          "address": "0x3984ebc84d45a889ddac595d13dc0ac2e54819f4",
          "topics": [
            "0xbd6629d3139b5595966cce9ee4270867a7a5ebaca81943509f0094021854a443"
          ],
          "data": "0x00000000000000000000000000000000000000000000000000000000002820720000000000000000000000000000000000000000000000000000000000093a80",
          "blockHash": "0xc7b111c68bff123732eea1a812dda8a4f30847dc45d21794699788774f791564",
          "blockNumber": "0x1749943",
          "blockTimestamp": "0x6989b793",
          "transactionHash": "0xc1203f5eca3fd4cd77fd17e00005108abc9dc8b9e35b6fe932b50f7da3f3f56e",
          "transactionIndex": "0x102",
          "logIndex": "0x577",
          "removed": false
        }
      ],
      "logsBloom": "0x00000000000000000000000000000000000000000000000000000000000000000000000000000000000000400000000000000000000000000000000000000000000000000000000000000000000000000000000000000000000000000000000000000000100000000000000010000000000000000000000000000000000000000008000000000000000000000000000000000000000000000000000000000000000000000000000000000000000000000000000000000000000000004080000000000000000000000000000000000000000000000000000000000000000000000000000000000000000000000000000000000000000000000000000000000000",
      "type": "0x2",
      "transactionHash": "0xc1203f5eca3fd4cd77fd17e00005108abc9dc8b9e35b6fe932b50f7da3f3f56e",
      "transactionIndex": "0x102",
      "blockHash": "0xc7b111c68bff123732eea1a812dda8a4f30847dc45d21794699788774f791564",
      "blockNumber": "0x1749943",
      "gasUsed": "0xfafe",
      "effectiveGasPrice": "0x636b442",
      "from": "0xcad1a7864a108dbff67f4b8af71fab0c7a86d0b6",
      "to": "0x3984ebc84d45a889ddac595d13dc0ac2e54819f4",
      "contractAddress": null
    }
  ],
  "libraries": [],
  "pending": [],
  "returns": {},
  "timestamp": 1770633107788,
  "chain": 1,
  "commit": "625ea5a"
}