{
  "transactions": [
    {
      "hash": "0xf9f2c06570d4916a3705c089499241cf90db9ffd94f40bf5feb1435b51e8c19d",
      "transactionType": "CREATE",
      "contractName": "BatchNFTMinter",
      "contractAddress": "0x6e9886afdf07dd67dc70b8335e4e9df14b445071",
      "function": null,
      "arguments": [
        "0xCad1a7864a108DBFF67F4b8af71fAB0C7A86D0B6"
      ],
      "transaction": {
        "from": "0xcad1a7864a108dbff67f4b8af71fab0c7a86d0b6",
        "value": "0x0",
        "input": "0x60803460b857601f6113ff38819003918201601f19168301916001600160401b0383118484101760bc5780849260209460405283398101031260b857516001600160a01b0381169081900360b857801560a5575f80546001600160a01b031981168317825560405192916001600160a01b03909116907f8be0079c531659141344cd1fd0a4f28419497f9722a3daafe3b4186f6b6457e09080a361132e90816100d18239f35b631e4fbdf760e01b5f525f60045260245ffd5b5f80fd5b634e487b7160e01b5f52604160045260245ffdfe60806040526004361015610011575f80fd5b5f3560e01c8063047a6afd146107b95780632d88af4a146107195780633f4ba83a1461066057806357551456146106435780635c975abb1461061f578063715018a6146105a357806372ad53751461057057806378533e90146104e6578063805ea807146104a05780638456cb59146103fc5780638a6db74f146103df5780638da5cb5b146103ad5780639fd0506d1461037a578063b2118a8d146102b7578063cb1fd8c814610230578063cfb3647b146101fd578063f2fde38b1461012f5763f79dbe9e146100df575f80fd5b3461012b57602060031936011261012b577ff435fc90cf0d233d2031e34c7e0a6bcbd6c56f749449163e019be8da37a0f59e602060043561011e611151565b80600355604051908152a1005b5f80fd5b3461012b57602060031936011261012b5773ffffffffffffffffffffffffffffffffffffffff61015d610f11565b610165611151565b1680156101d15773ffffffffffffffffffffffffffffffffffffffff5f54827fffffffffffffffffffffffff00000000000000000000000000000000000000008216175f55167f8be0079c531659141344cd1fd0a4f28419497f9722a3daafe3b4186f6b6457e05f80a3005b7f1e4fbdf7000000000000000000000000000000000000000000000000000000005f525f60045260245ffd5b3461012b575f60031936011261012b57602073ffffffffffffffffffffffffffffffffffffffff60015416604051908152f35b3461012b57602060031936011261012b5773ffffffffffffffffffffffffffffffffffffffff61025e610f11565b610266611151565b16807fffffffffffffffffffffffff000000000000000000000000000000000000000060045416176004557f6c1669a9d4dde92eb8b509697810f4688f8e6a2fe69dc291ccfcf3a0f9c3a2ff5f80a2005b3461012b57606060031936011261012b5760043573ffffffffffffffffffffffffffffffffffffffff811680820361012b576102f1610eee565b604435926102fd611151565b73ffffffffffffffffffffffffffffffffffffffff821693841561035257610349817f3af790fafda720819b2fc6e15090606e81154e0ac9a92d38ecad006d99d20ecc94602094611090565b604051908152a3005b7ff398cbc6000000000000000000000000000000000000000000000000000000005f5260045ffd5b3461012b575f60031936011261012b57602073ffffffffffffffffffffffffffffffffffffffff60055416604051908152f35b3461012b575f60031936011261012b57602073ffffffffffffffffffffffffffffffffffffffff5f5416604051908152f35b3461012b575f60031936011261012b576020600254604051908152f35b3461012b575f60031936011261012b5761042f73ffffffffffffffffffffffffffffffffffffffff600554163314610fd0565b61043761105a565b740100000000000000000000000000000000000000007fffffffffffffffffffffff00ffffffffffffffffffffffffffffffffffffffff5f5416175f557f62e78cea01bee320cd4e420270b5ea74000d11b0c9f74754ebdbfc544b05a2586020604051338152a1005b3461012b57602060031936011261012b576004356104bc611151565b806002557fdce5de46b982ee4736044da409b40c339262fedb577d7e0e1f7ad95323b0d85f5f80a2005b3461012b57602060031936011261012b5760043573ffffffffffffffffffffffffffffffffffffffff811680910361012b57610520611151565b807fffffffffffffffffffffffff000000000000000000000000000000000000000060015416176001557f1370a2648b99fa68e1d4d7ccf25da63193ac3140c449433f448311c1a5d402365f80a2005b3461012b575f60031936011261012b57602073ffffffffffffffffffffffffffffffffffffffff60045416604051908152f35b3461012b575f60031936011261012b576105bb611151565b5f73ffffffffffffffffffffffffffffffffffffffff81547fffffffffffffffffffffffff000000000000000000000000000000000000000081168355167f8be0079c531659141344cd1fd0a4f28419497f9722a3daafe3b4186f6b6457e08280a3005b3461012b575f60031936011261012b57602060ff5f5460a01c166040519015158152f35b3461012b575f60031936011261012b576020600354604051908152f35b3461012b575f60031936011261012b5761069373ffffffffffffffffffffffffffffffffffffffff600554163314610fd0565b5f5460ff8160a01c16156106f1577fffffffffffffffffffffff00ffffffffffffffffffffffffffffffffffffffff165f557f5db9ee0a495bf2e6ff9c91a7834c1ba4fdd244a5e8aa4e537bd38aeae4b073aa6020604051338152a1005b7f8dfc202b000000000000000000000000000000000000000000000000000000005f5260045ffd5b3461012b57602060031936011261012b57610732610f11565b61073a611151565b7fffffffffffffffffffffffff000000000000000000000000000000000000000073ffffffffffffffffffffffffffffffffffffffff6005549216918273ffffffffffffffffffffffffffffffffffffffff82167f95bb211a5a393c4d30c3edc9a745825fba4e6ad3e3bb949e6bf8ccdfe431a8115f80a31617600555005b3461012b57608060031936011261012b576004356107d5610eee565b90604435916064356107e561105a565b8215610ec65773ffffffffffffffffffffffffffffffffffffffff8216908115610e9e5773ffffffffffffffffffffffffffffffffffffffff60015416928315610e7657600254918215610df3576040517e98fa22000000000000000000000000000000000000000000000000000000008152836004820152608081602481895afa8015610ad6575f90610e1b575b73ffffffffffffffffffffffffffffffffffffffff9150168015610df3576020600491604051928380927ffe5a451a0000000000000000000000000000000000000000000000000000000082525afa8015610ad6575f90610da6575b73ffffffffffffffffffffffffffffffffffffffff9150169573ffffffffffffffffffffffffffffffffffffffff600454169586151594858096610d9d575b610d75578960205f606481808e604051967f23b872dd00000000000000000000000000000000000000000000000000000000835233600452306024526044525af19060015f5114821615610d54575b6040525f60605215610d28576109957fffffffffffffffffffffffffffffffffffffffffffffffffffffffffffffffff838b61119d565b15610ce9575b5f5b838110610c5e5750506109b15f828a61119d565b15610be1575b50600354935f948015159283610bd6575b505081610bce575b50610b50575b808310610b20575081610ae1575b50505050604051907f70a08231000000000000000000000000000000000000000000000000000000008252306004830152602082602481845afa918215610ad6575f92610aa2575b50620f4240820415610a985781610a44913390611090565b80821115610a8e578103908111610a61576020905b604051908152f35b7f4e487b71000000000000000000000000000000000000000000000000000000005f52601160045260245ffd5b505060205f610a59565b5050602090610a59565b9091506020813d602011610ace575b81610abe60209383610f34565b8101031261012b57519083610a2c565b3d9150610ab1565b6040513d5f823e3d90fd5b81610b107fd14d2c791164ea474a06eb987fa9fb219324ccf890a9ab0322f2f98b55f1994a9360209387611090565b604051908152a3828080806109e4565b90507f5967fc64000000000000000000000000000000000000000000000000000000005f5260045260245260445ffd5b91506040517f70a08231000000000000000000000000000000000000000000000000000000008152306004820152602081602481885afa908115610ad6575f91610b9c575b50916109d6565b90506020813d602011610bc6575b81610bb760209383610f34565b8101031261012b575187610b95565b3d9150610baa565b9050886109d0565b1015915089806109c8565b610beb8189611211565b15610c32575f610bfb9189611296565b15610c0657886109b7565b867f5274afe7000000000000000000000000000000000000000000000000000000005f5260045260245ffd5b877f5274afe7000000000000000000000000000000000000000000000000000000005f5260045260245ffd5b604051907f94bf804d0000000000000000000000000000000000000000000000000000000082528260048301528860248301526020826044815f885af18015610ad657610cb0575b600191500161099d565b6020823d8211610ce1575b81610cc860209383610f34565b8101031261012b57610cdb600192610fc3565b50610ca6565b3d9150610cbb565b610cf3828a611211565b15610d2857610d237fffffffffffffffffffffffffffffffffffffffffffffffffffffffffffffffff838b611296565b61099b575b887f5274afe7000000000000000000000000000000000000000000000000000000005f5260045260245ffd5b906001811516610d6c578a3b15153d1516169061095e565b503d5f823e3d90fd5b7f235621ef000000000000000000000000000000000000000000000000000000005f5260045ffd5b5088881461090f565b506020813d602011610deb575b81610dc060209383610f34565b8101031261012b57610de673ffffffffffffffffffffffffffffffffffffffff91610fa2565b6108d0565b3d9150610db3565b7fc28911f1000000000000000000000000000000000000000000000000000000005f5260045ffd5b506080813d608011610e6e575b81610e3560809383610f34565b8101031261012b5780610e686060610e6173ffffffffffffffffffffffffffffffffffffffff94610fa2565b9201610fc3565b50610874565b3d9150610e28565b7f5ce494db000000000000000000000000000000000000000000000000000000005f5260045ffd5b7f485177f3000000000000000000000000000000000000000000000000000000005f5260045ffd5b7fc0140d03000000000000000000000000000000000000000000000000000000005f5260045ffd5b6024359073ffffffffffffffffffffffffffffffffffffffff8216820361012b57565b6004359073ffffffffffffffffffffffffffffffffffffffff8216820361012b57565b90601f7fffffffffffffffffffffffffffffffffffffffffffffffffffffffffffffffe0910116810190811067ffffffffffffffff821117610f7557604052565b7f4e487b71000000000000000000000000000000000000000000000000000000005f52604160045260245ffd5b519073ffffffffffffffffffffffffffffffffffffffff8216820361012b57565b5190811515820361012b57565b15610fd757565b60846040517f08c379a0000000000000000000000000000000000000000000000000000000008152602060048201526024808201527f42617463684e46544d696e7465723a2063616c6c6572206973206e6f7420706160448201527f75736572000000000000000000000000000000000000000000000000000000006064820152fd5b60ff5f5460a01c1661106857565b7fd93c0665000000000000000000000000000000000000000000000000000000005f5260045ffd5b9173ffffffffffffffffffffffffffffffffffffffff604051927fa9059cbb000000000000000000000000000000000000000000000000000000005f521660045260245260205f60448180865af19060015f5114821615611139575b604052156110f75750565b73ffffffffffffffffffffffffffffffffffffffff907f5274afe7000000000000000000000000000000000000000000000000000000005f521660045260245ffd5b906001811516610d6c57823b15153d151616906110ec565b73ffffffffffffffffffffffffffffffffffffffff5f5416330361117157565b7f118cdaa7000000000000000000000000000000000000000000000000000000005f523360045260245ffd5b929173ffffffffffffffffffffffffffffffffffffffff604051927f095ea7b3000000000000000000000000000000000000000000000000000000005f521660045260245260205f60448180875af19260015f5114841615611200575b50604052565b3d15903b151516909216915f6111fa565b919073ffffffffffffffffffffffffffffffffffffffff604051917f095ea7b3000000000000000000000000000000000000000000000000000000005f52166004525f60245260205f60448180875af19260015f51148416156112745750604052565b6001849294151661128d573b15153d151616915f6111fa565b833d5f823e3d90fd5b929173ffffffffffffffffffffffffffffffffffffffff604051927f095ea7b3000000000000000000000000000000000000000000000000000000005f521660045260245260205f60448180875af19260015f5114841615611274575060405256fea26469706673582212203e750858a2c3ac1ef0debe3d52967eaf9534f157cb4c9c76006dfa31109dc4e564736f6c634300081e0033000000000000000000000000cad1a7864a108dbff67f4b8af71fab0c7a86d0b6",
        "nonce": "0x219",
        "chainId": "0x1"
      },
      "additionalContracts": [],
      "isFixedGasLimit": false
    },
    {
      "hash": "0xb4ea84d1e0c55b4bb3268c4892427385631bfb029ee12949533ebf8d36ff3fae",
      "transactionType": "CALL",
      "contractName": "BatchNFTMinter",
      "contractAddress": "0x6e9886afdf07dd67dc70b8335e4e9df14b445071",
      "function": "setTokenMinter(address)",
      "arguments": [
        "0x39Af088408e815844c567037C157B31d48d2E10F"
      ],
      "transaction": {
        "from": "0xcad1a7864a108dbff67f4b8af71fab0c7a86d0b6",
        "to": "0x6e9886afdf07dd67dc70b8335e4e9df14b445071",
        "value": "0x0",
        "input": "0x78533e9000000000000000000000000039af088408e815844c567037c157b31d48d2e10f",
        "nonce": "0x21a",
        "chainId": "0x1"
      },
      "additionalContracts": [],
      "isFixedGasLimit": false
    },
    {
      "hash": "0xd7345f6ea49b2a5e46fb0fa3c8346694316d926d8047488e10ad5e38e22fb922",
      "transactionType": "CALL",
      "contractName": "BatchNFTMinter",
      "contractAddress": "0x6e9886afdf07dd67dc70b8335e4e9df14b445071",
      "function": "setDispatcherIndex(uint256)",
      "arguments": [
        "4"
      ],
      "transaction": {
        "from": "0xcad1a7864a108dbff67f4b8af71fab0c7a86d0b6",
        "to": "0x6e9886afdf07dd67dc70b8335e4e9df14b445071",
        "value": "0x0",
        "input": "0x805ea8070000000000000000000000000000000000000000000000000000000000000004",
        "nonce": "0x21b",
        "chainId": "0x1"
      },
      "additionalContracts": [],
      "isFixedGasLimit": false
    },
    {
      "hash": "0xe4762a2168cc09b5f5210bca259a4a9cae40c3e1fde87c5f8c320e6a9ee4c34d",
      "transactionType": "CALL",
      "contractName": "BatchNFTMinter",
      "contractAddress": "0x6e9886afdf07dd67dc70b8335e4e9df14b445071",
      "function": "setNudgePaymentToken(address)",
      "arguments": [
        "0xA0b86991c6218b36c1d19D4a2e9Eb0cE3606eB48"
      ],
      "transaction": {
        "from": "0xcad1a7864a108dbff67f4b8af71fab0c7a86d0b6",
        "to": "0x6e9886afdf07dd67dc70b8335e4e9df14b445071",
        "value": "0x0",
        "input": "0xcb1fd8c8000000000000000000000000a0b86991c6218b36c1d19d4a2e9eb0ce3606eb48",
        "nonce": "0x21c",
        "chainId": "0x1"
      },
      "additionalContracts": [],
      "isFixedGasLimit": false
    },
    {
      "hash": "0x99f175bd9e8b44954ceb82f1ae271f0ee45ed7f7b5128ac74cca15b5a01a84c9",
      "transactionType": "CALL",
      "contractName": "BatchNFTMinter",
      "contractAddress": "0x6e9886afdf07dd67dc70b8335e4e9df14b445071",
      "function": "setNudgeSize(uint256)",
      "arguments": [
        "40"
      ],
      "transaction": {
        "from": "0xcad1a7864a108dbff67f4b8af71fab0c7a86d0b6",
        "to": "0x6e9886afdf07dd67dc70b8335e4e9df14b445071",
        "value": "0x0",
        "input": "0xf79dbe9e0000000000000000000000000000000000000000000000000000000000000028",
        "nonce": "0x21d",
        "chainId": "0x1"
      },
      "additionalContracts": [],
      "isFixedGasLimit": false
    },
    {
      "hash": "0x3cff6ca640e2f71b056197bb560f8ae03e0002edcd3ce886c2fe2b734d772eea",
      "transactionType": "CALL",
      "contractName": null,
      "contractAddress": "0x3bbe928340c61a65cb6c4a87b3fb59b6f3f7606a",
      "function": "setNudgeAddress(address)",
      "arguments": [
        "0x6e9886AfDF07DD67dc70b8335E4e9DF14B445071"
      ],
      "transaction": {
        "from": "0xcad1a7864a108dbff67f4b8af71fab0c7a86d0b6",
        "to": "0x3bbe928340c61a65cb6c4a87b3fb59b6f3f7606a",
        "value": "0x0",
        "input": "0x2fbe68390000000000000000000000006e9886afdf07dd67dc70b8335e4e9df14b445071",
        "nonce": "0x21e",
        "chainId": "0x1"
      },
      "additionalContracts": [],
      "isFixedGasLimit": false
    },
    {
      "hash": "0x575c2bbccbc38e25febf54aa74338b96d8ce5132e6a1ef116dbff5022cca62ee",
      "transactionType": "CALL",
      "contractName": null,
      "contractAddress": "0x3bbe928340c61a65cb6c4a87b3fb59b6f3f7606a",
      "function": "setNudgeSplit(uint256)",
      "arguments": [
        "30"
      ],
      "transaction": {
        "from": "0xcad1a7864a108dbff67f4b8af71fab0c7a86d0b6",
        "to": "0x3bbe928340c61a65cb6c4a87b3fb59b6f3f7606a",
        "value": "0x0",
        "input": "0xfe3ffbac000000000000000000000000000000000000000000000000000000000000001e",
        "nonce": "0x21f",
        "chainId": "0x1"
      },
      "additionalContracts": [],
      "isFixedGasLimit": false
    },
    {
      "hash": "0x2e861a930c3a83bf8f7029da3fbb690af2a42b6b13e54f06fcae49b4fdb925a2",
      "transactionType": "CALL",
      "contractName": null,
      "contractAddress": "0x26f89f4b46eb164303985795ee20b15bb1edb38a",
      "function": "setBatchMinter(address)",
      "arguments": [
        "0x6e9886AfDF07DD67dc70b8335E4e9DF14B445071"
      ],
      "transaction": {
        "from": "0xcad1a7864a108dbff67f4b8af71fab0c7a86d0b6",
        "to": "0x26f89f4b46eb164303985795ee20b15bb1edb38a",
        "value": "0x0",
        "input": "0xb1db90440000000000000000000000006e9886afdf07dd67dc70b8335e4e9df14b445071",
        "nonce": "0x220",
        "chainId": "0x1"
      },
      "additionalContracts": [],
      "isFixedGasLimit": false
    },
    {
      "hash": "0x77342cdeeb7dae7b1aa387a54362963c8461f0eb6fc17557593be11d4e4f61df",
      "transactionType": "CALL",
      "contractName": null,
      "contractAddress": "0x26f89f4b46eb164303985795ee20b15bb1edb38a",
      "function": "withdrawBPT(address,uint256)",
      "arguments": [
        "0xCad1a7864a108DBFF67F4b8af71fAB0C7A86D0B6",
        "49879788061816226636"
      ],
      "transaction": {
        "from": "0xcad1a7864a108dbff67f4b8af71fab0c7a86d0b6",
        "to": "0x26f89f4b46eb164303985795ee20b15bb1edb38a",
        "value": "0x0",
        "input": "0xc580a540000000000000000000000000cad1a7864a108dbff67f4b8af71fab0c7a86d0b6000000000000000000000000000000000000000000000002b4389af7c053834c",
        "nonce": "0x221",
        "chainId": "0x1"
      },
      "additionalContracts": [],
      "isFixedGasLimit": false
    },
    {
      "hash": "0xcb29a6475684689f90a12dafab275a91ae85f79c50a4a959a8ee6033e1689fe3",
      "transactionType": "CALL",
      "contractName": null,
      "contractAddress": "0x642bb6860b4776cc10b26b8f361fd139e7f0db04",
      "function": "approve(address,uint256)",
      "arguments": [
        "0x5C6fb490BDFD3246EB0bB062c168DeCAF4bD9FDd",
        "49879788061816226636"
      ],
      "transaction": {
        "from": "0xcad1a7864a108dbff67f4b8af71fab0c7a86d0b6",
        "to": "0x642bb6860b4776cc10b26b8f361fd139e7f0db04",
        "value": "0x0",
        "input": "0x095ea7b30000000000000000000000005c6fb490bdfd3246eb0bb062c168decaf4bd9fdd000000000000000000000000000000000000000000000002b4389af7c053834c",
        "nonce": "0x222",
        "chainId": "0x1"
      },
      "additionalContracts": [],
      "isFixedGasLimit": false
    },
    {
      "hash": "0x47d5e81ac82c6245e24ed7b9b3a6dc40c20d1dff22970b989df7e69cd98156fc",
      "transactionType": "CALL",
      "contractName": null,
      "contractAddress": "0x5c6fb490bdfd3246eb0bb062c168decaf4bd9fdd",
      "function": "removeLiquidityProportional(address,uint256,uint256[],bool,bytes)",
      "arguments": [
        "0x642BB6860b4776CC10b26B8f361Fd139E7f0db04",
        "49879788061816226636",
        "[45769999999999999999, 53863455624993124621]",
        "false",
        "0x"
      ],
      "transaction": {
        "from": "0xcad1a7864a108dbff67f4b8af71fab0c7a86d0b6",
        "to": "0x5c6fb490bdfd3246eb0bb062c168decaf4bd9fdd",
        "value": "0x0",
        "input": "0x51682750000000000000000000000000642bb6860b4776cc10b26b8f361fd139e7f0db04000000000000000000000000000000000000000000000002b4389af7c053834c00000000000000000000000000000000000000000000000000000000000000a00000000000000000000000000000000000000000000000000000000000000000000000000000000000000000000000000000000000000000000000000000010000000000000000000000000000000000000000000000000000000000000000020000000000000000000000000000000000000000000000027b2fb48009a0ffff000000000000000000000000000000000000000000000002eb816f8296bb310d0000000000000000000000000000000000000000000000000000000000000000",
        "nonce": "0x223",
        "chainId": "0x1"
      },
      "additionalContracts": [],
      "isFixedGasLimit": false
    },
    {
      "hash": "0x8fcf9cfb662368f27f4459514c840ae357fd38925bf156336cb015293dcd56f1",
      "transactionType": "CREATE",
      "contractName": "SeedSwapHelper",
      "contractAddress": "0xd40311fada17fb19d32e34646e865b6e22152e5f",
      "function": null,
      "arguments": [
        "0xbA1333333333a1BA1108E8412f11850A5C319bA9",
        "0x0B65A4505E8C323AE4fEDcc48515FD713dC9d8C0",
        "0xa3931d71877C0E7a3148CB7Eb4463524FEc27fbD",
        "0xD4fa2D31b7968E448877f69A96DE69f5de8cD23E",
        "0xA0b86991c6218b36c1d19D4a2e9Eb0cE3606eB48",
        "0x6e9886AfDF07DD67dc70b8335E4e9DF14B445071"
      ],
      "transaction": {
        "from": "0xcad1a7864a108dbff67f4b8af71fab0c7a86d0b6",
        "value": "0x0",
        "input": "0x6101603461012857601f610dcf38819003918201601f19168301916001600160401b0383118484101761012c5780849260c0946040528339810103126101285761004881610140565b9061005560208201610140565b61006160408301610140565b61006d60608401610140565b9161008660a061007f60808701610140565b9501610140565b943360805260a05260c05260e052610100526101205261014052604051610c7a908161015582396080518181816107ea015261088c015260a05181818160ad015281816101760152610999015260c05181818161010101526102c1015260e0518181816101cc0152610ae60152610100518181816103060152610b8401526101205181818161058c0152610b3601526101405181818161053e015261083a0152f35b5f80fd5b634e487b7160e01b5f52604160045260245ffd5b51906001600160a01b03821682036101285756fe6080806040526004361015610012575f80fd5b5f905f3560e01c9081632baaf74514610b5a575080633e413bee14610b0a5780634f5a19df14610aba5780635601eaea1461085e57806366d003ac1461080e5780638da5cb5b146107be57806391dd734614610125578063982697dd146100d45763fbfa77cf14610081575f80fd5b346100d157806003193601126100d157602060405173ffffffffffffffffffffffffffffffffffffffff7f0000000000000000000000000000000000000000000000000000000000000000168152f35b80fd5b50346100d157806003193601126100d157602060405173ffffffffffffffffffffffffffffffffffffffff7f0000000000000000000000000000000000000000000000000000000000000000168152f35b50346106795760206003193601126106795760043567ffffffffffffffff8111610679573660238201121561067957806004013567ffffffffffffffff8111610679578101366024820111610679577f000000000000000000000000000000000000000000000000000000000000000073ffffffffffffffffffffffffffffffffffffffff81169182330361079657604090849003126106795760446024840135930135917f00000000000000000000000000000000000000000000000000000000000000009061026160208673ffffffffffffffffffffffffffffffffffffffff85169560405193849283927fa9059cbb000000000000000000000000000000000000000000000000000000008452600484016020909392919373ffffffffffffffffffffffffffffffffffffffff60408201951681520152565b03815f885af180156106ac57610779575b506040516020956102838783610beb565b5f82526040519160e0830183811067ffffffffffffffff82111761074c576040525f835287830173ffffffffffffffffffffffffffffffffffffffff7f000000000000000000000000000000000000000000000000000000000000000016815260408401968752606084019073ffffffffffffffffffffffffffffffffffffffff7f00000000000000000000000000000000000000000000000000000000000000001697888352608086019385855260a087015f815260c08801918252604051977f2bfb780c0000000000000000000000000000000000000000000000000000000089528d60048a01525195600287101561071f5773ffffffffffffffffffffffffffffffffffffffff8996816103d396818a9960609c60248c0152511660448a015251166064880152511660848601525160a48501525160c48401525160e060e4840152610104830190610ba8565b03815f875af19384156106ac5787925f956106e1575b506040517f15afd40900000000000000000000000000000000000000000000000000000000815273ffffffffffffffffffffffffffffffffffffffff90911660048201526024810191909152908180604481015b03815f865af180156106ac576106b7575b50803b15610679575f80916064604051809481937fae6393290000000000000000000000000000000000000000000000000000000083528860048401523060248401528760448401525af180156106ac5761068f575b508492916064859260405197889384927fba08765200000000000000000000000000000000000000000000000000000000845260048401523060248401523060448401525af1938415610684578294610651575b5080841061062157506040517fa9059cbb00000000000000000000000000000000000000000000000000000000815273ffffffffffffffffffffffffffffffffffffffff7f000000000000000000000000000000000000000000000000000000000000000016600482015260248101849052908282806044810103818473ffffffffffffffffffffffffffffffffffffffff7f0000000000000000000000000000000000000000000000000000000000000000165af190811561061557506105ea575b5060405191818301528082526105d2604083610beb565b6105e6604051928284938452830190610ba8565b0390f35b61060990823d841161060e575b6106018183610beb565b810190610c2c565b6105bb565b503d6105f7565b604051903d90823e3d90fd5b60449250837f65225158000000000000000000000000000000000000000000000000000000008352600452602452fd5b9093508281813d831161067d575b6106698183610beb565b810103126106795751925f6104f8565b5f80fd5b503d61065f565b6040513d84823e3d90fd5b60649550916106a15f86939594610beb565b5f95509192906104a4565b6040513d5f823e3d90fd5b8581813d83116106da575b6106cc8183610beb565b81010312610679575161044e565b503d6106c2565b91925093506060813d606011610717575b816106ff60609383610beb565b8101031261067957604001519286919061043d6103e9565b3d91506106f2565b7f4e487b71000000000000000000000000000000000000000000000000000000005f52602160045260245ffd5b7f4e487b71000000000000000000000000000000000000000000000000000000005f52604160045260245ffd5b6107919060203d60201161060e576106018183610beb565b610272565b7f62df0545000000000000000000000000000000000000000000000000000000005f5260045ffd5b34610679575f60031936011261067957602060405173ffffffffffffffffffffffffffffffffffffffff7f0000000000000000000000000000000000000000000000000000000000000000168152f35b34610679575f60031936011261067957602060405173ffffffffffffffffffffffffffffffffffffffff7f0000000000000000000000000000000000000000000000000000000000000000168152f35b346106795760406003193601126106795760043560243573ffffffffffffffffffffffffffffffffffffffff7f0000000000000000000000000000000000000000000000000000000000000000163303610a925761091861094461097f935f936040519160208301526040820152604081526108db606082610beb565b6040519283917f91dd7346000000000000000000000000000000000000000000000000000000006020840152602060248401526044830190610ba8565b037fffffffffffffffffffffffffffffffffffffffffffffffffffffffffffffffe08101835282610beb565b604051809381927f48c89491000000000000000000000000000000000000000000000000000000008352602060048401526024830190610ba8565b03818373ffffffffffffffffffffffffffffffffffffffff7f0000000000000000000000000000000000000000000000000000000000000000165af19081156106ac575f916109ea575b50602081519181808201938492010103126106795760209051604051908152f35b90503d805f833e6109fb8183610beb565b8101906020818303126106795780519067ffffffffffffffff8211610679570181601f820112156106795780519067ffffffffffffffff821161074c5760405192610a6e601f84017fffffffffffffffffffffffffffffffffffffffffffffffffffffffffffffffe01660200185610beb565b8284526020838301011161067957815f9260208093018386015e83010152816109c9565b7f30cd7471000000000000000000000000000000000000000000000000000000005f5260045ffd5b34610679575f60031936011261067957602060405173ffffffffffffffffffffffffffffffffffffffff7f0000000000000000000000000000000000000000000000000000000000000000168152f35b34610679575f60031936011261067957602060405173ffffffffffffffffffffffffffffffffffffffff7f0000000000000000000000000000000000000000000000000000000000000000168152f35b34610679575f6003193601126106795760209073ffffffffffffffffffffffffffffffffffffffff7f0000000000000000000000000000000000000000000000000000000000000000168152f35b907fffffffffffffffffffffffffffffffffffffffffffffffffffffffffffffffe0601f602080948051918291828752018686015e5f8582860101520116010190565b90601f7fffffffffffffffffffffffffffffffffffffffffffffffffffffffffffffffe0910116810190811067ffffffffffffffff82111761074c57604052565b9081602091031261067957518015158103610679579056fea26469706673582212202eadf5cfd295b3717db2f28ac580652846f335f270e6e1db45a3a558f2915c2d64736f6c634300081e0033000000000000000000000000ba1333333333a1ba1108e8412f11850a5c319ba90000000000000000000000000b65a4505e8c323ae4fedcc48515fd713dc9d8c0000000000000000000000000a3931d71877c0e7a3148cb7eb4463524fec27fbd000000000000000000000000d4fa2d31b7968e448877f69a96de69f5de8cd23e000000000000000000000000a0b86991c6218b36c1d19d4a2e9eb0ce3606eb480000000000000000000000006e9886afdf07dd67dc70b8335e4e9df14b445071",
        "nonce": "0x224",
        "chainId": "0x1"
      },
      "additionalContracts": [],
      "isFixedGasLimit": false
    },
    {
      "hash": "0x201acf27a4f585143f678e089cdfcd65c0492c54c049e59bb64dbe81763cf8f6",
      "transactionType": "CALL",
      "contractName": null,
      "contractAddress": "0xa3931d71877c0e7a3148cb7eb4463524fec27fbd",
      "function": "transfer(address,uint256)",
      "arguments": [
        "0xD40311FAdA17fb19d32e34646e865b6E22152e5f",
        "45999999999999999999"
      ],
      "transaction": {
        "from": "0xcad1a7864a108dbff67f4b8af71fab0c7a86d0b6",
        "to": "0xa3931d71877c0e7a3148cb7eb4463524fec27fbd",
        "value": "0x0",
        "input": "0xa9059cbb000000000000000000000000d40311fada17fb19d32e34646e865b6e22152e5f0000000000000000000000000000000000000000000000027e60d44813f7ffff",
        "nonce": "0x225",
        "chainId": "0x1"
      },
      "additionalContracts": [],
      "isFixedGasLimit": false
    },
    {
      "hash": "0xfff1549fc6257cd4c56c2ee29cce7b9f6feb6a5bb47d773728db45203b38f821",
      "transactionType": "CALL",
      "contractName": "SeedSwapHelper",
      "contractAddress": "0xd40311fada17fb19d32e34646e865b6e22152e5f",
      "function": "execute(uint256,uint256)",
      "arguments": [
        "45999999999999999999",
        "47000000"
      ],
      "transaction": {
        "from": "0xcad1a7864a108dbff67f4b8af71fab0c7a86d0b6",
        "to": "0xd40311fada17fb19d32e34646e865b6e22152e5f",
        "value": "0x0",
        "input": "0x5601eaea0000000000000000000000000000000000000000000000027e60d44813f7ffff0000000000000000000000000000000000000000000000000000000002cd29c0",
        "nonce": "0x226",
        "chainId": "0x1"
      },
      "additionalContracts": [],
      "isFixedGasLimit": false
    },
    {
      "hash": "0x588f051bbd212d1e6963927771f2ddd63735e398547e4150a01a959a51d77bdf",
      "transactionType": "CALL",
      "contractName": null,
      "contractAddress": "0xf3b5b661b92b75c71fa5aba8fd95d7514a9cd605",
      "function": "approve(address,uint256)",
      "arguments": [
        "0xCad1a7864a108DBFF67F4b8af71fAB0C7A86D0B6",
        "54134126256274497107"
      ],
      "transaction": {
        "from": "0xcad1a7864a108dbff67f4b8af71fab0c7a86d0b6",
        "to": "0xf3b5b661b92b75c71fa5aba8fd95d7514a9cd605",
        "value": "0x0",
        "input": "0x095ea7b3000000000000000000000000cad1a7864a108dbff67f4b8af71fab0c7a86d0b6000000000000000000000000000000000000000000000002ef430d03e3635e53",
        "nonce": "0x227",
        "chainId": "0x1"
      },
      "additionalContracts": [],
      "isFixedGasLimit": false
    },
    {
      "hash": "0xcbe70253dd0ff85322a5993b64e97e26c6b6df646fdc4fb59160d5318c2ea43f",
      "transactionType": "CALL",
      "contractName": null,
      "contractAddress": "0xf3b5b661b92b75c71fa5aba8fd95d7514a9cd605",
      "function": "burn(address,uint256)",
      "arguments": [
        "0xCad1a7864a108DBFF67F4b8af71fAB0C7A86D0B6",
        "54134126256274497107"
      ],
      "transaction": {
        "from": "0xcad1a7864a108dbff67f4b8af71fab0c7a86d0b6",
        "to": "0xf3b5b661b92b75c71fa5aba8fd95d7514a9cd605",
        "value": "0x0",
        "input": "0x9dc29fac000000000000000000000000cad1a7864a108dbff67f4b8af71fab0c7a86d0b6000000000000000000000000000000000000000000000002ef430d03e3635e53",
        "nonce": "0x228",
        "chainId": "0x1"
      },
      "additionalContracts": [],
      "isFixedGasLimit": false
    },
    {
      "hash": "0x9b26ab6d1b5819dd2274b012e9539d23a68318acaf069642ce876df105cfef6b",
      "transactionType": "CALL",
      "contractName": null,
      "contractAddress": "0x4ef0fde49360ed31c68ed442ff263cc6291041f3",
      "function": "setNudgePaymentToken(address)",
      "arguments": [
        "0x0000000000000000000000000000000000000000"
      ],
      "transaction": {
        "from": "0xcad1a7864a108dbff67f4b8af71fab0c7a86d0b6",
        "to": "0x4ef0fde49360ed31c68ed442ff263cc6291041f3",
        "value": "0x0",
        "input": "0xcb1fd8c80000000000000000000000000000000000000000000000000000000000000000",
        "nonce": "0x229",
        "chainId": "0x1"
      },
      "additionalContracts": [],
      "isFixedGasLimit": false
    },
    {
      "hash": "0x406c2479d639ebc1f5702a9515bc58bbb5a50c35f56488671b44d5c18547fb02",
      "transactionType": "CALL",
      "contractName": null,
      "contractAddress": "0x4ef0fde49360ed31c68ed442ff263cc6291041f3",
      "function": "setNudgeSize(uint256)",
      "arguments": [
        "0"
      ],
      "transaction": {
        "from": "0xcad1a7864a108dbff67f4b8af71fab0c7a86d0b6",
        "to": "0x4ef0fde49360ed31c68ed442ff263cc6291041f3",
        "value": "0x0",
        "input": "0xf79dbe9e0000000000000000000000000000000000000000000000000000000000000000",
        "nonce": "0x22a",
        "chainId": "0x1"
      },
      "additionalContracts": [],
      "isFixedGasLimit": false
    }
  ],
  "receipts": [
    {
      "status": "0x1",
      "cumulativeGasUsed": "0xc3f40f",
      "logs": [
        {
          "address": "0x6e9886afdf07dd67dc70b8335e4e9df14b445071",
          "topics": [
            "0x8be0079c531659141344cd1fd0a4f28419497f9722a3daafe3b4186f6b6457e0",
            "0x0000000000000000000000000000000000000000000000000000000000000000",
            "0x000000000000000000000000cad1a7864a108dbff67f4b8af71fab0c7a86d0b6"
          ],
          "data": "0x",
          "blockHash": "0xd64d25787d3a7ef59d8279aad12f5c54207e577be1c7b6c90e1572e06450090a",
          "blockNumber": "0x180a7a5",
          "blockTimestamp": "0x6a1af1d3",
          "transactionHash": "0xf9f2c06570d4916a3705c089499241cf90db9ffd94f40bf5feb1435b51e8c19d",
          "transactionIndex": "0x6f",
          "logIndex": "0x152",
          "removed": false
        }
      ],
      "logsBloom": "0x00000000000000000020000000000000000000000000000000800000000000000000000000000000000000400000000000000000000000000000000000000000000000000000000000000000000000000001000000000000000000040000000000000000020000000000000000000800000000000000000000000000000000400000000000000000000000000000000000000000000000000000000000000000000000000000000000000000000000000000000000000000000000000000000000000000400000000000000000000000000000000000100000000000000020000000000000400000000000000000000000000000000000000000000000000000",
      "type": "0x2",
      "transactionHash": "0xf9f2c06570d4916a3705c089499241cf90db9ffd94f40bf5feb1435b51e8c19d",
      "transactionIndex": "0x6f",
      "blockHash": "0xd64d25787d3a7ef59d8279aad12f5c54207e577be1c7b6c90e1572e06450090a",
      "blockNumber": "0x180a7a5",
      "gasUsed": "0x114249",
      "effectiveGasPrice": "0xbd624f9",
      "from": "0xcad1a7864a108dbff67f4b8af71fab0c7a86d0b6",
      "to": null,
      "contractAddress": "0x6e9886afdf07dd67dc70b8335e4e9df14b445071"
    },
    {
      "status": "0x1",
      "cumulativeGasUsed": "0x39106c4",
      "logs": [
        {
          "address": "0x6e9886afdf07dd67dc70b8335e4e9df14b445071",
          "topics": [
            "0x1370a2648b99fa68e1d4d7ccf25da63193ac3140c449433f448311c1a5d40236",
            "0x00000000000000000000000039af088408e815844c567037c157b31d48d2e10f"
          ],
          "data": "0x",
          "blockHash": "0x87d15f0e3a2e005b95e51ab019f4087fae14bac585589ac13d0921f488152e57",
          "blockNumber": "0x180a7a6",
          "blockTimestamp": "0x6a1af1df",
          "transactionHash": "0xb4ea84d1e0c55b4bb3268c4892427385631bfb029ee12949533ebf8d36ff3fae",
          "transactionIndex": "0x16d",
          "logIndex": "0x605",
          "removed": false
        }
      ],
      "logsBloom": "0x00000000000000000000000000000000000000000000000000000000000000000000000000000000000000000000020000000000000000000000000000000000000008004000000000000000000000000000000000000000000000040000000000000000000000000000000000000000000000000000000000000000000000000000000000000000000000000000000000000000000000000000000000000000000000000000400000000000000040000000800000000000000000000000000000000000400000000000000000000000000000000000000000000000000000000000000000400000000000000000000000000000000000000000000000000000",
      "type": "0x2",
      "transactionHash": "0xb4ea84d1e0c55b4bb3268c4892427385631bfb029ee12949533ebf8d36ff3fae",
      "transactionIndex": "0x16d",
      "blockHash": "0x87d15f0e3a2e005b95e51ab019f4087fae14bac585589ac13d0921f488152e57",
      "blockNumber": "0x180a7a6",
      "gasUsed": "0xb82a",
      "effectiveGasPrice": "0xb3b7f9b",
      "from": "0xcad1a7864a108dbff67f4b8af71fab0c7a86d0b6",
      "to": "0x6e9886afdf07dd67dc70b8335e4e9df14b445071",
      "contractAddress": null
    },
    {
      "status": "0x1",
      "cumulativeGasUsed": "0x22f9a28",
      "logs": [
        {
          "address": "0x6e9886afdf07dd67dc70b8335e4e9df14b445071",
          "topics": [
            "0xdce5de46b982ee4736044da409b40c339262fedb577d7e0e1f7ad95323b0d85f",
            "0x0000000000000000000000000000000000000000000000000000000000000004"
          ],
          "data": "0x",
          "blockHash": "0x69c3d7d670deb328ee22adbcf943847e23e73fb5d02125b912296d49bff4a214",
          "blockNumber": "0x180a7a7",
          "blockTimestamp": "0x6a1af1eb",
          "transactionHash": "0xd7345f6ea49b2a5e46fb0fa3c8346694316d926d8047488e10ad5e38e22fb922",
          "transactionIndex": "0x130",
          "logIndex": "0x32b",
          "removed": false
        }
      ],
      "logsBloom": "0x00000000000000000000000000000000000000000000000000000000000000000000000000000000000000000000000000000000000000000000000000000000010000000000000000000000000000000000000000000000000000040000000008000000000000000000000020000000000000000000000000000000000000000000000000000000000000000000000000000000000000000000000000020000000000000000000000000000000000000000000000000000002000000000000000000000400000000000000000000000000000008000000000000000000000000000000000400000000000000000000000000000000000000000000000000000",
      "type": "0x2",
      "transactionHash": "0xd7345f6ea49b2a5e46fb0fa3c8346694316d926d8047488e10ad5e38e22fb922",
      "transactionIndex": "0x130",
      "blockHash": "0x69c3d7d670deb328ee22adbcf943847e23e73fb5d02125b912296d49bff4a214",
      "blockNumber": "0x180a7a7",
      "gasUsed": "0xb731",
      "effectiveGasPrice": "0xc9f2663",
      "from": "0xcad1a7864a108dbff67f4b8af71fab0c7a86d0b6",
      "to": "0x6e9886afdf07dd67dc70b8335e4e9df14b445071",
      "contractAddress": null
    },
    {
      "status": "0x1",
      "cumulativeGasUsed": "0x142705d",
      "logs": [
        {
          "address": "0x6e9886afdf07dd67dc70b8335e4e9df14b445071",
          "topics": [
            "0x6c1669a9d4dde92eb8b509697810f4688f8e6a2fe69dc291ccfcf3a0f9c3a2ff",
            "0x000000000000000000000000a0b86991c6218b36c1d19d4a2e9eb0ce3606eb48"
          ],
          "data": "0x",
          "blockHash": "0x9dbbbe676fc313c846609d0f989e68e8df2766affffb8be51fab12d885be18b2",
          "blockNumber": "0x180a7a8",
          "blockTimestamp": "0x6a1af1f7",
          "transactionHash": "0xe4762a2168cc09b5f5210bca259a4a9cae40c3e1fde87c5f8c320e6a9ee4c34d",
          "transactionIndex": "0x8f",
          "logIndex": "0x30b",
          "removed": false
        }
      ],
      "logsBloom": "0x00000000000000000000000000000000000000000000000000000000000000000000000000000000000002000000000000000000000000000000000000000000000000000000000000000000000000000000000000100000000000040000000000000000000000000000000000000000000000000000000000000000000000000000000008000000000000000000000200000000000000000000000000000000000000000000000000000000000000000000000000000000000000000000000000000000400000000000000000000000000000000000000000000000000010000000000000400000000000000000000004000000000000000000000000000000",
      "type": "0x2",
      "transactionHash": "0xe4762a2168cc09b5f5210bca259a4a9cae40c3e1fde87c5f8c320e6a9ee4c34d",
      "transactionIndex": "0x8f",
      "blockHash": "0x9dbbbe676fc313c846609d0f989e68e8df2766affffb8be51fab12d885be18b2",
      "blockNumber": "0x180a7a8",
      "gasUsed": "0xb8e2",
      "effectiveGasPrice": "0xd868419",
      "from": "0xcad1a7864a108dbff67f4b8af71fab0c7a86d0b6",
      "to": "0x6e9886afdf07dd67dc70b8335e4e9df14b445071",
      "contractAddress": null
    },
    {
      "status": "0x1",
      "cumulativeGasUsed": "0x143752b",
      "logs": [
        {
          "address": "0x6e9886afdf07dd67dc70b8335e4e9df14b445071",
          "topics": [
            "0xf435fc90cf0d233d2031e34c7e0a6bcbd6c56f749449163e019be8da37a0f59e"
          ],
          "data": "0x0000000000000000000000000000000000000000000000000000000000000028",
          "blockHash": "0x8754e79a37d4c33ee9cf29c96b91d04f3560ae83c1ef0ff5d34687d51a4a6ce1",
          "blockNumber": "0x180a7a9",
          "blockTimestamp": "0x6a1af203",
          "transactionHash": "0x99f175bd9e8b44954ceb82f1ae271f0ee45ed7f7b5128ac74cca15b5a01a84c9",
          "transactionIndex": "0xb3",
          "logIndex": "0x244",
          "removed": false
        }
      ],
      "logsBloom": "0x00000000000000000000000000000000000000000000000000000000000000000000000000000000000000000000000000000000000000000000000000000000000000000000000000000000000000000000000000000000000000040000000000000001000000000000000000000000000000000000000000000000000000000000000000000000000000000000000000000000010000000000000000000000000000000000000000000000000000000000000000000000000000000000000000000000400000000000000000000000000000002000000000000000000000000000000000400000000000000000000000000000000000000000000000000000",
      "type": "0x2",
      "transactionHash": "0x99f175bd9e8b44954ceb82f1ae271f0ee45ed7f7b5128ac74cca15b5a01a84c9",
      "transactionIndex": "0xb3",
      "blockHash": "0x8754e79a37d4c33ee9cf29c96b91d04f3560ae83c1ef0ff5d34687d51a4a6ce1",
      "blockNumber": "0x180a7a9",
      "gasUsed": "0xb790",
      "effectiveGasPrice": "0xd4585c6",
      "from": "0xcad1a7864a108dbff67f4b8af71fab0c7a86d0b6",
      "to": "0x6e9886afdf07dd67dc70b8335e4e9df14b445071",
      "contractAddress": null
    },
    {
      "status": "0x1",
      "cumulativeGasUsed": "0x18d4d02",
      "logs": [
        {
          "address": "0x3bbe928340c61a65cb6c4a87b3fb59b6f3f7606a",
          "topics": [
            "0xb94dcf2c9ff6813b44ddb73cffafcc975ecb6a70ad6d75e2ed65495b201a419e",
            "0x0000000000000000000000004ef0fde49360ed31c68ed442ff263cc6291041f3",
            "0x0000000000000000000000006e9886afdf07dd67dc70b8335e4e9df14b445071"
          ],
          "data": "0x",
          "blockHash": "0xeb2862abde3b834ca5a93714f6a132ee47ccaf069794e86d2b01ba5f32e27843",
          "blockNumber": "0x180a7ab",
          "blockTimestamp": "0x6a1af21b",
          "transactionHash": "0x3cff6ca640e2f71b056197bb560f8ae03e0002edcd3ce886c2fe2b734d772eea",
          "transactionIndex": "0xf5",
          "logIndex": "0x38a",
          "removed": false
        }
      ],
      "logsBloom": "0x00000000000000000000000000000000000000000000000000000000000000000000000000001000000000000000000000000000000000000000000000000000000000000000000000000000000080000000000000000200000000000000000000000000000000000000000000000000000000100000000000000000000004000000000000000000000000000000000000000000000000010000000000000000000000000040000000000000000000000000000000000000000000000000000000008000000000200000000000000000000000000000000000008000000000000400000000000000000000000000000000000000000000000000000020000000",
      "type": "0x2",
      "transactionHash": "0x3cff6ca640e2f71b056197bb560f8ae03e0002edcd3ce886c2fe2b734d772eea",
      "transactionIndex": "0xf5",
      "blockHash": "0xeb2862abde3b834ca5a93714f6a132ee47ccaf069794e86d2b01ba5f32e27843",
      "blockNumber": "0x180a7ab",
      "gasUsed": "0x76ec",
      "effectiveGasPrice": "0xcd4ad64",
      "from": "0xcad1a7864a108dbff67f4b8af71fab0c7a86d0b6",
      "to": "0x3bbe928340c61a65cb6c4a87b3fb59b6f3f7606a",
      "contractAddress": null
    },
    {
      "status": "0x1",
      "cumulativeGasUsed": "0x1146cb9",
      "logs": [
        {
          "address": "0x3bbe928340c61a65cb6c4a87b3fb59b6f3f7606a",
          "topics": [
            "0xc4df7cf7130f9356fe3a29a136c893959b0cdf945bc850d1829b45df203e3ee6"
          ],
          "data": "0x0000000000000000000000000000000000000000000000000000000000000000000000000000000000000000000000000000000000000000000000000000001e",
          "blockHash": "0xba5bb78500d6f52046f387cae84ca967c92a2ef8ab7f6111f655a3128bf76db1",
          "blockNumber": "0x180a7ac",
          "blockTimestamp": "0x6a1af227",
          "transactionHash": "0x575c2bbccbc38e25febf54aa74338b96d8ce5132e6a1ef116dbff5022cca62ee",
          "transactionIndex": "0x97",
          "logIndex": "0x1e3",
          "removed": false
        }
      ],
      "logsBloom": "0x00000000000000000000000000000000000000000000000000000000000000000000000000001000000000000000000000000000000000000000000000000000000000000000000000000000000000000000000040000000000000000000000000000000000000000000000000000000000000000000000000000000000000000000000000000001000000000000000000000000000000000000000000000000000000000000000000000000000000000000000000000000000000000000000000000000000000000000000000000000000000000000000000000000000000400400000000000000000000000000000000000000000000000000000020000000",
      "type": "0x2",
      "transactionHash": "0x575c2bbccbc38e25febf54aa74338b96d8ce5132e6a1ef116dbff5022cca62ee",
      "transactionIndex": "0x97",
      "blockHash": "0xba5bb78500d6f52046f387cae84ca967c92a2ef8ab7f6111f655a3128bf76db1",
      "blockNumber": "0x180a7ac",
      "gasUsed": "0xbab3",
      "effectiveGasPrice": "0xcd322ab",
      "from": "0xcad1a7864a108dbff67f4b8af71fab0c7a86d0b6",
      "to": "0x3bbe928340c61a65cb6c4a87b3fb59b6f3f7606a",
      "contractAddress": null
    },
    {
      "status": "0x1",
      "cumulativeGasUsed": "0x38f0011",
      "logs": [
        {
          "address": "0x26f89f4b46eb164303985795ee20b15bb1edb38a",
          "topics": [
            "0xa7978870153ece652cc4657688816871cbe0106d26a50cbd2239fecedb8de1c4"
          ],
          "data": "0x0000000000000000000000006e9886afdf07dd67dc70b8335e4e9df14b445071",
          "blockHash": "0xefca0b81ee9e80b6a374c9d9948840e7893f24a47a14848e90be4cbb03acc8a1",
          "blockNumber": "0x180a7af",
          "blockTimestamp": "0x6a1af24b",
          "transactionHash": "0x2e861a930c3a83bf8f7029da3fbb690af2a42b6b13e54f06fcae49b4fdb925a2",
          "transactionIndex": "0x147",
          "logIndex": "0x6ff",
          "removed": false
        }
      ],
      "logsBloom": "0x08000000000000000000000000000000000000000000000000000000000000000000000000000000000000000000000000000000000000000000000000000000000000000000200000000000000000000000000000000000000000000000800000000000000000000000000000000000000000000000000000000000000000000000000000100000000000000000000000000000000000000000000000000000000000000000000000002000000000000000000000000000000000000000000100000000000000000000000000000000000000000000000000000000000000000000000000000000000000000000000000000000000000000000000000000000",
      "type": "0x2",
      "transactionHash": "0x2e861a930c3a83bf8f7029da3fbb690af2a42b6b13e54f06fcae49b4fdb925a2",
      "transactionIndex": "0x147",
      "blockHash": "0xefca0b81ee9e80b6a374c9d9948840e7893f24a47a14848e90be4cbb03acc8a1",
      "blockNumber": "0x180a7af",
      "gasUsed": "0x76bf",
      "effectiveGasPrice": "0xb332d58",
      "from": "0xcad1a7864a108dbff67f4b8af71fab0c7a86d0b6",
      "to": "0x26f89f4b46eb164303985795ee20b15bb1edb38a",
      "contractAddress": null
    },
    {
      "status": "0x1",
      "cumulativeGasUsed": "0x17bbc28",
      "logs": [
        {
          "address": "0xba1333333333a1ba1108e8412f11850a5c319ba9",
          "topics": [
            "0xd1398bee19313d6bf672ccb116e51f4a1a947e91c757907f51fbb5b5e56c698f",
            "0x000000000000000000000000642bb6860b4776cc10b26b8f361fd139e7f0db04",
            "0x00000000000000000000000026f89f4b46eb164303985795ee20b15bb1edb38a",
            "0x000000000000000000000000cad1a7864a108dbff67f4b8af71fab0c7a86d0b6"
          ],
          "data": "0x000000000000000000000000000000000000000000000002b4389af7c053834c",
          "blockHash": "0x9766bcf73ca5beda43098985c0edad1bc343f785c72ff1084f98cc3555b82181",
          "blockNumber": "0x180a7b1",
          "blockTimestamp": "0x6a1af263",
          "transactionHash": "0x77342cdeeb7dae7b1aa387a54362963c8461f0eb6fc17557593be11d4e4f61df",
          "transactionIndex": "0xb1",
          "logIndex": "0x3ac",
          "removed": false
        },
        {
          "address": "0x642bb6860b4776cc10b26b8f361fd139e7f0db04",
          "topics": [
            "0xddf252ad1be2c89b69c2b068fc378daa952ba7f163c4a11628f55a4df523b3ef",
            "0x00000000000000000000000026f89f4b46eb164303985795ee20b15bb1edb38a",
            "0x000000000000000000000000cad1a7864a108dbff67f4b8af71fab0c7a86d0b6"
          ],
          "data": "0x000000000000000000000000000000000000000000000002b4389af7c053834c",
          "blockHash": "0x9766bcf73ca5beda43098985c0edad1bc343f785c72ff1084f98cc3555b82181",
          "blockNumber": "0x180a7b1",
          "blockTimestamp": "0x6a1af263",
          "transactionHash": "0x77342cdeeb7dae7b1aa387a54362963c8461f0eb6fc17557593be11d4e4f61df",
          "transactionIndex": "0xb1",
          "logIndex": "0x3ad",
          "removed": false
        }
      ],
      "logsBloom": "0x00000000000000000020000000000000000000000000000000000000002000000000400000000000000000408000000000000000000000000000000000000000000000000000000200000008000000000000000000000000000000000000000000000000000000000000000000000000000001000000000000010010000000000000000000000000000000000000000000000000000000000000010000000000000000800000000000000000800000000000000000000000000000000000008000000002000000000000000000000000000000000000100000000000800000000001000000000000002000000000000000000000000100000000000000000400",
      "type": "0x2",
      "transactionHash": "0x77342cdeeb7dae7b1aa387a54362963c8461f0eb6fc17557593be11d4e4f61df",
      "transactionIndex": "0xb1",
      "blockHash": "0x9766bcf73ca5beda43098985c0edad1bc343f785c72ff1084f98cc3555b82181",
      "blockNumber": "0x180a7b1",
      "gasUsed": "0x1043a",
      "effectiveGasPrice": "0xc5f1008",
      "from": "0xcad1a7864a108dbff67f4b8af71fab0c7a86d0b6",
      "to": "0x26f89f4b46eb164303985795ee20b15bb1edb38a",
      "contractAddress": null
    },
    {
      "status": "0x1",
      "cumulativeGasUsed": "0x1cc542d",
      "logs": [
        {
          "address": "0x642bb6860b4776cc10b26b8f361fd139e7f0db04",
          "topics": [
            "0x8c5be1e5ebec7d5bd14f71427d1e84f3dd0314c0f7b2291e5b200ac8c7c3b925",
            "0x000000000000000000000000cad1a7864a108dbff67f4b8af71fab0c7a86d0b6",
            "0x0000000000000000000000005c6fb490bdfd3246eb0bb062c168decaf4bd9fdd"
          ],
          "data": "0x000000000000000000000000000000000000000000000002b4389af7c053834c",
          "blockHash": "0x8f881922a4065a4aa84994a4e6dc43a3f5711545cc88cef6c6a030df4a82d0ba",
          "blockNumber": "0x180a7b2",
          "blockTimestamp": "0x6a1af26f",
          "transactionHash": "0xcb29a6475684689f90a12dafab275a91ae85f79c50a4a959a8ee6033e1689fe3",
          "transactionIndex": "0x160",
          "logIndex": "0x28c",
          "removed": false
        },
        {
          "address": "0xba1333333333a1ba1108e8412f11850a5c319ba9",
          "topics": [
            "0xa0175360a15bca328baf7ea85c7b784d58b222a50d0ce760b10dba336d226a61",
            "0x000000000000000000000000642bb6860b4776cc10b26b8f361fd139e7f0db04",
            "0x000000000000000000000000cad1a7864a108dbff67f4b8af71fab0c7a86d0b6",
            "0x0000000000000000000000005c6fb490bdfd3246eb0bb062c168decaf4bd9fdd"
          ],
          "data": "0x000000000000000000000000000000000000000000000002b4389af7c053834c",
          "blockHash": "0x8f881922a4065a4aa84994a4e6dc43a3f5711545cc88cef6c6a030df4a82d0ba",
          "blockNumber": "0x180a7b2",
          "blockTimestamp": "0x6a1af26f",
          "transactionHash": "0xcb29a6475684689f90a12dafab275a91ae85f79c50a4a959a8ee6033e1689fe3",
          "transactionIndex": "0x160",
          "logIndex": "0x28d",
          "removed": false
        }
      ],
      "logsBloom": "0x00000000000000000020000000000000000000000000000000000000002000000000000000000000000000408000000000000000000000000000000000200000000000000000000200000000000000000000000000000000008000000000000000000000000000000000000000000000000001000000000000010000000000000000000000000000000000000000000000000000000000000000000000000000020000000000000000000000800000000000000000000000000204000000000000000000004000000000000000000000000000000000100000000000000000008011000000000000002000000000000200000000000100000000000000000000",
      "type": "0x2",
      "transactionHash": "0xcb29a6475684689f90a12dafab275a91ae85f79c50a4a959a8ee6033e1689fe3",
      "transactionIndex": "0x160",
      "blockHash": "0x8f881922a4065a4aa84994a4e6dc43a3f5711545cc88cef6c6a030df4a82d0ba",
      "blockNumber": "0x180a7b2",
      "gasUsed": "0xddaa",
      "effectiveGasPrice": "0xcc29bc3",
      "from": "0xcad1a7864a108dbff67f4b8af71fab0c7a86d0b6",
      "to": "0x642bb6860b4776cc10b26b8f361fd139e7f0db04",
      "contractAddress": null
    },
    {
      "status": "0x1",
      "cumulativeGasUsed": "0xe5e393",
      "logs": [
        {
          "address": "0x642bb6860b4776cc10b26b8f361fd139e7f0db04",
          "topics": [
            "0x8c5be1e5ebec7d5bd14f71427d1e84f3dd0314c0f7b2291e5b200ac8c7c3b925",
            "0x000000000000000000000000cad1a7864a108dbff67f4b8af71fab0c7a86d0b6",
            "0x0000000000000000000000005c6fb490bdfd3246eb0bb062c168decaf4bd9fdd"
          ],
          "data": "0x0000000000000000000000000000000000000000000000000000000000000000",
          "blockHash": "0x32e9534faddf33bc4aa2fe615fd05387a8a3b8398af2b62d1146faa91e9cc5da",
          "blockNumber": "0x180a7b3",
          "blockTimestamp": "0x6a1af27b",
          "transactionHash": "0x47d5e81ac82c6245e24ed7b9b3a6dc40c20d1dff22970b989df7e69cd98156fc",
          "transactionIndex": "0xd0",
          "logIndex": "0x184",
          "removed": false
        },
        {
          "address": "0xba1333333333a1ba1108e8412f11850a5c319ba9",
          "topics": [
            "0xa0175360a15bca328baf7ea85c7b784d58b222a50d0ce760b10dba336d226a61",
            "0x000000000000000000000000642bb6860b4776cc10b26b8f361fd139e7f0db04",
            "0x000000000000000000000000cad1a7864a108dbff67f4b8af71fab0c7a86d0b6",
            "0x0000000000000000000000005c6fb490bdfd3246eb0bb062c168decaf4bd9fdd"
          ],
          "data": "0x0000000000000000000000000000000000000000000000000000000000000000",
          "blockHash": "0x32e9534faddf33bc4aa2fe615fd05387a8a3b8398af2b62d1146faa91e9cc5da",
          "blockNumber": "0x180a7b3",
          "blockTimestamp": "0x6a1af27b",
          "transactionHash": "0x47d5e81ac82c6245e24ed7b9b3a6dc40c20d1dff22970b989df7e69cd98156fc",
          "transactionIndex": "0xd0",
          "logIndex": "0x185",
          "removed": false
        },
        {
          "address": "0x642bb6860b4776cc10b26b8f361fd139e7f0db04",
          "topics": [
            "0xddf252ad1be2c89b69c2b068fc378daa952ba7f163c4a11628f55a4df523b3ef",
            "0x000000000000000000000000cad1a7864a108dbff67f4b8af71fab0c7a86d0b6",
            "0x0000000000000000000000000000000000000000000000000000000000000000"
          ],
          "data": "0x000000000000000000000000000000000000000000000002b4389af7c053834c",
          "blockHash": "0x32e9534faddf33bc4aa2fe615fd05387a8a3b8398af2b62d1146faa91e9cc5da",
          "blockNumber": "0x180a7b3",
          "blockTimestamp": "0x6a1af27b",
          "transactionHash": "0x47d5e81ac82c6245e24ed7b9b3a6dc40c20d1dff22970b989df7e69cd98156fc",
          "transactionIndex": "0xd0",
          "logIndex": "0x186",
          "removed": false
        },
        {
          "address": "0xba1333333333a1ba1108e8412f11850a5c319ba9",
          "topics": [
            "0xd1398bee19313d6bf672ccb116e51f4a1a947e91c757907f51fbb5b5e56c698f",
            "0x000000000000000000000000642bb6860b4776cc10b26b8f361fd139e7f0db04",
            "0x000000000000000000000000cad1a7864a108dbff67f4b8af71fab0c7a86d0b6",
            "0x0000000000000000000000000000000000000000000000000000000000000000"
          ],
          "data": "0x000000000000000000000000000000000000000000000002b4389af7c053834c",
          "blockHash": "0x32e9534faddf33bc4aa2fe615fd05387a8a3b8398af2b62d1146faa91e9cc5da",
          "blockNumber": "0x180a7b3",
          "blockTimestamp": "0x6a1af27b",
          "transactionHash": "0x47d5e81ac82c6245e24ed7b9b3a6dc40c20d1dff22970b989df7e69cd98156fc",
          "transactionIndex": "0xd0",
          "logIndex": "0x187",
          "removed": false
        },
        {
          "address": "0xba1333333333a1ba1108e8412f11850a5c319ba9",
          "topics": [
            "0xfbe5b0d79fb94f1e81c0a92bf86ae9d3a19e9d1bf6202c0d3e75120f65d5d8a5",
            "0x000000000000000000000000642bb6860b4776cc10b26b8f361fd139e7f0db04",
            "0x000000000000000000000000cad1a7864a108dbff67f4b8af71fab0c7a86d0b6",
            "0x0000000000000000000000000000000000000000000000000000000000000000"
          ],
          "data": "0x000000000000000000000000000000000000000000000310c6e0b538292f2011000000000000000000000000000000000000000000000000000000000000006000000000000000000000000000000000000000000000000000000000000000c000000000000000000000000000000000000000000000000000000000000000020000000000000000000000000000000000000000000000027e60d44813f7ffff000000000000000000000000000000000000000000000002ef430d03e3635e53000000000000000000000000000000000000000000000000000000000000000200000000000000000000000000000000000000000000000000000000000000000000000000000000000000000000000000000000000000000000000000000000",
          "blockHash": "0x32e9534faddf33bc4aa2fe615fd05387a8a3b8398af2b62d1146faa91e9cc5da",
          "blockNumber": "0x180a7b3",
          "blockTimestamp": "0x6a1af27b",
          "transactionHash": "0x47d5e81ac82c6245e24ed7b9b3a6dc40c20d1dff22970b989df7e69cd98156fc",
          "transactionIndex": "0xd0",
          "logIndex": "0x188",
          "removed": false
        },
        {
          "address": "0xa3931d71877c0e7a3148cb7eb4463524fec27fbd",
          "topics": [
            "0xddf252ad1be2c89b69c2b068fc378daa952ba7f163c4a11628f55a4df523b3ef",
            "0x000000000000000000000000ba1333333333a1ba1108e8412f11850a5c319ba9",
            "0x000000000000000000000000cad1a7864a108dbff67f4b8af71fab0c7a86d0b6"
          ],
          "data": "0x0000000000000000000000000000000000000000000000027e60d44813f7ffff",
          "blockHash": "0x32e9534faddf33bc4aa2fe615fd05387a8a3b8398af2b62d1146faa91e9cc5da",
          "blockNumber": "0x180a7b3",
          "blockTimestamp": "0x6a1af27b",
          "transactionHash": "0x47d5e81ac82c6245e24ed7b9b3a6dc40c20d1dff22970b989df7e69cd98156fc",
          "transactionIndex": "0xd0",
          "logIndex": "0x189",
          "removed": false
        },
        {
          "address": "0xf3b5b661b92b75c71fa5aba8fd95d7514a9cd605",
          "topics": [
            "0xddf252ad1be2c89b69c2b068fc378daa952ba7f163c4a11628f55a4df523b3ef",
            "0x000000000000000000000000ba1333333333a1ba1108e8412f11850a5c319ba9",
            "0x000000000000000000000000cad1a7864a108dbff67f4b8af71fab0c7a86d0b6"
          ],
          "data": "0x000000000000000000000000000000000000000000000002ef430d03e3635e53",
          "blockHash": "0x32e9534faddf33bc4aa2fe615fd05387a8a3b8398af2b62d1146faa91e9cc5da",
          "blockNumber": "0x180a7b3",
          "blockTimestamp": "0x6a1af27b",
          "transactionHash": "0x47d5e81ac82c6245e24ed7b9b3a6dc40c20d1dff22970b989df7e69cd98156fc",
          "transactionIndex": "0xd0",
          "logIndex": "0x18a",
          "removed": false
        }
      ],
      "logsBloom": "0x00001000000000000020000008000000000080000000000000000000402000000000000000000000000000408000000000000000000000000000000000200000002000020000000208000008000000000000004000000000008000000000000008000000020000000000000000000800000001000000000000010010100000000000000000000000000000000000000000000000000000000010010000000000020000800080000000000000800000000000000000000000000204000000000000000002004000000000000000000000000000000000100000000000800020008011000000000000002000000000000200000000000100000000000000000000",
      "type": "0x2",
      "transactionHash": "0x47d5e81ac82c6245e24ed7b9b3a6dc40c20d1dff22970b989df7e69cd98156fc",
      "transactionIndex": "0xd0",
      "blockHash": "0x32e9534faddf33bc4aa2fe615fd05387a8a3b8398af2b62d1146faa91e9cc5da",
      "blockNumber": "0x180a7b3",
      "gasUsed": "0x2aef3",
      "effectiveGasPrice": "0xdcea2a7",
      "from": "0xcad1a7864a108dbff67f4b8af71fab0c7a86d0b6",
      "to": "0x5c6fb490bdfd3246eb0bb062c168decaf4bd9fdd",
      "contractAddress": null
    },
    {
      "status": "0x1",
      "cumulativeGasUsed": "0x188b9dd",
      "logs": [],
      "logsBloom": "0x00000000000000000000000000000000000000000000000000000000000000000000000000000000000000000000000000000000000000000000000000000000000000000000000000000000000000000000000000000000000000000000000000000000000000000000000000000000000000000000000000000000000000000000000000000000000000000000000000000000000000000000000000000000000000000000000000000000000000000000000000000000000000000000000000000000000000000000000000000000000000000000000000000000000000000000000000000000000000000000000000000000000000000000000000000000",
      "type": "0x2",
      "transactionHash": "0x8fcf9cfb662368f27f4459514c840ae357fd38925bf156336cb015293dcd56f1",
      "transactionIndex": "0xbb",
      "blockHash": "0x258e07533d5655114493a25a72f4c965c38257cf84eadf1a8f48fc05c8248591",
      "blockNumber": "0x180a7b5",
      "gasUsed": "0xb52e4",
      "effectiveGasPrice": "0xda21fbb",
      "from": "0xcad1a7864a108dbff67f4b8af71fab0c7a86d0b6",
      "to": null,
      "contractAddress": "0xd40311fada17fb19d32e34646e865b6e22152e5f"
    },
    {
      "status": "0x1",
      "cumulativeGasUsed": "0x247c47c",
      "logs": [
        {
          "address": "0xa3931d71877c0e7a3148cb7eb4463524fec27fbd",
          "topics": [
            "0xddf252ad1be2c89b69c2b068fc378daa952ba7f163c4a11628f55a4df523b3ef",
            "0x000000000000000000000000cad1a7864a108dbff67f4b8af71fab0c7a86d0b6",
            "0x000000000000000000000000d40311fada17fb19d32e34646e865b6e22152e5f"
          ],
          "data": "0x0000000000000000000000000000000000000000000000027e60d44813f7ffff",
          "blockHash": "0x90c1906148bb30b039317847af53e31256ea57014bb913d115fba0e753739815",
          "blockNumber": "0x180a7b7",
          "blockTimestamp": "0x6a1af2ab",
          "transactionHash": "0x201acf27a4f585143f678e089cdfcd65c0492c54c049e59bb64dbe81763cf8f6",
          "transactionIndex": "0x13f",
          "logIndex": "0x37b",
          "removed": false
        }
      ],
      "logsBloom": "0x00000000000000000020000000000000000000000000000000000000400000000000000000000000000000400000000000000000000000000000000000000000000000000000000000000008000000000000004000000000000000000000000000000000000000000000000000000000000000000000000000000018000000000000000000000000000000000000000000000000000000000010000000000000000000000400000000000000000000000000000000000000000000000000000000000002000000000000000000000000000000000000100000000000000000080000000000000000000000000000000000000000000000000000000000000000",
      "type": "0x2",
      "transactionHash": "0x201acf27a4f585143f678e089cdfcd65c0492c54c049e59bb64dbe81763cf8f6",
      "transactionIndex": "0x13f",
      "blockHash": "0x90c1906148bb30b039317847af53e31256ea57014bb913d115fba0e753739815",
      "blockNumber": "0x180a7b7",
      "gasUsed": "0xdc48",
      "effectiveGasPrice": "0xc3d600a",
      "from": "0xcad1a7864a108dbff67f4b8af71fab0c7a86d0b6",
      "to": "0xa3931d71877c0e7a3148cb7eb4463524fec27fbd",
      "contractAddress": null
    },
    {
      "status": "0x1",
      "cumulativeGasUsed": "0xd6e489",
      "logs": [
        {
          "address": "0xa3931d71877c0e7a3148cb7eb4463524fec27fbd",
          "topics": [
            "0xddf252ad1be2c89b69c2b068fc378daa952ba7f163c4a11628f55a4df523b3ef",
            "0x000000000000000000000000d40311fada17fb19d32e34646e865b6e22152e5f",
            "0x000000000000000000000000ba1333333333a1ba1108e8412f11850a5c319ba9"
          ],
          "data": "0x0000000000000000000000000000000000000000000000027e60d44813f7ffff",
          "blockHash": "0xd459e09685fc8fefd9b3a9ebb2eab5950adbe50948ad7ffd368625f0b9c16f86",
          "blockNumber": "0x180a7b9",
          "blockTimestamp": "0x6a1af2c3",
          "transactionHash": "0xfff1549fc6257cd4c56c2ee29cce7b9f6feb6a5bb47d773728db45203b38f821",
          "transactionIndex": "0x49",
          "logIndex": "0x1b8",
          "removed": false
        },
        {
          "address": "0xba1333333333a1ba1108e8412f11850a5c319ba9",
          "topics": [
            "0x0874b2d545cb271cdbda4e093020c452328b24af12382ed62c4d00f5c26709db",
            "0x0000000000000000000000000b65a4505e8c323ae4fedcc48515fd713dc9d8c0",
            "0x000000000000000000000000a3931d71877c0e7a3148cb7eb4463524fec27fbd",
            "0x000000000000000000000000d4fa2d31b7968e448877f69a96de69f5de8cd23e"
          ],
          "data": "0x0000000000000000000000000000000000000000000000027e60d44813f7ffff00000000000000000000000000000000000000000000000000000000028f99cf0000000000000000000000000000000000000000000000000006c518cbd71fcf00000000000000000000000000000000000000000000000001376a74a0a7b732",
          "blockHash": "0xd459e09685fc8fefd9b3a9ebb2eab5950adbe50948ad7ffd368625f0b9c16f86",
          "blockNumber": "0x180a7b9",
          "blockTimestamp": "0x6a1af2c3",
          "transactionHash": "0xfff1549fc6257cd4c56c2ee29cce7b9f6feb6a5bb47d773728db45203b38f821",
          "transactionIndex": "0x49",
          "logIndex": "0x1b9",
          "removed": false
        },
        {
          "address": "0xd4fa2d31b7968e448877f69a96de69f5de8cd23e",
          "topics": [
            "0xddf252ad1be2c89b69c2b068fc378daa952ba7f163c4a11628f55a4df523b3ef",
            "0x000000000000000000000000ba1333333333a1ba1108e8412f11850a5c319ba9",
            "0x000000000000000000000000d40311fada17fb19d32e34646e865b6e22152e5f"
          ],
          "data": "0x00000000000000000000000000000000000000000000000000000000028f99cf",
          "blockHash": "0xd459e09685fc8fefd9b3a9ebb2eab5950adbe50948ad7ffd368625f0b9c16f86",
          "blockNumber": "0x180a7b9",
          "blockTimestamp": "0x6a1af2c3",
          "transactionHash": "0xfff1549fc6257cd4c56c2ee29cce7b9f6feb6a5bb47d773728db45203b38f821",
          "transactionIndex": "0x49",
          "logIndex": "0x1ba",
          "removed": false
        },
        {
          "address": "0xd4fa2d31b7968e448877f69a96de69f5de8cd23e",
          "topics": [
            "0xddf252ad1be2c89b69c2b068fc378daa952ba7f163c4a11628f55a4df523b3ef",
            "0x000000000000000000000000d40311fada17fb19d32e34646e865b6e22152e5f",
            "0x0000000000000000000000000000000000000000000000000000000000000000"
          ],
          "data": "0x00000000000000000000000000000000000000000000000000000000028f99cf",
          "blockHash": "0xd459e09685fc8fefd9b3a9ebb2eab5950adbe50948ad7ffd368625f0b9c16f86",
          "blockNumber": "0x180a7b9",
          "blockTimestamp": "0x6a1af2c3",
          "transactionHash": "0xfff1549fc6257cd4c56c2ee29cce7b9f6feb6a5bb47d773728db45203b38f821",
          "transactionIndex": "0x49",
          "logIndex": "0x1bb",
          "removed": false
        },
        {
          "address": "0x87870bca3f3fd6335c3f4ce8392d69350b4fa4e2",
          "topics": [
            "0x804c9b842b2748a22bb64b345453a3de7ca54a6ca45ce00d415894979e22897a",
            "0x000000000000000000000000a0b86991c6218b36c1d19d4a2e9eb0ce3606eb48"
          ],
          "data": "0x0000000000000000000000000000000000000000001af67deb4bc54b43775cda000000000000000000000000000000000000000000000000000000000000000000000000000000000000000000000000000000000020d311b1517226bba6c0e8000000000000000000000000000000000000000003caaca19c6290be4fa09230000000000000000000000000000000000000000003fc2a9a63b3468219d3326f",
          "blockHash": "0xd459e09685fc8fefd9b3a9ebb2eab5950adbe50948ad7ffd368625f0b9c16f86",
          "blockNumber": "0x180a7b9",
          "blockTimestamp": "0x6a1af2c3",
          "transactionHash": "0xfff1549fc6257cd4c56c2ee29cce7b9f6feb6a5bb47d773728db45203b38f821",
          "transactionIndex": "0x49",
          "logIndex": "0x1bc",
          "removed": false
        },
        {
          "address": "0x98c23e9d8f34fefb1b7bd6a91b7ff122f4e16f5c",
          "topics": [
            "0xddf252ad1be2c89b69c2b068fc378daa952ba7f163c4a11628f55a4df523b3ef",
            "0x0000000000000000000000000000000000000000000000000000000000000000",
            "0x000000000000000000000000d4fa2d31b7968e448877f69a96de69f5de8cd23e"
          ],
          "data": "0x00000000000000000000000000000000000000000000000000000000093e8324",
          "blockHash": "0xd459e09685fc8fefd9b3a9ebb2eab5950adbe50948ad7ffd368625f0b9c16f86",
          "blockNumber": "0x180a7b9",
          "blockTimestamp": "0x6a1af2c3",
          "transactionHash": "0xfff1549fc6257cd4c56c2ee29cce7b9f6feb6a5bb47d773728db45203b38f821",
          "transactionIndex": "0x49",
          "logIndex": "0x1bd",
          "removed": false
        },
        {
          "address": "0x98c23e9d8f34fefb1b7bd6a91b7ff122f4e16f5c",
          "topics": [
            "0x458f5fa412d0f69b08dd84872b0215675cc67bc1d5b6fd93300a1c3878b86196",
            "0x000000000000000000000000d4fa2d31b7968e448877f69a96de69f5de8cd23e",
            "0x000000000000000000000000d4fa2d31b7968e448877f69a96de69f5de8cd23e"
          ],
          "data": "0x00000000000000000000000000000000000000000000000000000000093e8324000000000000000000000000000000000000000000000000000000000c3fd7a1000000000000000000000000000000000000000003caaca19c6290be4fa09230",
          "blockHash": "0xd459e09685fc8fefd9b3a9ebb2eab5950adbe50948ad7ffd368625f0b9c16f86",
          "blockNumber": "0x180a7b9",
          "blockTimestamp": "0x6a1af2c3",
          "transactionHash": "0xfff1549fc6257cd4c56c2ee29cce7b9f6feb6a5bb47d773728db45203b38f821",
          "transactionIndex": "0x49",
          "logIndex": "0x1be",
          "removed": false
        },
        {
          "address": "0xa0b86991c6218b36c1d19d4a2e9eb0ce3606eb48",
          "topics": [
            "0xddf252ad1be2c89b69c2b068fc378daa952ba7f163c4a11628f55a4df523b3ef",
            "0x00000000000000000000000098c23e9d8f34fefb1b7bd6a91b7ff122f4e16f5c",
            "0x000000000000000000000000d40311fada17fb19d32e34646e865b6e22152e5f"
          ],
          "data": "0x000000000000000000000000000000000000000000000000000000000301547d",
          "blockHash": "0xd459e09685fc8fefd9b3a9ebb2eab5950adbe50948ad7ffd368625f0b9c16f86",
          "blockNumber": "0x180a7b9",
          "blockTimestamp": "0x6a1af2c3",
          "transactionHash": "0xfff1549fc6257cd4c56c2ee29cce7b9f6feb6a5bb47d773728db45203b38f821",
          "transactionIndex": "0x49",
          "logIndex": "0x1bf",
          "removed": false
        },
        {
          "address": "0x87870bca3f3fd6335c3f4ce8392d69350b4fa4e2",
          "topics": [
            "0x3115d1449a7b732c986cba18244e897a450f61e1bb8d589cd2e69e6c8924f9f7",
            "0x000000000000000000000000a0b86991c6218b36c1d19d4a2e9eb0ce3606eb48",
            "0x000000000000000000000000d4fa2d31b7968e448877f69a96de69f5de8cd23e",
            "0x000000000000000000000000d40311fada17fb19d32e34646e865b6e22152e5f"
          ],
          "data": "0x000000000000000000000000000000000000000000000000000000000301547d",
          "blockHash": "0xd459e09685fc8fefd9b3a9ebb2eab5950adbe50948ad7ffd368625f0b9c16f86",
          "blockNumber": "0x180a7b9",
          "blockTimestamp": "0x6a1af2c3",
          "transactionHash": "0xfff1549fc6257cd4c56c2ee29cce7b9f6feb6a5bb47d773728db45203b38f821",
          "transactionIndex": "0x49",
          "logIndex": "0x1c0",
          "removed": false
        },
        {
          "address": "0xd4fa2d31b7968e448877f69a96de69f5de8cd23e",
          "topics": [
            "0xfbde797d201c681b91056529119e0b02407c7bb96a4a2c75c01fc9667232c8db",
            "0x000000000000000000000000d40311fada17fb19d32e34646e865b6e22152e5f",
            "0x000000000000000000000000d40311fada17fb19d32e34646e865b6e22152e5f",
            "0x000000000000000000000000d40311fada17fb19d32e34646e865b6e22152e5f"
          ],
          "data": "0x000000000000000000000000000000000000000000000000000000000301547d00000000000000000000000000000000000000000000000000000000028f99cf",
          "blockHash": "0xd459e09685fc8fefd9b3a9ebb2eab5950adbe50948ad7ffd368625f0b9c16f86",
          "blockNumber": "0x180a7b9",
          "blockTimestamp": "0x6a1af2c3",
          "transactionHash": "0xfff1549fc6257cd4c56c2ee29cce7b9f6feb6a5bb47d773728db45203b38f821",
          "transactionIndex": "0x49",
          "logIndex": "0x1c1",
          "removed": false
        },
        {
          "address": "0xa0b86991c6218b36c1d19d4a2e9eb0ce3606eb48",
          "topics": [
            "0xddf252ad1be2c89b69c2b068fc378daa952ba7f163c4a11628f55a4df523b3ef",
            "0x000000000000000000000000d40311fada17fb19d32e34646e865b6e22152e5f",
            "0x0000000000000000000000006e9886afdf07dd67dc70b8335e4e9df14b445071"
          ],
          "data": "0x000000000000000000000000000000000000000000000000000000000301547d",
          "blockHash": "0xd459e09685fc8fefd9b3a9ebb2eab5950adbe50948ad7ffd368625f0b9c16f86",
          "blockNumber": "0x180a7b9",
          "blockTimestamp": "0x6a1af2c3",
          "transactionHash": "0xfff1549fc6257cd4c56c2ee29cce7b9f6feb6a5bb47d773728db45203b38f821",
          "transactionIndex": "0x49",
          "logIndex": "0x1c2",
          "removed": false
        }
      ],
      "logsBloom": "0x0000022000000040000000000000000000808000000000000000000040200002000000102000002000000200000400000000000000000000000000008000000000200000000000100800000800008000000000400000820000000004000000000000000802000000000000800000080800000100000002000000001c000100080000000000000000000000000000200204000000010000000010000000000000000000012480200000000000000000020000000000002000000000000000010202000002000000200000002000000000000000010000000040000000000020080000008000000000002000000000000004000000000000000000000000000000",
      "type": "0x2",
      "transactionHash": "0xfff1549fc6257cd4c56c2ee29cce7b9f6feb6a5bb47d773728db45203b38f821",
      "transactionIndex": "0x49",
      "blockHash": "0xd459e09685fc8fefd9b3a9ebb2eab5950adbe50948ad7ffd368625f0b9c16f86",
      "blockNumber": "0x180a7b9",
      "gasUsed": "0x718fe",
      "effectiveGasPrice": "0xd156980",
      "from": "0xcad1a7864a108dbff67f4b8af71fab0c7a86d0b6",
      "to": "0xd40311fada17fb19d32e34646e865b6e22152e5f",
      "contractAddress": null
    },
    {
      "status": "0x1",
      "cumulativeGasUsed": "0x1c73557",
      "logs": [
        {
          "address": "0xf3b5b661b92b75c71fa5aba8fd95d7514a9cd605",
          "topics": [
            "0x8c5be1e5ebec7d5bd14f71427d1e84f3dd0314c0f7b2291e5b200ac8c7c3b925",
            "0x000000000000000000000000cad1a7864a108dbff67f4b8af71fab0c7a86d0b6",
            "0x000000000000000000000000cad1a7864a108dbff67f4b8af71fab0c7a86d0b6"
          ],
          "data": "0x000000000000000000000000000000000000000000000002ef430d03e3635e53",
          "blockHash": "0xfb4453299943d7efa28d3b7de46c7e389c4dc1b0f0df813cb37b197ce1d95990",
          "blockNumber": "0x180a7bd",
          "blockTimestamp": "0x6a1af2f3",
          "transactionHash": "0x588f051bbd212d1e6963927771f2ddd63735e398547e4150a01a959a51d77bdf",
          "transactionIndex": "0x126",
          "logIndex": "0x3ea",
          "removed": false
        }
      ],
      "logsBloom": "0x00000000000000000020000008000000000000000000000000000000000000000000000000000000000000400000000000000000000000000000000000200000000000000000000000000000000000000000000000000000000000000000000008000000000000000000000000000000000000000000000000000000100000000000000000000000000000000000000000000000000000000000000000000000020000000000000000000000000000000000000000000000000000000000000000000000000000000000000000000000000000000000100000000000000000000010000000000000000000000000000000000000000000000000000000000000",
      "type": "0x2",
      "transactionHash": "0x588f051bbd212d1e6963927771f2ddd63735e398547e4150a01a959a51d77bdf",
      "transactionIndex": "0x126",
      "blockHash": "0xfb4453299943d7efa28d3b7de46c7e389c4dc1b0f0df813cb37b197ce1d95990",
      "blockNumber": "0x180a7bd",
      "gasUsed": "0xb991",
      "effectiveGasPrice": "0xc527458",
      "from": "0xcad1a7864a108dbff67f4b8af71fab0c7a86d0b6",
      "to": "0xf3b5b661b92b75c71fa5aba8fd95d7514a9cd605",
      "contractAddress": null
    },
    {
      "status": "0x1",
      "cumulativeGasUsed": "0x1300902",
      "logs": [
        {
          "address": "0xf3b5b661b92b75c71fa5aba8fd95d7514a9cd605",
          "topics": [
            "0xddf252ad1be2c89b69c2b068fc378daa952ba7f163c4a11628f55a4df523b3ef",
            "0x000000000000000000000000cad1a7864a108dbff67f4b8af71fab0c7a86d0b6",
            "0x0000000000000000000000000000000000000000000000000000000000000000"
          ],
          "data": "0x000000000000000000000000000000000000000000000002ef430d03e3635e53",
          "blockHash": "0x0b740345c0394e9a4bd571dfd9da61c609e470a673e6652d17ced1e0edf96dd8",
          "blockNumber": "0x180a7bf",
          "blockTimestamp": "0x6a1af30b",
          "transactionHash": "0xcbe70253dd0ff85322a5993b64e97e26c6b6df646fdc4fb59160d5318c2ea43f",
          "transactionIndex": "0x51",
          "logIndex": "0x2e2",
          "removed": false
        }
      ],
      "logsBloom": "0x00000000000000000020000008000000000000000000000000000000000000000000000000000000000000400000000000000000000000000000000000000000000000000000000000000008000000000000000000000000000000000000000008000000020000000000000000000800000000000000000000000010100000000000000000000000000000000000000000000000000000000000000000000000000000000000000000000000000000000000000000000000000000000000000000000002000000000000000000000000000000000000100000000000000020000000000000000000000000000000000000000000000000000000000000000000",
      "type": "0x2",
      "transactionHash": "0xcbe70253dd0ff85322a5993b64e97e26c6b6df646fdc4fb59160d5318c2ea43f",
      "transactionIndex": "0x51",
      "blockHash": "0x0b740345c0394e9a4bd571dfd9da61c609e470a673e6652d17ced1e0edf96dd8",
      "blockNumber": "0x180a7bf",
      "gasUsed": "0x966f",
      "effectiveGasPrice": "0xbc2db53",
      "from": "0xcad1a7864a108dbff67f4b8af71fab0c7a86d0b6",
      "to": "0xf3b5b661b92b75c71fa5aba8fd95d7514a9cd605",
      "contractAddress": null
    },
    {
      "status": "0x1",
      "cumulativeGasUsed": "0x14c01d7",
      "logs": [
        {
          "address": "0x4ef0fde49360ed31c68ed442ff263cc6291041f3",
          "topics": [
            "0x6c1669a9d4dde92eb8b509697810f4688f8e6a2fe69dc291ccfcf3a0f9c3a2ff",
            "0x0000000000000000000000000000000000000000000000000000000000000000"
          ],
          "data": "0x",
          "blockHash": "0x389e39e45f214578794d75a335cceaf874f3a974b596414c2a952987ed3785d4",
          "blockNumber": "0x180a7c0",
          "blockTimestamp": "0x6a1af317",
          "transactionHash": "0x9b26ab6d1b5819dd2274b012e9539d23a68318acaf069642ce876df105cfef6b",
          "transactionIndex": "0xb5",
          "logIndex": "0x2ce",
          "removed": false
        }
      ],
      "logsBloom": "0x00000000000000000000000000000000000000000000000000000000000000000000000000000000000000000000000000000000000000000000000000000000000000000000000000000000000000000000000000100000000000008000000000000000020000000000000000000800000000000000000000000000000000000000000008000000000000080000000000000000000000000000000000000001000000000000000000000000000000000000000000000000000000000000000000000000000000000000000000000000000000000000000000000000000030000000000000000000000000000000000000000000000000000000000000000000",
      "type": "0x2",
      "transactionHash": "0x9b26ab6d1b5819dd2274b012e9539d23a68318acaf069642ce876df105cfef6b",
      "transactionIndex": "0xb5",
      "blockHash": "0x389e39e45f214578794d75a335cceaf874f3a974b596414c2a952987ed3785d4",
      "blockNumber": "0x180a7c0",
      "gasUsed": "0x6962",
      "effectiveGasPrice": "0xc6d57b4",
      "from": "0xcad1a7864a108dbff67f4b8af71fab0c7a86d0b6",
      "to": "0x4ef0fde49360ed31c68ed442ff263cc6291041f3",
      "contractAddress": null
    },
    {
      "status": "0x1",
      "cumulativeGasUsed": "0x132d332",
      "logs": [
        {
          "address": "0x4ef0fde49360ed31c68ed442ff263cc6291041f3",
          "topics": [
            "0xf435fc90cf0d233d2031e34c7e0a6bcbd6c56f749449163e019be8da37a0f59e"
          ],
          "data": "0x0000000000000000000000000000000000000000000000000000000000000000",
          "blockHash": "0x6b6f625f675206326f1a60eaf9518350f98c20d8f2f2a5d00c92df5344555de2",
          "blockNumber": "0x180a7c1",
          "blockTimestamp": "0x6a1af323",
          "transactionHash": "0x406c2479d639ebc1f5702a9515bc58bbb5a50c35f56488671b44d5c18547fb02",
          "transactionIndex": "0xc3",
          "logIndex": "0x1dd",
          "removed": false
        }
      ],
      "logsBloom": "0x00000000000000000000000000000000000000000000000000000000000000000000000000000000000000000000000000000000000000000000000000000000000000000000000000000000000000000000000000000000000000008000000000000001000000000000000000000000000000000000000000000000000000000000000000000000000000080000000000000000010000000000000000000001000000000000000000000000000000000000000000000000000000000000000000000000000000000000000000000000000000002000000000000000000000000000000000000000000000000000000000000000000000000000000000000000",
      "type": "0x2",
      "transactionHash": "0x406c2479d639ebc1f5702a9515bc58bbb5a50c35f56488671b44d5c18547fb02",
      "transactionIndex": "0xc3",
      "blockHash": "0x6b6f625f675206326f1a60eaf9518350f98c20d8f2f2a5d00c92df5344555de2",
      "blockNumber": "0x180a7c1",
      "gasUsed": "0x68f4",
      "effectiveGasPrice": "0xc171f11",
      "from": "0xcad1a7864a108dbff67f4b8af71fab0c7a86d0b6",
      "to": "0x4ef0fde49360ed31c68ed442ff263cc6291041f3",
      "contractAddress": null
    }
  ],
  "libraries": [],
  "pending": [],
  "returns": {},
  "timestamp": 1780151077821,
  "chain": 1,
  "commit": "912a33d"
}