{
  "transactions": [
    {
      "hash": "0x0e86f7a216ae0ae0311ce1420fa99f8cfb8ccad7ffb38f924912bae1c7674a6e",
      "transactionType": "CREATE",
      "contractName": "BatchNFTMinter",
      "contractAddress": "0x86866e01a115c17892ed04c548f2e8638851029d",
      "function": null,
      "arguments": [
        "0xCad1a7864a108DBFF67F4b8af71fAB0C7A86D0B6"
      ],
      "transaction": {
        "from": "0xcad1a7864a108dbff67f4b8af71fab0c7a86d0b6",
        "value": "0x0",
        "input": "0x60803460b857601f61140c38819003918201601f19168301916001600160401b0383118484101760bc5780849260209460405283398101031260b857516001600160a01b0381169081900360b857801560a5575f80546001600160a01b031981168317825560405192916001600160a01b03909116907f8be0079c531659141344cd1fd0a4f28419497f9722a3daafe3b4186f6b6457e09080a361133b90816100d18239f35b631e4fbdf760e01b5f525f60045260245ffd5b5f80fd5b634e487b7160e01b5f52604160045260245ffdfe60806040526004361015610011575f80fd5b5f3560e01c8063047a6afd146107b95780632d88af4a146107195780633f4ba83a1461066057806357551456146106435780635c975abb1461061f578063715018a6146105a357806372ad53751461057057806378533e90146104e6578063805ea807146104a05780638456cb59146103fc5780638a6db74f146103df5780638da5cb5b146103ad5780639fd0506d1461037a578063b2118a8d146102b7578063cb1fd8c814610230578063cfb3647b146101fd578063f2fde38b1461012f5763f79dbe9e146100df575f80fd5b3461012b57602060031936011261012b577ff435fc90cf0d233d2031e34c7e0a6bcbd6c56f749449163e019be8da37a0f59e602060043561011e61115e565b80600355604051908152a1005b5f80fd5b3461012b57602060031936011261012b5773ffffffffffffffffffffffffffffffffffffffff61015d610f1e565b61016561115e565b1680156101d15773ffffffffffffffffffffffffffffffffffffffff5f54827fffffffffffffffffffffffff00000000000000000000000000000000000000008216175f55167f8be0079c531659141344cd1fd0a4f28419497f9722a3daafe3b4186f6b6457e05f80a3005b7f1e4fbdf7000000000000000000000000000000000000000000000000000000005f525f60045260245ffd5b3461012b575f60031936011261012b57602073ffffffffffffffffffffffffffffffffffffffff60015416604051908152f35b3461012b57602060031936011261012b5773ffffffffffffffffffffffffffffffffffffffff61025e610f1e565b61026661115e565b16807fffffffffffffffffffffffff000000000000000000000000000000000000000060045416176004557f6c1669a9d4dde92eb8b509697810f4688f8e6a2fe69dc291ccfcf3a0f9c3a2ff5f80a2005b3461012b57606060031936011261012b5760043573ffffffffffffffffffffffffffffffffffffffff811680820361012b576102f1610efb565b604435926102fd61115e565b73ffffffffffffffffffffffffffffffffffffffff821693841561035257610349817f3af790fafda720819b2fc6e15090606e81154e0ac9a92d38ecad006d99d20ecc9460209461109d565b604051908152a3005b7ff398cbc6000000000000000000000000000000000000000000000000000000005f5260045ffd5b3461012b575f60031936011261012b57602073ffffffffffffffffffffffffffffffffffffffff60055416604051908152f35b3461012b575f60031936011261012b57602073ffffffffffffffffffffffffffffffffffffffff5f5416604051908152f35b3461012b575f60031936011261012b576020600254604051908152f35b3461012b575f60031936011261012b5761042f73ffffffffffffffffffffffffffffffffffffffff600554163314610fdd565b610437611067565b740100000000000000000000000000000000000000007fffffffffffffffffffffff00ffffffffffffffffffffffffffffffffffffffff5f5416175f557f62e78cea01bee320cd4e420270b5ea74000d11b0c9f74754ebdbfc544b05a2586020604051338152a1005b3461012b57602060031936011261012b576004356104bc61115e565b806002557fdce5de46b982ee4736044da409b40c339262fedb577d7e0e1f7ad95323b0d85f5f80a2005b3461012b57602060031936011261012b5760043573ffffffffffffffffffffffffffffffffffffffff811680910361012b5761052061115e565b807fffffffffffffffffffffffff000000000000000000000000000000000000000060015416176001557f1370a2648b99fa68e1d4d7ccf25da63193ac3140c449433f448311c1a5d402365f80a2005b3461012b575f60031936011261012b57602073ffffffffffffffffffffffffffffffffffffffff60045416604051908152f35b3461012b575f60031936011261012b576105bb61115e565b5f73ffffffffffffffffffffffffffffffffffffffff81547fffffffffffffffffffffffff000000000000000000000000000000000000000081168355167f8be0079c531659141344cd1fd0a4f28419497f9722a3daafe3b4186f6b6457e08280a3005b3461012b575f60031936011261012b57602060ff5f5460a01c166040519015158152f35b3461012b575f60031936011261012b576020600354604051908152f35b3461012b575f60031936011261012b5761069373ffffffffffffffffffffffffffffffffffffffff600554163314610fdd565b5f5460ff8160a01c16156106f1577fffffffffffffffffffffff00ffffffffffffffffffffffffffffffffffffffff165f557f5db9ee0a495bf2e6ff9c91a7834c1ba4fdd244a5e8aa4e537bd38aeae4b073aa6020604051338152a1005b7f8dfc202b000000000000000000000000000000000000000000000000000000005f5260045ffd5b3461012b57602060031936011261012b57610732610f1e565b61073a61115e565b7fffffffffffffffffffffffff000000000000000000000000000000000000000073ffffffffffffffffffffffffffffffffffffffff6005549216918273ffffffffffffffffffffffffffffffffffffffff82167f95bb211a5a393c4d30c3edc9a745825fba4e6ad3e3bb949e6bf8ccdfe431a8115f80a31617600555005b3461012b57608060031936011261012b576004356107d5610efb565b604435916064356107e4611067565b8115610ed35773ffffffffffffffffffffffffffffffffffffffff8316908115610eab5773ffffffffffffffffffffffffffffffffffffffff60015416938415610e8357600254918215610e00576040517e98fa220000000000000000000000000000000000000000000000000000000081528360048201526080816024818a5afa8015610ad5575f90610e28575b73ffffffffffffffffffffffffffffffffffffffff9150168015610e00576020600491604051928380927ffe5a451a0000000000000000000000000000000000000000000000000000000082525afa8015610ad5575f90610db3575b73ffffffffffffffffffffffffffffffffffffffff9150169573ffffffffffffffffffffffffffffffffffffffff600454169586151594858096610daa575b610d825789896003545f988115159182610d77575b5081610d6f575b50610ce3575b5f60648180602094604051967f23b872dd00000000000000000000000000000000000000000000000000000000835233600452306024526044525af19060015f5114821615610cc2575b6040525f60605215610c96576109b17fffffffffffffffffffffffffffffffffffffffffffffffffffffffffffffffff848b6111aa565b15610c57575b5f5b828110610bcc575050506109ce5f82896111aa565b15610b4f575b50808310610b1f575081610ae0575b50505050604051907f70a08231000000000000000000000000000000000000000000000000000000008252306004830152602082602481845afa918215610ad5575f92610aa1575b50620f4240820415610a975781610a4391339061109d565b80821115610a8d578103908111610a60576020905b604051908152f35b7f4e487b71000000000000000000000000000000000000000000000000000000005f52601160045260245ffd5b505060205f610a58565b5050602090610a58565b9091506020813d602011610acd575b81610abd60209383610f41565b8101031261012b57519083610a2b565b3d9150610ab0565b6040513d5f823e3d90fd5b81610b0f7fd14d2c791164ea474a06eb987fa9fb219324ccf890a9ab0322f2f98b55f1994a936020938761109d565b604051908152a3828080806109e3565b90507f5967fc64000000000000000000000000000000000000000000000000000000005f5260045260245260445ffd5b610b59818861121e565b15610ba0575f610b6991886112a3565b15610b7457876109d4565b857f5274afe7000000000000000000000000000000000000000000000000000000005f5260045260245ffd5b867f5274afe7000000000000000000000000000000000000000000000000000000005f5260045260245ffd5b604051907f94bf804d0000000000000000000000000000000000000000000000000000000082528260048301528860248301526020826044815f895af18015610ad557610c1e575b60019150016109b9565b6020823d8211610c4f575b81610c3660209383610f41565b8101031261012b57610c49600192610fd0565b50610c14565b3d9150610c29565b610c61838a61121e565b15610c9657610c917fffffffffffffffffffffffffffffffffffffffffffffffffffffffffffffffff848b6112a3565b6109b7575b887f5274afe7000000000000000000000000000000000000000000000000000000005f5260045260245ffd5b906001811516610cda578a3b15153d1516169061097a565b503d5f823e3d90fd5b50506040517f70a0823100000000000000000000000000000000000000000000000000000000815230600482015295506020866024818b5afa958615610ad55789968b915f91610d35575b5096610930565b975050506020863d602011610d67575b81610d5260209383610f41565b8101031261012b5794518895908a905f610d2e565b3d9150610d45565b90508d61092a565b86101591508e610923565b7f235621ef000000000000000000000000000000000000000000000000000000005f5260045ffd5b5088881461090e565b506020813d602011610df8575b81610dcd60209383610f41565b8101031261012b57610df373ffffffffffffffffffffffffffffffffffffffff91610faf565b6108cf565b3d9150610dc0565b7fc28911f1000000000000000000000000000000000000000000000000000000005f5260045ffd5b506080813d608011610e7b575b81610e4260809383610f41565b8101031261012b5780610e756060610e6e73ffffffffffffffffffffffffffffffffffffffff94610faf565b9201610fd0565b50610873565b3d9150610e35565b7f5ce494db000000000000000000000000000000000000000000000000000000005f5260045ffd5b7f485177f3000000000000000000000000000000000000000000000000000000005f5260045ffd5b7fc0140d03000000000000000000000000000000000000000000000000000000005f5260045ffd5b6024359073ffffffffffffffffffffffffffffffffffffffff8216820361012b57565b6004359073ffffffffffffffffffffffffffffffffffffffff8216820361012b57565b90601f7fffffffffffffffffffffffffffffffffffffffffffffffffffffffffffffffe0910116810190811067ffffffffffffffff821117610f8257604052565b7f4e487b71000000000000000000000000000000000000000000000000000000005f52604160045260245ffd5b519073ffffffffffffffffffffffffffffffffffffffff8216820361012b57565b5190811515820361012b57565b15610fe457565b60846040517f08c379a0000000000000000000000000000000000000000000000000000000008152602060048201526024808201527f42617463684e46544d696e7465723a2063616c6c6572206973206e6f7420706160448201527f75736572000000000000000000000000000000000000000000000000000000006064820152fd5b60ff5f5460a01c1661107557565b7fd93c0665000000000000000000000000000000000000000000000000000000005f5260045ffd5b9173ffffffffffffffffffffffffffffffffffffffff604051927fa9059cbb000000000000000000000000000000000000000000000000000000005f521660045260245260205f60448180865af19060015f5114821615611146575b604052156111045750565b73ffffffffffffffffffffffffffffffffffffffff907f5274afe7000000000000000000000000000000000000000000000000000000005f521660045260245ffd5b906001811516610cda57823b15153d151616906110f9565b73ffffffffffffffffffffffffffffffffffffffff5f5416330361117e57565b7f118cdaa7000000000000000000000000000000000000000000000000000000005f523360045260245ffd5b929173ffffffffffffffffffffffffffffffffffffffff604051927f095ea7b3000000000000000000000000000000000000000000000000000000005f521660045260245260205f60448180875af19260015f511484161561120d575b50604052565b3d15903b151516909216915f611207565b919073ffffffffffffffffffffffffffffffffffffffff604051917f095ea7b3000000000000000000000000000000000000000000000000000000005f52166004525f60245260205f60448180875af19260015f51148416156112815750604052565b6001849294151661129a573b15153d151616915f611207565b833d5f823e3d90fd5b929173ffffffffffffffffffffffffffffffffffffffff604051927f095ea7b3000000000000000000000000000000000000000000000000000000005f521660045260245260205f60448180875af19260015f5114841615611281575060405256fea2646970667358221220aa04ae6d5bf8c536ddf8b07e3d384e725198b7958f6fa050e403f25c4b45581364736f6c634300081e0033000000000000000000000000cad1a7864a108dbff67f4b8af71fab0c7a86d0b6",
        "nonce": "0x2d1",
        "chainId": "0x1"
      },
      "additionalContracts": [],
      "isFixedGasLimit": false
    },
    {
      "hash": "0x6ed403455ba3582a4f40bbc7330b7d21234f438e64335b01838c10151e46158c",
      "transactionType": "CALL",
      "contractName": "BatchNFTMinter",
      "contractAddress": "0x86866e01a115c17892ed04c548f2e8638851029d",
      "function": "setTokenMinter(address)",
      "arguments": [
        "0x39Af088408e815844c567037C157B31d48d2E10F"
      ],
      "transaction": {
        "from": "0xcad1a7864a108dbff67f4b8af71fab0c7a86d0b6",
        "to": "0x86866e01a115c17892ed04c548f2e8638851029d",
        "value": "0x0",
        "input": "0x78533e9000000000000000000000000039af088408e815844c567037c157b31d48d2e10f",
        "nonce": "0x2d2",
        "chainId": "0x1"
      },
      "additionalContracts": [],
      "isFixedGasLimit": false
    },
    {
      "hash": "0xe520baaaeb03550c808c8a60d68e3db86673d0286033fd046bd8ccdd0c37fdcd",
      "transactionType": "CALL",
      "contractName": "BatchNFTMinter",
      "contractAddress": "0x86866e01a115c17892ed04c548f2e8638851029d",
      "function": "setDispatcherIndex(uint256)",
      "arguments": [
        "4"
      ],
      "transaction": {
        "from": "0xcad1a7864a108dbff67f4b8af71fab0c7a86d0b6",
        "to": "0x86866e01a115c17892ed04c548f2e8638851029d",
        "value": "0x0",
        "input": "0x805ea8070000000000000000000000000000000000000000000000000000000000000004",
        "nonce": "0x2d3",
        "chainId": "0x1"
      },
      "additionalContracts": [],
      "isFixedGasLimit": false
    },
    {
      "hash": "0x71fead7af6320cda75a3db765310b08661b52866b37c527de6239e318a8f77dc",
      "transactionType": "CALL",
      "contractName": "BatchNFTMinter",
      "contractAddress": "0x86866e01a115c17892ed04c548f2e8638851029d",
      "function": "setNudgePaymentToken(address)",
      "arguments": [
        "0xA0b86991c6218b36c1d19D4a2e9Eb0cE3606eB48"
      ],
      "transaction": {
        "from": "0xcad1a7864a108dbff67f4b8af71fab0c7a86d0b6",
        "to": "0x86866e01a115c17892ed04c548f2e8638851029d",
        "value": "0x0",
        "input": "0xcb1fd8c8000000000000000000000000a0b86991c6218b36c1d19d4a2e9eb0ce3606eb48",
        "nonce": "0x2d4",
        "chainId": "0x1"
      },
      "additionalContracts": [],
      "isFixedGasLimit": false
    },
    {
      "hash": "0x190892fbf779ba5b11dfc148baa65a4a6ca9e10d2b687e2fa9d9d080d6b75ece",
      "transactionType": "CALL",
      "contractName": "BatchNFTMinter",
      "contractAddress": "0x86866e01a115c17892ed04c548f2e8638851029d",
      "function": "setNudgeSize(uint256)",
      "arguments": [
        "40"
      ],
      "transaction": {
        "from": "0xcad1a7864a108dbff67f4b8af71fab0c7a86d0b6",
        "to": "0x86866e01a115c17892ed04c548f2e8638851029d",
        "value": "0x0",
        "input": "0xf79dbe9e0000000000000000000000000000000000000000000000000000000000000028",
        "nonce": "0x2d5",
        "chainId": "0x1"
      },
      "additionalContracts": [],
      "isFixedGasLimit": false
    },
    {
      "hash": "0x05ed48ad271cc34588fa8c58a232b0a249ccd927df033597b5c923e3edc958b2",
      "transactionType": "CALL",
      "contractName": null,
      "contractAddress": "0x3bbe928340c61a65cb6c4a87b3fb59b6f3f7606a",
      "function": "setNudgeAddress(address)",
      "arguments": [
        "0x86866e01a115C17892Ed04c548F2e8638851029d"
      ],
      "transaction": {
        "from": "0xcad1a7864a108dbff67f4b8af71fab0c7a86d0b6",
        "to": "0x3bbe928340c61a65cb6c4a87b3fb59b6f3f7606a",
        "value": "0x0",
        "input": "0x2fbe683900000000000000000000000086866e01a115c17892ed04c548f2e8638851029d",
        "nonce": "0x2d6",
        "chainId": "0x1"
      },
      "additionalContracts": [],
      "isFixedGasLimit": false
    },
    {
      "hash": "0x7ed166355604596895de9255dfd9b8c1c4d012eab5f5e8dc755b623ea3659d1d",
      "transactionType": "CALL",
      "contractName": null,
      "contractAddress": "0x7f74388bc970de5e2822036a1ad06fccd156786b",
      "function": "setBatchMinter(address)",
      "arguments": [
        "0x86866e01a115C17892Ed04c548F2e8638851029d"
      ],
      "transaction": {
        "from": "0xcad1a7864a108dbff67f4b8af71fab0c7a86d0b6",
        "to": "0x7f74388bc970de5e2822036a1ad06fccd156786b",
        "value": "0x0",
        "input": "0xb1db904400000000000000000000000086866e01a115c17892ed04c548f2e8638851029d",
        "nonce": "0x2d7",
        "chainId": "0x1"
      },
      "additionalContracts": [],
      "isFixedGasLimit": false
    },
    {
      "hash": "0xbc27b9b4704d5e969ce6f05cdcc57f0db16f5db81de4ea3cd44efdaf84e46d82",
      "transactionType": "CALL",
      "contractName": null,
      "contractAddress": "0x6e9886afdf07dd67dc70b8335e4e9df14b445071",
      "function": "rescueERC20(address,address,uint256)",
      "arguments": [
        "0xA0b86991c6218b36c1d19D4a2e9Eb0cE3606eB48",
        "0x86866e01a115C17892Ed04c548F2e8638851029d",
        "148153246"
      ],
      "transaction": {
        "from": "0xcad1a7864a108dbff67f4b8af71fab0c7a86d0b6",
        "to": "0x6e9886afdf07dd67dc70b8335e4e9df14b445071",
        "value": "0x0",
        "input": "0xb2118a8d000000000000000000000000a0b86991c6218b36c1d19d4a2e9eb0ce3606eb4800000000000000000000000086866e01a115c17892ed04c548f2e8638851029d0000000000000000000000000000000000000000000000000000000008d4a39e",
        "nonce": "0x2d8",
        "chainId": "0x1"
      },
      "additionalContracts": [],
      "isFixedGasLimit": false
    },
    {
      "hash": "0x72163496e70a9bd73693b829ceca783dde75bb9bf0232ebd4ba1558814b52f2a",
      "transactionType": "CALL",
      "contractName": null,
      "contractAddress": "0x7f74388bc970de5e2822036a1ad06fccd156786b",
      "function": "setBatchDonationSize(uint256)",
      "arguments": [
        "15"
      ],
      "transaction": {
        "from": "0xcad1a7864a108dbff67f4b8af71fab0c7a86d0b6",
        "to": "0x7f74388bc970de5e2822036a1ad06fccd156786b",
        "value": "0x0",
        "input": "0xa1d65e39000000000000000000000000000000000000000000000000000000000000000f",
        "nonce": "0x2d9",
        "chainId": "0x1"
      },
      "additionalContracts": [],
      "isFixedGasLimit": false
    },
    {
      "hash": "0xe3838db320f745c41ebc6b439e4fab70d7304e59b366ff2cb377e8888e6b6c68",
      "transactionType": "CALL",
      "contractName": null,
      "contractAddress": "0x6e9886afdf07dd67dc70b8335e4e9df14b445071",
      "function": "setNudgePaymentToken(address)",
      "arguments": [
        "0x0000000000000000000000000000000000000000"
      ],
      "transaction": {
        "from": "0xcad1a7864a108dbff67f4b8af71fab0c7a86d0b6",
        "to": "0x6e9886afdf07dd67dc70b8335e4e9df14b445071",
        "value": "0x0",
        "input": "0xcb1fd8c80000000000000000000000000000000000000000000000000000000000000000",
        "nonce": "0x2da",
        "chainId": "0x1"
      },
      "additionalContracts": [],
      "isFixedGasLimit": false
    },
    {
      "hash": "0x6338f9eb0554ef8b48e16fe7c276feaa2c58d786fdbb4993de22b7b512e5d469",
      "transactionType": "CALL",
      "contractName": null,
      "contractAddress": "0x6e9886afdf07dd67dc70b8335e4e9df14b445071",
      "function": "setNudgeSize(uint256)",
      "arguments": [
        "0"
      ],
      "transaction": {
        "from": "0xcad1a7864a108dbff67f4b8af71fab0c7a86d0b6",
        "to": "0x6e9886afdf07dd67dc70b8335e4e9df14b445071",
        "value": "0x0",
        "input": "0xf79dbe9e0000000000000000000000000000000000000000000000000000000000000000",
        "nonce": "0x2db",
        "chainId": "0x1"
      },
      "additionalContracts": [],
      "isFixedGasLimit": false
    },
    {
      "hash": "0xdc40fc3c39bc4153e13cb07755a28f4dc65d30ad3dc3c633a590ae06735ec514",
      "transactionType": "CREATE",
      "contractName": "BufferPrefillHelper",
      "contractAddress": "0xff54d6de4abc7b9f0ee12202f7a3b177a09ac5a0",
      "function": null,
      "arguments": [
        "(0xCad1a7864a108DBFF67F4b8af71fAB0C7A86D0B6, 0xf3B5B661b92B75C71fA5Aba8Fd95D7514A9CD605, 0xa3931d71877C0E7a3148CB7Eb4463524FEc27fbD, 0xdC035D45d973E3EC169d2276DDab16f1e407384F, 0xA0b86991c6218b36c1d19D4a2e9Eb0cE3606eB48, 0x4c9EDD5852cd905f086C759E8383e09bff1E68B3, 0x865377367054516e17014CcdED1e7d814EDC9ce4, 0x642BB6860b4776CC10b26B8f361Fd139E7f0db04, 0x5C6fb490BDFD3246EB0bB062c168DeCAF4bD9FDd, 0x000000000022D473030F116dDEE9F6B43aC78BA3, 0xA188EEC8F81263234dA3622A406892F3D630f98c, 0x02950460E2b9529D0E00284A5fA2d7bDF3fA4d72, 0xAA5A67c256e27A5d80712c51971408db3370927D, 0xbce8ABC09BaEDCabE93419bF875f6186e182079A)"
      ],
      "transaction": {
        "from": "0xcad1a7864a108dbff67f4b8af71fab0c7a86d0b6",
        "value": "0x0",
        "input": "0x6102406040523461031057604051601f611f3938819003918201601f19168301916001600160401b038311848410176102fc578084926101c09460405283398101031261031057604051906101c082016001600160401b038111838210176102fc578291829160405261007181610314565b80835261008060208301610314565b6020840190815261009360408401610314565b604085019081526100a660608501610314565b606086019081526100b960808601610314565b608087019081526100cc60a08701610314565b60a08801908152906100e060c08801610314565b60c08901908152926100f460e08901610314565b60e08a01908152946101096101008a01610314565b6101008b019081529661011f6101208b01610314565b6101208c01908152986101356101408c01610314565b6101408d019081529a61014b6101608201610314565b9c610160019c8d52610180810161016190610314565b9d610180019d8e526101a00161017690610314565b6101a09e8f019081526001600160a01b039182166080529151811660a0529151821660c0529151811660e0529151821661010052915181166101205291518216610140529151811661016052915182166101805291518116909552905184166101c052905183166101e0529051821661020052511661022052604051611c109081610329823960805181818161021d01526111f7015260a05181818161029701526111a7015260c0518181816103e301526112e7015260e051818181610a0e01528181611337015261175a0152610100518181816106900152818161138701526116c701526101205181818161070c0152611425015261014051818181610143015261089f01526101605181818161045c015261124701526101805181818160ef015261037101526101a0518181816102ba01526113d701526101c05181818161058a01528181611157015261178001526101e05181818161019401526106b30152610200518181816101e5015261085e01526102205181818161063f01526112970152f35b634e487b7160e01b5f52604160045260245ffd5b5f80fd5b51906001600160a01b03821682036103105756fe6080806040526004361015610012575f80fd5b5f905f3560e01c9081630fd761e0146113fb5750806312261ee7146113ab5780633e413bee1461135b5780634cf282fb1461130b57806358b8f19c146112bb5780635bdc08771461126b578063755f68211461121b5780638da5cb5b146111cb5780639cb9a2951461117b578063a43c32ef1461112b578063c0137f7a14610209578063e50006c6146101b8578063e7ca8c1914610167578063ea0593e4146101165763eea52e2c146100c3575f80fd5b34610113578060031936011261011357602060405173ffffffffffffffffffffffffffffffffffffffff7f0000000000000000000000000000000000000000000000000000000000000000168152f35b80fd5b5034610113578060031936011261011357602060405173ffffffffffffffffffffffffffffffffffffffff7f0000000000000000000000000000000000000000000000000000000000000000168152f35b5034610113578060031936011261011357602060405173ffffffffffffffffffffffffffffffffffffffff7f0000000000000000000000000000000000000000000000000000000000000000168152f35b5034610113578060031936011261011357602060405173ffffffffffffffffffffffffffffffffffffffff7f0000000000000000000000000000000000000000000000000000000000000000168152f35b5034610acf576080600319360112610acf577f00000000000000000000000000000000000000000000000000000000000000009060643560443560043560243573ffffffffffffffffffffffffffffffffffffffff861633036110e75781156110a357801561105f5782151580611056575b156110125773ffffffffffffffffffffffffffffffffffffffff7f000000000000000000000000000000000000000000000000000000000000000016917f00000000000000000000000000000000000000000000000000000000000000006103047fffffffffffffffffffffffffffffffffffffffffffffffffffffffffffffffff8286611a7f565b15610fa7575b73ffffffffffffffffffffffffffffffffffffffff1690813b15610acf576040517f87517c450000000000000000000000000000000000000000000000000000000081528460048201525f816084818373ffffffffffffffffffffffffffffffffffffffff7f0000000000000000000000000000000000000000000000000000000000000000169788602484015273ffffffffffffffffffffffffffffffffffffffff604484015265ffffffffffff60648401525af18015610f9c57610f87575b5073ffffffffffffffffffffffffffffffffffffffff7f0000000000000000000000000000000000000000000000000000000000000000169361012c420192834211610f5a5760209291896101249260405196879586947f750283bc00000000000000000000000000000000000000000000000000000000865273ffffffffffffffffffffffffffffffffffffffff7f000000000000000000000000000000000000000000000000000000000000000016600487015260248601528a6044860152606485015288608485015260a48401528160c484015261010060e4840152816101048401525af1908115610b61578691610f28575b5010610ee4576040517f70a08231000000000000000000000000000000000000000000000000000000008152306004820152602081602481855afa908115610ed957908592918391610ea1575b5090606460209260405194859384927fba08765200000000000000000000000000000000000000000000000000000000845260048401523060248401523060448401525af1908115610e96578491610e64575b508015610e205760039004928315610ddc5773ffffffffffffffffffffffffffffffffffffffff7f000000000000000000000000000000000000000000000000000000000000000016916040517ffae036d5000000000000000000000000000000000000000000000000000000008152602081600481875afa908115610d5b578391610daa575b50662386f26fc100008111610d66576020600494604051958680927f4010f7770000000000000000000000000000000000000000000000000000000082525afa938415610d5b578394610d27575b508315610ce3577f00000000000000000000000000000000000000000000000000000000000000009161066b8386848a611632565b9661067830878584611632565b9573ffffffffffffffffffffffffffffffffffffffff7f000000000000000000000000000000000000000000000000000000000000000016937f0000000000000000000000000000000000000000000000000000000000000000936106de8986886115bf565b6040517f70a082310000000000000000000000000000000000000000000000000000000081523060048201527f000000000000000000000000000000000000000000000000000000000000000073ffffffffffffffffffffffffffffffffffffffff16956020826024818a5afa918215610c6357908a918293610cac575b5060208c6084620f424061077088846114b7565b049160405195869384927f3df02124000000000000000000000000000000000000000000000000000000008452600160048501528260248501526044840152606483015273ffffffffffffffffffffffffffffffffffffffff86165af18015610ca157610c6e575b6107e3915088611504565b6040517f70a082310000000000000000000000000000000000000000000000000000000081523060048201526020816024818a5afa908115610c63578a91610c2d575b509161083961083f92620f4240946114f7565b9a6114b7565b048810610be957610854888761085b966119f7565b3092611632565b947f00000000000000000000000000000000000000000000000000000000000000006108888782856115bf565b73ffffffffffffffffffffffffffffffffffffffff7f00000000000000000000000000000000000000000000000000000000000000001692604051917f70a08231000000000000000000000000000000000000000000000000000000008352306004840152602083602481885afa928315610bde578793610baa575b50620f4240610913858b6114b7565b0491604051927fa6417ed6000000000000000000000000000000000000000000000000000000008452600260048501528860248501528a604485015260648401526020836084818b73ffffffffffffffffffffffffffffffffffffffff87165af18015610b9f57610b6c575b6109899250611504565b6040517f70a08231000000000000000000000000000000000000000000000000000000008152306004820152602081602481875afa908115610b61578691610b2b575b50916109df6109e592620f4240946114f7565b976114b7565b048510610ae7576109f79185916119f7565b73ffffffffffffffffffffffffffffffffffffffff7f00000000000000000000000000000000000000000000000000000000000000001690604051957f70a08231000000000000000000000000000000000000000000000000000000008752306004880152602087602481865afa918215610adb5791610aa2575b6060965081610a91575b50505060405192835260208301526040820152f35b610a9a926119f7565b5f8080610a7c565b90506020863d602011610ad3575b81610abd60209383611449565b81010312610acf576060955190610a72565b5f80fd5b3d9150610ab0565b604051903d90823e3d90fd5b606460405162461bcd60e51b815260206004820152601060248201527f444f4c412062656c6f7720666c6f6f72000000000000000000000000000000006044820152fd5b9290506020833d602011610b59575b81610b4760209383611449565b81010312610acf5791516109df6109cc565b3d9150610b3a565b6040513d88823e3d90fd5b6020833d602011610b97575b81610b8560209383611449565b81010312610acf57610989925061097f565b3d9150610b78565b6040513d8a823e3d90fd5b9092506020813d602011610bd6575b81610bc660209383611449565b81010312610acf5751915f610904565b3d9150610bb9565b6040513d89823e3d90fd5b606460405162461bcd60e51b815260206004820152601060248201527f555344652062656c6f7720666c6f6f72000000000000000000000000000000006044820152fd5b9290506020833d602011610c5b575b81610c4960209383611449565b81010312610acf579151610839610826565b3d9150610c3c565b6040513d8c823e3d90fd5b6020823d602011610c99575b81610c8760209383611449565b81010312610acf576107e391506107d8565b3d9150610c7a565b6040513d8d823e3d90fd5b915091506020813d602011610cdb575b81610cc960209383611449565b81010312610acf57899051915f61075c565b3d9150610cbc565b606460405162461bcd60e51b815260206004820152601960248201527f746f3138436f6e76657273696f6e466163746f72203d3d2030000000000000006044820152fd5b9093506020813d602011610d53575b81610d4360209383611449565b81010312610acf5751925f610636565b3d9150610d36565b6040513d85823e3d90fd5b606460405162461bcd60e51b815260206004820152601860248201527f6c6976652050534d20746f7574203e204d41585f544f555400000000000000006044820152fd5b90506020813d602011610dd4575b81610dc560209383611449565b81010312610acf57515f6105e8565b3d9150610db8565b606460405162461bcd60e51b815260206004820152601160248201527f746869726420726f756e647320746f20300000000000000000000000000000006044820152fd5b606460405162461bcd60e51b815260206004820152601660248201527f72656465656d2072657475726e656420302055534453000000000000000000006044820152fd5b90506020813d602011610e8e575b81610e7f60209383611449565b81010312610acf57515f610561565b3d9150610e72565b6040513d86823e3d90fd5b919250506020813d602011610ed1575b81610ebe60209383611449565b81010312610acf5751849190606461050e565b3d9150610eb1565b6040513d87823e3d90fd5b606460405162461bcd60e51b815260206004820152601760248201527f737761702062656c6f77206d696e416d6f756e744f75740000000000000000006044820152fd5b90506020813d602011610f52575b81610f4360209383611449565b81010312610acf57515f6104c1565b3d9150610f36565b6024897f4e487b710000000000000000000000000000000000000000000000000000000081526011600452fd5b610f949197505f90611449565b5f955f6103cb565b6040513d5f823e3d90fd5b610fb18185611af3565b15610fe657610fe17fffffffffffffffffffffffffffffffffffffffffffffffffffffffffffffffff8286611b78565b61030a575b837f5274afe7000000000000000000000000000000000000000000000000000000005f5260045260245ffd5b606460405162461bcd60e51b815260206004820152601260248201527f637572766520666c6f6f727320756e73657400000000000000000000000000006044820152fd5b5083151561027b565b606460405162461bcd60e51b815260206004820152601060248201527f7377617020666c6f6f7220756e736574000000000000000000000000000000006044820152fd5b606460405162461bcd60e51b815260206004820152600f60248201527f6e6f7468696e6720746f207377617000000000000000000000000000000000006044820152fd5b606460405162461bcd60e51b815260206004820152600a60248201527f6f6e6c79206f776e6572000000000000000000000000000000000000000000006044820152fd5b34610acf575f600319360112610acf57602060405173ffffffffffffffffffffffffffffffffffffffff7f0000000000000000000000000000000000000000000000000000000000000000168152f35b34610acf575f600319360112610acf57602060405173ffffffffffffffffffffffffffffffffffffffff7f0000000000000000000000000000000000000000000000000000000000000000168152f35b34610acf575f600319360112610acf57602060405173ffffffffffffffffffffffffffffffffffffffff7f0000000000000000000000000000000000000000000000000000000000000000168152f35b34610acf575f600319360112610acf57602060405173ffffffffffffffffffffffffffffffffffffffff7f0000000000000000000000000000000000000000000000000000000000000000168152f35b34610acf575f600319360112610acf57602060405173ffffffffffffffffffffffffffffffffffffffff7f0000000000000000000000000000000000000000000000000000000000000000168152f35b34610acf575f600319360112610acf57602060405173ffffffffffffffffffffffffffffffffffffffff7f0000000000000000000000000000000000000000000000000000000000000000168152f35b34610acf575f600319360112610acf57602060405173ffffffffffffffffffffffffffffffffffffffff7f0000000000000000000000000000000000000000000000000000000000000000168152f35b34610acf575f600319360112610acf57602060405173ffffffffffffffffffffffffffffffffffffffff7f0000000000000000000000000000000000000000000000000000000000000000168152f35b34610acf575f600319360112610acf57602060405173ffffffffffffffffffffffffffffffffffffffff7f0000000000000000000000000000000000000000000000000000000000000000168152f35b34610acf575f600319360112610acf5760209073ffffffffffffffffffffffffffffffffffffffff7f0000000000000000000000000000000000000000000000000000000000000000168152f35b90601f7fffffffffffffffffffffffffffffffffffffffffffffffffffffffffffffffe0910116810190811067ffffffffffffffff82111761148a57604052565b7f4e487b71000000000000000000000000000000000000000000000000000000005f52604160045260245ffd5b818102929181159184041417156114ca57565b7f4e487b71000000000000000000000000000000000000000000000000000000005f52601160045260245ffd5b919082039182116114ca57565b906115105f8284611a7f565b15611519575050565b6115238183611af3565b1561157d575f6115339183611b78565b1561153b5750565b73ffffffffffffffffffffffffffffffffffffffff907f5274afe7000000000000000000000000000000000000000000000000000000005f521660045260245ffd5b73ffffffffffffffffffffffffffffffffffffffff827f5274afe7000000000000000000000000000000000000000000000000000000005f521660045260245ffd5b91906115cc828285611a7f565b156115d657505050565b6115e08184611af3565b156115f057906115339183611b78565b73ffffffffffffffffffffffffffffffffffffffff837f5274afe7000000000000000000000000000000000000000000000000000000005f521660045260245ffd5b90919392670de0b6b3a7640000820292828404670de0b6b3a764000014831517156114ca57670de0b6b3a7640000019283670de0b6b3a7640000116114ca5761167b84876114b7565b9081156119ca5704928395841561198657670de0b6b3a7640000916116a36116a892876114b7565b6114b7565b049182116119425773ffffffffffffffffffffffffffffffffffffffff7f0000000000000000000000000000000000000000000000000000000000000000169173ffffffffffffffffffffffffffffffffffffffff604051927f70a0823100000000000000000000000000000000000000000000000000000000845216806004840152602083602481875afa928315610f9c575f9361190e575b5073ffffffffffffffffffffffffffffffffffffffff7f000000000000000000000000000000000000000000000000000000000000000016916117a77f00000000000000000000000000000000000000000000000000000000000000009182856115bf565b6040517f8d7ef9bb0000000000000000000000000000000000000000000000000000000081528260048201528660248201526020816044815f73ffffffffffffffffffffffffffffffffffffffff87165af18015610f9c576118da575b5061181190602093611504565b6024604051809581937f70a0823100000000000000000000000000000000000000000000000000000000835260048301525afa8015610f9c575f906118a6575b61185b92506114f7565b0361186257565b606460405162461bcd60e51b815260206004820152601460248201527f555344432064656c746120213d2067656d416d740000000000000000000000006044820152fd5b506020823d6020116118d2575b816118c060209383611449565b81010312610acf5761185b9151611851565b3d91506118b3565b906020823d602011611906575b816118f460209383611449565b81010312610acf579050611811611804565b3d91506118e7565b9092506020813d60201161193a575b8161192a60209383611449565b81010312610acf5751915f611742565b3d915061191d565b606460405162461bcd60e51b815260206004820152601f60248201527f50534d20776f756c642070756c6c206d6f7265207468616e20627564676574006044820152fd5b606460405162461bcd60e51b815260206004820152601260248201527f6c656720726f756e647320746f206475737400000000000000000000000000006044820152fd5b7f4e487b71000000000000000000000000000000000000000000000000000000005f52601260045260245ffd5b9173ffffffffffffffffffffffffffffffffffffffff604051927fa9059cbb000000000000000000000000000000000000000000000000000000005f521660045260245260205f60448180865af19060015f5114821615611a5e575b6040521561153b5750565b906001811516611a7657823b15153d15161690611a53565b503d5f823e3d90fd5b929173ffffffffffffffffffffffffffffffffffffffff604051927f095ea7b3000000000000000000000000000000000000000000000000000000005f521660045260245260205f60448180875af19260015f5114841615611ae2575b50604052565b3d15903b151516909216915f611adc565b919073ffffffffffffffffffffffffffffffffffffffff604051917f095ea7b3000000000000000000000000000000000000000000000000000000005f52166004525f60245260205f60448180875af19260015f5114841615611b565750604052565b60018492941516611b6f573b15153d151616915f611adc565b833d5f823e3d90fd5b929173ffffffffffffffffffffffffffffffffffffffff604051927f095ea7b3000000000000000000000000000000000000000000000000000000005f521660045260245260205f60448180875af19260015f5114841615611b56575060405256fea264697066735822122088141c1adefbc929d77c059fc42ad1456f83cfde356747039a5d5fb998a5d8d464736f6c634300081e0033000000000000000000000000cad1a7864a108dbff67f4b8af71fab0c7a86d0b6000000000000000000000000f3b5b661b92b75c71fa5aba8fd95d7514a9cd605000000000000000000000000a3931d71877c0e7a3148cb7eb4463524fec27fbd000000000000000000000000dc035d45d973e3ec169d2276ddab16f1e407384f000000000000000000000000a0b86991c6218b36c1d19d4a2e9eb0ce3606eb480000000000000000000000004c9edd5852cd905f086c759e8383e09bff1e68b3000000000000000000000000865377367054516e17014ccded1e7d814edc9ce4000000000000000000000000642bb6860b4776cc10b26b8f361fd139e7f0db040000000000000000000000005c6fb490bdfd3246eb0bb062c168decaf4bd9fdd000000000000000000000000000000000022d473030f116ddee9f6b43ac78ba3000000000000000000000000a188eec8f81263234da3622a406892f3d630f98c00000000000000000000000002950460e2b9529d0e00284a5fa2d7bdf3fa4d72000000000000000000000000aa5a67c256e27a5d80712c51971408db3370927d000000000000000000000000bce8abc09baedcabe93419bf875f6186e182079a",
        "nonce": "0x2dc",
        "chainId": "0x1"
      },
      "additionalContracts": [],
      "isFixedGasLimit": false
    },
    {
      "hash": "0xfa3268e419a250b905b32e4d876af672f9b425790eed0d6a553efdcff5c50c25",
      "transactionType": "CALL",
      "contractName": null,
      "contractAddress": "0xf3b5b661b92b75c71fa5aba8fd95d7514a9cd605",
      "function": "transfer(address,uint256)",
      "arguments": [
        "0xFf54D6De4abc7B9f0EE12202f7A3B177A09ac5A0",
        "24"
      ],
      "transaction": {
        "from": "0xcad1a7864a108dbff67f4b8af71fab0c7a86d0b6",
        "to": "0xf3b5b661b92b75c71fa5aba8fd95d7514a9cd605",
        "value": "0x0",
        "input": "0xa9059cbb000000000000000000000000ff54d6de4abc7b9f0ee12202f7a3b177a09ac5a00000000000000000000000000000000000000000000000000000000000000018",
        "nonce": "0x2dd",
        "chainId": "0x1"
      },
      "additionalContracts": [],
      "isFixedGasLimit": false
    },
    {
      "hash": "0xdb8e0b455ad224c8c92aad17be2e02ec50fedd73527b7a1354f4e8e6a2110fb3",
      "transactionType": "CALL",
      "contractName": null,
      "contractAddress": "0xf3b5b661b92b75c71fa5aba8fd95d7514a9cd605",
      "function": "mint(address,uint256)",
      "arguments": [
        "0xFf54D6De4abc7B9f0EE12202f7A3B177A09ac5A0",
        "99999999999999999976"
      ],
      "transaction": {
        "from": "0xcad1a7864a108dbff67f4b8af71fab0c7a86d0b6",
        "to": "0xf3b5b661b92b75c71fa5aba8fd95d7514a9cd605",
        "value": "0x0",
        "input": "0x40c10f19000000000000000000000000ff54d6de4abc7b9f0ee12202f7a3b177a09ac5a00000000000000000000000000000000000000000000000056bc75e2d630fffe8",
        "nonce": "0x2de",
        "chainId": "0x1"
      },
      "additionalContracts": [],
      "isFixedGasLimit": false
    },
    {
      "hash": "0xb5c19a9b127682817e039f03748cc41974a76a7f31ac962353495df7c666ff4b",
      "transactionType": "CALL",
      "contractName": "BufferPrefillHelper",
      "contractAddress": "0xff54d6de4abc7b9f0ee12202f7a3b177a09ac5a0",
      "function": "execute(uint256,uint256,uint256,uint256)",
      "arguments": [
        "100000000000000000000",
        "72070864035279623499",
        "990315662580922289",
        "994060770669091313"
      ],
      "transaction": {
        "from": "0xcad1a7864a108dbff67f4b8af71fab0c7a86d0b6",
        "to": "0xff54d6de4abc7b9f0ee12202f7a3b177a09ac5a0",
        "value": "0x0",
        "input": "0xc0137f7a0000000000000000000000000000000000000000000000056bc75e2d63100000000000000000000000000000000000000000000000000003e82f24fe0651554b0000000000000000000000000000000000000000000000000dbe4ed923a437b10000000000000000000000000000000000000000000000000dcb9d0110e1d9f1",
        "nonce": "0x2df",
        "chainId": "0x1"
      },
      "additionalContracts": [],
      "isFixedGasLimit": false
    }
  ],
  "receipts": [
    {
      "status": "0x1",
      "cumulativeGasUsed": "0x159c5f3",
      "logs": [
        {
          "address": "0x86866e01a115c17892ed04c548f2e8638851029d",
          "topics": [
            "0x8be0079c531659141344cd1fd0a4f28419497f9722a3daafe3b4186f6b6457e0",
            "0x0000000000000000000000000000000000000000000000000000000000000000",
            "0x000000000000000000000000cad1a7864a108dbff67f4b8af71fab0c7a86d0b6"
          ],
          "data": "0x",
          "blockHash": "0x34496b55e1c72ce54996f4491028bd63ccef25ab60b1a789a5f5a529f2ad71df",
          "blockNumber": "0x181d317",
          "blockTimestamp": "0x6a290ac7",
          "transactionHash": "0x0e86f7a216ae0ae0311ce1420fa99f8cfb8ccad7ffb38f924912bae1c7674a6e",
          "transactionIndex": "0xc0",
          "logIndex": "0x2a4",
          "removed": false
        }
      ],
      "logsBloom": "0x00000000000000000020000000000000000010000000000000800000000000000000000000000000200000400000000000000000000000000000000000000000000000000000000000000000000000000001000000000000000000000000000000000000020000000000000000000800000000000000000000000000000000400000000000000000000000000000000000000000000000000000000000000000000000000000000000000000000000000000000000000000000000000000000000000000000000000000000000000000000000000000100000000000000020000000000000000000000000000000000000000000000000000000000000004000",
      "type": "0x2",
      "transactionHash": "0x0e86f7a216ae0ae0311ce1420fa99f8cfb8ccad7ffb38f924912bae1c7674a6e",
      "transactionIndex": "0xc0",
      "blockHash": "0x34496b55e1c72ce54996f4491028bd63ccef25ab60b1a789a5f5a529f2ad71df",
      "blockNumber": "0x181d317",
      "gasUsed": "0x114d43",
      "effectiveGasPrice": "0x734fabd",
      "from": "0xcad1a7864a108dbff67f4b8af71fab0c7a86d0b6",
      "to": null,
      "contractAddress": "0x86866e01a115c17892ed04c548f2e8638851029d"
    },
    {
      "status": "0x1",
      "cumulativeGasUsed": "0x20d691d",
      "logs": [
        {
          "address": "0x86866e01a115c17892ed04c548f2e8638851029d",
          "topics": [
            "0x1370a2648b99fa68e1d4d7ccf25da63193ac3140c449433f448311c1a5d40236",
            "0x00000000000000000000000039af088408e815844c567037c157b31d48d2e10f"
          ],
          "data": "0x",
          "blockHash": "0x6b036630a0954c12857f19bb38a1cc0669af6e6d1537ed43ffe09ae4ae4910da",
          "blockNumber": "0x181d318",
          "blockTimestamp": "0x6a290ad3",
          "transactionHash": "0x6ed403455ba3582a4f40bbc7330b7d21234f438e64335b01838c10151e46158c",
          "transactionIndex": "0xf3",
          "logIndex": "0x2ce",
          "removed": false
        }
      ],
      "logsBloom": "0x00000000000000000000000000000000000010000000000000000000000000000000000000000000200000000000020000000000000000000000000000000000000008004000000000000000000000000000000000000000000000000000000000000000000000000000000000000000000000000000000000000000000000000000000000000000000000000000000000000000000000000000000000000000000000000000400000000000000040000000800000000000000000000000000000000000000000000000000000000000000000000000000000000000000000000000000000000000000000000000000000000000000000000000000000004000",
      "type": "0x2",
      "transactionHash": "0x6ed403455ba3582a4f40bbc7330b7d21234f438e64335b01838c10151e46158c",
      "transactionIndex": "0xf3",
      "blockHash": "0x6b036630a0954c12857f19bb38a1cc0669af6e6d1537ed43ffe09ae4ae4910da",
      "blockNumber": "0x181d318",
      "gasUsed": "0xb82a",
      "effectiveGasPrice": "0x709e126",
      "from": "0xcad1a7864a108dbff67f4b8af71fab0c7a86d0b6",
      "to": "0x86866e01a115c17892ed04c548f2e8638851029d",
      "contractAddress": null
    },
    {
      "status": "0x1",
      "cumulativeGasUsed": "0x3595a80",
      "logs": [
        {
          "address": "0x86866e01a115c17892ed04c548f2e8638851029d",
          "topics": [
            "0xdce5de46b982ee4736044da409b40c339262fedb577d7e0e1f7ad95323b0d85f",
            "0x0000000000000000000000000000000000000000000000000000000000000004"
          ],
          "data": "0x",
          "blockHash": "0x5c239492e364d3e765b241f0a0f0bf0fe68b5a0b450c13d34f49ae7b98c502c5",
          "blockNumber": "0x181d31b",
          "blockTimestamp": "0x6a290af7",
          "transactionHash": "0xe520baaaeb03550c808c8a60d68e3db86673d0286033fd046bd8ccdd0c37fdcd",
          "transactionIndex": "0x1f7",
          "logIndex": "0x742",
          "removed": false
        }
      ],
      "logsBloom": "0x00000000000000000000000000000000000010000000000000000000000000000000000000000000200000000000000000000000000000000000000000000000010000000000000000000000000000000000000000000000000000000000000008000000000000000000000020000000000000000000000000000000000000000000000000000000000000000000000000000000000000000000000000020000000000000000000000000000000000000000000000000000002000000000000000000000000000000000000000000000000000008000000000000000000000000000000000000000000000000000000000000000000000000000000000004000",
      "type": "0x2",
      "transactionHash": "0xe520baaaeb03550c808c8a60d68e3db86673d0286033fd046bd8ccdd0c37fdcd",
      "transactionIndex": "0x1f7",
      "blockHash": "0x5c239492e364d3e765b241f0a0f0bf0fe68b5a0b450c13d34f49ae7b98c502c5",
      "blockNumber": "0x181d31b",
      "gasUsed": "0xb731",
      "effectiveGasPrice": "0x672daee",
      "from": "0xcad1a7864a108dbff67f4b8af71fab0c7a86d0b6",
      "to": "0x86866e01a115c17892ed04c548f2e8638851029d",
      "contractAddress": null
    },
    {
      "status": "0x1",
      "cumulativeGasUsed": "0x199c04f",
      "logs": [
        {
          "address": "0x86866e01a115c17892ed04c548f2e8638851029d",
          "topics": [
            "0x6c1669a9d4dde92eb8b509697810f4688f8e6a2fe69dc291ccfcf3a0f9c3a2ff",
            "0x000000000000000000000000a0b86991c6218b36c1d19d4a2e9eb0ce3606eb48"
          ],
          "data": "0x",
          "blockHash": "0x3754474480d5a13f3203f852c2f8e4a84dc36cff9e3ba22f538a1dd28d013150",
          "blockNumber": "0x181d31e",
          "blockTimestamp": "0x6a290b1b",
          "transactionHash": "0x71fead7af6320cda75a3db765310b08661b52866b37c527de6239e318a8f77dc",
          "transactionIndex": "0x15a",
          "logIndex": "0x2ad",
          "removed": false
        }
      ],
      "logsBloom": "0x00000000000000000000000000000000000010000000000000000000000000000000000000000000200002000000000000000000000000000000000000000000000000000000000000000000000000000000000000100000000000000000000000000000000000000000000000000000000000000000000000000000000000000000000008000000000000000000000200000000000000000000000000000000000000000000000000000000000000000000000000000000000000000000000000000000000000000000000000000000000000000000000000000000000010000000000000000000000000000000000004000000000000000000000000004000",
      "type": "0x2",
      "transactionHash": "0x71fead7af6320cda75a3db765310b08661b52866b37c527de6239e318a8f77dc",
      "transactionIndex": "0x15a",
      "blockHash": "0x3754474480d5a13f3203f852c2f8e4a84dc36cff9e3ba22f538a1dd28d013150",
      "blockNumber": "0x181d31e",
      "gasUsed": "0xb8e2",
      "effectiveGasPrice": "0x7c23608",
      "from": "0xcad1a7864a108dbff67f4b8af71fab0c7a86d0b6",
      "to": "0x86866e01a115c17892ed04c548f2e8638851029d",
      "contractAddress": null
    },
    {
      "status": "0x1",
      "cumulativeGasUsed": "0x19f091b",
      "logs": [
        {
          "address": "0x86866e01a115c17892ed04c548f2e8638851029d",
          "topics": [
            "0xf435fc90cf0d233d2031e34c7e0a6bcbd6c56f749449163e019be8da37a0f59e"
          ],
          "data": "0x0000000000000000000000000000000000000000000000000000000000000028",
          "blockHash": "0xc64c25dd5c838981a595f797a50e96130b790d8358ac5d7787fdf6636fe0221f",
          "blockNumber": "0x181d31f",
          "blockTimestamp": "0x6a290b27",
          "transactionHash": "0x190892fbf779ba5b11dfc148baa65a4a6ca9e10d2b687e2fa9d9d080d6b75ece",
          "transactionIndex": "0x147",
          "logIndex": "0x447",
          "removed": false
        }
      ],
      "logsBloom": "0x00000000000000000000000000000000000010000000000000000000000000000000000000000000200000000000000000000000000000000000000000000000000000000000000000000000000000000000000000000000000000000000000000000001000000000000000000000000000000000000000000000000000000000000000000000000000000000000000000000000010000000000000000000000000000000000000000000000000000000000000000000000000000000000000000000000000000000000000000000000000000002000000000000000000000000000000000000000000000000000000000000000000000000000000000004000",
      "type": "0x2",
      "transactionHash": "0x190892fbf779ba5b11dfc148baa65a4a6ca9e10d2b687e2fa9d9d080d6b75ece",
      "transactionIndex": "0x147",
      "blockHash": "0xc64c25dd5c838981a595f797a50e96130b790d8358ac5d7787fdf6636fe0221f",
      "blockNumber": "0x181d31f",
      "gasUsed": "0xb790",
      "effectiveGasPrice": "0x7b9cad8",
      "from": "0xcad1a7864a108dbff67f4b8af71fab0c7a86d0b6",
      "to": "0x86866e01a115c17892ed04c548f2e8638851029d",
      "contractAddress": null
    },
    {
      "status": "0x1",
      "cumulativeGasUsed": "0x14f0718",
      "logs": [
        {
          "address": "0x3bbe928340c61a65cb6c4a87b3fb59b6f3f7606a",
          "topics": [
            "0xb94dcf2c9ff6813b44ddb73cffafcc975ecb6a70ad6d75e2ed65495b201a419e",
            "0x0000000000000000000000006e9886afdf07dd67dc70b8335e4e9df14b445071",
            "0x00000000000000000000000086866e01a115c17892ed04c548f2e8638851029d"
          ],
          "data": "0x",
          "blockHash": "0xcfd853d47080037fa240a3b96911c37079238113666db36706c191f5395e3c12",
          "blockNumber": "0x181d320",
          "blockTimestamp": "0x6a290b33",
          "transactionHash": "0x05ed48ad271cc34588fa8c58a232b0a249ccd927df033597b5c923e3edc958b2",
          "transactionIndex": "0x126",
          "logIndex": "0x292",
          "removed": false
        }
      ],
      "logsBloom": "0x00000080000000000000000000000000000000000000000000000000000000000000000000001000000000000000000000400000000000000000000000000000000000000000000000000000000080000000000000000200000000000000000000000000000000000000000000000000000000000000000000000000000004000000000000000000000000000000000000000000000000010000000000000000000000000000000000000000000000000000000000000000000000000000000000008000000001200000000000000000000000000000000000000000000000000400000000000000000000000000000000000000000000000000000020000000",
      "type": "0x2",
      "transactionHash": "0x05ed48ad271cc34588fa8c58a232b0a249ccd927df033597b5c923e3edc958b2",
      "transactionIndex": "0x126",
      "blockHash": "0xcfd853d47080037fa240a3b96911c37079238113666db36706c191f5395e3c12",
      "blockNumber": "0x181d320",
      "gasUsed": "0x76ec",
      "effectiveGasPrice": "0x7be17f1",
      "from": "0xcad1a7864a108dbff67f4b8af71fab0c7a86d0b6",
      "to": "0x3bbe928340c61a65cb6c4a87b3fb59b6f3f7606a",
      "contractAddress": null
    },
    {
      "status": "0x1",
      "cumulativeGasUsed": "0x1b144da",
      "logs": [
        {
          "address": "0x7f74388bc970de5e2822036a1ad06fccd156786b",
          "topics": [
            "0xa7978870153ece652cc4657688816871cbe0106d26a50cbd2239fecedb8de1c4"
          ],
          "data": "0x00000000000000000000000086866e01a115c17892ed04c548f2e8638851029d",
          "blockHash": "0x4b229cf6cfc018432306b4e14e7a319e82eee03c76c625c30190e3b37c7b334e",
          "blockNumber": "0x181d321",
          "blockTimestamp": "0x6a290b3f",
          "transactionHash": "0x7ed166355604596895de9255dfd9b8c1c4d012eab5f5e8dc755b623ea3659d1d",
          "transactionIndex": "0x113",
          "logIndex": "0x31e",
          "removed": false
        }
      ],
      "logsBloom": "0x08000000000000000000000000000000000000000000000000000000000000000000000000000000000000000000000000000000000000000000000000000000000000000000000000000000000000000000000000000000000000000000800000000000000000000000004000000000000000000000020000000000000000000000000000100000000000000000000000000000000000000000000000000000000000000000000000000000000000000000000000000000000000000000000000000000000000000000000000000000000000000000000000000000000000000000000040000000000000000000000000000000000000000000000000000000",
      "type": "0x2",
      "transactionHash": "0x7ed166355604596895de9255dfd9b8c1c4d012eab5f5e8dc755b623ea3659d1d",
      "transactionIndex": "0x113",
      "blockHash": "0x4b229cf6cfc018432306b4e14e7a319e82eee03c76c625c30190e3b37c7b334e",
      "blockNumber": "0x181d321",
      "gasUsed": "0x7693",
      "effectiveGasPrice": "0x77e34f7",
      "from": "0xcad1a7864a108dbff67f4b8af71fab0c7a86d0b6",
      "to": "0x7f74388bc970de5e2822036a1ad06fccd156786b",
      "contractAddress": null
    },
    {
      "status": "0x1",
      "cumulativeGasUsed": "0x1a335cf",
      "logs": [
        {
          "address": "0xa0b86991c6218b36c1d19d4a2e9eb0ce3606eb48",
          "topics": [
            "0xddf252ad1be2c89b69c2b068fc378daa952ba7f163c4a11628f55a4df523b3ef",
            "0x0000000000000000000000006e9886afdf07dd67dc70b8335e4e9df14b445071",
            "0x00000000000000000000000086866e01a115c17892ed04c548f2e8638851029d"
          ],
          "data": "0x0000000000000000000000000000000000000000000000000000000008d4a39e",
          "blockHash": "0x5ee9ed0f26c013193ca94b9add2d2eac7ca67755c1cd52b897ecda0dcbe79948",
          "blockNumber": "0x181d322",
          "blockTimestamp": "0x6a290b4b",
          "transactionHash": "0xbc27b9b4704d5e969ce6f05cdcc57f0db16f5db81de4ea3cd44efdaf84e46d82",
          "transactionIndex": "0x148",
          "logIndex": "0x333",
          "removed": false
        },
        {
          "address": "0x6e9886afdf07dd67dc70b8335e4e9df14b445071",
          "topics": [
            "0x3af790fafda720819b2fc6e15090606e81154e0ac9a92d38ecad006d99d20ecc",
            "0x000000000000000000000000a0b86991c6218b36c1d19d4a2e9eb0ce3606eb48",
            "0x00000000000000000000000086866e01a115c17892ed04c548f2e8638851029d"
          ],
          "data": "0x0000000000000000000000000000000000000000000000000000000008d4a39e",
          "blockHash": "0x5ee9ed0f26c013193ca94b9add2d2eac7ca67755c1cd52b897ecda0dcbe79948",
          "blockNumber": "0x181d322",
          "blockTimestamp": "0x6a290b4b",
          "transactionHash": "0xbc27b9b4704d5e969ce6f05cdcc57f0db16f5db81de4ea3cd44efdaf84e46d82",
          "transactionIndex": "0x148",
          "logIndex": "0x334",
          "removed": false
        }
      ],
      "logsBloom": "0x00000080000000000000000000000000000000000000000000000000000000000000000000000000000002000000000000400000000000000000000000000000000000000000000008000008000080000000000000000200000000040000000000080000000000000000000000000000000000000000000000000010000000000000000000000000000000000080000200000000010000000000000000000000000000000000200000000000000000000000000200000000000000000000000000000002400001200000000000000000000000000000000000000000000000000000000000400000000000000000000004000000000000000000000000000000",
      "type": "0x2",
      "transactionHash": "0xbc27b9b4704d5e969ce6f05cdcc57f0db16f5db81de4ea3cd44efdaf84e46d82",
      "transactionIndex": "0x148",
      "blockHash": "0x5ee9ed0f26c013193ca94b9add2d2eac7ca67755c1cd52b897ecda0dcbe79948",
      "blockNumber": "0x181d322",
      "gasUsed": "0xfe22",
      "effectiveGasPrice": "0x7dd22b1",
      "from": "0xcad1a7864a108dbff67f4b8af71fab0c7a86d0b6",
      "to": "0x6e9886afdf07dd67dc70b8335e4e9df14b445071",
      "contractAddress": null
    },
    {
      "status": "0x1",
      "cumulativeGasUsed": "0x29c1e6e",
      "logs": [
        {
          "address": "0x7f74388bc970de5e2822036a1ad06fccd156786b",
          "topics": [
            "0x074731357d33727f4901077a97ee097d688cb98f4e4565c7e39e804dd986ced4"
          ],
          "data": "0x000000000000000000000000000000000000000000000000000000000000000f",
          "blockHash": "0xd1e46b41a1378422362a5e4b07c544557d2301c3319db552be0cf16789ee0627",
          "blockNumber": "0x181d324",
          "blockTimestamp": "0x6a290b63",
          "transactionHash": "0x72163496e70a9bd73693b829ceca783dde75bb9bf0232ebd4ba1558814b52f2a",
          "transactionIndex": "0x21b",
          "logIndex": "0x536",
          "removed": false
        }
      ],
      "logsBloom": "0x00000000000000000000000000000000000000000000000000000000000000000000000000000000000000000000000000000000000000000000000000000000000000000000000000000000000080000000000000000000000000000000000000000000000000000000004000000000000000000000020000000000000000000000000000000000000000000000000000000000000000000000010000000000000000000000000000000000000000000000000000000000000000000000000000000000000000000000000000000000000000000000000000000000000000000000000040000010000000000000000000000000000000000000000000000000",
      "type": "0x2",
      "transactionHash": "0x72163496e70a9bd73693b829ceca783dde75bb9bf0232ebd4ba1558814b52f2a",
      "transactionIndex": "0x21b",
      "blockHash": "0xd1e46b41a1378422362a5e4b07c544557d2301c3319db552be0cf16789ee0627",
      "blockNumber": "0x181d324",
      "gasUsed": "0xb81d",
      "effectiveGasPrice": "0x740238d",
      "from": "0xcad1a7864a108dbff67f4b8af71fab0c7a86d0b6",
      "to": "0x7f74388bc970de5e2822036a1ad06fccd156786b",
      "contractAddress": null
    },
    {
      "status": "0x1",
      "cumulativeGasUsed": "0x2d5a620",
      "logs": [
        {
          "address": "0x6e9886afdf07dd67dc70b8335e4e9df14b445071",
          "topics": [
            "0x6c1669a9d4dde92eb8b509697810f4688f8e6a2fe69dc291ccfcf3a0f9c3a2ff",
            "0x0000000000000000000000000000000000000000000000000000000000000000"
          ],
          "data": "0x",
          "blockHash": "0x19f1efccaa4805875ff33cc66febde3594ed6240b15048effc6ac7f53731811a",
          "blockNumber": "0x181d327",
          "blockTimestamp": "0x6a290b87",
          "transactionHash": "0xe3838db320f745c41ebc6b439e4fab70d7304e59b366ff2cb377e8888e6b6c68",
          "transactionIndex": "0x28d",
          "logIndex": "0x517",
          "removed": false
        }
      ],
      "logsBloom": "0x00000000000000000000000000000000000000000000000000000000000000000000000000000000000000000000000000000000000000000000000000000000000000000000000000000000000000000000000000100000000000040000000000000000020000000000000000000800000000000000000000000000000000000000000008000000000000000000000000000000000000000000000000000000000000000000000000000000000000000000000000000000000000000000000000000000400000000000000000000000000000000000000000000000000030000000000000400000000000000000000000000000000000000000000000000000",
      "type": "0x2",
      "transactionHash": "0xe3838db320f745c41ebc6b439e4fab70d7304e59b366ff2cb377e8888e6b6c68",
      "transactionIndex": "0x28d",
      "blockHash": "0x19f1efccaa4805875ff33cc66febde3594ed6240b15048effc6ac7f53731811a",
      "blockNumber": "0x181d327",
      "gasUsed": "0x6266",
      "effectiveGasPrice": "0x776eb83",
      "from": "0xcad1a7864a108dbff67f4b8af71fab0c7a86d0b6",
      "to": "0x6e9886afdf07dd67dc70b8335e4e9df14b445071",
      "contractAddress": null
    },
    {
      "status": "0x1",
      "cumulativeGasUsed": "0x1855d35",
      "logs": [
        {
          "address": "0x6e9886afdf07dd67dc70b8335e4e9df14b445071",
          "topics": [
            "0xf435fc90cf0d233d2031e34c7e0a6bcbd6c56f749449163e019be8da37a0f59e"
          ],
          "data": "0x0000000000000000000000000000000000000000000000000000000000000000",
          "blockHash": "0xae616aa548cf729e3962d2c001f8edf812989e6d5626b1dc069c3d73868dd33c",
          "blockNumber": "0x181d328",
          "blockTimestamp": "0x6a290b93",
          "transactionHash": "0x6338f9eb0554ef8b48e16fe7c276feaa2c58d786fdbb4993de22b7b512e5d469",
          "transactionIndex": "0x155",
          "logIndex": "0x349",
          "removed": false
        }
      ],
      "logsBloom": "0x00000000000000000000000000000000000000000000000000000000000000000000000000000000000000000000000000000000000000000000000000000000000000000000000000000000000000000000000000000000000000040000000000000001000000000000000000000000000000000000000000000000000000000000000000000000000000000000000000000000010000000000000000000000000000000000000000000000000000000000000000000000000000000000000000000000400000000000000000000000000000002000000000000000000000000000000000400000000000000000000000000000000000000000000000000000",
      "type": "0x2",
      "transactionHash": "0x6338f9eb0554ef8b48e16fe7c276feaa2c58d786fdbb4993de22b7b512e5d469",
      "transactionIndex": "0x155",
      "blockHash": "0xae616aa548cf729e3962d2c001f8edf812989e6d5626b1dc069c3d73868dd33c",
      "blockNumber": "0x181d328",
      "gasUsed": "0x61f8",
      "effectiveGasPrice": "0x81150a1",
      "from": "0xcad1a7864a108dbff67f4b8af71fab0c7a86d0b6",
      "to": "0x6e9886afdf07dd67dc70b8335e4e9df14b445071",
      "contractAddress": null
    },
    {
      "status": "0x1",
      "cumulativeGasUsed": "0x1da422d",
      "logs": [],
      "logsBloom": "0x00000000000000000000000000000000000000000000000000000000000000000000000000000000000000000000000000000000000000000000000000000000000000000000000000000000000000000000000000000000000000000000000000000000000000000000000000000000000000000000000000000000000000000000000000000000000000000000000000000000000000000000000000000000000000000000000000000000000000000000000000000000000000000000000000000000000000000000000000000000000000000000000000000000000000000000000000000000000000000000000000000000000000000000000000000000",
      "type": "0x2",
      "transactionHash": "0xdc40fc3c39bc4153e13cb07755a28f4dc65d30ad3dc3c633a590ae06735ec514",
      "transactionIndex": "0xd4",
      "blockHash": "0xf64dca5dc9c40bc079017943f24cd8b83199207705edcc2f08e43babc04eab5f",
      "blockNumber": "0x181d329",
      "gasUsed": "0x1877ea",
      "effectiveGasPrice": "0x801b3fb",
      "from": "0xcad1a7864a108dbff67f4b8af71fab0c7a86d0b6",
      "to": null,
      "contractAddress": "0xff54d6de4abc7b9f0ee12202f7a3b177a09ac5a0"
    },
    {
      "status": "0x1",
      "cumulativeGasUsed": "0x2271d37",
      "logs": [
        {
          "address": "0xf3b5b661b92b75c71fa5aba8fd95d7514a9cd605",
          "topics": [
            "0xddf252ad1be2c89b69c2b068fc378daa952ba7f163c4a11628f55a4df523b3ef",
            "0x000000000000000000000000cad1a7864a108dbff67f4b8af71fab0c7a86d0b6",
            "0x000000000000000000000000ff54d6de4abc7b9f0ee12202f7a3b177a09ac5a0"
          ],
          "data": "0x0000000000000000000000000000000000000000000000000000000000000018",
          "blockHash": "0xe2bf81d279cb778c72296661f0eef0ae5796799f3036d7c419402c63175f1ffe",
          "blockNumber": "0x181d32b",
          "blockTimestamp": "0x6a290bc3",
          "transactionHash": "0xfa3268e419a250b905b32e4d876af672f9b425790eed0d6a553efdcff5c50c25",
          "transactionIndex": "0x183",
          "logIndex": "0x35d",
          "removed": false
        }
      ],
      "logsBloom": "0x00000000000000000020000008000000000000000000000000000000000000000000000000000000000000400000000000000000000000000800000000000000000000000000000000000008000000000000000000000000000000000000000008000000000000000000000000000000000000000000000000000010100000000000000000000000000000000000000000000000000000000000000000000000000000000000000000100000000000000000000000000000000000000000000000000002000000000000000000000000000000000000100000000000000000000000000000200000000000000000000000000000000000000000000000000000",
      "type": "0x2",
      "transactionHash": "0xfa3268e419a250b905b32e4d876af672f9b425790eed0d6a553efdcff5c50c25",
      "transactionIndex": "0x183",
      "blockHash": "0xe2bf81d279cb778c72296661f0eef0ae5796799f3036d7c419402c63175f1ffe",
      "blockNumber": "0x181d32b",
      "gasUsed": "0xbf74",
      "effectiveGasPrice": "0x8b9dd8d",
      "from": "0xcad1a7864a108dbff67f4b8af71fab0c7a86d0b6",
      "to": "0xf3b5b661b92b75c71fa5aba8fd95d7514a9cd605",
      "contractAddress": null
    },
    {
      "status": "0x1",
      "cumulativeGasUsed": "0x1d651f9",
      "logs": [
        {
          "address": "0xf3b5b661b92b75c71fa5aba8fd95d7514a9cd605",
          "topics": [
            "0xddf252ad1be2c89b69c2b068fc378daa952ba7f163c4a11628f55a4df523b3ef",
            "0x0000000000000000000000000000000000000000000000000000000000000000",
            "0x000000000000000000000000ff54d6de4abc7b9f0ee12202f7a3b177a09ac5a0"
          ],
          "data": "0x0000000000000000000000000000000000000000000000056bc75e2d630fffe8",
          "blockHash": "0xb0fc2ec38f7a131b971d841f5dc203711893f99e1ce4ba0ec46d38d1dc78003d",
          "blockNumber": "0x181d32c",
          "blockTimestamp": "0x6a290bcf",
          "transactionHash": "0xdb8e0b455ad224c8c92aad17be2e02ec50fedd73527b7a1354f4e8e6a2110fb3",
          "transactionIndex": "0x168",
          "logIndex": "0x38b",
          "removed": false
        }
      ],
      "logsBloom": "0x00000000000000000000000008000000000000000000000000000000000000000000000000000000000000000000000000000000000000000800000000000000000000000000000000000008000000000000000000000000000000000000000008000000020000000000000000000800000000000000000000000010100000000000000000000000000000000000000000000000000000000000000000000000000000000000000000100000000000000000000000000000000000000000000000000002000000000000000000000000000000000000000000000000000020000000000000200000000000000000000000000000000000000000000000000000",
      "type": "0x2",
      "transactionHash": "0xdb8e0b455ad224c8c92aad17be2e02ec50fedd73527b7a1354f4e8e6a2110fb3",
      "transactionIndex": "0x168",
      "blockHash": "0xb0fc2ec38f7a131b971d841f5dc203711893f99e1ce4ba0ec46d38d1dc78003d",
      "blockNumber": "0x181d32c",
      "gasUsed": "0xa927",
      "effectiveGasPrice": "0x90ac2a5",
      "from": "0xcad1a7864a108dbff67f4b8af71fab0c7a86d0b6",
      "to": "0xf3b5b661b92b75c71fa5aba8fd95d7514a9cd605",
      "contractAddress": null
    },
    {
      "status": "0x1",
      "cumulativeGasUsed": "0x1e879df",
      "logs": [
        {
          "address": "0xf3b5b661b92b75c71fa5aba8fd95d7514a9cd605",
          "topics": [
            "0x8c5be1e5ebec7d5bd14f71427d1e84f3dd0314c0f7b2291e5b200ac8c7c3b925",
            "0x000000000000000000000000ff54d6de4abc7b9f0ee12202f7a3b177a09ac5a0",
            "0x000000000000000000000000000000000022d473030f116ddee9f6b43ac78ba3"
          ],
          "data": "0xffffffffffffffffffffffffffffffffffffffffffffffffffffffffffffffff",
          "blockHash": "0x48514bc2137782dbdb7494bd4e1b0554e050126fbe0c5ff309913cde2e367ad8",
          "blockNumber": "0x181d32d",
          "blockTimestamp": "0x6a290bdb",
          "transactionHash": "0xb5c19a9b127682817e039f03748cc41974a76a7f31ac962353495df7c666ff4b",
          "transactionIndex": "0xd9",
          "logIndex": "0x39c",
          "removed": false
        },
        {
          "address": "0x000000000022d473030f116ddee9f6b43ac78ba3",
          "topics": [
            "0xda9fa7c1b00402c17d0161b249b1ab8bbec047c5a52207b9c112deffd817036b",
            "0x000000000000000000000000ff54d6de4abc7b9f0ee12202f7a3b177a09ac5a0",
            "0x000000000000000000000000f3b5b661b92b75c71fa5aba8fd95d7514a9cd605",
            "0x0000000000000000000000005c6fb490bdfd3246eb0bb062c168decaf4bd9fdd"
          ],
          "data": "0x000000000000000000000000ffffffffffffffffffffffffffffffffffffffff0000000000000000000000000000000000000000000000000000ffffffffffff",
          "blockHash": "0x48514bc2137782dbdb7494bd4e1b0554e050126fbe0c5ff309913cde2e367ad8",
          "blockNumber": "0x181d32d",
          "blockTimestamp": "0x6a290bdb",
          "transactionHash": "0xb5c19a9b127682817e039f03748cc41974a76a7f31ac962353495df7c666ff4b",
          "transactionIndex": "0xd9",
          "logIndex": "0x39d",
          "removed": false
        },
        {
          "address": "0xba1333333333a1ba1108e8412f11850a5c319ba9",
          "topics": [
            "0x0874b2d545cb271cdbda4e093020c452328b24af12382ed62c4d00f5c26709db",
            "0x000000000000000000000000642bb6860b4776cc10b26b8f361fd139e7f0db04",
            "0x000000000000000000000000f3b5b661b92b75c71fa5aba8fd95d7514a9cd605",
            "0x000000000000000000000000a3931d71877c0e7a3148cb7eb4463524fec27fbd"
          ],
          "data": "0x0000000000000000000000000000000000000000000000056bc75e2d63100000000000000000000000000000000000000000000000000003f2497ab303cbb0a9000000000000000000000000000000000000000000000000000aa87bee5380000000000000000000000000000000000000000000000000000429d069189e0000",
          "blockHash": "0x48514bc2137782dbdb7494bd4e1b0554e050126fbe0c5ff309913cde2e367ad8",
          "blockNumber": "0x181d32d",
          "blockTimestamp": "0x6a290bdb",
          "transactionHash": "0xb5c19a9b127682817e039f03748cc41974a76a7f31ac962353495df7c666ff4b",
          "transactionIndex": "0xd9",
          "logIndex": "0x39e",
          "removed": false
        },
        {
          "address": "0xf3b5b661b92b75c71fa5aba8fd95d7514a9cd605",
          "topics": [
            "0xddf252ad1be2c89b69c2b068fc378daa952ba7f163c4a11628f55a4df523b3ef",
            "0x000000000000000000000000ff54d6de4abc7b9f0ee12202f7a3b177a09ac5a0",
            "0x000000000000000000000000ba1333333333a1ba1108e8412f11850a5c319ba9"
          ],
          "data": "0x0000000000000000000000000000000000000000000000056bc75e2d63100000",
          "blockHash": "0x48514bc2137782dbdb7494bd4e1b0554e050126fbe0c5ff309913cde2e367ad8",
          "blockNumber": "0x181d32d",
          "blockTimestamp": "0x6a290bdb",
          "transactionHash": "0xb5c19a9b127682817e039f03748cc41974a76a7f31ac962353495df7c666ff4b",
          "transactionIndex": "0xd9",
          "logIndex": "0x39f",
          "removed": false
        },
        {
          "address": "0xa3931d71877c0e7a3148cb7eb4463524fec27fbd",
          "topics": [
            "0xddf252ad1be2c89b69c2b068fc378daa952ba7f163c4a11628f55a4df523b3ef",
            "0x000000000000000000000000ba1333333333a1ba1108e8412f11850a5c319ba9",
            "0x000000000000000000000000ff54d6de4abc7b9f0ee12202f7a3b177a09ac5a0"
          ],
          "data": "0x000000000000000000000000000000000000000000000003f2497ab303cbb0a9",
          "blockHash": "0x48514bc2137782dbdb7494bd4e1b0554e050126fbe0c5ff309913cde2e367ad8",
          "blockNumber": "0x181d32d",
          "blockTimestamp": "0x6a290bdb",
          "transactionHash": "0xb5c19a9b127682817e039f03748cc41974a76a7f31ac962353495df7c666ff4b",
          "transactionIndex": "0xd9",
          "logIndex": "0x3a0",
          "removed": false
        },
        {
          "address": "0x35d1b3f3d7966a1dfe207aa4514c12a259a0492b",
          "topics": [
            "0xf24e23eb00000000000000000000000000000000000000000000000000000000",
            "0x000000000000000000000000a950524441892a31ebddf91d3ceefa04bf454466",
            "0x000000000000000000000000a3931d71877c0e7a3148cb7eb4463524fec27fbd",
            "0x000000000000000000000000577988651a03d2a47a470e9000788d8098000000"
          ],
          "data": "0x000000000000000000000000000000000000000000000000000000000000002000000000000000000000000000000000000000000000000000000000000000e0f24e23eb000000000000000000000000a950524441892a31ebddf91d3ceefa04bf454466000000000000000000000000a3931d71877c0e7a3148cb7eb4463524fec27fbd000000000000000000000000577988651a03d2a47a470e9000788d809800000000000000000000000000000000000000000000000000000000000000000000000000000000000000000000000000000000000000000000000000000000000000000000000000000000000000000000000000000000000000000000000000000000000000000000000000000000000000000000000000000000000000",
          "blockHash": "0x48514bc2137782dbdb7494bd4e1b0554e050126fbe0c5ff309913cde2e367ad8",
          "blockNumber": "0x181d32d",
          "blockTimestamp": "0x6a290bdb",
          "transactionHash": "0xb5c19a9b127682817e039f03748cc41974a76a7f31ac962353495df7c666ff4b",
          "transactionIndex": "0xd9",
          "logIndex": "0x3a1",
          "removed": false
        },
        {
          "address": "0x35d1b3f3d7966a1dfe207aa4514c12a259a0492b",
          "topics": [
            "0xbb35783b00000000000000000000000000000000000000000000000000000000",
            "0x000000000000000000000000a3931d71877c0e7a3148cb7eb4463524fec27fbd",
            "0x0000000000000000000000003c0f895007ca717aa01c8693e59df1e8c3777feb",
            "0x000000000000000000000000577988651a03d2a47a470e9000788d8098000000"
          ],
          "data": "0x000000000000000000000000000000000000000000000000000000000000002000000000000000000000000000000000000000000000000000000000000000e0bb35783b000000000000000000000000a3931d71877c0e7a3148cb7eb4463524fec27fbd0000000000000000000000003c0f895007ca717aa01c8693e59df1e8c3777feb000000000000000000000000577988651a03d2a47a470e9000788d809800000000000000000000000000000000000000000000000000000000000000000000000000000000000000000000000000000000000000000000000000000000000000000000000000000000000000000000000000000000000000000000000000000000000000000000000000000000000000000000000000000000000000",
          "blockHash": "0x48514bc2137782dbdb7494bd4e1b0554e050126fbe0c5ff309913cde2e367ad8",
          "blockNumber": "0x181d32d",
          "blockTimestamp": "0x6a290bdb",
          "transactionHash": "0xb5c19a9b127682817e039f03748cc41974a76a7f31ac962353495df7c666ff4b",
          "transactionIndex": "0xd9",
          "logIndex": "0x3a2",
          "removed": false
        },
        {
          "address": "0xdc035d45d973e3ec169d2276ddab16f1e407384f",
          "topics": [
            "0xddf252ad1be2c89b69c2b068fc378daa952ba7f163c4a11628f55a4df523b3ef",
            "0x0000000000000000000000000000000000000000000000000000000000000000",
            "0x000000000000000000000000a3931d71877c0e7a3148cb7eb4463524fec27fbd"
          ],
          "data": "0x00000000000000000000000000000000000000000000001b12767492f8ddff6f",
          "blockHash": "0x48514bc2137782dbdb7494bd4e1b0554e050126fbe0c5ff309913cde2e367ad8",
          "blockNumber": "0x181d32d",
          "blockTimestamp": "0x6a290bdb",
          "transactionHash": "0xb5c19a9b127682817e039f03748cc41974a76a7f31ac962353495df7c666ff4b",
          "transactionIndex": "0xd9",
          "logIndex": "0x3a3",
          "removed": false
        },
        {
          "address": "0x3c0f895007ca717aa01c8693e59df1e8c3777feb",
          "topics": [
            "0xbc2a67d422c268da6fe45f3e7d194e1d98906d221f1cfad62a5c80f2cd209f4c",
            "0x000000000000000000000000a3931d71877c0e7a3148cb7eb4463524fec27fbd",
            "0x000000000000000000000000a3931d71877c0e7a3148cb7eb4463524fec27fbd"
          ],
          "data": "0x00000000000000000000000000000000000000000000001b12767492f8ddff6f",
          "blockHash": "0x48514bc2137782dbdb7494bd4e1b0554e050126fbe0c5ff309913cde2e367ad8",
          "blockNumber": "0x181d32d",
          "blockTimestamp": "0x6a290bdb",
          "transactionHash": "0xb5c19a9b127682817e039f03748cc41974a76a7f31ac962353495df7c666ff4b",
          "transactionIndex": "0xd9",
          "logIndex": "0x3a4",
          "removed": false
        },
        {
          "address": "0xa3931d71877c0e7a3148cb7eb4463524fec27fbd",
          "topics": [
            "0xad1e8a53178522eb68a9d94d862bf30c841f709d2115f743eb6b34528751c79f"
          ],
          "data": "0x0000000000000000000000000000000000000000038d544d87720f36dc0c681400000000000000000000000000000000000000000000001b12767492f8ddff6f",
          "blockHash": "0x48514bc2137782dbdb7494bd4e1b0554e050126fbe0c5ff309913cde2e367ad8",
          "blockNumber": "0x181d32d",
          "blockTimestamp": "0x6a290bdb",
          "transactionHash": "0xb5c19a9b127682817e039f03748cc41974a76a7f31ac962353495df7c666ff4b",
          "transactionIndex": "0xd9",
          "logIndex": "0x3a5",
          "removed": false
        },
        {
          "address": "0xdc035d45d973e3ec169d2276ddab16f1e407384f",
          "topics": [
            "0xddf252ad1be2c89b69c2b068fc378daa952ba7f163c4a11628f55a4df523b3ef",
            "0x000000000000000000000000a3931d71877c0e7a3148cb7eb4463524fec27fbd",
            "0x000000000000000000000000ff54d6de4abc7b9f0ee12202f7a3b177a09ac5a0"
          ],
          "data": "0x000000000000000000000000000000000000000000000004569ecdeaa253b356",
          "blockHash": "0x48514bc2137782dbdb7494bd4e1b0554e050126fbe0c5ff309913cde2e367ad8",
          "blockNumber": "0x181d32d",
          "blockTimestamp": "0x6a290bdb",
          "transactionHash": "0xb5c19a9b127682817e039f03748cc41974a76a7f31ac962353495df7c666ff4b",
          "transactionIndex": "0xd9",
          "logIndex": "0x3a6",
          "removed": false
        },
        {
          "address": "0xa3931d71877c0e7a3148cb7eb4463524fec27fbd",
          "topics": [
            "0xddf252ad1be2c89b69c2b068fc378daa952ba7f163c4a11628f55a4df523b3ef",
            "0x000000000000000000000000ff54d6de4abc7b9f0ee12202f7a3b177a09ac5a0",
            "0x0000000000000000000000000000000000000000000000000000000000000000"
          ],
          "data": "0x000000000000000000000000000000000000000000000003f2497ab303cbb0a9",
          "blockHash": "0x48514bc2137782dbdb7494bd4e1b0554e050126fbe0c5ff309913cde2e367ad8",
          "blockNumber": "0x181d32d",
          "blockTimestamp": "0x6a290bdb",
          "transactionHash": "0xb5c19a9b127682817e039f03748cc41974a76a7f31ac962353495df7c666ff4b",
          "transactionIndex": "0xd9",
          "logIndex": "0x3a7",
          "removed": false
        },
        {
          "address": "0xa3931d71877c0e7a3148cb7eb4463524fec27fbd",
          "topics": [
            "0xfbde797d201c681b91056529119e0b02407c7bb96a4a2c75c01fc9667232c8db",
            "0x000000000000000000000000ff54d6de4abc7b9f0ee12202f7a3b177a09ac5a0",
            "0x000000000000000000000000ff54d6de4abc7b9f0ee12202f7a3b177a09ac5a0",
            "0x000000000000000000000000ff54d6de4abc7b9f0ee12202f7a3b177a09ac5a0"
          ],
          "data": "0x000000000000000000000000000000000000000000000004569ecdeaa253b356000000000000000000000000000000000000000000000003f2497ab303cbb0a9",
          "blockHash": "0x48514bc2137782dbdb7494bd4e1b0554e050126fbe0c5ff309913cde2e367ad8",
          "blockNumber": "0x181d32d",
          "blockTimestamp": "0x6a290bdb",
          "transactionHash": "0xb5c19a9b127682817e039f03748cc41974a76a7f31ac962353495df7c666ff4b",
          "transactionIndex": "0xd9",
          "logIndex": "0x3a8",
          "removed": false
        },
        {
          "address": "0xdc035d45d973e3ec169d2276ddab16f1e407384f",
          "topics": [
            "0x8c5be1e5ebec7d5bd14f71427d1e84f3dd0314c0f7b2291e5b200ac8c7c3b925",
            "0x000000000000000000000000ff54d6de4abc7b9f0ee12202f7a3b177a09ac5a0",
            "0x000000000000000000000000a188eec8f81263234da3622a406892f3d630f98c"
          ],
          "data": "0x0000000000000000000000000000000000000000000000017234eebfb7141000",
          "blockHash": "0x48514bc2137782dbdb7494bd4e1b0554e050126fbe0c5ff309913cde2e367ad8",
          "blockNumber": "0x181d32d",
          "blockTimestamp": "0x6a290bdb",
          "transactionHash": "0xb5c19a9b127682817e039f03748cc41974a76a7f31ac962353495df7c666ff4b",
          "transactionIndex": "0xd9",
          "logIndex": "0x3a9",
          "removed": false
        },
        {
          "address": "0xdc035d45d973e3ec169d2276ddab16f1e407384f",
          "topics": [
            "0xddf252ad1be2c89b69c2b068fc378daa952ba7f163c4a11628f55a4df523b3ef",
            "0x000000000000000000000000ff54d6de4abc7b9f0ee12202f7a3b177a09ac5a0",
            "0x000000000000000000000000a188eec8f81263234da3622a406892f3d630f98c"
          ],
          "data": "0x0000000000000000000000000000000000000000000000017234eebfb7141000",
          "blockHash": "0x48514bc2137782dbdb7494bd4e1b0554e050126fbe0c5ff309913cde2e367ad8",
          "blockNumber": "0x181d32d",
          "blockTimestamp": "0x6a290bdb",
          "transactionHash": "0xb5c19a9b127682817e039f03748cc41974a76a7f31ac962353495df7c666ff4b",
          "transactionIndex": "0xd9",
          "logIndex": "0x3aa",
          "removed": false
        },
        {
          "address": "0x35d1b3f3d7966a1dfe207aa4514c12a259a0492b",
          "topics": [
            "0xbb35783b00000000000000000000000000000000000000000000000000000000",
            "0x0000000000000000000000003c0f895007ca717aa01c8693e59df1e8c3777feb",
            "0x000000000000000000000000a188eec8f81263234da3622a406892f3d630f98c",
            "0x00000000000000000000000004ac33dc73bf3a61cd55bf13ae9dee8000000000"
          ],
          "data": "0x000000000000000000000000000000000000000000000000000000000000002000000000000000000000000000000000000000000000000000000000000000e0bb35783b0000000000000000000000003c0f895007ca717aa01c8693e59df1e8c3777feb000000000000000000000000a188eec8f81263234da3622a406892f3d630f98c00000000000000000000000004ac33dc73bf3a61cd55bf13ae9dee800000000000000000000000000000000000000000000000000000000000000000000000000000000000000000000000000000000000000000000000000000000000000000000000000000000000000000000000000000000000000000000000000000000000000000000000000000000000000000000000000000000000000000",
          "blockHash": "0x48514bc2137782dbdb7494bd4e1b0554e050126fbe0c5ff309913cde2e367ad8",
          "blockNumber": "0x181d32d",
          "blockTimestamp": "0x6a290bdb",
          "transactionHash": "0xb5c19a9b127682817e039f03748cc41974a76a7f31ac962353495df7c666ff4b",
          "transactionIndex": "0xd9",
          "logIndex": "0x3ab",
          "removed": false
        },
        {
          "address": "0xdc035d45d973e3ec169d2276ddab16f1e407384f",
          "topics": [
            "0xddf252ad1be2c89b69c2b068fc378daa952ba7f163c4a11628f55a4df523b3ef",
            "0x000000000000000000000000a188eec8f81263234da3622a406892f3d630f98c",
            "0x0000000000000000000000000000000000000000000000000000000000000000"
          ],
          "data": "0x0000000000000000000000000000000000000000000000017234eebfb7141000",
          "blockHash": "0x48514bc2137782dbdb7494bd4e1b0554e050126fbe0c5ff309913cde2e367ad8",
          "blockNumber": "0x181d32d",
          "blockTimestamp": "0x6a290bdb",
          "transactionHash": "0xb5c19a9b127682817e039f03748cc41974a76a7f31ac962353495df7c666ff4b",
          "transactionIndex": "0xd9",
          "logIndex": "0x3ac",
          "removed": false
        },
        {
          "address": "0x3c0f895007ca717aa01c8693e59df1e8c3777feb",
          "topics": [
            "0x0e64978d073561c3dfd4d4e3e4dce066cde2ab246a44f990fabb0a21a4a3bd95",
            "0x000000000000000000000000a188eec8f81263234da3622a406892f3d630f98c",
            "0x000000000000000000000000a188eec8f81263234da3622a406892f3d630f98c"
          ],
          "data": "0x0000000000000000000000000000000000000000000000017234eebfb7141000",
          "blockHash": "0x48514bc2137782dbdb7494bd4e1b0554e050126fbe0c5ff309913cde2e367ad8",
          "blockNumber": "0x181d32d",
          "blockTimestamp": "0x6a290bdb",
          "transactionHash": "0xb5c19a9b127682817e039f03748cc41974a76a7f31ac962353495df7c666ff4b",
          "transactionIndex": "0xd9",
          "logIndex": "0x3ad",
          "removed": false
        },
        {
          "address": "0x35d1b3f3d7966a1dfe207aa4514c12a259a0492b",
          "topics": [
            "0xbb35783b00000000000000000000000000000000000000000000000000000000",
            "0x000000000000000000000000a188eec8f81263234da3622a406892f3d630f98c",
            "0x0000000000000000000000009759a6ac90977b93b58547b4a71c78317f391a28",
            "0x00000000000000000000000004ac33dc73bf3a61cd55bf13ae9dee8000000000"
          ],
          "data": "0x000000000000000000000000000000000000000000000000000000000000002000000000000000000000000000000000000000000000000000000000000000e0bb35783b000000000000000000000000a188eec8f81263234da3622a406892f3d630f98c0000000000000000000000009759a6ac90977b93b58547b4a71c78317f391a2800000000000000000000000004ac33dc73bf3a61cd55bf13ae9dee800000000000000000000000000000000000000000000000000000000000000000000000000000000000000000000000000000000000000000000000000000000000000000000000000000000000000000000000000000000000000000000000000000000000000000000000000000000000000000000000000000000000000000",
          "blockHash": "0x48514bc2137782dbdb7494bd4e1b0554e050126fbe0c5ff309913cde2e367ad8",
          "blockNumber": "0x181d32d",
          "blockTimestamp": "0x6a290bdb",
          "transactionHash": "0xb5c19a9b127682817e039f03748cc41974a76a7f31ac962353495df7c666ff4b",
          "transactionIndex": "0xd9",
          "logIndex": "0x3ae",
          "removed": false
        },
        {
          "address": "0x6b175474e89094c44da98b954eedeac495271d0f",
          "topics": [
            "0xddf252ad1be2c89b69c2b068fc378daa952ba7f163c4a11628f55a4df523b3ef",
            "0x0000000000000000000000000000000000000000000000000000000000000000",
            "0x000000000000000000000000a188eec8f81263234da3622a406892f3d630f98c"
          ],
          "data": "0x0000000000000000000000000000000000000000000000017234eebfb7141000",
          "blockHash": "0x48514bc2137782dbdb7494bd4e1b0554e050126fbe0c5ff309913cde2e367ad8",
          "blockNumber": "0x181d32d",
          "blockTimestamp": "0x6a290bdb",
          "transactionHash": "0xb5c19a9b127682817e039f03748cc41974a76a7f31ac962353495df7c666ff4b",
          "transactionIndex": "0xd9",
          "logIndex": "0x3af",
          "removed": false
        },
        {
          "address": "0x9759a6ac90977b93b58547b4a71c78317f391a28",
          "topics": [
            "0xef693bed00000000000000000000000000000000000000000000000000000000",
            "0x000000000000000000000000a188eec8f81263234da3622a406892f3d630f98c",
            "0x000000000000000000000000a188eec8f81263234da3622a406892f3d630f98c",
            "0x0000000000000000000000000000000000000000000000017234eebfb7141000"
          ],
          "data": "0x000000000000000000000000000000000000000000000000000000000000002000000000000000000000000000000000000000000000000000000000000000e0ef693bed000000000000000000000000a188eec8f81263234da3622a406892f3d630f98c0000000000000000000000000000000000000000000000017234eebfb7141000000000000000000000000000000000000000000000000000000000000000000000000000000000000000000000000000000000000000000000000000000000000000000000000000000000000000000000000000000000000000000000000000000000000000000000000000000000000000000000000000000000000000000000000000000000000000000000000000000000000000000000000000",
          "blockHash": "0x48514bc2137782dbdb7494bd4e1b0554e050126fbe0c5ff309913cde2e367ad8",
          "blockNumber": "0x181d32d",
          "blockTimestamp": "0x6a290bdb",
          "transactionHash": "0xb5c19a9b127682817e039f03748cc41974a76a7f31ac962353495df7c666ff4b",
          "transactionIndex": "0xd9",
          "logIndex": "0x3b0",
          "removed": false
        },
        {
          "address": "0x6b175474e89094c44da98b954eedeac495271d0f",
          "topics": [
            "0xddf252ad1be2c89b69c2b068fc378daa952ba7f163c4a11628f55a4df523b3ef",
            "0x000000000000000000000000a188eec8f81263234da3622a406892f3d630f98c",
            "0x000000000000000000000000f6e72db5454dd049d0788e411b06cfaf16853042"
          ],
          "data": "0x0000000000000000000000000000000000000000000000017234eebfb7141000",
          "blockHash": "0x48514bc2137782dbdb7494bd4e1b0554e050126fbe0c5ff309913cde2e367ad8",
          "blockNumber": "0x181d32d",
          "blockTimestamp": "0x6a290bdb",
          "transactionHash": "0xb5c19a9b127682817e039f03748cc41974a76a7f31ac962353495df7c666ff4b",
          "transactionIndex": "0xd9",
          "logIndex": "0x3b1",
          "removed": false
        },
        {
          "address": "0xa0b86991c6218b36c1d19d4a2e9eb0ce3606eb48",
          "topics": [
            "0xddf252ad1be2c89b69c2b068fc378daa952ba7f163c4a11628f55a4df523b3ef",
            "0x00000000000000000000000037305b1cd40574e4c5ce33f8e8306be057fd7341",
            "0x000000000000000000000000bce8abc09baedcabe93419bf875f6186e182079a"
          ],
          "data": "0x0000000000000000000000000000000000000000000000000000000001970bf1",
          "blockHash": "0x48514bc2137782dbdb7494bd4e1b0554e050126fbe0c5ff309913cde2e367ad8",
          "blockNumber": "0x181d32d",
          "blockTimestamp": "0x6a290bdb",
          "transactionHash": "0xb5c19a9b127682817e039f03748cc41974a76a7f31ac962353495df7c666ff4b",
          "transactionIndex": "0xd9",
          "logIndex": "0x3b2",
          "removed": false
        },
        {
          "address": "0xf6e72db5454dd049d0788e411b06cfaf16853042",
          "topics": [
            "0x085d06ecf4c34b237767a31c0888e121d89546a77f186f1987c6b8715e1a8caa",
            "0x000000000000000000000000bce8abc09baedcabe93419bf875f6186e182079a"
          ],
          "data": "0x0000000000000000000000000000000000000000000000000000000001970bf10000000000000000000000000000000000000000000000000000000000000000",
          "blockHash": "0x48514bc2137782dbdb7494bd4e1b0554e050126fbe0c5ff309913cde2e367ad8",
          "blockNumber": "0x181d32d",
          "blockTimestamp": "0x6a290bdb",
          "transactionHash": "0xb5c19a9b127682817e039f03748cc41974a76a7f31ac962353495df7c666ff4b",
          "transactionIndex": "0xd9",
          "logIndex": "0x3b3",
          "removed": false
        },
        {
          "address": "0xdc035d45d973e3ec169d2276ddab16f1e407384f",
          "topics": [
            "0x8c5be1e5ebec7d5bd14f71427d1e84f3dd0314c0f7b2291e5b200ac8c7c3b925",
            "0x000000000000000000000000ff54d6de4abc7b9f0ee12202f7a3b177a09ac5a0",
            "0x000000000000000000000000a188eec8f81263234da3622a406892f3d630f98c"
          ],
          "data": "0x0000000000000000000000000000000000000000000000000000000000000000",
          "blockHash": "0x48514bc2137782dbdb7494bd4e1b0554e050126fbe0c5ff309913cde2e367ad8",
          "blockNumber": "0x181d32d",
          "blockTimestamp": "0x6a290bdb",
          "transactionHash": "0xb5c19a9b127682817e039f03748cc41974a76a7f31ac962353495df7c666ff4b",
          "transactionIndex": "0xd9",
          "logIndex": "0x3b4",
          "removed": false
        },
        {
          "address": "0xdc035d45d973e3ec169d2276ddab16f1e407384f",
          "topics": [
            "0x8c5be1e5ebec7d5bd14f71427d1e84f3dd0314c0f7b2291e5b200ac8c7c3b925",
            "0x000000000000000000000000ff54d6de4abc7b9f0ee12202f7a3b177a09ac5a0",
            "0x000000000000000000000000a188eec8f81263234da3622a406892f3d630f98c"
          ],
          "data": "0x0000000000000000000000000000000000000000000000017234eebfb7141000",
          "blockHash": "0x48514bc2137782dbdb7494bd4e1b0554e050126fbe0c5ff309913cde2e367ad8",
          "blockNumber": "0x181d32d",
          "blockTimestamp": "0x6a290bdb",
          "transactionHash": "0xb5c19a9b127682817e039f03748cc41974a76a7f31ac962353495df7c666ff4b",
          "transactionIndex": "0xd9",
          "logIndex": "0x3b5",
          "removed": false
        },
        {
          "address": "0xdc035d45d973e3ec169d2276ddab16f1e407384f",
          "topics": [
            "0xddf252ad1be2c89b69c2b068fc378daa952ba7f163c4a11628f55a4df523b3ef",
            "0x000000000000000000000000ff54d6de4abc7b9f0ee12202f7a3b177a09ac5a0",
            "0x000000000000000000000000a188eec8f81263234da3622a406892f3d630f98c"
          ],
          "data": "0x0000000000000000000000000000000000000000000000017234eebfb7141000",
          "blockHash": "0x48514bc2137782dbdb7494bd4e1b0554e050126fbe0c5ff309913cde2e367ad8",
          "blockNumber": "0x181d32d",
          "blockTimestamp": "0x6a290bdb",
          "transactionHash": "0xb5c19a9b127682817e039f03748cc41974a76a7f31ac962353495df7c666ff4b",
          "transactionIndex": "0xd9",
          "logIndex": "0x3b6",
          "removed": false
        },
        {
          "address": "0x35d1b3f3d7966a1dfe207aa4514c12a259a0492b",
          "topics": [
            "0xbb35783b00000000000000000000000000000000000000000000000000000000",
            "0x0000000000000000000000003c0f895007ca717aa01c8693e59df1e8c3777feb",
            "0x000000000000000000000000a188eec8f81263234da3622a406892f3d630f98c",
            "0x00000000000000000000000004ac33dc73bf3a61cd55bf13ae9dee8000000000"
          ],
          "data": "0x000000000000000000000000000000000000000000000000000000000000002000000000000000000000000000000000000000000000000000000000000000e0bb35783b0000000000000000000000003c0f895007ca717aa01c8693e59df1e8c3777feb000000000000000000000000a188eec8f81263234da3622a406892f3d630f98c00000000000000000000000004ac33dc73bf3a61cd55bf13ae9dee800000000000000000000000000000000000000000000000000000000000000000000000000000000000000000000000000000000000000000000000000000000000000000000000000000000000000000000000000000000000000000000000000000000000000000000000000000000000000000000000000000000000000000",
          "blockHash": "0x48514bc2137782dbdb7494bd4e1b0554e050126fbe0c5ff309913cde2e367ad8",
          "blockNumber": "0x181d32d",
          "blockTimestamp": "0x6a290bdb",
          "transactionHash": "0xb5c19a9b127682817e039f03748cc41974a76a7f31ac962353495df7c666ff4b",
          "transactionIndex": "0xd9",
          "logIndex": "0x3b7",
          "removed": false
        },
        {
          "address": "0xdc035d45d973e3ec169d2276ddab16f1e407384f",
          "topics": [
            "0xddf252ad1be2c89b69c2b068fc378daa952ba7f163c4a11628f55a4df523b3ef",
            "0x000000000000000000000000a188eec8f81263234da3622a406892f3d630f98c",
            "0x0000000000000000000000000000000000000000000000000000000000000000"
          ],
          "data": "0x0000000000000000000000000000000000000000000000017234eebfb7141000",
          "blockHash": "0x48514bc2137782dbdb7494bd4e1b0554e050126fbe0c5ff309913cde2e367ad8",
          "blockNumber": "0x181d32d",
          "blockTimestamp": "0x6a290bdb",
          "transactionHash": "0xb5c19a9b127682817e039f03748cc41974a76a7f31ac962353495df7c666ff4b",
          "transactionIndex": "0xd9",
          "logIndex": "0x3b8",
          "removed": false
        },
        {
          "address": "0x3c0f895007ca717aa01c8693e59df1e8c3777feb",
          "topics": [
            "0x0e64978d073561c3dfd4d4e3e4dce066cde2ab246a44f990fabb0a21a4a3bd95",
            "0x000000000000000000000000a188eec8f81263234da3622a406892f3d630f98c",
            "0x000000000000000000000000a188eec8f81263234da3622a406892f3d630f98c"
          ],
          "data": "0x0000000000000000000000000000000000000000000000017234eebfb7141000",
          "blockHash": "0x48514bc2137782dbdb7494bd4e1b0554e050126fbe0c5ff309913cde2e367ad8",
          "blockNumber": "0x181d32d",
          "blockTimestamp": "0x6a290bdb",
          "transactionHash": "0xb5c19a9b127682817e039f03748cc41974a76a7f31ac962353495df7c666ff4b",
          "transactionIndex": "0xd9",
          "logIndex": "0x3b9",
          "removed": false
        },
        {
          "address": "0x35d1b3f3d7966a1dfe207aa4514c12a259a0492b",
          "topics": [
            "0xbb35783b00000000000000000000000000000000000000000000000000000000",
            "0x000000000000000000000000a188eec8f81263234da3622a406892f3d630f98c",
            "0x0000000000000000000000009759a6ac90977b93b58547b4a71c78317f391a28",
            "0x00000000000000000000000004ac33dc73bf3a61cd55bf13ae9dee8000000000"
          ],
          "data": "0x000000000000000000000000000000000000000000000000000000000000002000000000000000000000000000000000000000000000000000000000000000e0bb35783b000000000000000000000000a188eec8f81263234da3622a406892f3d630f98c0000000000000000000000009759a6ac90977b93b58547b4a71c78317f391a2800000000000000000000000004ac33dc73bf3a61cd55bf13ae9dee800000000000000000000000000000000000000000000000000000000000000000000000000000000000000000000000000000000000000000000000000000000000000000000000000000000000000000000000000000000000000000000000000000000000000000000000000000000000000000000000000000000000000000",
          "blockHash": "0x48514bc2137782dbdb7494bd4e1b0554e050126fbe0c5ff309913cde2e367ad8",
          "blockNumber": "0x181d32d",
          "blockTimestamp": "0x6a290bdb",
          "transactionHash": "0xb5c19a9b127682817e039f03748cc41974a76a7f31ac962353495df7c666ff4b",
          "transactionIndex": "0xd9",
          "logIndex": "0x3ba",
          "removed": false
        },
        {
          "address": "0x6b175474e89094c44da98b954eedeac495271d0f",
          "topics": [
            "0xddf252ad1be2c89b69c2b068fc378daa952ba7f163c4a11628f55a4df523b3ef",
            "0x0000000000000000000000000000000000000000000000000000000000000000",
            "0x000000000000000000000000a188eec8f81263234da3622a406892f3d630f98c"
          ],
          "data": "0x0000000000000000000000000000000000000000000000017234eebfb7141000",
          "blockHash": "0x48514bc2137782dbdb7494bd4e1b0554e050126fbe0c5ff309913cde2e367ad8",
          "blockNumber": "0x181d32d",
          "blockTimestamp": "0x6a290bdb",
          "transactionHash": "0xb5c19a9b127682817e039f03748cc41974a76a7f31ac962353495df7c666ff4b",
          "transactionIndex": "0xd9",
          "logIndex": "0x3bb",
          "removed": false
        },
        {
          "address": "0x9759a6ac90977b93b58547b4a71c78317f391a28",
          "topics": [
            "0xef693bed00000000000000000000000000000000000000000000000000000000",
            "0x000000000000000000000000a188eec8f81263234da3622a406892f3d630f98c",
            "0x000000000000000000000000a188eec8f81263234da3622a406892f3d630f98c",
            "0x0000000000000000000000000000000000000000000000017234eebfb7141000"
          ],
          "data": "0x000000000000000000000000000000000000000000000000000000000000002000000000000000000000000000000000000000000000000000000000000000e0ef693bed000000000000000000000000a188eec8f81263234da3622a406892f3d630f98c0000000000000000000000000000000000000000000000017234eebfb7141000000000000000000000000000000000000000000000000000000000000000000000000000000000000000000000000000000000000000000000000000000000000000000000000000000000000000000000000000000000000000000000000000000000000000000000000000000000000000000000000000000000000000000000000000000000000000000000000000000000000000000000000000",
          "blockHash": "0x48514bc2137782dbdb7494bd4e1b0554e050126fbe0c5ff309913cde2e367ad8",
          "blockNumber": "0x181d32d",
          "blockTimestamp": "0x6a290bdb",
          "transactionHash": "0xb5c19a9b127682817e039f03748cc41974a76a7f31ac962353495df7c666ff4b",
          "transactionIndex": "0xd9",
          "logIndex": "0x3bc",
          "removed": false
        },
        {
          "address": "0x6b175474e89094c44da98b954eedeac495271d0f",
          "topics": [
            "0xddf252ad1be2c89b69c2b068fc378daa952ba7f163c4a11628f55a4df523b3ef",
            "0x000000000000000000000000a188eec8f81263234da3622a406892f3d630f98c",
            "0x000000000000000000000000f6e72db5454dd049d0788e411b06cfaf16853042"
          ],
          "data": "0x0000000000000000000000000000000000000000000000017234eebfb7141000",
          "blockHash": "0x48514bc2137782dbdb7494bd4e1b0554e050126fbe0c5ff309913cde2e367ad8",
          "blockNumber": "0x181d32d",
          "blockTimestamp": "0x6a290bdb",
          "transactionHash": "0xb5c19a9b127682817e039f03748cc41974a76a7f31ac962353495df7c666ff4b",
          "transactionIndex": "0xd9",
          "logIndex": "0x3bd",
          "removed": false
        },
        {
          "address": "0xa0b86991c6218b36c1d19d4a2e9eb0ce3606eb48",
          "topics": [
            "0xddf252ad1be2c89b69c2b068fc378daa952ba7f163c4a11628f55a4df523b3ef",
            "0x00000000000000000000000037305b1cd40574e4c5ce33f8e8306be057fd7341",
            "0x000000000000000000000000ff54d6de4abc7b9f0ee12202f7a3b177a09ac5a0"
          ],
          "data": "0x0000000000000000000000000000000000000000000000000000000001970bf1",
          "blockHash": "0x48514bc2137782dbdb7494bd4e1b0554e050126fbe0c5ff309913cde2e367ad8",
          "blockNumber": "0x181d32d",
          "blockTimestamp": "0x6a290bdb",
          "transactionHash": "0xb5c19a9b127682817e039f03748cc41974a76a7f31ac962353495df7c666ff4b",
          "transactionIndex": "0xd9",
          "logIndex": "0x3be",
          "removed": false
        },
        {
          "address": "0xf6e72db5454dd049d0788e411b06cfaf16853042",
          "topics": [
            "0x085d06ecf4c34b237767a31c0888e121d89546a77f186f1987c6b8715e1a8caa",
            "0x000000000000000000000000ff54d6de4abc7b9f0ee12202f7a3b177a09ac5a0"
          ],
          "data": "0x0000000000000000000000000000000000000000000000000000000001970bf10000000000000000000000000000000000000000000000000000000000000000",
          "blockHash": "0x48514bc2137782dbdb7494bd4e1b0554e050126fbe0c5ff309913cde2e367ad8",
          "blockNumber": "0x181d32d",
          "blockTimestamp": "0x6a290bdb",
          "transactionHash": "0xb5c19a9b127682817e039f03748cc41974a76a7f31ac962353495df7c666ff4b",
          "transactionIndex": "0xd9",
          "logIndex": "0x3bf",
          "removed": false
        },
        {
          "address": "0xdc035d45d973e3ec169d2276ddab16f1e407384f",
          "topics": [
            "0x8c5be1e5ebec7d5bd14f71427d1e84f3dd0314c0f7b2291e5b200ac8c7c3b925",
            "0x000000000000000000000000ff54d6de4abc7b9f0ee12202f7a3b177a09ac5a0",
            "0x000000000000000000000000a188eec8f81263234da3622a406892f3d630f98c"
          ],
          "data": "0x0000000000000000000000000000000000000000000000000000000000000000",
          "blockHash": "0x48514bc2137782dbdb7494bd4e1b0554e050126fbe0c5ff309913cde2e367ad8",
          "blockNumber": "0x181d32d",
          "blockTimestamp": "0x6a290bdb",
          "transactionHash": "0xb5c19a9b127682817e039f03748cc41974a76a7f31ac962353495df7c666ff4b",
          "transactionIndex": "0xd9",
          "logIndex": "0x3c0",
          "removed": false
        },
        {
          "address": "0xa0b86991c6218b36c1d19d4a2e9eb0ce3606eb48",
          "topics": [
            "0x8c5be1e5ebec7d5bd14f71427d1e84f3dd0314c0f7b2291e5b200ac8c7c3b925",
            "0x000000000000000000000000ff54d6de4abc7b9f0ee12202f7a3b177a09ac5a0",
            "0x00000000000000000000000002950460e2b9529d0e00284a5fa2d7bdf3fa4d72"
          ],
          "data": "0x0000000000000000000000000000000000000000000000000000000001970bf1",
          "blockHash": "0x48514bc2137782dbdb7494bd4e1b0554e050126fbe0c5ff309913cde2e367ad8",
          "blockNumber": "0x181d32d",
          "blockTimestamp": "0x6a290bdb",
          "transactionHash": "0xb5c19a9b127682817e039f03748cc41974a76a7f31ac962353495df7c666ff4b",
          "transactionIndex": "0xd9",
          "logIndex": "0x3c1",
          "removed": false
        },
        {
          "address": "0xa0b86991c6218b36c1d19d4a2e9eb0ce3606eb48",
          "topics": [
            "0xddf252ad1be2c89b69c2b068fc378daa952ba7f163c4a11628f55a4df523b3ef",
            "0x000000000000000000000000ff54d6de4abc7b9f0ee12202f7a3b177a09ac5a0",
            "0x00000000000000000000000002950460e2b9529d0e00284a5fa2d7bdf3fa4d72"
          ],
          "data": "0x0000000000000000000000000000000000000000000000000000000001970bf1",
          "blockHash": "0x48514bc2137782dbdb7494bd4e1b0554e050126fbe0c5ff309913cde2e367ad8",
          "blockNumber": "0x181d32d",
          "blockTimestamp": "0x6a290bdb",
          "transactionHash": "0xb5c19a9b127682817e039f03748cc41974a76a7f31ac962353495df7c666ff4b",
          "transactionIndex": "0xd9",
          "logIndex": "0x3c2",
          "removed": false
        },
        {
          "address": "0x4c9edd5852cd905f086c759e8383e09bff1e68b3",
          "topics": [
            "0xddf252ad1be2c89b69c2b068fc378daa952ba7f163c4a11628f55a4df523b3ef",
            "0x00000000000000000000000002950460e2b9529d0e00284a5fa2d7bdf3fa4d72",
            "0x000000000000000000000000ff54d6de4abc7b9f0ee12202f7a3b177a09ac5a0"
          ],
          "data": "0x0000000000000000000000000000000000000000000000017252b6121f37a20e",
          "blockHash": "0x48514bc2137782dbdb7494bd4e1b0554e050126fbe0c5ff309913cde2e367ad8",
          "blockNumber": "0x181d32d",
          "blockTimestamp": "0x6a290bdb",
          "transactionHash": "0xb5c19a9b127682817e039f03748cc41974a76a7f31ac962353495df7c666ff4b",
          "transactionIndex": "0xd9",
          "logIndex": "0x3c3",
          "removed": false
        },
        {
          "address": "0x02950460e2b9529d0e00284a5fa2d7bdf3fa4d72",
          "topics": [
            "0x8b3e96f2b889fa771c53c981b40daf005f63f637f1869f707052d15a3dd97140",
            "0x000000000000000000000000ff54d6de4abc7b9f0ee12202f7a3b177a09ac5a0"
          ],
          "data": "0x00000000000000000000000000000000000000000000000000000000000000010000000000000000000000000000000000000000000000000000000001970bf100000000000000000000000000000000000000000000000000000000000000000000000000000000000000000000000000000000000000017252b6121f37a20e",
          "blockHash": "0x48514bc2137782dbdb7494bd4e1b0554e050126fbe0c5ff309913cde2e367ad8",
          "blockNumber": "0x181d32d",
          "blockTimestamp": "0x6a290bdb",
          "transactionHash": "0xb5c19a9b127682817e039f03748cc41974a76a7f31ac962353495df7c666ff4b",
          "transactionIndex": "0xd9",
          "logIndex": "0x3c4",
          "removed": false
        },
        {
          "address": "0xa0b86991c6218b36c1d19d4a2e9eb0ce3606eb48",
          "topics": [
            "0x8c5be1e5ebec7d5bd14f71427d1e84f3dd0314c0f7b2291e5b200ac8c7c3b925",
            "0x000000000000000000000000ff54d6de4abc7b9f0ee12202f7a3b177a09ac5a0",
            "0x00000000000000000000000002950460e2b9529d0e00284a5fa2d7bdf3fa4d72"
          ],
          "data": "0x0000000000000000000000000000000000000000000000000000000000000000",
          "blockHash": "0x48514bc2137782dbdb7494bd4e1b0554e050126fbe0c5ff309913cde2e367ad8",
          "blockNumber": "0x181d32d",
          "blockTimestamp": "0x6a290bdb",
          "transactionHash": "0xb5c19a9b127682817e039f03748cc41974a76a7f31ac962353495df7c666ff4b",
          "transactionIndex": "0xd9",
          "logIndex": "0x3c5",
          "removed": false
        },
        {
          "address": "0x4c9edd5852cd905f086c759e8383e09bff1e68b3",
          "topics": [
            "0xddf252ad1be2c89b69c2b068fc378daa952ba7f163c4a11628f55a4df523b3ef",
            "0x000000000000000000000000ff54d6de4abc7b9f0ee12202f7a3b177a09ac5a0",
            "0x000000000000000000000000bce8abc09baedcabe93419bf875f6186e182079a"
          ],
          "data": "0x0000000000000000000000000000000000000000000000017252b6121f37a20e",
          "blockHash": "0x48514bc2137782dbdb7494bd4e1b0554e050126fbe0c5ff309913cde2e367ad8",
          "blockNumber": "0x181d32d",
          "blockTimestamp": "0x6a290bdb",
          "transactionHash": "0xb5c19a9b127682817e039f03748cc41974a76a7f31ac962353495df7c666ff4b",
          "transactionIndex": "0xd9",
          "logIndex": "0x3c6",
          "removed": false
        },
        {
          "address": "0xdc035d45d973e3ec169d2276ddab16f1e407384f",
          "topics": [
            "0x8c5be1e5ebec7d5bd14f71427d1e84f3dd0314c0f7b2291e5b200ac8c7c3b925",
            "0x000000000000000000000000ff54d6de4abc7b9f0ee12202f7a3b177a09ac5a0",
            "0x000000000000000000000000a188eec8f81263234da3622a406892f3d630f98c"
          ],
          "data": "0x0000000000000000000000000000000000000000000000017234eebfb7141000",
          "blockHash": "0x48514bc2137782dbdb7494bd4e1b0554e050126fbe0c5ff309913cde2e367ad8",
          "blockNumber": "0x181d32d",
          "blockTimestamp": "0x6a290bdb",
          "transactionHash": "0xb5c19a9b127682817e039f03748cc41974a76a7f31ac962353495df7c666ff4b",
          "transactionIndex": "0xd9",
          "logIndex": "0x3c7",
          "removed": false
        },
        {
          "address": "0xdc035d45d973e3ec169d2276ddab16f1e407384f",
          "topics": [
            "0xddf252ad1be2c89b69c2b068fc378daa952ba7f163c4a11628f55a4df523b3ef",
            "0x000000000000000000000000ff54d6de4abc7b9f0ee12202f7a3b177a09ac5a0",
            "0x000000000000000000000000a188eec8f81263234da3622a406892f3d630f98c"
          ],
          "data": "0x0000000000000000000000000000000000000000000000017234eebfb7141000",
          "blockHash": "0x48514bc2137782dbdb7494bd4e1b0554e050126fbe0c5ff309913cde2e367ad8",
          "blockNumber": "0x181d32d",
          "blockTimestamp": "0x6a290bdb",
          "transactionHash": "0xb5c19a9b127682817e039f03748cc41974a76a7f31ac962353495df7c666ff4b",
          "transactionIndex": "0xd9",
          "logIndex": "0x3c8",
          "removed": false
        },
        {
          "address": "0x35d1b3f3d7966a1dfe207aa4514c12a259a0492b",
          "topics": [
            "0xbb35783b00000000000000000000000000000000000000000000000000000000",
            "0x0000000000000000000000003c0f895007ca717aa01c8693e59df1e8c3777feb",
            "0x000000000000000000000000a188eec8f81263234da3622a406892f3d630f98c",
            "0x00000000000000000000000004ac33dc73bf3a61cd55bf13ae9dee8000000000"
          ],
          "data": "0x000000000000000000000000000000000000000000000000000000000000002000000000000000000000000000000000000000000000000000000000000000e0bb35783b0000000000000000000000003c0f895007ca717aa01c8693e59df1e8c3777feb000000000000000000000000a188eec8f81263234da3622a406892f3d630f98c00000000000000000000000004ac33dc73bf3a61cd55bf13ae9dee800000000000000000000000000000000000000000000000000000000000000000000000000000000000000000000000000000000000000000000000000000000000000000000000000000000000000000000000000000000000000000000000000000000000000000000000000000000000000000000000000000000000000000",
          "blockHash": "0x48514bc2137782dbdb7494bd4e1b0554e050126fbe0c5ff309913cde2e367ad8",
          "blockNumber": "0x181d32d",
          "blockTimestamp": "0x6a290bdb",
          "transactionHash": "0xb5c19a9b127682817e039f03748cc41974a76a7f31ac962353495df7c666ff4b",
          "transactionIndex": "0xd9",
          "logIndex": "0x3c9",
          "removed": false
        },
        {
          "address": "0xdc035d45d973e3ec169d2276ddab16f1e407384f",
          "topics": [
            "0xddf252ad1be2c89b69c2b068fc378daa952ba7f163c4a11628f55a4df523b3ef",
            "0x000000000000000000000000a188eec8f81263234da3622a406892f3d630f98c",
            "0x0000000000000000000000000000000000000000000000000000000000000000"
          ],
          "data": "0x0000000000000000000000000000000000000000000000017234eebfb7141000",
          "blockHash": "0x48514bc2137782dbdb7494bd4e1b0554e050126fbe0c5ff309913cde2e367ad8",
          "blockNumber": "0x181d32d",
          "blockTimestamp": "0x6a290bdb",
          "transactionHash": "0xb5c19a9b127682817e039f03748cc41974a76a7f31ac962353495df7c666ff4b",
          "transactionIndex": "0xd9",
          "logIndex": "0x3ca",
          "removed": false
        },
        {
          "address": "0x3c0f895007ca717aa01c8693e59df1e8c3777feb",
          "topics": [
            "0x0e64978d073561c3dfd4d4e3e4dce066cde2ab246a44f990fabb0a21a4a3bd95",
            "0x000000000000000000000000a188eec8f81263234da3622a406892f3d630f98c",
            "0x000000000000000000000000a188eec8f81263234da3622a406892f3d630f98c"
          ],
          "data": "0x0000000000000000000000000000000000000000000000017234eebfb7141000",
          "blockHash": "0x48514bc2137782dbdb7494bd4e1b0554e050126fbe0c5ff309913cde2e367ad8",
          "blockNumber": "0x181d32d",
          "blockTimestamp": "0x6a290bdb",
          "transactionHash": "0xb5c19a9b127682817e039f03748cc41974a76a7f31ac962353495df7c666ff4b",
          "transactionIndex": "0xd9",
          "logIndex": "0x3cb",
          "removed": false
        },
        {
          "address": "0x35d1b3f3d7966a1dfe207aa4514c12a259a0492b",
          "topics": [
            "0xbb35783b00000000000000000000000000000000000000000000000000000000",
            "0x000000000000000000000000a188eec8f81263234da3622a406892f3d630f98c",
            "0x0000000000000000000000009759a6ac90977b93b58547b4a71c78317f391a28",
            "0x00000000000000000000000004ac33dc73bf3a61cd55bf13ae9dee8000000000"
          ],
          "data": "0x000000000000000000000000000000000000000000000000000000000000002000000000000000000000000000000000000000000000000000000000000000e0bb35783b000000000000000000000000a188eec8f81263234da3622a406892f3d630f98c0000000000000000000000009759a6ac90977b93b58547b4a71c78317f391a2800000000000000000000000004ac33dc73bf3a61cd55bf13ae9dee800000000000000000000000000000000000000000000000000000000000000000000000000000000000000000000000000000000000000000000000000000000000000000000000000000000000000000000000000000000000000000000000000000000000000000000000000000000000000000000000000000000000000000",
          "blockHash": "0x48514bc2137782dbdb7494bd4e1b0554e050126fbe0c5ff309913cde2e367ad8",
          "blockNumber": "0x181d32d",
          "blockTimestamp": "0x6a290bdb",
          "transactionHash": "0xb5c19a9b127682817e039f03748cc41974a76a7f31ac962353495df7c666ff4b",
          "transactionIndex": "0xd9",
          "logIndex": "0x3cc",
          "removed": false
        },
        {
          "address": "0x6b175474e89094c44da98b954eedeac495271d0f",
          "topics": [
            "0xddf252ad1be2c89b69c2b068fc378daa952ba7f163c4a11628f55a4df523b3ef",
            "0x0000000000000000000000000000000000000000000000000000000000000000",
            "0x000000000000000000000000a188eec8f81263234da3622a406892f3d630f98c"
          ],
          "data": "0x0000000000000000000000000000000000000000000000017234eebfb7141000",
          "blockHash": "0x48514bc2137782dbdb7494bd4e1b0554e050126fbe0c5ff309913cde2e367ad8",
          "blockNumber": "0x181d32d",
          "blockTimestamp": "0x6a290bdb",
          "transactionHash": "0xb5c19a9b127682817e039f03748cc41974a76a7f31ac962353495df7c666ff4b",
          "transactionIndex": "0xd9",
          "logIndex": "0x3cd",
          "removed": false
        },
        {
          "address": "0x9759a6ac90977b93b58547b4a71c78317f391a28",
          "topics": [
            "0xef693bed00000000000000000000000000000000000000000000000000000000",
            "0x000000000000000000000000a188eec8f81263234da3622a406892f3d630f98c",
            "0x000000000000000000000000a188eec8f81263234da3622a406892f3d630f98c",
            "0x0000000000000000000000000000000000000000000000017234eebfb7141000"
          ],
          "data": "0x000000000000000000000000000000000000000000000000000000000000002000000000000000000000000000000000000000000000000000000000000000e0ef693bed000000000000000000000000a188eec8f81263234da3622a406892f3d630f98c0000000000000000000000000000000000000000000000017234eebfb7141000000000000000000000000000000000000000000000000000000000000000000000000000000000000000000000000000000000000000000000000000000000000000000000000000000000000000000000000000000000000000000000000000000000000000000000000000000000000000000000000000000000000000000000000000000000000000000000000000000000000000000000000000",
          "blockHash": "0x48514bc2137782dbdb7494bd4e1b0554e050126fbe0c5ff309913cde2e367ad8",
          "blockNumber": "0x181d32d",
          "blockTimestamp": "0x6a290bdb",
          "transactionHash": "0xb5c19a9b127682817e039f03748cc41974a76a7f31ac962353495df7c666ff4b",
          "transactionIndex": "0xd9",
          "logIndex": "0x3ce",
          "removed": false
        },
        {
          "address": "0x6b175474e89094c44da98b954eedeac495271d0f",
          "topics": [
            "0xddf252ad1be2c89b69c2b068fc378daa952ba7f163c4a11628f55a4df523b3ef",
            "0x000000000000000000000000a188eec8f81263234da3622a406892f3d630f98c",
            "0x000000000000000000000000f6e72db5454dd049d0788e411b06cfaf16853042"
          ],
          "data": "0x0000000000000000000000000000000000000000000000017234eebfb7141000",
          "blockHash": "0x48514bc2137782dbdb7494bd4e1b0554e050126fbe0c5ff309913cde2e367ad8",
          "blockNumber": "0x181d32d",
          "blockTimestamp": "0x6a290bdb",
          "transactionHash": "0xb5c19a9b127682817e039f03748cc41974a76a7f31ac962353495df7c666ff4b",
          "transactionIndex": "0xd9",
          "logIndex": "0x3cf",
          "removed": false
        },
        {
          "address": "0xa0b86991c6218b36c1d19d4a2e9eb0ce3606eb48",
          "topics": [
            "0xddf252ad1be2c89b69c2b068fc378daa952ba7f163c4a11628f55a4df523b3ef",
            "0x00000000000000000000000037305b1cd40574e4c5ce33f8e8306be057fd7341",
            "0x000000000000000000000000ff54d6de4abc7b9f0ee12202f7a3b177a09ac5a0"
          ],
          "data": "0x0000000000000000000000000000000000000000000000000000000001970bf1",
          "blockHash": "0x48514bc2137782dbdb7494bd4e1b0554e050126fbe0c5ff309913cde2e367ad8",
          "blockNumber": "0x181d32d",
          "blockTimestamp": "0x6a290bdb",
          "transactionHash": "0xb5c19a9b127682817e039f03748cc41974a76a7f31ac962353495df7c666ff4b",
          "transactionIndex": "0xd9",
          "logIndex": "0x3d0",
          "removed": false
        },
        {
          "address": "0xf6e72db5454dd049d0788e411b06cfaf16853042",
          "topics": [
            "0x085d06ecf4c34b237767a31c0888e121d89546a77f186f1987c6b8715e1a8caa",
            "0x000000000000000000000000ff54d6de4abc7b9f0ee12202f7a3b177a09ac5a0"
          ],
          "data": "0x0000000000000000000000000000000000000000000000000000000001970bf10000000000000000000000000000000000000000000000000000000000000000",
          "blockHash": "0x48514bc2137782dbdb7494bd4e1b0554e050126fbe0c5ff309913cde2e367ad8",
          "blockNumber": "0x181d32d",
          "blockTimestamp": "0x6a290bdb",
          "transactionHash": "0xb5c19a9b127682817e039f03748cc41974a76a7f31ac962353495df7c666ff4b",
          "transactionIndex": "0xd9",
          "logIndex": "0x3d1",
          "removed": false
        },
        {
          "address": "0xdc035d45d973e3ec169d2276ddab16f1e407384f",
          "topics": [
            "0x8c5be1e5ebec7d5bd14f71427d1e84f3dd0314c0f7b2291e5b200ac8c7c3b925",
            "0x000000000000000000000000ff54d6de4abc7b9f0ee12202f7a3b177a09ac5a0",
            "0x000000000000000000000000a188eec8f81263234da3622a406892f3d630f98c"
          ],
          "data": "0x0000000000000000000000000000000000000000000000000000000000000000",
          "blockHash": "0x48514bc2137782dbdb7494bd4e1b0554e050126fbe0c5ff309913cde2e367ad8",
          "blockNumber": "0x181d32d",
          "blockTimestamp": "0x6a290bdb",
          "transactionHash": "0xb5c19a9b127682817e039f03748cc41974a76a7f31ac962353495df7c666ff4b",
          "transactionIndex": "0xd9",
          "logIndex": "0x3d2",
          "removed": false
        },
        {
          "address": "0xa0b86991c6218b36c1d19d4a2e9eb0ce3606eb48",
          "topics": [
            "0x8c5be1e5ebec7d5bd14f71427d1e84f3dd0314c0f7b2291e5b200ac8c7c3b925",
            "0x000000000000000000000000ff54d6de4abc7b9f0ee12202f7a3b177a09ac5a0",
            "0x000000000000000000000000aa5a67c256e27a5d80712c51971408db3370927d"
          ],
          "data": "0x0000000000000000000000000000000000000000000000000000000001970bf1",
          "blockHash": "0x48514bc2137782dbdb7494bd4e1b0554e050126fbe0c5ff309913cde2e367ad8",
          "blockNumber": "0x181d32d",
          "blockTimestamp": "0x6a290bdb",
          "transactionHash": "0xb5c19a9b127682817e039f03748cc41974a76a7f31ac962353495df7c666ff4b",
          "transactionIndex": "0xd9",
          "logIndex": "0x3d3",
          "removed": false
        },
        {
          "address": "0xa0b86991c6218b36c1d19d4a2e9eb0ce3606eb48",
          "topics": [
            "0xddf252ad1be2c89b69c2b068fc378daa952ba7f163c4a11628f55a4df523b3ef",
            "0x000000000000000000000000ff54d6de4abc7b9f0ee12202f7a3b177a09ac5a0",
            "0x000000000000000000000000aa5a67c256e27a5d80712c51971408db3370927d"
          ],
          "data": "0x0000000000000000000000000000000000000000000000000000000001970bf1",
          "blockHash": "0x48514bc2137782dbdb7494bd4e1b0554e050126fbe0c5ff309913cde2e367ad8",
          "blockNumber": "0x181d32d",
          "blockTimestamp": "0x6a290bdb",
          "transactionHash": "0xb5c19a9b127682817e039f03748cc41974a76a7f31ac962353495df7c666ff4b",
          "transactionIndex": "0xd9",
          "logIndex": "0x3d4",
          "removed": false
        },
        {
          "address": "0xa0b86991c6218b36c1d19d4a2e9eb0ce3606eb48",
          "topics": [
            "0xddf252ad1be2c89b69c2b068fc378daa952ba7f163c4a11628f55a4df523b3ef",
            "0x000000000000000000000000aa5a67c256e27a5d80712c51971408db3370927d",
            "0x000000000000000000000000bebc44782c7db0a1a60cb6fe97d0b483032ff1c7"
          ],
          "data": "0x0000000000000000000000000000000000000000000000000000000001970bf1",
          "blockHash": "0x48514bc2137782dbdb7494bd4e1b0554e050126fbe0c5ff309913cde2e367ad8",
          "blockNumber": "0x181d32d",
          "blockTimestamp": "0x6a290bdb",
          "transactionHash": "0xb5c19a9b127682817e039f03748cc41974a76a7f31ac962353495df7c666ff4b",
          "transactionIndex": "0xd9",
          "logIndex": "0x3d5",
          "removed": false
        },
        {
          "address": "0x6c3f90f043a72fa612cbac8115ee7e52bde6e490",
          "topics": [
            "0xddf252ad1be2c89b69c2b068fc378daa952ba7f163c4a11628f55a4df523b3ef",
            "0x0000000000000000000000000000000000000000000000000000000000000000",
            "0x000000000000000000000000aa5a67c256e27a5d80712c51971408db3370927d"
          ],
          "data": "0x00000000000000000000000000000000000000000000000164125a1a4deb2267",
          "blockHash": "0x48514bc2137782dbdb7494bd4e1b0554e050126fbe0c5ff309913cde2e367ad8",
          "blockNumber": "0x181d32d",
          "blockTimestamp": "0x6a290bdb",
          "transactionHash": "0xb5c19a9b127682817e039f03748cc41974a76a7f31ac962353495df7c666ff4b",
          "transactionIndex": "0xd9",
          "logIndex": "0x3d6",
          "removed": false
        },
        {
          "address": "0xbebc44782c7db0a1a60cb6fe97d0b483032ff1c7",
          "topics": [
            "0x423f6495a08fc652425cf4ed0d1f9e37e571d9b9529b1c1c23cce780b2e7df0d",
            "0x000000000000000000000000aa5a67c256e27a5d80712c51971408db3370927d"
          ],
          "data": "0x00000000000000000000000000000000000000000000000000000000000000000000000000000000000000000000000000000000000000000000000001970bf10000000000000000000000000000000000000000000000000000000000000000000000000000000000000000000000000000000000000000000109cc9ed9a56800000000000000000000000000000000000000000000000000000000000004af000000000000000000000000000000000000000000000000000000000000038b0000000000000000000000000000000000000000008508b7e9150a162c5cd97a0000000000000000000000000000000000000000007ff0656f8a50723a3e627a",
          "blockHash": "0x48514bc2137782dbdb7494bd4e1b0554e050126fbe0c5ff309913cde2e367ad8",
          "blockNumber": "0x181d32d",
          "blockTimestamp": "0x6a290bdb",
          "transactionHash": "0xb5c19a9b127682817e039f03748cc41974a76a7f31ac962353495df7c666ff4b",
          "transactionIndex": "0xd9",
          "logIndex": "0x3d7",
          "removed": false
        },
        {
          "address": "0x865377367054516e17014ccded1e7d814edc9ce4",
          "topics": [
            "0xddf252ad1be2c89b69c2b068fc378daa952ba7f163c4a11628f55a4df523b3ef",
            "0x000000000000000000000000aa5a67c256e27a5d80712c51971408db3370927d",
            "0x000000000000000000000000ff54d6de4abc7b9f0ee12202f7a3b177a09ac5a0"
          ],
          "data": "0x00000000000000000000000000000000000000000000000173b824516d2b8411",
          "blockHash": "0x48514bc2137782dbdb7494bd4e1b0554e050126fbe0c5ff309913cde2e367ad8",
          "blockNumber": "0x181d32d",
          "blockTimestamp": "0x6a290bdb",
          "transactionHash": "0xb5c19a9b127682817e039f03748cc41974a76a7f31ac962353495df7c666ff4b",
          "transactionIndex": "0xd9",
          "logIndex": "0x3d8",
          "removed": false
        },
        {
          "address": "0xaa5a67c256e27a5d80712c51971408db3370927d",
          "topics": [
            "0xd013ca23e77a65003c2c659c5442c00c805371b7fc1ebd4c206c41d1536bd90b",
            "0x000000000000000000000000ff54d6de4abc7b9f0ee12202f7a3b177a09ac5a0"
          ],
          "data": "0x000000000000000000000000000000000000000000000000000000000000000200000000000000000000000000000000000000000000000164125a1a4deb2267000000000000000000000000000000000000000000000000000000000000000000000000000000000000000000000000000000000000000173b824516d2b8411",
          "blockHash": "0x48514bc2137782dbdb7494bd4e1b0554e050126fbe0c5ff309913cde2e367ad8",
          "blockNumber": "0x181d32d",
          "blockTimestamp": "0x6a290bdb",
          "transactionHash": "0xb5c19a9b127682817e039f03748cc41974a76a7f31ac962353495df7c666ff4b",
          "transactionIndex": "0xd9",
          "logIndex": "0x3d9",
          "removed": false
        },
        {
          "address": "0xa0b86991c6218b36c1d19d4a2e9eb0ce3606eb48",
          "topics": [
            "0x8c5be1e5ebec7d5bd14f71427d1e84f3dd0314c0f7b2291e5b200ac8c7c3b925",
            "0x000000000000000000000000ff54d6de4abc7b9f0ee12202f7a3b177a09ac5a0",
            "0x000000000000000000000000aa5a67c256e27a5d80712c51971408db3370927d"
          ],
          "data": "0x0000000000000000000000000000000000000000000000000000000000000000",
          "blockHash": "0x48514bc2137782dbdb7494bd4e1b0554e050126fbe0c5ff309913cde2e367ad8",
          "blockNumber": "0x181d32d",
          "blockTimestamp": "0x6a290bdb",
          "transactionHash": "0xb5c19a9b127682817e039f03748cc41974a76a7f31ac962353495df7c666ff4b",
          "transactionIndex": "0xd9",
          "logIndex": "0x3da",
          "removed": false
        },
        {
          "address": "0x865377367054516e17014ccded1e7d814edc9ce4",
          "topics": [
            "0xddf252ad1be2c89b69c2b068fc378daa952ba7f163c4a11628f55a4df523b3ef",
            "0x000000000000000000000000ff54d6de4abc7b9f0ee12202f7a3b177a09ac5a0",
            "0x000000000000000000000000bce8abc09baedcabe93419bf875f6186e182079a"
          ],
          "data": "0x00000000000000000000000000000000000000000000000173b824516d2b8411",
          "blockHash": "0x48514bc2137782dbdb7494bd4e1b0554e050126fbe0c5ff309913cde2e367ad8",
          "blockNumber": "0x181d32d",
          "blockTimestamp": "0x6a290bdb",
          "transactionHash": "0xb5c19a9b127682817e039f03748cc41974a76a7f31ac962353495df7c666ff4b",
          "transactionIndex": "0xd9",
          "logIndex": "0x3db",
          "removed": false
        },
        {
          "address": "0xdc035d45d973e3ec169d2276ddab16f1e407384f",
          "topics": [
            "0xddf252ad1be2c89b69c2b068fc378daa952ba7f163c4a11628f55a4df523b3ef",
            "0x000000000000000000000000ff54d6de4abc7b9f0ee12202f7a3b177a09ac5a0",
            "0x000000000000000000000000cad1a7864a108dbff67f4b8af71fab0c7a86d0b6"
          ],
          "data": "0x000000000000000000000000000000000000000000000000000001ab7d178356",
          "blockHash": "0x48514bc2137782dbdb7494bd4e1b0554e050126fbe0c5ff309913cde2e367ad8",
          "blockNumber": "0x181d32d",
          "blockTimestamp": "0x6a290bdb",
          "transactionHash": "0xb5c19a9b127682817e039f03748cc41974a76a7f31ac962353495df7c666ff4b",
          "transactionIndex": "0xd9",
          "logIndex": "0x3dc",
          "removed": false
        }
      ],
      "logsBloom": "0x0001000000000040003000000800080000008000000000200004000040200800000010044000000000000940804001090010400080040000080000808128000100200000100001000800600800000001000040440200884000c25020000001015800404582060000000002000004080000001100000000000001141610008000002000020000200000000000000204000400000001800000001000001002000002c0000126802000081002008020000200000001c0110000000200090100000200000003001000404000040022000020000802090000180040284000022020408010080000202000802000000000020010000000800010000010010000800480",
      "type": "0x2",
      "transactionHash": "0xb5c19a9b127682817e039f03748cc41974a76a7f31ac962353495df7c666ff4b",
      "transactionIndex": "0xd9",
      "blockHash": "0x48514bc2137782dbdb7494bd4e1b0554e050126fbe0c5ff309913cde2e367ad8",
      "blockNumber": "0x181d32d",
      "gasUsed": "0x110e98",
      "effectiveGasPrice": "0x91dd8f4",
      "from": "0xcad1a7864a108dbff67f4b8af71fab0c7a86d0b6",
      "to": "0xff54d6de4abc7b9f0ee12202f7a3b177a09ac5a0",
      "contractAddress": null
    }
  ],
  "libraries": [],
  "pending": [],
  "returns": {},
  "timestamp": 1781074908263,
  "chain": 1,
  "commit": "6ee7194"
}