{
  "transactions": [
    {
      "hash": "0x75af3194fea3d23c834098943efcbe7c363f2a402df7bdeafb2ec4cdbd6230ac",
      "transactionType": "CALL",
      "contractName": "PhlimboEA",
      "contractAddress": "0x3984ebc84d45a889ddac595d13dc0ac2e54819f4",
      "function": "emergencyTransfer(address)",
      "arguments": [
        "0xCad1a7864a108DBFF67F4b8af71fAB0C7A86D0B6"
      ],
      "transaction": {
        "from": "0xcad1a7864a108dbff67f4b8af71fab0c7a86d0b6",
        "to": "0x3984ebc84d45a889ddac595d13dc0ac2e54819f4",
        "value": "0x0",
        "input": "0x0e501834000000000000000000000000cad1a7864a108dbff67f4b8af71fab0c7a86d0b6",
        "nonce": "0x1f7",
        "chainId": "0x1"
      },
      "additionalContracts": [],
      "isFixedGasLimit": false
    },
    {
      "hash": "0x4479cd2265d88fc9f6600f59151eaef9c536bc9a480d3ff4d5b9616eb74c9c8f",
      "transactionType": "CREATE",
      "contractName": "PhlimboV2",
      "contractAddress": "0x6084a02c2ac0127ddf1e617de257c61480a2aee0",
      "function": null,
      "arguments": [
        "0xf3B5B661b92B75C71fA5Aba8Fd95D7514A9CD605",
        "0xA0b86991c6218b36c1d19D4a2e9Eb0cE3606eB48",
        "864000"
      ],
      "transaction": {
        "from": "0xcad1a7864a108dbff67f4b8af71fab0c7a86d0b6",
        "value": "0x0",
        "input": "0x60803461020f57601f61244038819003918201601f19168301916001600160401b038311848410176102135780849260609460405283398101031261020f5761004781610227565b604061005560208401610227565b9201519133156101fc575f8054336001600160a01b0319821681178355604051949290916001600160a01b0316907f8be0079c531659141344cd1fd0a4f28419497f9722a3daafe3b4186f6b6457e09080a360017f9b779b17422d0df92223018b32b4d1fa46e071723d6817e2486d003becc55f00556001600160a01b03169182156101ba57506001600160a01b03169081156101755782156101305760018060a01b0319600154161760015560018060a01b03196002541617600255600a5542600c555f6009555f600b55604051612204908161023c8239f35b60405162461bcd60e51b815260206004820152601460248201527f4475726174696f6e206d757374206265203e20300000000000000000000000006044820152606490fd5b60405162461bcd60e51b815260206004820152601c60248201527f496e76616c69642072657761726420746f6b656e2061646472657373000000006044820152606490fd5b62461bcd60e51b815260206004820152601560248201527f496e76616c6964207068555344206164647265737300000000000000000000006044820152606490fd5b631e4fbdf760e01b5f525f60045260245ffd5b5f80fd5b634e487b7160e01b5f52604160045260245ffd5b51906001600160a01b038216820361020f5756fe60806040526004361015610011575f80fd5b5f5f3560e01c8062f714ce1461174c5780630310ba8b1461161f57806303d210f4146115fc57806308dbbb03146115da5780630e5018341461142857806315fed4e91461140a5780631959a0021461139f5780631e83409a146111bb578063236b721b1461118757806323cf3118146110f95780632d88af4a1461109557806330a0da3814611077578063338f0ce7146110595780633dfd387314610fcb5780633f4ba83a14610ee2578063535fcf6c14610ec45780635c975abb14610e9f57806360246c8814610e5f57806369b79fde14610d7d5780636aa240fa14610c2b578063715018a614610bad5780637acb7757146109065780637cd07e47146108d25780637f5a7c7b1461089e578063817b1cd2146108805780638456cb59146107805780638da5cb5b1461074d5780638f10369a1461072f578063912dd7f2146107115780639231cf74146106f35780639fd0506d146106bf578063aa5c3ab4146106a1578063aaf5eb681461067e578063bd3507da1461054c578063d84612dc1461052e578063db65e0ce146104fa578063ddec4778146104dc578063de8c7dea1461042e578063e6a69ab81461040f578063f2fde38b1461033f578063f7c618c11461030b5763faa28576146101e7575f80fd5b34610308576020600319360112610308576004356102036120c0565b80156102aa57610211611d27565b600a549080600a55600954670de0b6b3a7640000810290808204670de0b6b3a7640000149015171561027d57918161026c6040937fbd6629d3139b5595966cce9ee4270867a7a5ebaca81943509f0094021854a44395611b63565b600b5582519182526020820152a180f35b6024847f4e487b710000000000000000000000000000000000000000000000000000000081526011600452fd5b60646040517f08c379a000000000000000000000000000000000000000000000000000000000815260206004820152601460248201527f4475726174696f6e206d757374206265203e20300000000000000000000000006044820152fd5b80fd5b5034610308578060031936011261030857602073ffffffffffffffffffffffffffffffffffffffff60025416604051908152f35b50346103085760206003193601126103085773ffffffffffffffffffffffffffffffffffffffff61036e6119c4565b6103766120c0565b1680156103e35773ffffffffffffffffffffffffffffffffffffffff8254827fffffffffffffffffffffffff00000000000000000000000000000000000000008216178455167f8be0079c531659141344cd1fd0a4f28419497f9722a3daafe3b4186f6b6457e08380a380f35b6024827f1e4fbdf700000000000000000000000000000000000000000000000000000000815280600452fd5b503461030857806003193601126103085760206040516301e133808152f35b50346103085760206003193601126103085760043561044b612197565b33825260126020526040822061047982825461046982821015611ab1565b610474821515611c15565b611b16565b905561048781600f54611b16565b600f556104ad813373ffffffffffffffffffffffffffffffffffffffff60015416611fca565b6040519081527f23d6711a1d031134a36921253c75aa59e967d38e369ac625992824315e204f2060203392a280f35b50346103085780600319360112610308576020600754604051908152f35b5034610308578060031936011261030857606060065460075460ff6008541690604051928352602083015215156040820152f35b50346103085780600319360112610308576020600454604051908152f35b5034610308576020600319360112610308576004359061056a611cb0565b610575821515611c15565b61057d611d27565b6105a38273ffffffffffffffffffffffffffffffffffffffff600254163090339061210c565b6105af82600954611c08565b80600955670de0b6b3a7640000810292818404670de0b6b3a76400001482151715610651576106276106067fa9ba87905525541e4348d30950feb0e0ac84fc2632206644e892923e32da79c09495600a5490611b63565b80600b55604051938493846040919493926060820195825260208201520152565b0390a160017f9b779b17422d0df92223018b32b4d1fa46e071723d6817e2486d003becc55f005580f35b6024837f4e487b710000000000000000000000000000000000000000000000000000000081526011600452fd5b50346103085780600319360112610308576020604051670de0b6b3a76400008152f35b50346103085780600319360112610308576020600954604051908152f35b5034610308578060031936011261030857602073ffffffffffffffffffffffffffffffffffffffff60035416604051908152f35b50346103085780600319360112610308576020600c54604051908152f35b50346103085780600319360112610308576020600e54604051908152f35b50346103085780600319360112610308576020600b54604051908152f35b503461030857806003193601126103085773ffffffffffffffffffffffffffffffffffffffff6020915416604051908152f35b503461030857806003193601126103085773ffffffffffffffffffffffffffffffffffffffff600354163303610822576107b8611c7a565b740100000000000000000000000000000000000000007fffffffffffffffffffffff00ffffffffffffffffffffffffffffffffffffffff8254161781557f62e78cea01bee320cd4e420270b5ea74000d11b0c9f74754ebdbfc544b05a2586020604051338152a180f35b60646040517f08c379a000000000000000000000000000000000000000000000000000000000815260206004820152601560248201527f4f6e6c79207061757365722063616e20706175736500000000000000000000006044820152fd5b50346103085780600319360112610308576020600f54604051908152f35b5034610308578060031936011261030857602073ffffffffffffffffffffffffffffffffffffffff60115416604051908152f35b5034610308578060031936011261030857602073ffffffffffffffffffffffffffffffffffffffff60105416604051908152f35b5034610308576040600319360112610308576004356109236119a1565b9061092c611c7a565b610934611cb0565b66038d7ea4c680008110610b4f578173ffffffffffffffffffffffffffffffffffffffff8493166109668115156119e7565b8033148015610b29575b61097990611a4c565b610981611d27565b8084526012602052604084208054610b1a575b6109ba8473ffffffffffffffffffffffffffffffffffffffff600154163090339061210c565b6002670de0b6b3a76400006109f26109d3878554611c08565b808555826109e3600d5483611b50565b046001860155600e5490611b50565b04910155610a0283600f54611c08565b600f55610a0d612094565b7f9e71bc8eea02a63969f509818f2dafb9254532904319f9dbda79b67bd34a5f3d6020604051858152a273ffffffffffffffffffffffffffffffffffffffff601154169182610a7f575b8360017f9b779b17422d0df92223018b32b4d1fa46e071723d6817e2486d003becc55f005580f35b823b15610b15576040517f412c6d5000000000000000000000000000000000000000000000000000000000815233600482015273ffffffffffffffffffffffffffffffffffffffff92909216602483015260448201529082908290606490829084905af18015610b0a57610af5575b8080610a57565b81610aff91611b9a565b61030857805f610aee565b6040513d84823e3d90fd5b505050fd5b610b243384611e2d565b610994565b5061097973ffffffffffffffffffffffffffffffffffffffff6010541633149050610970565b60646040517f08c379a000000000000000000000000000000000000000000000000000000000815260206004820152601360248201527f42656c6f77206d696e696d756d207374616b65000000000000000000000000006044820152fd5b5034610308578060031936011261030857610bc66120c0565b8073ffffffffffffffffffffffffffffffffffffffff81547fffffffffffffffffffffffff000000000000000000000000000000000000000081168355167f8be0079c531659141344cd1fd0a4f28419497f9722a3daafe3b4186f6b6457e08280a380f35b50346103085760206003193601126103085773ffffffffffffffffffffffffffffffffffffffff610c5a6119c4565b16815260126020526040812090600e5490600c5480421180610d72575b610caa575b6020610ca2856002670de0b6b3a7640000610c98888454611b50565b0491015490611b16565b604051908152f35b610cc8610cc0670de0b6b3a76400009242611b16565b600b54611b50565b04600954908181115f14610d6a5750905b81158015610ce8575b50610c7c565b670de0b6b3a76400008302928304670de0b6b3a7640000141715610d3d5750916002670de0b6b3a7640000610c98610d32610ca295610d2c602098600f5490611b63565b90611c08565b945050829450610ce2565b807f4e487b7100000000000000000000000000000000000000000000000000000000602492526011600452fd5b905090610cd9565b50600f541515610c77565b50346103085760206003193601126103085773ffffffffffffffffffffffffffffffffffffffff610dac6119c4565b16815260126020526040812090600d5490600c5480421180610e54575b610dea575b6020610ca2856001670de0b6b3a7640000610c98888454611b50565b610df7610e009142611b16565b60055490611b50565b90670de0b6b3a7640000820291808304670de0b6b3a76400001490151715610d3d5750916001670de0b6b3a7640000610c98610e48610ca295610d2c602098600f5490611b63565b94505050819350610dce565b50600f541515610dc9565b503461030857806003193601126103085760a0600f54600d54600e5460055490600c54926040519485526020850152604084015260608301526080820152f35b503461030857806003193601126103085760ff6020915460a01c166040519015158152f35b50346103085780600319360112610308576020600a54604051908152f35b503461030857806003193601126103085773ffffffffffffffffffffffffffffffffffffffff600354163303610f6d57610f1a612197565b7fffffffffffffffffffffff00ffffffffffffffffffffffffffffffffffffffff81541681557f5db9ee0a495bf2e6ff9c91a7834c1ba4fdd244a5e8aa4e537bd38aeae4b073aa6020604051338152a180f35b60646040517f08c379a000000000000000000000000000000000000000000000000000000000815260206004820152601760248201527f4f6e6c79207061757365722063616e20756e70617573650000000000000000006044820152fd5b503461030857602060031936011261030857610fe56119c4565b610fed6120c0565b73ffffffffffffffffffffffffffffffffffffffff80601154921691827fffffffffffffffffffffffff0000000000000000000000000000000000000000821617601155167fdeb921a539e5e8a04ad7d6f061836e89b42e8a002ee08a251374a291085cea7a8380a380f35b50346103085780600319360112610308576020600654604051908152f35b50346103085780600319360112610308576020600d54604051908152f35b50346103085760206003193601126103085773ffffffffffffffffffffffffffffffffffffffff6110c46119c4565b6110cc6120c0565b167fffffffffffffffffffffffff0000000000000000000000000000000000000000600354161760035580f35b5034610308576020600319360112610308576111136119c4565b61111b6120c0565b73ffffffffffffffffffffffffffffffffffffffff80601054921691827fffffffffffffffffffffffff0000000000000000000000000000000000000000821617601055167f9d0761a1fa4d686cd87f8dbf8ca52f90cf19c3c4dc36e66ebbf08fc5ba203f2c8380a380f35b5034610308578060031936011261030857602073ffffffffffffffffffffffffffffffffffffffff60015416604051908152f35b503461030857602060031936011261030857806111d66119c4565b6111de611c7a565b6111e6611cb0565b73ffffffffffffffffffffffffffffffffffffffff81166112088115156119e7565b8033148015611379575b61121b90611a4c565b611223611d27565b8083526012602052604083208390849381548061132a575b50611247903390611e2d565b6002670de0b6b3a76400006112648354826109e3600d5483611b50565b0491015573ffffffffffffffffffffffffffffffffffffffff60115416806112af575b8460017f9b779b17422d0df92223018b32b4d1fa46e071723d6817e2486d003becc55f005580f35b803b156113265784928360849260405196879586947f72b8a3460000000000000000000000000000000000000000000000000000000086523360048701526024860152604485015260648401525af18015610b0a57611311575b808080611287565b8161131b91611b9a565b61030857805f611309565b8480fd5b92509350611247611372670de0b6b3a764000061136661135c82611350600d5489611b50565b04600187015490611b16565b95600e5490611b50565b04600284015490611b16565b949061123b565b5061121b73ffffffffffffffffffffffffffffffffffffffff6010541633149050611212565b50346103085760206003193601126103085760409073ffffffffffffffffffffffffffffffffffffffff6113d16119c4565b168152601260205220805461140660026001840154930154604051938493846040919493926060820195825260208201520152565b0390f35b50346103085780600319360112610308576020600554604051908152f35b5034610308576020600319360112610308576114426119c4565b61144a6120c0565b73ffffffffffffffffffffffffffffffffffffffff60015416604051907f70a08231000000000000000000000000000000000000000000000000000000008252306004830152602082602481845afa80156115cf57849061159c575b60249250602073ffffffffffffffffffffffffffffffffffffffff60025416604051948580927f70a082310000000000000000000000000000000000000000000000000000000082523060048301525afa928315611591578593611559575b508381611548575b5050508061151f575b826107b8611c7a565b6115419173ffffffffffffffffffffffffffffffffffffffff60025416611fca565b5f80611516565b61155192611fca565b5f808361150d565b9092506020813d602011611589575b8161157560209383611b9a565b810103126115855751915f611505565b5f80fd5b3d9150611568565b6040513d87823e3d90fd5b506020823d6020116115c7575b816115b660209383611b9a565b8101031261158557602491516114a6565b3d91506115a9565b6040513d86823e3d90fd5b5034610308578060031936011261030857602060405166038d7ea4c680008152f35b5034610308578060031936011261030857602060ff600854166040519015158152f35b50346103085760206003193601126103085760043561163c6120c0565b60ff60085416158015611736575b801561172a575b156116b857604051438152817ff36724fbbf2685c5998d22a2a0c456aef7fa52993217cfc000e9f63f49a079a460203393a36006554360075560017fffffffffffffffffffffffffffffffffffffffffffffffffffffffffffffff00600854161760085580f35b60407fc117227285531c7c9ad99f34a6534f83f953ba3a59f320340c538dbc5f558251916116e4611d27565b60045490806004556116f4612094565b82519182526020820152a17fffffffffffffffffffffffffffffffffffffffffffffffffffffffffffffff006008541660085580f35b50600654811415611651565b506007546064810180911161065157431161164a565b5034611585576040600319360112611585576004356117696119a1565b611771611c7a565b611779611cb0565b73ffffffffffffffffffffffffffffffffffffffff811661179b8115156119e7565b803314801561197b575b6117ae90611a4c565b805f52601260205260405f206117c78482541015611ab1565b6117cf611d27565b6117d93384611e2d565b8054936117e68186611b16565b90948115158061196b575b611958575b50670de0b6b3a7640000611816826002938555826109e3600d5483611b50565b0491015561182683600f54611b16565b600f5561184c833373ffffffffffffffffffffffffffffffffffffffff60015416611fca565b611854612094565b7f7084f5476618d8e60b11ef0d7d3f06914655adb8793e28ff7f018d4c76d505d56020604051858152a273ffffffffffffffffffffffffffffffffffffffff6011541691826118c5578360017f9b779b17422d0df92223018b32b4d1fa46e071723d6817e2486d003becc55f005580f35b823b15611585576040517ff850ffaa00000000000000000000000000000000000000000000000000000000815233600482015273ffffffffffffffffffffffffffffffffffffffff9290921660248301526044820152905f908290606490829084905af1801561194d5761193a578080610a57565b61194691505f90611b9a565b5f5f610aee565b6040513d5f823e3d90fd5b94505f9050670de0b6b3a76400006117f6565b5066038d7ea4c6800082106117f1565b506117ae73ffffffffffffffffffffffffffffffffffffffff60105416331490506117a5565b6024359073ffffffffffffffffffffffffffffffffffffffff8216820361158557565b6004359073ffffffffffffffffffffffffffffffffffffffff8216820361158557565b156119ee57565b60646040517f08c379a000000000000000000000000000000000000000000000000000000000815260206004820152600c60248201527f496e76616c6964207573657200000000000000000000000000000000000000006044820152fd5b15611a5357565b60646040517f08c379a000000000000000000000000000000000000000000000000000000000815260206004820152600e60248201527f4e6f7420617574686f72697a65640000000000000000000000000000000000006044820152fd5b15611ab857565b60646040517f08c379a000000000000000000000000000000000000000000000000000000000815260206004820152601460248201527f496e73756666696369656e742062616c616e63650000000000000000000000006044820152fd5b91908203918211611b2357565b7f4e487b71000000000000000000000000000000000000000000000000000000005f52601160045260245ffd5b81810292918115918404141715611b2357565b8115611b6d570490565b7f4e487b71000000000000000000000000000000000000000000000000000000005f52601260045260245ffd5b90601f7fffffffffffffffffffffffffffffffffffffffffffffffffffffffffffffffe0910116810190811067ffffffffffffffff821117611bdb57604052565b7f4e487b71000000000000000000000000000000000000000000000000000000005f52604160045260245ffd5b91908201809211611b2357565b15611c1c57565b60646040517f08c379a000000000000000000000000000000000000000000000000000000000815260206004820152601d60248201527f416d6f756e74206d7573742062652067726561746572207468616e20300000006044820152fd5b60ff5f5460a01c16611c8857565b7fd93c0665000000000000000000000000000000000000000000000000000000005f5260045ffd5b60027f9b779b17422d0df92223018b32b4d1fa46e071723d6817e2486d003becc55f005414611cff5760027f9b779b17422d0df92223018b32b4d1fa46e071723d6817e2486d003becc55f0055565b7f3ee5aeb5000000000000000000000000000000000000000000000000000000005f5260045ffd5b600c54421115611e2b57600f548015611e2457611d46600c5442611b16565b670de0b6b3a7640000611d5b82600b54611b50565b04600954908181115f14611e1f5750805b8015918215611dd5575b50505060055480611d8b575b50505042600c55565b611d9491611b50565b670de0b6b3a7640000810290808204670de0b6b3a76400001490151715611b2357611dca91611dc291611b63565b600d54611c08565b600d555f8080611d82565b670de0b6b3a7640000820292828404670de0b6b3a7640000141715611b2357611e0c611e0486611e1495611b63565b600e54611c08565b600e55611b16565b6009555f8080611d76565b611d6c565b5042600c55565b565b73ffffffffffffffffffffffffffffffffffffffff1690815f52601260205260405f2080548015611fc457670de0b6b3a7640000611e71611e7d92600d5490611b50565b04600183015490611b16565b9182159081159283611f28575b806002670de0b6b3a7640000610c98611ea79454600e5490611b50565b92831515918483611eff575b505091611ef7575b50611ec557505050565b7fdacbdde355ba930696a362ea6738feb9f8bd52dfb3d81947558fd3217e23e3259160409182519182526020820152a2565b90505f611ebb565b611f219173ffffffffffffffffffffffffffffffffffffffff60025416611fca565b5f84611eb3565b73ffffffffffffffffffffffffffffffffffffffff6001541690813b15611585575f80926044604051809581937f40c10f1900000000000000000000000000000000000000000000000000000000835273ffffffffffffffffffffffffffffffffffffffff891660048401528b60248401525af191821561194d57611ea792611fb4575b509050611e8a565b5f611fbe91611b9a565b5f611fac565b50505050565b9173ffffffffffffffffffffffffffffffffffffffff604051927fa9059cbb000000000000000000000000000000000000000000000000000000005f521660045260245260205f60448180865af19060015f5114821615612073575b604052156120315750565b73ffffffffffffffffffffffffffffffffffffffff907f5274afe7000000000000000000000000000000000000000000000000000000005f521660045260245ffd5b90600181151661208b57823b15153d15161690612026565b503d5f823e3d90fd5b600f5480156120b9576127106120b26301e133809260045490611b50565b0404600555565b505f600555565b73ffffffffffffffffffffffffffffffffffffffff5f541633036120e057565b7f118cdaa7000000000000000000000000000000000000000000000000000000005f523360045260245ffd5b92909173ffffffffffffffffffffffffffffffffffffffff9081604051947f23b872dd000000000000000000000000000000000000000000000000000000005f52166004521660245260445260205f60648180865af19060015f511482161561217f575b6040525f606052156120315750565b90600181151661208b57823b15153d15161690612170565b60ff5f5460a01c16156121a657565b7f8dfc202b000000000000000000000000000000000000000000000000000000005f5260045ffdfea26469706673582212205d2653e44d27bd4cffeebfbaa0186e65678ea59e88fc5915d0ac327c5aeb40c064736f6c634300081e0033000000000000000000000000f3b5b661b92b75c71fa5aba8fd95d7514a9cd605000000000000000000000000a0b86991c6218b36c1d19d4a2e9eb0ce3606eb4800000000000000000000000000000000000000000000000000000000000d2f00",
        "nonce": "0x1f8",
        "chainId": "0x1"
      },
      "additionalContracts": [],
      "isFixedGasLimit": false
    },
    {
      "hash": "0x1c4ed660dbd39a3801c226d4ce9df1a3175d7ae4119917c1338918d56cf29eea",
      "transactionType": "CREATE",
      "contractName": "MigratorV1V2",
      "contractAddress": "0xb50caf00647127f7a4945c4b007c4efa205364de",
      "function": null,
      "arguments": [
        "0xA0b86991c6218b36c1d19D4a2e9Eb0cE3606eB48",
        "0xf3B5B661b92B75C71fA5Aba8Fd95D7514A9CD605",
        "0x6084a02C2Ac0127ddF1e617De257c61480A2AeE0"
      ],
      "transaction": {
        "from": "0xcad1a7864a108dbff67f4b8af71fab0c7a86d0b6",
        "value": "0x0",
        "input": "0x60e03461024057601f611aca38819003918201601f19168301916001600160401b03831184841017610244578084926060946040528339810103126102405761004781610258565b90610060604061005960208401610258565b9201610258565b90331561022d575f8054336001600160a01b0319821681178355604051959290916001600160a01b0316907f8be0079c531659141344cd1fd0a4f28419497f9722a3daafe3b4186f6b6457e09080a360017f9b779b17422d0df92223018b32b4d1fa46e071723d6817e2486d003becc55f00556001600160a01b03169283156101eb57506001600160a01b03169081156101a6576001600160a01b03169182156101615760805260a05260c05260405161185d908161026d8239608051818181610c0b01528181610e9c0152610f72015260a05181818161026701528181610cb2015281816110220152611391015260c0518181816102ee01526106ce0152f35b60405162461bcd60e51b815260206004820152601960248201527f496e76616c69642070686c696d626f56322061646472657373000000000000006044820152606490fd5b60405162461bcd60e51b815260206004820152601560248201527f496e76616c6964207068555344206164647265737300000000000000000000006044820152606490fd5b62461bcd60e51b815260206004820152601460248201527f496e76616c6964205553444320616464726573730000000000000000000000006044820152606490fd5b631e4fbdf760e01b5f525f60045260245ffd5b5f80fd5b634e487b7160e01b5f52604160045260245ffd5b51906001600160a01b03821682036102405756fe6080806040526004361015610012575f80fd5b5f3560e01c90816307973ccf146113ef57508063171ff257146113d25780631dec1515146113b5578063236b721b1461136557806327a0bb3314610f30578063334041a614610f0e578063365b98b214610ec05780633e413bee14610e70578063715018a614610df4578063853828b614610bd95780638da5cb5b14610ba7578063a1a5cea514610b7e578063a908786e14610b61578063aff621951461071b578063b02c43d0146106f2578063b0d9ea83146106a2578063b3ad337d1461066a578063b668bc9414610212578063ccb87474146101f5578063f2fde38b146101245763f4e8d8c614610103575f80fd5b34610120575f600319360112610120576020600954604051908152f35b5f80fd5b346101205760206003193601126101205760043573ffffffffffffffffffffffffffffffffffffffff81168091036101205761015e6117db565b80156101c95773ffffffffffffffffffffffffffffffffffffffff5f54827fffffffffffffffffffffffff00000000000000000000000000000000000000008216175f55167f8be0079c531659141344cd1fd0a4f28419497f9722a3daafe3b4186f6b6457e05f80a3005b7f1e4fbdf7000000000000000000000000000000000000000000000000000000005f525f60045260245ffd5b34610120575f600319360112610120576020600654604051908152f35b346101205760206003193601126101205760043561022e6116a3565b61023c60ff600854166114dc565b5f600a541261060c57610250811515611541565b73ffffffffffffffffffffffffffffffffffffffff7f0000000000000000000000000000000000000000000000000000000000000000166040517f70a08231000000000000000000000000000000000000000000000000000000008152306004820152602081602481855afa80156104b6575f906105d8575b6102d79150600654146115e7565b73ffffffffffffffffffffffffffffffffffffffff7f000000000000000000000000000000000000000000000000000000000000000016906040517f095ea7b3000000000000000000000000000000000000000000000000000000005f52826004525f1960245260205f60448180865af19060015f51148216156105c9575b604052156104c8575b5061036d600a54928361164c565b90600154918281116104c1575b905b8184106103f457505081036103ec57505f19600a555b7fb1224d2576032d2bd4e1f9390eaaa7861d47709b5ad5c33c84a43178ea289fe96040600a5460065482519182526020820152a160017f9b779b17422d0df92223018b32b4d1fa46e071723d6817e2486d003becc55f0055005b600a55610392565b90926103ff8161147e565b90549060031b1c9081610419575b6001915001929061037c565b73ffffffffffffffffffffffffffffffffffffffff61043782611466565b90549060031b1c1691833b1561012057604051927f7acb775700000000000000000000000000000000000000000000000000000000845281600485015260248401525f8360448183885af19081156104b65760019361049e926104a6575b50600654611686565b60065561040d565b5f6104b0916115a6565b87610495565b6040513d5f823e3d90fd5b508161037a565b6040517f095ea7b3000000000000000000000000000000000000000000000000000000005f52826004525f60245260205f60448180865af19060015f51148216156105b1575b60405215610565576040517f095ea7b3000000000000000000000000000000000000000000000000000000005f52826004525f1960245260205f60448180865af19060015f5114821615610590575b60405261035f575b7f5274afe7000000000000000000000000000000000000000000000000000000005f5260045260245ffd5b9060018115166105a857823b15153d1516169061055d565b503d5f823e3d90fd5b9060018115166105a857823b15153d1516169061050e565b90823b15153d15161690610356565b506020813d602011610604575b816105f2602093836115a6565b81010312610120576102d790516102c9565b3d91506105e5565b60646040517f08c379a000000000000000000000000000000000000000000000000000000000815260206004820152601260248201527f4d6967726174696f6e20636f6d706c65746500000000000000000000000000006044820152fd5b346101205760206003193601126101205760043560035481101561012057610693602091611409565b90549060031b1c604051908152f35b34610120575f60031936011261012057602060405173ffffffffffffffffffffffffffffffffffffffff7f0000000000000000000000000000000000000000000000000000000000000000168152f35b34610120576020600319360112610120576004356002548110156101205761069360209161147e565b346101205760806003193601126101205760043567ffffffffffffffff81116101205761074c9036906004016114ab565b9060243567ffffffffffffffff81116101205761076d9036906004016114ab565b919060443567ffffffffffffffff81116101205761078f9036906004016114ab565b93909260643567ffffffffffffffff8111610120576107b29036906004016114ab565b9390946107bd6117db565b60ff60085416610b03578715610aa55787841480610a9c575b80610a93575b15610a355796959291905f975f955f975f965b8a881061086d57507fe035d6ea43f6dbfe78c29cb35c46d37ba9c6676eac93cee0a46f72ad50f6621460808b8b8b8f80600555816006558260075560017fffffffffffffffffffffffffffffffffffffffffffffffffffffffffffffff006008541617600855604051938452602084015260408301526060820152a1005b90919293949596999a6108818b8d89611693565b3573ffffffffffffffffffffffffffffffffffffffff81168091036101205760015468010000000000000000811015610a08578060016108c49201600155611466565b73ffffffffffffffffffffffffffffffffffffffff829392549160031b92831b921b19161790556108f68b8988611693565b3560025468010000000000000000811015610a085780600161091d92016002556002611496565b5f19829392549160031b92831b921b191617905561093c8b8387611693565b3560035468010000000000000000811015610a085780600161096392016003556003611496565b5f19829392549160031b92831b921b19161790556109828b8585611693565b356004549168010000000000000000831015610a08578c9a6109da6109e16109e9936109da8f6109f5976109bf8a6001809c016004556004611496565b5f19829392549160031b92831b921b1916179055898d611693565b359061164c565b9c8c8b611693565b9a6109da8d8787611693565b9a01969594939291909a9998979a6107ef565b7f4e487b71000000000000000000000000000000000000000000000000000000005f52604160045260245ffd5b60646040517f08c379a000000000000000000000000000000000000000000000000000000000815260206004820152600f60248201527f4c656e677468206d69736d6174636800000000000000000000000000000000006044820152fd5b508785146107dc565b508787146107d6565b60646040517f08c379a000000000000000000000000000000000000000000000000000000000815260206004820152600b60248201527f456d7074792075736572730000000000000000000000000000000000000000006044820152fd5b60646040517f08c379a000000000000000000000000000000000000000000000000000000000815260206004820152600e60248201527f416c7265616479207365656465640000000000000000000000000000000000006044820152fd5b34610120575f600319360112610120576020600754604051908152f35b34610120576020600319360112610120576004356004548110156101205761069360209161144e565b34610120575f60031936011261012057602073ffffffffffffffffffffffffffffffffffffffff5f5416604051908152f35b34610120575f60031936011261012057610bf16117db565b73ffffffffffffffffffffffffffffffffffffffff5f54167f00000000000000000000000000000000000000000000000000000000000000006040517f70a0823100000000000000000000000000000000000000000000000000000000815230600482015260208160248173ffffffffffffffffffffffffffffffffffffffff86165afa9081156104b6575f91610dc2575b506040517f70a082310000000000000000000000000000000000000000000000000000000081523060048201527f000000000000000000000000000000000000000000000000000000000000000073ffffffffffffffffffffffffffffffffffffffff1692602082602481875afa9182156104b6575f92610d6c575b50907f8f420e722d4b21a3e3ef6314f97a0827afa394a45c56d2f53f2b638d1efa845e9383928387604096610d5b575b905083809250610d4a575b50505082519182526020820152a2005b610d539261171a565b858186610d3a565b610d649261171a565b868387610d2f565b9291506020833d602011610dba575b81610d88602093836115a6565b8101031261012057915190917f8f420e722d4b21a3e3ef6314f97a0827afa394a45c56d2f53f2b638d1efa845e610cff565b3d9150610d7b565b90506020813d602011610dec575b81610ddd602093836115a6565b81010312610120575183610c83565b3d9150610dd0565b34610120575f60031936011261012057610e0c6117db565b5f73ffffffffffffffffffffffffffffffffffffffff81547fffffffffffffffffffffffff000000000000000000000000000000000000000081168355167f8be0079c531659141344cd1fd0a4f28419497f9722a3daafe3b4186f6b6457e08280a3005b34610120575f60031936011261012057602060405173ffffffffffffffffffffffffffffffffffffffff7f0000000000000000000000000000000000000000000000000000000000000000168152f35b34610120576020600319360112610120576004356001548110156101205773ffffffffffffffffffffffffffffffffffffffff610efe602092611466565b90549060031b1c16604051908152f35b34610120575f60031936011261012057602060ff600854166040519015158152f35b3461012057602060031936011261012057600435610f4c6116a3565b610f5a60ff600854166114dc565b600954905f821261130757610f70811515611541565b7f0000000000000000000000000000000000000000000000000000000000000000906040517f70a0823100000000000000000000000000000000000000000000000000000000815230600482015260208160248173ffffffffffffffffffffffffffffffffffffffff87165afa9081156104b6575f916112d5575b5060055403611277576040517f70a082310000000000000000000000000000000000000000000000000000000081523060048201527f000000000000000000000000000000000000000000000000000000000000000073ffffffffffffffffffffffffffffffffffffffff1691602082602481865afa9182156104b6575f92611241575b5061108061108692600654146115e7565b8461164c565b916001549283811161123a575b91905b82851061111957505050810361111157505f196009555b7f6baa0508df6c8bb1346a6a162c7327830aa1075227fb36d74d5f06f2a696cb0460606009546005546007549060405192835260208301526040820152a160017f9b779b17422d0df92223018b32b4d1fa46e071723d6817e2486d003becc55f0055005b6009556110ad565b90919361112581611409565b90549060031b1c906111368161144e565b90549060031b1c91806111f5575b5081611158575b6001915001939190611096565b73ffffffffffffffffffffffffffffffffffffffff61117682611466565b90549060031b1c1691843b1561012057604051927f40c10f1900000000000000000000000000000000000000000000000000000000845260048401528060248401525f8360448183895af19081156104b6576001936111dd926111e5575b50600754611686565b60075561114b565b5f6111ef916115a6565b886111d4565b806112296112319273ffffffffffffffffffffffffffffffffffffffff61121b86611466565b90549060031b1c168761171a565b600554611686565b60055586611144565b5082611093565b91506020823d60201161126f575b8161125c602093836115a6565b810103126101205790519061108061106f565b3d915061124f565b60646040517f08c379a000000000000000000000000000000000000000000000000000000000815260206004820152601560248201527f555344432062616c616e6365206d69736d6174636800000000000000000000006044820152fd5b90506020813d6020116112ff575b816112f0602093836115a6565b81010312610120575184610feb565b3d91506112e3565b60646040517f08c379a000000000000000000000000000000000000000000000000000000000815260206004820152601360248201527f536574746c656d656e7420636f6d706c657465000000000000000000000000006044820152fd5b34610120575f60031936011261012057602060405173ffffffffffffffffffffffffffffffffffffffff7f0000000000000000000000000000000000000000000000000000000000000000168152f35b34610120575f600319360112610120576020600554604051908152f35b34610120575f600319360112610120576020600a54604051908152f35b34610120575f600319360112610120576020906001548152f35b6003548110156114215760035f5260205f2001905f90565b7f4e487b71000000000000000000000000000000000000000000000000000000005f52603260045260245ffd5b6004548110156114215760045f5260205f2001905f90565b6001548110156114215760015f5260205f2001905f90565b6002548110156114215760025f5260205f2001905f90565b8054821015611421575f5260205f2001905f90565b9181601f840112156101205782359167ffffffffffffffff8311610120576020808501948460051b01011161012057565b156114e357565b60646040517f08c379a000000000000000000000000000000000000000000000000000000000815260206004820152600a60248201527f4e6f7420736565646564000000000000000000000000000000000000000000006044820152fd5b1561154857565b60646040517f08c379a000000000000000000000000000000000000000000000000000000000815260206004820152601060248201527f6d6178497465726174696f6e733d3d30000000000000000000000000000000006044820152fd5b90601f7fffffffffffffffffffffffffffffffffffffffffffffffffffffffffffffffe0910116810190811067ffffffffffffffff821117610a0857604052565b156115ee57565b60646040517f08c379a000000000000000000000000000000000000000000000000000000000815260206004820152601660248201527f70685553442062616c616e6365206d69736d61746368000000000000000000006044820152fd5b9190820180921161165957565b7f4e487b71000000000000000000000000000000000000000000000000000000005f52601160045260245ffd5b9190820391821161165957565b91908110156114215760051b0190565b60027f9b779b17422d0df92223018b32b4d1fa46e071723d6817e2486d003becc55f0054146116f25760027f9b779b17422d0df92223018b32b4d1fa46e071723d6817e2486d003becc55f0055565b7f3ee5aeb5000000000000000000000000000000000000000000000000000000005f5260045ffd5b9173ffffffffffffffffffffffffffffffffffffffff604051927fa9059cbb000000000000000000000000000000000000000000000000000000005f521660045260245260205f60448180865af19060015f51148216156117c3575b604052156117815750565b73ffffffffffffffffffffffffffffffffffffffff907f5274afe7000000000000000000000000000000000000000000000000000000005f521660045260245ffd5b9060018115166105a857823b15153d15161690611776565b73ffffffffffffffffffffffffffffffffffffffff5f541633036117fb57565b7f118cdaa7000000000000000000000000000000000000000000000000000000005f523360045260245ffdfea2646970667358221220efc1693c93052be07aa3e3c254427ec164a858a0a5b0b4fb919f72f077f8a8c564736f6c634300081e0033000000000000000000000000a0b86991c6218b36c1d19d4a2e9eb0ce3606eb48000000000000000000000000f3b5b661b92b75c71fa5aba8fd95d7514a9cd6050000000000000000000000006084a02c2ac0127ddf1e617de257c61480a2aee0",
        "nonce": "0x1f9",
        "chainId": "0x1"
      },
      "additionalContracts": [],
      "isFixedGasLimit": false
    },
    {
      "hash": "0xf5f4b57ce5dcfd5657212016b7022df446e6d989fd66cc7e970c95856fec81bc",
      "transactionType": "CALL",
      "contractName": "MigratorV1V2",
      "contractAddress": "0xb50caf00647127f7a4945c4b007c4efa205364de",
      "function": "seedObligations(address[],uint256[],uint256[],uint256[])",
      "arguments": [
        "[0x2593be17Dd1C31B4c124A18BAC3a7aE19567ae37, 0xc25cCd4896917E9e31925755cEd674cBD7214E1A, 0x574287f544699b0985fa15C9E1F33A06c94f9C13, 0x0f92282a77C490034536b066b24312062dc24aa9, 0xC8Fc15bF56259271c24072F5A6b0A6B6dF06D358, 0x2A90205dB305B1E75052834f665871b00aB8CFE2, 0x1e022Fe7EC25D21D2af2aa17f7275Abd6B22a438, 0x25AdA296F30976024d675Cd219f9aAF1F2Ad4eb1, 0x43Bd4241669753C1Ea87A9E7805EB518aB6ac239, 0x9Ebb8b14aCbEDd921df6CC336c568B7dCBEf3182, 0x107030B1E30a4022b5a886ac8b1FDAd18B829788, 0x64d3CbAB6100782a7839fC1af791027a2f1908D2, 0x0f254C40729C93093DC0D290E716B842a9C4484a, 0x025494682Fb33792145F1a459555C7000BaB53C4, 0x186c77B80Bbfd21b01C7D7FA44bA27031322a77F, 0x52Ac3E96bAb54C8872e15A6d2A1B368f2eE4973d, 0x92CEB7bF60718B5AC2582773dFcE3383e1fcC1D0, 0x70Ac9D66b8b29332948C1972786473A1F050e7BD, 0x4B75d1CF8A07280249404Bf10aa1B844f0982aBC]",
        "[138894800000000000000, 398857400000000000000, 400000000000000000000, 510119300000000000000, 168686400000000000000, 31555600000000000000, 2267047000000000000000, 3113079800000000000000, 9994100000000000000, 935485500000000000000, 230269600000000000000, 146415600000000000000, 2800002300000000000000, 106000000000000000000, 100000000000000000000, 600000000000000000000, 10164800000000000000, 97000000000000000000, 1552109800000000000000]",
        "[2441215, 5158024, 18679600, 208128, 6916480, 1464464, 1407836, 3343447, 459219, 11514891, 9058806, 2317759, 2315602, 2349066, 2152100, 12078600, 183942, 977857, 298005]",
        "[448398184147626446, 361961572777763041, 4499771689497567600, 0, 1485974416255658559, 353220394330277681, 0, 0, 110307596992005755, 514659412442900793, 1858958244368278007, 343842662465744454, 0, 472585350076089764, 430726788432255300, 2385456621004494000, 34877099726026220, 0, 0]"
      ],
      "transaction": {
        "from": "0xcad1a7864a108dbff67f4b8af71fab0c7a86d0b6",
        "to": "0xb50caf00647127f7a4945c4b007c4efa205364de",
        "value": "0x0",
        "input": "0xaff62195000000000000000000000000000000000000000000000000000000000000008000000000000000000000000000000000000000000000000000000000000003000000000000000000000000000000000000000000000000000000000000000580000000000000000000000000000000000000000000000000000000000000080000000000000000000000000000000000000000000000000000000000000000130000000000000000000000002593be17dd1c31b4c124a18bac3a7ae19567ae37000000000000000000000000c25ccd4896917e9e31925755ced674cbd7214e1a000000000000000000000000574287f544699b0985fa15c9e1f33a06c94f9c130000000000000000000000000f92282a77c490034536b066b24312062dc24aa9000000000000000000000000c8fc15bf56259271c24072f5a6b0a6b6df06d3580000000000000000000000002a90205db305b1e75052834f665871b00ab8cfe20000000000000000000000001e022fe7ec25d21d2af2aa17f7275abd6b22a43800000000000000000000000025ada296f30976024d675cd219f9aaf1f2ad4eb100000000000000000000000043bd4241669753c1ea87a9e7805eb518ab6ac2390000000000000000000000009ebb8b14acbedd921df6cc336c568b7dcbef3182000000000000000000000000107030b1e30a4022b5a886ac8b1fdad18b82978800000000000000000000000064d3cbab6100782a7839fc1af791027a2f1908d20000000000000000000000000f254c40729c93093dc0d290e716b842a9c4484a000000000000000000000000025494682fb33792145f1a459555c7000bab53c4000000000000000000000000186c77b80bbfd21b01c7d7fa44ba27031322a77f00000000000000000000000052ac3e96bab54c8872e15a6d2a1b368f2ee4973d00000000000000000000000092ceb7bf60718b5ac2582773dfce3383e1fcc1d000000000000000000000000070ac9d66b8b29332948c1972786473a1f050e7bd0000000000000000000000004b75d1cf8a07280249404bf10aa1b844f0982abc0000000000000000000000000000000000000000000000000000000000000013000000000000000000000000000000000000000000000007878d74b42ced00000000000000000000000000000000000000000000000000159f4224101be38000000000000000000000000000000000000000000000000015af1d78b58c40000000000000000000000000000000000000000000000000001ba753d09f42ec400000000000000000000000000000000000000000000000000924fe7b0fa7740000000000000000000000000000000000000000000000000001b5ec0302e251000000000000000000000000000000000000000000000000007ae598e32b92fd80000000000000000000000000000000000000000000000000a8c2a9304bdc1780000000000000000000000000000000000000000000000000008ab22cffbdbb4000000000000000000000000000000000000000000000000032b67821d5dcafc00000000000000000000000000000000000000000000000000c7ba1f52deb4a0000000000000000000000000000000000000000000000000007efecb474f7af0000000000000000000000000000000000000000000000000097c9d678cd50bbc000000000000000000000000000000000000000000000000005bf0ba6634f6800000000000000000000000000000000000000000000000000056bc75e2d6310000000000000000000000000000000000000000000000000002086ac3510526000000000000000000000000000000000000000000000000000008d109fbe9ce4000000000000000000000000000000000000000000000000000542253a126ce4000000000000000000000000000000000000000000000000005423d9b7ab7a96800000000000000000000000000000000000000000000000000000000000000000130000000000000000000000000000000000000000000000000000000000253fff00000000000000000000000000000000000000000000000000000000004eb48800000000000000000000000000000000000000000000000000000000011d07300000000000000000000000000000000000000000000000000000000000032d00000000000000000000000000000000000000000000000000000000000069898000000000000000000000000000000000000000000000000000000000001658900000000000000000000000000000000000000000000000000000000000157b5c000000000000000000000000000000000000000000000000000000000033045700000000000000000000000000000000000000000000000000000000000701d30000000000000000000000000000000000000000000000000000000000afb40b00000000000000000000000000000000000000000000000000000000008a39f60000000000000000000000000000000000000000000000000000000000235dbf0000000000000000000000000000000000000000000000000000000000235552000000000000000000000000000000000000000000000000000000000023d80a000000000000000000000000000000000000000000000000000000000020d6a40000000000000000000000000000000000000000000000000000000000b84e08000000000000000000000000000000000000000000000000000000000002ce8600000000000000000000000000000000000000000000000000000000000eebc10000000000000000000000000000000000000000000000000000000000048c150000000000000000000000000000000000000000000000000000000000000013000000000000000000000000000000000000000000000000063907c5d40ca9ce0000000000000000000000000000000000000000000000000505f221f7c2a0e10000000000000000000000000000000000000000000000003e726682c2dca1700000000000000000000000000000000000000000000000000000000000000000000000000000000000000000000000000000000000000000149f3ddbca3caa3f00000000000000000000000000000000000000000000000004e6e413c37ac731000000000000000000000000000000000000000000000000000000000000000000000000000000000000000000000000000000000000000000000000000000000000000000000000000000000000000000000000000000000187e42ccebc467b0000000000000000000000000000000000000000000000000724700242f8693900000000000000000000000000000000000000000000000019cc58ac8fdae1f700000000000000000000000000000000000000000000000004c593146ae52e460000000000000000000000000000000000000000000000000000000000000000000000000000000000000000000000000000000000000000068ef5df3d56c5a400000000000000000000000000000000000000000000000005fa3fbb63bfd944000000000000000000000000000000000000000000000000211ad8287a1394b0000000000000000000000000000000000000000000000000007be88993f735ec00000000000000000000000000000000000000000000000000000000000000000000000000000000000000000000000000000000000000000000000000000000",
        "nonce": "0x1fa",
        "chainId": "0x1"
      },
      "additionalContracts": [],
      "isFixedGasLimit": false
    },
    {
      "hash": "0x8547e769f2b2f917e3d5df97f293aa14444f96b2d127dcce9beee8eae60ac811",
      "transactionType": "CALL",
      "contractName": null,
      "contractAddress": "0xf3b5b661b92b75c71fa5aba8fd95d7514a9cd605",
      "function": "setMinter(address,bool)",
      "arguments": [
        "0xb50CaF00647127F7A4945C4b007c4EfA205364dE",
        "true"
      ],
      "transaction": {
        "from": "0xcad1a7864a108dbff67f4b8af71fab0c7a86d0b6",
        "to": "0xf3b5b661b92b75c71fa5aba8fd95d7514a9cd605",
        "value": "0x0",
        "input": "0xcf456ae7000000000000000000000000b50caf00647127f7a4945c4b007c4efa205364de0000000000000000000000000000000000000000000000000000000000000001",
        "nonce": "0x1fb",
        "chainId": "0x1"
      },
      "additionalContracts": [],
      "isFixedGasLimit": false
    },
    {
      "hash": "0x2d10c2a8673e2c88d08427d8264f9cfd72e0a3576f456b7d2f7a2dfb52d3888e",
      "transactionType": "CALL",
      "contractName": "PhlimboV2",
      "contractAddress": "0x6084a02c2ac0127ddf1e617de257c61480a2aee0",
      "function": "setMigrator(address)",
      "arguments": [
        "0xb50CaF00647127F7A4945C4b007c4EfA205364dE"
      ],
      "transaction": {
        "from": "0xcad1a7864a108dbff67f4b8af71fab0c7a86d0b6",
        "to": "0x6084a02c2ac0127ddf1e617de257c61480a2aee0",
        "value": "0x0",
        "input": "0x23cf3118000000000000000000000000b50caf00647127f7a4945c4b007c4efa205364de",
        "nonce": "0x1fc",
        "chainId": "0x1"
      },
      "additionalContracts": [],
      "isFixedGasLimit": false
    },
    {
      "hash": "0xb6e5958d6308617c82df24149611e09fcb770a88fe11c80c833f1851ba2d81ed",
      "transactionType": "CALL",
      "contractName": null,
      "contractAddress": "0xa0b86991c6218b36c1d19d4a2e9eb0ce3606eb48",
      "function": "transfer(address,uint256)",
      "arguments": [
        "0xb50CaF00647127F7A4945C4b007c4EfA205364dE",
        "83325041"
      ],
      "transaction": {
        "from": "0xcad1a7864a108dbff67f4b8af71fab0c7a86d0b6",
        "to": "0xa0b86991c6218b36c1d19d4a2e9eb0ce3606eb48",
        "value": "0x0",
        "input": "0xa9059cbb000000000000000000000000b50caf00647127f7a4945c4b007c4efa205364de0000000000000000000000000000000000000000000000000000000004f77071",
        "nonce": "0x1fd",
        "chainId": "0x1"
      },
      "additionalContracts": [],
      "isFixedGasLimit": false
    },
    {
      "hash": "0xbdb20f0f2154f65ff3a122cfde85aea1099dc2abc8a0d8b7c029f1ac8c21f335",
      "transactionType": "CALL",
      "contractName": null,
      "contractAddress": "0xf3b5b661b92b75c71fa5aba8fd95d7514a9cd605",
      "function": "transfer(address,uint256)",
      "arguments": [
        "0xb50CaF00647127F7A4945C4b007c4EfA205364dE",
        "13615682000000000000000"
      ],
      "transaction": {
        "from": "0xcad1a7864a108dbff67f4b8af71fab0c7a86d0b6",
        "to": "0xf3b5b661b92b75c71fa5aba8fd95d7514a9cd605",
        "value": "0x0",
        "input": "0xa9059cbb000000000000000000000000b50caf00647127f7a4945c4b007c4efa205364de0000000000000000000000000000000000000000000002e21b8bb006682d0000",
        "nonce": "0x1fe",
        "chainId": "0x1"
      },
      "additionalContracts": [],
      "isFixedGasLimit": false
    },
    {
      "hash": "0x44fe7bbc83d5effa1d9a87b2a4c3337990728d4b6dc816cd9c7e56b2ab525bbf",
      "transactionType": "CALL",
      "contractName": "MigratorV1V2",
      "contractAddress": "0xb50caf00647127f7a4945c4b007c4efa205364de",
      "function": "settleDebt(uint256)",
      "arguments": [
        "25"
      ],
      "transaction": {
        "from": "0xcad1a7864a108dbff67f4b8af71fab0c7a86d0b6",
        "to": "0xb50caf00647127f7a4945c4b007c4efa205364de",
        "value": "0x0",
        "input": "0x27a0bb330000000000000000000000000000000000000000000000000000000000000019",
        "nonce": "0x1ff",
        "chainId": "0x1"
      },
      "additionalContracts": [],
      "isFixedGasLimit": false
    },
    {
      "hash": "0x60c6f8d3898327dcd302a3a90d8289394c5a00d2b1c39da144edc94cf6154cfe",
      "transactionType": "CALL",
      "contractName": "MigratorV1V2",
      "contractAddress": "0xb50caf00647127f7a4945c4b007c4efa205364de",
      "function": "migrateDeposits(uint256)",
      "arguments": [
        "25"
      ],
      "transaction": {
        "from": "0xcad1a7864a108dbff67f4b8af71fab0c7a86d0b6",
        "to": "0xb50caf00647127f7a4945c4b007c4efa205364de",
        "value": "0x0",
        "input": "0xb668bc940000000000000000000000000000000000000000000000000000000000000019",
        "nonce": "0x200",
        "chainId": "0x1"
      },
      "additionalContracts": [],
      "isFixedGasLimit": false
    },
    {
      "hash": "0x8f2ce9043bb2e6ecc9ad0b0844b4a947517adcfd9261e8cfed1edf8b83308f8f",
      "transactionType": "CALL",
      "contractName": "MigratorV1V2",
      "contractAddress": "0xb50caf00647127f7a4945c4b007c4efa205364de",
      "function": "withdrawAll()",
      "arguments": [],
      "transaction": {
        "from": "0xcad1a7864a108dbff67f4b8af71fab0c7a86d0b6",
        "to": "0xb50caf00647127f7a4945c4b007c4efa205364de",
        "value": "0x0",
        "input": "0x853828b6",
        "nonce": "0x201",
        "chainId": "0x1"
      },
      "additionalContracts": [],
      "isFixedGasLimit": false
    },
    {
      "hash": "0xda750899b0e02e66e691526aa87dff717792afbd72d58646e7aaeb3f231b0267",
      "transactionType": "CALL",
      "contractName": null,
      "contractAddress": "0xa0b86991c6218b36c1d19d4a2e9eb0ce3606eb48",
      "function": "approve(address,uint256)",
      "arguments": [
        "0x6084a02C2Ac0127ddF1e617De257c61480A2AeE0",
        "23013951"
      ],
      "transaction": {
        "from": "0xcad1a7864a108dbff67f4b8af71fab0c7a86d0b6",
        "to": "0xa0b86991c6218b36c1d19d4a2e9eb0ce3606eb48",
        "value": "0x0",
        "input": "0x095ea7b30000000000000000000000006084a02c2ac0127ddf1e617de257c61480a2aee000000000000000000000000000000000000000000000000000000000015f2a3f",
        "nonce": "0x202",
        "chainId": "0x1"
      },
      "additionalContracts": [],
      "isFixedGasLimit": false
    },
    {
      "hash": "0x453ff3151bd9d93ec3a4cfd5ff2ac78feb3376485143239e5e2a05567b6524f5",
      "transactionType": "CALL",
      "contractName": "PhlimboV2",
      "contractAddress": "0x6084a02c2ac0127ddf1e617de257c61480a2aee0",
      "function": "collectReward(uint256)",
      "arguments": [
        "23013951"
      ],
      "transaction": {
        "from": "0xcad1a7864a108dbff67f4b8af71fab0c7a86d0b6",
        "to": "0x6084a02c2ac0127ddf1e617de257c61480a2aee0",
        "value": "0x0",
        "input": "0xbd3507da00000000000000000000000000000000000000000000000000000000015f2a3f",
        "nonce": "0x203",
        "chainId": "0x1"
      },
      "additionalContracts": [],
      "isFixedGasLimit": false
    },
    {
      "hash": "0xb34cddf863ab702fa1626078b2a98df9065b76bbd7e07020c8ddb0e99a029441",
      "transactionType": "CALL",
      "contractName": null,
      "contractAddress": "0xf3b5b661b92b75c71fa5aba8fd95d7514a9cd605",
      "function": "setMinter(address,bool)",
      "arguments": [
        "0xb50CaF00647127F7A4945C4b007c4EfA205364dE",
        "false"
      ],
      "transaction": {
        "from": "0xcad1a7864a108dbff67f4b8af71fab0c7a86d0b6",
        "to": "0xf3b5b661b92b75c71fa5aba8fd95d7514a9cd605",
        "value": "0x0",
        "input": "0xcf456ae7000000000000000000000000b50caf00647127f7a4945c4b007c4efa205364de0000000000000000000000000000000000000000000000000000000000000000",
        "nonce": "0x204",
        "chainId": "0x1"
      },
      "additionalContracts": [],
      "isFixedGasLimit": false
    },
    {
      "hash": "0x328c364dfc5eab919e1a992666863b7e526246d2951afa66e80af4e460b7cedb",
      "transactionType": "CALL",
      "contractName": "PhlimboV2",
      "contractAddress": "0x6084a02c2ac0127ddf1e617de257c61480a2aee0",
      "function": "setPauser(address)",
      "arguments": [
        "0x7c5A8EeF1d836450C019FB036453ac6eC97885a3"
      ],
      "transaction": {
        "from": "0xcad1a7864a108dbff67f4b8af71fab0c7a86d0b6",
        "to": "0x6084a02c2ac0127ddf1e617de257c61480a2aee0",
        "value": "0x0",
        "input": "0x2d88af4a0000000000000000000000007c5a8eef1d836450c019fb036453ac6ec97885a3",
        "nonce": "0x205",
        "chainId": "0x1"
      },
      "additionalContracts": [],
      "isFixedGasLimit": false
    }
  ],
  "receipts": [
    {
      "status": "0x1",
      "cumulativeGasUsed": "0x1eb7fc4",
      "logs": [
        {
          "address": "0xf3b5b661b92b75c71fa5aba8fd95d7514a9cd605",
          "topics": [
            "0xddf252ad1be2c89b69c2b068fc378daa952ba7f163c4a11628f55a4df523b3ef",
            "0x0000000000000000000000003984ebc84d45a889ddac595d13dc0ac2e54819f4",
            "0x000000000000000000000000cad1a7864a108dbff67f4b8af71fab0c7a86d0b6"
          ],
          "data": "0x0000000000000000000000000000000000000000000002e21b8bb006682d0000",
          "blockHash": "0xa0c223d65d60f1b658a3a4999c090b1400ed88e84c6613c737133ca3790b1a88",
          "blockNumber": "0x17fba60",
          "blockTimestamp": "0x6a0fc83b",
          "transactionHash": "0x75af3194fea3d23c834098943efcbe7c363f2a402df7bdeafb2ec4cdbd6230ac",
          "transactionIndex": "0x122",
          "logIndex": "0x320",
          "removed": false
        },
        {
          "address": "0xa0b86991c6218b36c1d19d4a2e9eb0ce3606eb48",
          "topics": [
            "0xddf252ad1be2c89b69c2b068fc378daa952ba7f163c4a11628f55a4df523b3ef",
            "0x0000000000000000000000003984ebc84d45a889ddac595d13dc0ac2e54819f4",
            "0x000000000000000000000000cad1a7864a108dbff67f4b8af71fab0c7a86d0b6"
          ],
          "data": "0x0000000000000000000000000000000000000000000000000000000006569ab0",
          "blockHash": "0xa0c223d65d60f1b658a3a4999c090b1400ed88e84c6613c737133ca3790b1a88",
          "blockNumber": "0x17fba60",
          "blockTimestamp": "0x6a0fc83b",
          "transactionHash": "0x75af3194fea3d23c834098943efcbe7c363f2a402df7bdeafb2ec4cdbd6230ac",
          "transactionIndex": "0x122",
          "logIndex": "0x321",
          "removed": false
        },
        {
          "address": "0x3984ebc84d45a889ddac595d13dc0ac2e54819f4",
          "topics": [
            "0x62e78cea01bee320cd4e420270b5ea74000d11b0c9f74754ebdbfc544b05a258"
          ],
          "data": "0x000000000000000000000000cad1a7864a108dbff67f4b8af71fab0c7a86d0b6",
          "blockHash": "0xa0c223d65d60f1b658a3a4999c090b1400ed88e84c6613c737133ca3790b1a88",
          "blockNumber": "0x17fba60",
          "blockTimestamp": "0x6a0fc83b",
          "transactionHash": "0x75af3194fea3d23c834098943efcbe7c363f2a402df7bdeafb2ec4cdbd6230ac",
          "transactionIndex": "0x122",
          "logIndex": "0x322",
          "removed": false
        }
      ],
      "logsBloom": "0x00000000000000000020000008000000000000000000000000000000000000000000000000000000020000400000000000000000000000000000000000000000000000000000000008000008000000000000000000000400000000000000000008000000000000000000000000000000000000010000000000000010100000000000000000000000000008000000000000000000010000000000000000000000000000000000200000000000000000000000000000000000000400004080000000000002000000000000000000000000000000000000100000000000000000000000000010000000000000000000000000000000000000000000000000000000",
      "type": "0x2",
      "transactionHash": "0x75af3194fea3d23c834098943efcbe7c363f2a402df7bdeafb2ec4cdbd6230ac",
      "transactionIndex": "0x122",
      "blockHash": "0xa0c223d65d60f1b658a3a4999c090b1400ed88e84c6613c737133ca3790b1a88",
      "blockNumber": "0x17fba60",
      "gasUsed": "0x1196a",
      "effectiveGasPrice": "0x673dd17",
      "from": "0xcad1a7864a108dbff67f4b8af71fab0c7a86d0b6",
      "to": "0x3984ebc84d45a889ddac595d13dc0ac2e54819f4",
      "contractAddress": null
    },
    {
      "status": "0x1",
      "cumulativeGasUsed": "0xd5b156",
      "logs": [
        {
          "address": "0x6084a02c2ac0127ddf1e617de257c61480a2aee0",
          "topics": [
            "0x8be0079c531659141344cd1fd0a4f28419497f9722a3daafe3b4186f6b6457e0",
            "0x0000000000000000000000000000000000000000000000000000000000000000",
            "0x000000000000000000000000cad1a7864a108dbff67f4b8af71fab0c7a86d0b6"
          ],
          "data": "0x",
          "blockHash": "0xed178087465fdeeaceb1deb4ec5f960d28bfbff8940b89ef40695337ad1595aa",
          "blockNumber": "0x17fba61",
          "blockTimestamp": "0x6a0fc847",
          "transactionHash": "0x4479cd2265d88fc9f6600f59151eaef9c536bc9a480d3ff4d5b9616eb74c9c8f",
          "transactionIndex": "0x62",
          "logIndex": "0x161",
          "removed": false
        }
      ],
      "logsBloom": "0x00000000000000000020000000000000000000000000000000800000000000000000000000000000000000400000000000000000000000000000000000000000000000000000000000000000000000000001000000000000000000000000000000040000020000000000000000000800000000000000000000000000000000460000000000000000000000000000000000000000000000000000000000000000000000000000000000000000000000000000000000000000000000000000000000000000000000000000000000000000000000000000100000000000000020000000000000000000000000000000000000000000000000000000000000000000",
      "type": "0x2",
      "transactionHash": "0x4479cd2265d88fc9f6600f59151eaef9c536bc9a480d3ff4d5b9616eb74c9c8f",
      "transactionIndex": "0x62",
      "blockHash": "0xed178087465fdeeaceb1deb4ec5f960d28bfbff8940b89ef40695337ad1595aa",
      "blockNumber": "0x17fba61",
      "gasUsed": "0x1f9e6d",
      "effectiveGasPrice": "0x6a5e92a",
      "from": "0xcad1a7864a108dbff67f4b8af71fab0c7a86d0b6",
      "to": null,
      "contractAddress": "0x6084a02c2ac0127ddf1e617de257c61480a2aee0"
    },
    {
      "status": "0x1",
      "cumulativeGasUsed": "0x1920bb4",
      "logs": [
        {
          "address": "0xb50caf00647127f7a4945c4b007c4efa205364de",
          "topics": [
            "0x8be0079c531659141344cd1fd0a4f28419497f9722a3daafe3b4186f6b6457e0",
            "0x0000000000000000000000000000000000000000000000000000000000000000",
            "0x000000000000000000000000cad1a7864a108dbff67f4b8af71fab0c7a86d0b6"
          ],
          "data": "0x",
          "blockHash": "0x0a92e74857d633b28e73c6aa32f08b2639eca8e76da93224d0f3b6fc5d007974",
          "blockNumber": "0x17fba62",
          "blockTimestamp": "0x6a0fc853",
          "transactionHash": "0x1c4ed660dbd39a3801c226d4ce9df1a3175d7ae4119917c1338918d56cf29eea",
          "transactionIndex": "0x8e",
          "logIndex": "0x3ac",
          "removed": false
        }
      ],
      "logsBloom": "0x00000000000000000020000000000000000000000000000000800000000000000000000000000000000000400000000000000000000000000000000000000000000000000000000000040000000004000001000000000000000000000000000000000000020000000000000000000800000000000000000000000000000000400000000000000000000000000000000000000000000000000000000000000000000000000000000000000000000000000000000000000000000000000000000000000000000000000000000000000000000000000000180000000000000020000000000000000000000000000000000000000000000000000000000000000000",
      "type": "0x2",
      "transactionHash": "0x1c4ed660dbd39a3801c226d4ce9df1a3175d7ae4119917c1338918d56cf29eea",
      "transactionIndex": "0x8e",
      "blockHash": "0x0a92e74857d633b28e73c6aa32f08b2639eca8e76da93224d0f3b6fc5d007974",
      "blockNumber": "0x17fba62",
      "gasUsed": "0x160650",
      "effectiveGasPrice": "0x64e79f0",
      "from": "0xcad1a7864a108dbff67f4b8af71fab0c7a86d0b6",
      "to": null,
      "contractAddress": "0xb50caf00647127f7a4945c4b007c4efa205364de"
    },
    {
      "status": "0x1",
      "cumulativeGasUsed": "0xbe4a4d",
      "logs": [
        {
          "address": "0xb50caf00647127f7a4945c4b007c4efa205364de",
          "topics": [
            "0xe035d6ea43f6dbfe78c29cb35c46d37ba9c6676eac93cee0a46f72ad50f66214"
          ],
          "data": "0x00000000000000000000000000000000000000000000000000000000000000130000000000000000000000000000000000000000000000000000000004f770710000000000000000000000000000000000000000000002e21b8bb006682d0000000000000000000000000000000000000000000000000000b895b896d7f98704",
          "blockHash": "0x117660c222a459f952f975cb6b0bdef522a43fa2ff5f532bd86e0a9ffb736a73",
          "blockNumber": "0x17fba64",
          "blockTimestamp": "0x6a0fc86b",
          "transactionHash": "0xf5f4b57ce5dcfd5657212016b7022df446e6d989fd66cc7e970c95856fec81bc",
          "transactionIndex": "0x3c",
          "logIndex": "0x13e",
          "removed": false
        }
      ],
      "logsBloom": "0x00000000000000000000000000000000000000000000000000000000000000000000000000000000000000000000000000000000000000000000000000000000000000000000000000040000000004000000000000000000000000000000000000000000000000000000000000000000000000000000000000000000000000000000000000000000000000000000000000000000000000000000000000000000000000000000000000000000000000000000000000000000000000000000000000002000088000000000000000000000000000000000080000000000000000000000000000000000000000000000000000000000000000000000000000000000",
      "type": "0x2",
      "transactionHash": "0xf5f4b57ce5dcfd5657212016b7022df446e6d989fd66cc7e970c95856fec81bc",
      "transactionIndex": "0x3c",
      "blockHash": "0x117660c222a459f952f975cb6b0bdef522a43fa2ff5f532bd86e0a9ffb736a73",
      "blockNumber": "0x17fba64",
      "gasUsed": "0x1c057c",
      "effectiveGasPrice": "0x5dc0155",
      "from": "0xcad1a7864a108dbff67f4b8af71fab0c7a86d0b6",
      "to": "0xb50caf00647127f7a4945c4b007c4efa205364de",
      "contractAddress": null
    },
    {
      "status": "0x1",
      "cumulativeGasUsed": "0x2cae293",
      "logs": [
        {
          "address": "0xf3b5b661b92b75c71fa5aba8fd95d7514a9cd605",
          "topics": [
            "0x34e56df787a7a59706503a81c304ed0ef46ddd2dfcdf1c8c8d1db684f3639fdd",
            "0x000000000000000000000000b50caf00647127f7a4945c4b007c4efa205364de"
          ],
          "data": "0x00000000000000000000000000000000000000000000000000000000000000010000000000000000000000000000000000000000000000000000000000000000",
          "blockHash": "0x580dee57e27b15f471a5ecac329867747fdc298de4e6b81527bdec96d037199c",
          "blockNumber": "0x17fba67",
          "blockTimestamp": "0x6a0fc88f",
          "transactionHash": "0x8547e769f2b2f917e3d5df97f293aa14444f96b2d127dcce9beee8eae60ac811",
          "transactionIndex": "0xda",
          "logIndex": "0x5a5",
          "removed": false
        }
      ],
      "logsBloom": "0x00000000000000000000000008000000000000000000000000000000000000000000000000000000000000000000000000000000000000000000000000000000000000004000000400000000000000000000000000000000000000000000000008000000000000000004000000000000000000000000000004000000100000000000000000000000000000000000000000000000000000000000000000000000000000000000000000000000000000000000000000000000000000000000000000800000000000000000000000000000000000000000000000000000000000000000000000000000000000000000000000000000000000000000400000000000",
      "type": "0x2",
      "transactionHash": "0x8547e769f2b2f917e3d5df97f293aa14444f96b2d127dcce9beee8eae60ac811",
      "transactionIndex": "0xda",
      "blockHash": "0x580dee57e27b15f471a5ecac329867747fdc298de4e6b81527bdec96d037199c",
      "blockNumber": "0x17fba67",
      "gasUsed": "0xd3f2",
      "effectiveGasPrice": "0x56633d0",
      "from": "0xcad1a7864a108dbff67f4b8af71fab0c7a86d0b6",
      "to": "0xf3b5b661b92b75c71fa5aba8fd95d7514a9cd605",
      "contractAddress": null
    },
    {
      "status": "0x1",
      "cumulativeGasUsed": "0x16fb8a4",
      "logs": [
        {
          "address": "0x6084a02c2ac0127ddf1e617de257c61480a2aee0",
          "topics": [
            "0x9d0761a1fa4d686cd87f8dbf8ca52f90cf19c3c4dc36e66ebbf08fc5ba203f2c",
            "0x0000000000000000000000000000000000000000000000000000000000000000",
            "0x000000000000000000000000b50caf00647127f7a4945c4b007c4efa205364de"
          ],
          "data": "0x",
          "blockHash": "0x735f08265fd49f61fbe6c1eff5791e7fc9458059130d1558d2793a738ac5b71d",
          "blockNumber": "0x17fba68",
          "blockTimestamp": "0x6a0fc89b",
          "transactionHash": "0x2d10c2a8673e2c88d08427d8264f9cfd72e0a3576f456b7d2f7a2dfb52d3888e",
          "transactionIndex": "0x152",
          "logIndex": "0x21c",
          "removed": false
        }
      ],
      "logsBloom": "0x00000000000000000000000000000000000000400000000000000000000000000000000000000000000000000000000000000000000000000000000000000000000000004000000400008000000000000000000000000000000000000000000000040000020000000004000000000800000000000000000000000000000000060000000000000000000000000000000000000000000000000000000000010000000000000000000000000000000000000000000000000000000000000000000000000000000000000000000000000000000000000000000000000000000020000000000000000000000000000000000000000000000000000000000000000000",
      "type": "0x2",
      "transactionHash": "0x2d10c2a8673e2c88d08427d8264f9cfd72e0a3576f456b7d2f7a2dfb52d3888e",
      "transactionIndex": "0x152",
      "blockHash": "0x735f08265fd49f61fbe6c1eff5791e7fc9458059130d1558d2793a738ac5b71d",
      "blockNumber": "0x17fba68",
      "gasUsed": "0xb9ea",
      "effectiveGasPrice": "0x5e0fbcd",
      "from": "0xcad1a7864a108dbff67f4b8af71fab0c7a86d0b6",
      "to": "0x6084a02c2ac0127ddf1e617de257c61480a2aee0",
      "contractAddress": null
    },
    {
      "status": "0x1",
      "cumulativeGasUsed": "0x1388719",
      "logs": [
        {
          "address": "0xa0b86991c6218b36c1d19d4a2e9eb0ce3606eb48",
          "topics": [
            "0xddf252ad1be2c89b69c2b068fc378daa952ba7f163c4a11628f55a4df523b3ef",
            "0x000000000000000000000000cad1a7864a108dbff67f4b8af71fab0c7a86d0b6",
            "0x000000000000000000000000b50caf00647127f7a4945c4b007c4efa205364de"
          ],
          "data": "0x0000000000000000000000000000000000000000000000000000000004f77071",
          "blockHash": "0xc6440145560aa777d75a05492411a272e99a4fbfe298da3e0d0cf176b925c309",
          "blockNumber": "0x17fba69",
          "blockTimestamp": "0x6a0fc8a7",
          "transactionHash": "0xb6e5958d6308617c82df24149611e09fcb770a88fe11c80c833f1851ba2d81ed",
          "transactionIndex": "0x61",
          "logIndex": "0x2e7",
          "removed": false
        }
      ],
      "logsBloom": "0x00000000000000000020000000000000000000000000000000000000000000000000000000000000000000400000000000000000000000000000000000000000000000004000000408000008000000000000000000000000000000000000000000000000000000000004000000000000000000000000000000000010000000000000000000000000000000000000000000000000010000000000000000000000000000000000200000000000000000000000000000000000000000000000000000000002000000000000000000000000000000000000100000000000000000000000000000000000000000000000000000000000000000000000000000000000",
      "type": "0x2",
      "transactionHash": "0xb6e5958d6308617c82df24149611e09fcb770a88fe11c80c833f1851ba2d81ed",
      "transactionIndex": "0x61",
      "blockHash": "0xc6440145560aa777d75a05492411a272e99a4fbfe298da3e0d0cf176b925c309",
      "blockNumber": "0x17fba69",
      "gasUsed": "0xf31c",
      "effectiveGasPrice": "0x5d3ea3b",
      "from": "0xcad1a7864a108dbff67f4b8af71fab0c7a86d0b6",
      "to": "0xa0b86991c6218b36c1d19d4a2e9eb0ce3606eb48",
      "contractAddress": null
    },
    {
      "status": "0x1",
      "cumulativeGasUsed": "0x70d5b8",
      "logs": [
        {
          "address": "0xf3b5b661b92b75c71fa5aba8fd95d7514a9cd605",
          "topics": [
            "0xddf252ad1be2c89b69c2b068fc378daa952ba7f163c4a11628f55a4df523b3ef",
            "0x000000000000000000000000cad1a7864a108dbff67f4b8af71fab0c7a86d0b6",
            "0x000000000000000000000000b50caf00647127f7a4945c4b007c4efa205364de"
          ],
          "data": "0x0000000000000000000000000000000000000000000002e21b8bb006682d0000",
          "blockHash": "0x03a24367ba2accf6d06aa79d95d94b579991e8a992fe0a16418759648484d215",
          "blockNumber": "0x17fba6a",
          "blockTimestamp": "0x6a0fc8b3",
          "transactionHash": "0xbdb20f0f2154f65ff3a122cfde85aea1099dc2abc8a0d8b7c029f1ac8c21f335",
          "transactionIndex": "0x62",
          "logIndex": "0xc3",
          "removed": false
        }
      ],
      "logsBloom": "0x00000000000000000020000008000000000000000000000000000000000000000000000000000000000000400000000000000000000000000000000000000000000000004000000400000008000000000000000000000000000000000000000008000000000000000004000000000000000000000000000000000010100000000000000000000000000000000000000000000000000000000000000000000000000000000000000000000000000000000000000000000000000000000000000000000002000000000000000000000000000000000000100000000000000000000000000000000000000000000000000000000000000000000000000000000000",
      "type": "0x2",
      "transactionHash": "0xbdb20f0f2154f65ff3a122cfde85aea1099dc2abc8a0d8b7c029f1ac8c21f335",
      "transactionIndex": "0x62",
      "blockHash": "0x03a24367ba2accf6d06aa79d95d94b579991e8a992fe0a16418759648484d215",
      "blockNumber": "0x17fba6a",
      "gasUsed": "0xd270",
      "effectiveGasPrice": "0x5c27c03",
      "from": "0xcad1a7864a108dbff67f4b8af71fab0c7a86d0b6",
      "to": "0xf3b5b661b92b75c71fa5aba8fd95d7514a9cd605",
      "contractAddress": null
    },
    {
      "status": "0x1",
      "cumulativeGasUsed": "0x16e7cdc",
      "logs": [
        {
          "address": "0xa0b86991c6218b36c1d19d4a2e9eb0ce3606eb48",
          "topics": [
            "0xddf252ad1be2c89b69c2b068fc378daa952ba7f163c4a11628f55a4df523b3ef",
            "0x000000000000000000000000b50caf00647127f7a4945c4b007c4efa205364de",
            "0x0000000000000000000000002593be17dd1c31b4c124a18bac3a7ae19567ae37"
          ],
          "data": "0x0000000000000000000000000000000000000000000000000000000000253fff",
          "blockHash": "0xc8295411e1b0ee5c5cb762e8110c1cea49fc2afe6a58dfa18db572d6fa953093",
          "blockNumber": "0x17fba6b",
          "blockTimestamp": "0x6a0fc8bf",
          "transactionHash": "0x44fe7bbc83d5effa1d9a87b2a4c3337990728d4b6dc816cd9c7e56b2ab525bbf",
          "transactionIndex": "0xe8",
          "logIndex": "0x202",
          "removed": false
        },
        {
          "address": "0xf3b5b661b92b75c71fa5aba8fd95d7514a9cd605",
          "topics": [
            "0xddf252ad1be2c89b69c2b068fc378daa952ba7f163c4a11628f55a4df523b3ef",
            "0x0000000000000000000000000000000000000000000000000000000000000000",
            "0x0000000000000000000000002593be17dd1c31b4c124a18bac3a7ae19567ae37"
          ],
          "data": "0x000000000000000000000000000000000000000000000000063907c5d40ca9ce",
          "blockHash": "0xc8295411e1b0ee5c5cb762e8110c1cea49fc2afe6a58dfa18db572d6fa953093",
          "blockNumber": "0x17fba6b",
          "blockTimestamp": "0x6a0fc8bf",
          "transactionHash": "0x44fe7bbc83d5effa1d9a87b2a4c3337990728d4b6dc816cd9c7e56b2ab525bbf",
          "transactionIndex": "0xe8",
          "logIndex": "0x203",
          "removed": false
        },
        {
          "address": "0xa0b86991c6218b36c1d19d4a2e9eb0ce3606eb48",
          "topics": [
            "0xddf252ad1be2c89b69c2b068fc378daa952ba7f163c4a11628f55a4df523b3ef",
            "0x000000000000000000000000b50caf00647127f7a4945c4b007c4efa205364de",
            "0x000000000000000000000000c25ccd4896917e9e31925755ced674cbd7214e1a"
          ],
          "data": "0x00000000000000000000000000000000000000000000000000000000004eb488",
          "blockHash": "0xc8295411e1b0ee5c5cb762e8110c1cea49fc2afe6a58dfa18db572d6fa953093",
          "blockNumber": "0x17fba6b",
          "blockTimestamp": "0x6a0fc8bf",
          "transactionHash": "0x44fe7bbc83d5effa1d9a87b2a4c3337990728d4b6dc816cd9c7e56b2ab525bbf",
          "transactionIndex": "0xe8",
          "logIndex": "0x204",
          "removed": false
        },
        {
          "address": "0xf3b5b661b92b75c71fa5aba8fd95d7514a9cd605",
          "topics": [
            "0xddf252ad1be2c89b69c2b068fc378daa952ba7f163c4a11628f55a4df523b3ef",
            "0x0000000000000000000000000000000000000000000000000000000000000000",
            "0x000000000000000000000000c25ccd4896917e9e31925755ced674cbd7214e1a"
          ],
          "data": "0x0000000000000000000000000000000000000000000000000505f221f7c2a0e1",
          "blockHash": "0xc8295411e1b0ee5c5cb762e8110c1cea49fc2afe6a58dfa18db572d6fa953093",
          "blockNumber": "0x17fba6b",
          "blockTimestamp": "0x6a0fc8bf",
          "transactionHash": "0x44fe7bbc83d5effa1d9a87b2a4c3337990728d4b6dc816cd9c7e56b2ab525bbf",
          "transactionIndex": "0xe8",
          "logIndex": "0x205",
          "removed": false
        },
        {
          "address": "0xa0b86991c6218b36c1d19d4a2e9eb0ce3606eb48",
          "topics": [
            "0xddf252ad1be2c89b69c2b068fc378daa952ba7f163c4a11628f55a4df523b3ef",
            "0x000000000000000000000000b50caf00647127f7a4945c4b007c4efa205364de",
            "0x000000000000000000000000574287f544699b0985fa15c9e1f33a06c94f9c13"
          ],
          "data": "0x00000000000000000000000000000000000000000000000000000000011d0730",
          "blockHash": "0xc8295411e1b0ee5c5cb762e8110c1cea49fc2afe6a58dfa18db572d6fa953093",
          "blockNumber": "0x17fba6b",
          "blockTimestamp": "0x6a0fc8bf",
          "transactionHash": "0x44fe7bbc83d5effa1d9a87b2a4c3337990728d4b6dc816cd9c7e56b2ab525bbf",
          "transactionIndex": "0xe8",
          "logIndex": "0x206",
          "removed": false
        },
        {
          "address": "0xf3b5b661b92b75c71fa5aba8fd95d7514a9cd605",
          "topics": [
            "0xddf252ad1be2c89b69c2b068fc378daa952ba7f163c4a11628f55a4df523b3ef",
            "0x0000000000000000000000000000000000000000000000000000000000000000",
            "0x000000000000000000000000574287f544699b0985fa15c9e1f33a06c94f9c13"
          ],
          "data": "0x0000000000000000000000000000000000000000000000003e726682c2dca170",
          "blockHash": "0xc8295411e1b0ee5c5cb762e8110c1cea49fc2afe6a58dfa18db572d6fa953093",
          "blockNumber": "0x17fba6b",
          "blockTimestamp": "0x6a0fc8bf",
          "transactionHash": "0x44fe7bbc83d5effa1d9a87b2a4c3337990728d4b6dc816cd9c7e56b2ab525bbf",
          "transactionIndex": "0xe8",
          "logIndex": "0x207",
          "removed": false
        },
        {
          "address": "0xa0b86991c6218b36c1d19d4a2e9eb0ce3606eb48",
          "topics": [
            "0xddf252ad1be2c89b69c2b068fc378daa952ba7f163c4a11628f55a4df523b3ef",
            "0x000000000000000000000000b50caf00647127f7a4945c4b007c4efa205364de",
            "0x0000000000000000000000000f92282a77c490034536b066b24312062dc24aa9"
          ],
          "data": "0x0000000000000000000000000000000000000000000000000000000000032d00",
          "blockHash": "0xc8295411e1b0ee5c5cb762e8110c1cea49fc2afe6a58dfa18db572d6fa953093",
          "blockNumber": "0x17fba6b",
          "blockTimestamp": "0x6a0fc8bf",
          "transactionHash": "0x44fe7bbc83d5effa1d9a87b2a4c3337990728d4b6dc816cd9c7e56b2ab525bbf",
          "transactionIndex": "0xe8",
          "logIndex": "0x208",
          "removed": false
        },
        {
          "address": "0xa0b86991c6218b36c1d19d4a2e9eb0ce3606eb48",
          "topics": [
            "0xddf252ad1be2c89b69c2b068fc378daa952ba7f163c4a11628f55a4df523b3ef",
            "0x000000000000000000000000b50caf00647127f7a4945c4b007c4efa205364de",
            "0x000000000000000000000000c8fc15bf56259271c24072f5a6b0a6b6df06d358"
          ],
          "data": "0x0000000000000000000000000000000000000000000000000000000000698980",
          "blockHash": "0xc8295411e1b0ee5c5cb762e8110c1cea49fc2afe6a58dfa18db572d6fa953093",
          "blockNumber": "0x17fba6b",
          "blockTimestamp": "0x6a0fc8bf",
          "transactionHash": "0x44fe7bbc83d5effa1d9a87b2a4c3337990728d4b6dc816cd9c7e56b2ab525bbf",
          "transactionIndex": "0xe8",
          "logIndex": "0x209",
          "removed": false
        },
        {
          "address": "0xf3b5b661b92b75c71fa5aba8fd95d7514a9cd605",
          "topics": [
            "0xddf252ad1be2c89b69c2b068fc378daa952ba7f163c4a11628f55a4df523b3ef",
            "0x0000000000000000000000000000000000000000000000000000000000000000",
            "0x000000000000000000000000c8fc15bf56259271c24072f5a6b0a6b6df06d358"
          ],
          "data": "0x000000000000000000000000000000000000000000000000149f3ddbca3caa3f",
          "blockHash": "0xc8295411e1b0ee5c5cb762e8110c1cea49fc2afe6a58dfa18db572d6fa953093",
          "blockNumber": "0x17fba6b",
          "blockTimestamp": "0x6a0fc8bf",
          "transactionHash": "0x44fe7bbc83d5effa1d9a87b2a4c3337990728d4b6dc816cd9c7e56b2ab525bbf",
          "transactionIndex": "0xe8",
          "logIndex": "0x20a",
          "removed": false
        },
        {
          "address": "0xa0b86991c6218b36c1d19d4a2e9eb0ce3606eb48",
          "topics": [
            "0xddf252ad1be2c89b69c2b068fc378daa952ba7f163c4a11628f55a4df523b3ef",
            "0x000000000000000000000000b50caf00647127f7a4945c4b007c4efa205364de",
            "0x0000000000000000000000002a90205db305b1e75052834f665871b00ab8cfe2"
          ],
          "data": "0x0000000000000000000000000000000000000000000000000000000000165890",
          "blockHash": "0xc8295411e1b0ee5c5cb762e8110c1cea49fc2afe6a58dfa18db572d6fa953093",
          "blockNumber": "0x17fba6b",
          "blockTimestamp": "0x6a0fc8bf",
          "transactionHash": "0x44fe7bbc83d5effa1d9a87b2a4c3337990728d4b6dc816cd9c7e56b2ab525bbf",
          "transactionIndex": "0xe8",
          "logIndex": "0x20b",
          "removed": false
        },
        {
          "address": "0xf3b5b661b92b75c71fa5aba8fd95d7514a9cd605",
          "topics": [
            "0xddf252ad1be2c89b69c2b068fc378daa952ba7f163c4a11628f55a4df523b3ef",
            "0x0000000000000000000000000000000000000000000000000000000000000000",
            "0x0000000000000000000000002a90205db305b1e75052834f665871b00ab8cfe2"
          ],
          "data": "0x00000000000000000000000000000000000000000000000004e6e413c37ac731",
          "blockHash": "0xc8295411e1b0ee5c5cb762e8110c1cea49fc2afe6a58dfa18db572d6fa953093",
          "blockNumber": "0x17fba6b",
          "blockTimestamp": "0x6a0fc8bf",
          "transactionHash": "0x44fe7bbc83d5effa1d9a87b2a4c3337990728d4b6dc816cd9c7e56b2ab525bbf",
          "transactionIndex": "0xe8",
          "logIndex": "0x20c",
          "removed": false
        },
        {
          "address": "0xa0b86991c6218b36c1d19d4a2e9eb0ce3606eb48",
          "topics": [
            "0xddf252ad1be2c89b69c2b068fc378daa952ba7f163c4a11628f55a4df523b3ef",
            "0x000000000000000000000000b50caf00647127f7a4945c4b007c4efa205364de",
            "0x0000000000000000000000001e022fe7ec25d21d2af2aa17f7275abd6b22a438"
          ],
          "data": "0x0000000000000000000000000000000000000000000000000000000000157b5c",
          "blockHash": "0xc8295411e1b0ee5c5cb762e8110c1cea49fc2afe6a58dfa18db572d6fa953093",
          "blockNumber": "0x17fba6b",
          "blockTimestamp": "0x6a0fc8bf",
          "transactionHash": "0x44fe7bbc83d5effa1d9a87b2a4c3337990728d4b6dc816cd9c7e56b2ab525bbf",
          "transactionIndex": "0xe8",
          "logIndex": "0x20d",
          "removed": false
        },
        {
          "address": "0xa0b86991c6218b36c1d19d4a2e9eb0ce3606eb48",
          "topics": [
            "0xddf252ad1be2c89b69c2b068fc378daa952ba7f163c4a11628f55a4df523b3ef",
            "0x000000000000000000000000b50caf00647127f7a4945c4b007c4efa205364de",
            "0x00000000000000000000000025ada296f30976024d675cd219f9aaf1f2ad4eb1"
          ],
          "data": "0x0000000000000000000000000000000000000000000000000000000000330457",
          "blockHash": "0xc8295411e1b0ee5c5cb762e8110c1cea49fc2afe6a58dfa18db572d6fa953093",
          "blockNumber": "0x17fba6b",
          "blockTimestamp": "0x6a0fc8bf",
          "transactionHash": "0x44fe7bbc83d5effa1d9a87b2a4c3337990728d4b6dc816cd9c7e56b2ab525bbf",
          "transactionIndex": "0xe8",
          "logIndex": "0x20e",
          "removed": false
        },
        {
          "address": "0xa0b86991c6218b36c1d19d4a2e9eb0ce3606eb48",
          "topics": [
            "0xddf252ad1be2c89b69c2b068fc378daa952ba7f163c4a11628f55a4df523b3ef",
            "0x000000000000000000000000b50caf00647127f7a4945c4b007c4efa205364de",
            "0x00000000000000000000000043bd4241669753c1ea87a9e7805eb518ab6ac239"
          ],
          "data": "0x00000000000000000000000000000000000000000000000000000000000701d3",
          "blockHash": "0xc8295411e1b0ee5c5cb762e8110c1cea49fc2afe6a58dfa18db572d6fa953093",
          "blockNumber": "0x17fba6b",
          "blockTimestamp": "0x6a0fc8bf",
          "transactionHash": "0x44fe7bbc83d5effa1d9a87b2a4c3337990728d4b6dc816cd9c7e56b2ab525bbf",
          "transactionIndex": "0xe8",
          "logIndex": "0x20f",
          "removed": false
        },
        {
          "address": "0xf3b5b661b92b75c71fa5aba8fd95d7514a9cd605",
          "topics": [
            "0xddf252ad1be2c89b69c2b068fc378daa952ba7f163c4a11628f55a4df523b3ef",
            "0x0000000000000000000000000000000000000000000000000000000000000000",
            "0x00000000000000000000000043bd4241669753c1ea87a9e7805eb518ab6ac239"
          ],
          "data": "0x0000000000000000000000000000000000000000000000000187e42ccebc467b",
          "blockHash": "0xc8295411e1b0ee5c5cb762e8110c1cea49fc2afe6a58dfa18db572d6fa953093",
          "blockNumber": "0x17fba6b",
          "blockTimestamp": "0x6a0fc8bf",
          "transactionHash": "0x44fe7bbc83d5effa1d9a87b2a4c3337990728d4b6dc816cd9c7e56b2ab525bbf",
          "transactionIndex": "0xe8",
          "logIndex": "0x210",
          "removed": false
        },
        {
          "address": "0xa0b86991c6218b36c1d19d4a2e9eb0ce3606eb48",
          "topics": [
            "0xddf252ad1be2c89b69c2b068fc378daa952ba7f163c4a11628f55a4df523b3ef",
            "0x000000000000000000000000b50caf00647127f7a4945c4b007c4efa205364de",
            "0x0000000000000000000000009ebb8b14acbedd921df6cc336c568b7dcbef3182"
          ],
          "data": "0x0000000000000000000000000000000000000000000000000000000000afb40b",
          "blockHash": "0xc8295411e1b0ee5c5cb762e8110c1cea49fc2afe6a58dfa18db572d6fa953093",
          "blockNumber": "0x17fba6b",
          "blockTimestamp": "0x6a0fc8bf",
          "transactionHash": "0x44fe7bbc83d5effa1d9a87b2a4c3337990728d4b6dc816cd9c7e56b2ab525bbf",
          "transactionIndex": "0xe8",
          "logIndex": "0x211",
          "removed": false
        },
        {
          "address": "0xf3b5b661b92b75c71fa5aba8fd95d7514a9cd605",
          "topics": [
            "0xddf252ad1be2c89b69c2b068fc378daa952ba7f163c4a11628f55a4df523b3ef",
            "0x0000000000000000000000000000000000000000000000000000000000000000",
            "0x0000000000000000000000009ebb8b14acbedd921df6cc336c568b7dcbef3182"
          ],
          "data": "0x0000000000000000000000000000000000000000000000000724700242f86939",
          "blockHash": "0xc8295411e1b0ee5c5cb762e8110c1cea49fc2afe6a58dfa18db572d6fa953093",
          "blockNumber": "0x17fba6b",
          "blockTimestamp": "0x6a0fc8bf",
          "transactionHash": "0x44fe7bbc83d5effa1d9a87b2a4c3337990728d4b6dc816cd9c7e56b2ab525bbf",
          "transactionIndex": "0xe8",
          "logIndex": "0x212",
          "removed": false
        },
        {
          "address": "0xa0b86991c6218b36c1d19d4a2e9eb0ce3606eb48",
          "topics": [
            "0xddf252ad1be2c89b69c2b068fc378daa952ba7f163c4a11628f55a4df523b3ef",
            "0x000000000000000000000000b50caf00647127f7a4945c4b007c4efa205364de",
            "0x000000000000000000000000107030b1e30a4022b5a886ac8b1fdad18b829788"
          ],
          "data": "0x00000000000000000000000000000000000000000000000000000000008a39f6",
          "blockHash": "0xc8295411e1b0ee5c5cb762e8110c1cea49fc2afe6a58dfa18db572d6fa953093",
          "blockNumber": "0x17fba6b",
          "blockTimestamp": "0x6a0fc8bf",
          "transactionHash": "0x44fe7bbc83d5effa1d9a87b2a4c3337990728d4b6dc816cd9c7e56b2ab525bbf",
          "transactionIndex": "0xe8",
          "logIndex": "0x213",
          "removed": false
        },
        {
          "address": "0xf3b5b661b92b75c71fa5aba8fd95d7514a9cd605",
          "topics": [
            "0xddf252ad1be2c89b69c2b068fc378daa952ba7f163c4a11628f55a4df523b3ef",
            "0x0000000000000000000000000000000000000000000000000000000000000000",
            "0x000000000000000000000000107030b1e30a4022b5a886ac8b1fdad18b829788"
          ],
          "data": "0x00000000000000000000000000000000000000000000000019cc58ac8fdae1f7",
          "blockHash": "0xc8295411e1b0ee5c5cb762e8110c1cea49fc2afe6a58dfa18db572d6fa953093",
          "blockNumber": "0x17fba6b",
          "blockTimestamp": "0x6a0fc8bf",
          "transactionHash": "0x44fe7bbc83d5effa1d9a87b2a4c3337990728d4b6dc816cd9c7e56b2ab525bbf",
          "transactionIndex": "0xe8",
          "logIndex": "0x214",
          "removed": false
        },
        {
          "address": "0xa0b86991c6218b36c1d19d4a2e9eb0ce3606eb48",
          "topics": [
            "0xddf252ad1be2c89b69c2b068fc378daa952ba7f163c4a11628f55a4df523b3ef",
            "0x000000000000000000000000b50caf00647127f7a4945c4b007c4efa205364de",
            "0x00000000000000000000000064d3cbab6100782a7839fc1af791027a2f1908d2"
          ],
          "data": "0x0000000000000000000000000000000000000000000000000000000000235dbf",
          "blockHash": "0xc8295411e1b0ee5c5cb762e8110c1cea49fc2afe6a58dfa18db572d6fa953093",
          "blockNumber": "0x17fba6b",
          "blockTimestamp": "0x6a0fc8bf",
          "transactionHash": "0x44fe7bbc83d5effa1d9a87b2a4c3337990728d4b6dc816cd9c7e56b2ab525bbf",
          "transactionIndex": "0xe8",
          "logIndex": "0x215",
          "removed": false
        },
        {
          "address": "0xf3b5b661b92b75c71fa5aba8fd95d7514a9cd605",
          "topics": [
            "0xddf252ad1be2c89b69c2b068fc378daa952ba7f163c4a11628f55a4df523b3ef",
            "0x0000000000000000000000000000000000000000000000000000000000000000",
            "0x00000000000000000000000064d3cbab6100782a7839fc1af791027a2f1908d2"
          ],
          "data": "0x00000000000000000000000000000000000000000000000004c593146ae52e46",
          "blockHash": "0xc8295411e1b0ee5c5cb762e8110c1cea49fc2afe6a58dfa18db572d6fa953093",
          "blockNumber": "0x17fba6b",
          "blockTimestamp": "0x6a0fc8bf",
          "transactionHash": "0x44fe7bbc83d5effa1d9a87b2a4c3337990728d4b6dc816cd9c7e56b2ab525bbf",
          "transactionIndex": "0xe8",
          "logIndex": "0x216",
          "removed": false
        },
        {
          "address": "0xa0b86991c6218b36c1d19d4a2e9eb0ce3606eb48",
          "topics": [
            "0xddf252ad1be2c89b69c2b068fc378daa952ba7f163c4a11628f55a4df523b3ef",
            "0x000000000000000000000000b50caf00647127f7a4945c4b007c4efa205364de",
            "0x0000000000000000000000000f254c40729c93093dc0d290e716b842a9c4484a"
          ],
          "data": "0x0000000000000000000000000000000000000000000000000000000000235552",
          "blockHash": "0xc8295411e1b0ee5c5cb762e8110c1cea49fc2afe6a58dfa18db572d6fa953093",
          "blockNumber": "0x17fba6b",
          "blockTimestamp": "0x6a0fc8bf",
          "transactionHash": "0x44fe7bbc83d5effa1d9a87b2a4c3337990728d4b6dc816cd9c7e56b2ab525bbf",
          "transactionIndex": "0xe8",
          "logIndex": "0x217",
          "removed": false
        },
        {
          "address": "0xa0b86991c6218b36c1d19d4a2e9eb0ce3606eb48",
          "topics": [
            "0xddf252ad1be2c89b69c2b068fc378daa952ba7f163c4a11628f55a4df523b3ef",
            "0x000000000000000000000000b50caf00647127f7a4945c4b007c4efa205364de",
            "0x000000000000000000000000025494682fb33792145f1a459555c7000bab53c4"
          ],
          "data": "0x000000000000000000000000000000000000000000000000000000000023d80a",
          "blockHash": "0xc8295411e1b0ee5c5cb762e8110c1cea49fc2afe6a58dfa18db572d6fa953093",
          "blockNumber": "0x17fba6b",
          "blockTimestamp": "0x6a0fc8bf",
          "transactionHash": "0x44fe7bbc83d5effa1d9a87b2a4c3337990728d4b6dc816cd9c7e56b2ab525bbf",
          "transactionIndex": "0xe8",
          "logIndex": "0x218",
          "removed": false
        },
        {
          "address": "0xf3b5b661b92b75c71fa5aba8fd95d7514a9cd605",
          "topics": [
            "0xddf252ad1be2c89b69c2b068fc378daa952ba7f163c4a11628f55a4df523b3ef",
            "0x0000000000000000000000000000000000000000000000000000000000000000",
            "0x000000000000000000000000025494682fb33792145f1a459555c7000bab53c4"
          ],
          "data": "0x000000000000000000000000000000000000000000000000068ef5df3d56c5a4",
          "blockHash": "0xc8295411e1b0ee5c5cb762e8110c1cea49fc2afe6a58dfa18db572d6fa953093",
          "blockNumber": "0x17fba6b",
          "blockTimestamp": "0x6a0fc8bf",
          "transactionHash": "0x44fe7bbc83d5effa1d9a87b2a4c3337990728d4b6dc816cd9c7e56b2ab525bbf",
          "transactionIndex": "0xe8",
          "logIndex": "0x219",
          "removed": false
        },
        {
          "address": "0xa0b86991c6218b36c1d19d4a2e9eb0ce3606eb48",
          "topics": [
            "0xddf252ad1be2c89b69c2b068fc378daa952ba7f163c4a11628f55a4df523b3ef",
            "0x000000000000000000000000b50caf00647127f7a4945c4b007c4efa205364de",
            "0x000000000000000000000000186c77b80bbfd21b01c7d7fa44ba27031322a77f"
          ],
          "data": "0x000000000000000000000000000000000000000000000000000000000020d6a4",
          "blockHash": "0xc8295411e1b0ee5c5cb762e8110c1cea49fc2afe6a58dfa18db572d6fa953093",
          "blockNumber": "0x17fba6b",
          "blockTimestamp": "0x6a0fc8bf",
          "transactionHash": "0x44fe7bbc83d5effa1d9a87b2a4c3337990728d4b6dc816cd9c7e56b2ab525bbf",
          "transactionIndex": "0xe8",
          "logIndex": "0x21a",
          "removed": false
        },
        {
          "address": "0xf3b5b661b92b75c71fa5aba8fd95d7514a9cd605",
          "topics": [
            "0xddf252ad1be2c89b69c2b068fc378daa952ba7f163c4a11628f55a4df523b3ef",
            "0x0000000000000000000000000000000000000000000000000000000000000000",
            "0x000000000000000000000000186c77b80bbfd21b01c7d7fa44ba27031322a77f"
          ],
          "data": "0x00000000000000000000000000000000000000000000000005fa3fbb63bfd944",
          "blockHash": "0xc8295411e1b0ee5c5cb762e8110c1cea49fc2afe6a58dfa18db572d6fa953093",
          "blockNumber": "0x17fba6b",
          "blockTimestamp": "0x6a0fc8bf",
          "transactionHash": "0x44fe7bbc83d5effa1d9a87b2a4c3337990728d4b6dc816cd9c7e56b2ab525bbf",
          "transactionIndex": "0xe8",
          "logIndex": "0x21b",
          "removed": false
        },
        {
          "address": "0xa0b86991c6218b36c1d19d4a2e9eb0ce3606eb48",
          "topics": [
            "0xddf252ad1be2c89b69c2b068fc378daa952ba7f163c4a11628f55a4df523b3ef",
            "0x000000000000000000000000b50caf00647127f7a4945c4b007c4efa205364de",
            "0x00000000000000000000000052ac3e96bab54c8872e15a6d2a1b368f2ee4973d"
          ],
          "data": "0x0000000000000000000000000000000000000000000000000000000000b84e08",
          "blockHash": "0xc8295411e1b0ee5c5cb762e8110c1cea49fc2afe6a58dfa18db572d6fa953093",
          "blockNumber": "0x17fba6b",
          "blockTimestamp": "0x6a0fc8bf",
          "transactionHash": "0x44fe7bbc83d5effa1d9a87b2a4c3337990728d4b6dc816cd9c7e56b2ab525bbf",
          "transactionIndex": "0xe8",
          "logIndex": "0x21c",
          "removed": false
        },
        {
          "address": "0xf3b5b661b92b75c71fa5aba8fd95d7514a9cd605",
          "topics": [
            "0xddf252ad1be2c89b69c2b068fc378daa952ba7f163c4a11628f55a4df523b3ef",
            "0x0000000000000000000000000000000000000000000000000000000000000000",
            "0x00000000000000000000000052ac3e96bab54c8872e15a6d2a1b368f2ee4973d"
          ],
          "data": "0x000000000000000000000000000000000000000000000000211ad8287a1394b0",
          "blockHash": "0xc8295411e1b0ee5c5cb762e8110c1cea49fc2afe6a58dfa18db572d6fa953093",
          "blockNumber": "0x17fba6b",
          "blockTimestamp": "0x6a0fc8bf",
          "transactionHash": "0x44fe7bbc83d5effa1d9a87b2a4c3337990728d4b6dc816cd9c7e56b2ab525bbf",
          "transactionIndex": "0xe8",
          "logIndex": "0x21d",
          "removed": false
        },
        {
          "address": "0xa0b86991c6218b36c1d19d4a2e9eb0ce3606eb48",
          "topics": [
            "0xddf252ad1be2c89b69c2b068fc378daa952ba7f163c4a11628f55a4df523b3ef",
            "0x000000000000000000000000b50caf00647127f7a4945c4b007c4efa205364de",
            "0x00000000000000000000000092ceb7bf60718b5ac2582773dfce3383e1fcc1d0"
          ],
          "data": "0x000000000000000000000000000000000000000000000000000000000002ce86",
          "blockHash": "0xc8295411e1b0ee5c5cb762e8110c1cea49fc2afe6a58dfa18db572d6fa953093",
          "blockNumber": "0x17fba6b",
          "blockTimestamp": "0x6a0fc8bf",
          "transactionHash": "0x44fe7bbc83d5effa1d9a87b2a4c3337990728d4b6dc816cd9c7e56b2ab525bbf",
          "transactionIndex": "0xe8",
          "logIndex": "0x21e",
          "removed": false
        },
        {
          "address": "0xf3b5b661b92b75c71fa5aba8fd95d7514a9cd605",
          "topics": [
            "0xddf252ad1be2c89b69c2b068fc378daa952ba7f163c4a11628f55a4df523b3ef",
            "0x0000000000000000000000000000000000000000000000000000000000000000",
            "0x00000000000000000000000092ceb7bf60718b5ac2582773dfce3383e1fcc1d0"
          ],
          "data": "0x000000000000000000000000000000000000000000000000007be88993f735ec",
          "blockHash": "0xc8295411e1b0ee5c5cb762e8110c1cea49fc2afe6a58dfa18db572d6fa953093",
          "blockNumber": "0x17fba6b",
          "blockTimestamp": "0x6a0fc8bf",
          "transactionHash": "0x44fe7bbc83d5effa1d9a87b2a4c3337990728d4b6dc816cd9c7e56b2ab525bbf",
          "transactionIndex": "0xe8",
          "logIndex": "0x21f",
          "removed": false
        },
        {
          "address": "0xa0b86991c6218b36c1d19d4a2e9eb0ce3606eb48",
          "topics": [
            "0xddf252ad1be2c89b69c2b068fc378daa952ba7f163c4a11628f55a4df523b3ef",
            "0x000000000000000000000000b50caf00647127f7a4945c4b007c4efa205364de",
            "0x00000000000000000000000070ac9d66b8b29332948c1972786473a1f050e7bd"
          ],
          "data": "0x00000000000000000000000000000000000000000000000000000000000eebc1",
          "blockHash": "0xc8295411e1b0ee5c5cb762e8110c1cea49fc2afe6a58dfa18db572d6fa953093",
          "blockNumber": "0x17fba6b",
          "blockTimestamp": "0x6a0fc8bf",
          "transactionHash": "0x44fe7bbc83d5effa1d9a87b2a4c3337990728d4b6dc816cd9c7e56b2ab525bbf",
          "transactionIndex": "0xe8",
          "logIndex": "0x220",
          "removed": false
        },
        {
          "address": "0xa0b86991c6218b36c1d19d4a2e9eb0ce3606eb48",
          "topics": [
            "0xddf252ad1be2c89b69c2b068fc378daa952ba7f163c4a11628f55a4df523b3ef",
            "0x000000000000000000000000b50caf00647127f7a4945c4b007c4efa205364de",
            "0x0000000000000000000000004b75d1cf8a07280249404bf10aa1b844f0982abc"
          ],
          "data": "0x0000000000000000000000000000000000000000000000000000000000048c15",
          "blockHash": "0xc8295411e1b0ee5c5cb762e8110c1cea49fc2afe6a58dfa18db572d6fa953093",
          "blockNumber": "0x17fba6b",
          "blockTimestamp": "0x6a0fc8bf",
          "transactionHash": "0x44fe7bbc83d5effa1d9a87b2a4c3337990728d4b6dc816cd9c7e56b2ab525bbf",
          "transactionIndex": "0xe8",
          "logIndex": "0x221",
          "removed": false
        },
        {
          "address": "0xb50caf00647127f7a4945c4b007c4efa205364de",
          "topics": [
            "0x6baa0508df6c8bb1346a6a162c7327830aa1075227fb36d74d5f06f2a696cb04"
          ],
          "data": "0xffffffffffffffffffffffffffffffffffffffffffffffffffffffffffffffff00000000000000000000000000000000000000000000000000000000000000000000000000000000000000000000000000000000000000000000000000000000",
          "blockHash": "0xc8295411e1b0ee5c5cb762e8110c1cea49fc2afe6a58dfa18db572d6fa953093",
          "blockNumber": "0x17fba6b",
          "blockTimestamp": "0x6a0fc8bf",
          "transactionHash": "0x44fe7bbc83d5effa1d9a87b2a4c3337990728d4b6dc816cd9c7e56b2ab525bbf",
          "transactionIndex": "0xe8",
          "logIndex": "0x222",
          "removed": false
        }
      ],
      "logsBloom": "0x040000000001000000080000080000000400001000000000000400000000000000000000100000000000000000000000000000014000000000000000800800100000002040000004080500080000040000000000002000004000000808000000084000000200000000040000020008a020000210000000000004001010000000000000000000004000000001000000000040000001000000c0000000000000100004200000002000000010400048000210000800010000000000000001000000000c0003000000080000000000004000000000001000080000000000800020004000000802000400002000000000000000000000200000008000000000000010",
      "type": "0x2",
      "transactionHash": "0x44fe7bbc83d5effa1d9a87b2a4c3337990728d4b6dc816cd9c7e56b2ab525bbf",
      "transactionIndex": "0xe8",
      "blockHash": "0xc8295411e1b0ee5c5cb762e8110c1cea49fc2afe6a58dfa18db572d6fa953093",
      "blockNumber": "0x17fba6b",
      "gasUsed": "0xc033d",
      "effectiveGasPrice": "0x54d043c",
      "from": "0xcad1a7864a108dbff67f4b8af71fab0c7a86d0b6",
      "to": "0xb50caf00647127f7a4945c4b007c4efa205364de",
      "contractAddress": null
    },
    {
      "status": "0x1",
      "cumulativeGasUsed": "0x1305f2b",
      "logs": [
        {
          "address": "0xf3b5b661b92b75c71fa5aba8fd95d7514a9cd605",
          "topics": [
            "0x8c5be1e5ebec7d5bd14f71427d1e84f3dd0314c0f7b2291e5b200ac8c7c3b925",
            "0x000000000000000000000000b50caf00647127f7a4945c4b007c4efa205364de",
            "0x0000000000000000000000006084a02c2ac0127ddf1e617de257c61480a2aee0"
          ],
          "data": "0xffffffffffffffffffffffffffffffffffffffffffffffffffffffffffffffff",
          "blockHash": "0x68d359f4e189bd26a6d8b0d2f37c6bcbfd603f544d5a8d4ae43a2d691fbd7ede",
          "blockNumber": "0x17fba6c",
          "blockTimestamp": "0x6a0fc8cb",
          "transactionHash": "0x60c6f8d3898327dcd302a3a90d8289394c5a00d2b1c39da144edc94cf6154cfe",
          "transactionIndex": "0x6b",
          "logIndex": "0x229",
          "removed": false
        },
        {
          "address": "0xf3b5b661b92b75c71fa5aba8fd95d7514a9cd605",
          "topics": [
            "0xddf252ad1be2c89b69c2b068fc378daa952ba7f163c4a11628f55a4df523b3ef",
            "0x000000000000000000000000b50caf00647127f7a4945c4b007c4efa205364de",
            "0x0000000000000000000000006084a02c2ac0127ddf1e617de257c61480a2aee0"
          ],
          "data": "0x000000000000000000000000000000000000000000000007878d74b42ced0000",
          "blockHash": "0x68d359f4e189bd26a6d8b0d2f37c6bcbfd603f544d5a8d4ae43a2d691fbd7ede",
          "blockNumber": "0x17fba6c",
          "blockTimestamp": "0x6a0fc8cb",
          "transactionHash": "0x60c6f8d3898327dcd302a3a90d8289394c5a00d2b1c39da144edc94cf6154cfe",
          "transactionIndex": "0x6b",
          "logIndex": "0x22a",
          "removed": false
        },
        {
          "address": "0x6084a02c2ac0127ddf1e617de257c61480a2aee0",
          "topics": [
            "0x9e71bc8eea02a63969f509818f2dafb9254532904319f9dbda79b67bd34a5f3d",
            "0x0000000000000000000000002593be17dd1c31b4c124a18bac3a7ae19567ae37"
          ],
          "data": "0x000000000000000000000000000000000000000000000007878d74b42ced0000",
          "blockHash": "0x68d359f4e189bd26a6d8b0d2f37c6bcbfd603f544d5a8d4ae43a2d691fbd7ede",
          "blockNumber": "0x17fba6c",
          "blockTimestamp": "0x6a0fc8cb",
          "transactionHash": "0x60c6f8d3898327dcd302a3a90d8289394c5a00d2b1c39da144edc94cf6154cfe",
          "transactionIndex": "0x6b",
          "logIndex": "0x22b",
          "removed": false
        },
        {
          "address": "0xf3b5b661b92b75c71fa5aba8fd95d7514a9cd605",
          "topics": [
            "0xddf252ad1be2c89b69c2b068fc378daa952ba7f163c4a11628f55a4df523b3ef",
            "0x000000000000000000000000b50caf00647127f7a4945c4b007c4efa205364de",
            "0x0000000000000000000000006084a02c2ac0127ddf1e617de257c61480a2aee0"
          ],
          "data": "0x0000000000000000000000000000000000000000000000159f4224101be38000",
          "blockHash": "0x68d359f4e189bd26a6d8b0d2f37c6bcbfd603f544d5a8d4ae43a2d691fbd7ede",
          "blockNumber": "0x17fba6c",
          "blockTimestamp": "0x6a0fc8cb",
          "transactionHash": "0x60c6f8d3898327dcd302a3a90d8289394c5a00d2b1c39da144edc94cf6154cfe",
          "transactionIndex": "0x6b",
          "logIndex": "0x22c",
          "removed": false
        },
        {
          "address": "0x6084a02c2ac0127ddf1e617de257c61480a2aee0",
          "topics": [
            "0x9e71bc8eea02a63969f509818f2dafb9254532904319f9dbda79b67bd34a5f3d",
            "0x000000000000000000000000c25ccd4896917e9e31925755ced674cbd7214e1a"
          ],
          "data": "0x0000000000000000000000000000000000000000000000159f4224101be38000",
          "blockHash": "0x68d359f4e189bd26a6d8b0d2f37c6bcbfd603f544d5a8d4ae43a2d691fbd7ede",
          "blockNumber": "0x17fba6c",
          "blockTimestamp": "0x6a0fc8cb",
          "transactionHash": "0x60c6f8d3898327dcd302a3a90d8289394c5a00d2b1c39da144edc94cf6154cfe",
          "transactionIndex": "0x6b",
          "logIndex": "0x22d",
          "removed": false
        },
        {
          "address": "0xf3b5b661b92b75c71fa5aba8fd95d7514a9cd605",
          "topics": [
            "0xddf252ad1be2c89b69c2b068fc378daa952ba7f163c4a11628f55a4df523b3ef",
            "0x000000000000000000000000b50caf00647127f7a4945c4b007c4efa205364de",
            "0x0000000000000000000000006084a02c2ac0127ddf1e617de257c61480a2aee0"
          ],
          "data": "0x000000000000000000000000000000000000000000000015af1d78b58c400000",
          "blockHash": "0x68d359f4e189bd26a6d8b0d2f37c6bcbfd603f544d5a8d4ae43a2d691fbd7ede",
          "blockNumber": "0x17fba6c",
          "blockTimestamp": "0x6a0fc8cb",
          "transactionHash": "0x60c6f8d3898327dcd302a3a90d8289394c5a00d2b1c39da144edc94cf6154cfe",
          "transactionIndex": "0x6b",
          "logIndex": "0x22e",
          "removed": false
        },
        {
          "address": "0x6084a02c2ac0127ddf1e617de257c61480a2aee0",
          "topics": [
            "0x9e71bc8eea02a63969f509818f2dafb9254532904319f9dbda79b67bd34a5f3d",
            "0x000000000000000000000000574287f544699b0985fa15c9e1f33a06c94f9c13"
          ],
          "data": "0x000000000000000000000000000000000000000000000015af1d78b58c400000",
          "blockHash": "0x68d359f4e189bd26a6d8b0d2f37c6bcbfd603f544d5a8d4ae43a2d691fbd7ede",
          "blockNumber": "0x17fba6c",
          "blockTimestamp": "0x6a0fc8cb",
          "transactionHash": "0x60c6f8d3898327dcd302a3a90d8289394c5a00d2b1c39da144edc94cf6154cfe",
          "transactionIndex": "0x6b",
          "logIndex": "0x22f",
          "removed": false
        },
        {
          "address": "0xf3b5b661b92b75c71fa5aba8fd95d7514a9cd605",
          "topics": [
            "0xddf252ad1be2c89b69c2b068fc378daa952ba7f163c4a11628f55a4df523b3ef",
            "0x000000000000000000000000b50caf00647127f7a4945c4b007c4efa205364de",
            "0x0000000000000000000000006084a02c2ac0127ddf1e617de257c61480a2aee0"
          ],
          "data": "0x00000000000000000000000000000000000000000000001ba753d09f42ec4000",
          "blockHash": "0x68d359f4e189bd26a6d8b0d2f37c6bcbfd603f544d5a8d4ae43a2d691fbd7ede",
          "blockNumber": "0x17fba6c",
          "blockTimestamp": "0x6a0fc8cb",
          "transactionHash": "0x60c6f8d3898327dcd302a3a90d8289394c5a00d2b1c39da144edc94cf6154cfe",
          "transactionIndex": "0x6b",
          "logIndex": "0x230",
          "removed": false
        },
        {
          "address": "0x6084a02c2ac0127ddf1e617de257c61480a2aee0",
          "topics": [
            "0x9e71bc8eea02a63969f509818f2dafb9254532904319f9dbda79b67bd34a5f3d",
            "0x0000000000000000000000000f92282a77c490034536b066b24312062dc24aa9"
          ],
          "data": "0x00000000000000000000000000000000000000000000001ba753d09f42ec4000",
          "blockHash": "0x68d359f4e189bd26a6d8b0d2f37c6bcbfd603f544d5a8d4ae43a2d691fbd7ede",
          "blockNumber": "0x17fba6c",
          "blockTimestamp": "0x6a0fc8cb",
          "transactionHash": "0x60c6f8d3898327dcd302a3a90d8289394c5a00d2b1c39da144edc94cf6154cfe",
          "transactionIndex": "0x6b",
          "logIndex": "0x231",
          "removed": false
        },
        {
          "address": "0xf3b5b661b92b75c71fa5aba8fd95d7514a9cd605",
          "topics": [
            "0xddf252ad1be2c89b69c2b068fc378daa952ba7f163c4a11628f55a4df523b3ef",
            "0x000000000000000000000000b50caf00647127f7a4945c4b007c4efa205364de",
            "0x0000000000000000000000006084a02c2ac0127ddf1e617de257c61480a2aee0"
          ],
          "data": "0x00000000000000000000000000000000000000000000000924fe7b0fa7740000",
          "blockHash": "0x68d359f4e189bd26a6d8b0d2f37c6bcbfd603f544d5a8d4ae43a2d691fbd7ede",
          "blockNumber": "0x17fba6c",
          "blockTimestamp": "0x6a0fc8cb",
          "transactionHash": "0x60c6f8d3898327dcd302a3a90d8289394c5a00d2b1c39da144edc94cf6154cfe",
          "transactionIndex": "0x6b",
          "logIndex": "0x232",
          "removed": false
        },
        {
          "address": "0x6084a02c2ac0127ddf1e617de257c61480a2aee0",
          "topics": [
            "0x9e71bc8eea02a63969f509818f2dafb9254532904319f9dbda79b67bd34a5f3d",
            "0x000000000000000000000000c8fc15bf56259271c24072f5a6b0a6b6df06d358"
          ],
          "data": "0x00000000000000000000000000000000000000000000000924fe7b0fa7740000",
          "blockHash": "0x68d359f4e189bd26a6d8b0d2f37c6bcbfd603f544d5a8d4ae43a2d691fbd7ede",
          "blockNumber": "0x17fba6c",
          "blockTimestamp": "0x6a0fc8cb",
          "transactionHash": "0x60c6f8d3898327dcd302a3a90d8289394c5a00d2b1c39da144edc94cf6154cfe",
          "transactionIndex": "0x6b",
          "logIndex": "0x233",
          "removed": false
        },
        {
          "address": "0xf3b5b661b92b75c71fa5aba8fd95d7514a9cd605",
          "topics": [
            "0xddf252ad1be2c89b69c2b068fc378daa952ba7f163c4a11628f55a4df523b3ef",
            "0x000000000000000000000000b50caf00647127f7a4945c4b007c4efa205364de",
            "0x0000000000000000000000006084a02c2ac0127ddf1e617de257c61480a2aee0"
          ],
          "data": "0x000000000000000000000000000000000000000000000001b5ec0302e2510000",
          "blockHash": "0x68d359f4e189bd26a6d8b0d2f37c6bcbfd603f544d5a8d4ae43a2d691fbd7ede",
          "blockNumber": "0x17fba6c",
          "blockTimestamp": "0x6a0fc8cb",
          "transactionHash": "0x60c6f8d3898327dcd302a3a90d8289394c5a00d2b1c39da144edc94cf6154cfe",
          "transactionIndex": "0x6b",
          "logIndex": "0x234",
          "removed": false
        },
        {
          "address": "0x6084a02c2ac0127ddf1e617de257c61480a2aee0",
          "topics": [
            "0x9e71bc8eea02a63969f509818f2dafb9254532904319f9dbda79b67bd34a5f3d",
            "0x0000000000000000000000002a90205db305b1e75052834f665871b00ab8cfe2"
          ],
          "data": "0x000000000000000000000000000000000000000000000001b5ec0302e2510000",
          "blockHash": "0x68d359f4e189bd26a6d8b0d2f37c6bcbfd603f544d5a8d4ae43a2d691fbd7ede",
          "blockNumber": "0x17fba6c",
          "blockTimestamp": "0x6a0fc8cb",
          "transactionHash": "0x60c6f8d3898327dcd302a3a90d8289394c5a00d2b1c39da144edc94cf6154cfe",
          "transactionIndex": "0x6b",
          "logIndex": "0x235",
          "removed": false
        },
        {
          "address": "0xf3b5b661b92b75c71fa5aba8fd95d7514a9cd605",
          "topics": [
            "0xddf252ad1be2c89b69c2b068fc378daa952ba7f163c4a11628f55a4df523b3ef",
            "0x000000000000000000000000b50caf00647127f7a4945c4b007c4efa205364de",
            "0x0000000000000000000000006084a02c2ac0127ddf1e617de257c61480a2aee0"
          ],
          "data": "0x00000000000000000000000000000000000000000000007ae598e32b92fd8000",
          "blockHash": "0x68d359f4e189bd26a6d8b0d2f37c6bcbfd603f544d5a8d4ae43a2d691fbd7ede",
          "blockNumber": "0x17fba6c",
          "blockTimestamp": "0x6a0fc8cb",
          "transactionHash": "0x60c6f8d3898327dcd302a3a90d8289394c5a00d2b1c39da144edc94cf6154cfe",
          "transactionIndex": "0x6b",
          "logIndex": "0x236",
          "removed": false
        },
        {
          "address": "0x6084a02c2ac0127ddf1e617de257c61480a2aee0",
          "topics": [
            "0x9e71bc8eea02a63969f509818f2dafb9254532904319f9dbda79b67bd34a5f3d",
            "0x0000000000000000000000001e022fe7ec25d21d2af2aa17f7275abd6b22a438"
          ],
          "data": "0x00000000000000000000000000000000000000000000007ae598e32b92fd8000",
          "blockHash": "0x68d359f4e189bd26a6d8b0d2f37c6bcbfd603f544d5a8d4ae43a2d691fbd7ede",
          "blockNumber": "0x17fba6c",
          "blockTimestamp": "0x6a0fc8cb",
          "transactionHash": "0x60c6f8d3898327dcd302a3a90d8289394c5a00d2b1c39da144edc94cf6154cfe",
          "transactionIndex": "0x6b",
          "logIndex": "0x237",
          "removed": false
        },
        {
          "address": "0xf3b5b661b92b75c71fa5aba8fd95d7514a9cd605",
          "topics": [
            "0xddf252ad1be2c89b69c2b068fc378daa952ba7f163c4a11628f55a4df523b3ef",
            "0x000000000000000000000000b50caf00647127f7a4945c4b007c4efa205364de",
            "0x0000000000000000000000006084a02c2ac0127ddf1e617de257c61480a2aee0"
          ],
          "data": "0x0000000000000000000000000000000000000000000000a8c2a9304bdc178000",
          "blockHash": "0x68d359f4e189bd26a6d8b0d2f37c6bcbfd603f544d5a8d4ae43a2d691fbd7ede",
          "blockNumber": "0x17fba6c",
          "blockTimestamp": "0x6a0fc8cb",
          "transactionHash": "0x60c6f8d3898327dcd302a3a90d8289394c5a00d2b1c39da144edc94cf6154cfe",
          "transactionIndex": "0x6b",
          "logIndex": "0x238",
          "removed": false
        },
        {
          "address": "0x6084a02c2ac0127ddf1e617de257c61480a2aee0",
          "topics": [
            "0x9e71bc8eea02a63969f509818f2dafb9254532904319f9dbda79b67bd34a5f3d",
            "0x00000000000000000000000025ada296f30976024d675cd219f9aaf1f2ad4eb1"
          ],
          "data": "0x0000000000000000000000000000000000000000000000a8c2a9304bdc178000",
          "blockHash": "0x68d359f4e189bd26a6d8b0d2f37c6bcbfd603f544d5a8d4ae43a2d691fbd7ede",
          "blockNumber": "0x17fba6c",
          "blockTimestamp": "0x6a0fc8cb",
          "transactionHash": "0x60c6f8d3898327dcd302a3a90d8289394c5a00d2b1c39da144edc94cf6154cfe",
          "transactionIndex": "0x6b",
          "logIndex": "0x239",
          "removed": false
        },
        {
          "address": "0xf3b5b661b92b75c71fa5aba8fd95d7514a9cd605",
          "topics": [
            "0xddf252ad1be2c89b69c2b068fc378daa952ba7f163c4a11628f55a4df523b3ef",
            "0x000000000000000000000000b50caf00647127f7a4945c4b007c4efa205364de",
            "0x0000000000000000000000006084a02c2ac0127ddf1e617de257c61480a2aee0"
          ],
          "data": "0x0000000000000000000000000000000000000000000000008ab22cffbdbb4000",
          "blockHash": "0x68d359f4e189bd26a6d8b0d2f37c6bcbfd603f544d5a8d4ae43a2d691fbd7ede",
          "blockNumber": "0x17fba6c",
          "blockTimestamp": "0x6a0fc8cb",
          "transactionHash": "0x60c6f8d3898327dcd302a3a90d8289394c5a00d2b1c39da144edc94cf6154cfe",
          "transactionIndex": "0x6b",
          "logIndex": "0x23a",
          "removed": false
        },
        {
          "address": "0x6084a02c2ac0127ddf1e617de257c61480a2aee0",
          "topics": [
            "0x9e71bc8eea02a63969f509818f2dafb9254532904319f9dbda79b67bd34a5f3d",
            "0x00000000000000000000000043bd4241669753c1ea87a9e7805eb518ab6ac239"
          ],
          "data": "0x0000000000000000000000000000000000000000000000008ab22cffbdbb4000",
          "blockHash": "0x68d359f4e189bd26a6d8b0d2f37c6bcbfd603f544d5a8d4ae43a2d691fbd7ede",
          "blockNumber": "0x17fba6c",
          "blockTimestamp": "0x6a0fc8cb",
          "transactionHash": "0x60c6f8d3898327dcd302a3a90d8289394c5a00d2b1c39da144edc94cf6154cfe",
          "transactionIndex": "0x6b",
          "logIndex": "0x23b",
          "removed": false
        },
        {
          "address": "0xf3b5b661b92b75c71fa5aba8fd95d7514a9cd605",
          "topics": [
            "0xddf252ad1be2c89b69c2b068fc378daa952ba7f163c4a11628f55a4df523b3ef",
            "0x000000000000000000000000b50caf00647127f7a4945c4b007c4efa205364de",
            "0x0000000000000000000000006084a02c2ac0127ddf1e617de257c61480a2aee0"
          ],
          "data": "0x000000000000000000000000000000000000000000000032b67821d5dcafc000",
          "blockHash": "0x68d359f4e189bd26a6d8b0d2f37c6bcbfd603f544d5a8d4ae43a2d691fbd7ede",
          "blockNumber": "0x17fba6c",
          "blockTimestamp": "0x6a0fc8cb",
          "transactionHash": "0x60c6f8d3898327dcd302a3a90d8289394c5a00d2b1c39da144edc94cf6154cfe",
          "transactionIndex": "0x6b",
          "logIndex": "0x23c",
          "removed": false
        },
        {
          "address": "0x6084a02c2ac0127ddf1e617de257c61480a2aee0",
          "topics": [
            "0x9e71bc8eea02a63969f509818f2dafb9254532904319f9dbda79b67bd34a5f3d",
            "0x0000000000000000000000009ebb8b14acbedd921df6cc336c568b7dcbef3182"
          ],
          "data": "0x000000000000000000000000000000000000000000000032b67821d5dcafc000",
          "blockHash": "0x68d359f4e189bd26a6d8b0d2f37c6bcbfd603f544d5a8d4ae43a2d691fbd7ede",
          "blockNumber": "0x17fba6c",
          "blockTimestamp": "0x6a0fc8cb",
          "transactionHash": "0x60c6f8d3898327dcd302a3a90d8289394c5a00d2b1c39da144edc94cf6154cfe",
          "transactionIndex": "0x6b",
          "logIndex": "0x23d",
          "removed": false
        },
        {
          "address": "0xf3b5b661b92b75c71fa5aba8fd95d7514a9cd605",
          "topics": [
            "0xddf252ad1be2c89b69c2b068fc378daa952ba7f163c4a11628f55a4df523b3ef",
            "0x000000000000000000000000b50caf00647127f7a4945c4b007c4efa205364de",
            "0x0000000000000000000000006084a02c2ac0127ddf1e617de257c61480a2aee0"
          ],
          "data": "0x00000000000000000000000000000000000000000000000c7ba1f52deb4a0000",
          "blockHash": "0x68d359f4e189bd26a6d8b0d2f37c6bcbfd603f544d5a8d4ae43a2d691fbd7ede",
          "blockNumber": "0x17fba6c",
          "blockTimestamp": "0x6a0fc8cb",
          "transactionHash": "0x60c6f8d3898327dcd302a3a90d8289394c5a00d2b1c39da144edc94cf6154cfe",
          "transactionIndex": "0x6b",
          "logIndex": "0x23e",
          "removed": false
        },
        {
          "address": "0x6084a02c2ac0127ddf1e617de257c61480a2aee0",
          "topics": [
            "0x9e71bc8eea02a63969f509818f2dafb9254532904319f9dbda79b67bd34a5f3d",
            "0x000000000000000000000000107030b1e30a4022b5a886ac8b1fdad18b829788"
          ],
          "data": "0x00000000000000000000000000000000000000000000000c7ba1f52deb4a0000",
          "blockHash": "0x68d359f4e189bd26a6d8b0d2f37c6bcbfd603f544d5a8d4ae43a2d691fbd7ede",
          "blockNumber": "0x17fba6c",
          "blockTimestamp": "0x6a0fc8cb",
          "transactionHash": "0x60c6f8d3898327dcd302a3a90d8289394c5a00d2b1c39da144edc94cf6154cfe",
          "transactionIndex": "0x6b",
          "logIndex": "0x23f",
          "removed": false
        },
        {
          "address": "0xf3b5b661b92b75c71fa5aba8fd95d7514a9cd605",
          "topics": [
            "0xddf252ad1be2c89b69c2b068fc378daa952ba7f163c4a11628f55a4df523b3ef",
            "0x000000000000000000000000b50caf00647127f7a4945c4b007c4efa205364de",
            "0x0000000000000000000000006084a02c2ac0127ddf1e617de257c61480a2aee0"
          ],
          "data": "0x000000000000000000000000000000000000000000000007efecb474f7af0000",
          "blockHash": "0x68d359f4e189bd26a6d8b0d2f37c6bcbfd603f544d5a8d4ae43a2d691fbd7ede",
          "blockNumber": "0x17fba6c",
          "blockTimestamp": "0x6a0fc8cb",
          "transactionHash": "0x60c6f8d3898327dcd302a3a90d8289394c5a00d2b1c39da144edc94cf6154cfe",
          "transactionIndex": "0x6b",
          "logIndex": "0x240",
          "removed": false
        },
        {
          "address": "0x6084a02c2ac0127ddf1e617de257c61480a2aee0",
          "topics": [
            "0x9e71bc8eea02a63969f509818f2dafb9254532904319f9dbda79b67bd34a5f3d",
            "0x00000000000000000000000064d3cbab6100782a7839fc1af791027a2f1908d2"
          ],
          "data": "0x000000000000000000000000000000000000000000000007efecb474f7af0000",
          "blockHash": "0x68d359f4e189bd26a6d8b0d2f37c6bcbfd603f544d5a8d4ae43a2d691fbd7ede",
          "blockNumber": "0x17fba6c",
          "blockTimestamp": "0x6a0fc8cb",
          "transactionHash": "0x60c6f8d3898327dcd302a3a90d8289394c5a00d2b1c39da144edc94cf6154cfe",
          "transactionIndex": "0x6b",
          "logIndex": "0x241",
          "removed": false
        },
        {
          "address": "0xf3b5b661b92b75c71fa5aba8fd95d7514a9cd605",
          "topics": [
            "0xddf252ad1be2c89b69c2b068fc378daa952ba7f163c4a11628f55a4df523b3ef",
            "0x000000000000000000000000b50caf00647127f7a4945c4b007c4efa205364de",
            "0x0000000000000000000000006084a02c2ac0127ddf1e617de257c61480a2aee0"
          ],
          "data": "0x000000000000000000000000000000000000000000000097c9d678cd50bbc000",
          "blockHash": "0x68d359f4e189bd26a6d8b0d2f37c6bcbfd603f544d5a8d4ae43a2d691fbd7ede",
          "blockNumber": "0x17fba6c",
          "blockTimestamp": "0x6a0fc8cb",
          "transactionHash": "0x60c6f8d3898327dcd302a3a90d8289394c5a00d2b1c39da144edc94cf6154cfe",
          "transactionIndex": "0x6b",
          "logIndex": "0x242",
          "removed": false
        },
        {
          "address": "0x6084a02c2ac0127ddf1e617de257c61480a2aee0",
          "topics": [
            "0x9e71bc8eea02a63969f509818f2dafb9254532904319f9dbda79b67bd34a5f3d",
            "0x0000000000000000000000000f254c40729c93093dc0d290e716b842a9c4484a"
          ],
          "data": "0x000000000000000000000000000000000000000000000097c9d678cd50bbc000",
          "blockHash": "0x68d359f4e189bd26a6d8b0d2f37c6bcbfd603f544d5a8d4ae43a2d691fbd7ede",
          "blockNumber": "0x17fba6c",
          "blockTimestamp": "0x6a0fc8cb",
          "transactionHash": "0x60c6f8d3898327dcd302a3a90d8289394c5a00d2b1c39da144edc94cf6154cfe",
          "transactionIndex": "0x6b",
          "logIndex": "0x243",
          "removed": false
        },
        {
          "address": "0xf3b5b661b92b75c71fa5aba8fd95d7514a9cd605",
          "topics": [
            "0xddf252ad1be2c89b69c2b068fc378daa952ba7f163c4a11628f55a4df523b3ef",
            "0x000000000000000000000000b50caf00647127f7a4945c4b007c4efa205364de",
            "0x0000000000000000000000006084a02c2ac0127ddf1e617de257c61480a2aee0"
          ],
          "data": "0x000000000000000000000000000000000000000000000005bf0ba6634f680000",
          "blockHash": "0x68d359f4e189bd26a6d8b0d2f37c6bcbfd603f544d5a8d4ae43a2d691fbd7ede",
          "blockNumber": "0x17fba6c",
          "blockTimestamp": "0x6a0fc8cb",
          "transactionHash": "0x60c6f8d3898327dcd302a3a90d8289394c5a00d2b1c39da144edc94cf6154cfe",
          "transactionIndex": "0x6b",
          "logIndex": "0x244",
          "removed": false
        },
        {
          "address": "0x6084a02c2ac0127ddf1e617de257c61480a2aee0",
          "topics": [
            "0x9e71bc8eea02a63969f509818f2dafb9254532904319f9dbda79b67bd34a5f3d",
            "0x000000000000000000000000025494682fb33792145f1a459555c7000bab53c4"
          ],
          "data": "0x000000000000000000000000000000000000000000000005bf0ba6634f680000",
          "blockHash": "0x68d359f4e189bd26a6d8b0d2f37c6bcbfd603f544d5a8d4ae43a2d691fbd7ede",
          "blockNumber": "0x17fba6c",
          "blockTimestamp": "0x6a0fc8cb",
          "transactionHash": "0x60c6f8d3898327dcd302a3a90d8289394c5a00d2b1c39da144edc94cf6154cfe",
          "transactionIndex": "0x6b",
          "logIndex": "0x245",
          "removed": false
        },
        {
          "address": "0xf3b5b661b92b75c71fa5aba8fd95d7514a9cd605",
          "topics": [
            "0xddf252ad1be2c89b69c2b068fc378daa952ba7f163c4a11628f55a4df523b3ef",
            "0x000000000000000000000000b50caf00647127f7a4945c4b007c4efa205364de",
            "0x0000000000000000000000006084a02c2ac0127ddf1e617de257c61480a2aee0"
          ],
          "data": "0x0000000000000000000000000000000000000000000000056bc75e2d63100000",
          "blockHash": "0x68d359f4e189bd26a6d8b0d2f37c6bcbfd603f544d5a8d4ae43a2d691fbd7ede",
          "blockNumber": "0x17fba6c",
          "blockTimestamp": "0x6a0fc8cb",
          "transactionHash": "0x60c6f8d3898327dcd302a3a90d8289394c5a00d2b1c39da144edc94cf6154cfe",
          "transactionIndex": "0x6b",
          "logIndex": "0x246",
          "removed": false
        },
        {
          "address": "0x6084a02c2ac0127ddf1e617de257c61480a2aee0",
          "topics": [
            "0x9e71bc8eea02a63969f509818f2dafb9254532904319f9dbda79b67bd34a5f3d",
            "0x000000000000000000000000186c77b80bbfd21b01c7d7fa44ba27031322a77f"
          ],
          "data": "0x0000000000000000000000000000000000000000000000056bc75e2d63100000",
          "blockHash": "0x68d359f4e189bd26a6d8b0d2f37c6bcbfd603f544d5a8d4ae43a2d691fbd7ede",
          "blockNumber": "0x17fba6c",
          "blockTimestamp": "0x6a0fc8cb",
          "transactionHash": "0x60c6f8d3898327dcd302a3a90d8289394c5a00d2b1c39da144edc94cf6154cfe",
          "transactionIndex": "0x6b",
          "logIndex": "0x247",
          "removed": false
        },
        {
          "address": "0xf3b5b661b92b75c71fa5aba8fd95d7514a9cd605",
          "topics": [
            "0xddf252ad1be2c89b69c2b068fc378daa952ba7f163c4a11628f55a4df523b3ef",
            "0x000000000000000000000000b50caf00647127f7a4945c4b007c4efa205364de",
            "0x0000000000000000000000006084a02c2ac0127ddf1e617de257c61480a2aee0"
          ],
          "data": "0x00000000000000000000000000000000000000000000002086ac351052600000",
          "blockHash": "0x68d359f4e189bd26a6d8b0d2f37c6bcbfd603f544d5a8d4ae43a2d691fbd7ede",
          "blockNumber": "0x17fba6c",
          "blockTimestamp": "0x6a0fc8cb",
          "transactionHash": "0x60c6f8d3898327dcd302a3a90d8289394c5a00d2b1c39da144edc94cf6154cfe",
          "transactionIndex": "0x6b",
          "logIndex": "0x248",
          "removed": false
        },
        {
          "address": "0x6084a02c2ac0127ddf1e617de257c61480a2aee0",
          "topics": [
            "0x9e71bc8eea02a63969f509818f2dafb9254532904319f9dbda79b67bd34a5f3d",
            "0x00000000000000000000000052ac3e96bab54c8872e15a6d2a1b368f2ee4973d"
          ],
          "data": "0x00000000000000000000000000000000000000000000002086ac351052600000",
          "blockHash": "0x68d359f4e189bd26a6d8b0d2f37c6bcbfd603f544d5a8d4ae43a2d691fbd7ede",
          "blockNumber": "0x17fba6c",
          "blockTimestamp": "0x6a0fc8cb",
          "transactionHash": "0x60c6f8d3898327dcd302a3a90d8289394c5a00d2b1c39da144edc94cf6154cfe",
          "transactionIndex": "0x6b",
          "logIndex": "0x249",
          "removed": false
        },
        {
          "address": "0xf3b5b661b92b75c71fa5aba8fd95d7514a9cd605",
          "topics": [
            "0xddf252ad1be2c89b69c2b068fc378daa952ba7f163c4a11628f55a4df523b3ef",
            "0x000000000000000000000000b50caf00647127f7a4945c4b007c4efa205364de",
            "0x0000000000000000000000006084a02c2ac0127ddf1e617de257c61480a2aee0"
          ],
          "data": "0x0000000000000000000000000000000000000000000000008d109fbe9ce40000",
          "blockHash": "0x68d359f4e189bd26a6d8b0d2f37c6bcbfd603f544d5a8d4ae43a2d691fbd7ede",
          "blockNumber": "0x17fba6c",
          "blockTimestamp": "0x6a0fc8cb",
          "transactionHash": "0x60c6f8d3898327dcd302a3a90d8289394c5a00d2b1c39da144edc94cf6154cfe",
          "transactionIndex": "0x6b",
          "logIndex": "0x24a",
          "removed": false
        },
        {
          "address": "0x6084a02c2ac0127ddf1e617de257c61480a2aee0",
          "topics": [
            "0x9e71bc8eea02a63969f509818f2dafb9254532904319f9dbda79b67bd34a5f3d",
            "0x00000000000000000000000092ceb7bf60718b5ac2582773dfce3383e1fcc1d0"
          ],
          "data": "0x0000000000000000000000000000000000000000000000008d109fbe9ce40000",
          "blockHash": "0x68d359f4e189bd26a6d8b0d2f37c6bcbfd603f544d5a8d4ae43a2d691fbd7ede",
          "blockNumber": "0x17fba6c",
          "blockTimestamp": "0x6a0fc8cb",
          "transactionHash": "0x60c6f8d3898327dcd302a3a90d8289394c5a00d2b1c39da144edc94cf6154cfe",
          "transactionIndex": "0x6b",
          "logIndex": "0x24b",
          "removed": false
        },
        {
          "address": "0xf3b5b661b92b75c71fa5aba8fd95d7514a9cd605",
          "topics": [
            "0xddf252ad1be2c89b69c2b068fc378daa952ba7f163c4a11628f55a4df523b3ef",
            "0x000000000000000000000000b50caf00647127f7a4945c4b007c4efa205364de",
            "0x0000000000000000000000006084a02c2ac0127ddf1e617de257c61480a2aee0"
          ],
          "data": "0x00000000000000000000000000000000000000000000000542253a126ce40000",
          "blockHash": "0x68d359f4e189bd26a6d8b0d2f37c6bcbfd603f544d5a8d4ae43a2d691fbd7ede",
          "blockNumber": "0x17fba6c",
          "blockTimestamp": "0x6a0fc8cb",
          "transactionHash": "0x60c6f8d3898327dcd302a3a90d8289394c5a00d2b1c39da144edc94cf6154cfe",
          "transactionIndex": "0x6b",
          "logIndex": "0x24c",
          "removed": false
        },
        {
          "address": "0x6084a02c2ac0127ddf1e617de257c61480a2aee0",
          "topics": [
            "0x9e71bc8eea02a63969f509818f2dafb9254532904319f9dbda79b67bd34a5f3d",
            "0x00000000000000000000000070ac9d66b8b29332948c1972786473a1f050e7bd"
          ],
          "data": "0x00000000000000000000000000000000000000000000000542253a126ce40000",
          "blockHash": "0x68d359f4e189bd26a6d8b0d2f37c6bcbfd603f544d5a8d4ae43a2d691fbd7ede",
          "blockNumber": "0x17fba6c",
          "blockTimestamp": "0x6a0fc8cb",
          "transactionHash": "0x60c6f8d3898327dcd302a3a90d8289394c5a00d2b1c39da144edc94cf6154cfe",
          "transactionIndex": "0x6b",
          "logIndex": "0x24d",
          "removed": false
        },
        {
          "address": "0xf3b5b661b92b75c71fa5aba8fd95d7514a9cd605",
          "topics": [
            "0xddf252ad1be2c89b69c2b068fc378daa952ba7f163c4a11628f55a4df523b3ef",
            "0x000000000000000000000000b50caf00647127f7a4945c4b007c4efa205364de",
            "0x0000000000000000000000006084a02c2ac0127ddf1e617de257c61480a2aee0"
          ],
          "data": "0x00000000000000000000000000000000000000000000005423d9b7ab7a968000",
          "blockHash": "0x68d359f4e189bd26a6d8b0d2f37c6bcbfd603f544d5a8d4ae43a2d691fbd7ede",
          "blockNumber": "0x17fba6c",
          "blockTimestamp": "0x6a0fc8cb",
          "transactionHash": "0x60c6f8d3898327dcd302a3a90d8289394c5a00d2b1c39da144edc94cf6154cfe",
          "transactionIndex": "0x6b",
          "logIndex": "0x24e",
          "removed": false
        },
        {
          "address": "0x6084a02c2ac0127ddf1e617de257c61480a2aee0",
          "topics": [
            "0x9e71bc8eea02a63969f509818f2dafb9254532904319f9dbda79b67bd34a5f3d",
            "0x0000000000000000000000004b75d1cf8a07280249404bf10aa1b844f0982abc"
          ],
          "data": "0x00000000000000000000000000000000000000000000005423d9b7ab7a968000",
          "blockHash": "0x68d359f4e189bd26a6d8b0d2f37c6bcbfd603f544d5a8d4ae43a2d691fbd7ede",
          "blockNumber": "0x17fba6c",
          "blockTimestamp": "0x6a0fc8cb",
          "transactionHash": "0x60c6f8d3898327dcd302a3a90d8289394c5a00d2b1c39da144edc94cf6154cfe",
          "transactionIndex": "0x6b",
          "logIndex": "0x24f",
          "removed": false
        },
        {
          "address": "0xb50caf00647127f7a4945c4b007c4efa205364de",
          "topics": [
            "0xb1224d2576032d2bd4e1f9390eaaa7861d47709b5ad5c33c84a43178ea289fe9"
          ],
          "data": "0xffffffffffffffffffffffffffffffffffffffffffffffffffffffffffffffff0000000000000000000000000000000000000000000000000000000000000000",
          "blockHash": "0x68d359f4e189bd26a6d8b0d2f37c6bcbfd603f544d5a8d4ae43a2d691fbd7ede",
          "blockNumber": "0x17fba6c",
          "blockTimestamp": "0x6a0fc8cb",
          "transactionHash": "0x60c6f8d3898327dcd302a3a90d8289394c5a00d2b1c39da144edc94cf6154cfe",
          "transactionIndex": "0x6b",
          "logIndex": "0x250",
          "removed": false
        }
      ],
      "logsBloom": "0x0400000000010000000800000800000004000010080000000004000000000000000000001000000000000000000000000000000140000000000000008028001000000020400000040005000800000400000000000020000040000008080000004844000800000002000c0000020000a020000210000000000004001010000006000000000000004000000000000000000040000000000000c0000000000000100204200000000000000010600048000210004800010000400000000001000000000c0003000000080000000000004000000000001000080000000000800000004010020002000000002000000000000000000000200000008000000000000010",
      "type": "0x2",
      "transactionHash": "0x60c6f8d3898327dcd302a3a90d8289394c5a00d2b1c39da144edc94cf6154cfe",
      "transactionIndex": "0x6b",
      "blockHash": "0x68d359f4e189bd26a6d8b0d2f37c6bcbfd603f544d5a8d4ae43a2d691fbd7ede",
      "blockNumber": "0x17fba6c",
      "gasUsed": "0xedd1a",
      "effectiveGasPrice": "0x5839db7",
      "from": "0xcad1a7864a108dbff67f4b8af71fab0c7a86d0b6",
      "to": "0xb50caf00647127f7a4945c4b007c4efa205364de",
      "contractAddress": null
    },
    {
      "status": "0x1",
      "cumulativeGasUsed": "0xd79e9d",
      "logs": [
        {
          "address": "0xb50caf00647127f7a4945c4b007c4efa205364de",
          "topics": [
            "0x8f420e722d4b21a3e3ef6314f97a0827afa394a45c56d2f53f2b638d1efa845e",
            "0x000000000000000000000000cad1a7864a108dbff67f4b8af71fab0c7a86d0b6"
          ],
          "data": "0x00000000000000000000000000000000000000000000000000000000000000000000000000000000000000000000000000000000000000000000000000000000",
          "blockHash": "0x119c080c514b5a705c328068f158f3ba68e0fca5206b721ce5f07faf77801fe5",
          "blockNumber": "0x17fba6d",
          "blockTimestamp": "0x6a0fc8d7",
          "transactionHash": "0x8f2ce9043bb2e6ecc9ad0b0844b4a947517adcfd9261e8cfed1edf8b83308f8f",
          "transactionIndex": "0x52",
          "logIndex": "0x1bd",
          "removed": false
        }
      ],
      "logsBloom": "0x00000000000000000020000000000000000000000000000000000000000000000000000000000000000000400000000010000000000000000000000000000000000000000000000000040000000004000000000000000000000000001000000000000000000000000000000000000000000000000000000000000000000000000000000000000000000000000000000000000000000000000000000000000000000000000000000000000000000000000000000000000000000000000000000000000000000000000000000000000000000200000000180000000000000000000000000000000000000000000000000000000000000000000000000000000000",
      "type": "0x2",
      "transactionHash": "0x8f2ce9043bb2e6ecc9ad0b0844b4a947517adcfd9261e8cfed1edf8b83308f8f",
      "transactionIndex": "0x52",
      "blockHash": "0x119c080c514b5a705c328068f158f3ba68e0fca5206b721ce5f07faf77801fe5",
      "blockNumber": "0x17fba6d",
      "gasUsed": "0xabd8",
      "effectiveGasPrice": "0x5880f9f",
      "from": "0xcad1a7864a108dbff67f4b8af71fab0c7a86d0b6",
      "to": "0xb50caf00647127f7a4945c4b007c4efa205364de",
      "contractAddress": null
    },
    {
      "status": "0x1",
      "cumulativeGasUsed": "0x225319a",
      "logs": [
        {
          "address": "0xa0b86991c6218b36c1d19d4a2e9eb0ce3606eb48",
          "topics": [
            "0x8c5be1e5ebec7d5bd14f71427d1e84f3dd0314c0f7b2291e5b200ac8c7c3b925",
            "0x000000000000000000000000cad1a7864a108dbff67f4b8af71fab0c7a86d0b6",
            "0x0000000000000000000000006084a02c2ac0127ddf1e617de257c61480a2aee0"
          ],
          "data": "0x00000000000000000000000000000000000000000000000000000000015f2a3f",
          "blockHash": "0xac2155fc864d058dfb76942e3450d33008653408c353c1ecbc4cdacf155d3c61",
          "blockNumber": "0x17fba6f",
          "blockTimestamp": "0x6a0fc8ef",
          "transactionHash": "0xda750899b0e02e66e691526aa87dff717792afbd72d58646e7aaeb3f231b0267",
          "transactionIndex": "0xed",
          "logIndex": "0x432",
          "removed": false
        }
      ],
      "logsBloom": "0x00000000000000000020000000000000000000000000000000000000000000000000000000000000000000400000000000000000000000000000000000200000000000000000000008000000000000000000000000000000000000000000000000000008000000000000000000000000000000000000000000000000000000000000000000000000000000000000000000000000010000000000000000000000020000000000200000000020000000000000000000000040000000000000000000000000000000000000000000000000000000000000100000000000000000000010000000000000000000000000000000000000000000000000000000000000",
      "type": "0x2",
      "transactionHash": "0xda750899b0e02e66e691526aa87dff717792afbd72d58646e7aaeb3f231b0267",
      "transactionIndex": "0xed",
      "blockHash": "0xac2155fc864d058dfb76942e3450d33008653408c353c1ecbc4cdacf155d3c61",
      "blockNumber": "0x17fba6f",
      "gasUsed": "0xd912",
      "effectiveGasPrice": "0x50f1562",
      "from": "0xcad1a7864a108dbff67f4b8af71fab0c7a86d0b6",
      "to": "0xa0b86991c6218b36c1d19d4a2e9eb0ce3606eb48",
      "contractAddress": null
    },
    {
      "status": "0x1",
      "cumulativeGasUsed": "0x238d113",
      "logs": [
        {
          "address": "0xa0b86991c6218b36c1d19d4a2e9eb0ce3606eb48",
          "topics": [
            "0xddf252ad1be2c89b69c2b068fc378daa952ba7f163c4a11628f55a4df523b3ef",
            "0x000000000000000000000000cad1a7864a108dbff67f4b8af71fab0c7a86d0b6",
            "0x0000000000000000000000006084a02c2ac0127ddf1e617de257c61480a2aee0"
          ],
          "data": "0x00000000000000000000000000000000000000000000000000000000015f2a3f",
          "blockHash": "0x7106bc5abbf0771cc458e10bd5a0d80a66d919cad7ee1c57f605ea945d5c6852",
          "blockNumber": "0x17fba71",
          "blockTimestamp": "0x6a0fc907",
          "transactionHash": "0x453ff3151bd9d93ec3a4cfd5ff2ac78feb3376485143239e5e2a05567b6524f5",
          "transactionIndex": "0xac",
          "logIndex": "0x32b",
          "removed": false
        },
        {
          "address": "0x6084a02c2ac0127ddf1e617de257c61480a2aee0",
          "topics": [
            "0xa9ba87905525541e4348d30950feb0e0ac84fc2632206644e892923e32da79c0"
          ],
          "data": "0x00000000000000000000000000000000000000000000000000000000015f2a3f00000000000000000000000000000000000000000000000000000000015f2a3f00000000000000000000000000000000000000000000000171a7eb69e28d95c7",
          "blockHash": "0x7106bc5abbf0771cc458e10bd5a0d80a66d919cad7ee1c57f605ea945d5c6852",
          "blockNumber": "0x17fba71",
          "blockTimestamp": "0x6a0fc907",
          "transactionHash": "0x453ff3151bd9d93ec3a4cfd5ff2ac78feb3376485143239e5e2a05567b6524f5",
          "transactionIndex": "0xac",
          "logIndex": "0x32c",
          "removed": false
        }
      ],
      "logsBloom": "0x00000000000000000020000000000000000000000000000000000000000000000000000000000000000000400200000000000000000000000000000000000000000000000000000008000008000000000000000000000000000000000000000000040008000000000000000000000000000000000000000000000010002000060000000000000000000000000000000000000000010000000000000000000000000000000000200000000020000000000000000200000040000000000000000000000002000000000000000000000000000000000000100000000000000000000000000000000000000000000000000000000000000000000000000000000000",
      "type": "0x2",
      "transactionHash": "0x453ff3151bd9d93ec3a4cfd5ff2ac78feb3376485143239e5e2a05567b6524f5",
      "transactionIndex": "0xac",
      "blockHash": "0x7106bc5abbf0771cc458e10bd5a0d80a66d919cad7ee1c57f605ea945d5c6852",
      "blockNumber": "0x17fba71",
      "gasUsed": "0x1f7ef",
      "effectiveGasPrice": "0x4ed8936",
      "from": "0xcad1a7864a108dbff67f4b8af71fab0c7a86d0b6",
      "to": "0x6084a02c2ac0127ddf1e617de257c61480a2aee0",
      "contractAddress": null
    },
    {
      "status": "0x1",
      "cumulativeGasUsed": "0x18cd6f7",
      "logs": [
        {
          "address": "0xf3b5b661b92b75c71fa5aba8fd95d7514a9cd605",
          "topics": [
            "0x34e56df787a7a59706503a81c304ed0ef46ddd2dfcdf1c8c8d1db684f3639fdd",
            "0x000000000000000000000000b50caf00647127f7a4945c4b007c4efa205364de"
          ],
          "data": "0x00000000000000000000000000000000000000000000000000000000000000000000000000000000000000000000000000000000000000000000000000000000",
          "blockHash": "0x02b50f6547981890875181cca0c386411c3d0a86f501eee4fc36207fcecd6965",
          "blockNumber": "0x17fba72",
          "blockTimestamp": "0x6a0fc913",
          "transactionHash": "0xb34cddf863ab702fa1626078b2a98df9065b76bbd7e07020c8ddb0e99a029441",
          "transactionIndex": "0x234",
          "logIndex": "0x114",
          "removed": false
        }
      ],
      "logsBloom": "0x00000000000000000000000008000000000000000000000000000000000000000000000000000000000000000000000000000000000000000000000000000000000000004000000400000000000000000000000000000000000000000000000008000000000000000004000000000000000000000000000004000000100000000000000000000000000000000000000000000000000000000000000000000000000000000000000000000000000000000000000000000000000000000000000000800000000000000000000000000000000000000000000000000000000000000000000000000000000000000000000000000000000000000000400000000000",
      "type": "0x2",
      "transactionHash": "0xb34cddf863ab702fa1626078b2a98df9065b76bbd7e07020c8ddb0e99a029441",
      "transactionIndex": "0x234",
      "blockHash": "0x02b50f6547981890875181cca0c386411c3d0a86f501eee4fc36207fcecd6965",
      "blockNumber": "0x17fba72",
      "gasUsed": "0x7e5a",
      "effectiveGasPrice": "0x5413765",
      "from": "0xcad1a7864a108dbff67f4b8af71fab0c7a86d0b6",
      "to": "0xf3b5b661b92b75c71fa5aba8fd95d7514a9cd605",
      "contractAddress": null
    },
    {
      "status": "0x1",
      "cumulativeGasUsed": "0x10c03be",
      "logs": [],
      "logsBloom": "0x00000000000000000000000000000000000000000000000000000000000000000000000000000000000000000000000000000000000000000000000000000000000000000000000000000000000000000000000000000000000000000000000000000000000000000000000000000000000000000000000000000000000000000000000000000000000000000000000000000000000000000000000000000000000000000000000000000000000000000000000000000000000000000000000000000000000000000000000000000000000000000000000000000000000000000000000000000000000000000000000000000000000000000000000000000000",
      "type": "0x2",
      "transactionHash": "0x328c364dfc5eab919e1a992666863b7e526246d2951afa66e80af4e460b7cedb",
      "transactionIndex": "0xde",
      "blockHash": "0xd9ae743d7c135e443cb0a96ef27b450cbce31e88de89552c6267e1345d8533d1",
      "blockNumber": "0x17fba73",
      "gasUsed": "0xb421",
      "effectiveGasPrice": "0x5400085",
      "from": "0xcad1a7864a108dbff67f4b8af71fab0c7a86d0b6",
      "to": "0x6084a02c2ac0127ddf1e617de257c61480a2aee0",
      "contractAddress": null
    }
  ],
  "libraries": [],
  "pending": [],
  "returns": {},
  "timestamp": 1779419426050,
  "chain": 1,
  "commit": "379719a"
}