{
  "transactions": [
    {
      "hash": "0x7bd546443a5adad90acf809ff11e42de775e8e2a5d8c6b5081e86f0d730177c8",
      "transactionType": "CALL",
      "contractName": null,
      "contractAddress": "0xdd9a470dffa0df2ce264ca2ecea265d30ac1008f",
      "function": "removeYieldStrategy(address)",
      "arguments": [
        "0xf5F91E8240a0320CAC40b799B25F944a61090E5B"
      ],
      "transaction": {
        "from": "0xcad1a7864a108dbff67f4b8af71fab0c7a86d0b6",
        "to": "0xdd9a470dffa0df2ce264ca2ecea265d30ac1008f",
        "gas": "0xd81c",
        "value": "0x0",
        "input": "0x3a8107cf000000000000000000000000f5f91e8240a0320cac40b799b25f944a61090e5b",
        "nonce": "0x121",
        "chainId": "0x1"
      },
      "additionalContracts": [],
      "isFixedGasLimit": false
    },
    {
      "hash": "0x3aa8be8180aa5f666d33ab81c590e85699260449ebe3e4618613b0c9c4745f22",
      "transactionType": "CALL",
      "contractName": null,
      "contractAddress": "0xdd9a470dffa0df2ce264ca2ecea265d30ac1008f",
      "function": "addYieldStrategy(address,address)",
      "arguments": [
        "0x8b4A75290A1C4935eC1dfd990374AC4BD4D33952",
        "0xA0b86991c6218b36c1d19D4a2e9Eb0cE3606eB48"
      ],
      "transaction": {
        "from": "0xcad1a7864a108dbff67f4b8af71fab0c7a86d0b6",
        "to": "0xdd9a470dffa0df2ce264ca2ecea265d30ac1008f",
        "gas": "0x210e9",
        "value": "0x0",
        "input": "0x454ee0ca0000000000000000000000008b4a75290a1c4935ec1dfd990374ac4bd4d33952000000000000000000000000a0b86991c6218b36c1d19d4a2e9eb0ce3606eb48",
        "nonce": "0x122",
        "chainId": "0x1"
      },
      "additionalContracts": [],
      "isFixedGasLimit": false
    },
    {
      "hash": "0x06387ad21bd945eb9e6baf464563b3abb33f1edd2d18442f293a0826a9d1386f",
      "transactionType": "CALL",
      "contractName": null,
      "contractAddress": "0x8b4a75290a1c4935ec1dfd990374ac4bd4d33952",
      "function": "setWithdrawer(address,bool)",
      "arguments": [
        "0xdD9A470dFFa0DF2cE264Ca2ECeA265d30ac1008f",
        "true"
      ],
      "transaction": {
        "from": "0xcad1a7864a108dbff67f4b8af71fab0c7a86d0b6",
        "to": "0x8b4a75290a1c4935ec1dfd990374ac4bd4d33952",
        "gas": "0x11230",
        "value": "0x0",
        "input": "0x82c3b965000000000000000000000000dd9a470dffa0df2ce264ca2ecea265d30ac1008f0000000000000000000000000000000000000000000000000000000000000001",
        "nonce": "0x123",
        "chainId": "0x1"
      },
      "additionalContracts": [],
      "isFixedGasLimit": false
    }
  ],
  "receipts": [
    {
      "status": "0x1",
      "cumulativeGasUsed": "0x24bf660",
      "logs": [
        {
          "address": "0xdd9a470dffa0df2ce264ca2ecea265d30ac1008f",
          "topics": [
            "0x7bc7e967314c87be019a6f018822e621cf2548b9231ed0605002aceb282e1608",
            "0x000000000000000000000000f5f91e8240a0320cac40b799b25f944a61090e5b"
          ],
          "data": "0x",
          "blockHash": "0xa2c530e13dc87da234581b6d1ea9cf2b3c5c0f2949d37dfc66a11cf8196e10be",
          "blockNumber": "0x17ab218",
          "blockTimestamp": "0x69d33487",
          "transactionHash": "0x7bd546443a5adad90acf809ff11e42de775e8e2a5d8c6b5081e86f0d730177c8",
          "transactionIndex": "0x122",
          "logIndex": "0x3c2",
          "removed": false
        }
      ],
      "logsBloom": "0x00000000000000000000000000000000004000000000000000000000000000000000000010000000000000000000000000000000000000000000000100000000000000000000000000000000000000000000000000000000000000000000000000000000000000002210000000000000000000000000000000020000000000000000000000000000000000000000000000000000000000000000000000000000000000000000000000000000000000000000000000000000000000000000000000000000000000000000000000000000000000000000000000000000000000000000000000000000000000000000000000000200000000000000001000000000",
      "type": "0x2",
      "transactionHash": "0x7bd546443a5adad90acf809ff11e42de775e8e2a5d8c6b5081e86f0d730177c8",
      "transactionIndex": "0x122",
      "blockHash": "0xa2c530e13dc87da234581b6d1ea9cf2b3c5c0f2949d37dfc66a11cf8196e10be",
      "blockNumber": "0x17ab218",
      "gasUsed": "0x9c76",
      "effectiveGasPrice": "0x363f313",
      "from": "0xcad1a7864a108dbff67f4b8af71fab0c7a86d0b6",
      "to": "0xdd9a470dffa0df2ce264ca2ecea265d30ac1008f",
      "contractAddress": null
    },
    {
      "status": "0x1",
      "cumulativeGasUsed": "0x2024420",
      "logs": [
        {
          "address": "0xdd9a470dffa0df2ce264ca2ecea265d30ac1008f",
          "topics": [
            "0xdc4b546afdb935e93f993a347dbbab9b6a533a7c1ab745d14e05163767d5b10a",
            "0x0000000000000000000000008b4a75290a1c4935ec1dfd990374ac4bd4d33952"
          ],
          "data": "0x",
          "blockHash": "0x04d6c0a502d99694a21992c12b94d827e08a97659e11886ba25409d6ea7749d1",
          "blockNumber": "0x17ab219",
          "blockTimestamp": "0x69d33493",
          "transactionHash": "0x3aa8be8180aa5f666d33ab81c590e85699260449ebe3e4618613b0c9c4745f22",
          "transactionIndex": "0x75",
          "logIndex": "0x5f9",
          "removed": false
        }
      ],
      "logsBloom": "0x00000000000000000000000000000000000000000000000000000000000000000000000000104000000000000000000000000000000000000004000000000000000000000000000000000000000000000000000000000000000000000000000000000000000000000010000000020000000000000000000000000000000000000000000000000000000000000000000000000000000000000000000000000000010000002000000000000000000000000000000000000000000000000000000000000000000000000000000000000000000000000000000000000000000000000000000000000000000000000000000000000200000000000000001000000000",
      "type": "0x2",
      "transactionHash": "0x3aa8be8180aa5f666d33ab81c590e85699260449ebe3e4618613b0c9c4745f22",
      "transactionIndex": "0x75",
      "blockHash": "0x04d6c0a502d99694a21992c12b94d827e08a97659e11886ba25409d6ea7749d1",
      "blockNumber": "0x17ab219",
      "gasUsed": "0x17eed",
      "effectiveGasPrice": "0x3a7c7d5",
      "from": "0xcad1a7864a108dbff67f4b8af71fab0c7a86d0b6",
      "to": "0xdd9a470dffa0df2ce264ca2ecea265d30ac1008f",
      "contractAddress": null
    },
    {
      "status": "0x1",
      "cumulativeGasUsed": "0x149e2c6",
      "logs": [
        {
          "address": "0x8b4a75290a1c4935ec1dfd990374ac4bd4d33952",
          "topics": [
            "0x5c8df9226b5390a36c31cb0bb75ccd51f1106fc9c93332f6305e2a4a7ae4e771",
            "0x000000000000000000000000dd9a470dffa0df2ce264ca2ecea265d30ac1008f"
          ],
          "data": "0x0000000000000000000000000000000000000000000000000000000000000001",
          "blockHash": "0xebb727d65fb6a61f8d6e749ece37a656ead8be4b073c79ea07a7dfc74479e231",
          "blockNumber": "0x17ab21a",
          "blockTimestamp": "0x69d3349f",
          "transactionHash": "0x06387ad21bd945eb9e6baf464563b3abb33f1edd2d18442f293a0826a9d1386f",
          "transactionIndex": "0x73",
          "logIndex": "0x208",
          "removed": false
        }
      ],
      "logsBloom": "0x00000000000000000000000000000000000000000000000000000000000000000000000000000000000000000000000000000000000000000000000000000000000000000000000000000000000000000000000000000000000400000000000000000000000000000000000000000000000000000000000000000000000000000000000000000000000000000000000000000000000000000000000000000000000000000000000202000000000400000000000000000000000000002400000000000000000000000000000000000040000000000080000000000000000000000000000000000000000000000000000000000000000000000000000000100000",
      "type": "0x2",
      "transactionHash": "0x06387ad21bd945eb9e6baf464563b3abb33f1edd2d18442f293a0826a9d1386f",
      "transactionIndex": "0x73",
      "blockHash": "0xebb727d65fb6a61f8d6e749ece37a656ead8be4b073c79ea07a7dfc74479e231",
      "blockNumber": "0x17ab21a",
      "gasUsed": "0xbb7b",
      "effectiveGasPrice": "0x3d50c35",
      "from": "0xcad1a7864a108dbff67f4b8af71fab0c7a86d0b6",
      "to": "0x8b4a75290a1c4935ec1dfd990374ac4bd4d33952",
      "contractAddress": null
    }
  ],
  "libraries": [],
  "pending": [],
  "returns": {},
  "timestamp": 1775449250431,
  "chain": 1,
  "commit": "daf068a"
}