{
  "transactions": [
    {
      "hash": "0xd16c003538792a7652d0127b562b4176c3ee8064059e6886747fbb4682ab89dd",
      "transactionType": "CALL",
      "contractName": null,
      "contractAddress": "0x7f74388bc970de5e2822036a1ad06fccd156786b",
      "function": "setBatchDonationSize(uint256)",
      "arguments": [
        "0"
      ],
      "transaction": {
        "from": "0xcad1a7864a108dbff67f4b8af71fab0c7a86d0b6",
        "to": "0x7f74388bc970de5e2822036a1ad06fccd156786b",
        "value": "0x0",
        "input": "0xa1d65e390000000000000000000000000000000000000000000000000000000000000000",
        "nonce": "0x253",
        "chainId": "0x1"
      },
      "additionalContracts": [],
      "isFixedGasLimit": false
    }
  ],
  "receipts": [
    {
      "status": "0x1",
      "cumulativeGasUsed": "0x156e5c4",
      "logs": [
        {
          "address": "0x7f74388bc970de5e2822036a1ad06fccd156786b",
          "topics": [
            "0x074731357d33727f4901077a97ee097d688cb98f4e4565c7e39e804dd986ced4"
          ],
          "data": "0x0000000000000000000000000000000000000000000000000000000000000000",
          "blockHash": "0xf22da42d370933a13d4edfb4f04018bf17293778228b72d10598dcba394c82af",
          "blockNumber": "0x1812e60",
          "blockTimestamp": "0x6a214a0b",
          "transactionHash": "0xd16c003538792a7652d0127b562b4176c3ee8064059e6886747fbb4682ab89dd",
          "transactionIndex": "0xbb",
          "logIndex": "0x199",
          "removed": false
        }
      ],
      "logsBloom": "0x00000000000000000000000000000000000000000000000000000000000000000000000000000000000000000000000000000000000000000000000000000000000000000000000000000000000080000000000000000000000000000000000000000000000000000000004000000000000000000000020000000000000000000000000000000000000000000000000000000000000000000000010000000000000000000000000000000000000000000000000000000000000000000000000000000000000000000000000000000000000000000000000000000000000000000000000040000010000000000000000000000000000000000000000000000000",
      "type": "0x2",
      "transactionHash": "0xd16c003538792a7652d0127b562b4176c3ee8064059e6886747fbb4682ab89dd",
      "transactionIndex": "0xbb",
      "blockHash": "0xf22da42d370933a13d4edfb4f04018bf17293778228b72d10598dcba394c82af",
      "blockNumber": "0x1812e60",
      "gasUsed": "0x6285",
      "effectiveGasPrice": "0x2af53fa8",
      "from": "0xcad1a7864a108dbff67f4b8af71fab0c7a86d0b6",
      "to": "0x7f74388bc970de5e2822036a1ad06fccd156786b",
      "contractAddress": null
    }
  ],
  "libraries": [],
  "pending": [],
  "returns": {},
  "timestamp": 1780566542624,
  "chain": 1,
  "commit": "a330664"
}