{
  "transactions": [
    {
      "hash": "0x7f9d7edebdb9442c02ca79803366d0ea87aaa7b0a96714c7a3da242ae1019c31",
      "transactionType": "CALL",
      "contractName": null,
      "contractAddress": "0x610178da211fef7d417bc0e6fed39f05609ad788",
      "function": "mint(address,uint256)",
      "arguments": [
        "0x959922bE3CAee4b8Cd9a407cc3ac1C251C2007B1",
        "500000000000000000000"
      ],
      "transaction": {
        "from": "0xf39fd6e51aad88f6f4ce6ab8827279cfffb92266",
        "to": "0x610178da211fef7d417bc0e6fed39f05609ad788",
        "gas": "0xb6d2",
        "value": "0x0",
        "input": "0x40c10f19000000000000000000000000959922be3caee4b8cd9a407cc3ac1c251c2007b100000000000000000000000000000000000000000000001b1ae4d6e2ef500000",
        "nonce": "0x9f",
        "chainId": "0x7a69"
      },
      "additionalContracts": [],
      "isFixedGasLimit": false
    },
    {
      "hash": "0xf4c2d709873c56111c35221577c50007e94c8598f207f0a0dd3388e6bf29b54d",
      "transactionType": "CALL",
      "contractName": null,
      "contractAddress": "0xe7f1725e7734ce288f8367e1bb143e90bb3f0512",
      "function": "mint(address,uint256)",
      "arguments": [
        "0x68B1D87F95878fE05B998F19b66F4baba5De1aed",
        "500000000"
      ],
      "transaction": {
        "from": "0xf39fd6e51aad88f6f4ce6ab8827279cfffb92266",
        "to": "0xe7f1725e7734ce288f8367e1bb143e90bb3f0512",
        "gas": "0xc16e",
        "value": "0x0",
        "input": "0x40c10f1900000000000000000000000068b1d87f95878fe05b998f19b66f4baba5de1aed000000000000000000000000000000000000000000000000000000001dcd6500",
        "nonce": "0xa0",
        "chainId": "0x7a69"
      },
      "additionalContracts": [],
      "isFixedGasLimit": false
    },
    {
      "hash": "0x44893c5bac2a184b7e31869abb3214abc3e343cbb777ff0a3bd5ee7b61e45901",
      "transactionType": "CALL",
      "contractName": null,
      "contractAddress": "0xb7f8bc63bbcad18155201308c8f3540b07f84f5e",
      "function": "mint(address,uint256)",
      "arguments": [
        "0xf39Fd6e51aad88F6F4ce6aB8827279cffFb92266",
        "800000000000000000000"
      ],
      "transaction": {
        "from": "0xf39fd6e51aad88f6f4ce6ab8827279cfffb92266",
        "to": "0xb7f8bc63bbcad18155201308c8f3540b07f84f5e",
        "gas": "0xb6d2",
        "value": "0x0",
        "input": "0x40c10f19000000000000000000000000f39fd6e51aad88f6f4ce6ab8827279cfffb9226600000000000000000000000000000000000000000000002b5e3af16b18800000",
        "nonce": "0xa1",
        "chainId": "0x7a69"
      },
      "additionalContracts": [],
      "isFixedGasLimit": false
    },
    {
      "hash": "0x0e3e6823ce549c6de791682b0ab6c98ce185c1b8feb94cad2009f6b7798cb379",
      "transactionType": "CALL",
      "contractName": null,
      "contractAddress": "0xb7f8bc63bbcad18155201308c8f3540b07f84f5e",
      "function": "approve(address,uint256)",
      "arguments": [
        "0x95401dc811bb5740090279Ba06cfA8fcF6113778",
        "100000000000000000000"
      ],
      "transaction": {
        "from": "0xf39fd6e51aad88f6f4ce6ab8827279cfffb92266",
        "to": "0xb7f8bc63bbcad18155201308c8f3540b07f84f5e",
        "gas": "0x1067a",
        "value": "0x0",
        "input": "0x095ea7b300000000000000000000000095401dc811bb5740090279ba06cfa8fcf61137780000000000000000000000000000000000000000000000056bc75e2d63100000",
        "nonce": "0xa2",
        "chainId": "0x7a69"
      },
      "additionalContracts": [],
      "isFixedGasLimit": false
    },
    {
      "hash": "0x743dc61b9dd21c92de5c86a2981fca08707a5d75d09fec69bb18336796ff3351",
      "transactionType": "CALL",
      "contractName": null,
      "contractAddress": "0x95401dc811bb5740090279ba06cfa8fcf6113778",
      "function": "mint(uint256,address)",
      "arguments": [
        "1",
        "0xf39Fd6e51aad88F6F4ce6aB8827279cffFb92266"
      ],
      "transaction": {
        "from": "0xf39fd6e51aad88f6f4ce6ab8827279cfffb92266",
        "to": "0x95401dc811bb5740090279ba06cfa8fcf6113778",
        "gas": "0x367a2",
        "value": "0x0",
        "input": "0x94bf804d0000000000000000000000000000000000000000000000000000000000000001000000000000000000000000f39fd6e51aad88f6f4ce6ab8827279cfffb92266",
        "nonce": "0xa3",
        "chainId": "0x7a69"
      },
      "additionalContracts": [],
      "isFixedGasLimit": false
    },
    {
      "hash": "0x9a866498587a107711afb292c97a2d085c64902b21806aaea50c6b0811f75e7b",
      "transactionType": "CALL",
      "contractName": null,
      "contractAddress": "0xe7f1725e7734ce288f8367e1bb143e90bb3f0512",
      "function": "approve(address,uint256)",
      "arguments": [
        "0x322813Fd9A801c5507c9de605d63CEA4f2CE6c44",
        "115792089237316195423570985008687907853269984665640564039457584007913129639935"
      ],
      "transaction": {
        "from": "0xf39fd6e51aad88f6f4ce6ab8827279cfffb92266",
        "to": "0xe7f1725e7734ce288f8367e1bb143e90bb3f0512",
        "gas": "0x10851",
        "value": "0x0",
        "input": "0x095ea7b3000000000000000000000000322813fd9a801c5507c9de605d63cea4f2ce6c44ffffffffffffffffffffffffffffffffffffffffffffffffffffffffffffffff",
        "nonce": "0xa4",
        "chainId": "0x7a69"
      },
      "additionalContracts": [],
      "isFixedGasLimit": false
    },
    {
      "hash": "0x8bd2d504ff3bde2389be662514e1af11588f0d331b1c205339201b093c81d1be",
      "transactionType": "CALL",
      "contractName": null,
      "contractAddress": "0x322813fd9a801c5507c9de605d63cea4f2ce6c44",
      "function": "claim(uint256,uint256,address[])",
      "arguments": [
        "1",
        "0",
        "[]"
      ],
      "transaction": {
        "from": "0xf39fd6e51aad88f6f4ce6ab8827279cfffb92266",
        "to": "0x322813fd9a801c5507c9de605d63cea4f2ce6c44",
        "gas": "0x81f73",
        "value": "0x0",
        "input": "0x0316bd240000000000000000000000000000000000000000000000000000000000000001000000000000000000000000000000000000000000000000000000000000000000000000000000000000000000000000000000000000000000000000000000600000000000000000000000000000000000000000000000000000000000000000",
        "nonce": "0xa5",
        "chainId": "0x7a69"
      },
      "additionalContracts": [],
      "isFixedGasLimit": false
    },
    {
      "hash": "0x4f26012caaf4fe18d56b886332db41b7b179d83ba720b6ca17d073f10fb78787",
      "transactionType": "CALL",
      "contractName": null,
      "contractAddress": "0xb7f8bc63bbcad18155201308c8f3540b07f84f5e",
      "function": "approve(address,uint256)",
      "arguments": [
        "0xDC11f7E700A4c898AE5CAddB1082cFfa76512aDD",
        "448800000000000000000"
      ],
      "transaction": {
        "from": "0xf39fd6e51aad88f6f4ce6ab8827279cfffb92266",
        "to": "0xb7f8bc63bbcad18155201308c8f3540b07f84f5e",
        "gas": "0xf7d3",
        "value": "0x0",
        "input": "0x095ea7b3000000000000000000000000dc11f7e700a4c898ae5caddb1082cffa76512add0000000000000000000000000000000000000000000000185459e627db500000",
        "nonce": "0xa6",
        "chainId": "0x7a69"
      },
      "additionalContracts": [],
      "isFixedGasLimit": false
    },
    {
      "hash": "0x0e41c7ce85020aeed73987a347747f307626361c86eec53aa3890953c2e1bd6f",
      "transactionType": "CALL",
      "contractName": null,
      "contractAddress": "0xdc11f7e700a4c898ae5caddb1082cffa76512add",
      "function": "batchMint(address,address,uint256,uint256,address,uint256)",
      "arguments": [
        "0x95401dc811bb5740090279Ba06cfA8fcF6113778",
        "0xB7f8BC63BbcaD18155201308C8f3540b07f84F5e",
        "1",
        "4",
        "0x2B5AD5c4795c026514f8317c7a215E218DcCD6cF",
        "448800000000000000000"
      ],
      "transaction": {
        "from": "0xf39fd6e51aad88f6f4ce6ab8827279cfffb92266",
        "to": "0xdc11f7e700a4c898ae5caddb1082cffa76512add",
        "gas": "0x7c7fb",
        "value": "0x0",
        "input": "0xf466eb7c00000000000000000000000095401dc811bb5740090279ba06cfa8fcf6113778000000000000000000000000b7f8bc63bbcad18155201308c8f3540b07f84f5e000000000000000000000000000000000000000000000000000000000000000100000000000000000000000000000000000000000000000000000000000000040000000000000000000000002b5ad5c4795c026514f8317c7a215e218dccd6cf0000000000000000000000000000000000000000000000185459e627db500000",
        "nonce": "0xa7",
        "chainId": "0x7a69"
      },
      "additionalContracts": [],
      "isFixedGasLimit": false
    }
  ],
  "receipts": [
    {
      "status": "0x1",
      "cumulativeGasUsed": "0x845d",
      "logs": [
        {
          "address": "0x610178da211fef7d417bc0e6fed39f05609ad788",
          "topics": [
            "0xddf252ad1be2c89b69c2b068fc378daa952ba7f163c4a11628f55a4df523b3ef",
            "0x0000000000000000000000000000000000000000000000000000000000000000",
            "0x000000000000000000000000959922be3caee4b8cd9a407cc3ac1c251c2007b1"
          ],
          "data": "0x00000000000000000000000000000000000000000000001b1ae4d6e2ef500000",
          "blockHash": "0xe1bf9e0c288b2306ff6b8abcd5c4250aa34b8dad304dbcbb7f22499396a1bbec",
          "blockNumber": "0x97",
          "blockTimestamp": "0x69feece6",
          "transactionHash": "0x7f9d7edebdb9442c02ca79803366d0ea87aaa7b0a96714c7a3da242ae1019c31",
          "transactionIndex": "0x0",
          "logIndex": "0x0",
          "removed": false
        }
      ],
      "logsBloom": "0x00000000000000000000000000000000000000000000000000000000000000000000000000000400000000000000000000000000000000000000000000000004000000000000000000000008000000000000000000000000000000020000000000000000020000000000000000000800000000000000000040000010000000000000000000000000000000000000000000000800000000000000000000000000000000000000000000000000000000000000000000000000000000000000000000000002000000000000000000000000000000000200000000000000000020000000000000000000000000000000000000000000000000000000000000000000",
      "type": "0x2",
      "transactionHash": "0x7f9d7edebdb9442c02ca79803366d0ea87aaa7b0a96714c7a3da242ae1019c31",
      "transactionIndex": "0x0",
      "blockHash": "0xe1bf9e0c288b2306ff6b8abcd5c4250aa34b8dad304dbcbb7f22499396a1bbec",
      "blockNumber": "0x97",
      "gasUsed": "0x845d",
      "effectiveGasPrice": "0x9",
      "blobGasPrice": "0x1",
      "from": "0xf39fd6e51aad88f6f4ce6ab8827279cfffb92266",
      "to": "0x610178da211fef7d417bc0e6fed39f05609ad788",
      "contractAddress": null
    },
    {
      "status": "0x1",
      "cumulativeGasUsed": "0x8443",
      "logs": [
        {
          "address": "0xe7f1725e7734ce288f8367e1bb143e90bb3f0512",
          "topics": [
            "0xddf252ad1be2c89b69c2b068fc378daa952ba7f163c4a11628f55a4df523b3ef",
            "0x0000000000000000000000000000000000000000000000000000000000000000",
            "0x00000000000000000000000068b1d87f95878fe05b998f19b66f4baba5de1aed"
          ],
          "data": "0x000000000000000000000000000000000000000000000000000000001dcd6500",
          "blockHash": "0xf5b4dc1c571486ddbc1f239447fbd749144e672601cc8107a1bdec1cf079c329",
          "blockNumber": "0x98",
          "blockTimestamp": "0x69feece6",
          "transactionHash": "0xf4c2d709873c56111c35221577c50007e94c8598f207f0a0dd3388e6bf29b54d",
          "transactionIndex": "0x0",
          "logIndex": "0x0",
          "removed": false
        }
      ],
      "logsBloom": "0x00000000000000000000000000000000000000000000000000000000000000000000000000000000000000000000000010000010000000000000000000000000000000000000000000000008000000000000000000000000000000000000000000000000020000000000000000000800000000000000000000000010000000000000000000000000000000000000000000000000000000000000000000000000000000000000000000000000000000000000000000000000000000000000000000000002000000000000000000001000000000000000000000000000000020000000000000000001000000000000000000000000000000820000000000000000",
      "type": "0x2",
      "transactionHash": "0xf4c2d709873c56111c35221577c50007e94c8598f207f0a0dd3388e6bf29b54d",
      "transactionIndex": "0x0",
      "blockHash": "0xf5b4dc1c571486ddbc1f239447fbd749144e672601cc8107a1bdec1cf079c329",
      "blockNumber": "0x98",
      "gasUsed": "0x8443",
      "effectiveGasPrice": "0x9",
      "blobGasPrice": "0x1",
      "from": "0xf39fd6e51aad88f6f4ce6ab8827279cfffb92266",
      "to": "0xe7f1725e7734ce288f8367e1bb143e90bb3f0512",
      "contractAddress": null
    },
    {
      "status": "0x1",
      "cumulativeGasUsed": "0x845d",
      "logs": [
        {
          "address": "0xb7f8bc63bbcad18155201308c8f3540b07f84f5e",
          "topics": [
            "0xddf252ad1be2c89b69c2b068fc378daa952ba7f163c4a11628f55a4df523b3ef",
            "0x0000000000000000000000000000000000000000000000000000000000000000",
            "0x000000000000000000000000f39fd6e51aad88f6f4ce6ab8827279cfffb92266"
          ],
          "data": "0x00000000000000000000000000000000000000000000002b5e3af16b18800000",
          "blockHash": "0x3a3da54d7492668b84bb3af916bc604fa02da116372a19907d1f643a3d397f05",
          "blockNumber": "0x99",
          "blockTimestamp": "0x69feece6",
          "transactionHash": "0x0e41c7ce85020aeed73987a347747f307626361c86eec53aa3890953c2e1bd6f",
          "transactionIndex": "0x0",
          "logIndex": "0x0",
          "removed": false
        }
      ],
      "logsBloom": "0x00000000100000000000000000000000000000000040000000000000000000000000000000000000000000000000000000000000000000000000000000000000000000000000000000000008000000000000800000000000000000000000000000000000020000000000000100000800000000000000000000000010000000000000000000000000000000000000000000000000000000000000000000000000000000000000000000000000000000000000000000000000000000000000000000000002000000200000000000000000000000002000000000000000000020000000000000000000000000000000000000000000000000000000000000000000",
      "type": "0x2",
      "transactionHash": "0x0e41c7ce85020aeed73987a347747f307626361c86eec53aa3890953c2e1bd6f",
      "transactionIndex": "0x0",
      "blockHash": "0x3a3da54d7492668b84bb3af916bc604fa02da116372a19907d1f643a3d397f05",
      "blockNumber": "0x99",
      "gasUsed": "0x845d",
      "effectiveGasPrice": "0x9",
      "blobGasPrice": "0x1",
      "from": "0xf39fd6e51aad88f6f4ce6ab8827279cfffb92266",
      "to": "0xb7f8bc63bbcad18155201308c8f3540b07f84f5e",
      "contractAddress": null
    },
    {
      "status": "0x1",
      "cumulativeGasUsed": "0x137d6",
      "logs": [
        {
          "address": "0xb7f8bc63bbcad18155201308c8f3540b07f84f5e",
          "topics": [
            "0x8c5be1e5ebec7d5bd14f71427d1e84f3dd0314c0f7b2291e5b200ac8c7c3b925",
            "0x000000000000000000000000f39fd6e51aad88f6f4ce6ab8827279cfffb92266",
            "0x00000000000000000000000095401dc811bb5740090279ba06cfa8fcf6113778"
          ],
          "data": "0x0000000000000000000000000000000000000000000000056bc75e2d63100000",
          "blockHash": "0x3a3da54d7492668b84bb3af916bc604fa02da116372a19907d1f643a3d397f05",
          "blockNumber": "0x99",
          "blockTimestamp": "0x69feece6",
          "transactionHash": "0x8bd2d504ff3bde2389be662514e1af11588f0d331b1c205339201b093c81d1be",
          "transactionIndex": "0x1",
          "logIndex": "0x1",
          "removed": false
        }
      ],
      "logsBloom": "0x00000000100000000000000000000000000000000040000000000000000000000000000000000000000000000080000000000000000000000000000000200000000000000000000000000000000000000000800000000000000000000000000000000000000000000000000100000000000000000000000000000000000000000000000000000000000000000000000000000000000000000000000000000000020000000000000000000000000000000000000000000000000000000000000000000001000000200000000040000000000000002000000000000000000000000010000000000000000000000000000000000000000000000000000000000000",
      "type": "0x2",
      "transactionHash": "0x8bd2d504ff3bde2389be662514e1af11588f0d331b1c205339201b093c81d1be",
      "transactionIndex": "0x1",
      "blockHash": "0x3a3da54d7492668b84bb3af916bc604fa02da116372a19907d1f643a3d397f05",
      "blockNumber": "0x99",
      "gasUsed": "0xb379",
      "effectiveGasPrice": "0x9",
      "blobGasPrice": "0x1",
      "from": "0xf39fd6e51aad88f6f4ce6ab8827279cfffb92266",
      "to": "0xb7f8bc63bbcad18155201308c8f3540b07f84f5e",
      "contractAddress": null
    },
    {
      "status": "0x1",
      "cumulativeGasUsed": "0x3aee3",
      "logs": [
        {
          "address": "0xb7f8bc63bbcad18155201308c8f3540b07f84f5e",
          "topics": [
            "0xddf252ad1be2c89b69c2b068fc378daa952ba7f163c4a11628f55a4df523b3ef",
            "0x000000000000000000000000f39fd6e51aad88f6f4ce6ab8827279cfffb92266",
            "0x000000000000000000000000998abeb3e57409262ae5b751f60747921b33613e"
          ],
          "data": "0x0000000000000000000000000000000000000000000000056bc75e2d63100000",
          "blockHash": "0x3a3da54d7492668b84bb3af916bc604fa02da116372a19907d1f643a3d397f05",
          "blockNumber": "0x99",
          "blockTimestamp": "0x69feece6",
          "transactionHash": "0x0e3e6823ce549c6de791682b0ab6c98ce185c1b8feb94cad2009f6b7798cb379",
          "transactionIndex": "0x2",
          "logIndex": "0x2",
          "removed": false
        },
        {
          "address": "0xb7f8bc63bbcad18155201308c8f3540b07f84f5e",
          "topics": [
            "0xddf252ad1be2c89b69c2b068fc378daa952ba7f163c4a11628f55a4df523b3ef",
            "0x000000000000000000000000998abeb3e57409262ae5b751f60747921b33613e",
            "0x0000000000000000000000000000000000000000000000000000000000000000"
          ],
          "data": "0x0000000000000000000000000000000000000000000000056bc75e2d63100000",
          "blockHash": "0x3a3da54d7492668b84bb3af916bc604fa02da116372a19907d1f643a3d397f05",
          "blockNumber": "0x99",
          "blockTimestamp": "0x69feece6",
          "transactionHash": "0x0e3e6823ce549c6de791682b0ab6c98ce185c1b8feb94cad2009f6b7798cb379",
          "transactionIndex": "0x2",
          "logIndex": "0x3",
          "removed": false
        },
        {
          "address": "0xc5a5c42992decbae36851359345fe25997f5c42d",
          "topics": [
            "0x281a9d860209dbda5c88b0017ab938296b57a3c62c20c06518c13ed8c59e71db",
            "0x000000000000000000000000b7f8bc63bbcad18155201308c8f3540b07f84f5e"
          ],
          "data": "0x0000000000000000000000000000000000000000000000056bc75e2d631000000000000000000000000000000000000000000000000000000000000069feece6",
          "blockHash": "0x3a3da54d7492668b84bb3af916bc604fa02da116372a19907d1f643a3d397f05",
          "blockNumber": "0x99",
          "blockTimestamp": "0x69feece6",
          "transactionHash": "0x0e3e6823ce549c6de791682b0ab6c98ce185c1b8feb94cad2009f6b7798cb379",
          "transactionIndex": "0x2",
          "logIndex": "0x4",
          "removed": false
        },
        {
          "address": "0x95401dc811bb5740090279ba06cfa8fcf6113778",
          "topics": [
            "0xc3d58168c5ae7397731d063d5bbf3d657854427343f4c083240f7aacaa2d0f62",
            "0x000000000000000000000000f39fd6e51aad88f6f4ce6ab8827279cfffb92266",
            "0x0000000000000000000000000000000000000000000000000000000000000000",
            "0x000000000000000000000000f39fd6e51aad88f6f4ce6ab8827279cfffb92266"
          ],
          "data": "0x00000000000000000000000000000000000000000000000000000000000000010000000000000000000000000000000000000000000000000000000000000001",
          "blockHash": "0x3a3da54d7492668b84bb3af916bc604fa02da116372a19907d1f643a3d397f05",
          "blockNumber": "0x99",
          "blockTimestamp": "0x69feece6",
          "transactionHash": "0x0e3e6823ce549c6de791682b0ab6c98ce185c1b8feb94cad2009f6b7798cb379",
          "transactionIndex": "0x2",
          "logIndex": "0x5",
          "removed": false
        },
        {
          "address": "0x95401dc811bb5740090279ba06cfa8fcf6113778",
          "topics": [
            "0x7d51bc1b9646762d321a691e30425cc6411e9042edc2b48b77ce5934e205922d",
            "0x000000000000000000000000f39fd6e51aad88f6f4ce6ab8827279cfffb92266",
            "0x0000000000000000000000000000000000000000000000000000000000000001",
            "0x000000000000000000000000b7f8bc63bbcad18155201308c8f3540b07f84f5e"
          ],
          "data": "0x0000000000000000000000000000000000000000000000056bc75e2d63100000",
          "blockHash": "0x3a3da54d7492668b84bb3af916bc604fa02da116372a19907d1f643a3d397f05",
          "blockNumber": "0x99",
          "blockTimestamp": "0x69feece6",
          "transactionHash": "0x0e3e6823ce549c6de791682b0ab6c98ce185c1b8feb94cad2009f6b7798cb379",
          "transactionIndex": "0x2",
          "logIndex": "0x6",
          "removed": false
        }
      ],
      "logsBloom": "0x0000000010000000000000000000000000000400004000000001000002000000000000000200000000000000000000000000000000000000000400000004200000000000000000000000000a000000000000800000040000000000000000000000000000020000000000000100000800000000000000000000000410000000000100010000040000020100000000000000000000000000000000000040000000000000000000000000000000000000000000000000000000000000000000000000000002080000200000000000000000000002002008000000200000000060000000000000000000080000000000000000000000000000000000080000000000",
      "type": "0x2",
      "transactionHash": "0x0e3e6823ce549c6de791682b0ab6c98ce185c1b8feb94cad2009f6b7798cb379",
      "transactionIndex": "0x2",
      "blockHash": "0x3a3da54d7492668b84bb3af916bc604fa02da116372a19907d1f643a3d397f05",
      "blockNumber": "0x99",
      "gasUsed": "0x2770d",
      "effectiveGasPrice": "0x9",
      "blobGasPrice": "0x1",
      "from": "0xf39fd6e51aad88f6f4ce6ab8827279cfffb92266",
      "to": "0x95401dc811bb5740090279ba06cfa8fcf6113778",
      "contractAddress": null
    },
    {
      "status": "0x1",
      "cumulativeGasUsed": "0x4639e",
      "logs": [
        {
          "address": "0xe7f1725e7734ce288f8367e1bb143e90bb3f0512",
          "topics": [
            "0x8c5be1e5ebec7d5bd14f71427d1e84f3dd0314c0f7b2291e5b200ac8c7c3b925",
            "0x000000000000000000000000f39fd6e51aad88f6f4ce6ab8827279cfffb92266",
            "0x000000000000000000000000322813fd9a801c5507c9de605d63cea4f2ce6c44"
          ],
          "data": "0xffffffffffffffffffffffffffffffffffffffffffffffffffffffffffffffff",
          "blockHash": "0x3a3da54d7492668b84bb3af916bc604fa02da116372a19907d1f643a3d397f05",
          "blockNumber": "0x99",
          "blockTimestamp": "0x69feece6",
          "transactionHash": "0x9a866498587a107711afb292c97a2d085c64902b21806aaea50c6b0811f75e7b",
          "transactionIndex": "0x3",
          "logIndex": "0x7",
          "removed": false
        }
      ],
      "logsBloom": "0x00000000000000000000000000000000000000000000000000000000000000000000000000000000000000000000000010000000000000000000000000200000000000000000000000000000000000000000000000000000000000000000000000000000000000000000000100000000000000000000000000000000000000000000000000000000000000000000000000000000000000000000000000000000020000000000000000000800000000000000000000000008000000000000000000000000000000200000000000001000000000002000000000000000000000000010000000000000001000000000000000000000000000800000000000000000",
      "type": "0x2",
      "transactionHash": "0x9a866498587a107711afb292c97a2d085c64902b21806aaea50c6b0811f75e7b",
      "transactionIndex": "0x3",
      "blockHash": "0x3a3da54d7492668b84bb3af916bc604fa02da116372a19907d1f643a3d397f05",
      "blockNumber": "0x99",
      "gasUsed": "0xb4bb",
      "effectiveGasPrice": "0x9",
      "blobGasPrice": "0x1",
      "from": "0xf39fd6e51aad88f6f4ce6ab8827279cfffb92266",
      "to": "0xe7f1725e7734ce288f8367e1bb143e90bb3f0512",
      "contractAddress": null
    },
    {
      "status": "0x1",
      "cumulativeGasUsed": "0x9f177",
      "logs": [
        {
          "address": "0x95401dc811bb5740090279ba06cfa8fcf6113778",
          "topics": [
            "0xc3d58168c5ae7397731d063d5bbf3d657854427343f4c083240f7aacaa2d0f62",
            "0x000000000000000000000000322813fd9a801c5507c9de605d63cea4f2ce6c44",
            "0x000000000000000000000000f39fd6e51aad88f6f4ce6ab8827279cfffb92266",
            "0x0000000000000000000000000000000000000000000000000000000000000000"
          ],
          "data": "0x00000000000000000000000000000000000000000000000000000000000000010000000000000000000000000000000000000000000000000000000000000001",
          "blockHash": "0x3a3da54d7492668b84bb3af916bc604fa02da116372a19907d1f643a3d397f05",
          "blockNumber": "0x99",
          "blockTimestamp": "0x69feece6",
          "transactionHash": "0x743dc61b9dd21c92de5c86a2981fca08707a5d75d09fec69bb18336796ff3351",
          "transactionIndex": "0x4",
          "logIndex": "0x8",
          "removed": false
        },
        {
          "address": "0x95401dc811bb5740090279ba06cfa8fcf6113778",
          "topics": [
            "0x4017c8aa5b02846402e81d1adeeb326e07e81c505b2e3281efc119ef130a9d35",
            "0x000000000000000000000000f39fd6e51aad88f6f4ce6ab8827279cfffb92266",
            "0x0000000000000000000000000000000000000000000000000000000000000001"
          ],
          "data": "0x0000000000000000000000000000000000000000000000000000000000000001",
          "blockHash": "0x3a3da54d7492668b84bb3af916bc604fa02da116372a19907d1f643a3d397f05",
          "blockNumber": "0x99",
          "blockTimestamp": "0x69feece6",
          "transactionHash": "0x743dc61b9dd21c92de5c86a2981fca08707a5d75d09fec69bb18336796ff3351",
          "transactionIndex": "0x4",
          "logIndex": "0x9",
          "removed": false
        },
        {
          "address": "0x610178da211fef7d417bc0e6fed39f05609ad788",
          "topics": [
            "0xddf252ad1be2c89b69c2b068fc378daa952ba7f163c4a11628f55a4df523b3ef",
            "0x0000000000000000000000000000000000000000000000000000000000000000",
            "0x000000000000000000000000959922be3caee4b8cd9a407cc3ac1c251c2007b1"
          ],
          "data": "0x0000000000000000000000000000000000000000000000000905438e60010000",
          "blockHash": "0x3a3da54d7492668b84bb3af916bc604fa02da116372a19907d1f643a3d397f05",
          "blockNumber": "0x99",
          "blockTimestamp": "0x69feece6",
          "transactionHash": "0x743dc61b9dd21c92de5c86a2981fca08707a5d75d09fec69bb18336796ff3351",
          "transactionIndex": "0x4",
          "logIndex": "0xa",
          "removed": false
        },
        {
          "address": "0x959922be3caee4b8cd9a407cc3ac1c251c2007b1",
          "topics": [
            "0xddf252ad1be2c89b69c2b068fc378daa952ba7f163c4a11628f55a4df523b3ef",
            "0x0000000000000000000000009a9f2ccfde556a7e9ff0848998aa4a0cfd8863ae",
            "0x0000000000000000000000000000000000000000000000000000000000000000"
          ],
          "data": "0x00000000000000000000000000000000000000000000003e8cd503958ab89d89",
          "blockHash": "0x3a3da54d7492668b84bb3af916bc604fa02da116372a19907d1f643a3d397f05",
          "blockNumber": "0x99",
          "blockTimestamp": "0x69feece6",
          "transactionHash": "0x743dc61b9dd21c92de5c86a2981fca08707a5d75d09fec69bb18336796ff3351",
          "transactionIndex": "0x4",
          "logIndex": "0xb",
          "removed": false
        },
        {
          "address": "0x610178da211fef7d417bc0e6fed39f05609ad788",
          "topics": [
            "0xddf252ad1be2c89b69c2b068fc378daa952ba7f163c4a11628f55a4df523b3ef",
            "0x000000000000000000000000959922be3caee4b8cd9a407cc3ac1c251c2007b1",
            "0x000000000000000000000000f39fd6e51aad88f6f4ce6ab8827279cfffb92266"
          ],
          "data": "0x00000000000000000000000000000000000000000000005150ae84a8cdeffffe",
          "blockHash": "0x3a3da54d7492668b84bb3af916bc604fa02da116372a19907d1f643a3d397f05",
          "blockNumber": "0x99",
          "blockTimestamp": "0x69feece6",
          "transactionHash": "0x743dc61b9dd21c92de5c86a2981fca08707a5d75d09fec69bb18336796ff3351",
          "transactionIndex": "0x4",
          "logIndex": "0xc",
          "removed": false
        },
        {
          "address": "0x959922be3caee4b8cd9a407cc3ac1c251c2007b1",
          "topics": [
            "0xfbde797d201c681b91056529119e0b02407c7bb96a4a2c75c01fc9667232c8db",
            "0x0000000000000000000000009a9f2ccfde556a7e9ff0848998aa4a0cfd8863ae",
            "0x000000000000000000000000f39fd6e51aad88f6f4ce6ab8827279cfffb92266",
            "0x0000000000000000000000009a9f2ccfde556a7e9ff0848998aa4a0cfd8863ae"
          ],
          "data": "0x00000000000000000000000000000000000000000000005150ae84a8cdeffffe00000000000000000000000000000000000000000000003e8cd503958ab89d89",
          "blockHash": "0x3a3da54d7492668b84bb3af916bc604fa02da116372a19907d1f643a3d397f05",
          "blockNumber": "0x99",
          "blockTimestamp": "0x69feece6",
          "transactionHash": "0x743dc61b9dd21c92de5c86a2981fca08707a5d75d09fec69bb18336796ff3351",
          "transactionIndex": "0x4",
          "logIndex": "0xd",
          "removed": false
        },
        {
          "address": "0x9a9f2ccfde556a7e9ff0848998aa4a0cfd8863ae",
          "topics": [
            "0xe477d5c3275bb904b2e1db39d16a69b38b163bed956dd35d7da3d5285a210f5f",
            "0x000000000000000000000000610178da211fef7d417bc0e6fed39f05609ad788",
            "0x00000000000000000000000059b670e9fa9d0a427751af201d676719a970857b",
            "0x000000000000000000000000322813fd9a801c5507c9de605d63cea4f2ce6c44"
          ],
          "data": "0x00000000000000000000000000000000000000000000005150ae84a8cdefffff000000000000000000000000f39fd6e51aad88f6f4ce6ab8827279cfffb92266",
          "blockHash": "0x3a3da54d7492668b84bb3af916bc604fa02da116372a19907d1f643a3d397f05",
          "blockNumber": "0x99",
          "blockTimestamp": "0x69feece6",
          "transactionHash": "0x743dc61b9dd21c92de5c86a2981fca08707a5d75d09fec69bb18336796ff3351",
          "transactionIndex": "0x4",
          "logIndex": "0xe",
          "removed": false
        },
        {
          "address": "0x322813fd9a801c5507c9de605d63cea4f2ce6c44",
          "topics": [
            "0xf404cd4814ff561c9e00078e4984b7c5580a7d479c47554807962de186f34e9a",
            "0x0000000000000000000000009a9f2ccfde556a7e9ff0848998aa4a0cfd8863ae"
          ],
          "data": "0x00000000000000000000000000000000000000000000005150ae84a8cdefffff",
          "blockHash": "0x3a3da54d7492668b84bb3af916bc604fa02da116372a19907d1f643a3d397f05",
          "blockNumber": "0x99",
          "blockTimestamp": "0x69feece6",
          "transactionHash": "0x743dc61b9dd21c92de5c86a2981fca08707a5d75d09fec69bb18336796ff3351",
          "transactionIndex": "0x4",
          "logIndex": "0xf",
          "removed": false
        },
        {
          "address": "0xe7f1725e7734ce288f8367e1bb143e90bb3f0512",
          "topics": [
            "0xddf252ad1be2c89b69c2b068fc378daa952ba7f163c4a11628f55a4df523b3ef",
            "0x0000000000000000000000000000000000000000000000000000000000000000",
            "0x00000000000000000000000068b1d87f95878fe05b998f19b66f4baba5de1aed"
          ],
          "data": "0x000000000000000000000000000000000000000000000000000000000009eb10",
          "blockHash": "0x3a3da54d7492668b84bb3af916bc604fa02da116372a19907d1f643a3d397f05",
          "blockNumber": "0x99",
          "blockTimestamp": "0x69feece6",
          "transactionHash": "0x743dc61b9dd21c92de5c86a2981fca08707a5d75d09fec69bb18336796ff3351",
          "transactionIndex": "0x4",
          "logIndex": "0x10",
          "removed": false
        },
        {
          "address": "0x68b1d87f95878fe05b998f19b66f4baba5de1aed",
          "topics": [
            "0xddf252ad1be2c89b69c2b068fc378daa952ba7f163c4a11628f55a4df523b3ef",
            "0x0000000000000000000000003aa5ebb10dc797cac828524e59a333d0a371443c",
            "0x0000000000000000000000000000000000000000000000000000000000000000"
          ],
          "data": "0x0000000000000000000000000000000000000000000000000000000044c64b89",
          "blockHash": "0x3a3da54d7492668b84bb3af916bc604fa02da116372a19907d1f643a3d397f05",
          "blockNumber": "0x99",
          "blockTimestamp": "0x69feece6",
          "transactionHash": "0x743dc61b9dd21c92de5c86a2981fca08707a5d75d09fec69bb18336796ff3351",
          "transactionIndex": "0x4",
          "logIndex": "0x11",
          "removed": false
        },
        {
          "address": "0xe7f1725e7734ce288f8367e1bb143e90bb3f0512",
          "topics": [
            "0xddf252ad1be2c89b69c2b068fc378daa952ba7f163c4a11628f55a4df523b3ef",
            "0x00000000000000000000000068b1d87f95878fe05b998f19b66f4baba5de1aed",
            "0x000000000000000000000000f39fd6e51aad88f6f4ce6ab8827279cfffb92266"
          ],
          "data": "0x0000000000000000000000000000000000000000000000000000000059682efe",
          "blockHash": "0x3a3da54d7492668b84bb3af916bc604fa02da116372a19907d1f643a3d397f05",
          "blockNumber": "0x99",
          "blockTimestamp": "0x69feece6",
          "transactionHash": "0x743dc61b9dd21c92de5c86a2981fca08707a5d75d09fec69bb18336796ff3351",
          "transactionIndex": "0x4",
          "logIndex": "0x12",
          "removed": false
        },
        {
          "address": "0x68b1d87f95878fe05b998f19b66f4baba5de1aed",
          "topics": [
            "0xfbde797d201c681b91056529119e0b02407c7bb96a4a2c75c01fc9667232c8db",
            "0x0000000000000000000000003aa5ebb10dc797cac828524e59a333d0a371443c",
            "0x000000000000000000000000f39fd6e51aad88f6f4ce6ab8827279cfffb92266",
            "0x0000000000000000000000003aa5ebb10dc797cac828524e59a333d0a371443c"
          ],
          "data": "0x0000000000000000000000000000000000000000000000000000000059682efe0000000000000000000000000000000000000000000000000000000044c64b89",
          "blockHash": "0x3a3da54d7492668b84bb3af916bc604fa02da116372a19907d1f643a3d397f05",
          "blockNumber": "0x99",
          "blockTimestamp": "0x69feece6",
          "transactionHash": "0x743dc61b9dd21c92de5c86a2981fca08707a5d75d09fec69bb18336796ff3351",
          "transactionIndex": "0x4",
          "logIndex": "0x13",
          "removed": false
        },
        {
          "address": "0x3aa5ebb10dc797cac828524e59a333d0a371443c",
          "topics": [
            "0xe477d5c3275bb904b2e1db39d16a69b38b163bed956dd35d7da3d5285a210f5f",
            "0x000000000000000000000000e7f1725e7734ce288f8367e1bb143e90bb3f0512",
            "0x00000000000000000000000059b670e9fa9d0a427751af201d676719a970857b",
            "0x000000000000000000000000322813fd9a801c5507c9de605d63cea4f2ce6c44"
          ],
          "data": "0x0000000000000000000000000000000000000000000000000000000059682eff000000000000000000000000f39fd6e51aad88f6f4ce6ab8827279cfffb92266",
          "blockHash": "0x3a3da54d7492668b84bb3af916bc604fa02da116372a19907d1f643a3d397f05",
          "blockNumber": "0x99",
          "blockTimestamp": "0x69feece6",
          "transactionHash": "0x743dc61b9dd21c92de5c86a2981fca08707a5d75d09fec69bb18336796ff3351",
          "transactionIndex": "0x4",
          "logIndex": "0x14",
          "removed": false
        },
        {
          "address": "0x322813fd9a801c5507c9de605d63cea4f2ce6c44",
          "topics": [
            "0xf404cd4814ff561c9e00078e4984b7c5580a7d479c47554807962de186f34e9a",
            "0x0000000000000000000000003aa5ebb10dc797cac828524e59a333d0a371443c"
          ],
          "data": "0x0000000000000000000000000000000000000000000000000000000059682eff",
          "blockHash": "0x3a3da54d7492668b84bb3af916bc604fa02da116372a19907d1f643a3d397f05",
          "blockNumber": "0x99",
          "blockTimestamp": "0x69feece6",
          "transactionHash": "0x743dc61b9dd21c92de5c86a2981fca08707a5d75d09fec69bb18336796ff3351",
          "transactionIndex": "0x4",
          "logIndex": "0x15",
          "removed": false
        },
        {
          "address": "0xe7f1725e7734ce288f8367e1bb143e90bb3f0512",
          "topics": [
            "0xddf252ad1be2c89b69c2b068fc378daa952ba7f163c4a11628f55a4df523b3ef",
            "0x000000000000000000000000f39fd6e51aad88f6f4ce6ab8827279cfffb92266",
            "0x000000000000000000000000322813fd9a801c5507c9de605d63cea4f2ce6c44"
          ],
          "data": "0x000000000000000000000000000000000000000000000000000000008f0d17ff",
          "blockHash": "0x3a3da54d7492668b84bb3af916bc604fa02da116372a19907d1f643a3d397f05",
          "blockNumber": "0x99",
          "blockTimestamp": "0x69feece6",
          "transactionHash": "0x743dc61b9dd21c92de5c86a2981fca08707a5d75d09fec69bb18336796ff3351",
          "transactionIndex": "0x4",
          "logIndex": "0x16",
          "removed": false
        },
        {
          "address": "0xe7f1725e7734ce288f8367e1bb143e90bb3f0512",
          "topics": [
            "0xddf252ad1be2c89b69c2b068fc378daa952ba7f163c4a11628f55a4df523b3ef",
            "0x000000000000000000000000322813fd9a801c5507c9de605d63cea4f2ce6c44",
            "0x000000000000000000000000dc11f7e700a4c898ae5caddb1082cffa76512add"
          ],
          "data": "0x000000000000000000000000000000000000000000000000000000002aea53ff",
          "blockHash": "0x3a3da54d7492668b84bb3af916bc604fa02da116372a19907d1f643a3d397f05",
          "blockNumber": "0x99",
          "blockTimestamp": "0x69feece6",
          "transactionHash": "0x743dc61b9dd21c92de5c86a2981fca08707a5d75d09fec69bb18336796ff3351",
          "transactionIndex": "0x4",
          "logIndex": "0x17",
          "removed": false
        },
        {
          "address": "0xe7f1725e7734ce288f8367e1bb143e90bb3f0512",
          "topics": [
            "0xddf252ad1be2c89b69c2b068fc378daa952ba7f163c4a11628f55a4df523b3ef",
            "0x000000000000000000000000322813fd9a801c5507c9de605d63cea4f2ce6c44",
            "0x0000000000000000000000004ed7c70f96b99c776995fb64377f0d4ab3b0e1c1"
          ],
          "data": "0x000000000000000000000000000000000000000000000000000000006422c400",
          "blockHash": "0x3a3da54d7492668b84bb3af916bc604fa02da116372a19907d1f643a3d397f05",
          "blockNumber": "0x99",
          "blockTimestamp": "0x69feece6",
          "transactionHash": "0x743dc61b9dd21c92de5c86a2981fca08707a5d75d09fec69bb18336796ff3351",
          "transactionIndex": "0x4",
          "logIndex": "0x18",
          "removed": false
        },
        {
          "address": "0x4ed7c70f96b99c776995fb64377f0d4ab3b0e1c1",
          "topics": [
            "0xa9ba87905525541e4348d30950feb0e0ac84fc2632206644e892923e32da79c0"
          ],
          "data": "0x000000000000000000000000000000000000000000000000000000006422c400000000000000000000000000000000000000000000000000000000006422c40000000000000000000000000000000000000000000000009695691b976a671c71",
          "blockHash": "0x3a3da54d7492668b84bb3af916bc604fa02da116372a19907d1f643a3d397f05",
          "blockNumber": "0x99",
          "blockTimestamp": "0x69feece6",
          "transactionHash": "0x743dc61b9dd21c92de5c86a2981fca08707a5d75d09fec69bb18336796ff3351",
          "transactionIndex": "0x4",
          "logIndex": "0x19",
          "removed": false
        },
        {
          "address": "0x322813fd9a801c5507c9de605d63cea4f2ce6c44",
          "topics": [
            "0xdacbdde355ba930696a362ea6738feb9f8bd52dfb3d81947558fd3217e23e325",
            "0x000000000000000000000000f39fd6e51aad88f6f4ce6ab8827279cfffb92266"
          ],
          "data": "0x000000000000000000000000000000000000000000000000000000008f0d17ff0000000000000000000000000000000000000000000000000000000000000002",
          "blockHash": "0x3a3da54d7492668b84bb3af916bc604fa02da116372a19907d1f643a3d397f05",
          "blockNumber": "0x99",
          "blockTimestamp": "0x69feece6",
          "transactionHash": "0x743dc61b9dd21c92de5c86a2981fca08707a5d75d09fec69bb18336796ff3351",
          "transactionIndex": "0x4",
          "logIndex": "0x1a",
          "removed": false
        }
      ],
      "logsBloom": "0x00040000040001400400000000000000000000000000000000000020020000200000000020000c00000800020210000010000010008000000000000000042004000000012000800108000018000000000000000000040000001201024008000800000040020000040020000140000800000000000000000040000014002000020100000000000000000000000000000000000800480000000080000000000000000000801000000008220802000000020000000200000008010000001000000000000002000000200000000000001000000000002208000000000000400060000000000010000001091000004000000000000000002000820180080000010000",
      "type": "0x2",
      "transactionHash": "0x743dc61b9dd21c92de5c86a2981fca08707a5d75d09fec69bb18336796ff3351",
      "transactionIndex": "0x4",
      "blockHash": "0x3a3da54d7492668b84bb3af916bc604fa02da116372a19907d1f643a3d397f05",
      "blockNumber": "0x99",
      "gasUsed": "0x58dd9",
      "effectiveGasPrice": "0x9",
      "blobGasPrice": "0x1",
      "from": "0xf39fd6e51aad88f6f4ce6ab8827279cfffb92266",
      "to": "0x322813fd9a801c5507c9de605d63cea4f2ce6c44",
      "contractAddress": null
    },
    {
      "status": "0x1",
      "cumulativeGasUsed": "0xaa4e4",
      "logs": [
        {
          "address": "0xb7f8bc63bbcad18155201308c8f3540b07f84f5e",
          "topics": [
            "0x8c5be1e5ebec7d5bd14f71427d1e84f3dd0314c0f7b2291e5b200ac8c7c3b925",
            "0x000000000000000000000000f39fd6e51aad88f6f4ce6ab8827279cfffb92266",
            "0x000000000000000000000000dc11f7e700a4c898ae5caddb1082cffa76512add"
          ],
          "data": "0x0000000000000000000000000000000000000000000000185459e627db500000",
          "blockHash": "0x3a3da54d7492668b84bb3af916bc604fa02da116372a19907d1f643a3d397f05",
          "blockNumber": "0x99",
          "blockTimestamp": "0x69feece6",
          "transactionHash": "0x4f26012caaf4fe18d56b886332db41b7b179d83ba720b6ca17d073f10fb78787",
          "transactionIndex": "0x5",
          "logIndex": "0x1b",
          "removed": false
        }
      ],
      "logsBloom": "0x00000000100000000000000000000000000000000040000000000000000000000000000000000000000000000000000000000000000000000000000000200000000000000000000000000000000000000000800000000000000000000000000000000040000000000000000100000000000000000000000000000000000000000000000000000000000000000000000000000000400000000080000000000000020000000000000000000000000000000000000000000000000000000000000000000000000000200000000000000000000000002000000000000000000000000010000000000000000000000000000000000000000000000000000000000000",
      "type": "0x2",
      "transactionHash": "0x4f26012caaf4fe18d56b886332db41b7b179d83ba720b6ca17d073f10fb78787",
      "transactionIndex": "0x5",
      "blockHash": "0x3a3da54d7492668b84bb3af916bc604fa02da116372a19907d1f643a3d397f05",
      "blockNumber": "0x99",
      "gasUsed": "0xb36d",
      "effectiveGasPrice": "0x9",
      "blobGasPrice": "0x1",
      "from": "0xf39fd6e51aad88f6f4ce6ab8827279cfffb92266",
      "to": "0xb7f8bc63bbcad18155201308c8f3540b07f84f5e",
      "contractAddress": null
    },
    {
      "status": "0x1",
      "cumulativeGasUsed": "0xff6ee",
      "logs": [
        {
          "address": "0xb7f8bc63bbcad18155201308c8f3540b07f84f5e",
          "topics": [
            "0xddf252ad1be2c89b69c2b068fc378daa952ba7f163c4a11628f55a4df523b3ef",
            "0x000000000000000000000000f39fd6e51aad88f6f4ce6ab8827279cfffb92266",
            "0x000000000000000000000000dc11f7e700a4c898ae5caddb1082cffa76512add"
          ],
          "data": "0x0000000000000000000000000000000000000000000000185459e627db500000",
          "blockHash": "0x3a3da54d7492668b84bb3af916bc604fa02da116372a19907d1f643a3d397f05",
          "blockNumber": "0x99",
          "blockTimestamp": "0x69feece6",
          "transactionHash": "0x44893c5bac2a184b7e31869abb3214abc3e343cbb777ff0a3bd5ee7b61e45901",
          "transactionIndex": "0x6",
          "logIndex": "0x1c",
          "removed": false
        },
        {
          "address": "0xb7f8bc63bbcad18155201308c8f3540b07f84f5e",
          "topics": [
            "0x8c5be1e5ebec7d5bd14f71427d1e84f3dd0314c0f7b2291e5b200ac8c7c3b925",
            "0x000000000000000000000000dc11f7e700a4c898ae5caddb1082cffa76512add",
            "0x00000000000000000000000095401dc811bb5740090279ba06cfa8fcf6113778"
          ],
          "data": "0xffffffffffffffffffffffffffffffffffffffffffffffffffffffffffffffff",
          "blockHash": "0x3a3da54d7492668b84bb3af916bc604fa02da116372a19907d1f643a3d397f05",
          "blockNumber": "0x99",
          "blockTimestamp": "0x69feece6",
          "transactionHash": "0x44893c5bac2a184b7e31869abb3214abc3e343cbb777ff0a3bd5ee7b61e45901",
          "transactionIndex": "0x6",
          "logIndex": "0x1d",
          "removed": false
        },
        {
          "address": "0xb7f8bc63bbcad18155201308c8f3540b07f84f5e",
          "topics": [
            "0xddf252ad1be2c89b69c2b068fc378daa952ba7f163c4a11628f55a4df523b3ef",
            "0x000000000000000000000000dc11f7e700a4c898ae5caddb1082cffa76512add",
            "0x000000000000000000000000998abeb3e57409262ae5b751f60747921b33613e"
          ],
          "data": "0x0000000000000000000000000000000000000000000000058788cb94b1d80000",
          "blockHash": "0x3a3da54d7492668b84bb3af916bc604fa02da116372a19907d1f643a3d397f05",
          "blockNumber": "0x99",
          "blockTimestamp": "0x69feece6",
          "transactionHash": "0x44893c5bac2a184b7e31869abb3214abc3e343cbb777ff0a3bd5ee7b61e45901",
          "transactionIndex": "0x6",
          "logIndex": "0x1e",
          "removed": false
        },
        {
          "address": "0xb7f8bc63bbcad18155201308c8f3540b07f84f5e",
          "topics": [
            "0xddf252ad1be2c89b69c2b068fc378daa952ba7f163c4a11628f55a4df523b3ef",
            "0x000000000000000000000000998abeb3e57409262ae5b751f60747921b33613e",
            "0x0000000000000000000000000000000000000000000000000000000000000000"
          ],
          "data": "0x0000000000000000000000000000000000000000000000058788cb94b1d80000",
          "blockHash": "0x3a3da54d7492668b84bb3af916bc604fa02da116372a19907d1f643a3d397f05",
          "blockNumber": "0x99",
          "blockTimestamp": "0x69feece6",
          "transactionHash": "0x44893c5bac2a184b7e31869abb3214abc3e343cbb777ff0a3bd5ee7b61e45901",
          "transactionIndex": "0x6",
          "logIndex": "0x1f",
          "removed": false
        },
        {
          "address": "0xc5a5c42992decbae36851359345fe25997f5c42d",
          "topics": [
            "0x281a9d860209dbda5c88b0017ab938296b57a3c62c20c06518c13ed8c59e71db",
            "0x000000000000000000000000b7f8bc63bbcad18155201308c8f3540b07f84f5e"
          ],
          "data": "0x0000000000000000000000000000000000000000000000058788cb94b1d800000000000000000000000000000000000000000000000000000000000069feece6",
          "blockHash": "0x3a3da54d7492668b84bb3af916bc604fa02da116372a19907d1f643a3d397f05",
          "blockNumber": "0x99",
          "blockTimestamp": "0x69feece6",
          "transactionHash": "0x44893c5bac2a184b7e31869abb3214abc3e343cbb777ff0a3bd5ee7b61e45901",
          "transactionIndex": "0x6",
          "logIndex": "0x20",
          "removed": false
        },
        {
          "address": "0x95401dc811bb5740090279ba06cfa8fcf6113778",
          "topics": [
            "0xc3d58168c5ae7397731d063d5bbf3d657854427343f4c083240f7aacaa2d0f62",
            "0x000000000000000000000000dc11f7e700a4c898ae5caddb1082cffa76512add",
            "0x0000000000000000000000000000000000000000000000000000000000000000",
            "0x0000000000000000000000002b5ad5c4795c026514f8317c7a215e218dccd6cf"
          ],
          "data": "0x00000000000000000000000000000000000000000000000000000000000000010000000000000000000000000000000000000000000000000000000000000001",
          "blockHash": "0x3a3da54d7492668b84bb3af916bc604fa02da116372a19907d1f643a3d397f05",
          "blockNumber": "0x99",
          "blockTimestamp": "0x69feece6",
          "transactionHash": "0x44893c5bac2a184b7e31869abb3214abc3e343cbb777ff0a3bd5ee7b61e45901",
          "transactionIndex": "0x6",
          "logIndex": "0x21",
          "removed": false
        },
        {
          "address": "0x95401dc811bb5740090279ba06cfa8fcf6113778",
          "topics": [
            "0x7d51bc1b9646762d321a691e30425cc6411e9042edc2b48b77ce5934e205922d",
            "0x0000000000000000000000002b5ad5c4795c026514f8317c7a215e218dccd6cf",
            "0x0000000000000000000000000000000000000000000000000000000000000001",
            "0x000000000000000000000000b7f8bc63bbcad18155201308c8f3540b07f84f5e"
          ],
          "data": "0x0000000000000000000000000000000000000000000000058788cb94b1d80000",
          "blockHash": "0x3a3da54d7492668b84bb3af916bc604fa02da116372a19907d1f643a3d397f05",
          "blockNumber": "0x99",
          "blockTimestamp": "0x69feece6",
          "transactionHash": "0x44893c5bac2a184b7e31869abb3214abc3e343cbb777ff0a3bd5ee7b61e45901",
          "transactionIndex": "0x6",
          "logIndex": "0x22",
          "removed": false
        },
        {
          "address": "0xb7f8bc63bbcad18155201308c8f3540b07f84f5e",
          "topics": [
            "0xddf252ad1be2c89b69c2b068fc378daa952ba7f163c4a11628f55a4df523b3ef",
            "0x000000000000000000000000dc11f7e700a4c898ae5caddb1082cffa76512add",
            "0x000000000000000000000000998abeb3e57409262ae5b751f60747921b33613e"
          ],
          "data": "0x000000000000000000000000000000000000000000000005a3d854c5bfa40000",
          "blockHash": "0x3a3da54d7492668b84bb3af916bc604fa02da116372a19907d1f643a3d397f05",
          "blockNumber": "0x99",
          "blockTimestamp": "0x69feece6",
          "transactionHash": "0x44893c5bac2a184b7e31869abb3214abc3e343cbb777ff0a3bd5ee7b61e45901",
          "transactionIndex": "0x6",
          "logIndex": "0x23",
          "removed": false
        },
        {
          "address": "0xb7f8bc63bbcad18155201308c8f3540b07f84f5e",
          "topics": [
            "0xddf252ad1be2c89b69c2b068fc378daa952ba7f163c4a11628f55a4df523b3ef",
            "0x000000000000000000000000998abeb3e57409262ae5b751f60747921b33613e",
            "0x0000000000000000000000000000000000000000000000000000000000000000"
          ],
          "data": "0x000000000000000000000000000000000000000000000005a3d854c5bfa40000",
          "blockHash": "0x3a3da54d7492668b84bb3af916bc604fa02da116372a19907d1f643a3d397f05",
          "blockNumber": "0x99",
          "blockTimestamp": "0x69feece6",
          "transactionHash": "0x44893c5bac2a184b7e31869abb3214abc3e343cbb777ff0a3bd5ee7b61e45901",
          "transactionIndex": "0x6",
          "logIndex": "0x24",
          "removed": false
        },
        {
          "address": "0xc5a5c42992decbae36851359345fe25997f5c42d",
          "topics": [
            "0x281a9d860209dbda5c88b0017ab938296b57a3c62c20c06518c13ed8c59e71db",
            "0x000000000000000000000000b7f8bc63bbcad18155201308c8f3540b07f84f5e"
          ],
          "data": "0x000000000000000000000000000000000000000000000005a3d854c5bfa400000000000000000000000000000000000000000000000000000000000069feece6",
          "blockHash": "0x3a3da54d7492668b84bb3af916bc604fa02da116372a19907d1f643a3d397f05",
          "blockNumber": "0x99",
          "blockTimestamp": "0x69feece6",
          "transactionHash": "0x44893c5bac2a184b7e31869abb3214abc3e343cbb777ff0a3bd5ee7b61e45901",
          "transactionIndex": "0x6",
          "logIndex": "0x25",
          "removed": false
        },
        {
          "address": "0x95401dc811bb5740090279ba06cfa8fcf6113778",
          "topics": [
            "0xc3d58168c5ae7397731d063d5bbf3d657854427343f4c083240f7aacaa2d0f62",
            "0x000000000000000000000000dc11f7e700a4c898ae5caddb1082cffa76512add",
            "0x0000000000000000000000000000000000000000000000000000000000000000",
            "0x0000000000000000000000002b5ad5c4795c026514f8317c7a215e218dccd6cf"
          ],
          "data": "0x00000000000000000000000000000000000000000000000000000000000000010000000000000000000000000000000000000000000000000000000000000001",
          "blockHash": "0x3a3da54d7492668b84bb3af916bc604fa02da116372a19907d1f643a3d397f05",
          "blockNumber": "0x99",
          "blockTimestamp": "0x69feece6",
          "transactionHash": "0x44893c5bac2a184b7e31869abb3214abc3e343cbb777ff0a3bd5ee7b61e45901",
          "transactionIndex": "0x6",
          "logIndex": "0x26",
          "removed": false
        },
        {
          "address": "0x95401dc811bb5740090279ba06cfa8fcf6113778",
          "topics": [
            "0x7d51bc1b9646762d321a691e30425cc6411e9042edc2b48b77ce5934e205922d",
            "0x0000000000000000000000002b5ad5c4795c026514f8317c7a215e218dccd6cf",
            "0x0000000000000000000000000000000000000000000000000000000000000001",
            "0x000000000000000000000000b7f8bc63bbcad18155201308c8f3540b07f84f5e"
          ],
          "data": "0x000000000000000000000000000000000000000000000005a3d854c5bfa40000",
          "blockHash": "0x3a3da54d7492668b84bb3af916bc604fa02da116372a19907d1f643a3d397f05",
          "blockNumber": "0x99",
          "blockTimestamp": "0x69feece6",
          "transactionHash": "0x44893c5bac2a184b7e31869abb3214abc3e343cbb777ff0a3bd5ee7b61e45901",
          "transactionIndex": "0x6",
          "logIndex": "0x27",
          "removed": false
        },
        {
          "address": "0xb7f8bc63bbcad18155201308c8f3540b07f84f5e",
          "topics": [
            "0xddf252ad1be2c89b69c2b068fc378daa952ba7f163c4a11628f55a4df523b3ef",
            "0x000000000000000000000000dc11f7e700a4c898ae5caddb1082cffa76512add",
            "0x000000000000000000000000998abeb3e57409262ae5b751f60747921b33613e"
          ],
          "data": "0x000000000000000000000000000000000000000000000005c0b8d15910460000",
          "blockHash": "0x3a3da54d7492668b84bb3af916bc604fa02da116372a19907d1f643a3d397f05",
          "blockNumber": "0x99",
          "blockTimestamp": "0x69feece6",
          "transactionHash": "0x44893c5bac2a184b7e31869abb3214abc3e343cbb777ff0a3bd5ee7b61e45901",
          "transactionIndex": "0x6",
          "logIndex": "0x28",
          "removed": false
        },
        {
          "address": "0xb7f8bc63bbcad18155201308c8f3540b07f84f5e",
          "topics": [
            "0xddf252ad1be2c89b69c2b068fc378daa952ba7f163c4a11628f55a4df523b3ef",
            "0x000000000000000000000000998abeb3e57409262ae5b751f60747921b33613e",
            "0x0000000000000000000000000000000000000000000000000000000000000000"
          ],
          "data": "0x000000000000000000000000000000000000000000000005c0b8d15910460000",
          "blockHash": "0x3a3da54d7492668b84bb3af916bc604fa02da116372a19907d1f643a3d397f05",
          "blockNumber": "0x99",
          "blockTimestamp": "0x69feece6",
          "transactionHash": "0x44893c5bac2a184b7e31869abb3214abc3e343cbb777ff0a3bd5ee7b61e45901",
          "transactionIndex": "0x6",
          "logIndex": "0x29",
          "removed": false
        },
        {
          "address": "0xc5a5c42992decbae36851359345fe25997f5c42d",
          "topics": [
            "0x281a9d860209dbda5c88b0017ab938296b57a3c62c20c06518c13ed8c59e71db",
            "0x000000000000000000000000b7f8bc63bbcad18155201308c8f3540b07f84f5e"
          ],
          "data": "0x000000000000000000000000000000000000000000000005c0b8d159104600000000000000000000000000000000000000000000000000000000000069feece6",
          "blockHash": "0x3a3da54d7492668b84bb3af916bc604fa02da116372a19907d1f643a3d397f05",
          "blockNumber": "0x99",
          "blockTimestamp": "0x69feece6",
          "transactionHash": "0x44893c5bac2a184b7e31869abb3214abc3e343cbb777ff0a3bd5ee7b61e45901",
          "transactionIndex": "0x6",
          "logIndex": "0x2a",
          "removed": false
        },
        {
          "address": "0x95401dc811bb5740090279ba06cfa8fcf6113778",
          "topics": [
            "0xc3d58168c5ae7397731d063d5bbf3d657854427343f4c083240f7aacaa2d0f62",
            "0x000000000000000000000000dc11f7e700a4c898ae5caddb1082cffa76512add",
            "0x0000000000000000000000000000000000000000000000000000000000000000",
            "0x0000000000000000000000002b5ad5c4795c026514f8317c7a215e218dccd6cf"
          ],
          "data": "0x00000000000000000000000000000000000000000000000000000000000000010000000000000000000000000000000000000000000000000000000000000001",
          "blockHash": "0x3a3da54d7492668b84bb3af916bc604fa02da116372a19907d1f643a3d397f05",
          "blockNumber": "0x99",
          "blockTimestamp": "0x69feece6",
          "transactionHash": "0x44893c5bac2a184b7e31869abb3214abc3e343cbb777ff0a3bd5ee7b61e45901",
          "transactionIndex": "0x6",
          "logIndex": "0x2b",
          "removed": false
        },
        {
          "address": "0x95401dc811bb5740090279ba06cfa8fcf6113778",
          "topics": [
            "0x7d51bc1b9646762d321a691e30425cc6411e9042edc2b48b77ce5934e205922d",
            "0x0000000000000000000000002b5ad5c4795c026514f8317c7a215e218dccd6cf",
            "0x0000000000000000000000000000000000000000000000000000000000000001",
            "0x000000000000000000000000b7f8bc63bbcad18155201308c8f3540b07f84f5e"
          ],
          "data": "0x000000000000000000000000000000000000000000000005c0b8d15910460000",
          "blockHash": "0x3a3da54d7492668b84bb3af916bc604fa02da116372a19907d1f643a3d397f05",
          "blockNumber": "0x99",
          "blockTimestamp": "0x69feece6",
          "transactionHash": "0x44893c5bac2a184b7e31869abb3214abc3e343cbb777ff0a3bd5ee7b61e45901",
          "transactionIndex": "0x6",
          "logIndex": "0x2c",
          "removed": false
        },
        {
          "address": "0xb7f8bc63bbcad18155201308c8f3540b07f84f5e",
          "topics": [
            "0xddf252ad1be2c89b69c2b068fc378daa952ba7f163c4a11628f55a4df523b3ef",
            "0x000000000000000000000000dc11f7e700a4c898ae5caddb1082cffa76512add",
            "0x000000000000000000000000998abeb3e57409262ae5b751f60747921b33613e"
          ],
          "data": "0x000000000000000000000000000000000000000000000005de2d277471e10000",
          "blockHash": "0x3a3da54d7492668b84bb3af916bc604fa02da116372a19907d1f643a3d397f05",
          "blockNumber": "0x99",
          "blockTimestamp": "0x69feece6",
          "transactionHash": "0x44893c5bac2a184b7e31869abb3214abc3e343cbb777ff0a3bd5ee7b61e45901",
          "transactionIndex": "0x6",
          "logIndex": "0x2d",
          "removed": false
        },
        {
          "address": "0xb7f8bc63bbcad18155201308c8f3540b07f84f5e",
          "topics": [
            "0xddf252ad1be2c89b69c2b068fc378daa952ba7f163c4a11628f55a4df523b3ef",
            "0x000000000000000000000000998abeb3e57409262ae5b751f60747921b33613e",
            "0x0000000000000000000000000000000000000000000000000000000000000000"
          ],
          "data": "0x000000000000000000000000000000000000000000000005de2d277471e10000",
          "blockHash": "0x3a3da54d7492668b84bb3af916bc604fa02da116372a19907d1f643a3d397f05",
          "blockNumber": "0x99",
          "blockTimestamp": "0x69feece6",
          "transactionHash": "0x44893c5bac2a184b7e31869abb3214abc3e343cbb777ff0a3bd5ee7b61e45901",
          "transactionIndex": "0x6",
          "logIndex": "0x2e",
          "removed": false
        },
        {
          "address": "0xc5a5c42992decbae36851359345fe25997f5c42d",
          "topics": [
            "0x281a9d860209dbda5c88b0017ab938296b57a3c62c20c06518c13ed8c59e71db",
            "0x000000000000000000000000b7f8bc63bbcad18155201308c8f3540b07f84f5e"
          ],
          "data": "0x000000000000000000000000000000000000000000000005de2d277471e100000000000000000000000000000000000000000000000000000000000069feece6",
          "blockHash": "0x3a3da54d7492668b84bb3af916bc604fa02da116372a19907d1f643a3d397f05",
          "blockNumber": "0x99",
          "blockTimestamp": "0x69feece6",
          "transactionHash": "0x44893c5bac2a184b7e31869abb3214abc3e343cbb777ff0a3bd5ee7b61e45901",
          "transactionIndex": "0x6",
          "logIndex": "0x2f",
          "removed": false
        },
        {
          "address": "0x95401dc811bb5740090279ba06cfa8fcf6113778",
          "topics": [
            "0xc3d58168c5ae7397731d063d5bbf3d657854427343f4c083240f7aacaa2d0f62",
            "0x000000000000000000000000dc11f7e700a4c898ae5caddb1082cffa76512add",
            "0x0000000000000000000000000000000000000000000000000000000000000000",
            "0x0000000000000000000000002b5ad5c4795c026514f8317c7a215e218dccd6cf"
          ],
          "data": "0x00000000000000000000000000000000000000000000000000000000000000010000000000000000000000000000000000000000000000000000000000000001",
          "blockHash": "0x3a3da54d7492668b84bb3af916bc604fa02da116372a19907d1f643a3d397f05",
          "blockNumber": "0x99",
          "blockTimestamp": "0x69feece6",
          "transactionHash": "0x44893c5bac2a184b7e31869abb3214abc3e343cbb777ff0a3bd5ee7b61e45901",
          "transactionIndex": "0x6",
          "logIndex": "0x30",
          "removed": false
        },
        {
          "address": "0x95401dc811bb5740090279ba06cfa8fcf6113778",
          "topics": [
            "0x7d51bc1b9646762d321a691e30425cc6411e9042edc2b48b77ce5934e205922d",
            "0x0000000000000000000000002b5ad5c4795c026514f8317c7a215e218dccd6cf",
            "0x0000000000000000000000000000000000000000000000000000000000000001",
            "0x000000000000000000000000b7f8bc63bbcad18155201308c8f3540b07f84f5e"
          ],
          "data": "0x000000000000000000000000000000000000000000000005de2d277471e10000",
          "blockHash": "0x3a3da54d7492668b84bb3af916bc604fa02da116372a19907d1f643a3d397f05",
          "blockNumber": "0x99",
          "blockTimestamp": "0x69feece6",
          "transactionHash": "0x44893c5bac2a184b7e31869abb3214abc3e343cbb777ff0a3bd5ee7b61e45901",
          "transactionIndex": "0x6",
          "logIndex": "0x31",
          "removed": false
        },
        {
          "address": "0xb7f8bc63bbcad18155201308c8f3540b07f84f5e",
          "topics": [
            "0x8c5be1e5ebec7d5bd14f71427d1e84f3dd0314c0f7b2291e5b200ac8c7c3b925",
            "0x000000000000000000000000dc11f7e700a4c898ae5caddb1082cffa76512add",
            "0x00000000000000000000000095401dc811bb5740090279ba06cfa8fcf6113778"
          ],
          "data": "0x0000000000000000000000000000000000000000000000000000000000000000",
          "blockHash": "0x3a3da54d7492668b84bb3af916bc604fa02da116372a19907d1f643a3d397f05",
          "blockNumber": "0x99",
          "blockTimestamp": "0x69feece6",
          "transactionHash": "0x44893c5bac2a184b7e31869abb3214abc3e343cbb777ff0a3bd5ee7b61e45901",
          "transactionIndex": "0x6",
          "logIndex": "0x32",
          "removed": false
        },
        {
          "address": "0xe7f1725e7734ce288f8367e1bb143e90bb3f0512",
          "topics": [
            "0xddf252ad1be2c89b69c2b068fc378daa952ba7f163c4a11628f55a4df523b3ef",
            "0x000000000000000000000000dc11f7e700a4c898ae5caddb1082cffa76512add",
            "0x0000000000000000000000002b5ad5c4795c026514f8317c7a215e218dccd6cf"
          ],
          "data": "0x000000000000000000000000000000000000000000000000000000002cb4177f",
          "blockHash": "0x3a3da54d7492668b84bb3af916bc604fa02da116372a19907d1f643a3d397f05",
          "blockNumber": "0x99",
          "blockTimestamp": "0x69feece6",
          "transactionHash": "0x44893c5bac2a184b7e31869abb3214abc3e343cbb777ff0a3bd5ee7b61e45901",
          "transactionIndex": "0x6",
          "logIndex": "0x33",
          "removed": false
        },
        {
          "address": "0xdc11f7e700a4c898ae5caddb1082cffa76512add",
          "topics": [
            "0xd14d2c791164ea474a06eb987fa9fb219324ccf890a9ab0322f2f98b55f1994a",
            "0x0000000000000000000000002b5ad5c4795c026514f8317c7a215e218dccd6cf",
            "0x000000000000000000000000e7f1725e7734ce288f8367e1bb143e90bb3f0512"
          ],
          "data": "0x000000000000000000000000000000000000000000000000000000002cb4177f",
          "blockHash": "0x3a3da54d7492668b84bb3af916bc604fa02da116372a19907d1f643a3d397f05",
          "blockNumber": "0x99",
          "blockTimestamp": "0x69feece6",
          "transactionHash": "0x44893c5bac2a184b7e31869abb3214abc3e343cbb777ff0a3bd5ee7b61e45901",
          "transactionIndex": "0x6",
          "logIndex": "0x34",
          "removed": false
        },
        {
          "address": "0xb7f8bc63bbcad18155201308c8f3540b07f84f5e",
          "topics": [
            "0xddf252ad1be2c89b69c2b068fc378daa952ba7f163c4a11628f55a4df523b3ef",
            "0x000000000000000000000000dc11f7e700a4c898ae5caddb1082cffa76512add",
            "0x000000000000000000000000f39fd6e51aad88f6f4ce6ab8827279cfffb92266"
          ],
          "data": "0x0000000000000000000000000000000000000000000000018a12ccffe7ad0000",
          "blockHash": "0x3a3da54d7492668b84bb3af916bc604fa02da116372a19907d1f643a3d397f05",
          "blockNumber": "0x99",
          "blockTimestamp": "0x69feece6",
          "transactionHash": "0x44893c5bac2a184b7e31869abb3214abc3e343cbb777ff0a3bd5ee7b61e45901",
          "transactionIndex": "0x6",
          "logIndex": "0x35",
          "removed": false
        }
      ],
      "logsBloom": "0x0000000010000000040000000000000000000400004000000401000002000000000000000200000000000000008000001400000000000000000400000024200000000000000400000000000a0000000000008000000400000000000000000000000000400a0000000000000100000800000000000000000000000414000000008140410000040000020100000000000000000000400000000080000040000000020000000000000000000002000000040000000000000000000000000000000000000003081000200000000040001000000002002008000000200000000060000010000000000000080000000000000000000000000000800000080000000000",
      "type": "0x2",
      "transactionHash": "0x44893c5bac2a184b7e31869abb3214abc3e343cbb777ff0a3bd5ee7b61e45901",
      "transactionIndex": "0x6",
      "blockHash": "0x3a3da54d7492668b84bb3af916bc604fa02da116372a19907d1f643a3d397f05",
      "blockNumber": "0x99",
      "gasUsed": "0x5520a",
      "effectiveGasPrice": "0x9",
      "blobGasPrice": "0x1",
      "from": "0xf39fd6e51aad88f6f4ce6ab8827279cfffb92266",
      "to": "0xdc11f7e700a4c898ae5caddb1082cffa76512add",
      "contractAddress": null
    }
  ],
  "libraries": [],
  "pending": [],
  "returns": {},
  "timestamp": 1778314470033,
  "chain": 31337,
  "commit": "0ef49f7"
}