{
  "transactions": [
    {
      "hash": "0xfb24f73dc6e3a3c93711d7fa5c610efe8fff89f9c3e38f389b614bf110eb402f",
      "transactionType": "CALL",
      "contractName": null,
      "contractAddress": "0xb9639e6be92033f55e6d9e375fd1c28ceedba50e",
      "function": "setDiscountRate(uint256)",
      "arguments": [
        "3000"
      ],
      "transaction": {
        "from": "0xcad1a7864a108dbff67f4b8af71fab0c7a86d0b6",
        "to": "0xb9639e6be92033f55e6d9e375fd1c28ceedba50e",
        "gas": "0xa310",
        "value": "0x0",
        "input": "0x7c69febd0000000000000000000000000000000000000000000000000000000000000bb8",
        "nonce": "0x120",
        "chainId": "0x1"
      },
      "additionalContracts": [],
      "isFixedGasLimit": false
    }
  ],
  "receipts": [
    {
      "status": "0x1",
      "cumulativeGasUsed": "0x1266a5b",
      "logs": [
        {
          "address": "0xb9639e6be92033f55e6d9e375fd1c28ceedba50e",
          "topics": [
            "0xbde6b2554a797ee1ab75b4f90ad50200dcd2a80165488896faacd30a0a013174"
          ],
          "data": "0x00000000000000000000000000000000000000000000000000000000000007d00000000000000000000000000000000000000000000000000000000000000bb8",
          "blockHash": "0x81f88e22eaf5cb7722f03c93ef02f5b411e5c29742a449b33c49a4266569db2d",
          "blockNumber": "0x17a5b21",
          "blockTimestamp": "0x69cf1dab",
          "transactionHash": "0xfb24f73dc6e3a3c93711d7fa5c610efe8fff89f9c3e38f389b614bf110eb402f",
          "transactionIndex": "0x161",
          "logIndex": "0x18b",
          "removed": false
        }
      ],
      "logsBloom": "0x00000000000000000000000000000000000000000000000000000000000000004000000000000000000000000000000000004000000000000000000000000000200000000000000000000000000000000000000000000000000000000000000000000000000000000000100000000000000000000000000000000000000000000000000000000000000000004000000000000000000000000000000000000000000000000000000000000000000000000000000000000000000000000000000000000000000000000000000000000000000000000000000000010000000000000000000000000000000000000000000000000000000000000000000000000000",
      "type": "0x2",
      "transactionHash": "0xfb24f73dc6e3a3c93711d7fa5c610efe8fff89f9c3e38f389b614bf110eb402f",
      "transactionIndex": "0x161",
      "blockHash": "0x81f88e22eaf5cb7722f03c93ef02f5b411e5c29742a449b33c49a4266569db2d",
      "blockNumber": "0x17a5b21",
      "gasUsed": "0x760f",
      "effectiveGasPrice": "0x5feb086",
      "from": "0xcad1a7864a108dbff67f4b8af71fab0c7a86d0b6",
      "to": "0xb9639e6be92033f55e6d9e375fd1c28ceedba50e",
      "contractAddress": null
    }
  ],
  "libraries": [],
  "pending": [],
  "returns": {},
  "timestamp": 1775181229830,
  "chain": 1,
  "commit": "daf068a"
}