{
  "transactions": [
    {
      "hash": "0xb62e96c6c27a034f3740f08c2332cadded470c6d49e229222f1ca9780ca937d9",
      "transactionType": "CALL",
      "contractName": null,
      "contractAddress": "0xb9639e6be92033f55e6d9e375fd1c28ceedba50e",
      "function": "setDiscountRate(uint256)",
      "arguments": [
        "3500"
      ],
      "transaction": {
        "from": "0xcad1a7864a108dbff67f4b8af71fab0c7a86d0b6",
        "to": "0xb9639e6be92033f55e6d9e375fd1c28ceedba50e",
        "gas": "0xa310",
        "value": "0x0",
        "input": "0x7c69febd0000000000000000000000000000000000000000000000000000000000000dac",
        "nonce": "0x16e",
        "chainId": "0x1"
      },
      "additionalContracts": [],
      "isFixedGasLimit": false
    }
  ],
  "receipts": [
    {
      "status": "0x1",
      "cumulativeGasUsed": "0x14595a5",
      "logs": [
        {
          "address": "0xb9639e6be92033f55e6d9e375fd1c28ceedba50e",
          "topics": [
            "0xbde6b2554a797ee1ab75b4f90ad50200dcd2a80165488896faacd30a0a013174"
          ],
          "data": "0x0000000000000000000000000000000000000000000000000000000000000bb80000000000000000000000000000000000000000000000000000000000000dac",
          "blockHash": "0x65f0a683f5fb1c3884144a3ade0ff3ce7e9fd57eb4058f16607ce921800b3b87",
          "blockNumber": "0x17b3496",
          "blockTimestamp": "0x69d95827",
          "transactionHash": "0xb62e96c6c27a034f3740f08c2332cadded470c6d49e229222f1ca9780ca937d9",
          "transactionIndex": "0xb7",
          "logIndex": "0x21d",
          "removed": false
        }
      ],
      "logsBloom": "0x00000000000000000000000000000000000000000000000000000000000000004000000000000000000000000000000000004000000000000000000000000000200000000000000000000000000000000000000000000000000000000000000000000000000000000000100000000000000000000000000000000000000000000000000000000000000000004000000000000000000000000000000000000000000000000000000000000000000000000000000000000000000000000000000000000000000000000000000000000000000000000000000000010000000000000000000000000000000000000000000000000000000000000000000000000000",
      "type": "0x2",
      "transactionHash": "0xb62e96c6c27a034f3740f08c2332cadded470c6d49e229222f1ca9780ca937d9",
      "transactionIndex": "0xb7",
      "blockHash": "0x65f0a683f5fb1c3884144a3ade0ff3ce7e9fd57eb4058f16607ce921800b3b87",
      "blockNumber": "0x17b3496",
      "gasUsed": "0x760f",
      "effectiveGasPrice": "0x377a675",
      "from": "0xcad1a7864a108dbff67f4b8af71fab0c7a86d0b6",
      "to": "0xb9639e6be92033f55e6d9e375fd1c28ceedba50e",
      "contractAddress": null
    }
  ],
  "libraries": [],
  "pending": [],
  "returns": {},
  "timestamp": 1775851562623,
  "chain": 1,
  "commit": "4bb2bc9"
}