{
  "transactions": [
    {
      "hash": "0xa01a792db0f778abb8ad6e2c84bf4fd9cc7c2e19fb3867cc9a834cc22ed40e75",
      "transactionType": "CALL",
      "contractName": null,
      "contractAddress": "0x865377367054516e17014ccded1e7d814edc9ce4",
      "function": "approve(address,uint256)",
      "arguments": [
        "0x435B0A1884bd0fb5667677C9eb0e59425b1477E5",
        "2164702655061982669271"
      ],
      "transaction": {
        "from": "0xcad1a7864a108dbff67f4b8af71fab0c7a86d0b6",
        "to": "0x865377367054516e17014ccded1e7d814edc9ce4",
        "gas": "0xf8e8",
        "value": "0x0",
        "input": "0x095ea7b3000000000000000000000000435b0a1884bd0fb5667677c9eb0e59425b1477e50000000000000000000000000000000000000000000000755948bbb1526b69d7",
        "nonce": "0x2c",
        "chainId": "0x1"
      },
      "additionalContracts": [],
      "isFixedGasLimit": false
    },
    {
      "hash": "0x004ea5d4d772a6708d65e603e26746b2c93c58c17fa3c7fdf0d7eb04daa55e46",
      "transactionType": "CALL",
      "contractName": null,
      "contractAddress": "0x435b0a1884bd0fb5667677c9eb0e59425b1477e5",
      "function": "noMintDeposit(address,address,uint256)",
      "arguments": [
        "0x01d34d7EF3988C5b981ee06bF0Ba4485Bd8eA20C",
        "0x865377367054516e17014CcdED1e7d814EDC9ce4",
        "2164702655061982669271"
      ],
      "transaction": {
        "from": "0xcad1a7864a108dbff67f4b8af71fab0c7a86d0b6",
        "to": "0x435b0a1884bd0fb5667677c9eb0e59425b1477e5",
        "gas": "0x8528c",
        "value": "0x0",
        "input": "0x41a93d0600000000000000000000000001d34d7ef3988c5b981ee06bf0ba4485bd8ea20c000000000000000000000000865377367054516e17014ccded1e7d814edc9ce40000000000000000000000000000000000000000000000755948bbb1526b69d7",
        "nonce": "0x2d",
        "chainId": "0x1"
      },
      "additionalContracts": [],
      "isFixedGasLimit": false
    }
  ],
  "receipts": [
    {
      "status": "0x1",
      "cumulativeGasUsed": "0x163c2de",
      "logs": [
        {
          "address": "0x865377367054516e17014ccded1e7d814edc9ce4",
          "topics": [
            "0x8c5be1e5ebec7d5bd14f71427d1e84f3dd0314c0f7b2291e5b200ac8c7c3b925",
            "0x000000000000000000000000cad1a7864a108dbff67f4b8af71fab0c7a86d0b6",
            "0x000000000000000000000000435b0a1884bd0fb5667677c9eb0e59425b1477e5"
          ],
          "data": "0x0000000000000000000000000000000000000000000000755948bbb1526b69d7",
          "blockHash": "0xcbf29b9333674b91e09e41738f9d9a4147a23d7937591b417785d1afe1ddea06",
          "blockNumber": "0x172e908",
          "blockTimestamp": "0x6975573b",
          "transactionHash": "0x004ea5d4d772a6708d65e603e26746b2c93c58c17fa3c7fdf0d7eb04daa55e46",
          "transactionIndex": "0x94",
          "logIndex": "0x293",
          "removed": false
        }
      ],
      "logsBloom": "0x00000000000000000020000000000000000000000000000000040000000000000000000000000000000008400000080000000000000000000000000000200000000000000000000000000000000000000000000000000000000000000000000000000000000000000000000000000000000000000000000000000000000080000100000000000000000000000000000000000000000000000000000000000000020000000000000000000000000000000000000000000000000000000000000000000004000000000000000000000000000000000000100000000000000000000010000000000000000000000000000000000000000000000000000000000000",
      "type": "0x2",
      "transactionHash": "0x004ea5d4d772a6708d65e603e26746b2c93c58c17fa3c7fdf0d7eb04daa55e46",
      "transactionIndex": "0x94",
      "blockHash": "0xcbf29b9333674b91e09e41738f9d9a4147a23d7937591b417785d1afe1ddea06",
      "blockNumber": "0x172e908",
      "gasUsed": "0xb435",
      "effectiveGasPrice": "0x2033b3a",
      "from": "0xcad1a7864a108dbff67f4b8af71fab0c7a86d0b6",
      "to": "0x865377367054516e17014ccded1e7d814edc9ce4",
      "contractAddress": null
    },
    {
      "status": "0x1",
      "cumulativeGasUsed": "0xc41ee8",
      "logs": [
        {
          "address": "0x865377367054516e17014ccded1e7d814edc9ce4",
          "topics": [
            "0xddf252ad1be2c89b69c2b068fc378daa952ba7f163c4a11628f55a4df523b3ef",
            "0x000000000000000000000000cad1a7864a108dbff67f4b8af71fab0c7a86d0b6",
            "0x000000000000000000000000435b0a1884bd0fb5667677c9eb0e59425b1477e5"
          ],
          "data": "0x0000000000000000000000000000000000000000000000755948bbb1526b69d7",
          "blockHash": "0xa715c3e757bd61d897a60243816f4fb651cafb5b62db45d8f3e179e38f76d834",
          "blockNumber": "0x172e90a",
          "blockTimestamp": "0x69755753",
          "transactionHash": "0xa01a792db0f778abb8ad6e2c84bf4fd9cc7c2e19fb3867cc9a834cc22ed40e75",
          "transactionIndex": "0x74",
          "logIndex": "0x197",
          "removed": false
        },
        {
          "address": "0x865377367054516e17014ccded1e7d814edc9ce4",
          "topics": [
            "0xddf252ad1be2c89b69c2b068fc378daa952ba7f163c4a11628f55a4df523b3ef",
            "0x000000000000000000000000435b0a1884bd0fb5667677c9eb0e59425b1477e5",
            "0x00000000000000000000000001d34d7ef3988c5b981ee06bf0ba4485bd8ea20c"
          ],
          "data": "0x0000000000000000000000000000000000000000000000755948bbb1526b69d7",
          "blockHash": "0xa715c3e757bd61d897a60243816f4fb651cafb5b62db45d8f3e179e38f76d834",
          "blockNumber": "0x172e90a",
          "blockTimestamp": "0x69755753",
          "transactionHash": "0xa01a792db0f778abb8ad6e2c84bf4fd9cc7c2e19fb3867cc9a834cc22ed40e75",
          "transactionIndex": "0x74",
          "logIndex": "0x198",
          "removed": false
        },
        {
          "address": "0x865377367054516e17014ccded1e7d814edc9ce4",
          "topics": [
            "0xddf252ad1be2c89b69c2b068fc378daa952ba7f163c4a11628f55a4df523b3ef",
            "0x00000000000000000000000001d34d7ef3988c5b981ee06bf0ba4485bd8ea20c",
            "0x00000000000000000000000079eb84b5e30ef2481c8f00fd0aa7aad6ac0aa54d"
          ],
          "data": "0x0000000000000000000000000000000000000000000000755948bbb1526b69d7",
          "blockHash": "0xa715c3e757bd61d897a60243816f4fb651cafb5b62db45d8f3e179e38f76d834",
          "blockNumber": "0x172e90a",
          "blockTimestamp": "0x69755753",
          "transactionHash": "0xa01a792db0f778abb8ad6e2c84bf4fd9cc7c2e19fb3867cc9a834cc22ed40e75",
          "transactionIndex": "0x74",
          "logIndex": "0x199",
          "removed": false
        },
        {
          "address": "0x79eb84b5e30ef2481c8f00fd0aa7aad6ac0aa54d",
          "topics": [
            "0xddf252ad1be2c89b69c2b068fc378daa952ba7f163c4a11628f55a4df523b3ef",
            "0x0000000000000000000000000000000000000000000000000000000000000000",
            "0x00000000000000000000000001d34d7ef3988c5b981ee06bf0ba4485bd8ea20c"
          ],
          "data": "0x00000000000000000000000000000000000000000000006d110db18fb7381b2f",
          "blockHash": "0xa715c3e757bd61d897a60243816f4fb651cafb5b62db45d8f3e179e38f76d834",
          "blockNumber": "0x172e90a",
          "blockTimestamp": "0x69755753",
          "transactionHash": "0xa01a792db0f778abb8ad6e2c84bf4fd9cc7c2e19fb3867cc9a834cc22ed40e75",
          "transactionIndex": "0x74",
          "logIndex": "0x19a",
          "removed": false
        },
        {
          "address": "0x79eb84b5e30ef2481c8f00fd0aa7aad6ac0aa54d",
          "topics": [
            "0xdcbc1c05240f31ff3ad067ef1ee35ce4997762752e3a095284754544f4c709d7",
            "0x00000000000000000000000001d34d7ef3988c5b981ee06bf0ba4485bd8ea20c",
            "0x00000000000000000000000001d34d7ef3988c5b981ee06bf0ba4485bd8ea20c"
          ],
          "data": "0x0000000000000000000000000000000000000000000000755948bbb1526b69d700000000000000000000000000000000000000000000006d110db18fb7381b2f",
          "blockHash": "0xa715c3e757bd61d897a60243816f4fb651cafb5b62db45d8f3e179e38f76d834",
          "blockNumber": "0x172e90a",
          "blockTimestamp": "0x69755753",
          "transactionHash": "0xa01a792db0f778abb8ad6e2c84bf4fd9cc7c2e19fb3867cc9a834cc22ed40e75",
          "transactionIndex": "0x74",
          "logIndex": "0x19b",
          "removed": false
        },
        {
          "address": "0x79eb84b5e30ef2481c8f00fd0aa7aad6ac0aa54d",
          "topics": [
            "0xfde591d4268ec544cdd14ce6872b792705c3a22041dda226551134062d3e05e8"
          ],
          "data": "0x0000000000000000000000000000000000000000000000a7acd19826682174400000000000000000000000000000000000000000000030d2e48305bd7171f8a5000000000000000000000000000000000000000000002dfe6353dfd1382e9bf5",
          "blockHash": "0xa715c3e757bd61d897a60243816f4fb651cafb5b62db45d8f3e179e38f76d834",
          "blockNumber": "0x172e90a",
          "blockTimestamp": "0x69755753",
          "transactionHash": "0xa01a792db0f778abb8ad6e2c84bf4fd9cc7c2e19fb3867cc9a834cc22ed40e75",
          "transactionIndex": "0x74",
          "logIndex": "0x19c",
          "removed": false
        },
        {
          "address": "0xdc39c67b38ecda8a1974336c89b00f68667c91b7",
          "topics": [
            "0x469d38647ec007a9c93421468c92550d50fccc01ae12e149b1216aa9b0136fc7",
            "0x00000000000000000000000001d34d7ef3988c5b981ee06bf0ba4485bd8ea20c"
          ],
          "data": "0x00000000000000000000000000000000000000000000000000000000000000000000000000000000000000000000000000000000000000000c3908a7d967d11e00000000000000000000000000000000000000000000000000000000687651cb",
          "blockHash": "0xa715c3e757bd61d897a60243816f4fb651cafb5b62db45d8f3e179e38f76d834",
          "blockNumber": "0x172e90a",
          "blockTimestamp": "0x69755753",
          "transactionHash": "0xa01a792db0f778abb8ad6e2c84bf4fd9cc7c2e19fb3867cc9a834cc22ed40e75",
          "transactionIndex": "0x74",
          "logIndex": "0x19d",
          "removed": false
        },
        {
          "address": "0xdc39c67b38ecda8a1974336c89b00f68667c91b7",
          "topics": [
            "0x9e71bc8eea02a63969f509818f2dafb9254532904319f9dbda79b67bd34a5f3d",
            "0x00000000000000000000000001d34d7ef3988c5b981ee06bf0ba4485bd8ea20c"
          ],
          "data": "0x00000000000000000000000000000000000000000000006d110db18fb7381b2f",
          "blockHash": "0xa715c3e757bd61d897a60243816f4fb651cafb5b62db45d8f3e179e38f76d834",
          "blockNumber": "0x172e90a",
          "blockTimestamp": "0x69755753",
          "transactionHash": "0xa01a792db0f778abb8ad6e2c84bf4fd9cc7c2e19fb3867cc9a834cc22ed40e75",
          "transactionIndex": "0x74",
          "logIndex": "0x19e",
          "removed": false
        },
        {
          "address": "0x17c50b9fba151f5f88618dae6c394bd731022975",
          "topics": [
            "0x469d38647ec007a9c93421468c92550d50fccc01ae12e149b1216aa9b0136fc7",
            "0x00000000000000000000000001d34d7ef3988c5b981ee06bf0ba4485bd8ea20c"
          ],
          "data": "0x000000000000000000000000000000000000000000000000000000000000000000000000000000000000000000000000000000000000000002e397966b52f02100000000000000000000000000000000000000000000000000000000687651cb",
          "blockHash": "0xa715c3e757bd61d897a60243816f4fb651cafb5b62db45d8f3e179e38f76d834",
          "blockNumber": "0x172e90a",
          "blockTimestamp": "0x69755753",
          "transactionHash": "0xa01a792db0f778abb8ad6e2c84bf4fd9cc7c2e19fb3867cc9a834cc22ed40e75",
          "transactionIndex": "0x74",
          "logIndex": "0x19f",
          "removed": false
        },
        {
          "address": "0x17c50b9fba151f5f88618dae6c394bd731022975",
          "topics": [
            "0x9e71bc8eea02a63969f509818f2dafb9254532904319f9dbda79b67bd34a5f3d",
            "0x00000000000000000000000001d34d7ef3988c5b981ee06bf0ba4485bd8ea20c"
          ],
          "data": "0x00000000000000000000000000000000000000000000006d110db18fb7381b2f",
          "blockHash": "0xa715c3e757bd61d897a60243816f4fb651cafb5b62db45d8f3e179e38f76d834",
          "blockNumber": "0x172e90a",
          "blockTimestamp": "0x69755753",
          "transactionHash": "0xa01a792db0f778abb8ad6e2c84bf4fd9cc7c2e19fb3867cc9a834cc22ed40e75",
          "transactionIndex": "0x74",
          "logIndex": "0x1a0",
          "removed": false
        },
        {
          "address": "0x79eb84b5e30ef2481c8f00fd0aa7aad6ac0aa54d",
          "topics": [
            "0xddf252ad1be2c89b69c2b068fc378daa952ba7f163c4a11628f55a4df523b3ef",
            "0x00000000000000000000000001d34d7ef3988c5b981ee06bf0ba4485bd8ea20c",
            "0x000000000000000000000000dc39c67b38ecda8a1974336c89b00f68667c91b7"
          ],
          "data": "0x00000000000000000000000000000000000000000000006d110db18fb7381b2f",
          "blockHash": "0xa715c3e757bd61d897a60243816f4fb651cafb5b62db45d8f3e179e38f76d834",
          "blockNumber": "0x172e90a",
          "blockTimestamp": "0x69755753",
          "transactionHash": "0xa01a792db0f778abb8ad6e2c84bf4fd9cc7c2e19fb3867cc9a834cc22ed40e75",
          "transactionIndex": "0x74",
          "logIndex": "0x1a1",
          "removed": false
        },
        {
          "address": "0x01d34d7ef3988c5b981ee06bf0ba4485bd8ea20c",
          "topics": [
            "0x2d193abd0f552ba389f434a5393c0e600bdde68532e7c6778875d05106b9cb2a",
            "0x000000000000000000000000865377367054516e17014ccded1e7d814edc9ce4",
            "0x000000000000000000000000435b0a1884bd0fb5667677c9eb0e59425b1477e5",
            "0x000000000000000000000000435b0a1884bd0fb5667677c9eb0e59425b1477e5"
          ],
          "data": "0x0000000000000000000000000000000000000000000000755948bbb1526b69d700000000000000000000000000000000000000000000006d110db18fb7381b2f",
          "blockHash": "0xa715c3e757bd61d897a60243816f4fb651cafb5b62db45d8f3e179e38f76d834",
          "blockNumber": "0x172e90a",
          "blockTimestamp": "0x69755753",
          "transactionHash": "0xa01a792db0f778abb8ad6e2c84bf4fd9cc7c2e19fb3867cc9a834cc22ed40e75",
          "transactionIndex": "0x74",
          "logIndex": "0x1a2",
          "removed": false
        },
        {
          "address": "0x435b0a1884bd0fb5667677c9eb0e59425b1477e5",
          "topics": [
            "0xcbc4a4091b012bb1329c38bbbb15455f5cac5aa3673da0a7f38cd61a4f495517",
            "0x00000000000000000000000001d34d7ef3988c5b981ee06bf0ba4485bd8ea20c",
            "0x000000000000000000000000865377367054516e17014ccded1e7d814edc9ce4"
          ],
          "data": "0x0000000000000000000000000000000000000000000000755948bbb1526b69d7",
          "blockHash": "0xa715c3e757bd61d897a60243816f4fb651cafb5b62db45d8f3e179e38f76d834",
          "blockNumber": "0x172e90a",
          "blockTimestamp": "0x69755753",
          "transactionHash": "0xa01a792db0f778abb8ad6e2c84bf4fd9cc7c2e19fb3867cc9a834cc22ed40e75",
          "transactionIndex": "0x74",
          "logIndex": "0x1a3",
          "removed": false
        }
      ],
      "logsBloom": "0x000000000000000001200000000002000000800008000000001420004000000000000000000000200000084000000800010802000001000000000000000000000000004000000000000000080000000200000000000080000000000000000000400000000200000000080000000088000000000000040020000004100000c0000100000000801000000000000004000000000000002000000000100000010000010000200000000000000000000800000000000000000010000000000000000000200006001000000108000002000000000000020008100002000000000020008004000000000000000000000000000000000000000000000004000000000000",
      "type": "0x2",
      "transactionHash": "0xa01a792db0f778abb8ad6e2c84bf4fd9cc7c2e19fb3867cc9a834cc22ed40e75",
      "transactionIndex": "0x74",
      "blockHash": "0xa715c3e757bd61d897a60243816f4fb651cafb5b62db45d8f3e179e38f76d834",
      "blockNumber": "0x172e90a",
      "gasUsed": "0x5b0c9",
      "effectiveGasPrice": "0x1faa1a4",
      "from": "0xcad1a7864a108dbff67f4b8af71fab0c7a86d0b6",
      "to": "0x435b0a1884bd0fb5667677c9eb0e59425b1477e5",
      "contractAddress": null
    }
  ],
  "libraries": [],
  "pending": [],
  "returns": {},
  "timestamp": 1769297749856,
  "chain": 1,
  "commit": "5834e2b"
}