{
  "transactions": [
    {
      "hash": "0x19ac0c3c2f990ba52824b6073214033a7c52101d141f4e4527a9e06bc34712f4",
      "transactionType": "CALL",
      "contractName": null,
      "contractAddress": "0x01d34d7ef3988c5b981ee06bf0ba4485bd8ea20c",
      "function": "setPauser(address)",
      "arguments": [
        "0xCad1a7864a108DBFF67F4b8af71fAB0C7A86D0B6"
      ],
      "transaction": {
        "from": "0xcad1a7864a108dbff67f4b8af71fab0c7a86d0b6",
        "to": "0x01d34d7ef3988c5b981ee06bf0ba4485bd8ea20c",
        "gas": "0xa733",
        "value": "0x0",
        "input": "0x2d88af4a000000000000000000000000cad1a7864a108dbff67f4b8af71fab0c7a86d0b6",
        "nonce": "0xb4",
        "chainId": "0x1"
      },
      "additionalContracts": [],
      "isFixedGasLimit": false
    },
    {
      "hash": "0x7b99be3c6397b10faa71844a8b9ea6545faafb0b5fab9879aa7f7302bef539de",
      "transactionType": "CALL",
      "contractName": null,
      "contractAddress": "0x01d34d7ef3988c5b981ee06bf0ba4485bd8ea20c",
      "function": "unpause()",
      "arguments": [],
      "transaction": {
        "from": "0xcad1a7864a108dbff67f4b8af71fab0c7a86d0b6",
        "to": "0x01d34d7ef3988c5b981ee06bf0ba4485bd8ea20c",
        "gas": "0x9810",
        "value": "0x0",
        "input": "0x3f4ba83a",
        "nonce": "0xb5",
        "chainId": "0x1"
      },
      "additionalContracts": [],
      "isFixedGasLimit": false
    },
    {
      "hash": "0x74e32a1c7c616a72c4671d31713aca5113e6f6885dbc30a6a713194175c588d3",
      "transactionType": "CALL",
      "contractName": null,
      "contractAddress": "0x01d34d7ef3988c5b981ee06bf0ba4485bd8ea20c",
      "function": "emergencyWithdraw(uint256)",
      "arguments": [
        "20300670982138094153163"
      ],
      "transaction": {
        "from": "0xcad1a7864a108dbff67f4b8af71fab0c7a86d0b6",
        "to": "0x01d34d7ef3988c5b981ee06bf0ba4485bd8ea20c",
        "gas": "0x2a0094",
        "value": "0x0",
        "input": "0x5312ea8e00000000000000000000000000000000000000000000044c80677cb0a56bedcb",
        "nonce": "0xb6",
        "chainId": "0x1"
      },
      "additionalContracts": [],
      "isFixedGasLimit": false
    },
    {
      "hash": "0x202ad1a26c8b7bf5972c8aa08def03300b637e38dfa6b7865ce32fd1251f87fe",
      "transactionType": "CALL",
      "contractName": null,
      "contractAddress": "0x01d34d7ef3988c5b981ee06bf0ba4485bd8ea20c",
      "function": "pause()",
      "arguments": [],
      "transaction": {
        "from": "0xcad1a7864a108dbff67f4b8af71fab0c7a86d0b6",
        "to": "0x01d34d7ef3988c5b981ee06bf0ba4485bd8ea20c",
        "gas": "0xa2ba",
        "value": "0x0",
        "input": "0x8456cb59",
        "nonce": "0xb7",
        "chainId": "0x1"
      },
      "additionalContracts": [],
      "isFixedGasLimit": false
    },
    {
      "hash": "0xd6e2f034ca10d5973512e1f51ef2d34ab5a0ecdda3c8b7ba535a09a9f6b828a6",
      "transactionType": "CALL",
      "contractName": null,
      "contractAddress": "0x865377367054516e17014ccded1e7d814edc9ce4",
      "function": "transfer(address,uint256)",
      "arguments": [
        "0x64d3CbAB6100782a7839fC1af791027a2f1908D2",
        "6984000000000000000000"
      ],
      "transaction": {
        "from": "0xcad1a7864a108dbff67f4b8af71fab0c7a86d0b6",
        "to": "0x865377367054516e17014ccded1e7d814edc9ce4",
        "gas": "0x11622",
        "value": "0x0",
        "input": "0xa9059cbb00000000000000000000000064d3cbab6100782a7839fc1af791027a2f1908d200000000000000000000000000000000000000000000017a9a78552ea0200000",
        "nonce": "0xb8",
        "chainId": "0x1"
      },
      "additionalContracts": [],
      "isFixedGasLimit": false
    },
    {
      "hash": "0x552a77607437f8f445f871057000e31db8c310c5aef8b3bfdbb271ed85624702",
      "transactionType": "CALL",
      "contractName": null,
      "contractAddress": "0x435b0a1884bd0fb5667677c9eb0e59425b1477e5",
      "function": "setPauser(address)",
      "arguments": [
        "0xCad1a7864a108DBFF67F4b8af71fAB0C7A86D0B6"
      ],
      "transaction": {
        "from": "0xcad1a7864a108dbff67f4b8af71fab0c7a86d0b6",
        "to": "0x435b0a1884bd0fb5667677c9eb0e59425b1477e5",
        "gas": "0xb129",
        "value": "0x0",
        "input": "0x2d88af4a000000000000000000000000cad1a7864a108dbff67f4b8af71fab0c7a86d0b6",
        "nonce": "0xb9",
        "chainId": "0x1"
      },
      "additionalContracts": [],
      "isFixedGasLimit": false
    },
    {
      "hash": "0x947001f4295d869c1744c97314db2a092b96fc28689c183ee1c1d13b405d42c4",
      "transactionType": "CALL",
      "contractName": null,
      "contractAddress": "0x435b0a1884bd0fb5667677c9eb0e59425b1477e5",
      "function": "unpause()",
      "arguments": [],
      "transaction": {
        "from": "0xcad1a7864a108dbff67f4b8af71fab0c7a86d0b6",
        "to": "0x435b0a1884bd0fb5667677c9eb0e59425b1477e5",
        "gas": "0x95d7",
        "value": "0x0",
        "input": "0x3f4ba83a",
        "nonce": "0xba",
        "chainId": "0x1"
      },
      "additionalContracts": [],
      "isFixedGasLimit": false
    },
    {
      "hash": "0x3447d4cc9f523a7b93be9c0bb76bb14170ad7396b5d45289939507764afd56dd",
      "transactionType": "CREATE",
      "contractName": "AutoPoolYieldStrategy",
      "contractAddress": "0x5cbad8c3a18f37bc829e319533927a57d2bc99a4",
      "function": null,
      "arguments": [
        "0xCad1a7864a108DBFF67F4b8af71fAB0C7A86D0B6",
        "0x865377367054516e17014CcdED1e7d814EDC9ce4",
        "0x2e9d63788249371f1DFC918a52f8d799F4a38C94",
        "0x79eB84B5E30Ef2481c8f00fD0Aa7aAd6Ac0AA54d",
        "0xDC39C67b38ecdA8a1974336c89B00F68667c91B7"
      ],
      "transaction": {
        "from": "0xcad1a7864a108dbff67f4b8af71fab0c7a86d0b6",
        "gas": "0x406bf3",
        "value": "0x0",
        "input": "0x610100806040523461047d5760a081613cb280380380916100208285610481565b83398101031261047d57610033816104b8565b61003f602083016104b8565b9061004c604084016104b8565b91610065608061005e606087016104b8565b95016104b8565b916001600160a01b0316801561046a575f80546001600160a01b03198116831782556001600160a01b0316907f8be0079c531659141344cd1fd0a4f28419497f9722a3daafe3b4186f6b6457e09080a360017f9b779b17422d0df92223018b32b4d1fa46e071723d6817e2486d003becc55f00556001600160a01b03169182156103ff576001600160a01b0316928315610394576001600160a01b0316908115610329576001600160a01b03169283156102be57826020915f9460805260a0528260c0528460e05260446040518095819363095ea7b360e01b8352866004840152811960248401525af18015610298575f936020936044926102a3575b50604051948593849263095ea7b360e01b84526004840152811960248401525af1801561029857610269575b6040516137cd90816104e58239608051818181610295015281816109100152818161117401528181611511015281816115cc01528181611c81015281816129dd01528181612f3b0152613459015260a051818181611f4901526121b0015260c05181818161034a01528181610a870152818161105e015281816111d9015281816116f401528181611b680152818161302001526135d2015260e05181818161042f015281816109cf015281816115550152818161163e01528181611b0d0152818161224e0152818161298501528181612fb301526134b00152f35b61028a9060203d602011610291575b6102828183610481565b8101906104cc565b505f61018e565b503d610278565b6040513d5f823e3d90fd5b6102b990853d8711610291576102828183610481565b610162565b60405162461bcd60e51b815260206004820152603a60248201527f4175746f506f6f6c5969656c6453747261746567793a204d61696e526577617260448201527f6465722063616e6e6f74206265207a65726f20616464726573730000000000006064820152608490fd5b60405162461bcd60e51b815260206004820152603c60248201527f4175746f506f6f6c5969656c6453747261746567793a206175746f706f6f6c2060448201527f7661756c742063616e6e6f74206265207a65726f2061646472657373000000006064820152608490fd5b60405162461bcd60e51b815260206004820152603860248201527f4175746f506f6f6c5969656c6453747261746567793a20544f4b4520746f6b6560448201527f6e2063616e6e6f74206265207a65726f206164647265737300000000000000006064820152608490fd5b60405162461bcd60e51b815260206004820152603e60248201527f4175746f506f6f6c5969656c6453747261746567793a20756e6465726c79696e60448201527f6720746f6b656e2063616e6e6f74206265207a65726f206164647265737300006064820152608490fd5b631e4fbdf760e01b5f525f60045260245ffd5b5f80fd5b601f909101601f19168101906001600160401b038211908210176104a457604052565b634e487b7160e01b5f52604160045260245ffd5b51906001600160a01b038216820361047d57565b9081602091031261047d5751801515810361047d579056fe6080806040526004361015610012575f80fd5b5f905f3560e01c9081630c9c31bd14612a01575080632495a599146129be578063279de4af1461293a5780632d88af4a146128bb57806332e4036d146124065780633b45fb6a1461216f5780633e65164a146121525780633f4ba83a146120265780633fd8d15b14611fe957806340cf018e14611f6d5780634e67b54b14611f2a5780635312ea8e14611adb5780635c975abb14611ab6578063619cbd8214611a7957806369328dec146115795780636b8f2d2d146115355780636f307dc3146114f15780636f85c7e4146114d3578063715018a61461146257806382c3b9651461137e5780638456cb591461127f57806384d10bff1461124a5780638da5cb5b146112245780639fd0506d146111fd578063b9417a7f146111b9578063be875e4f1461113e578063c2cda70014611097578063d5002f2e14611029578063edca201b14610806578063f2f3d092146107e6578063f2fde38b14610730578063f45346dc1461025c5763f7888aec14610189575f80fd5b34610259576040600319360112610259576101f99060206101a8612a35565b6101b0612a4b565b6040517fbe875e4f0000000000000000000000000000000000000000000000000000000081526001600160a01b0392831660048201529116602482015292839081906044820190565b0381305afa90811561024d5790610216575b602090604051908152f35b506020813d602011610245575b8161023060209383612ad7565b81010312610241576020905161020b565b5f80fd5b3d9150610223565b604051903d90823e3d90fd5b80fd5b50346102595761026b36612a90565b338452600260205261028360ff604086205416612d16565b61028b613133565b6102936131aa565b7f00000000000000000000000000000000000000000000000000000000000000006001600160a01b03808083169516926102ce868514612d87565b6102d9851515612df8565b16936102e6851515612c27565b604051917f23b872dd00000000000000000000000000000000000000000000000000000000875233600452306024528460445260208760648180855af1906001885114821615610711575b508260405286606052156106e657506001600160a01b037f000000000000000000000000000000000000000000000000000000000000000016906370a0823160e01b8152306004820152602081602481855afa9081156106db5786916106a9575b506040517f6e553f6500000000000000000000000000000000000000000000000000000000815260048101859052306024820152916020836044818a855af1928315610669578793610674575b506020602491604051928380926370a0823160e01b82523060048301525afa9081156106695783908892610633575b506104199192612aca565b036105c957801561055f57846001600160a01b037f000000000000000000000000000000000000000000000000000000000000000016803b1561055b576040517fadc9772e000000000000000000000000000000000000000000000000000000008152306004820152602481018490529082908290604490829084905af1801561055057610537575b50829052600560205260408520845f5260205260405f206104c4848254612aca565b90558185526006602052604085206104dd848254612aca565b905560405192835260208301527fb045190548dadae679cfe9e337437613ca6dd73efdf984f75e56f152ccee22f060403393a460017f9b779b17422d0df92223018b32b4d1fa46e071723d6817e2486d003becc55f005580f35b8161054191612ad7565b61054c57845f6104a2565b8480fd5b6040513d84823e3d90fd5b5080fd5b608460405162461bcd60e51b815260206004820152602960248201527f4175746f506f6f6c5969656c6453747261746567793a206e6f2073686172657360448201527f20726563656976656400000000000000000000000000000000000000000000006064820152fd5b608460405162461bcd60e51b815260206004820152603160248201527f4175746f506f6f6c5969656c6453747261746567793a2073686172652063616c60448201527f63756c6174696f6e206d69736d617463680000000000000000000000000000006064820152fd5b9150506020813d602011610661575b8161064f60209383612ad7565b8101031261024157518261041961040e565b3d9150610642565b6040513d89823e3d90fd5b9092506020813d6020116106a1575b8161069060209383612ad7565b8101031261024157519160206103df565b3d9150610683565b90506020813d6020116106d3575b816106c460209383612ad7565b8101031261024157515f610392565b3d91506106b7565b6040513d88823e3d90fd5b7f5274afe7000000000000000000000000000000000000000000000000000000008652600452602485fd5b6001821516610727573b15153d1516165f610331565b833d89823e3d90fd5b5034610259576020600319360112610259576001600160a01b03610752612a35565b61075a6130f4565b1680156107ba576001600160a01b038254827fffffffffffffffffffffffff00000000000000000000000000000000000000008216178455167f8be0079c531659141344cd1fd0a4f28419497f9722a3daafe3b4186f6b6457e08380a380f35b6024827f1e4fbdf700000000000000000000000000000000000000000000000000000000815280600452fd5b50346102595780600319360112610259575060206203f480604051908152f35b503461025957608060031936011261025957610820612a35565b610828612a4b565b604435916064356001600160a01b0381169283820361102557338652600360205260ff60408720541615610fbb5761085e613133565b6108666131aa565b6001600160a01b0383169261087c841515612b45565b6001600160a01b03821694610892861515612bb6565b15610f51576108a2861515612ca5565b6040517ff7888aec0000000000000000000000000000000000000000000000000000000081526001600160a01b03828116600483015283166024820152602081604481305afa8015610f465787918991610f11575b5010610ea7576020610999926109376001600160a01b037f0000000000000000000000000000000000000000000000000000000000000000168714612d87565b8589526005825260408920875f52825260405f20549260405194859283927f84d10bff000000000000000000000000000000000000000000000000000000008452600484019092916001600160a01b0360209181604085019616845216910152565b0381305afa918215610669578792610e73575b5080821115610e6b576109be91612c98565b8411610ddb57846001600160a01b037f0000000000000000000000000000000000000000000000000000000000000000166040516370a0823160e01b8152306004820152602081602481855afa908115610ccd578391610da6575b50610a25811515612e69565b813b15610c9257604051907fead5d3590000000000000000000000000000000000000000000000000000000082523060048301526024820152826044820152828160648183865af1908115610ccd578391610d91575b50506001600160a01b037f0000000000000000000000000000000000000000000000000000000000000000166040517fc6e6f592000000000000000000000000000000000000000000000000000000008152876004820152602081602481855afa908115610d0f578491610d5c575b506040516370a0823160e01b815230600482015281602082602481875afa9182156106db578692610d22575b509181602092610b769411610d1a575b506040517fba08765200000000000000000000000000000000000000000000000000000000815260048101919091526001600160a01b038716602482015230604482015291829081906064820190565b038187865af18015610d0f57610cd8575b50906020602492604051938480926370a0823160e01b82523060048301525afa918215610ccd578392610c96575b5081610c24575b5050604080519586526001600160a01b039290921660208601525033937fe477d5c3275bb904b2e1db39d16a69b38b163bed956dd35d7da3d5285a210f5f9190a460017f9b779b17422d0df92223018b32b4d1fa46e071723d6817e2486d003becc55f005580f35b803b15610c92576040517fadc9772e000000000000000000000000000000000000000000000000000000008152306004820152602481019290925282908290604490829084905af1801561055057610c7d575b80610bbc565b81610c8791612ad7565b61054c57845f610c77565b8280fd5b925090506020823d602011610cc5575b81610cb360209383612ad7565b8101031261024157869151905f610bb5565b3d9150610ca6565b6040513d85823e3d90fd5b9250906020833d602011610d07575b81610cf460209383612ad7565b8101031261024157879250906020610b87565b3d9150610ce7565b6040513d86823e3d90fd5b90505f610b26565b91509194506020813d602011610d54575b81610d4060209383612ad7565b810103126102415751899491610b76610b16565b3d9150610d33565b9350506020833d602011610d89575b81610d7860209383612ad7565b81010312610241578792515f610aea565b3d9150610d6b565b81610d9b91612ad7565b61055b57815f610a7b565b9250506020823d602011610dd3575b81610dc260209383612ad7565b81010312610241578691515f610a19565b3d9150610db5565b60a460405162461bcd60e51b815260206004820152605c60248201527f4175746f506f6f6c5969656c6453747261746567793a20616d6f756e7420657860448201527f636565647320617661696c61626c6520737572706c75732c2075736520746f7460648201527f616c5769746864726177616c282920666f72207072696e636970616c000000006084820152fd5b5050846109be565b9091506020813d602011610e9f575b81610e8f60209383612ad7565b810103126102415751905f6109ac565b3d9150610e82565b608460405162461bcd60e51b815260206004820152602b60248201527f415969656c6453747261746567793a20696e73756666696369656e7420636c6960448201527f656e742062616c616e63650000000000000000000000000000000000000000006064820152fd5b9150506020813d602011610f3e575b81610f2d60209383612ad7565b81010312610241578690515f6108f7565b3d9150610f20565b6040513d8a823e3d90fd5b608460405162461bcd60e51b815260206004820152603060248201527f415969656c6453747261746567793a20726563697069656e742063616e6e6f7460448201527f206265207a65726f2061646472657373000000000000000000000000000000006064820152fd5b608460405162461bcd60e51b815260206004820152603960248201527f415969656c6453747261746567793a20756e617574686f72697a65642c206f6e60448201527f6c7920617574686f72697a6564207769746864726177657273000000000000006064820152fd5b8580fd5b5034610259578060031936011261025957604051906370a0823160e01b82523060048301526020826024816001600160a01b037f0000000000000000000000000000000000000000000000000000000000000000165afa90811561024d579061021657602090604051908152f35b5034610259576040600319360112610259576110b1612a35565b6001600160a01b036110c1612a4b565b9116825260046020526001600160a01b036040832091165f5260205260405f20805490600260ff600183015416910154906040519283526004811015611111576060935060208301526040820152f35b6024847f4e487b710000000000000000000000000000000000000000000000000000000081526021600452fd5b5034610259576040600319360112610259576001600160a01b036040611162612a35565b928261116c612a4b565b941661119b847f0000000000000000000000000000000000000000000000000000000000000000168214612d87565b815260056020522091165f52602052602060405f2054604051908152f35b503461025957806003193601126102595760206040516001600160a01b037f0000000000000000000000000000000000000000000000000000000000000000168152f35b503461025957806003193601126102595760206001600160a01b0360015416604051908152f35b50346102595780600319360112610259576001600160a01b036020915416604051908152f35b5034610259576040600319360112610259576020611277611269612a35565b611271612a4b565b90612f24565b604051908152f35b50346102595780600319360112610259576001600160a01b03600154163303611314576112aa6131aa565b740100000000000000000000000000000000000000007fffffffffffffffffffffff00ffffffffffffffffffffffffffffffffffffffff8254161781557f62e78cea01bee320cd4e420270b5ea74000d11b0c9f74754ebdbfc544b05a2586020604051338152a180f35b608460405162461bcd60e51b815260206004820152602860248201527f415969656c6453747261746567793a2063616c6c6572206973206e6f7420746860448201527f65207061757365720000000000000000000000000000000000000000000000006064820152fd5b5034610259576001600160a01b0361139536612a61565b919061139f6130f4565b169081156113f85760207f5c8df9226b5390a36c31cb0bb75ccd51f1106fc9c93332f6305e2a4a7ae4e77191838552600382526113ec81604087209060ff60ff1983541691151516179055565b6040519015158152a280f35b608460405162461bcd60e51b815260206004820152603160248201527f415969656c6453747261746567793a20776974686472617765722063616e6e6f60448201527f74206265207a65726f20616464726573730000000000000000000000000000006064820152fd5b503461025957806003193601126102595761147b6130f4565b806001600160a01b0381547fffffffffffffffffffffffff000000000000000000000000000000000000000081168355167f8be0079c531659141344cd1fd0a4f28419497f9722a3daafe3b4186f6b6457e08280a380f35b50346102595780600319360112610259576020604051620151808152f35b503461025957806003193601126102595760206040516001600160a01b037f0000000000000000000000000000000000000000000000000000000000000000168152f35b503461025957806003193601126102595760206040516001600160a01b037f0000000000000000000000000000000000000000000000000000000000000000168152f35b50346102595761158836612a90565b91909133845260026020526115a360ff604086205416612d16565b6115ab613133565b6115b36131aa565b6001600160a01b03839216906115f36001600160a01b037f0000000000000000000000000000000000000000000000000000000000000000168314612d87565b6115fe841515612df8565b6001600160a01b03811693611614851515612c27565b828652600560205260408620855f5260205260405f2054809111611a71575b506001600160a01b037f00000000000000000000000000000000000000000000000000000000000000001692856040516370a0823160e01b8152306004820152602081602481895afa908115610550578291611a3c575b50611696811515612e69565b853b1561055b57604051907fead5d35900000000000000000000000000000000000000000000000000000000825230600483015260248201528160448201528181606481838a5af1801561055057611a27575b506001600160a01b037f00000000000000000000000000000000000000000000000000000000000000001694604051957fc6e6f592000000000000000000000000000000000000000000000000000000008752836004880152602087602481845afa968715610ccd5783976119f0575b5086946040516370a0823160e01b8152306004820152602081602481865afa9081156119e55785916119ac575b50806117e599116119a3575b506040517fba087652000000000000000000000000000000000000000000000000000000008152600481018790526001600160a01b03909116602482015230604482015296602090889081906064820190565b038186855af1968715610ccd578397611969575b50906020602492604051938480926370a0823160e01b82523060048301525afa918215610ccd578392611932575b50816118c4575b5050839052600560205260408620855f5260205260405f20611851828254612c98565b9055828652600660205261186a60408720918254612c98565b905560405192835260208301527f144f5f62c08d623a6f383205dc8d5ef825b693748e2977846e18121b6780413a60403393a460017f9b779b17422d0df92223018b32b4d1fa46e071723d6817e2486d003becc55f005580f35b803b15610c92576040517fadc9772e000000000000000000000000000000000000000000000000000000008152306004820152602481019290925282908290604490829084905af180156105505761191d575b8061182e565b8161192791612ad7565b61102557855f611917565b925090506020823d602011611961575b8161194f60209383612ad7565b8101031261024157879151905f611827565b3d9150611942565b91925095506020813d60201161199b575b8161198760209383612ad7565b8101031261024157519487919060206117f9565b3d915061197a565b95506020611792565b9450506020843d6020116119dd575b816119c860209383612ad7565b810103126102415792518993906117e5611786565b3d91506119bb565b6040513d87823e3d90fd5b925095506020823d602011611a1f575b81611a0d60209383612ad7565b8101031261024157879151955f611759565b3d9150611a00565b81611a3191612ad7565b61102557855f6116e9565b9150506020813d602011611a69575b81611a5860209383612ad7565b81010312610241578690515f61168a565b3d9150611a4b565b92505f611633565b50346102595760206003193601126102595760ff60406020926001600160a01b03611aa2612a35565b168152600284522054166040519015158152f35b503461025957806003193601126102595760ff6020915460a01c166040519015158152f35b503461024157602060031936011261024157600435611af86130f4565b611b03811515612ca5565b6001600160a01b037f0000000000000000000000000000000000000000000000000000000000000000166040516370a0823160e01b8152306004820152602081602481855afa908115611d97575f91611ef8575b508015611e8e576001600160a01b037f00000000000000000000000000000000000000000000000000000000000000001690604051907f07a2d13a000000000000000000000000000000000000000000000000000000008252806004830152602082602481865afa918215611d97575f92611e5a575b50908410611dde575b604051926370a0823160e01b8452306004850152602084602481845afa8015611d975786945f91611da9575b5080611d10575b50506040517fba087652000000000000000000000000000000000000000000000000000000008152600481019190915230602482018190526044820152916020918391829081606481015b03925af1908115610ccd578391611cde575b5081811015611cd457611ca5905b6001600160a01b038454167f000000000000000000000000000000000000000000000000000000000000000061339f565b6040519081527f5fafa99d0643513820be26656b45130b01e1c03062e1266bf36f88cbd3bd969560203392a280f35b50611ca581611c74565b90506020813d602011611d08575b81611cf960209383612ad7565b8101031261024157515f611c66565b3d9150611cec565b929350909180831115611da2575b813b15610241575f916064839260405194859384927fead5d35900000000000000000000000000000000000000000000000000000000845230600485015260248401528160448401525af18015611d9757611d7e575b9081859392611c09565b611d8c919294505f90612ad7565b5f9290611c54611d74565b6040513d5f823e3d90fd5b5081611d1e565b9450506020843d602011611dd6575b81611dc560209383612ad7565b81010312610241578593515f611c02565b3d9150611db8565b506040517fc6e6f592000000000000000000000000000000000000000000000000000000008152836004820152602081602481855afa908115611d97575f91611e28575b50611bd6565b90506020813d602011611e52575b81611e4360209383612ad7565b8101031261024157515f611e22565b3d9150611e36565b9091506020813d602011611e86575b81611e7660209383612ad7565b810103126102415751905f611bcd565b3d9150611e69565b608460405162461bcd60e51b815260206004820152602c60248201527f4175746f506f6f6c5969656c6453747261746567793a206e6f2073686172657360448201527f20746f20776974686472617700000000000000000000000000000000000000006064820152fd5b90506020813d602011611f22575b81611f1360209383612ad7565b8101031261024157515f611b57565b3d9150611f06565b34610241575f6003193601126102415760206040516001600160a01b037f0000000000000000000000000000000000000000000000000000000000000000168152f35b34610241576001600160a01b037f50b24d98d3da51f5db279e5872fa50584b172048aa9bfa6c6edb4d0cfbb4dc586020611fa636612a61565b9390611fb06130f4565b1692611fbd841515612bb6565b835f5260028252611fde8160405f209060ff60ff1983541691151516179055565b6040519015158152a2005b34610241576020600319360112610241576001600160a01b0361200a612a35565b165f526003602052602060ff60405f2054166040519015158152f35b34610241575f600319360112610241575f546001600160a01b0381163314801561213e575b156120d45760ff8160a01c16156120ac577fffffffffffffffffffffff00ffffffffffffffffffffffffffffffffffffffff165f557f5db9ee0a495bf2e6ff9c91a7834c1ba4fdd244a5e8aa4e537bd38aeae4b073aa6020604051338152a1005b7f8dfc202b000000000000000000000000000000000000000000000000000000005f5260045ffd5b608460405162461bcd60e51b815260206004820152603160248201527f415969656c6453747261746567793a2063616c6c6572206973206e6f7420746860448201527f65206f776e6572206f72207061757365720000000000000000000000000000006064820152fd5b506001600160a01b0360015416331461204b565b34610241575f6003193601126102415760206040516202a3008152f35b3461024157602060031936011261024157612188612a35565b6121906130f4565b6121986131aa565b6001600160a01b038116906121ae821515612c27565b7f00000000000000000000000000000000000000000000000000000000000000006001600160a01b0381166040516370a0823160e01b8152306004820152602081602481855afa908115611d97575f916123d4575b506040517fc5285794000000000000000000000000000000000000000000000000000000008152306004820152306024820152600160448201526020816064815f6001600160a01b037f0000000000000000000000000000000000000000000000000000000000000000165af1908115611d97575f91612396575b506020602493604051948580926370a0823160e01b82523060048301525afa928315611d97575f93612362575b50156122f8576122ba91612c98565b806122c157005b6122ef817f0ba10a92a366fd94756934024c039e809750949a52e2dda82d0c4ed0d3680b9e9460209461339f565b604051908152a2005b608460405162461bcd60e51b815260206004820152602f60248201527f4175746f506f6f6c5969656c6453747261746567793a20544f4b45207265776160448201527f726420636c61696d206661696c656400000000000000000000000000000000006064820152fd5b9092506020813d60201161238e575b8161237e60209383612ad7565b81010312610241575191866122ab565b3d9150612371565b90506020813d6020116123cc575b816123b160209383612ad7565b8101031261024157519182151583036102415791602061227e565b3d91506123a4565b90506020813d6020116123fe575b816123ef60209383612ad7565b81010312610241575185612203565b3d91506123e2565b346102415760406003193601126102415761241f612a35565b612427612a4b565b61242f6130f4565b612437613133565b61243f6131aa565b6001600160a01b03821690612455821515612b45565b6001600160a01b0381169261246b841515612bb6565b825f52600460205260405f20845f5260205260405f2091600183019160ff8354166004811015612820576001810361288e575083546201518081018082116125b357421015612859575b505b60ff835416600481101580612820578115801561284d575b1561267e5750506040517ff7888aec0000000000000000000000000000000000000000000000000000000081526001600160a01b039182166004820152911660248201529190602083604481305afa928315611d97575f9361264a575b5082156125e0578291600291428255600160ff1982541617905501556201518042018042116125b3577fd9fbd8fe4451ae979e36c7923543e61b94e26b6f1510866805ee90023a61aa21916060916040519182524260208301526040820152a35b60017f9b779b17422d0df92223018b32b4d1fa46e071723d6817e2486d003becc55f0055005b7f4e487b71000000000000000000000000000000000000000000000000000000005f52601160045260245ffd5b608460405162461bcd60e51b815260206004820152602660248201527f415969656c6453747261746567793a206e6f2062616c616e636520746f20776960448201527f74686472617700000000000000000000000000000000000000000000000000006064820152fd5b9092506020813d602011612676575b8161266660209383612ad7565b810103126102415751918561252c565b3d9150612659565b61282057600281036126e0575060409284926126cf925f60027ff3a071e0cb05fb8cf5dacdf1fece8c01159996730fede84a47826645bd67a63e980181815497889660ff198154169055555561344f565b8151908152426020820152a361258d565b93955050505060019150146126f5575061258d565b546201518081018091116125b35761270c9061321a565b60446040516127ca606d826020808201967f415969656c6453747261746567793a207769746864726177616c207374696c6c88527f20696e2077616974696e6720706572696f642c2065786563757461626c65206160408401527f742074696d657374616d703a200000000000000000000000000000000000000060608401528051918291018484015e81015f8382015203017fffffffffffffffffffffffffffffffffffffffffffffffffffffffffffffffe08101835282612ad7565b7fffffffffffffffffffffffffffffffffffffffffffffffffffffffffffffffe0601f60405194859362461bcd60e51b8552602060048601525180918160248701528686015e5f85828601015201168101030190fd5b7f4e487b71000000000000000000000000000000000000000000000000000000005f52602160045260245ffd5b50505f600382146124cf565b6203f48081018091116125b357421161287e57600260ff198454161783555b866124b5565b600360ff19845416178355612878565b6002036124b75783546203f48081018091116125b3574211156124b757600360ff198454161783556124b7565b34610241576020600319360112610241576128d4612a35565b6128dc6130f4565b6001600160a01b0380600154921691827fffffffffffffffffffffffff0000000000000000000000000000000000000000821617600155167f5dcaa27e7d9a9fdd8d01662749f4c51d8a9d7933cc5c31bc05ce70aef865d0045f80a3005b34610241575f600319360112610241576040517e8cc2620000000000000000000000000000000000000000000000000000000081523060048201526020816024816001600160a01b037f0000000000000000000000000000000000000000000000000000000000000000165afa8015611d97575f9061021657602090604051908152f35b34610241575f6003193601126102415760206040516001600160a01b037f0000000000000000000000000000000000000000000000000000000000000000168152f35b34610241576020600319360112610241576020906001600160a01b03612a25612a35565b165f526006825260405f20548152f35b600435906001600160a01b038216820361024157565b602435906001600160a01b038216820361024157565b6003196040910112610241576004356001600160a01b0381168103610241579060243580151581036102415790565b6003196060910112610241576004356001600160a01b03811681036102415790602435906044356001600160a01b03811681036102415790565b919082018092116125b357565b90601f7fffffffffffffffffffffffffffffffffffffffffffffffffffffffffffffffe0910116810190811067ffffffffffffffff821117612b1857604052565b7f4e487b71000000000000000000000000000000000000000000000000000000005f52604160045260245ffd5b15612b4c57565b608460405162461bcd60e51b815260206004820152602c60248201527f415969656c6453747261746567793a20746f6b656e2063616e6e6f742062652060448201527f7a65726f206164647265737300000000000000000000000000000000000000006064820152fd5b15612bbd57565b608460405162461bcd60e51b815260206004820152602d60248201527f415969656c6453747261746567793a20636c69656e742063616e6e6f7420626560448201527f207a65726f2061646472657373000000000000000000000000000000000000006064820152fd5b15612c2e57565b608460405162461bcd60e51b815260206004820152603760248201527f4175746f506f6f6c5969656c6453747261746567793a20726563697069656e7460448201527f2063616e6e6f74206265207a65726f20616464726573730000000000000000006064820152fd5b919082039182116125b357565b15612cac57565b608460405162461bcd60e51b815260206004820152603060248201527f415969656c6453747261746567793a20616d6f756e74206d757374206265206760448201527f726561746572207468616e207a65726f000000000000000000000000000000006064820152fd5b15612d1d57565b608460405162461bcd60e51b815260206004820152603560248201527f415969656c6453747261746567793a20756e617574686f72697a65642c206f6e60448201527f6c7920617574686f72697a656420636c69656e747300000000000000000000006064820152fd5b15612d8e57565b608460405162461bcd60e51b815260206004820152603660248201527f4175746f506f6f6c5969656c6453747261746567793a206f6e6c7920756e646560448201527f726c79696e6720746f6b656e20737570706f72746564000000000000000000006064820152fd5b15612dff57565b608460405162461bcd60e51b815260206004820152603760248201527f4175746f506f6f6c5969656c6453747261746567793a20616d6f756e74206d7560448201527f73742062652067726561746572207468616e207a65726f0000000000000000006064820152fd5b15612e7057565b608460405162461bcd60e51b815260206004820152602a60248201527f4175746f506f6f6c5969656c6453747261746567793a206e6f2073686172657360448201527f20617661696c61626c65000000000000000000000000000000000000000000006064820152fd5b818102929181159184041417156125b357565b8115612ef7570490565b7f4e487b71000000000000000000000000000000000000000000000000000000005f52601260045260245ffd5b6001600160a01b031690612f626001600160a01b037f0000000000000000000000000000000000000000000000000000000000000000168314612d87565b815f5260056020526001600160a01b0360405f2091165f5260205260405f205490811580156130e0575b6130da576040516370a0823160e01b81523060048201526020816024816001600160a01b037f0000000000000000000000000000000000000000000000000000000000000000165afa908115611d97575f916130a8575b50604051907f07a2d13a00000000000000000000000000000000000000000000000000000000825260048201526020816024816001600160a01b037f0000000000000000000000000000000000000000000000000000000000000000165afa908115611d97575f91613074575b506130719261305e91612eda565b905f52600660205260405f205490612eed565b90565b90506020813d6020116130a0575b8161308f60209383612ad7565b810103126102415751613071613050565b3d9150613082565b90506020813d6020116130d2575b816130c360209383612ad7565b8101031261024157515f612fe3565b3d91506130b6565b50505f90565b50805f52600660205260405f205415612f8c565b6001600160a01b035f5416330361310757565b7f118cdaa7000000000000000000000000000000000000000000000000000000005f523360045260245ffd5b60027f9b779b17422d0df92223018b32b4d1fa46e071723d6817e2486d003becc55f0054146131825760027f9b779b17422d0df92223018b32b4d1fa46e071723d6817e2486d003becc55f0055565b7f3ee5aeb5000000000000000000000000000000000000000000000000000000005f5260045ffd5b60ff5f5460a01c166131b857565b7fd93c0665000000000000000000000000000000000000000000000000000000005f5260045ffd5b67ffffffffffffffff8111612b1857601f017fffffffffffffffffffffffffffffffffffffffffffffffffffffffffffffffe01660200190565b8015613363575f81805b61332d5750613232816131e0565b906132406040519283612ad7565b8082527fffffffffffffffffffffffffffffffffffffffffffffffffffffffffffffffe061326d826131e0565b013660208401375b80928015613326577fffffffffffffffffffffffffffffffffffffffffffffffffffffffffffffffff82019182116125b3578193600a820660300192836030116125b357845111156132f957601f7fff00000000000000000000000000000000000000000000000000000000000000600a9460f81b165f1a91850101530491613275565b7f4e487b71000000000000000000000000000000000000000000000000000000005f52603260045260245ffd5b5050905090565b907fffffffffffffffffffffffffffffffffffffffffffffffffffffffffffffffff81146125b3576001600a9101910480613224565b50604051613372604082612ad7565b600181527f3000000000000000000000000000000000000000000000000000000000000000602082015290565b916001600160a01b03604051927fa9059cbb000000000000000000000000000000000000000000000000000000005f521660045260245260205f60448180865af19060015f511482161561342e575b604052156133f95750565b6001600160a01b03907f5274afe7000000000000000000000000000000000000000000000000000000005f521660045260245ffd5b90600181151661344657823b15153d151616906133ee565b503d5f823e3d90fd5b6001600160a01b037f000000000000000000000000000000000000000000000000000000000000000091169261348f6001600160a01b0383168514612d87565b61349b5f911515612df8565b6040516370a0823160e01b81523060048201527f00000000000000000000000000000000000000000000000000000000000000006001600160a01b031693602082602481885afa918215611d97575f92613763575b508115801561374f575b61374757855f52600560205260405f206001600160a01b0382165f5260205261353e61352b60405f20548094612eda565b875f52600660205260405f205490612eed565b8061354d575b50505050505050565b6040516370a0823160e01b81523060048201526020816024818a5afa908115611d97575f91613715575b5080613694575b506040517fba087652000000000000000000000000000000000000000000000000000000008152600481019190915230602482018190526044820152945060208580606481015b0381866001600160a01b037f0000000000000000000000000000000000000000000000000000000000000000165af1948515610ccd578395613658575b509085839261364c976001600160a01b0395526005602052846040852091165f526020528260405f20558252600660205261364260408320918254612c98565b905554169061339f565b5f808080808080613544565b92919094506020833d60201161368c575b8161367660209383612ad7565b810103126102415791519390919061364c613602565b3d9150613669565b8082111561370e575b863b15610241575f9660648892604051998a9384927fead5d35900000000000000000000000000000000000000000000000000000000845230600485015260248401528160448401525af1958615611d97576135c5961561357e576137059194505f90612ad7565b5f92602061357e565b508061369d565b90506020813d60201161373f575b8161373060209383612ad7565b8101031261024157515f613577565b3d9150613723565b505050505050565b50855f52600660205260405f2054156134fa565b9091506020813d60201161378f575b8161377f60209383612ad7565b810103126102415751905f6134f0565b3d915061377256fea2646970667358221220fefc29f9d2691c0766142b4a992cdf9e30265604055bb0d1627cd2b21786e83e64736f6c634300081e0033000000000000000000000000cad1a7864a108dbff67f4b8af71fab0c7a86d0b6000000000000000000000000865377367054516e17014ccded1e7d814edc9ce40000000000000000000000002e9d63788249371f1dfc918a52f8d799f4a38c9400000000000000000000000079eb84b5e30ef2481c8f00fd0aa7aad6ac0aa54d000000000000000000000000dc39c67b38ecda8a1974336c89b00f68667c91b7",
        "nonce": "0xbb",
        "chainId": "0x1"
      },
      "additionalContracts": [],
      "isFixedGasLimit": false
    },
    {
      "hash": "0x944bb208f47d2708403c45bf32792317779b152b4b8b02f10233a395f804ef9f",
      "transactionType": "CALL",
      "contractName": "AutoPoolYieldStrategy",
      "contractAddress": "0x5cbad8c3a18f37bc829e319533927a57d2bc99a4",
      "function": "setClient(address,bool)",
      "arguments": [
        "0x435B0A1884bd0fb5667677C9eb0e59425b1477E5",
        "true"
      ],
      "transaction": {
        "from": "0xcad1a7864a108dbff67f4b8af71fab0c7a86d0b6",
        "to": "0x5cbad8c3a18f37bc829e319533927a57d2bc99a4",
        "gas": "0x1025c",
        "value": "0x0",
        "input": "0x40cf018e000000000000000000000000435b0a1884bd0fb5667677c9eb0e59425b1477e50000000000000000000000000000000000000000000000000000000000000001",
        "nonce": "0xbc",
        "chainId": "0x1"
      },
      "additionalContracts": [],
      "isFixedGasLimit": false
    },
    {
      "hash": "0x836043327a1ccfe573254455200ea12e710ab0ee2dd832a0eea8dc27e7f6432b",
      "transactionType": "CALL",
      "contractName": null,
      "contractAddress": "0x435b0a1884bd0fb5667677c9eb0e59425b1477e5",
      "function": "registerStablecoin(address,address,uint256,uint8)",
      "arguments": [
        "0x865377367054516e17014CcdED1e7d814EDC9ce4",
        "0x5cBAd8c3a18F37BC829e319533927a57d2BC99a4",
        "1000000000000000000",
        "18"
      ],
      "transaction": {
        "from": "0xcad1a7864a108dbff67f4b8af71fab0c7a86d0b6",
        "to": "0x435b0a1884bd0fb5667677c9eb0e59425b1477e5",
        "gas": "0x144ce",
        "value": "0x0",
        "input": "0x13c7e33c000000000000000000000000865377367054516e17014ccded1e7d814edc9ce40000000000000000000000005cbad8c3a18f37bc829e319533927a57d2bc99a40000000000000000000000000000000000000000000000000de0b6b3a76400000000000000000000000000000000000000000000000000000000000000000012",
        "nonce": "0xbd",
        "chainId": "0x1"
      },
      "additionalContracts": [],
      "isFixedGasLimit": false
    },
    {
      "hash": "0x5be4883f709850be56df6b1388b43429a7625a041ae2db2058ff4c43ae363b28",
      "transactionType": "CALL",
      "contractName": null,
      "contractAddress": "0x435b0a1884bd0fb5667677c9eb0e59425b1477e5",
      "function": "approveYS(address,address)",
      "arguments": [
        "0x865377367054516e17014CcdED1e7d814EDC9ce4",
        "0x5cBAd8c3a18F37BC829e319533927a57d2BC99a4"
      ],
      "transaction": {
        "from": "0xcad1a7864a108dbff67f4b8af71fab0c7a86d0b6",
        "to": "0x435b0a1884bd0fb5667677c9eb0e59425b1477e5",
        "gas": "0x12165",
        "value": "0x0",
        "input": "0xa5546712000000000000000000000000865377367054516e17014ccded1e7d814edc9ce40000000000000000000000005cbad8c3a18f37bc829e319533927a57d2bc99a4",
        "nonce": "0xbe",
        "chainId": "0x1"
      },
      "additionalContracts": [],
      "isFixedGasLimit": false
    },
    {
      "hash": "0xc9712b65152b09dd3e36c88164959b42d365fc44401f16b1315351e02295750c",
      "transactionType": "CALL",
      "contractName": null,
      "contractAddress": "0x865377367054516e17014ccded1e7d814edc9ce4",
      "function": "approve(address,uint256)",
      "arguments": [
        "0x435B0A1884bd0fb5667677C9eb0e59425b1477E5",
        "13297379733588004858818"
      ],
      "transaction": {
        "from": "0xcad1a7864a108dbff67f4b8af71fab0c7a86d0b6",
        "to": "0x865377367054516e17014ccded1e7d814edc9ce4",
        "gas": "0x1079e",
        "value": "0x0",
        "input": "0x095ea7b3000000000000000000000000435b0a1884bd0fb5667677c9eb0e59425b1477e50000000000000000000000000000000000000000000002d0da36df2937746bc2",
        "nonce": "0xbf",
        "chainId": "0x1"
      },
      "additionalContracts": [],
      "isFixedGasLimit": false
    },
    {
      "hash": "0x39d23d9cf7f3ab38b1d547580ef3f2913ffb6d4ab5fc8a44bb65eedb00ed9025",
      "transactionType": "CALL",
      "contractName": null,
      "contractAddress": "0x435b0a1884bd0fb5667677c9eb0e59425b1477e5",
      "function": "noMintDeposit(address,address,uint256)",
      "arguments": [
        "0x5cBAd8c3a18F37BC829e319533927a57d2BC99a4",
        "0x865377367054516e17014CcdED1e7d814EDC9ce4",
        "13297379733588004858818"
      ],
      "transaction": {
        "from": "0xcad1a7864a108dbff67f4b8af71fab0c7a86d0b6",
        "to": "0x435b0a1884bd0fb5667677c9eb0e59425b1477e5",
        "gas": "0x7e906",
        "value": "0x0",
        "input": "0x41a93d060000000000000000000000005cbad8c3a18f37bc829e319533927a57d2bc99a4000000000000000000000000865377367054516e17014ccded1e7d814edc9ce40000000000000000000000000000000000000000000002d0da36df2937746bc2",
        "nonce": "0xc0",
        "chainId": "0x1"
      },
      "additionalContracts": [],
      "isFixedGasLimit": false
    },
    {
      "hash": "0x308d0df5088a7c8dccdef4d8bf06bbf3b8ae53fbecd846f8e059fef7e380cdc5",
      "transactionType": "CALL",
      "contractName": null,
      "contractAddress": "0xb9639e6be92033f55e6d9e375fd1c28ceedba50e",
      "function": "removeYieldStrategy(address)",
      "arguments": [
        "0x01d34d7EF3988C5b981ee06bF0Ba4485Bd8eA20C"
      ],
      "transaction": {
        "from": "0xcad1a7864a108dbff67f4b8af71fab0c7a86d0b6",
        "to": "0xb9639e6be92033f55e6d9e375fd1c28ceedba50e",
        "gas": "0xdfad",
        "value": "0x0",
        "input": "0x3a8107cf00000000000000000000000001d34d7ef3988c5b981ee06bf0ba4485bd8ea20c",
        "nonce": "0xc1",
        "chainId": "0x1"
      },
      "additionalContracts": [],
      "isFixedGasLimit": false
    },
    {
      "hash": "0x5c53d8a353ca59e69edb8a0ee1dfbc27c6ad27ab4d3d0b1ed7c016cf824c86c6",
      "transactionType": "CALL",
      "contractName": null,
      "contractAddress": "0xb9639e6be92033f55e6d9e375fd1c28ceedba50e",
      "function": "addYieldStrategy(address,address)",
      "arguments": [
        "0x5cBAd8c3a18F37BC829e319533927a57d2BC99a4",
        "0x865377367054516e17014CcdED1e7d814EDC9ce4"
      ],
      "transaction": {
        "from": "0xcad1a7864a108dbff67f4b8af71fab0c7a86d0b6",
        "to": "0xb9639e6be92033f55e6d9e375fd1c28ceedba50e",
        "gas": "0x22d5c",
        "value": "0x0",
        "input": "0x454ee0ca0000000000000000000000005cbad8c3a18f37bc829e319533927a57d2bc99a4000000000000000000000000865377367054516e17014ccded1e7d814edc9ce4",
        "nonce": "0xc2",
        "chainId": "0x1"
      },
      "additionalContracts": [],
      "isFixedGasLimit": false
    },
    {
      "hash": "0x2181b0089d303ad08e8987f3ff0ed58ade182401a6c03b0291bcaf0823286687",
      "transactionType": "CALL",
      "contractName": "AutoPoolYieldStrategy",
      "contractAddress": "0x5cbad8c3a18f37bc829e319533927a57d2bc99a4",
      "function": "setWithdrawer(address,bool)",
      "arguments": [
        "0xb9639e6Be92033F55E6D9E375Fd1C28ceEdbA50E",
        "true"
      ],
      "transaction": {
        "from": "0xcad1a7864a108dbff67f4b8af71fab0c7a86d0b6",
        "to": "0x5cbad8c3a18f37bc829e319533927a57d2bc99a4",
        "gas": "0x10371",
        "value": "0x0",
        "input": "0x82c3b965000000000000000000000000b9639e6be92033f55e6d9e375fd1c28ceedba50e0000000000000000000000000000000000000000000000000000000000000001",
        "nonce": "0xc3",
        "chainId": "0x1"
      },
      "additionalContracts": [],
      "isFixedGasLimit": false
    },
    {
      "hash": "0x7f102d8dbd8602dcd0a4fb5272f1d9e1e6a138c4589c5f95734c436d08147c30",
      "transactionType": "CALL",
      "contractName": "AutoPoolYieldStrategy",
      "contractAddress": "0x5cbad8c3a18f37bc829e319533927a57d2bc99a4",
      "function": "setPauser(address)",
      "arguments": [
        "0xCad1a7864a108DBFF67F4b8af71fAB0C7A86D0B6"
      ],
      "transaction": {
        "from": "0xcad1a7864a108dbff67f4b8af71fab0c7a86d0b6",
        "to": "0x5cbad8c3a18f37bc829e319533927a57d2bc99a4",
        "gas": "0x1006e",
        "value": "0x0",
        "input": "0x2d88af4a000000000000000000000000cad1a7864a108dbff67f4b8af71fab0c7a86d0b6",
        "nonce": "0xc4",
        "chainId": "0x1"
      },
      "additionalContracts": [],
      "isFixedGasLimit": false
    },
    {
      "hash": "0x2d05c2a17e5bd7edcc52630d5b90266b0e0a0c9abe22c00f89d788c348228e39",
      "transactionType": "CALL",
      "contractName": "AutoPoolYieldStrategy",
      "contractAddress": "0x5cbad8c3a18f37bc829e319533927a57d2bc99a4",
      "function": "pause()",
      "arguments": [],
      "transaction": {
        "from": "0xcad1a7864a108dbff67f4b8af71fab0c7a86d0b6",
        "to": "0x5cbad8c3a18f37bc829e319533927a57d2bc99a4",
        "gas": "0xa1c7",
        "value": "0x0",
        "input": "0x8456cb59",
        "nonce": "0xc5",
        "chainId": "0x1"
      },
      "additionalContracts": [],
      "isFixedGasLimit": false
    },
    {
      "hash": "0xd925558dd77696cc87fc24d4f77236de5442af6b78c11a495af003cb7a27797d",
      "transactionType": "CALL",
      "contractName": "AutoPoolYieldStrategy",
      "contractAddress": "0x5cbad8c3a18f37bc829e319533927a57d2bc99a4",
      "function": "setPauser(address)",
      "arguments": [
        "0x7c5A8EeF1d836450C019FB036453ac6eC97885a3"
      ],
      "transaction": {
        "from": "0xcad1a7864a108dbff67f4b8af71fab0c7a86d0b6",
        "to": "0x5cbad8c3a18f37bc829e319533927a57d2bc99a4",
        "gas": "0xadd3",
        "value": "0x0",
        "input": "0x2d88af4a0000000000000000000000007c5a8eef1d836450c019fb036453ac6ec97885a3",
        "nonce": "0xc6",
        "chainId": "0x1"
      },
      "additionalContracts": [],
      "isFixedGasLimit": false
    },
    {
      "hash": "0xd24287ca422bbe776246ecf9557c5db1339465fe2f4cc96875b6aadf9f7e7499",
      "transactionType": "CALL",
      "contractName": null,
      "contractAddress": "0x435b0a1884bd0fb5667677c9eb0e59425b1477e5",
      "function": "pause()",
      "arguments": [],
      "transaction": {
        "from": "0xcad1a7864a108dbff67f4b8af71fab0c7a86d0b6",
        "to": "0x435b0a1884bd0fb5667677c9eb0e59425b1477e5",
        "gas": "0x9ec9",
        "value": "0x0",
        "input": "0x8456cb59",
        "nonce": "0xc7",
        "chainId": "0x1"
      },
      "additionalContracts": [],
      "isFixedGasLimit": false
    },
    {
      "hash": "0xad912250d79e03ba1f044349c518e81fcad4ddc73f2552d3748dfa316daf4034",
      "transactionType": "CALL",
      "contractName": null,
      "contractAddress": "0x435b0a1884bd0fb5667677c9eb0e59425b1477e5",
      "function": "setPauser(address)",
      "arguments": [
        "0x7c5A8EeF1d836450C019FB036453ac6eC97885a3"
      ],
      "transaction": {
        "from": "0xcad1a7864a108dbff67f4b8af71fab0c7a86d0b6",
        "to": "0x435b0a1884bd0fb5667677c9eb0e59425b1477e5",
        "gas": "0xb129",
        "value": "0x0",
        "input": "0x2d88af4a0000000000000000000000007c5a8eef1d836450c019fb036453ac6ec97885a3",
        "nonce": "0xc8",
        "chainId": "0x1"
      },
      "additionalContracts": [],
      "isFixedGasLimit": false
    },
    {
      "hash": "0x01946bcdd8174815029e9aaeb1acf781252f20939bfb4b579ce942fe176842f6",
      "transactionType": "CALL",
      "contractName": null,
      "contractAddress": "0x7c5a8eef1d836450c019fb036453ac6ec97885a3",
      "function": "register(address)",
      "arguments": [
        "0x5cBAd8c3a18F37BC829e319533927a57d2BC99a4"
      ],
      "transaction": {
        "from": "0xcad1a7864a108dbff67f4b8af71fab0c7a86d0b6",
        "to": "0x7c5a8eef1d836450c019fb036453ac6ec97885a3",
        "gas": "0x22ebc",
        "value": "0x0",
        "input": "0x4420e4860000000000000000000000005cbad8c3a18f37bc829e319533927a57d2bc99a4",
        "nonce": "0xc9",
        "chainId": "0x1"
      },
      "additionalContracts": [],
      "isFixedGasLimit": false
    },
    {
      "hash": "0x688576446049effa1810569554675ff744ae40b8931d249fc128fa15a8a257ad",
      "transactionType": "CALL",
      "contractName": null,
      "contractAddress": "0x7c5a8eef1d836450c019fb036453ac6ec97885a3",
      "function": "unregister(address)",
      "arguments": [
        "0x01d34d7EF3988C5b981ee06bF0Ba4485Bd8eA20C"
      ],
      "transaction": {
        "from": "0xcad1a7864a108dbff67f4b8af71fab0c7a86d0b6",
        "to": "0x7c5a8eef1d836450c019fb036453ac6ec97885a3",
        "gas": "0x102d7",
        "value": "0x0",
        "input": "0x2ec2c24600000000000000000000000001d34d7ef3988c5b981ee06bf0ba4485bd8ea20c",
        "nonce": "0xca",
        "chainId": "0x1"
      },
      "additionalContracts": [],
      "isFixedGasLimit": false
    }
  ],
  "receipts": [
    {
      "status": "0x1",
      "cumulativeGasUsed": "0x1216763",
      "logs": [
        {
          "address": "0x01d34d7ef3988c5b981ee06bf0ba4485bd8ea20c",
          "topics": [
            "0x5dcaa27e7d9a9fdd8d01662749f4c51d8a9d7933cc5c31bc05ce70aef865d004",
            "0x0000000000000000000000007c5a8eef1d836450c019fb036453ac6ec97885a3",
            "0x000000000000000000000000cad1a7864a108dbff67f4b8af71fab0c7a86d0b6"
          ],
          "data": "0x",
          "blockHash": "0xff744a2f70dd2268cba811b4a2e0259ce08fb9dfe5c89440be8cbc3d80ef38c5",
          "blockNumber": "0x1794533",
          "blockTimestamp": "0x69c20903",
          "transactionHash": "0x19ac0c3c2f990ba52824b6073214033a7c52101d141f4e4527a9e06bc34712f4",
          "transactionIndex": "0xb2",
          "logIndex": "0x1ae",
          "removed": false
        }
      ],
      "logsBloom": "0x00000000000000000020000000000200000000000000000000100000000000000000001000000000000000400000000000000000200000000000000000000000000000004000000000000000000000000000000000000000000000000000000000000000000000000000000000000000000000000000000000000000000000000000000000800000000000000000000000000000000000000000000000000000000000000000100000000000000000000000000000000000000000000000000000000000000000000000000000000400000000000000100000000000000000000000000000000000000000000000000010000000000000000000000000000000",
      "type": "0x2",
      "transactionHash": "0x19ac0c3c2f990ba52824b6073214033a7c52101d141f4e4527a9e06bc34712f4",
      "transactionIndex": "0xb2",
      "blockHash": "0xff744a2f70dd2268cba811b4a2e0259ce08fb9dfe5c89440be8cbc3d80ef38c5",
      "blockNumber": "0x1794533",
      "gasUsed": "0x790e",
      "effectiveGasPrice": "0x27cb010",
      "from": "0xcad1a7864a108dbff67f4b8af71fab0c7a86d0b6",
      "to": "0x01d34d7ef3988c5b981ee06bf0ba4485bd8ea20c",
      "contractAddress": null
    },
    {
      "status": "0x1",
      "cumulativeGasUsed": "0x17bcd32",
      "logs": [
        {
          "address": "0x01d34d7ef3988c5b981ee06bf0ba4485bd8ea20c",
          "topics": [
            "0x5db9ee0a495bf2e6ff9c91a7834c1ba4fdd244a5e8aa4e537bd38aeae4b073aa"
          ],
          "data": "0x000000000000000000000000cad1a7864a108dbff67f4b8af71fab0c7a86d0b6",
          "blockHash": "0x89665555383ecc10f8b4eba8ab80c75bca631e4392a290ea0a9658692a43d34e",
          "blockNumber": "0x1794536",
          "blockTimestamp": "0x69c20927",
          "transactionHash": "0x7b99be3c6397b10faa71844a8b9ea6545faafb0b5fab9879aa7f7302bef539de",
          "transactionIndex": "0x196",
          "logIndex": "0x2ec",
          "removed": false
        }
      ],
      "logsBloom": "0x00000000000000000000000000000200000000000000000080100000000000000000000000000000000000000000000000000000000000000000000000000000000000000000000000000000000000000000000000000000000000008000000000000000000000000000000000000000000000000000000000000000000000000000000000800000000000000000000000000000000000000000000000000000000000000000000000000000000000000000000000000000000000000000000000000000000000000000000000000000000000000000000000000000000000000000000000000000000000000000000000000000000000000000000000000400",
      "type": "0x2",
      "transactionHash": "0x7b99be3c6397b10faa71844a8b9ea6545faafb0b5fab9879aa7f7302bef539de",
      "transactionIndex": "0x196",
      "blockHash": "0x89665555383ecc10f8b4eba8ab80c75bca631e4392a290ea0a9658692a43d34e",
      "blockNumber": "0x1794536",
      "gasUsed": "0x6e18",
      "effectiveGasPrice": "0x27350f8",
      "from": "0xcad1a7864a108dbff67f4b8af71fab0c7a86d0b6",
      "to": "0x01d34d7ef3988c5b981ee06bf0ba4485bd8ea20c",
      "contractAddress": null
    },
    {
      "status": "0x1",
      "cumulativeGasUsed": "0x1652047",
      "logs": [
        {
          "address": "0xdc39c67b38ecda8a1974336c89b00f68667c91b7",
          "topics": [
            "0x469d38647ec007a9c93421468c92550d50fccc01ae12e149b1216aa9b0136fc7",
            "0x00000000000000000000000001d34d7ef3988c5b981ee06bf0ba4485bd8ea20c"
          ],
          "data": "0x00000000000000000000000000000000000000000000000000000000000000000000000000000000000000000000000000000000000000000c3908a7d967d11e00000000000000000000000000000000000000000000000000000000687651cb",
          "blockHash": "0x590f41b056dc48a3770bb211fc0f9ebd0f8b50054abb4029bcc0aaa24c91bfc6",
          "blockNumber": "0x179453f",
          "blockTimestamp": "0x69c20993",
          "transactionHash": "0x74e32a1c7c616a72c4671d31713aca5113e6f6885dbc30a6a713194175c588d3",
          "transactionIndex": "0x5d",
          "logIndex": "0x160",
          "removed": false
        },
        {
          "address": "0xdc39c67b38ecda8a1974336c89b00f68667c91b7",
          "topics": [
            "0x7084f5476618d8e60b11ef0d7d3f06914655adb8793e28ff7f018d4c76d505d5",
            "0x00000000000000000000000001d34d7ef3988c5b981ee06bf0ba4485bd8ea20c"
          ],
          "data": "0x0000000000000000000000000000000000000000000003c08991ee1fa4caeda1",
          "blockHash": "0x590f41b056dc48a3770bb211fc0f9ebd0f8b50054abb4029bcc0aaa24c91bfc6",
          "blockNumber": "0x179453f",
          "blockTimestamp": "0x69c20993",
          "transactionHash": "0x74e32a1c7c616a72c4671d31713aca5113e6f6885dbc30a6a713194175c588d3",
          "transactionIndex": "0x5d",
          "logIndex": "0x161",
          "removed": false
        },
        {
          "address": "0x17c50b9fba151f5f88618dae6c394bd731022975",
          "topics": [
            "0x469d38647ec007a9c93421468c92550d50fccc01ae12e149b1216aa9b0136fc7",
            "0x00000000000000000000000001d34d7ef3988c5b981ee06bf0ba4485bd8ea20c"
          ],
          "data": "0x000000000000000000000000000000000000000000000000000000000000000000000000000000000000000000000000000000000000000002e397966b52f02100000000000000000000000000000000000000000000000000000000687651cb",
          "blockHash": "0x590f41b056dc48a3770bb211fc0f9ebd0f8b50054abb4029bcc0aaa24c91bfc6",
          "blockNumber": "0x179453f",
          "blockTimestamp": "0x69c20993",
          "transactionHash": "0x74e32a1c7c616a72c4671d31713aca5113e6f6885dbc30a6a713194175c588d3",
          "transactionIndex": "0x5d",
          "logIndex": "0x162",
          "removed": false
        },
        {
          "address": "0x17c50b9fba151f5f88618dae6c394bd731022975",
          "topics": [
            "0x7084f5476618d8e60b11ef0d7d3f06914655adb8793e28ff7f018d4c76d505d5",
            "0x00000000000000000000000001d34d7ef3988c5b981ee06bf0ba4485bd8ea20c"
          ],
          "data": "0x0000000000000000000000000000000000000000000003c08991ee1fa4caeda1",
          "blockHash": "0x590f41b056dc48a3770bb211fc0f9ebd0f8b50054abb4029bcc0aaa24c91bfc6",
          "blockNumber": "0x179453f",
          "blockTimestamp": "0x69c20993",
          "transactionHash": "0x74e32a1c7c616a72c4671d31713aca5113e6f6885dbc30a6a713194175c588d3",
          "transactionIndex": "0x5d",
          "logIndex": "0x163",
          "removed": false
        },
        {
          "address": "0x79eb84b5e30ef2481c8f00fd0aa7aad6ac0aa54d",
          "topics": [
            "0xddf252ad1be2c89b69c2b068fc378daa952ba7f163c4a11628f55a4df523b3ef",
            "0x000000000000000000000000dc39c67b38ecda8a1974336c89b00f68667c91b7",
            "0x00000000000000000000000001d34d7ef3988c5b981ee06bf0ba4485bd8ea20c"
          ],
          "data": "0x0000000000000000000000000000000000000000000003c08991ee1fa4caeda1",
          "blockHash": "0x590f41b056dc48a3770bb211fc0f9ebd0f8b50054abb4029bcc0aaa24c91bfc6",
          "blockNumber": "0x179453f",
          "blockTimestamp": "0x69c20993",
          "transactionHash": "0x74e32a1c7c616a72c4671d31713aca5113e6f6885dbc30a6a713194175c588d3",
          "transactionIndex": "0x5d",
          "logIndex": "0x164",
          "removed": false
        },
        {
          "address": "0x9828b1a3742457d70ce428ddd3aa51f84ffb37f2",
          "topics": [
            "0xdaf261f6a2cf75c6b33475ee12e1ebf0ca3341779796004de863f25330fd32a7"
          ],
          "data": "0x00000000000000000000000000000000000000000000040b8bd429d5d64d843100000000000000000000000079eb84b5e30ef2481c8f00fd0aa7aad6ac0aa54d00000000000000000000000079eb84b5e30ef2481c8f00fd0aa7aad6ac0aa54d",
          "blockHash": "0x590f41b056dc48a3770bb211fc0f9ebd0f8b50054abb4029bcc0aaa24c91bfc6",
          "blockNumber": "0x179453f",
          "blockTimestamp": "0x69c20993",
          "transactionHash": "0x74e32a1c7c616a72c4671d31713aca5113e6f6885dbc30a6a713194175c588d3",
          "transactionIndex": "0x5d",
          "logIndex": "0x165",
          "removed": false
        },
        {
          "address": "0x74dea61b6fa3b2c809f42a1656e88ab8bccae8c8",
          "topics": [
            "0x469d38647ec007a9c93421468c92550d50fccc01ae12e149b1216aa9b0136fc7",
            "0x00000000000000000000000079eb84b5e30ef2481c8f00fd0aa7aad6ac0aa54d"
          ],
          "data": "0x000000000000000000000000000000000000000000000000000000000000000000000000000000000000000000000000000000000000000002d4afa2edaca81e000000000000000000000000000000000000000000000000000000000178d390",
          "blockHash": "0x590f41b056dc48a3770bb211fc0f9ebd0f8b50054abb4029bcc0aaa24c91bfc6",
          "blockNumber": "0x179453f",
          "blockTimestamp": "0x69c20993",
          "transactionHash": "0x74e32a1c7c616a72c4671d31713aca5113e6f6885dbc30a6a713194175c588d3",
          "transactionIndex": "0x5d",
          "logIndex": "0x166",
          "removed": false
        },
        {
          "address": "0x74dea61b6fa3b2c809f42a1656e88ab8bccae8c8",
          "topics": [
            "0x7084f5476618d8e60b11ef0d7d3f06914655adb8793e28ff7f018d4c76d505d5",
            "0x00000000000000000000000079eb84b5e30ef2481c8f00fd0aa7aad6ac0aa54d"
          ],
          "data": "0x00000000000000000000000000000000000000000000040b8bd429d5d64d8431",
          "blockHash": "0x590f41b056dc48a3770bb211fc0f9ebd0f8b50054abb4029bcc0aaa24c91bfc6",
          "blockNumber": "0x179453f",
          "blockTimestamp": "0x69c20993",
          "transactionHash": "0x74e32a1c7c616a72c4671d31713aca5113e6f6885dbc30a6a713194175c588d3",
          "transactionIndex": "0x5d",
          "logIndex": "0x167",
          "removed": false
        },
        {
          "address": "0x9828b1a3742457d70ce428ddd3aa51f84ffb37f2",
          "topics": [
            "0xddf252ad1be2c89b69c2b068fc378daa952ba7f163c4a11628f55a4df523b3ef",
            "0x00000000000000000000000079eb84b5e30ef2481c8f00fd0aa7aad6ac0aa54d",
            "0x0000000000000000000000000000000000000000000000000000000000000000"
          ],
          "data": "0x00000000000000000000000000000000000000000000040b8bd429d5d64d8431",
          "blockHash": "0x590f41b056dc48a3770bb211fc0f9ebd0f8b50054abb4029bcc0aaa24c91bfc6",
          "blockNumber": "0x179453f",
          "blockTimestamp": "0x69c20993",
          "transactionHash": "0x74e32a1c7c616a72c4671d31713aca5113e6f6885dbc30a6a713194175c588d3",
          "transactionIndex": "0x5d",
          "logIndex": "0x168",
          "removed": false
        },
        {
          "address": "0x9828b1a3742457d70ce428ddd3aa51f84ffb37f2",
          "topics": [
            "0x9981da2583b514f3a4dfcecf1d7b984a0d27c74837920d6728dbc6a3ea9b1ffe"
          ],
          "data": "0x00000000000000000000000048d670d189b4b48757992d36897bca6e3f8890400000000000000000000000002042468f1d356f78717818531958d744114347b400000000000000000000000000000000000000000000040b8bd429d5d64d8431",
          "blockHash": "0x590f41b056dc48a3770bb211fc0f9ebd0f8b50054abb4029bcc0aaa24c91bfc6",
          "blockNumber": "0x179453f",
          "blockTimestamp": "0x69c20993",
          "transactionHash": "0x74e32a1c7c616a72c4671d31713aca5113e6f6885dbc30a6a713194175c588d3",
          "transactionIndex": "0x5d",
          "logIndex": "0x169",
          "removed": false
        },
        {
          "address": "0x1c9ad56ece29667139c6e62a8710eb1d9079b71c",
          "topics": [
            "0x7084f5476618d8e60b11ef0d7d3f06914655adb8793e28ff7f018d4c76d505d5",
            "0x0000000000000000000000009828b1a3742457d70ce428ddd3aa51f84ffb37f2"
          ],
          "data": "0x00000000000000000000000000000000000000000000040b8bd429d5d64d8431",
          "blockHash": "0x590f41b056dc48a3770bb211fc0f9ebd0f8b50054abb4029bcc0aaa24c91bfc6",
          "blockNumber": "0x179453f",
          "blockTimestamp": "0x69c20993",
          "transactionHash": "0x74e32a1c7c616a72c4671d31713aca5113e6f6885dbc30a6a713194175c588d3",
          "transactionIndex": "0x5d",
          "logIndex": "0x16a",
          "removed": false
        },
        {
          "address": "0x4a8cf354f7cd3c51ffad5d90b8d14ef3a007fd6f",
          "topics": [
            "0xddf252ad1be2c89b69c2b068fc378daa952ba7f163c4a11628f55a4df523b3ef",
            "0x0000000000000000000000002042468f1d356f78717818531958d744114347b4",
            "0x0000000000000000000000000000000000000000000000000000000000000000"
          ],
          "data": "0x00000000000000000000000000000000000000000000040b8bd429d5d64d8431",
          "blockHash": "0x590f41b056dc48a3770bb211fc0f9ebd0f8b50054abb4029bcc0aaa24c91bfc6",
          "blockNumber": "0x179453f",
          "blockTimestamp": "0x69c20993",
          "transactionHash": "0x74e32a1c7c616a72c4671d31713aca5113e6f6885dbc30a6a713194175c588d3",
          "transactionIndex": "0x5d",
          "logIndex": "0x16b",
          "removed": false
        },
        {
          "address": "0xcb25249bfa8cdb6012a75070e5c2885151368bef",
          "topics": [
            "0x7ecd84343f76a23d2227290e0288da3251b045541698e575a5515af4f04197a3",
            "0x000000000000000000000000989aeb4d175e16225e39e87d0d97a3360524ad80"
          ],
          "data": "0x000000000000000000000000000000000000000000001f1a76e87dc1bf9f88b70000000000000000000000000000000000000000000033118b78b4312de08681000000000000000000000000000000000000000000001ce2eabeca9f81c25c21000000000000000000000000000000000000000000002d78a467fea3be7d58f7",
          "blockHash": "0x590f41b056dc48a3770bb211fc0f9ebd0f8b50054abb4029bcc0aaa24c91bfc6",
          "blockNumber": "0x179453f",
          "blockTimestamp": "0x69c20993",
          "transactionHash": "0x74e32a1c7c616a72c4671d31713aca5113e6f6885dbc30a6a713194175c588d3",
          "transactionIndex": "0x5d",
          "logIndex": "0x16c",
          "removed": false
        },
        {
          "address": "0x48d670d189b4b48757992d36897bca6e3f889040",
          "topics": [
            "0xddf252ad1be2c89b69c2b068fc378daa952ba7f163c4a11628f55a4df523b3ef",
            "0x000000000000000000000000cb25249bfa8cdb6012a75070e5c2885151368bef",
            "0x000000000000000000000000989aeb4d175e16225e39e87d0d97a3360524ad80"
          ],
          "data": "0x00000000000000000000000000000000000000000000040b8bd429d5d64d8431",
          "blockHash": "0x590f41b056dc48a3770bb211fc0f9ebd0f8b50054abb4029bcc0aaa24c91bfc6",
          "blockNumber": "0x179453f",
          "blockTimestamp": "0x69c20993",
          "transactionHash": "0x74e32a1c7c616a72c4671d31713aca5113e6f6885dbc30a6a713194175c588d3",
          "transactionIndex": "0x5d",
          "logIndex": "0x16d",
          "removed": false
        },
        {
          "address": "0xcb25249bfa8cdb6012a75070e5c2885151368bef",
          "topics": [
            "0x884edad9ce6fa2440d8a54cc123490eb96d2768479d49ff9c7366125a9424364",
            "0x000000000000000000000000989aeb4d175e16225e39e87d0d97a3360524ad80"
          ],
          "data": "0x00000000000000000000000000000000000000000000040b8bd429d5d64d8431",
          "blockHash": "0x590f41b056dc48a3770bb211fc0f9ebd0f8b50054abb4029bcc0aaa24c91bfc6",
          "blockNumber": "0x179453f",
          "blockTimestamp": "0x69c20993",
          "transactionHash": "0x74e32a1c7c616a72c4671d31713aca5113e6f6885dbc30a6a713194175c588d3",
          "transactionIndex": "0x5d",
          "logIndex": "0x16e",
          "removed": false
        },
        {
          "address": "0xcb25249bfa8cdb6012a75070e5c2885151368bef",
          "topics": [
            "0xddf252ad1be2c89b69c2b068fc378daa952ba7f163c4a11628f55a4df523b3ef",
            "0x000000000000000000000000989aeb4d175e16225e39e87d0d97a3360524ad80",
            "0x0000000000000000000000000000000000000000000000000000000000000000"
          ],
          "data": "0x00000000000000000000000000000000000000000000040b8bd429d5d64d8431",
          "blockHash": "0x590f41b056dc48a3770bb211fc0f9ebd0f8b50054abb4029bcc0aaa24c91bfc6",
          "blockNumber": "0x179453f",
          "blockTimestamp": "0x69c20993",
          "transactionHash": "0x74e32a1c7c616a72c4671d31713aca5113e6f6885dbc30a6a713194175c588d3",
          "transactionIndex": "0x5d",
          "logIndex": "0x16f",
          "removed": false
        },
        {
          "address": "0x48d670d189b4b48757992d36897bca6e3f889040",
          "topics": [
            "0xddf252ad1be2c89b69c2b068fc378daa952ba7f163c4a11628f55a4df523b3ef",
            "0x000000000000000000000000989aeb4d175e16225e39e87d0d97a3360524ad80",
            "0x000000000000000000000000f403c135812408bfbe8713b5a23a04b3d48aae31"
          ],
          "data": "0x00000000000000000000000000000000000000000000040b8bd429d5d64d8431",
          "blockHash": "0x590f41b056dc48a3770bb211fc0f9ebd0f8b50054abb4029bcc0aaa24c91bfc6",
          "blockNumber": "0x179453f",
          "blockTimestamp": "0x69c20993",
          "transactionHash": "0x74e32a1c7c616a72c4671d31713aca5113e6f6885dbc30a6a713194175c588d3",
          "transactionIndex": "0x5d",
          "logIndex": "0x170",
          "removed": false
        },
        {
          "address": "0x48d670d189b4b48757992d36897bca6e3f889040",
          "topics": [
            "0xddf252ad1be2c89b69c2b068fc378daa952ba7f163c4a11628f55a4df523b3ef",
            "0x000000000000000000000000f403c135812408bfbe8713b5a23a04b3d48aae31",
            "0x0000000000000000000000009828b1a3742457d70ce428ddd3aa51f84ffb37f2"
          ],
          "data": "0x00000000000000000000000000000000000000000000040b8bd429d5d64d8431",
          "blockHash": "0x590f41b056dc48a3770bb211fc0f9ebd0f8b50054abb4029bcc0aaa24c91bfc6",
          "blockNumber": "0x179453f",
          "blockTimestamp": "0x69c20993",
          "transactionHash": "0x74e32a1c7c616a72c4671d31713aca5113e6f6885dbc30a6a713194175c588d3",
          "transactionIndex": "0x5d",
          "logIndex": "0x171",
          "removed": false
        },
        {
          "address": "0xf403c135812408bfbe8713b5a23a04b3d48aae31",
          "topics": [
            "0x92ccf450a286a957af52509bc1c9939d1a6a481783e142e41e2499f0bb66ebc6",
            "0x0000000000000000000000009828b1a3742457d70ce428ddd3aa51f84ffb37f2",
            "0x00000000000000000000000000000000000000000000000000000000000001be"
          ],
          "data": "0x00000000000000000000000000000000000000000000040b8bd429d5d64d8431",
          "blockHash": "0x590f41b056dc48a3770bb211fc0f9ebd0f8b50054abb4029bcc0aaa24c91bfc6",
          "blockNumber": "0x179453f",
          "blockTimestamp": "0x69c20993",
          "transactionHash": "0x74e32a1c7c616a72c4671d31713aca5113e6f6885dbc30a6a713194175c588d3",
          "transactionIndex": "0x5d",
          "logIndex": "0x172",
          "removed": false
        },
        {
          "address": "0x2042468f1d356f78717818531958d744114347b4",
          "topics": [
            "0x7084f5476618d8e60b11ef0d7d3f06914655adb8793e28ff7f018d4c76d505d5",
            "0x0000000000000000000000009828b1a3742457d70ce428ddd3aa51f84ffb37f2"
          ],
          "data": "0x00000000000000000000000000000000000000000000040b8bd429d5d64d8431",
          "blockHash": "0x590f41b056dc48a3770bb211fc0f9ebd0f8b50054abb4029bcc0aaa24c91bfc6",
          "blockNumber": "0x179453f",
          "blockTimestamp": "0x69c20993",
          "transactionHash": "0x74e32a1c7c616a72c4671d31713aca5113e6f6885dbc30a6a713194175c588d3",
          "transactionIndex": "0x5d",
          "logIndex": "0x173",
          "removed": false
        },
        {
          "address": "0x57ab1e0003f623289cd798b1824be09a793e4bec",
          "topics": [
            "0xddf252ad1be2c89b69c2b068fc378daa952ba7f163c4a11628f55a4df523b3ef",
            "0x00000000000000000000000048d670d189b4b48757992d36897bca6e3f889040",
            "0x0000000000000000000000009828b1a3742457d70ce428ddd3aa51f84ffb37f2"
          ],
          "data": "0x00000000000000000000000000000000000000000000020088bc7a91e222e099",
          "blockHash": "0x590f41b056dc48a3770bb211fc0f9ebd0f8b50054abb4029bcc0aaa24c91bfc6",
          "blockNumber": "0x179453f",
          "blockTimestamp": "0x69c20993",
          "transactionHash": "0x74e32a1c7c616a72c4671d31713aca5113e6f6885dbc30a6a713194175c588d3",
          "transactionIndex": "0x5d",
          "logIndex": "0x174",
          "removed": false
        },
        {
          "address": "0xb45ad160634c528cc3d2926d9807104fa3157305",
          "topics": [
            "0xddf252ad1be2c89b69c2b068fc378daa952ba7f163c4a11628f55a4df523b3ef",
            "0x00000000000000000000000048d670d189b4b48757992d36897bca6e3f889040",
            "0x0000000000000000000000009828b1a3742457d70ce428ddd3aa51f84ffb37f2"
          ],
          "data": "0x0000000000000000000000000000000000000000000001ae48750fb9baed24d2",
          "blockHash": "0x590f41b056dc48a3770bb211fc0f9ebd0f8b50054abb4029bcc0aaa24c91bfc6",
          "blockNumber": "0x179453f",
          "blockTimestamp": "0x69c20993",
          "transactionHash": "0x74e32a1c7c616a72c4671d31713aca5113e6f6885dbc30a6a713194175c588d3",
          "transactionIndex": "0x5d",
          "logIndex": "0x175",
          "removed": false
        },
        {
          "address": "0x48d670d189b4b48757992d36897bca6e3f889040",
          "topics": [
            "0xddf252ad1be2c89b69c2b068fc378daa952ba7f163c4a11628f55a4df523b3ef",
            "0x0000000000000000000000009828b1a3742457d70ce428ddd3aa51f84ffb37f2",
            "0x0000000000000000000000000000000000000000000000000000000000000000"
          ],
          "data": "0x00000000000000000000000000000000000000000000040b8bd429d5d64d8431",
          "blockHash": "0x590f41b056dc48a3770bb211fc0f9ebd0f8b50054abb4029bcc0aaa24c91bfc6",
          "blockNumber": "0x179453f",
          "blockTimestamp": "0x69c20993",
          "transactionHash": "0x74e32a1c7c616a72c4671d31713aca5113e6f6885dbc30a6a713194175c588d3",
          "transactionIndex": "0x5d",
          "logIndex": "0x176",
          "removed": false
        },
        {
          "address": "0x48d670d189b4b48757992d36897bca6e3f889040",
          "topics": [
            "0x347ad828e58cbe534d8f6b67985d791360756b18f0d95fd9f197a66cc46480ea",
            "0x0000000000000000000000009828b1a3742457d70ce428ddd3aa51f84ffb37f2"
          ],
          "data": "0x000000000000000000000000000000000000000000000000000000000000006000000000000000000000000000000000000000000000000000000000000000c000000000000000000000000000000000000000000000331f0c30efafc7b7149b000000000000000000000000000000000000000000000000000000000000000200000000000000000000000000000000000000000000020088bc7a91e222e0990000000000000000000000000000000000000000000001ae48750fb9baed24d20000000000000000000000000000000000000000000000000000000000000000",
          "blockHash": "0x590f41b056dc48a3770bb211fc0f9ebd0f8b50054abb4029bcc0aaa24c91bfc6",
          "blockNumber": "0x179453f",
          "blockTimestamp": "0x69c20993",
          "transactionHash": "0x74e32a1c7c616a72c4671d31713aca5113e6f6885dbc30a6a713194175c588d3",
          "transactionIndex": "0x5d",
          "logIndex": "0x177",
          "removed": false
        },
        {
          "address": "0xb45ad160634c528cc3d2926d9807104fa3157305",
          "topics": [
            "0xddf252ad1be2c89b69c2b068fc378daa952ba7f163c4a11628f55a4df523b3ef",
            "0x00000000000000000000000048d670d189b4b48757992d36897bca6e3f889040",
            "0x000000000000000000000000a2bcd1a4efbd04b63cd03f5aff2561106ebcce00"
          ],
          "data": "0x0000000000000000000000000000000000000000000000000e497ddf6471cee9",
          "blockHash": "0x590f41b056dc48a3770bb211fc0f9ebd0f8b50054abb4029bcc0aaa24c91bfc6",
          "blockNumber": "0x179453f",
          "blockTimestamp": "0x69c20993",
          "transactionHash": "0x74e32a1c7c616a72c4671d31713aca5113e6f6885dbc30a6a713194175c588d3",
          "transactionIndex": "0x5d",
          "logIndex": "0x178",
          "removed": false
        },
        {
          "address": "0x9828b1a3742457d70ce428ddd3aa51f84ffb37f2",
          "topics": [
            "0x07b152336751ce779bdbb95a34344ac86aa8c4505d996446a3ea19e15193fb01"
          ],
          "data": "0x00000000000000000000000000000000000000000000000000000000000000c0000000000000000000000000000000000000000000000000000000000000012000000000000000000000000000000000000000000000040b8bd429d5d64d8431000000000000000000000000000000000000000000000000000000000000000000000000000000000000000000000000000000000000331f0c30efafc7b7149b00000000000000000000000048d670d189b4b48757992d36897bca6e3f889040000000000000000000000000000000000000000000000000000000000000000200000000000000000000000000000000000000000000020088bc7a91e222e0990000000000000000000000000000000000000000000001ae48750fb9baed24d2000000000000000000000000000000000000000000000000000000000000000200000000000000000000000057ab1e0003f623289cd798b1824be09a793e4bec000000000000000000000000b45ad160634c528cc3d2926d9807104fa3157305",
          "blockHash": "0x590f41b056dc48a3770bb211fc0f9ebd0f8b50054abb4029bcc0aaa24c91bfc6",
          "blockNumber": "0x179453f",
          "blockTimestamp": "0x69c20993",
          "transactionHash": "0x74e32a1c7c616a72c4671d31713aca5113e6f6885dbc30a6a713194175c588d3",
          "transactionIndex": "0x5d",
          "logIndex": "0x179",
          "removed": false
        },
        {
          "address": "0x57ab1e0003f623289cd798b1824be09a793e4bec",
          "topics": [
            "0x8c5be1e5ebec7d5bd14f71427d1e84f3dd0314c0f7b2291e5b200ac8c7c3b925",
            "0x0000000000000000000000009828b1a3742457d70ce428ddd3aa51f84ffb37f2",
            "0x000000000000000000000000955b5adcdbba6870feca78338137191f774679ca"
          ],
          "data": "0x00000000000000000000000000000000000000000000020088bc7a91e222e099",
          "blockHash": "0x590f41b056dc48a3770bb211fc0f9ebd0f8b50054abb4029bcc0aaa24c91bfc6",
          "blockNumber": "0x179453f",
          "blockTimestamp": "0x69c20993",
          "transactionHash": "0x74e32a1c7c616a72c4671d31713aca5113e6f6885dbc30a6a713194175c588d3",
          "transactionIndex": "0x5d",
          "logIndex": "0x17a",
          "removed": false
        },
        {
          "address": "0x57ab1e0003f623289cd798b1824be09a793e4bec",
          "topics": [
            "0xddf252ad1be2c89b69c2b068fc378daa952ba7f163c4a11628f55a4df523b3ef",
            "0x0000000000000000000000009828b1a3742457d70ce428ddd3aa51f84ffb37f2",
            "0x000000000000000000000000955b5adcdbba6870feca78338137191f774679ca"
          ],
          "data": "0x00000000000000000000000000000000000000000000020088bc7a91e222e099",
          "blockHash": "0x590f41b056dc48a3770bb211fc0f9ebd0f8b50054abb4029bcc0aaa24c91bfc6",
          "blockNumber": "0x179453f",
          "blockTimestamp": "0x69c20993",
          "transactionHash": "0x74e32a1c7c616a72c4671d31713aca5113e6f6885dbc30a6a713194175c588d3",
          "transactionIndex": "0x5d",
          "logIndex": "0x17b",
          "removed": false
        },
        {
          "address": "0x57ab1e0003f623289cd798b1824be09a793e4bec",
          "topics": [
            "0x8c5be1e5ebec7d5bd14f71427d1e84f3dd0314c0f7b2291e5b200ac8c7c3b925",
            "0x000000000000000000000000955b5adcdbba6870feca78338137191f774679ca",
            "0x000000000000000000000000c522a6606bba746d7960404f22a3db936b6f4f50"
          ],
          "data": "0x00000000000000000000000000000000000000000000020088bc7a91e222e099",
          "blockHash": "0x590f41b056dc48a3770bb211fc0f9ebd0f8b50054abb4029bcc0aaa24c91bfc6",
          "blockNumber": "0x179453f",
          "blockTimestamp": "0x69c20993",
          "transactionHash": "0x74e32a1c7c616a72c4671d31713aca5113e6f6885dbc30a6a713194175c588d3",
          "transactionIndex": "0x5d",
          "logIndex": "0x17c",
          "removed": false
        },
        {
          "address": "0x57ab1e0003f623289cd798b1824be09a793e4bec",
          "topics": [
            "0xddf252ad1be2c89b69c2b068fc378daa952ba7f163c4a11628f55a4df523b3ef",
            "0x000000000000000000000000955b5adcdbba6870feca78338137191f774679ca",
            "0x000000000000000000000000c522a6606bba746d7960404f22a3db936b6f4f50"
          ],
          "data": "0x00000000000000000000000000000000000000000000020088bc7a91e222e099",
          "blockHash": "0x590f41b056dc48a3770bb211fc0f9ebd0f8b50054abb4029bcc0aaa24c91bfc6",
          "blockNumber": "0x179453f",
          "blockTimestamp": "0x69c20993",
          "transactionHash": "0x74e32a1c7c616a72c4671d31713aca5113e6f6885dbc30a6a713194175c588d3",
          "transactionIndex": "0x5d",
          "logIndex": "0x17d",
          "removed": false
        },
        {
          "address": "0x0655977feb2f289a4ab78af67bab0d17aab84367",
          "topics": [
            "0xddf252ad1be2c89b69c2b068fc378daa952ba7f163c4a11628f55a4df523b3ef",
            "0x000000000000000000000000c522a6606bba746d7960404f22a3db936b6f4f50",
            "0x000000000000000000000000955b5adcdbba6870feca78338137191f774679ca"
          ],
          "data": "0x0000000000000000000000000000000000000000000001d072606a3d811362b6",
          "blockHash": "0x590f41b056dc48a3770bb211fc0f9ebd0f8b50054abb4029bcc0aaa24c91bfc6",
          "blockNumber": "0x179453f",
          "blockTimestamp": "0x69c20993",
          "transactionHash": "0x74e32a1c7c616a72c4671d31713aca5113e6f6885dbc30a6a713194175c588d3",
          "transactionIndex": "0x5d",
          "logIndex": "0x17e",
          "removed": false
        },
        {
          "address": "0xc522a6606bba746d7960404f22a3db936b6f4f50",
          "topics": [
            "0x8b3e96f2b889fa771c53c981b40daf005f63f637f1869f707052d15a3dd97140",
            "0x000000000000000000000000955b5adcdbba6870feca78338137191f774679ca"
          ],
          "data": "0x000000000000000000000000000000000000000000000000000000000000000000000000000000000000000000000000000000000000020088bc7a91e222e09900000000000000000000000000000000000000000000000000000000000000010000000000000000000000000000000000000000000001d072606a3d811362b6",
          "blockHash": "0x590f41b056dc48a3770bb211fc0f9ebd0f8b50054abb4029bcc0aaa24c91bfc6",
          "blockNumber": "0x179453f",
          "blockTimestamp": "0x69c20993",
          "transactionHash": "0x74e32a1c7c616a72c4671d31713aca5113e6f6885dbc30a6a713194175c588d3",
          "transactionIndex": "0x5d",
          "logIndex": "0x17f",
          "removed": false
        },
        {
          "address": "0x0655977feb2f289a4ab78af67bab0d17aab84367",
          "topics": [
            "0x8c5be1e5ebec7d5bd14f71427d1e84f3dd0314c0f7b2291e5b200ac8c7c3b925",
            "0x000000000000000000000000955b5adcdbba6870feca78338137191f774679ca",
            "0x000000000000000000000000d29f8980852c2c76fc3f6e96a7aa06e0bedcc1b1"
          ],
          "data": "0x0000000000000000000000000000000000000000000001d072606a3d811362b6",
          "blockHash": "0x590f41b056dc48a3770bb211fc0f9ebd0f8b50054abb4029bcc0aaa24c91bfc6",
          "blockNumber": "0x179453f",
          "blockTimestamp": "0x69c20993",
          "transactionHash": "0x74e32a1c7c616a72c4671d31713aca5113e6f6885dbc30a6a713194175c588d3",
          "transactionIndex": "0x5d",
          "logIndex": "0x180",
          "removed": false
        },
        {
          "address": "0x0655977feb2f289a4ab78af67bab0d17aab84367",
          "topics": [
            "0x8c5be1e5ebec7d5bd14f71427d1e84f3dd0314c0f7b2291e5b200ac8c7c3b925",
            "0x000000000000000000000000955b5adcdbba6870feca78338137191f774679ca",
            "0x000000000000000000000000d29f8980852c2c76fc3f6e96a7aa06e0bedcc1b1"
          ],
          "data": "0x0000000000000000000000000000000000000000000000000000000000000000",
          "blockHash": "0x590f41b056dc48a3770bb211fc0f9ebd0f8b50054abb4029bcc0aaa24c91bfc6",
          "blockNumber": "0x179453f",
          "blockTimestamp": "0x69c20993",
          "transactionHash": "0x74e32a1c7c616a72c4671d31713aca5113e6f6885dbc30a6a713194175c588d3",
          "transactionIndex": "0x5d",
          "logIndex": "0x181",
          "removed": false
        },
        {
          "address": "0x0655977feb2f289a4ab78af67bab0d17aab84367",
          "topics": [
            "0xddf252ad1be2c89b69c2b068fc378daa952ba7f163c4a11628f55a4df523b3ef",
            "0x000000000000000000000000955b5adcdbba6870feca78338137191f774679ca",
            "0x000000000000000000000000d29f8980852c2c76fc3f6e96a7aa06e0bedcc1b1"
          ],
          "data": "0x0000000000000000000000000000000000000000000001d072606a3d811362b6",
          "blockHash": "0x590f41b056dc48a3770bb211fc0f9ebd0f8b50054abb4029bcc0aaa24c91bfc6",
          "blockNumber": "0x179453f",
          "blockTimestamp": "0x69c20993",
          "transactionHash": "0x74e32a1c7c616a72c4671d31713aca5113e6f6885dbc30a6a713194175c588d3",
          "transactionIndex": "0x5d",
          "logIndex": "0x182",
          "removed": false
        },
        {
          "address": "0x9d39a5de30e57443bff2a8307a4256c8797a3497",
          "topics": [
            "0xddf252ad1be2c89b69c2b068fc378daa952ba7f163c4a11628f55a4df523b3ef",
            "0x000000000000000000000000d29f8980852c2c76fc3f6e96a7aa06e0bedcc1b1",
            "0x000000000000000000000000955b5adcdbba6870feca78338137191f774679ca"
          ],
          "data": "0x00000000000000000000000000000000000000000000019f901e7dad73280637",
          "blockHash": "0x590f41b056dc48a3770bb211fc0f9ebd0f8b50054abb4029bcc0aaa24c91bfc6",
          "blockNumber": "0x179453f",
          "blockTimestamp": "0x69c20993",
          "transactionHash": "0x74e32a1c7c616a72c4671d31713aca5113e6f6885dbc30a6a713194175c588d3",
          "transactionIndex": "0x5d",
          "logIndex": "0x183",
          "removed": false
        },
        {
          "address": "0xd29f8980852c2c76fc3f6e96a7aa06e0bedcc1b1",
          "topics": [
            "0x8b3e96f2b889fa771c53c981b40daf005f63f637f1869f707052d15a3dd97140",
            "0x000000000000000000000000955b5adcdbba6870feca78338137191f774679ca"
          ],
          "data": "0x00000000000000000000000000000000000000000000000000000000000000000000000000000000000000000000000000000000000001d072606a3d811362b6000000000000000000000000000000000000000000000000000000000000000100000000000000000000000000000000000000000000019f901e7dad73280637",
          "blockHash": "0x590f41b056dc48a3770bb211fc0f9ebd0f8b50054abb4029bcc0aaa24c91bfc6",
          "blockNumber": "0x179453f",
          "blockTimestamp": "0x69c20993",
          "transactionHash": "0x74e32a1c7c616a72c4671d31713aca5113e6f6885dbc30a6a713194175c588d3",
          "transactionIndex": "0x5d",
          "logIndex": "0x184",
          "removed": false
        },
        {
          "address": "0x9d39a5de30e57443bff2a8307a4256c8797a3497",
          "topics": [
            "0x8c5be1e5ebec7d5bd14f71427d1e84f3dd0314c0f7b2291e5b200ac8c7c3b925",
            "0x000000000000000000000000955b5adcdbba6870feca78338137191f774679ca",
            "0x000000000000000000000000744793b5110f6ca9cc7cdfe1ce16677c3eb192ef"
          ],
          "data": "0x00000000000000000000000000000000000000000000019f901e7dad73280637",
          "blockHash": "0x590f41b056dc48a3770bb211fc0f9ebd0f8b50054abb4029bcc0aaa24c91bfc6",
          "blockNumber": "0x179453f",
          "blockTimestamp": "0x69c20993",
          "transactionHash": "0x74e32a1c7c616a72c4671d31713aca5113e6f6885dbc30a6a713194175c588d3",
          "transactionIndex": "0x5d",
          "logIndex": "0x185",
          "removed": false
        },
        {
          "address": "0x9d39a5de30e57443bff2a8307a4256c8797a3497",
          "topics": [
            "0x8c5be1e5ebec7d5bd14f71427d1e84f3dd0314c0f7b2291e5b200ac8c7c3b925",
            "0x000000000000000000000000955b5adcdbba6870feca78338137191f774679ca",
            "0x000000000000000000000000744793b5110f6ca9cc7cdfe1ce16677c3eb192ef"
          ],
          "data": "0x0000000000000000000000000000000000000000000000000000000000000000",
          "blockHash": "0x590f41b056dc48a3770bb211fc0f9ebd0f8b50054abb4029bcc0aaa24c91bfc6",
          "blockNumber": "0x179453f",
          "blockTimestamp": "0x69c20993",
          "transactionHash": "0x74e32a1c7c616a72c4671d31713aca5113e6f6885dbc30a6a713194175c588d3",
          "transactionIndex": "0x5d",
          "logIndex": "0x186",
          "removed": false
        },
        {
          "address": "0x9d39a5de30e57443bff2a8307a4256c8797a3497",
          "topics": [
            "0xddf252ad1be2c89b69c2b068fc378daa952ba7f163c4a11628f55a4df523b3ef",
            "0x000000000000000000000000955b5adcdbba6870feca78338137191f774679ca",
            "0x000000000000000000000000744793b5110f6ca9cc7cdfe1ce16677c3eb192ef"
          ],
          "data": "0x00000000000000000000000000000000000000000000019f901e7dad73280637",
          "blockHash": "0x590f41b056dc48a3770bb211fc0f9ebd0f8b50054abb4029bcc0aaa24c91bfc6",
          "blockNumber": "0x179453f",
          "blockTimestamp": "0x69c20993",
          "transactionHash": "0x74e32a1c7c616a72c4671d31713aca5113e6f6885dbc30a6a713194175c588d3",
          "transactionIndex": "0x5d",
          "logIndex": "0x187",
          "removed": false
        },
        {
          "address": "0x865377367054516e17014ccded1e7d814edc9ce4",
          "topics": [
            "0xddf252ad1be2c89b69c2b068fc378daa952ba7f163c4a11628f55a4df523b3ef",
            "0x000000000000000000000000744793b5110f6ca9cc7cdfe1ce16677c3eb192ef",
            "0x000000000000000000000000955b5adcdbba6870feca78338137191f774679ca"
          ],
          "data": "0x00000000000000000000000000000000000000000000020070bf7d192e60a930",
          "blockHash": "0x590f41b056dc48a3770bb211fc0f9ebd0f8b50054abb4029bcc0aaa24c91bfc6",
          "blockNumber": "0x179453f",
          "blockTimestamp": "0x69c20993",
          "transactionHash": "0x74e32a1c7c616a72c4671d31713aca5113e6f6885dbc30a6a713194175c588d3",
          "transactionIndex": "0x5d",
          "logIndex": "0x188",
          "removed": false
        },
        {
          "address": "0x744793b5110f6ca9cc7cdfe1ce16677c3eb192ef",
          "topics": [
            "0x8b3e96f2b889fa771c53c981b40daf005f63f637f1869f707052d15a3dd97140",
            "0x000000000000000000000000955b5adcdbba6870feca78338137191f774679ca"
          ],
          "data": "0x000000000000000000000000000000000000000000000000000000000000000100000000000000000000000000000000000000000000019f901e7dad73280637000000000000000000000000000000000000000000000000000000000000000000000000000000000000000000000000000000000000020070bf7d192e60a930",
          "blockHash": "0x590f41b056dc48a3770bb211fc0f9ebd0f8b50054abb4029bcc0aaa24c91bfc6",
          "blockNumber": "0x179453f",
          "blockTimestamp": "0x69c20993",
          "transactionHash": "0x74e32a1c7c616a72c4671d31713aca5113e6f6885dbc30a6a713194175c588d3",
          "transactionIndex": "0x5d",
          "logIndex": "0x189",
          "removed": false
        },
        {
          "address": "0x865377367054516e17014ccded1e7d814edc9ce4",
          "topics": [
            "0xddf252ad1be2c89b69c2b068fc378daa952ba7f163c4a11628f55a4df523b3ef",
            "0x000000000000000000000000955b5adcdbba6870feca78338137191f774679ca",
            "0x0000000000000000000000009828b1a3742457d70ce428ddd3aa51f84ffb37f2"
          ],
          "data": "0x00000000000000000000000000000000000000000000020070bf7d192e60a930",
          "blockHash": "0x590f41b056dc48a3770bb211fc0f9ebd0f8b50054abb4029bcc0aaa24c91bfc6",
          "blockNumber": "0x179453f",
          "blockTimestamp": "0x69c20993",
          "transactionHash": "0x74e32a1c7c616a72c4671d31713aca5113e6f6885dbc30a6a713194175c588d3",
          "transactionIndex": "0x5d",
          "logIndex": "0x18a",
          "removed": false
        },
        {
          "address": "0x955b5adcdbba6870feca78338137191f774679ca",
          "topics": [
            "0xf641adc5f6b9cfd1d6487e275cbe1af48916d157270da1d38c8f9d35f31faa46",
            "0x00000000000000000000000057ab1e0003f623289cd798b1824be09a793e4bec",
            "0x000000000000000000000000865377367054516e17014ccded1e7d814edc9ce4"
          ],
          "data": "0x00000000000000000000000000000000000000000000020088bc7a91e222e099000000000000000000000000000000000000000000000000000000000000000000000000000000000000000000000000000000000000020070bf7d192e60a930",
          "blockHash": "0x590f41b056dc48a3770bb211fc0f9ebd0f8b50054abb4029bcc0aaa24c91bfc6",
          "blockNumber": "0x179453f",
          "blockTimestamp": "0x69c20993",
          "transactionHash": "0x74e32a1c7c616a72c4671d31713aca5113e6f6885dbc30a6a713194175c588d3",
          "transactionIndex": "0x5d",
          "logIndex": "0x18b",
          "removed": false
        },
        {
          "address": "0xb45ad160634c528cc3d2926d9807104fa3157305",
          "topics": [
            "0x8c5be1e5ebec7d5bd14f71427d1e84f3dd0314c0f7b2291e5b200ac8c7c3b925",
            "0x0000000000000000000000009828b1a3742457d70ce428ddd3aa51f84ffb37f2",
            "0x000000000000000000000000955b5adcdbba6870feca78338137191f774679ca"
          ],
          "data": "0x0000000000000000000000000000000000000000000001ae48750fb9baed24d2",
          "blockHash": "0x590f41b056dc48a3770bb211fc0f9ebd0f8b50054abb4029bcc0aaa24c91bfc6",
          "blockNumber": "0x179453f",
          "blockTimestamp": "0x69c20993",
          "transactionHash": "0x74e32a1c7c616a72c4671d31713aca5113e6f6885dbc30a6a713194175c588d3",
          "transactionIndex": "0x5d",
          "logIndex": "0x18c",
          "removed": false
        },
        {
          "address": "0xb45ad160634c528cc3d2926d9807104fa3157305",
          "topics": [
            "0xddf252ad1be2c89b69c2b068fc378daa952ba7f163c4a11628f55a4df523b3ef",
            "0x0000000000000000000000009828b1a3742457d70ce428ddd3aa51f84ffb37f2",
            "0x000000000000000000000000955b5adcdbba6870feca78338137191f774679ca"
          ],
          "data": "0x0000000000000000000000000000000000000000000001ae48750fb9baed24d2",
          "blockHash": "0x590f41b056dc48a3770bb211fc0f9ebd0f8b50054abb4029bcc0aaa24c91bfc6",
          "blockNumber": "0x179453f",
          "blockTimestamp": "0x69c20993",
          "transactionHash": "0x74e32a1c7c616a72c4671d31713aca5113e6f6885dbc30a6a713194175c588d3",
          "transactionIndex": "0x5d",
          "logIndex": "0x18d",
          "removed": false
        },
        {
          "address": "0x865377367054516e17014ccded1e7d814edc9ce4",
          "topics": [
            "0xddf252ad1be2c89b69c2b068fc378daa952ba7f163c4a11628f55a4df523b3ef",
            "0x000000000000000000000000e5f24791e273cb96a1f8e5b67bc2397f0ad9b8b4",
            "0x000000000000000000000000b45ad160634c528cc3d2926d9807104fa3157305"
          ],
          "data": "0x00000000000000000000000000000000000000000000024b11d0fcb6aa891a6b",
          "blockHash": "0x590f41b056dc48a3770bb211fc0f9ebd0f8b50054abb4029bcc0aaa24c91bfc6",
          "blockNumber": "0x179453f",
          "blockTimestamp": "0x69c20993",
          "transactionHash": "0x74e32a1c7c616a72c4671d31713aca5113e6f6885dbc30a6a713194175c588d3",
          "transactionIndex": "0x5d",
          "logIndex": "0x18e",
          "removed": false
        },
        {
          "address": "0xe5f24791e273cb96a1f8e5b67bc2397f0ad9b8b4",
          "topics": [
            "0x85082129d87b2fe11527cb1b3b7a520aeb5aa6913f88a3d8757fe40d1db02fdd",
            "0x000000000000000000000000b45ad160634c528cc3d2926d9807104fa3157305"
          ],
          "data": "0x00000000000000000000000000000000000000000000024b11d0fcb6aa891a6b",
          "blockHash": "0x590f41b056dc48a3770bb211fc0f9ebd0f8b50054abb4029bcc0aaa24c91bfc6",
          "blockNumber": "0x179453f",
          "blockTimestamp": "0x69c20993",
          "transactionHash": "0x74e32a1c7c616a72c4671d31713aca5113e6f6885dbc30a6a713194175c588d3",
          "transactionIndex": "0x5d",
          "logIndex": "0x18f",
          "removed": false
        },
        {
          "address": "0xb45ad160634c528cc3d2926d9807104fa3157305",
          "topics": [
            "0xddf252ad1be2c89b69c2b068fc378daa952ba7f163c4a11628f55a4df523b3ef",
            "0x000000000000000000000000955b5adcdbba6870feca78338137191f774679ca",
            "0x0000000000000000000000000000000000000000000000000000000000000000"
          ],
          "data": "0x0000000000000000000000000000000000000000000001ae48750fb9baed24d2",
          "blockHash": "0x590f41b056dc48a3770bb211fc0f9ebd0f8b50054abb4029bcc0aaa24c91bfc6",
          "blockNumber": "0x179453f",
          "blockTimestamp": "0x69c20993",
          "transactionHash": "0x74e32a1c7c616a72c4671d31713aca5113e6f6885dbc30a6a713194175c588d3",
          "transactionIndex": "0x5d",
          "logIndex": "0x190",
          "removed": false
        },
        {
          "address": "0xb45ad160634c528cc3d2926d9807104fa3157305",
          "topics": [
            "0xfbde797d201c681b91056529119e0b02407c7bb96a4a2c75c01fc9667232c8db",
            "0x000000000000000000000000955b5adcdbba6870feca78338137191f774679ca",
            "0x000000000000000000000000955b5adcdbba6870feca78338137191f774679ca",
            "0x000000000000000000000000955b5adcdbba6870feca78338137191f774679ca"
          ],
          "data": "0x00000000000000000000000000000000000000000000024b11d0fcb6aa891a6b0000000000000000000000000000000000000000000001ae48750fb9baed24d2",
          "blockHash": "0x590f41b056dc48a3770bb211fc0f9ebd0f8b50054abb4029bcc0aaa24c91bfc6",
          "blockNumber": "0x179453f",
          "blockTimestamp": "0x69c20993",
          "transactionHash": "0x74e32a1c7c616a72c4671d31713aca5113e6f6885dbc30a6a713194175c588d3",
          "transactionIndex": "0x5d",
          "logIndex": "0x191",
          "removed": false
        },
        {
          "address": "0x865377367054516e17014ccded1e7d814edc9ce4",
          "topics": [
            "0xddf252ad1be2c89b69c2b068fc378daa952ba7f163c4a11628f55a4df523b3ef",
            "0x000000000000000000000000b45ad160634c528cc3d2926d9807104fa3157305",
            "0x000000000000000000000000955b5adcdbba6870feca78338137191f774679ca"
          ],
          "data": "0x00000000000000000000000000000000000000000000024b11d0fcb6aa891a6b",
          "blockHash": "0x590f41b056dc48a3770bb211fc0f9ebd0f8b50054abb4029bcc0aaa24c91bfc6",
          "blockNumber": "0x179453f",
          "blockTimestamp": "0x69c20993",
          "transactionHash": "0x74e32a1c7c616a72c4671d31713aca5113e6f6885dbc30a6a713194175c588d3",
          "transactionIndex": "0x5d",
          "logIndex": "0x192",
          "removed": false
        },
        {
          "address": "0x865377367054516e17014ccded1e7d814edc9ce4",
          "topics": [
            "0xddf252ad1be2c89b69c2b068fc378daa952ba7f163c4a11628f55a4df523b3ef",
            "0x000000000000000000000000955b5adcdbba6870feca78338137191f774679ca",
            "0x0000000000000000000000009828b1a3742457d70ce428ddd3aa51f84ffb37f2"
          ],
          "data": "0x00000000000000000000000000000000000000000000024b11d0fcb6aa891a6b",
          "blockHash": "0x590f41b056dc48a3770bb211fc0f9ebd0f8b50054abb4029bcc0aaa24c91bfc6",
          "blockNumber": "0x179453f",
          "blockTimestamp": "0x69c20993",
          "transactionHash": "0x74e32a1c7c616a72c4671d31713aca5113e6f6885dbc30a6a713194175c588d3",
          "transactionIndex": "0x5d",
          "logIndex": "0x193",
          "removed": false
        },
        {
          "address": "0x955b5adcdbba6870feca78338137191f774679ca",
          "topics": [
            "0xf641adc5f6b9cfd1d6487e275cbe1af48916d157270da1d38c8f9d35f31faa46",
            "0x000000000000000000000000b45ad160634c528cc3d2926d9807104fa3157305",
            "0x000000000000000000000000865377367054516e17014ccded1e7d814edc9ce4"
          ],
          "data": "0x0000000000000000000000000000000000000000000001ae48750fb9baed24d2000000000000000000000000000000000000000000000000000000000000000000000000000000000000000000000000000000000000024b11d0fcb6aa891a6b",
          "blockHash": "0x590f41b056dc48a3770bb211fc0f9ebd0f8b50054abb4029bcc0aaa24c91bfc6",
          "blockNumber": "0x179453f",
          "blockTimestamp": "0x69c20993",
          "transactionHash": "0x74e32a1c7c616a72c4671d31713aca5113e6f6885dbc30a6a713194175c588d3",
          "transactionIndex": "0x5d",
          "logIndex": "0x194",
          "removed": false
        },
        {
          "address": "0x865377367054516e17014ccded1e7d814edc9ce4",
          "topics": [
            "0xddf252ad1be2c89b69c2b068fc378daa952ba7f163c4a11628f55a4df523b3ef",
            "0x0000000000000000000000009828b1a3742457d70ce428ddd3aa51f84ffb37f2",
            "0x00000000000000000000000079eb84b5e30ef2481c8f00fd0aa7aad6ac0aa54d"
          ],
          "data": "0x00000000000000000000000000000000000000000000044b829079cfd8e9c39b",
          "blockHash": "0x590f41b056dc48a3770bb211fc0f9ebd0f8b50054abb4029bcc0aaa24c91bfc6",
          "blockNumber": "0x179453f",
          "blockTimestamp": "0x69c20993",
          "transactionHash": "0x74e32a1c7c616a72c4671d31713aca5113e6f6885dbc30a6a713194175c588d3",
          "transactionIndex": "0x5d",
          "logIndex": "0x195",
          "removed": false
        },
        {
          "address": "0x79eb84b5e30ef2481c8f00fd0aa7aad6ac0aa54d",
          "topics": [
            "0xddf252ad1be2c89b69c2b068fc378daa952ba7f163c4a11628f55a4df523b3ef",
            "0x00000000000000000000000001d34d7ef3988c5b981ee06bf0ba4485bd8ea20c",
            "0x0000000000000000000000000000000000000000000000000000000000000000"
          ],
          "data": "0x0000000000000000000000000000000000000000000003c08991ee1fa4caeda1",
          "blockHash": "0x590f41b056dc48a3770bb211fc0f9ebd0f8b50054abb4029bcc0aaa24c91bfc6",
          "blockNumber": "0x179453f",
          "blockTimestamp": "0x69c20993",
          "transactionHash": "0x74e32a1c7c616a72c4671d31713aca5113e6f6885dbc30a6a713194175c588d3",
          "transactionIndex": "0x5d",
          "logIndex": "0x196",
          "removed": false
        },
        {
          "address": "0x79eb84b5e30ef2481c8f00fd0aa7aad6ac0aa54d",
          "topics": [
            "0xfbde797d201c681b91056529119e0b02407c7bb96a4a2c75c01fc9667232c8db",
            "0x00000000000000000000000001d34d7ef3988c5b981ee06bf0ba4485bd8ea20c",
            "0x00000000000000000000000001d34d7ef3988c5b981ee06bf0ba4485bd8ea20c",
            "0x00000000000000000000000001d34d7ef3988c5b981ee06bf0ba4485bd8ea20c"
          ],
          "data": "0x00000000000000000000000000000000000000000000044b74af3fc3208d8c480000000000000000000000000000000000000000000003c08991ee1fa4caeda1",
          "blockHash": "0x590f41b056dc48a3770bb211fc0f9ebd0f8b50054abb4029bcc0aaa24c91bfc6",
          "blockNumber": "0x179453f",
          "blockTimestamp": "0x69c20993",
          "transactionHash": "0x74e32a1c7c616a72c4671d31713aca5113e6f6885dbc30a6a713194175c588d3",
          "transactionIndex": "0x5d",
          "logIndex": "0x197",
          "removed": false
        },
        {
          "address": "0x79eb84b5e30ef2481c8f00fd0aa7aad6ac0aa54d",
          "topics": [
            "0xfde591d4268ec544cdd14ce6872b792705c3a22041dda226551134062d3e05e8"
          ],
          "data": "0x0000000000000000000000000000000000000000000000000de13a0cb85c3979000000000000000000000000000000000000000000001c769295120b9edbb29d0000000000000000000000000000000000000000000018d7d98ad5916d614885",
          "blockHash": "0x590f41b056dc48a3770bb211fc0f9ebd0f8b50054abb4029bcc0aaa24c91bfc6",
          "blockNumber": "0x179453f",
          "blockTimestamp": "0x69c20993",
          "transactionHash": "0x74e32a1c7c616a72c4671d31713aca5113e6f6885dbc30a6a713194175c588d3",
          "transactionIndex": "0x5d",
          "logIndex": "0x198",
          "removed": false
        },
        {
          "address": "0x865377367054516e17014ccded1e7d814edc9ce4",
          "topics": [
            "0xddf252ad1be2c89b69c2b068fc378daa952ba7f163c4a11628f55a4df523b3ef",
            "0x00000000000000000000000079eb84b5e30ef2481c8f00fd0aa7aad6ac0aa54d",
            "0x00000000000000000000000001d34d7ef3988c5b981ee06bf0ba4485bd8ea20c"
          ],
          "data": "0x00000000000000000000000000000000000000000000044b74af3fc3208d8c48",
          "blockHash": "0x590f41b056dc48a3770bb211fc0f9ebd0f8b50054abb4029bcc0aaa24c91bfc6",
          "blockNumber": "0x179453f",
          "blockTimestamp": "0x69c20993",
          "transactionHash": "0x74e32a1c7c616a72c4671d31713aca5113e6f6885dbc30a6a713194175c588d3",
          "transactionIndex": "0x5d",
          "logIndex": "0x199",
          "removed": false
        },
        {
          "address": "0x865377367054516e17014ccded1e7d814edc9ce4",
          "topics": [
            "0xddf252ad1be2c89b69c2b068fc378daa952ba7f163c4a11628f55a4df523b3ef",
            "0x00000000000000000000000001d34d7ef3988c5b981ee06bf0ba4485bd8ea20c",
            "0x000000000000000000000000cad1a7864a108dbff67f4b8af71fab0c7a86d0b6"
          ],
          "data": "0x00000000000000000000000000000000000000000000044b74af3fc3208d8c48",
          "blockHash": "0x590f41b056dc48a3770bb211fc0f9ebd0f8b50054abb4029bcc0aaa24c91bfc6",
          "blockNumber": "0x179453f",
          "blockTimestamp": "0x69c20993",
          "transactionHash": "0x74e32a1c7c616a72c4671d31713aca5113e6f6885dbc30a6a713194175c588d3",
          "transactionIndex": "0x5d",
          "logIndex": "0x19a",
          "removed": false
        },
        {
          "address": "0x01d34d7ef3988c5b981ee06bf0ba4485bd8ea20c",
          "topics": [
            "0x5fafa99d0643513820be26656b45130b01e1c03062e1266bf36f88cbd3bd9695",
            "0x000000000000000000000000cad1a7864a108dbff67f4b8af71fab0c7a86d0b6"
          ],
          "data": "0x00000000000000000000000000000000000000000000044c80677cb0a56bedcb",
          "blockHash": "0x590f41b056dc48a3770bb211fc0f9ebd0f8b50054abb4029bcc0aaa24c91bfc6",
          "blockNumber": "0x179453f",
          "blockTimestamp": "0x69c20993",
          "transactionHash": "0x74e32a1c7c616a72c4671d31713aca5113e6f6885dbc30a6a713194175c588d3",
          "transactionIndex": "0x5d",
          "logIndex": "0x19b",
          "removed": false
        }
      ],
      "logsBloom": "0x000000020002004001a004000500220000008800021000000014a0024000000000000000080000209040084000000000214002030001000000214000012060000000020000000001000220180000000000020410000082048200020006000000000000100200020000000200000088804140000000000260100024100002c404180011002084020051030203001404000054000a000000402000100000000080064200a000000000014001100008000e8000000000000050010080400000000040100833021200041108000802008800000004020000108002100000000024008014880000021010000020000000000100000000000100004004000000220000",
      "type": "0x2",
      "transactionHash": "0x74e32a1c7c616a72c4671d31713aca5113e6f6885dbc30a6a713194175c588d3",
      "transactionIndex": "0x5d",
      "blockHash": "0x590f41b056dc48a3770bb211fc0f9ebd0f8b50054abb4029bcc0aaa24c91bfc6",
      "blockNumber": "0x179453f",
      "gasUsed": "0x1cb809",
      "effectiveGasPrice": "0x29184d2",
      "from": "0xcad1a7864a108dbff67f4b8af71fab0c7a86d0b6",
      "to": "0x01d34d7ef3988c5b981ee06bf0ba4485bd8ea20c",
      "contractAddress": null
    },
    {
      "status": "0x1",
      "cumulativeGasUsed": "0x1413f02",
      "logs": [
        {
          "address": "0x01d34d7ef3988c5b981ee06bf0ba4485bd8ea20c",
          "topics": [
            "0x62e78cea01bee320cd4e420270b5ea74000d11b0c9f74754ebdbfc544b05a258"
          ],
          "data": "0x000000000000000000000000cad1a7864a108dbff67f4b8af71fab0c7a86d0b6",
          "blockHash": "0x916a8382d54788cc69a86bf7f05d42b6972be59e2e1e0030cbaecf60999b4055",
          "blockNumber": "0x1794540",
          "blockTimestamp": "0x69c2099f",
          "transactionHash": "0x202ad1a26c8b7bf5972c8aa08def03300b637e38dfa6b7865ce32fd1251f87fe",
          "transactionIndex": "0x15d",
          "logIndex": "0x163",
          "removed": false
        }
      ],
      "logsBloom": "0x00000000000000000000000000000200000000000000000000100000000000000000000000000000000000000000000000000000000000000000000000000000000000000000000000000000000000000000000000000400000000000000000000000000000000000000000000000000000000010000000000000000000000000000000000800000000008000000000000000000000000000000000000000000000000000000000000000000000000000000000000000000000000000000000000000000000000000000000000000000000000000000000000000000000000000000000000000000000000000000000000000000000000000000000000000000",
      "type": "0x2",
      "transactionHash": "0x202ad1a26c8b7bf5972c8aa08def03300b637e38dfa6b7865ce32fd1251f87fe",
      "transactionIndex": "0x15d",
      "blockHash": "0x916a8382d54788cc69a86bf7f05d42b6972be59e2e1e0030cbaecf60999b4055",
      "blockNumber": "0x1794540",
      "gasUsed": "0x75d0",
      "effectiveGasPrice": "0x2b32dd5",
      "from": "0xcad1a7864a108dbff67f4b8af71fab0c7a86d0b6",
      "to": "0x01d34d7ef3988c5b981ee06bf0ba4485bd8ea20c",
      "contractAddress": null
    },
    {
      "status": "0x1",
      "cumulativeGasUsed": "0x19cfd02",
      "logs": [
        {
          "address": "0x865377367054516e17014ccded1e7d814edc9ce4",
          "topics": [
            "0xddf252ad1be2c89b69c2b068fc378daa952ba7f163c4a11628f55a4df523b3ef",
            "0x000000000000000000000000cad1a7864a108dbff67f4b8af71fab0c7a86d0b6",
            "0x00000000000000000000000064d3cbab6100782a7839fc1af791027a2f1908d2"
          ],
          "data": "0x00000000000000000000000000000000000000000000017a9a78552ea0200000",
          "blockHash": "0xc625dc24a467ba339dc7bc3c9fee9aef891a1d6945d989620922efa388537893",
          "blockNumber": "0x1794544",
          "blockTimestamp": "0x69c209cf",
          "transactionHash": "0xd6e2f034ca10d5973512e1f51ef2d34ab5a0ecdda3c8b7ba535a09a9f6b828a6",
          "transactionIndex": "0x1c4",
          "logIndex": "0x1bc",
          "removed": false
        }
      ],
      "logsBloom": "0x00000000000000000020000000000000000000000000000000040000000000000000000010000000000008400000000000000000000000000000000000080000000000000000000000000008000000000000000000000000000000000000000000000000000000000000000000000000000000000000000000000010000080000000000000000000000000000000000000000000000000008000000000000000000000000000000000000000000000000000000000000000000000000000000000000002000000000000000000000000000000000000100000000000000000000000000000000000000000000000000000000000000000000000000000000000",
      "type": "0x2",
      "transactionHash": "0xd6e2f034ca10d5973512e1f51ef2d34ab5a0ecdda3c8b7ba535a09a9f6b828a6",
      "transactionIndex": "0x1c4",
      "blockHash": "0xc625dc24a467ba339dc7bc3c9fee9aef891a1d6945d989620922efa388537893",
      "blockNumber": "0x1794544",
      "gasUsed": "0xc95e",
      "effectiveGasPrice": "0x2839091",
      "from": "0xcad1a7864a108dbff67f4b8af71fab0c7a86d0b6",
      "to": "0x865377367054516e17014ccded1e7d814edc9ce4",
      "contractAddress": null
    },
    {
      "status": "0x1",
      "cumulativeGasUsed": "0x21d272e",
      "logs": [
        {
          "address": "0x435b0a1884bd0fb5667677c9eb0e59425b1477e5",
          "topics": [
            "0x95bb211a5a393c4d30c3edc9a745825fba4e6ad3e3bb949e6bf8ccdfe431a811",
            "0x0000000000000000000000007c5a8eef1d836450c019fb036453ac6ec97885a3",
            "0x000000000000000000000000cad1a7864a108dbff67f4b8af71fab0c7a86d0b6"
          ],
          "data": "0x",
          "blockHash": "0x07c5d6f26b31a060428d0841d0d95e14cc2ada8d1d1ab03bd09900d132d018f9",
          "blockNumber": "0x1794546",
          "blockTimestamp": "0x69c209e7",
          "transactionHash": "0x552a77607437f8f445f871057000e31db8c310c5aef8b3bfdbb271ed85624702",
          "transactionIndex": "0x26a",
          "logIndex": "0x25d",
          "removed": false
        }
      ],
      "logsBloom": "0x00000000000000000020000000000000000000000000000000000000000000000000000000000000000000400000000000000000200000000000000000000000000020000000000000000000000000000000000000000000000000000000000000000000000000040000000000000000000000000000000000000000000000000000000000001000000000000000000000000000000000000000000000000000010000000000000000000000000000000000000000000400000000000000000000000000000000000000000000000400000000020000100000000000000000000000000000000000000000000000000010000000000000000000000000000000",
      "type": "0x2",
      "transactionHash": "0x552a77607437f8f445f871057000e31db8c310c5aef8b3bfdbb271ed85624702",
      "transactionIndex": "0x26a",
      "blockHash": "0x07c5d6f26b31a060428d0841d0d95e14cc2ada8d1d1ab03bd09900d132d018f9",
      "blockNumber": "0x1794546",
      "gasUsed": "0x7923",
      "effectiveGasPrice": "0x2668f9a",
      "from": "0xcad1a7864a108dbff67f4b8af71fab0c7a86d0b6",
      "to": "0x435b0a1884bd0fb5667677c9eb0e59425b1477e5",
      "contractAddress": null
    },
    {
      "status": "0x1",
      "cumulativeGasUsed": "0x1e2d457",
      "logs": [
        {
          "address": "0x435b0a1884bd0fb5667677c9eb0e59425b1477e5",
          "topics": [
            "0x5db9ee0a495bf2e6ff9c91a7834c1ba4fdd244a5e8aa4e537bd38aeae4b073aa"
          ],
          "data": "0x000000000000000000000000cad1a7864a108dbff67f4b8af71fab0c7a86d0b6",
          "blockHash": "0x8b9b3b84d290ee1a3b2eb4add376d83144d203ff6a543cdb1576e4ebf015f986",
          "blockNumber": "0x1794548",
          "blockTimestamp": "0x69c209ff",
          "transactionHash": "0x947001f4295d869c1744c97314db2a092b96fc28689c183ee1c1d13b405d42c4",
          "transactionIndex": "0x1b9",
          "logIndex": "0x258",
          "removed": false
        }
      ],
      "logsBloom": "0x00000000000000000000000000000000000000000000000080000000000000000000000000000000000000000000000000000000000000000000000000000000000000000000000000000000000000000000000000000000000000008000000000000000000000000000000000000000000000000000000000000000000000000000000000001000000000000000000000000000000000000000000000000000010000000000000000000000000000000000000000000000000000000000000000000000000000000000000000000000000000020000000000000000000000000000000000000000000000000000000000000000000000000000000000000400",
      "type": "0x2",
      "transactionHash": "0x947001f4295d869c1744c97314db2a092b96fc28689c183ee1c1d13b405d42c4",
      "transactionIndex": "0x1b9",
      "blockHash": "0x8b9b3b84d290ee1a3b2eb4add376d83144d203ff6a543cdb1576e4ebf015f986",
      "blockNumber": "0x1794548",
      "gasUsed": "0x6c7c",
      "effectiveGasPrice": "0x293a6d4",
      "from": "0xcad1a7864a108dbff67f4b8af71fab0c7a86d0b6",
      "to": "0x435b0a1884bd0fb5667677c9eb0e59425b1477e5",
      "contractAddress": null
    },
    {
      "status": "0x1",
      "cumulativeGasUsed": "0x1924e58",
      "logs": [
        {
          "address": "0x5cbad8c3a18f37bc829e319533927a57d2bc99a4",
          "topics": [
            "0x8be0079c531659141344cd1fd0a4f28419497f9722a3daafe3b4186f6b6457e0",
            "0x0000000000000000000000000000000000000000000000000000000000000000",
            "0x000000000000000000000000cad1a7864a108dbff67f4b8af71fab0c7a86d0b6"
          ],
          "data": "0x",
          "blockHash": "0x0ca943969e918d16fd9f112bb95b4b4b8706662162bfbf95c0979c763da5e0ea",
          "blockNumber": "0x179454a",
          "blockTimestamp": "0x69c20a17",
          "transactionHash": "0x3447d4cc9f523a7b93be9c0bb76bb14170ad7396b5d45289939507764afd56dd",
          "transactionIndex": "0x69",
          "logIndex": "0x546",
          "removed": false
        },
        {
          "address": "0x865377367054516e17014ccded1e7d814edc9ce4",
          "topics": [
            "0x8c5be1e5ebec7d5bd14f71427d1e84f3dd0314c0f7b2291e5b200ac8c7c3b925",
            "0x0000000000000000000000005cbad8c3a18f37bc829e319533927a57d2bc99a4",
            "0x00000000000000000000000079eb84b5e30ef2481c8f00fd0aa7aad6ac0aa54d"
          ],
          "data": "0xffffffffffffffffffffffffffffffffffffffffffffffffffffffffffffffff",
          "blockHash": "0x0ca943969e918d16fd9f112bb95b4b4b8706662162bfbf95c0979c763da5e0ea",
          "blockNumber": "0x179454a",
          "blockTimestamp": "0x69c20a17",
          "transactionHash": "0x3447d4cc9f523a7b93be9c0bb76bb14170ad7396b5d45289939507764afd56dd",
          "transactionIndex": "0x69",
          "logIndex": "0x547",
          "removed": false
        },
        {
          "address": "0x79eb84b5e30ef2481c8f00fd0aa7aad6ac0aa54d",
          "topics": [
            "0x8c5be1e5ebec7d5bd14f71427d1e84f3dd0314c0f7b2291e5b200ac8c7c3b925",
            "0x0000000000000000000000005cbad8c3a18f37bc829e319533927a57d2bc99a4",
            "0x000000000000000000000000dc39c67b38ecda8a1974336c89b00f68667c91b7"
          ],
          "data": "0xffffffffffffffffffffffffffffffffffffffffffffffffffffffffffffffff",
          "blockHash": "0x0ca943969e918d16fd9f112bb95b4b4b8706662162bfbf95c0979c763da5e0ea",
          "blockNumber": "0x179454a",
          "blockTimestamp": "0x69c20a17",
          "transactionHash": "0x3447d4cc9f523a7b93be9c0bb76bb14170ad7396b5d45289939507764afd56dd",
          "transactionIndex": "0x69",
          "logIndex": "0x548",
          "removed": false
        }
      ],
      "logsBloom": "0x00000002000000000120000000000000000004000000000000842000000000080000000000000020000008400000000000000200000000000000000000200000000000000080000000000000000000000001000000000000000000000000000000000000020000000000000000000800000000000000002000000000000080400000000000000000000000000040000000000000000000000000000000000000020000000000000000000000000800000000000000000010000000000000000000000000000000000000000000000000000000000000100000000000000020000014000000000000000000000000000002000000000000000004000000000000",
      "type": "0x2",
      "transactionHash": "0x3447d4cc9f523a7b93be9c0bb76bb14170ad7396b5d45289939507764afd56dd",
      "transactionIndex": "0x69",
      "blockHash": "0x0ca943969e918d16fd9f112bb95b4b4b8706662162bfbf95c0979c763da5e0ea",
      "blockNumber": "0x179454a",
      "gasUsed": "0x318e1e",
      "effectiveGasPrice": "0x268b761",
      "from": "0xcad1a7864a108dbff67f4b8af71fab0c7a86d0b6",
      "to": null,
      "contractAddress": "0x5cbad8c3a18f37bc829e319533927a57d2bc99a4"
    },
    {
      "status": "0x1",
      "cumulativeGasUsed": "0x2385ce7",
      "logs": [
        {
          "address": "0x5cbad8c3a18f37bc829e319533927a57d2bc99a4",
          "topics": [
            "0x50b24d98d3da51f5db279e5872fa50584b172048aa9bfa6c6edb4d0cfbb4dc58",
            "0x000000000000000000000000435b0a1884bd0fb5667677c9eb0e59425b1477e5"
          ],
          "data": "0x0000000000000000000000000000000000000000000000000000000000000001",
          "blockHash": "0x922db8ba1b7776c40120d0af2162013f16b2aa2d23859d687a3a570219d73ec9",
          "blockNumber": "0x179454d",
          "blockTimestamp": "0x69c20a3b",
          "transactionHash": "0x944bb208f47d2708403c45bf32792317779b152b4b8b02f10233a395f804ef9f",
          "transactionIndex": "0x24a",
          "logIndex": "0x5d7",
          "removed": false
        }
      ],
      "logsBloom": "0x00000000000000000000000000000000000004000000000000000000000000080000000000000000000000000000080000000000000000000000000000000000000000000080000000000000000000000000000000000000000000000000000000000000000000000000000000000000000000000000000000100000000000000100000000000000000000000000000000000000000000000000000000000000010000000000000800000000000000000000000000000000000000000000000000000004000000000000000000000000000000000000000000000000000000000000000000000000000000000000000000000000000000000000000000000000",
      "type": "0x2",
      "transactionHash": "0x944bb208f47d2708403c45bf32792317779b152b4b8b02f10233a395f804ef9f",
      "transactionIndex": "0x24a",
      "blockHash": "0x922db8ba1b7776c40120d0af2162013f16b2aa2d23859d687a3a570219d73ec9",
      "blockNumber": "0x179454d",
      "gasUsed": "0xbb0d",
      "effectiveGasPrice": "0x29f0ae6",
      "from": "0xcad1a7864a108dbff67f4b8af71fab0c7a86d0b6",
      "to": "0x5cbad8c3a18f37bc829e319533927a57d2bc99a4",
      "contractAddress": null
    },
    {
      "status": "0x1",
      "cumulativeGasUsed": "0x19a4fb2",
      "logs": [
        {
          "address": "0x435b0a1884bd0fb5667677c9eb0e59425b1477e5",
          "topics": [
            "0xc3a31eaea4c0b528b360d168d8797d781302b685df4bdb2b4fdfae9592806399",
            "0x000000000000000000000000865377367054516e17014ccded1e7d814edc9ce4",
            "0x0000000000000000000000005cbad8c3a18f37bc829e319533927a57d2bc99a4"
          ],
          "data": "0x0000000000000000000000000000000000000000000000000de0b6b3a76400000000000000000000000000000000000000000000000000000000000000000012",
          "blockHash": "0x5e4ddfec95dd980575b5abd460bebd8fb764f8a3be7aa3e7284231a7e91fd678",
          "blockNumber": "0x179454f",
          "blockTimestamp": "0x69c20a53",
          "transactionHash": "0x836043327a1ccfe573254455200ea12e710ab0ee2dd832a0eea8dc27e7f6432b",
          "transactionIndex": "0x187",
          "logIndex": "0x22b",
          "removed": false
        }
      ],
      "logsBloom": "0x00000002000000000000000100000000000000000000000000000000000000000000000000000000000000000000000000000000000000000000000000000000000000000000000000000000000000000000000000000000000000000000000000000020000000000000000000000000000000000000000000000010000000000000000000001000000000000040000000000000000000000000000000000000010000000000000000000000000000000000000000000000000000000000000000000000001000000000000000000000000000020000000000000000000000000000000000000000000100000000000002000000000000000000000000000000",
      "type": "0x2",
      "transactionHash": "0x836043327a1ccfe573254455200ea12e710ab0ee2dd832a0eea8dc27e7f6432b",
      "transactionIndex": "0x187",
      "blockHash": "0x5e4ddfec95dd980575b5abd460bebd8fb764f8a3be7aa3e7284231a7e91fd678",
      "blockNumber": "0x179454f",
      "gasUsed": "0xeb28",
      "effectiveGasPrice": "0x2b950dc",
      "from": "0xcad1a7864a108dbff67f4b8af71fab0c7a86d0b6",
      "to": "0x435b0a1884bd0fb5667677c9eb0e59425b1477e5",
      "contractAddress": null
    },
    {
      "status": "0x1",
      "cumulativeGasUsed": "0x119304f",
      "logs": [
        {
          "address": "0x865377367054516e17014ccded1e7d814edc9ce4",
          "topics": [
            "0x8c5be1e5ebec7d5bd14f71427d1e84f3dd0314c0f7b2291e5b200ac8c7c3b925",
            "0x000000000000000000000000435b0a1884bd0fb5667677c9eb0e59425b1477e5",
            "0x0000000000000000000000005cbad8c3a18f37bc829e319533927a57d2bc99a4"
          ],
          "data": "0xffffffffffffffffffffffffffffffffffffffffffffffffffffffffffffffff",
          "blockHash": "0x98adbc518e29972a9b1b17f4fb6a7424e45fc4715ae68c91ff4af169ed7259fb",
          "blockNumber": "0x1794550",
          "blockTimestamp": "0x69c20a5f",
          "transactionHash": "0x5be4883f709850be56df6b1388b43429a7625a041ae2db2058ff4c43ae363b28",
          "transactionIndex": "0xfb",
          "logIndex": "0xfc",
          "removed": false
        },
        {
          "address": "0x435b0a1884bd0fb5667677c9eb0e59425b1477e5",
          "topics": [
            "0x19a490fe10389a19852ba145f5f2c242d1eb13e72a38c85212b51bb65fb10984",
            "0x000000000000000000000000865377367054516e17014ccded1e7d814edc9ce4",
            "0x0000000000000000000000005cbad8c3a18f37bc829e319533927a57d2bc99a4"
          ],
          "data": "0x",
          "blockHash": "0x98adbc518e29972a9b1b17f4fb6a7424e45fc4715ae68c91ff4af169ed7259fb",
          "blockNumber": "0x1794550",
          "blockTimestamp": "0x69c20a5f",
          "transactionHash": "0x5be4883f709850be56df6b1388b43429a7625a041ae2db2058ff4c43ae363b28",
          "transactionIndex": "0xfb",
          "logIndex": "0xfd",
          "removed": false
        }
      ],
      "logsBloom": "0x00000002000000000000000000000000000000000000000000040000000000000000000000000000000008000000080000000000000000000000000000200000000000000000000000000000000000000000000000000000000000000000000000000000000000000001000020000000000000000400000000000010000080000100000000001000000000000040000000000000000000000000000000000000030000000000000000000000000000000000000000000000000000000000000000000004001000000000000000000000000000020000000000000000000000000010000000000000000000000000000002000000000000000000000000000000",
      "type": "0x2",
      "transactionHash": "0x5be4883f709850be56df6b1388b43429a7625a041ae2db2058ff4c43ae363b28",
      "transactionIndex": "0xfb",
      "blockHash": "0x98adbc518e29972a9b1b17f4fb6a7424e45fc4715ae68c91ff4af169ed7259fb",
      "blockNumber": "0x1794550",
      "gasUsed": "0xd185",
      "effectiveGasPrice": "0x2bdd328",
      "from": "0xcad1a7864a108dbff67f4b8af71fab0c7a86d0b6",
      "to": "0x435b0a1884bd0fb5667677c9eb0e59425b1477e5",
      "contractAddress": null
    },
    {
      "status": "0x1",
      "cumulativeGasUsed": "0x356b9c2",
      "logs": [
        {
          "address": "0x865377367054516e17014ccded1e7d814edc9ce4",
          "topics": [
            "0x8c5be1e5ebec7d5bd14f71427d1e84f3dd0314c0f7b2291e5b200ac8c7c3b925",
            "0x000000000000000000000000cad1a7864a108dbff67f4b8af71fab0c7a86d0b6",
            "0x000000000000000000000000435b0a1884bd0fb5667677c9eb0e59425b1477e5"
          ],
          "data": "0x0000000000000000000000000000000000000000000002d0da36df2937746bc2",
          "blockHash": "0x42cecdd120038ec5321b09c6dc4ce568ffcd0d02ddd1007b490393823adfe740",
          "blockNumber": "0x1794557",
          "blockTimestamp": "0x69c20ab3",
          "transactionHash": "0xc9712b65152b09dd3e36c88164959b42d365fc44401f16b1315351e02295750c",
          "transactionIndex": "0x1c2",
          "logIndex": "0x7d7",
          "removed": false
        }
      ],
      "logsBloom": "0x00000000000000000020000000000000000000000000000000040000000000000000000000000000000008400000080000000000000000000000000000200000000000000000000000000000000000000000000000000000000000000000000000000000000000000000000000000000000000000000000000000000000080000100000000000000000000000000000000000000000000000000000000000000020000000000000000000000000000000000000000000000000000000000000000000004000000000000000000000000000000000000100000000000000000000010000000000000000000000000000000000000000000000000000000000000",
      "type": "0x2",
      "transactionHash": "0xc9712b65152b09dd3e36c88164959b42d365fc44401f16b1315351e02295750c",
      "transactionIndex": "0x1c2",
      "blockHash": "0x42cecdd120038ec5321b09c6dc4ce568ffcd0d02ddd1007b490393823adfe740",
      "blockNumber": "0x1794557",
      "gasUsed": "0xb441",
      "effectiveGasPrice": "0x28adc38",
      "from": "0xcad1a7864a108dbff67f4b8af71fab0c7a86d0b6",
      "to": "0x865377367054516e17014ccded1e7d814edc9ce4",
      "contractAddress": null
    },
    {
      "status": "0x1",
      "cumulativeGasUsed": "0x135009e",
      "logs": [
        {
          "address": "0x865377367054516e17014ccded1e7d814edc9ce4",
          "topics": [
            "0xddf252ad1be2c89b69c2b068fc378daa952ba7f163c4a11628f55a4df523b3ef",
            "0x000000000000000000000000cad1a7864a108dbff67f4b8af71fab0c7a86d0b6",
            "0x000000000000000000000000435b0a1884bd0fb5667677c9eb0e59425b1477e5"
          ],
          "data": "0x0000000000000000000000000000000000000000000002d0da36df2937746bc2",
          "blockHash": "0x88007988275ff344e349ace249550c7ce818d366af50df27ec4cfd24bdfa3872",
          "blockNumber": "0x1794558",
          "blockTimestamp": "0x69c20abf",
          "transactionHash": "0x39d23d9cf7f3ab38b1d547580ef3f2913ffb6d4ab5fc8a44bb65eedb00ed9025",
          "transactionIndex": "0xbb",
          "logIndex": "0x216",
          "removed": false
        },
        {
          "address": "0x865377367054516e17014ccded1e7d814edc9ce4",
          "topics": [
            "0xddf252ad1be2c89b69c2b068fc378daa952ba7f163c4a11628f55a4df523b3ef",
            "0x000000000000000000000000435b0a1884bd0fb5667677c9eb0e59425b1477e5",
            "0x0000000000000000000000005cbad8c3a18f37bc829e319533927a57d2bc99a4"
          ],
          "data": "0x0000000000000000000000000000000000000000000002d0da36df2937746bc2",
          "blockHash": "0x88007988275ff344e349ace249550c7ce818d366af50df27ec4cfd24bdfa3872",
          "blockNumber": "0x1794558",
          "blockTimestamp": "0x69c20abf",
          "transactionHash": "0x39d23d9cf7f3ab38b1d547580ef3f2913ffb6d4ab5fc8a44bb65eedb00ed9025",
          "transactionIndex": "0xbb",
          "logIndex": "0x217",
          "removed": false
        },
        {
          "address": "0x865377367054516e17014ccded1e7d814edc9ce4",
          "topics": [
            "0xddf252ad1be2c89b69c2b068fc378daa952ba7f163c4a11628f55a4df523b3ef",
            "0x0000000000000000000000005cbad8c3a18f37bc829e319533927a57d2bc99a4",
            "0x00000000000000000000000079eb84b5e30ef2481c8f00fd0aa7aad6ac0aa54d"
          ],
          "data": "0x0000000000000000000000000000000000000000000002d0da36df2937746bc2",
          "blockHash": "0x88007988275ff344e349ace249550c7ce818d366af50df27ec4cfd24bdfa3872",
          "blockNumber": "0x1794558",
          "blockTimestamp": "0x69c20abf",
          "transactionHash": "0x39d23d9cf7f3ab38b1d547580ef3f2913ffb6d4ab5fc8a44bb65eedb00ed9025",
          "transactionIndex": "0xbb",
          "logIndex": "0x218",
          "removed": false
        },
        {
          "address": "0x79eb84b5e30ef2481c8f00fd0aa7aad6ac0aa54d",
          "topics": [
            "0xddf252ad1be2c89b69c2b068fc378daa952ba7f163c4a11628f55a4df523b3ef",
            "0x0000000000000000000000000000000000000000000000000000000000000000",
            "0x0000000000000000000000005cbad8c3a18f37bc829e319533927a57d2bc99a4"
          ],
          "data": "0x0000000000000000000000000000000000000000000002752a060982ddf55ead",
          "blockHash": "0x88007988275ff344e349ace249550c7ce818d366af50df27ec4cfd24bdfa3872",
          "blockNumber": "0x1794558",
          "blockTimestamp": "0x69c20abf",
          "transactionHash": "0x39d23d9cf7f3ab38b1d547580ef3f2913ffb6d4ab5fc8a44bb65eedb00ed9025",
          "transactionIndex": "0xbb",
          "logIndex": "0x219",
          "removed": false
        },
        {
          "address": "0x79eb84b5e30ef2481c8f00fd0aa7aad6ac0aa54d",
          "topics": [
            "0xdcbc1c05240f31ff3ad067ef1ee35ce4997762752e3a095284754544f4c709d7",
            "0x0000000000000000000000005cbad8c3a18f37bc829e319533927a57d2bc99a4",
            "0x0000000000000000000000005cbad8c3a18f37bc829e319533927a57d2bc99a4"
          ],
          "data": "0x0000000000000000000000000000000000000000000002d0da36df2937746bc20000000000000000000000000000000000000000000002752a060982ddf55ead",
          "blockHash": "0x88007988275ff344e349ace249550c7ce818d366af50df27ec4cfd24bdfa3872",
          "blockNumber": "0x1794558",
          "blockTimestamp": "0x69c20abf",
          "transactionHash": "0x39d23d9cf7f3ab38b1d547580ef3f2913ffb6d4ab5fc8a44bb65eedb00ed9025",
          "transactionIndex": "0xbb",
          "logIndex": "0x21a",
          "removed": false
        },
        {
          "address": "0x79eb84b5e30ef2481c8f00fd0aa7aad6ac0aa54d",
          "topics": [
            "0xfde591d4268ec544cdd14ce6872b792705c3a22041dda226551134062d3e05e8"
          ],
          "data": "0x0000000000000000000000000000000000000000000002d0e8181935efd0a53b000000000000000000000000000000000000000000001c769295120b9edbb29d000000000000000000000000000000000000000000001b4d038589b925f8e00c",
          "blockHash": "0x88007988275ff344e349ace249550c7ce818d366af50df27ec4cfd24bdfa3872",
          "blockNumber": "0x1794558",
          "blockTimestamp": "0x69c20abf",
          "transactionHash": "0x39d23d9cf7f3ab38b1d547580ef3f2913ffb6d4ab5fc8a44bb65eedb00ed9025",
          "transactionIndex": "0xbb",
          "logIndex": "0x21b",
          "removed": false
        },
        {
          "address": "0xdc39c67b38ecda8a1974336c89b00f68667c91b7",
          "topics": [
            "0x469d38647ec007a9c93421468c92550d50fccc01ae12e149b1216aa9b0136fc7",
            "0x0000000000000000000000005cbad8c3a18f37bc829e319533927a57d2bc99a4"
          ],
          "data": "0x00000000000000000000000000000000000000000000000000000000000000000000000000000000000000000000000000000000000000000c3908a7d967d11e00000000000000000000000000000000000000000000000000000000687651cb",
          "blockHash": "0x88007988275ff344e349ace249550c7ce818d366af50df27ec4cfd24bdfa3872",
          "blockNumber": "0x1794558",
          "blockTimestamp": "0x69c20abf",
          "transactionHash": "0x39d23d9cf7f3ab38b1d547580ef3f2913ffb6d4ab5fc8a44bb65eedb00ed9025",
          "transactionIndex": "0xbb",
          "logIndex": "0x21c",
          "removed": false
        },
        {
          "address": "0xdc39c67b38ecda8a1974336c89b00f68667c91b7",
          "topics": [
            "0x9e71bc8eea02a63969f509818f2dafb9254532904319f9dbda79b67bd34a5f3d",
            "0x0000000000000000000000005cbad8c3a18f37bc829e319533927a57d2bc99a4"
          ],
          "data": "0x0000000000000000000000000000000000000000000002752a060982ddf55ead",
          "blockHash": "0x88007988275ff344e349ace249550c7ce818d366af50df27ec4cfd24bdfa3872",
          "blockNumber": "0x1794558",
          "blockTimestamp": "0x69c20abf",
          "transactionHash": "0x39d23d9cf7f3ab38b1d547580ef3f2913ffb6d4ab5fc8a44bb65eedb00ed9025",
          "transactionIndex": "0xbb",
          "logIndex": "0x21d",
          "removed": false
        },
        {
          "address": "0x17c50b9fba151f5f88618dae6c394bd731022975",
          "topics": [
            "0x469d38647ec007a9c93421468c92550d50fccc01ae12e149b1216aa9b0136fc7",
            "0x0000000000000000000000005cbad8c3a18f37bc829e319533927a57d2bc99a4"
          ],
          "data": "0x000000000000000000000000000000000000000000000000000000000000000000000000000000000000000000000000000000000000000002e397966b52f02100000000000000000000000000000000000000000000000000000000687651cb",
          "blockHash": "0x88007988275ff344e349ace249550c7ce818d366af50df27ec4cfd24bdfa3872",
          "blockNumber": "0x1794558",
          "blockTimestamp": "0x69c20abf",
          "transactionHash": "0x39d23d9cf7f3ab38b1d547580ef3f2913ffb6d4ab5fc8a44bb65eedb00ed9025",
          "transactionIndex": "0xbb",
          "logIndex": "0x21e",
          "removed": false
        },
        {
          "address": "0x17c50b9fba151f5f88618dae6c394bd731022975",
          "topics": [
            "0x9e71bc8eea02a63969f509818f2dafb9254532904319f9dbda79b67bd34a5f3d",
            "0x0000000000000000000000005cbad8c3a18f37bc829e319533927a57d2bc99a4"
          ],
          "data": "0x0000000000000000000000000000000000000000000002752a060982ddf55ead",
          "blockHash": "0x88007988275ff344e349ace249550c7ce818d366af50df27ec4cfd24bdfa3872",
          "blockNumber": "0x1794558",
          "blockTimestamp": "0x69c20abf",
          "transactionHash": "0x39d23d9cf7f3ab38b1d547580ef3f2913ffb6d4ab5fc8a44bb65eedb00ed9025",
          "transactionIndex": "0xbb",
          "logIndex": "0x21f",
          "removed": false
        },
        {
          "address": "0x79eb84b5e30ef2481c8f00fd0aa7aad6ac0aa54d",
          "topics": [
            "0xddf252ad1be2c89b69c2b068fc378daa952ba7f163c4a11628f55a4df523b3ef",
            "0x0000000000000000000000005cbad8c3a18f37bc829e319533927a57d2bc99a4",
            "0x000000000000000000000000dc39c67b38ecda8a1974336c89b00f68667c91b7"
          ],
          "data": "0x0000000000000000000000000000000000000000000002752a060982ddf55ead",
          "blockHash": "0x88007988275ff344e349ace249550c7ce818d366af50df27ec4cfd24bdfa3872",
          "blockNumber": "0x1794558",
          "blockTimestamp": "0x69c20abf",
          "transactionHash": "0x39d23d9cf7f3ab38b1d547580ef3f2913ffb6d4ab5fc8a44bb65eedb00ed9025",
          "transactionIndex": "0xbb",
          "logIndex": "0x220",
          "removed": false
        },
        {
          "address": "0x5cbad8c3a18f37bc829e319533927a57d2bc99a4",
          "topics": [
            "0xb045190548dadae679cfe9e337437613ca6dd73efdf984f75e56f152ccee22f0",
            "0x000000000000000000000000865377367054516e17014ccded1e7d814edc9ce4",
            "0x000000000000000000000000435b0a1884bd0fb5667677c9eb0e59425b1477e5",
            "0x000000000000000000000000435b0a1884bd0fb5667677c9eb0e59425b1477e5"
          ],
          "data": "0x0000000000000000000000000000000000000000000002d0da36df2937746bc20000000000000000000000000000000000000000000002752a060982ddf55ead",
          "blockHash": "0x88007988275ff344e349ace249550c7ce818d366af50df27ec4cfd24bdfa3872",
          "blockNumber": "0x1794558",
          "blockTimestamp": "0x69c20abf",
          "transactionHash": "0x39d23d9cf7f3ab38b1d547580ef3f2913ffb6d4ab5fc8a44bb65eedb00ed9025",
          "transactionIndex": "0xbb",
          "logIndex": "0x221",
          "removed": false
        },
        {
          "address": "0x435b0a1884bd0fb5667677c9eb0e59425b1477e5",
          "topics": [
            "0xcbc4a4091b012bb1329c38bbbb15455f5cac5aa3673da0a7f38cd61a4f495517",
            "0x0000000000000000000000005cbad8c3a18f37bc829e319533927a57d2bc99a4",
            "0x000000000000000000000000865377367054516e17014ccded1e7d814edc9ce4"
          ],
          "data": "0x0000000000000000000000000000000000000000000002d0da36df2937746bc2",
          "blockHash": "0x88007988275ff344e349ace249550c7ce818d366af50df27ec4cfd24bdfa3872",
          "blockNumber": "0x1794558",
          "blockTimestamp": "0x69c20abf",
          "transactionHash": "0x39d23d9cf7f3ab38b1d547580ef3f2913ffb6d4ab5fc8a44bb65eedb00ed9025",
          "transactionIndex": "0xbb",
          "logIndex": "0x222",
          "removed": false
        }
      ],
      "logsBloom": "0x000000020000000001200000000000000000840008000000000420004000000800000000000200200000084000000800000002000001000000000000000000000000004000800000000000080000000200000000000080000000000000000000400000000200000000080000000088000000000000040020000004100000c0000100000000001000000000000044000000000000000000000000100000010000010000000000000000000000000800000000000000000010000000000000000000200006001000000100000002000000000000020008100000000000000020008004000000000000000000000000000002001000000000000004000000000000",
      "type": "0x2",
      "transactionHash": "0x39d23d9cf7f3ab38b1d547580ef3f2913ffb6d4ab5fc8a44bb65eedb00ed9025",
      "transactionIndex": "0xbb",
      "blockHash": "0x88007988275ff344e349ace249550c7ce818d366af50df27ec4cfd24bdfa3872",
      "blockNumber": "0x1794558",
      "gasUsed": "0x5ba15",
      "effectiveGasPrice": "0x2daad8c",
      "from": "0xcad1a7864a108dbff67f4b8af71fab0c7a86d0b6",
      "to": "0x435b0a1884bd0fb5667677c9eb0e59425b1477e5",
      "contractAddress": null
    },
    {
      "status": "0x1",
      "cumulativeGasUsed": "0xd7baa5",
      "logs": [
        {
          "address": "0xb9639e6be92033f55e6d9e375fd1c28ceedba50e",
          "topics": [
            "0x7bc7e967314c87be019a6f018822e621cf2548b9231ed0605002aceb282e1608",
            "0x00000000000000000000000001d34d7ef3988c5b981ee06bf0ba4485bd8ea20c"
          ],
          "data": "0x",
          "blockHash": "0x3a85398ebb0f6ffee751f5be425e37632aa8d9eff057883dcbe6d2153b1b700a",
          "blockNumber": "0x1794559",
          "blockTimestamp": "0x69c20acb",
          "transactionHash": "0x308d0df5088a7c8dccdef4d8bf06bbf3b8ae53fbecd846f8e059fef7e380cdc5",
          "transactionIndex": "0x9a",
          "logIndex": "0xb7",
          "removed": false
        }
      ],
      "logsBloom": "0x00000000000000000000000000000000000000000000000000000000000000004000000010000000000000000000000001000000000000000000000100000000200000000000000000000000000000000000000000000000000000000000000000000000000000002000000000000000000000000000000000000000000000000000000000000000000000004000000000000000000000000000000000000000000000000000000000000000000000000000000000000000000000000000000000000000000000000008000000000000000000000000000002000000000000000000000000000000000000000000000000000000000000000000000000000000",
      "type": "0x2",
      "transactionHash": "0x308d0df5088a7c8dccdef4d8bf06bbf3b8ae53fbecd846f8e059fef7e380cdc5",
      "transactionIndex": "0x9a",
      "blockHash": "0x3a85398ebb0f6ffee751f5be425e37632aa8d9eff057883dcbe6d2153b1b700a",
      "blockNumber": "0x1794559",
      "gasUsed": "0xa1f0",
      "effectiveGasPrice": "0x2c880c5",
      "from": "0xcad1a7864a108dbff67f4b8af71fab0c7a86d0b6",
      "to": "0xb9639e6be92033f55e6d9e375fd1c28ceedba50e",
      "contractAddress": null
    },
    {
      "status": "0x1",
      "cumulativeGasUsed": "0x2f101d9",
      "logs": [
        {
          "address": "0xb9639e6be92033f55e6d9e375fd1c28ceedba50e",
          "topics": [
            "0xdc4b546afdb935e93f993a347dbbab9b6a533a7c1ab745d14e05163767d5b10a",
            "0x0000000000000000000000005cbad8c3a18f37bc829e319533927a57d2bc99a4"
          ],
          "data": "0x",
          "blockHash": "0xff5b196321205c508d9c556f737fc9d9a0f71c91f62ff6ae1a5cb2f446a89347",
          "blockNumber": "0x179455a",
          "blockTimestamp": "0x69c20ad7",
          "transactionHash": "0x5c53d8a353ca59e69edb8a0ee1dfbc27c6ad27ab4d3d0b1ed7c016cf824c86c6",
          "transactionIndex": "0xa3",
          "logIndex": "0x673",
          "removed": false
        }
      ],
      "logsBloom": "0x00000002000000000000000000000000000000000000000000000000000000004000000000104000000000000000000000000000000000000004000000000000200000000000000000000000000000000000000000000000000000000000000000000000000000000000000000000000000000000000000000000000000000000000000000000000000000004040000000000000000000000000000000000000000000000000000000000000000000000000000000000000000000000000000000000000000000000000000000000000000000000000000000000000000000000000000000000000000000000000000002000000000000000000000000000000",
      "type": "0x2",
      "transactionHash": "0x5c53d8a353ca59e69edb8a0ee1dfbc27c6ad27ab4d3d0b1ed7c016cf824c86c6",
      "transactionIndex": "0xa3",
      "blockHash": "0xff5b196321205c508d9c556f737fc9d9a0f71c91f62ff6ae1a5cb2f446a89347",
      "blockNumber": "0x179455a",
      "gasUsed": "0x17d1a",
      "effectiveGasPrice": "0x2b3d069",
      "from": "0xcad1a7864a108dbff67f4b8af71fab0c7a86d0b6",
      "to": "0xb9639e6be92033f55e6d9e375fd1c28ceedba50e",
      "contractAddress": null
    },
    {
      "status": "0x1",
      "cumulativeGasUsed": "0x24855bc",
      "logs": [
        {
          "address": "0x5cbad8c3a18f37bc829e319533927a57d2bc99a4",
          "topics": [
            "0x5c8df9226b5390a36c31cb0bb75ccd51f1106fc9c93332f6305e2a4a7ae4e771",
            "0x000000000000000000000000b9639e6be92033f55e6d9e375fd1c28ceedba50e"
          ],
          "data": "0x0000000000000000000000000000000000000000000000000000000000000001",
          "blockHash": "0x5bdd0cd08bfa946390efa3c2b90a7deb44d2a43b6603c73bad3bdd7dfcd1e13e",
          "blockNumber": "0x179455e",
          "blockTimestamp": "0x69c20b07",
          "transactionHash": "0x2181b0089d303ad08e8987f3ff0ed58ade182401a6c03b0291bcaf0823286687",
          "transactionIndex": "0x280",
          "logIndex": "0x239",
          "removed": false
        }
      ],
      "logsBloom": "0x00000000000000000000000000000000000004000000000000000000000000080000000000000000000000000000000000000000000000000000000000000000000000000080000000000000000000000000000000000000000420000000000000000000100000000000000000000000000000000000000000000000000000000000000000000001000000000000000000000000000000000000000000000000000000000000000000000000000400000000000000000000000000000000000000000000000000000000000000000000000000000080000000000000000000000000000000000000000000000000000000000000000000000000000000000000",
      "type": "0x2",
      "transactionHash": "0x2181b0089d303ad08e8987f3ff0ed58ade182401a6c03b0291bcaf0823286687",
      "transactionIndex": "0x280",
      "blockHash": "0x5bdd0cd08bfa946390efa3c2b90a7deb44d2a43b6603c73bad3bdd7dfcd1e13e",
      "blockNumber": "0x179455e",
      "gasUsed": "0xbbd5",
      "effectiveGasPrice": "0x2a0c75d",
      "from": "0xcad1a7864a108dbff67f4b8af71fab0c7a86d0b6",
      "to": "0x5cbad8c3a18f37bc829e319533927a57d2bc99a4",
      "contractAddress": null
    },
    {
      "status": "0x1",
      "cumulativeGasUsed": "0x21ceaf9",
      "logs": [
        {
          "address": "0x5cbad8c3a18f37bc829e319533927a57d2bc99a4",
          "topics": [
            "0x5dcaa27e7d9a9fdd8d01662749f4c51d8a9d7933cc5c31bc05ce70aef865d004",
            "0x0000000000000000000000000000000000000000000000000000000000000000",
            "0x000000000000000000000000cad1a7864a108dbff67f4b8af71fab0c7a86d0b6"
          ],
          "data": "0x",
          "blockHash": "0xa862c3f1b1b54cb3876332627bc366da5de2453ecb289e7f59ec2cdbd7df4dbb",
          "blockNumber": "0x1794561",
          "blockTimestamp": "0x69c20b2b",
          "transactionHash": "0x7f102d8dbd8602dcd0a4fb5272f1d9e1e6a138c4589c5f95734c436d08147c30",
          "transactionIndex": "0x1ee",
          "logIndex": "0x60c",
          "removed": false
        }
      ],
      "logsBloom": "0x00000000000000000020000000000000000004000000000000000000000000080000001000000000000000400000000000000000000000000000000000000000000000004080000000000000000000000000000000000000000000000000000000000000020000000000000000000800000000000000000000000000000000000000000000000000000000000000000000000000000000000000000000000000000000000000100000000000000000000000000000000000000000000000000000000000000000000000000000000000000000000000100000000000000020000000000000000000000000000000000000000000000000000000000000000000",
      "type": "0x2",
      "transactionHash": "0x7f102d8dbd8602dcd0a4fb5272f1d9e1e6a138c4589c5f95734c436d08147c30",
      "transactionIndex": "0x1ee",
      "blockHash": "0xa862c3f1b1b54cb3876332627bc366da5de2453ecb289e7f59ec2cdbd7df4dbb",
      "blockNumber": "0x1794561",
      "gasUsed": "0xb9a7",
      "effectiveGasPrice": "0x2c93f68",
      "from": "0xcad1a7864a108dbff67f4b8af71fab0c7a86d0b6",
      "to": "0x5cbad8c3a18f37bc829e319533927a57d2bc99a4",
      "contractAddress": null
    },
    {
      "status": "0x1",
      "cumulativeGasUsed": "0x1c629e5",
      "logs": [
        {
          "address": "0x5cbad8c3a18f37bc829e319533927a57d2bc99a4",
          "topics": [
            "0x62e78cea01bee320cd4e420270b5ea74000d11b0c9f74754ebdbfc544b05a258"
          ],
          "data": "0x000000000000000000000000cad1a7864a108dbff67f4b8af71fab0c7a86d0b6",
          "blockHash": "0x57f50994f8b3a85bf3dc4db98a0ed585a3d111ccbc09b4cc3f3e87e5be791fce",
          "blockNumber": "0x1794562",
          "blockTimestamp": "0x69c20b37",
          "transactionHash": "0x2d05c2a17e5bd7edcc52630d5b90266b0e0a0c9abe22c00f89d788c348228e39",
          "transactionIndex": "0x176",
          "logIndex": "0x2bb",
          "removed": false
        }
      ],
      "logsBloom": "0x00000000000000000000000000000000000004000000000000000000000000080000000000000000000000000000000000000000000000000000000000000000000000000080000000000000000000000000000000000400000000000000000000000000000000000000000000000000000000010000000000000000000000000000000000000000000008000000000000000000000000000000000000000000000000000000000000000000000000000000000000000000000000000000000000000000000000000000000000000000000000000000000000000000000000000000000000000000000000000000000000000000000000000000000000000000",
      "type": "0x2",
      "transactionHash": "0x2d05c2a17e5bd7edcc52630d5b90266b0e0a0c9abe22c00f89d788c348228e39",
      "transactionIndex": "0x176",
      "blockHash": "0x57f50994f8b3a85bf3dc4db98a0ed585a3d111ccbc09b4cc3f3e87e5be791fce",
      "blockNumber": "0x1794562",
      "gasUsed": "0x7520",
      "effectiveGasPrice": "0x2f49762",
      "from": "0xcad1a7864a108dbff67f4b8af71fab0c7a86d0b6",
      "to": "0x5cbad8c3a18f37bc829e319533927a57d2bc99a4",
      "contractAddress": null
    },
    {
      "status": "0x1",
      "cumulativeGasUsed": "0x1c89c78",
      "logs": [
        {
          "address": "0x5cbad8c3a18f37bc829e319533927a57d2bc99a4",
          "topics": [
            "0x5dcaa27e7d9a9fdd8d01662749f4c51d8a9d7933cc5c31bc05ce70aef865d004",
            "0x000000000000000000000000cad1a7864a108dbff67f4b8af71fab0c7a86d0b6",
            "0x0000000000000000000000007c5a8eef1d836450c019fb036453ac6ec97885a3"
          ],
          "data": "0x",
          "blockHash": "0x4f5677ffd19d7d145964e003e57b34d2fba7ad1ff1e3a9d341b727c00f681908",
          "blockNumber": "0x1794563",
          "blockTimestamp": "0x69c20b43",
          "transactionHash": "0xd925558dd77696cc87fc24d4f77236de5442af6b78c11a495af003cb7a27797d",
          "transactionIndex": "0x150",
          "logIndex": "0x57f",
          "removed": false
        }
      ],
      "logsBloom": "0x00000000000000000020000000000000000004000000000000000000000000080000001000000000000000400000000000000000200000000000000000000000000000004080000000000000000000000000000000000000000000000000000000000000000000000000000000000000000000000000000000000000000000000000000000000000000000000000000000000000000000000000000000000000000000000000100000000000000000000000000000000000000000000000000000000000000000000000000000000400000000000000100000000000000000000000000000000000000000000000000010000000000000000000000000000000",
      "type": "0x2",
      "transactionHash": "0xd925558dd77696cc87fc24d4f77236de5442af6b78c11a495af003cb7a27797d",
      "transactionIndex": "0x150",
      "blockHash": "0x4f5677ffd19d7d145964e003e57b34d2fba7ad1ff1e3a9d341b727c00f681908",
      "blockNumber": "0x1794563",
      "gasUsed": "0x76db",
      "effectiveGasPrice": "0x2f43a03",
      "from": "0xcad1a7864a108dbff67f4b8af71fab0c7a86d0b6",
      "to": "0x5cbad8c3a18f37bc829e319533927a57d2bc99a4",
      "contractAddress": null
    },
    {
      "status": "0x1",
      "cumulativeGasUsed": "0x13cf480",
      "logs": [
        {
          "address": "0x435b0a1884bd0fb5667677c9eb0e59425b1477e5",
          "topics": [
            "0x62e78cea01bee320cd4e420270b5ea74000d11b0c9f74754ebdbfc544b05a258"
          ],
          "data": "0x000000000000000000000000cad1a7864a108dbff67f4b8af71fab0c7a86d0b6",
          "blockHash": "0xb959014381027174e0fef6541c8f7e326a5ee3f31144eec7018067fbb45cbbfd",
          "blockNumber": "0x1794564",
          "blockTimestamp": "0x69c20b4f",
          "transactionHash": "0xd24287ca422bbe776246ecf9557c5db1339465fe2f4cc96875b6aadf9f7e7499",
          "transactionIndex": "0x123",
          "logIndex": "0x435",
          "removed": false
        }
      ],
      "logsBloom": "0x00000000000000000000000000000000000000000000000000000000000000000000000000000000000000000000000000000000000000000000000000000000000000000000000000000000000000000000000000000400000000000000000000000000000000000000000000000000000000010000000000000000000000000000000000001000000008000000000000000000000000000000000000000000010000000000000000000000000000000000000000000000000000000000000000000000000000000000000000000000000000020000000000000000000000000000000000000000000000000000000000000000000000000000000000000000",
      "type": "0x2",
      "transactionHash": "0xd24287ca422bbe776246ecf9557c5db1339465fe2f4cc96875b6aadf9f7e7499",
      "transactionIndex": "0x123",
      "blockHash": "0xb959014381027174e0fef6541c8f7e326a5ee3f31144eec7018067fbb45cbbfd",
      "blockNumber": "0x1794564",
      "gasUsed": "0x6c93",
      "effectiveGasPrice": "0x310cc1f",
      "from": "0xcad1a7864a108dbff67f4b8af71fab0c7a86d0b6",
      "to": "0x435b0a1884bd0fb5667677c9eb0e59425b1477e5",
      "contractAddress": null
    },
    {
      "status": "0x1",
      "cumulativeGasUsed": "0x2cf2723",
      "logs": [
        {
          "address": "0x435b0a1884bd0fb5667677c9eb0e59425b1477e5",
          "topics": [
            "0x95bb211a5a393c4d30c3edc9a745825fba4e6ad3e3bb949e6bf8ccdfe431a811",
            "0x000000000000000000000000cad1a7864a108dbff67f4b8af71fab0c7a86d0b6",
            "0x0000000000000000000000007c5a8eef1d836450c019fb036453ac6ec97885a3"
          ],
          "data": "0x",
          "blockHash": "0x4da7b982a25c444e916ed0eddf4e2a635514e141672fd11343ea3faac8297b13",
          "blockNumber": "0x1794567",
          "blockTimestamp": "0x69c20b73",
          "transactionHash": "0xad912250d79e03ba1f044349c518e81fcad4ddc73f2552d3748dfa316daf4034",
          "transactionIndex": "0x2aa",
          "logIndex": "0x3e3",
          "removed": false
        }
      ],
      "logsBloom": "0x00000000000000000020000000000000000000000000000000000000000000000000000000000000000000400000000000000000200000000000000000000000000020000000000000000000000000000000000000000000000000000000000000000000000000040000000000000000000000000000000000000000000000000000000000001000000000000000000000000000000000000000000000000000010000000000000000000000000000000000000000000400000000000000000000000000000000000000000000000400000000020000100000000000000000000000000000000000000000000000000010000000000000000000000000000000",
      "type": "0x2",
      "transactionHash": "0xad912250d79e03ba1f044349c518e81fcad4ddc73f2552d3748dfa316daf4034",
      "transactionIndex": "0x2aa",
      "blockHash": "0x4da7b982a25c444e916ed0eddf4e2a635514e141672fd11343ea3faac8297b13",
      "blockNumber": "0x1794567",
      "gasUsed": "0x7923",
      "effectiveGasPrice": "0x2a5beca",
      "from": "0xcad1a7864a108dbff67f4b8af71fab0c7a86d0b6",
      "to": "0x435b0a1884bd0fb5667677c9eb0e59425b1477e5",
      "contractAddress": null
    },
    {
      "status": "0x1",
      "cumulativeGasUsed": "0x11d87de",
      "logs": [
        {
          "address": "0x7c5a8eef1d836450c019fb036453ac6ec97885a3",
          "topics": [
            "0xc25d1d022102ce7b344c33d14de2893a248fabd34bb630dc982e2fbc20f29543",
            "0x0000000000000000000000005cbad8c3a18f37bc829e319533927a57d2bc99a4"
          ],
          "data": "0x",
          "blockHash": "0x5ca77b3d22e946acd4d111e3b5f43b493378865394b31c08c2a2eb7e343f3086",
          "blockNumber": "0x1794568",
          "blockTimestamp": "0x69c20b7f",
          "transactionHash": "0x01946bcdd8174815029e9aaeb1acf781252f20939bfb4b579ce942fe176842f6",
          "transactionIndex": "0x94",
          "logIndex": "0x148",
          "removed": false
        }
      ],
      "logsBloom": "0x00000002000000000000000000000000000000000000000000000000000000000000000000000000000000000000000000000000000000000000000000000000000000000000000000000000000000200000000000000000000000000000100000000000000000000000000000000001000000000000000000000000000000000000000000000000000000000040000000000000000000000000000000000000000000000000000000008000000000000000000000000000000000000000000000002000000000000000000000000000000001000000000000000000000000000000000000000000000000000000000002000000000000000000000000000000",
      "type": "0x2",
      "transactionHash": "0x01946bcdd8174815029e9aaeb1acf781252f20939bfb4b579ce942fe176842f6",
      "transactionIndex": "0x94",
      "blockHash": "0x5ca77b3d22e946acd4d111e3b5f43b493378865394b31c08c2a2eb7e343f3086",
      "blockNumber": "0x1794568",
      "gasUsed": "0x19484",
      "effectiveGasPrice": "0x2e7bf06",
      "from": "0xcad1a7864a108dbff67f4b8af71fab0c7a86d0b6",
      "to": "0x7c5a8eef1d836450c019fb036453ac6ec97885a3",
      "contractAddress": null
    },
    {
      "status": "0x1",
      "cumulativeGasUsed": "0x17316a7",
      "logs": [
        {
          "address": "0x7c5a8eef1d836450c019fb036453ac6ec97885a3",
          "topics": [
            "0x3475b9891ecf29e996feed01eeb42a860ec225283a439d214ffaeac5e006be7d",
            "0x00000000000000000000000001d34d7ef3988c5b981ee06bf0ba4485bd8ea20c"
          ],
          "data": "0x",
          "blockHash": "0x135ad65a1a3e4c9107c034401036403409e3beee5d44b238bf5537156535aa5b",
          "blockNumber": "0x1794569",
          "blockTimestamp": "0x69c20b8b",
          "transactionHash": "0x688576446049effa1810569554675ff744ae40b8931d249fc128fa15a8a257ad",
          "transactionIndex": "0x13a",
          "logIndex": "0x37d",
          "removed": false
        }
      ],
      "logsBloom": "0x00000000000000000000000000000000000000000000000000000000000000000000000000000000000000000000000001000000000000000000000000000000000002000000000000000000000000200000000000000000000000000000100000000000000000000000000000000000000000000000000000000000000000000000000000000000000000000000000000000000000000000000000000000000000000000000000000000000000000000000000000000000000000000000000000000000000000000008000000000000000001000000000042000000000000000000000000000000000000200000000000000000000000000000000000000000",
      "type": "0x2",
      "transactionHash": "0x688576446049effa1810569554675ff744ae40b8931d249fc128fa15a8a257ad",
      "transactionIndex": "0x13a",
      "blockHash": "0x135ad65a1a3e4c9107c034401036403409e3beee5d44b238bf5537156535aa5b",
      "blockNumber": "0x1794569",
      "gasUsed": "0xbb66",
      "effectiveGasPrice": "0x2d4158f",
      "from": "0xcad1a7864a108dbff67f4b8af71fab0c7a86d0b6",
      "to": "0x7c5a8eef1d836450c019fb036453ac6ec97885a3",
      "contractAddress": null
    }
  ],
  "libraries": [],
  "pending": [],
  "returns": {},
  "timestamp": 1774324620368,
  "chain": 1,
  "commit": "353da6e"
}