{
  "transactions": [
    {
      "hash": "0x39eb4e8efd99a363c9ee551512e8fc8f058f6ee9f39cf7d09ef54825552e85e3",
      "transactionType": "CREATE",
      "contractName": "InPlaceMigrator",
      "contractAddress": "0x17dc492afa0c25fb7293edc5c00c7d4d2fccb342",
      "function": null,
      "arguments": [
        "0xbce8ABC09BaEDCabE93419bF875f6186e182079A",
        "1209600",
        "0xCad1a7864a108DBFF67F4b8af71fAB0C7A86D0B6"
      ],
      "transaction": {
        "from": "0xcad1a7864a108dbff67f4b8af71fab0c7a86d0b6",
        "gas": "0x21d649",
        "value": "0x0",
        "input": "0x60c0346101ff57601f611f3a38819003918201601f19168301916001600160401b03831184841017610203578084926060946040528339810103126101ff5780516001600160a01b0381168082036101ff5760208301516040909301516001600160a01b03811691908290036101ff5781156101ec575f80546001600160a01b031981168417825560405193916001600160a01b03909116907f8be0079c531659141344cd1fd0a4f28419497f9722a3daafe3b4186f6b6457e09080a360017f9b779b17422d0df92223018b32b4d1fa46e071723d6817e2486d003becc55f0055156101aa5750620151808210158061019d575b156101495760805260a052604051611d22908161021882396080518181816102f30152818161090201528181610e290152818161128b01526113e0015260a0518181816101b00152818161152301526119160152f35b60405162461bcd60e51b815260206004820152602660248201527f496e506c6163654d69677261746f723a2074696d656f7574206f7574206f6620604482015265626f756e647360d01b6064820152608490fd5b5062278d008211156100f3565b62461bcd60e51b815260206004820152601c60248201527f496e506c6163654d69677261746f723a207a65726f207374616b6572000000006044820152606490fd5b631e4fbdf760e01b5f525f60045260245ffd5b5f80fd5b634e487b7160e01b5f52604160045260245ffdfe60806040526004361015610011575f80fd5b5f5f3560e01c806314956dba146114ad57806321556cc51461145957806340546eae14611421578063543ad1df146114045780635ebaf1db146113c15780636419901d14611389578063715018a61461131a57806371726c921461125f57806379fa366d146112115780638da5cb5b146111eb578063b2118a8d1461108e578063bbc43eaa14610d54578063bdd6ecdd14610c57578063c65480a914610226578063cffff3f1146101f1578063de38eb3a146101d3578063e30439ff146101985763f2fde38b146100e0575f80fd5b34610195576020600319360112610195576001600160a01b036101016116fd565b610109611a6a565b168015610169576001600160a01b038254827fffffffffffffffffffffffff00000000000000000000000000000000000000008216178455167f8be0079c531659141344cd1fd0a4f28419497f9722a3daafe3b4186f6b6457e08380a380f35b6024827f1e4fbdf700000000000000000000000000000000000000000000000000000000815280600452fd5b80fd5b503461019557806003193601126101955760206040517f00000000000000000000000000000000000000000000000000000000000000008152f35b5034610195578060031936011261019557602060405162278d008152f35b503461019557604060031936011261019557602061021e6102106116fd565b610218611713565b906118e2565b604051908152f35b50346101955761023536611729565b610240929192611a6a565b610248611943565b80926001600160a01b03831693848652600360205260408620928354809111610c4f575b50808211610bf157816102819193929361178d565b9261028b84611893565b91869387915b868310610b81575050506040517f70a08231000000000000000000000000000000000000000000000000000000008152306004820152602081602481895afa908115610b76578791610b44575b506108f8575b92859386926001600160a01b037f000000000000000000000000000000000000000000000000000000000000000016905b8385106103755788887fdae47da897496bbb4a042b28c446708b9e389f16193e66f3e4a7fbcce0d760ec60408a8a82519182526020820152a260017f9b779b17422d0df92223018b32b4d1fa46e071723d6817e2486d003becc55f005580f35b90919293956001600160a01b0361038c8884611820565b511696888a52600160205260408a206001600160a01b0389165f5260205260405f2054918a8a84156108eb578a604083836104279461042d97965260016020528282206001600160a01b0385165f5260205281835f205580825260026020528282206001600160a01b0385165f5260205281835f205580825260046020528282206104188a825461178d565b90558152600360205220611ad4565b50611885565b604080517f0f208beb0000000000000000000000000000000000000000000000000000000081526001600160a01b0388811660048301528b1660248201529199919081604481895afa9081156108e0578c916108c1575b50853b156108bd576040517fb3db428b0000000000000000000000000000000000000000000000000000000081526001600160a01b03888116600483015283166024820152604481018590528c908181606481838c5af18015610890576108a8575b5050604080517f0f208beb0000000000000000000000000000000000000000000000000000000081526001600160a01b03898116600483015284166024820152908d90826044818b5afa801561089b5761054892849291610696575b5061178d565b908c80918d8785106106d0575b50604080517f0f208beb0000000000000000000000000000000000000000000000000000000081526001600160a01b038c811660048301528716602482015290816044818d5afa9081156106c5576105b29391610696575061178d565b916105c16103e887048761178d565b8310610612576001958d937f3d23fc7abbad3025cbe6f346ad5b6c7a3ac58a8d4b6a164bce8f8623e932899993608093604051938452602084015260408301526060820152a35b0193929190610315565b60846040517f08c379a000000000000000000000000000000000000000000000000000000000815260206004820152602160248201527f496e506c6163654d69677261746f723a20706172206e6f7420726573746f726560448201527f64000000000000000000000000000000000000000000000000000000000000006064820152fd5b6106b7915060403d81116106be575b6106af818361179a565b810190611aa9565b505f610542565b503d6106a5565b6040513d85823e3d90fd5b925090602460206106eb868a6106e6828261178d565b611c20565b94604051928380927f70a082310000000000000000000000000000000000000000000000000000000082523060048301525afa908115610890578f908392610854575b50826040916107459452600460205220549061178d565b82116107d0578d90883b156107cc576040517fb3db428b0000000000000000000000000000000000000000000000000000000081526001600160a01b038b8116600483015286166024820152604481018490528281606481838e5af19081156106c55783916107b7575b50508d610555565b816107c19161179a565b6107cc57815f6107af565b5080fd5b60846040517f08c379a000000000000000000000000000000000000000000000000000000000815260206004820152602960248201527f496e506c6163654d69677261746f723a20746f702d757020737572706c75732060448201527f65786861757374656400000000000000000000000000000000000000000000006064820152fd5b925050506020813d8211610888575b816108706020938361179a565b8101031261088457518e908e61074561072e565b5f80fd5b3d9150610863565b6040513d84823e3d90fd5b50604051903d90823e3d90fd5b816108b29161179a565b6108bd578b5f6104e6565b8b80fd5b6108d9915060403d81116106be576106af818361179a565b505f610484565b6040513d8e823e3d90fd5b5050975060019150610608565b6001600160a01b037f0000000000000000000000000000000000000000000000000000000000000000166040517f70a082310000000000000000000000000000000000000000000000000000000081523060048201526020816024818a5afa908115610b39578891610b07575b506040517f095ea7b30000000000000000000000000000000000000000000000000000000089528260045281602452602089604481808c5af19060018a5114821615610af8575b604052156109bc575b50506102e4565b6040517f095ea7b30000000000000000000000000000000000000000000000000000000089528260045288602452602089604481808c5af19060018a5114821615610ad7575b60405215610aab57604051917f095ea7b3000000000000000000000000000000000000000000000000000000008952600452602452602087604481808a5af1906001885114821615610a8a575b60405215610a5e575f806109b5565b602486867f5274afe7000000000000000000000000000000000000000000000000000000008252600452fd5b906001811516610aa257863b15153d15161690610a4f565b503d87823e3d90fd5b602488887f5274afe7000000000000000000000000000000000000000000000000000000008252600452fd5b906001811516610aef57883b15153d15161690610a02565b503d89823e3d90fd5b90883b15153d151616906109ac565b90506020813d602011610b31575b81610b226020938361179a565b8101031261088457515f610965565b3d9150610b15565b6040513d8a823e3d90fd5b90506020813d602011610b6e575b81610b5f6020938361179a565b8101031261088457515f6102de565b3d9150610b52565b6040513d89823e3d90fd5b909194610be86001916001600160a01b03610ba5610b9f8a88611753565b86611abf565b90549060031b1c16610bb78989611820565b6001600160a01b03821690528a8c52836020526001600160a01b0360408d2091165f5260205260405f205490611753565b95019190610291565b60646040517f08c379a000000000000000000000000000000000000000000000000000000000815260206004820152601a60248201527f496e506c6163654d69677261746f723a206261642072616e67650000000000006044820152fd5b90505f61026c565b503461019557610c6636611729565b929190836001600160a01b038293168452600360205260408420948554809111610d4c575b50809111610d44575b610ca182610ca69261178d565b611893565b90825b8251811015610cf457806001600160a01b03610cd0610cca60019486611753565b88611abf565b90549060031b1c166001600160a01b03610cea8387611820565b9116905201610ca9565b505090604051918291602083016020845282518091526020604085019301915b818110610d22575050500390f35b82516001600160a01b0316845285945060209384019390920191600101610d14565b905080610c94565b90505f610c8b565b503461019557604060031936011261019557610d6e6116fd565b60243567ffffffffffffffff811161108a573660238201121561108a5780600401359067ffffffffffffffff8211611086576024810190602436918460051b01011161108657610dbc611a6a565b610dc4611943565b6040517f0ad9aeb9000000000000000000000000000000000000000000000000000000008152826001600160a01b0360448301951694856004840152604060248401525284816064810184835b87811061104e57505081900381836001600160a01b037f0000000000000000000000000000000000000000000000000000000000000000165af1908115611043578591610fa6575b5084918593865b818110610ec05787877fccaf0715d0318901f4a59a598f7c47f7be10af3c672edc83e333ec14afd3c3506040898982519182526020820152a260017f9b779b17422d0df92223018b32b4d1fa46e071723d6817e2486d003becc55f005580f35b610eca8185611820565b51888882610ede575b505050600101610e60565b91839897610f78856001600160a01b03610f71610f296040888a8e868f60019f610f9d9f90610f979f928f610f2993610f559552600160205289892086610f2e610f2986868c611861565b611871565b165f52602052610f428a5f20918254611753565b9055868852600260205288882095611861565b165f52602052825f204290558152600360205220938b8d611861565b1690611bc7565b508a8c52600460205260408c20610f90838254611753565b9055611753565b95611885565b95908888610ed3565b90503d8086833e610fb7818361179a565b81019060208183031261103b5780519067ffffffffffffffff821161103f57019080601f8301121561103b578151610fee81611808565b92610ffc604051948561179a565b81845260208085019260051b82010192831161103757602001905b828210611027575050505f610e59565b8151815260209182019101611017565b8780fd5b8580fd5b8680fd5b6040513d87823e3d90fd5b925092508235906001600160a01b038216820361088457602080916001600160a01b0360019416815201930191019183918893610e11565b8380fd5b8280fd5b5034610195576060600319360112610195576110a86116fd565b6110b0611713565b906001600160a01b03604435916110c5611a6a565b16916040517f70a08231000000000000000000000000000000000000000000000000000000008152306004820152602081602481875afa80156110435785906111b7575b6111219150848652600460205260408620549061178d565b821161113357611130926119ba565b80f35b60846040517f08c379a000000000000000000000000000000000000000000000000000000000815260206004820152602e60248201527f496e506c6163654d69677261746f723a2063616e6e6f7420746f75636820706160448201527f726b6564207072696e636970616c0000000000000000000000000000000000006064820152fd5b506020813d6020116111e3575b816111d16020938361179a565b81010312610884576111219051611109565b3d91506111c4565b50346101955780600319360112610195576001600160a01b036020915416604051908152f35b5034610195576040600319360112610195576001600160a01b0360406112356116fd565b928261123f611713565b9416815260016020522091165f52602052602060405f2054604051908152f35b5034610884576020600319360112610884576112796116fd565b611281611a6a565b6001600160a01b037f00000000000000000000000000000000000000000000000000000000000000001690813b15610884576001600160a01b0360245f928360405195869485937f71726c920000000000000000000000000000000000000000000000000000000085521660048401525af1801561130f57611301575080f35b61130d91505f9061179a565b005b6040513d5f823e3d90fd5b34610884575f60031936011261088457611332611a6a565b5f6001600160a01b0381547fffffffffffffffffffffffff000000000000000000000000000000000000000081168355167f8be0079c531659141344cd1fd0a4f28419497f9722a3daafe3b4186f6b6457e08280a3005b34610884576020600319360112610884576001600160a01b036113aa6116fd565b165f526004602052602060405f2054604051908152f35b34610884575f6003193601126108845760206040516001600160a01b037f0000000000000000000000000000000000000000000000000000000000000000168152f35b34610884575f600319360112610884576020604051620151808152f35b34610884576020600319360112610884576001600160a01b036114426116fd565b165f526003602052602060405f2054604051908152f35b34610884576040600319360112610884576114726116fd565b6001600160a01b03611482611713565b91165f5260026020526001600160a01b0360405f2091165f52602052602060405f2054604051908152f35b34610884576020600319360112610884576001600160a01b036114ce6116fd565b6114d6611943565b16805f52600160205260405f206001600160a01b0333165f5260205260405f205490811561169f57805f52600260205260405f206001600160a01b0333165f5260205261154860405f20547f000000000000000000000000000000000000000000000000000000000000000090611753565b421061161c57805f52600160205260405f206001600160a01b0333165f526020525f6040812055805f52600260205260405f206001600160a01b0333165f526020525f6040812055805f52600460205260405f206115a783825461178d565b9055805f5260036020526115be3360405f20611ad4565b506115ca8233836119ba565b6040519182527fae1e5fa7a7123c79b53786f983ebd58c453b06a68f869ee9cc780ee9204174e760203393a360017f9b779b17422d0df92223018b32b4d1fa46e071723d6817e2486d003becc55f0055005b60846040517f08c379a0000000000000000000000000000000000000000000000000000000008152602060048201526024808201527f496e506c6163654d69677261746f723a2074696d656f7574206e6f7420656c6160448201527f70736564000000000000000000000000000000000000000000000000000000006064820152fd5b60646040517f08c379a000000000000000000000000000000000000000000000000000000000815260206004820152601f60248201527f496e506c6163654d69677261746f723a206e6f7468696e67207061726b6564006044820152fd5b600435906001600160a01b038216820361088457565b602435906001600160a01b038216820361088457565b6003196060910112610884576004356001600160a01b038116810361088457906024359060443590565b9190820180921161176057565b7f4e487b71000000000000000000000000000000000000000000000000000000005f52601160045260245ffd5b9190820391821161176057565b90601f7fffffffffffffffffffffffffffffffffffffffffffffffffffffffffffffffe0910116810190811067ffffffffffffffff8211176117db57604052565b7f4e487b71000000000000000000000000000000000000000000000000000000005f52604160045260245ffd5b67ffffffffffffffff81116117db5760051b60200190565b80518210156118345760209160051b010190565b7f4e487b71000000000000000000000000000000000000000000000000000000005f52603260045260245ffd5b91908110156118345760051b0190565b356001600160a01b03811681036108845790565b5f1981146117605760010190565b9061189d82611808565b6118aa604051918261179a565b8281527fffffffffffffffffffffffffffffffffffffffffffffffffffffffffffffffe06118d88294611808565b0190602036910137565b6001600160a01b03165f5260026020526001600160a01b0360405f2091165f5260205260405f2054801561193e5761193b907f000000000000000000000000000000000000000000000000000000000000000090611753565b90565b505f90565b60027f9b779b17422d0df92223018b32b4d1fa46e071723d6817e2486d003becc55f0054146119925760027f9b779b17422d0df92223018b32b4d1fa46e071723d6817e2486d003becc55f0055565b7f3ee5aeb5000000000000000000000000000000000000000000000000000000005f5260045ffd5b916001600160a01b03604051927fa9059cbb000000000000000000000000000000000000000000000000000000005f521660045260245260205f60448180865af19060015f5114821615611a49575b60405215611a145750565b6001600160a01b03907f5274afe7000000000000000000000000000000000000000000000000000000005f521660045260245ffd5b906001811516611a6157823b15153d15161690611a09565b503d5f823e3d90fd5b6001600160a01b035f54163303611a7d57565b7f118cdaa7000000000000000000000000000000000000000000000000000000005f523360045260245ffd5b9190826040910312610884576020825192015190565b8054821015611834575f5260205f2001905f90565b906001820191815f528260205260405f20548015155f14611bbf575f198101818111611760578254905f19820191821161176057818103611b74575b50505080548015611b47575f190190611b298282611abf565b5f1982549160031b1b19169055555f526020525f6040812055600190565b7f4e487b71000000000000000000000000000000000000000000000000000000005f52603160045260245ffd5b611baa611b84611b949386611abf565b90549060031b1c92839286611abf565b81939154905f199060031b92831b921b19161790565b90555f528360205260405f20555f8080611b10565b505050505f90565b6001810190825f528160205260405f2054155f14611c19578054680100000000000000008110156117db57611c06611b94826001879401855584611abf565b905554915f5260205260405f2055600190565b5050505f90565b90915f198383099280830292838086109503948086039514611cb15784831115611c995790829109815f0382168092046002816003021880820260020302808202600203028082026002030280820260020302808202600203028091026002030293600183805f03040190848311900302920304170290565b82634e487b715f52156003026011186020526024601cfd5b505091508115611cbf570490565b7f4e487b71000000000000000000000000000000000000000000000000000000005f52601260045260245ffdfea2646970667358221220b79ba7c0e3c2a7fa7bf9e0454a9bbb6b86fe158d9dbbfaa586daefd81d0a594a64736f6c634300081e0033000000000000000000000000bce8abc09baedcabe93419bf875f6186e182079a0000000000000000000000000000000000000000000000000000000000127500000000000000000000000000cad1a7864a108dbff67f4b8af71fab0c7a86d0b6",
        "nonce": "0x326",
        "chainId": "0x1"
      },
      "additionalContracts": [],
      "isFixedGasLimit": false
    },
    {
      "hash": "0x341d86a797ab6e18ee5ebd39542919c2a621ff7c8f11d3b55d93b4f0c1a1b8e0",
      "transactionType": "CALL",
      "contractName": "ERC20",
      "contractAddress": "0x865377367054516e17014ccded1e7d814edc9ce4",
      "function": "transfer(address,uint256)",
      "arguments": [
        "0x17DC492AfA0C25fb7293edc5c00c7d4d2FCcb342",
        "27000000000000000000"
      ],
      "transaction": {
        "from": "0xcad1a7864a108dbff67f4b8af71fab0c7a86d0b6",
        "to": "0x865377367054516e17014ccded1e7d814edc9ce4",
        "gas": "0x11622",
        "value": "0x0",
        "input": "0xa9059cbb00000000000000000000000017dc492afa0c25fb7293edc5c00c7d4d2fccb34200000000000000000000000000000000000000000000000176b344f2a78c0000",
        "nonce": "0x327",
        "chainId": "0x1"
      },
      "additionalContracts": [],
      "isFixedGasLimit": false
    },
    {
      "hash": "0xace8f71a79c2b3179222032b997fed06541dc3e80dc50e24e7dd40b89f092478",
      "transactionType": "CALL",
      "contractName": null,
      "contractAddress": "0xa0b86991c6218b36c1d19d4a2e9eb0ce3606eb48",
      "function": "transfer(address,uint256)",
      "arguments": [
        "0x17DC492AfA0C25fb7293edc5c00c7d4d2FCcb342",
        "27000000"
      ],
      "transaction": {
        "from": "0xcad1a7864a108dbff67f4b8af71fab0c7a86d0b6",
        "to": "0xa0b86991c6218b36c1d19d4a2e9eb0ce3606eb48",
        "gas": "0x14fec",
        "value": "0x0",
        "input": "0xa9059cbb00000000000000000000000017dc492afa0c25fb7293edc5c00c7d4d2fccb34200000000000000000000000000000000000000000000000000000000019bfcc0",
        "nonce": "0x328",
        "chainId": "0x1"
      },
      "additionalContracts": [],
      "isFixedGasLimit": false
    },
    {
      "hash": "0xf418d8a6b72afcdd754f4f2897a07d4e7c3bc6c7a0d8165caf2bce8df6ff29ee",
      "transactionType": "CREATE",
      "contractName": "ERC4626YieldStrategy",
      "contractAddress": "0x1760e05356ec1fbba159c730781dcfb9920524e2",
      "function": null,
      "arguments": [
        "0xCad1a7864a108DBFF67F4b8af71fAB0C7A86D0B6",
        "0x865377367054516e17014CcdED1e7d814EDC9ce4",
        "0x79eB84B5E30Ef2481c8f00fD0Aa7aAd6Ac0AA54d"
      ],
      "transaction": {
        "from": "0xcad1a7864a108dbff67f4b8af71fab0c7a86d0b6",
        "gas": "0x3da1b8",
        "value": "0x0",
        "input": "0x60c080604052346101ef57606081613942803803809161001f82856102e4565b8339810103126101ef576100328161031b565b9061004b60406100446020840161031b565b920161031b565b916001600160a01b031680156102d1575f80546001600160a01b03198116831782556001600160a01b0316907f8be0079c531659141344cd1fd0a4f28419497f9722a3daafe3b4186f6b6457e09080a360017f9b779b17422d0df92223018b32b4d1fa46e071723d6817e2486d003becc55f00556001600160a01b03169081156102665760808290526001600160a01b03168015610206575f9160448260209360a052604051948593849263095ea7b360e01b84526004840152811960248401525af180156101fb576101bf575b604051613612908161033082396080518181816104f8015281816106a30152818161089c01528181610baf01528181610dff01528181611dbe015281816120f90152818161283201528181612add01528181612e14015261312a015260a0518181816101fe015281816104850152818161058f01528181610cd00152818161104a01528181611e1d0152818161214d01528181612bcd01528181612e8f01526131930152f35b6020813d6020116101f3575b816101d8602093836102e4565b810103126101ef5751801515036101ef575f610119565b5f80fd5b3d91506101cb565b6040513d5f823e3d90fd5b60405162461bcd60e51b815260206004820152603260248201527f455243343632365969656c6453747261746567793a207661756c742063616e6e6044820152716f74206265207a65726f206164647265737360701b6064820152608490fd5b60405162461bcd60e51b815260206004820152603760248201527f415969656c6453747261746567793a20756e6465726c79696e6720746f6b656e60448201527f2063616e6e6f74206265207a65726f20616464726573730000000000000000006064820152608490fd5b631e4fbdf760e01b5f525f60045260245ffd5b601f909101601f19168101906001600160401b0382119082101761030757604052565b634e487b7160e01b5f52604160045260245ffd5b51906001600160a01b03821682036101ef5756fe6080806040526004361015610012575f80fd5b5f3560e01c9081630c9c31bd14611991575080631819ac8b1461190257806318b66805146118145780632495a59914610b905780632d88af4a1461179557806332ab5f7f1461174e57806332e4036d146113065780633e65164a146112e95780633f4ba83a146111bd5780633fd8d15b1461118057806340cf018e1461110557806342843975146110a05780634a3c68ef146110835780634cdad50614610ffb5780635312ea8e14610c9f5780635a4e1b1d14610c7b5780635c975abb14610c57578063619cbd8214610c1557806369328dec14610bd35780636f307dc314610b905780636f85c7e414610b74578063715018a614610b0557806378edad2814610acd57806382c3b965146109f25780638456cb59146108f557806384d10bff146108c1578063879162f51461085b57806388b57777146108355780638da5cb5b146108105780639c118c95146107195780639fd0506d146106f3578063be875e4f1461066b578063c2cda700146105c8578063d5002f2e14610543578063ee73fe2e146104be578063ef8b30f714610436578063f2f3d09214610418578063f2fde38b14610364578063f45346dc146102f0578063f7888aec146102265763fbfa77cf146101df575f80fd5b34610222575f6003193601126102225760206040516001600160a01b037f0000000000000000000000000000000000000000000000000000000000000000168152f35b5f80fd5b346102225760406003193601126102225761029560206102446119c5565b61024c6119db565b6040517fbe875e4f0000000000000000000000000000000000000000000000000000000081526001600160a01b0392831660048201529116602482015291829081906044820190565b0381305afa80156102e5575f906102b2575b602090604051908152f35b506020813d6020116102dd575b816102cc60209383611c2b565b8101031261022257602090516102a7565b3d91506102bf565b6040513d5f823e3d90fd5b3461022257602061033861030336611a20565b9061032161031c335f52600360205260405f2054151590565b611b49565b610329611fa8565b61033161201f565b3392612ad7565b60017f9b779b17422d0df92223018b32b4d1fa46e071723d6817e2486d003becc55f0055604051908152f35b34610222576020600319360112610222576001600160a01b036103856119c5565b61038d611f69565b1680156103ec576001600160a01b035f54827fffffffffffffffffffffffff00000000000000000000000000000000000000008216175f55167f8be0079c531659141344cd1fd0a4f28419497f9722a3daafe3b4186f6b6457e05f80a3005b7f1e4fbdf7000000000000000000000000000000000000000000000000000000005f525f60045260245ffd5b34610222575f600319360112610222576020620448e0604051908152f35b34610222576020600319360112610222576040517fef8b30f700000000000000000000000000000000000000000000000000000000815260043560048201526020816024816001600160a01b037f0000000000000000000000000000000000000000000000000000000000000000165afa80156102e5575f906102b257602090604051908152f35b346102225760406003193601126102225761051d6104da6119c5565b6104e2611f69565b6104ea611fa8565b602435906001600160a01b037f00000000000000000000000000000000000000000000000000000000000000001661281b565b60017f9b779b17422d0df92223018b32b4d1fa46e071723d6817e2486d003becc55f0055005b34610222575f600319360112610222576040517f70a082310000000000000000000000000000000000000000000000000000000081523060048201526020816024816001600160a01b037f0000000000000000000000000000000000000000000000000000000000000000165afa80156102e5575f906102b257602090604051908152f35b34610222576040600319360112610222576105e16119c5565b6001600160a01b036105f16119db565b91165f5260096020526001600160a01b0360405f2091165f5260205260405f208054600260ff600184015416920154604051918252600483101561063e5760609260208301526040820152f35b7f4e487b71000000000000000000000000000000000000000000000000000000005f52602160045260245ffd5b34610222576040600319360112610222576106846119c5565b6001600160a01b036106946119db565b91166106ca6001600160a01b037f0000000000000000000000000000000000000000000000000000000000000000168214611cec565b5f5260056020526001600160a01b0360405f2091165f52602052602060405f2054604051908152f35b34610222575f6003193601126102225760206001600160a01b0360015416604051908152f35b34610222576040600319360112610222576107326119c5565b6001600160a01b0360243591610746611f69565b1690610753821515611bba565b606481116107a65760407f7f5fae2f2ea0d248c289f00cb1738844937f7fe3bd3c11357de14780c9805b9a91835f526007602052815f205490845f52600760205280835f205582519182526020820152a2005b608460405162461bcd60e51b815260206004820152602a60248201527f415969656c6453747261746567793a206275666665722070657263656e74206560448201527f78636565647320313030000000000000000000000000000000000000000000006064820152fd5b34610222575f6003193601126102225760206001600160a01b035f5416604051908152f35b34610222575f6003193601126102225760206001600160a01b0360085416604051908152f35b346102225760606003193601126102225761051d6108776119c5565b61087f6119db565b610887611f69565b61088f611fa8565b6044356001600160a01b037f000000000000000000000000000000000000000000000000000000000000000016612df9565b346102225760406003193601126102225760206108ed6108df6119c5565b6108e76119db565b90611da7565b604051908152f35b34610222575f600319360112610222576001600160a01b036001541633036109885761091f61201f565b740100000000000000000000000000000000000000007fffffffffffffffffffffff00ffffffffffffffffffffffffffffffffffffffff5f5416175f557f62e78cea01bee320cd4e420270b5ea74000d11b0c9f74754ebdbfc544b05a2586020604051338152a1005b608460405162461bcd60e51b815260206004820152602860248201527f415969656c6453747261746567793a2063616c6c6572206973206e6f7420746860448201527f65207061757365720000000000000000000000000000000000000000000000006064820152fd5b34610222576001600160a01b03610a08366119f1565b9190610a12611f69565b16908115610a635760207f5c8df9226b5390a36c31cb0bb75ccd51f1106fc9c93332f6305e2a4a7ae4e77191835f526004825260405f209015159060ff1981541660ff8316179055604051908152a2005b608460405162461bcd60e51b815260206004820152603160248201527f415969656c6453747261746567793a20776974686472617765722063616e6e6f60448201527f74206265207a65726f20616464726573730000000000000000000000000000006064820152fd5b34610222576020600319360112610222576001600160a01b03610aee6119c5565b165f526007602052602060405f2054604051908152f35b34610222575f60031936011261022257610b1d611f69565b5f6001600160a01b0381547fffffffffffffffffffffffff000000000000000000000000000000000000000081168355167f8be0079c531659141344cd1fd0a4f28419497f9722a3daafe3b4186f6b6457e08280a3005b34610222575f6003193601126102225760206040516154608152f35b34610222575f6003193601126102225760206040516001600160a01b037f0000000000000000000000000000000000000000000000000000000000000000168152f35b346102225761051d610be436611a20565b91908291610c0061031c335f52600360205260405f2054151590565b610c08611fa8565b610c1061201f565b612df9565b34610222576020600319360112610222576020610c4d6001600160a01b03610c3b6119c5565b165f52600360205260405f2054151590565b6040519015158152f35b34610222575f60031936011261022257602060ff5f5460a01c166040519015158152f35b34610222576020610338610c8e36611a20565b90610c97611f69565b610331611fa8565b3461022257602060031936011261022257600435610cbb611f69565b610cc6811515611c7b565b6001600160a01b037f0000000000000000000000000000000000000000000000000000000000000000166040517f70a08231000000000000000000000000000000000000000000000000000000008152306004820152602081602481855afa9081156102e5575f91610fc9575b508015610f5f57604051907f07a2d13a000000000000000000000000000000000000000000000000000000008252806004830152602082602481865afa9182156102e5575f92610f2b575b5080918410610e8d575b506040517fba087652000000000000000000000000000000000000000000000000000000008152600481019190915230602482018190526044820152906020908290815f81606481015b03925af19081156102e5575f91610e5b575b5081811015610e5157610e23905b6001600160a01b035f54167f000000000000000000000000000000000000000000000000000000000000000061352c565b6040519081527f5fafa99d0643513820be26656b45130b01e1c03062e1266bf36f88cbd3bd969560203392a2005b50610e2381610df2565b90506020813d602011610e85575b81610e7660209383611c2b565b81010312610222575182610de4565b3d9150610e69565b9050604051907fc6e6f592000000000000000000000000000000000000000000000000000000008252836004830152602082602481865afa9182156102e5575f92610ef7575b505f92602092610dd292808211610eef575b5092509250610d88565b905086610ee5565b9091506020813d602011610f23575b81610f1360209383611c2b565b810103126102225751905f610ed3565b3d9150610f06565b9091506020813d602011610f57575b81610f4760209383611c2b565b8101031261022257519084610d7e565b3d9150610f3a565b608460405162461bcd60e51b815260206004820152602b60248201527f455243343632365969656c6453747261746567793a206e6f207368617265732060448201527f746f2077697468647261770000000000000000000000000000000000000000006064820152fd5b90506020813d602011610ff3575b81610fe460209383611c2b565b81010312610222575183610d33565b3d9150610fd7565b34610222576020600319360112610222576040517f4cdad50600000000000000000000000000000000000000000000000000000000815260043560048201526020816024816001600160a01b037f0000000000000000000000000000000000000000000000000000000000000000165afa80156102e5575f906102b257602090604051908152f35b34610222575f600319360112610222576020600254604051908152f35b34610222575f600319360112610222576110b86130c2565b6040518091602082016020835281518091526020604084019201905f5b8181106110e3575050500390f35b82516001600160a01b03168452859450602093840193909201916001016110d5565b34610222576001600160a01b037f50b24d98d3da51f5db279e5872fa50584b172048aa9bfa6c6edb4d0cfbb4dc58602061113e366119f1565b9390611148611f69565b1692611155841515611bba565b801561117157611164846134d2565b505b6040519015158152a2005b61117a846133e5565b50611166565b34610222576020600319360112610222576001600160a01b036111a16119c5565b165f526004602052602060ff60405f2054166040519015158152f35b34610222575f600319360112610222575f546001600160a01b038116331480156112d5575b1561126b5760ff8160a01c1615611243577fffffffffffffffffffffff00ffffffffffffffffffffffffffffffffffffffff165f557f5db9ee0a495bf2e6ff9c91a7834c1ba4fdd244a5e8aa4e537bd38aeae4b073aa6020604051338152a1005b7f8dfc202b000000000000000000000000000000000000000000000000000000005f5260045ffd5b608460405162461bcd60e51b815260206004820152603160248201527f415969656c6453747261746567793a2063616c6c6572206973206e6f7420746860448201527f65206f776e6572206f72207061757365720000000000000000000000000000006064820152fd5b506001600160a01b036001541633146111e2565b34610222575f6003193601126102225760206040516203f4808152f35b346102225760406003193601126102225761131f6119c5565b6113276119db565b61132f611f69565b611337611fa8565b61133f61201f565b6001600160a01b03821690611355821515611ad8565b6001600160a01b0381169261136b841515611bba565b825f52600960205260405f20845f5260205260405f2091600183019160ff835416600481101561063e57600181036117215750835461546081018082116114b0574210156116ec575b505b60ff83541660048110158061063e57811580156116e0575b1561157b5750506040517ff7888aec0000000000000000000000000000000000000000000000000000000081526001600160a01b039182166004820152911660248201529190602083604481305afa9283156102e5575f93611547575b5082156114dd578291600291428255600160ff19825416179055015561546042018042116114b0577fd9fbd8fe4451ae979e36c7923543e61b94e26b6f1510866805ee90023a61aa21916060916040519182524260208301526040820152a360017f9b779b17422d0df92223018b32b4d1fa46e071723d6817e2486d003becc55f0055005b7f4e487b71000000000000000000000000000000000000000000000000000000005f52601160045260245ffd5b608460405162461bcd60e51b815260206004820152602660248201527f415969656c6453747261746567793a206e6f2062616c616e636520746f20776960448201527f74686472617700000000000000000000000000000000000000000000000000006064820152fd5b9092506020813d602011611573575b8161156360209383611c2b565b810103126102225751918561142b565b3d9150611556565b61063e57600281036115dd575060409284926115cc925f60027ff3a071e0cb05fb8cf5dacdf1fece8c01159996730fede84a47826645bd67a63e980181815497889660ff1981541690555555613120565b8151908152426020820152a361051d565b93955050505060019150146115f2575061051d565b5461546081018091116114b057611608906129ae565b60446040516116a8606d826020808201967f415969656c6453747261746567793a207769746864726177616c207374696c6c88527f20696e2077616974696e6720706572696f642c2065786563757461626c65206160408401527f742074696d657374616d703a200000000000000000000000000000000000000060608401528051918291018484015e81015f838201520301601f198101835282611c2b565b601f19601f60405194859362461bcd60e51b8552602060048601525180918160248701528686015e5f85828601015201168101030190fd5b50505f600382146113ce565b620448e081018091116114b057421161171157600260ff198454161783555b866113b4565b600360ff1984541617835561170b565b6002036113b6578354620448e081018091116114b0574211156113b657600360ff198454161783556113b6565b346102225760406003193601126102225761051d61176a6119c5565b61178261031c335f52600360205260405f2054151590565b61178a611fa8565b60243590339061281b565b34610222576020600319360112610222576117ae6119c5565b6117b6611f69565b6001600160a01b0380600154921691827fffffffffffffffffffffffff0000000000000000000000000000000000000000821617600155167f5dcaa27e7d9a9fdd8d01662749f4c51d8a9d7933cc5c31bc05ce70aef865d0045f80a3005b346102225760406003193601126102225761182d6119c5565b6118356119db565b90335f52600460205260ff60405f20541615611898576020916103389161185a611fa8565b61186261201f565b6118766001600160a01b0382161515611ad8565b61188a6001600160a01b0383161515611a67565b6118926130c2565b906120eb565b608460405162461bcd60e51b815260206004820152603960248201527f415969656c6453747261746567793a20756e617574686f72697a65642c206f6e60448201527f6c7920617574686f72697a6564207769746864726177657273000000000000006064820152fd5b34610222576020600319360112610222576001600160a01b036119236119c5565b61192b611f69565b16611937811515611a67565b6001600160a01b03600854827fffffffffffffffffffffffff0000000000000000000000000000000000000000821617600855167fd65793d120b187e6304e609c707a0b13e374e04f05d255508e46b02d7a796ce35f80a3005b34610222576020600319360112610222576020906001600160a01b036119b56119c5565b165f526006825260405f20548152f35b600435906001600160a01b038216820361022257565b602435906001600160a01b038216820361022257565b6003196040910112610222576004356001600160a01b0381168103610222579060243580151581036102225790565b6003196060910112610222576004356001600160a01b03811681036102225790602435906044356001600160a01b03811681036102225790565b919082018092116114b057565b15611a6e57565b608460405162461bcd60e51b815260206004820152603060248201527f415969656c6453747261746567793a20726563697069656e742063616e6e6f7460448201527f206265207a65726f2061646472657373000000000000000000000000000000006064820152fd5b15611adf57565b608460405162461bcd60e51b815260206004820152602c60248201527f415969656c6453747261746567793a20746f6b656e2063616e6e6f742062652060448201527f7a65726f206164647265737300000000000000000000000000000000000000006064820152fd5b15611b5057565b608460405162461bcd60e51b815260206004820152603560248201527f415969656c6453747261746567793a20756e617574686f72697a65642c206f6e60448201527f6c7920617574686f72697a656420636c69656e747300000000000000000000006064820152fd5b15611bc157565b608460405162461bcd60e51b815260206004820152602d60248201527f415969656c6453747261746567793a20636c69656e742063616e6e6f7420626560448201527f207a65726f2061646472657373000000000000000000000000000000000000006064820152fd5b90601f601f19910116810190811067ffffffffffffffff821117611c4e57604052565b7f4e487b71000000000000000000000000000000000000000000000000000000005f52604160045260245ffd5b15611c8257565b608460405162461bcd60e51b815260206004820152603060248201527f415969656c6453747261746567793a20616d6f756e74206d757374206265206760448201527f726561746572207468616e207a65726f000000000000000000000000000000006064820152fd5b15611cf357565b608460405162461bcd60e51b815260206004820152602f60248201527f415969656c6453747261746567793a206f6e6c7920756e6465726c79696e672060448201527f746f6b656e20737570706f7274656400000000000000000000000000000000006064820152fd5b818102929181159184041417156114b057565b8115611d7a570490565b7f4e487b71000000000000000000000000000000000000000000000000000000005f52601260045260245ffd5b6001600160a01b031690611de56001600160a01b037f0000000000000000000000000000000000000000000000000000000000000000168314611cec565b815f5260056020526001600160a01b0360405f2091165f5260205260405f20549081158015611f55575b611f4f576001600160a01b037f0000000000000000000000000000000000000000000000000000000000000000166040517f70a08231000000000000000000000000000000000000000000000000000000008152306004820152602081602481855afa80156102e5575f90611f1c575b602091506024604051809481937f07a2d13a00000000000000000000000000000000000000000000000000000000835260048301525afa9081156102e5575f91611ee8575b50611ee592611ed291611d5d565b905f52600660205260405f205490611d70565b90565b90506020813d602011611f14575b81611f0360209383611c2b565b810103126102225751611ee5611ec4565b3d9150611ef6565b506020813d602011611f47575b81611f3660209383611c2b565b810103126102225760209051611e7f565b3d9150611f29565b50505f90565b50805f52600660205260405f205415611e0f565b6001600160a01b035f54163303611f7c57565b7f118cdaa7000000000000000000000000000000000000000000000000000000005f523360045260245ffd5b60027f9b779b17422d0df92223018b32b4d1fa46e071723d6817e2486d003becc55f005414611ff75760027f9b779b17422d0df92223018b32b4d1fa46e071723d6817e2486d003becc55f0055565b7f3ee5aeb5000000000000000000000000000000000000000000000000000000005f5260045ffd5b60ff5f5460a01c1661202d57565b7fd93c0665000000000000000000000000000000000000000000000000000000005f5260045ffd5b1561205c57565b608460405162461bcd60e51b815260206004820152603560248201527f455243343632365969656c6453747261746567793a206f6e6c7920756e64657260448201527f6c79696e6720746f6b656e20737570706f7274656400000000000000000000006064820152fd5b67ffffffffffffffff8111611c4e5760051b60200190565b919082039182116114b057565b929190916001600160a01b037f000000000000000000000000000000000000000000000000000000000000000094169061212f6001600160a01b0386168314612055565b815f52600660205260405f2054938415612811576001600160a01b037f00000000000000000000000000000000000000000000000000000000000000001692604051947f70a08231000000000000000000000000000000000000000000000000000000008652306004870152602086602481885afa9586156102e5575f966127dd575b50604051957f07a2d13a0000000000000000000000000000000000000000000000000000000087526004870152602086602481885afa9586156102e5575f966127a9575b50825195601f1961221f612209896120c6565b986122176040519a8b611c2b565b808a526120c6565b013660208901375f935f99845f52600660205260405f2054965f9b5b83518d1015612435576001600160a01b036122568e8661310c565b51169788156123cb57875f52600560205260405f206001600160a01b038a165f5260205260405f205480156123bf576122988b612293838a611d5d565b611d70565b818111156123b2576122ad8d926020926120de565b604080518281526001600160a01b038c16602082015233918e918e917feee91b028207b902635421169b1a1e639a458be9f3491016e74126e27be517ee91a46024604051809481937fc6e6f59200000000000000000000000000000000000000000000000000000000835260048301525afa80156102e5578f928e925f92612377575b5091612368606461235f8461234c6001999661236e9998611a5a565b9f5f52600760205260405f205490611d5d565b0493849261310c565b52611a5a565b9c5b019b61223b565b92509250506020813d82116123aa575b8161239460209383611c2b565b8101031261022257518e918d9190612368612330565b3d9150612387565b505097509b600190612370565b5097509b600190612370565b608460405162461bcd60e51b815260206004820152603360248201527f455243343632365969656c6453747261746567793a20636c69656e742063616e60448201527f6e6f74206265207a65726f2061646472657373000000000000000000000000006064820152fd5b9495509596509796995097851561279b578082111561279357612457916120de565b604051907fc6e6f59200000000000000000000000000000000000000000000000000000000825260048201526020816024818c5afa9081156102e5575f91612761575b5084116126f75715612661576001600160a01b0360085416156125f7576040517fba087652000000000000000000000000000000000000000000000000000000008152600481018490523060248201819052604482015296602090889060649082905f905af19687156102e5575f976125c3575b505f94855b875187101561257357612526878761310c565b511561256a576125448561229361253d8a8a61310c565b518c611d5d565b9081156125605760019161255791611a5a565b965b0195612513565b9660019150612559565b95600190612559565b935094509450946125899250816125a8576120de565b809281612597575b50505090565b6125a09261352c565b5f8181612591565b6125be826001600160a01b03600854168661352c565b6120de565b9096506020813d6020116125ef575b816125df60209383611c2b565b810103126102225751955f61250e565b3d91506125d2565b608460405162461bcd60e51b815260206004820152602f60248201527f415969656c6453747261746567793a207365744173696465427566666572526560448201527f63697069656e74206e6f742073657400000000000000000000000000000000006064820152fd5b6040517fba08765200000000000000000000000000000000000000000000000000000000815260048101939093526001600160a01b03166024830152306044830152949093506020925083915060649082905f905af19081156102e5575f916126c8575090565b90506020813d6020116126ef575b816126e360209383611c2b565b81010312610222575190565b3d91506126d6565b608460405162461bcd60e51b815260206004820152603460248201527f455243343632365969656c6453747261746567793a20736b696d20657863656560448201527f64732061676772656761746520737572706c75730000000000000000000000006064820152fd5b90506020813d60201161278b575b8161277c60209383611c2b565b8101031261022257515f61249a565b3d915061276f565b50505f612457565b505050509450505050505f90565b9095506020813d6020116127d5575b816127c560209383611c2b565b810103126102225751945f6121f6565b3d91506127b8565b9095506020813d602011612809575b816127f960209383611c2b565b810103126102225751945f6121b2565b3d91506127ec565b5093505050505f90565b6001600160a01b0316906128596001600160a01b037f0000000000000000000000000000000000000000000000000000000000000000168314611cec565b612864831515611c7b565b815f52600560205260405f206001600160a01b0382165f5260205260405f205480841161298a575b5082156129205760406001600160a01b037f4d885c79cf5fd98092704fa243167fab8e9b91e380bdb7bb5a8c1fead343184392845f526005602052825f208282165f52602052825f206128e08782546120de565b9055845f526006602052825f206128f88782546120de565b9055845f526005602052825f208282165f52602052825f2054835196875260208701521693a3565b608460405162461bcd60e51b815260206004820152602a60248201527f415969656c6453747261746567793a206e6f207072696e636970616c20746f2060448201527f72656c696e7175697368000000000000000000000000000000000000000000006064820152fd5b92505f61288c565b67ffffffffffffffff8111611c4e57601f01601f191660200190565b8015612a9b575f81805b612a8457506129c681612992565b906129d46040519283611c2b565b808252601f196129e382612992565b013660208401375b80928015612a7d575f1982019182116114b0578193600a820660300192836030116114b05784511115612a5057601f7fff00000000000000000000000000000000000000000000000000000000000000600a9460f81b165f1a918501015304916129eb565b7f4e487b71000000000000000000000000000000000000000000000000000000005f52603260045260245ffd5b5050905090565b905f1981146114b0576001600a91019104806129b8565b50604051612aaa604082611c2b565b600181527f3000000000000000000000000000000000000000000000000000000000000000602082015290565b919392937f0000000000000000000000000000000000000000000000000000000000000000916001600160a01b0380808516951692612b17868514611cec565b612b22831515611c7b565b1693612b2f851515611a67565b6001600160a01b03604051977f23b872dd000000000000000000000000000000000000000000000000000000005f52169384600452306024528260445260205f60648180855af19060015f5114821615612dda575b50876040525f60605215612daf57507f6e553f65000000000000000000000000000000000000000000000000000000008652600486018190523060248701526001600160a01b037f000000000000000000000000000000000000000000000000000000000000000016956020816044815f8b5af19081156102e5575f91612d7d575b508015612d13576020602497604051988980927f07a2d13a0000000000000000000000000000000000000000000000000000000082528560048301525afa9687156102e5575f97612cbf575b507fb045190548dadae679cfe9e337437613ca6dd73efdf984f75e56f152ccee22f09160409188855f526005602052835f20885f52602052835f20612c98828254611a5a565b9055855f526006602052612cb0845f20918254611a5a565b905582519182526020820152a4565b9096506020813d602011612d0b575b81612cdb60209383611c2b565b810103126102225751957fb045190548dadae679cfe9e337437613ca6dd73efdf984f75e56f152ccee22f0612c52565b3d9150612cce565b608460405162461bcd60e51b815260206004820152602860248201527f455243343632365969656c6453747261746567793a206e6f207368617265732060448201527f72656365697665640000000000000000000000000000000000000000000000006064820152fd5b90506020813d602011612da7575b81612d9860209383611c2b565b8101031261022257515f612c06565b3d9150612d8b565b7f5274afe7000000000000000000000000000000000000000000000000000000005f5260045260245ffd5b6001821516612df0573b15153d1516165f612b84565b883d5f823e3d90fd5b6001600160a01b03909291921690612e3b6001600160a01b037f0000000000000000000000000000000000000000000000000000000000000000168314611cec565b612e46831515611c7b565b6001600160a01b03811693612e5c851515611a67565b825f52600560205260405f206001600160a01b0382165f5260205260405f20548085116130ba575b506001600160a01b037f000000000000000000000000000000000000000000000000000000000000000016604051927fc6e6f592000000000000000000000000000000000000000000000000000000008452856004850152602084602481855afa9384156102e5575f94613086575b50836040517f70a08231000000000000000000000000000000000000000000000000000000008152306004820152602081602481875afa9081156102e5575f91613054575b5080911161304a575b506040517fba087652000000000000000000000000000000000000000000000000000000008152600481018590526001600160a01b039091166024820152306044820152906020908290815f81606481015b03925af180156102e55761301b575b50825f5260056020526001600160a01b0360405f2091165f5260205260405f20612fcd8482546120de565b9055815f52600660205260405f20612fe68482546120de565b905560405192835260208301527f144f5f62c08d623a6f383205dc8d5ef825b693748e2977846e18121b6780413a60403393a4565b6020813d602011613042575b8161303460209383611c2b565b810103126102225751612fa2565b3d9150613027565b9350612f93612f41565b90506020813d60201161307e575b8161306f60209383611c2b565b8101031261022257515f612f38565b3d9150613062565b9093506020813d6020116130b2575b816130a260209383611c2b565b810103126102225751925f612ef3565b3d9150613095565b93505f612e84565b60405190600254808352826020810160025f5260205f20925f5b8181106130f35750506130f192500383611c2b565b565b84548352600194850194879450602090930192016130dc565b8051821015612a505760209160051b010190565b6001600160a01b037f00000000000000000000000000000000000000000000000000000000000000009116926131606001600160a01b0383168514612055565b15613366576040517f70a082310000000000000000000000000000000000000000000000000000000081523060048201527f00000000000000000000000000000000000000000000000000000000000000006001600160a01b031693602082602481885afa9182156102e5575f92613332575b508115801561331e575b61331757805f52600560205260405f206001600160a01b0385165f5260205261322161320e60405f20548094611d5d565b825f52600660205260405f205490611d70565b9485613230575b505050505050565b6040517fba087652000000000000000000000000000000000000000000000000000000008152600481019690965230602487018190526044870152602090869060649082905f905af19384156102e5575f946132e1575b6132d69550815f5260056020526001600160a01b0360405f2091165f526020525f60408120555f5260066020526132c360405f209182546120de565b90556001600160a01b035f54169061352c565b5f8080808080613228565b93506020853d60201161330f575b816132fc60209383611c2b565b81010312610222576132d6945193613287565b3d91506132ef565b5050505050565b50805f52600660205260405f2054156131dd565b9091506020813d60201161335e575b8161334e60209383611c2b565b810103126102225751905f6131d3565b3d9150613341565b608460405162461bcd60e51b815260206004820152603660248201527f455243343632365969656c6453747261746567793a20616d6f756e74206d757360448201527f742062652067726561746572207468616e207a65726f000000000000000000006064820152fd5b8054821015612a50575f5260205f2001905f90565b5f818152600360205260409020548015611f4f575f1981018181116114b057600254905f1982019182116114b057818103613484575b5050506002548015613457575f19016134358160026133d0565b5f1982549160031b1b191690556002555f5260036020525f6040812055600190565b7f4e487b71000000000000000000000000000000000000000000000000000000005f52603160045260245ffd5b6134bc6134956134a69360026133d0565b90549060031b1c92839260026133d0565b81939154905f199060031b92831b921b19161790565b90555f52600360205260405f20555f808061341b565b805f52600360205260405f2054155f146135275760025468010000000000000000811015611c4e576135106134a682600185940160025560026133d0565b9055600254905f52600360205260405f2055600190565b505f90565b916001600160a01b03604051927fa9059cbb000000000000000000000000000000000000000000000000000000005f521660045260245260205f60448180865af19060015f51148216156135bb575b604052156135865750565b6001600160a01b03907f5274afe7000000000000000000000000000000000000000000000000000000005f521660045260245ffd5b9060018115166135d357823b15153d1516169061357b565b503d5f823e3d90fdfea2646970667358221220e38cd2d0a855dfc72c0ee9f31c8d7beccce5c63a9669e072c25f249be61fecd564736f6c634300081e0033000000000000000000000000cad1a7864a108dbff67f4b8af71fab0c7a86d0b6000000000000000000000000865377367054516e17014ccded1e7d814edc9ce400000000000000000000000079eb84b5e30ef2481c8f00fd0aa7aad6ac0aa54d",
        "nonce": "0x329",
        "chainId": "0x1"
      },
      "additionalContracts": [],
      "isFixedGasLimit": false
    },
    {
      "hash": "0xb92526955c473a7d872ae37e0b6b863eede56dce96c60f210aa77c3ddf5f76ca",
      "transactionType": "CREATE",
      "contractName": "ERC4626YieldStrategy",
      "contractAddress": "0xafdf8dea96a0f37aae4869f813901bf73a3eab83",
      "function": null,
      "arguments": [
        "0xCad1a7864a108DBFF67F4b8af71fAB0C7A86D0B6",
        "0xA0b86991c6218b36c1d19D4a2e9Eb0cE3606eB48",
        "0xa7569A44f348d3D70d8ad5889e50F78E33d80D35"
      ],
      "transaction": {
        "from": "0xcad1a7864a108dbff67f4b8af71fab0c7a86d0b6",
        "gas": "0x3dd201",
        "value": "0x0",
        "input": "0x60c080604052346101ef57606081613942803803809161001f82856102e4565b8339810103126101ef576100328161031b565b9061004b60406100446020840161031b565b920161031b565b916001600160a01b031680156102d1575f80546001600160a01b03198116831782556001600160a01b0316907f8be0079c531659141344cd1fd0a4f28419497f9722a3daafe3b4186f6b6457e09080a360017f9b779b17422d0df92223018b32b4d1fa46e071723d6817e2486d003becc55f00556001600160a01b03169081156102665760808290526001600160a01b03168015610206575f9160448260209360a052604051948593849263095ea7b360e01b84526004840152811960248401525af180156101fb576101bf575b604051613612908161033082396080518181816104f8015281816106a30152818161089c01528181610baf01528181610dff01528181611dbe015281816120f90152818161283201528181612add01528181612e14015261312a015260a0518181816101fe015281816104850152818161058f01528181610cd00152818161104a01528181611e1d0152818161214d01528181612bcd01528181612e8f01526131930152f35b6020813d6020116101f3575b816101d8602093836102e4565b810103126101ef5751801515036101ef575f610119565b5f80fd5b3d91506101cb565b6040513d5f823e3d90fd5b60405162461bcd60e51b815260206004820152603260248201527f455243343632365969656c6453747261746567793a207661756c742063616e6e6044820152716f74206265207a65726f206164647265737360701b6064820152608490fd5b60405162461bcd60e51b815260206004820152603760248201527f415969656c6453747261746567793a20756e6465726c79696e6720746f6b656e60448201527f2063616e6e6f74206265207a65726f20616464726573730000000000000000006064820152608490fd5b631e4fbdf760e01b5f525f60045260245ffd5b601f909101601f19168101906001600160401b0382119082101761030757604052565b634e487b7160e01b5f52604160045260245ffd5b51906001600160a01b03821682036101ef5756fe6080806040526004361015610012575f80fd5b5f3560e01c9081630c9c31bd14611991575080631819ac8b1461190257806318b66805146118145780632495a59914610b905780632d88af4a1461179557806332ab5f7f1461174e57806332e4036d146113065780633e65164a146112e95780633f4ba83a146111bd5780633fd8d15b1461118057806340cf018e1461110557806342843975146110a05780634a3c68ef146110835780634cdad50614610ffb5780635312ea8e14610c9f5780635a4e1b1d14610c7b5780635c975abb14610c57578063619cbd8214610c1557806369328dec14610bd35780636f307dc314610b905780636f85c7e414610b74578063715018a614610b0557806378edad2814610acd57806382c3b965146109f25780638456cb59146108f557806384d10bff146108c1578063879162f51461085b57806388b57777146108355780638da5cb5b146108105780639c118c95146107195780639fd0506d146106f3578063be875e4f1461066b578063c2cda700146105c8578063d5002f2e14610543578063ee73fe2e146104be578063ef8b30f714610436578063f2f3d09214610418578063f2fde38b14610364578063f45346dc146102f0578063f7888aec146102265763fbfa77cf146101df575f80fd5b34610222575f6003193601126102225760206040516001600160a01b037f0000000000000000000000000000000000000000000000000000000000000000168152f35b5f80fd5b346102225760406003193601126102225761029560206102446119c5565b61024c6119db565b6040517fbe875e4f0000000000000000000000000000000000000000000000000000000081526001600160a01b0392831660048201529116602482015291829081906044820190565b0381305afa80156102e5575f906102b2575b602090604051908152f35b506020813d6020116102dd575b816102cc60209383611c2b565b8101031261022257602090516102a7565b3d91506102bf565b6040513d5f823e3d90fd5b3461022257602061033861030336611a20565b9061032161031c335f52600360205260405f2054151590565b611b49565b610329611fa8565b61033161201f565b3392612ad7565b60017f9b779b17422d0df92223018b32b4d1fa46e071723d6817e2486d003becc55f0055604051908152f35b34610222576020600319360112610222576001600160a01b036103856119c5565b61038d611f69565b1680156103ec576001600160a01b035f54827fffffffffffffffffffffffff00000000000000000000000000000000000000008216175f55167f8be0079c531659141344cd1fd0a4f28419497f9722a3daafe3b4186f6b6457e05f80a3005b7f1e4fbdf7000000000000000000000000000000000000000000000000000000005f525f60045260245ffd5b34610222575f600319360112610222576020620448e0604051908152f35b34610222576020600319360112610222576040517fef8b30f700000000000000000000000000000000000000000000000000000000815260043560048201526020816024816001600160a01b037f0000000000000000000000000000000000000000000000000000000000000000165afa80156102e5575f906102b257602090604051908152f35b346102225760406003193601126102225761051d6104da6119c5565b6104e2611f69565b6104ea611fa8565b602435906001600160a01b037f00000000000000000000000000000000000000000000000000000000000000001661281b565b60017f9b779b17422d0df92223018b32b4d1fa46e071723d6817e2486d003becc55f0055005b34610222575f600319360112610222576040517f70a082310000000000000000000000000000000000000000000000000000000081523060048201526020816024816001600160a01b037f0000000000000000000000000000000000000000000000000000000000000000165afa80156102e5575f906102b257602090604051908152f35b34610222576040600319360112610222576105e16119c5565b6001600160a01b036105f16119db565b91165f5260096020526001600160a01b0360405f2091165f5260205260405f208054600260ff600184015416920154604051918252600483101561063e5760609260208301526040820152f35b7f4e487b71000000000000000000000000000000000000000000000000000000005f52602160045260245ffd5b34610222576040600319360112610222576106846119c5565b6001600160a01b036106946119db565b91166106ca6001600160a01b037f0000000000000000000000000000000000000000000000000000000000000000168214611cec565b5f5260056020526001600160a01b0360405f2091165f52602052602060405f2054604051908152f35b34610222575f6003193601126102225760206001600160a01b0360015416604051908152f35b34610222576040600319360112610222576107326119c5565b6001600160a01b0360243591610746611f69565b1690610753821515611bba565b606481116107a65760407f7f5fae2f2ea0d248c289f00cb1738844937f7fe3bd3c11357de14780c9805b9a91835f526007602052815f205490845f52600760205280835f205582519182526020820152a2005b608460405162461bcd60e51b815260206004820152602a60248201527f415969656c6453747261746567793a206275666665722070657263656e74206560448201527f78636565647320313030000000000000000000000000000000000000000000006064820152fd5b34610222575f6003193601126102225760206001600160a01b035f5416604051908152f35b34610222575f6003193601126102225760206001600160a01b0360085416604051908152f35b346102225760606003193601126102225761051d6108776119c5565b61087f6119db565b610887611f69565b61088f611fa8565b6044356001600160a01b037f000000000000000000000000000000000000000000000000000000000000000016612df9565b346102225760406003193601126102225760206108ed6108df6119c5565b6108e76119db565b90611da7565b604051908152f35b34610222575f600319360112610222576001600160a01b036001541633036109885761091f61201f565b740100000000000000000000000000000000000000007fffffffffffffffffffffff00ffffffffffffffffffffffffffffffffffffffff5f5416175f557f62e78cea01bee320cd4e420270b5ea74000d11b0c9f74754ebdbfc544b05a2586020604051338152a1005b608460405162461bcd60e51b815260206004820152602860248201527f415969656c6453747261746567793a2063616c6c6572206973206e6f7420746860448201527f65207061757365720000000000000000000000000000000000000000000000006064820152fd5b34610222576001600160a01b03610a08366119f1565b9190610a12611f69565b16908115610a635760207f5c8df9226b5390a36c31cb0bb75ccd51f1106fc9c93332f6305e2a4a7ae4e77191835f526004825260405f209015159060ff1981541660ff8316179055604051908152a2005b608460405162461bcd60e51b815260206004820152603160248201527f415969656c6453747261746567793a20776974686472617765722063616e6e6f60448201527f74206265207a65726f20616464726573730000000000000000000000000000006064820152fd5b34610222576020600319360112610222576001600160a01b03610aee6119c5565b165f526007602052602060405f2054604051908152f35b34610222575f60031936011261022257610b1d611f69565b5f6001600160a01b0381547fffffffffffffffffffffffff000000000000000000000000000000000000000081168355167f8be0079c531659141344cd1fd0a4f28419497f9722a3daafe3b4186f6b6457e08280a3005b34610222575f6003193601126102225760206040516154608152f35b34610222575f6003193601126102225760206040516001600160a01b037f0000000000000000000000000000000000000000000000000000000000000000168152f35b346102225761051d610be436611a20565b91908291610c0061031c335f52600360205260405f2054151590565b610c08611fa8565b610c1061201f565b612df9565b34610222576020600319360112610222576020610c4d6001600160a01b03610c3b6119c5565b165f52600360205260405f2054151590565b6040519015158152f35b34610222575f60031936011261022257602060ff5f5460a01c166040519015158152f35b34610222576020610338610c8e36611a20565b90610c97611f69565b610331611fa8565b3461022257602060031936011261022257600435610cbb611f69565b610cc6811515611c7b565b6001600160a01b037f0000000000000000000000000000000000000000000000000000000000000000166040517f70a08231000000000000000000000000000000000000000000000000000000008152306004820152602081602481855afa9081156102e5575f91610fc9575b508015610f5f57604051907f07a2d13a000000000000000000000000000000000000000000000000000000008252806004830152602082602481865afa9182156102e5575f92610f2b575b5080918410610e8d575b506040517fba087652000000000000000000000000000000000000000000000000000000008152600481019190915230602482018190526044820152906020908290815f81606481015b03925af19081156102e5575f91610e5b575b5081811015610e5157610e23905b6001600160a01b035f54167f000000000000000000000000000000000000000000000000000000000000000061352c565b6040519081527f5fafa99d0643513820be26656b45130b01e1c03062e1266bf36f88cbd3bd969560203392a2005b50610e2381610df2565b90506020813d602011610e85575b81610e7660209383611c2b565b81010312610222575182610de4565b3d9150610e69565b9050604051907fc6e6f592000000000000000000000000000000000000000000000000000000008252836004830152602082602481865afa9182156102e5575f92610ef7575b505f92602092610dd292808211610eef575b5092509250610d88565b905086610ee5565b9091506020813d602011610f23575b81610f1360209383611c2b565b810103126102225751905f610ed3565b3d9150610f06565b9091506020813d602011610f57575b81610f4760209383611c2b565b8101031261022257519084610d7e565b3d9150610f3a565b608460405162461bcd60e51b815260206004820152602b60248201527f455243343632365969656c6453747261746567793a206e6f207368617265732060448201527f746f2077697468647261770000000000000000000000000000000000000000006064820152fd5b90506020813d602011610ff3575b81610fe460209383611c2b565b81010312610222575183610d33565b3d9150610fd7565b34610222576020600319360112610222576040517f4cdad50600000000000000000000000000000000000000000000000000000000815260043560048201526020816024816001600160a01b037f0000000000000000000000000000000000000000000000000000000000000000165afa80156102e5575f906102b257602090604051908152f35b34610222575f600319360112610222576020600254604051908152f35b34610222575f600319360112610222576110b86130c2565b6040518091602082016020835281518091526020604084019201905f5b8181106110e3575050500390f35b82516001600160a01b03168452859450602093840193909201916001016110d5565b34610222576001600160a01b037f50b24d98d3da51f5db279e5872fa50584b172048aa9bfa6c6edb4d0cfbb4dc58602061113e366119f1565b9390611148611f69565b1692611155841515611bba565b801561117157611164846134d2565b505b6040519015158152a2005b61117a846133e5565b50611166565b34610222576020600319360112610222576001600160a01b036111a16119c5565b165f526004602052602060ff60405f2054166040519015158152f35b34610222575f600319360112610222575f546001600160a01b038116331480156112d5575b1561126b5760ff8160a01c1615611243577fffffffffffffffffffffff00ffffffffffffffffffffffffffffffffffffffff165f557f5db9ee0a495bf2e6ff9c91a7834c1ba4fdd244a5e8aa4e537bd38aeae4b073aa6020604051338152a1005b7f8dfc202b000000000000000000000000000000000000000000000000000000005f5260045ffd5b608460405162461bcd60e51b815260206004820152603160248201527f415969656c6453747261746567793a2063616c6c6572206973206e6f7420746860448201527f65206f776e6572206f72207061757365720000000000000000000000000000006064820152fd5b506001600160a01b036001541633146111e2565b34610222575f6003193601126102225760206040516203f4808152f35b346102225760406003193601126102225761131f6119c5565b6113276119db565b61132f611f69565b611337611fa8565b61133f61201f565b6001600160a01b03821690611355821515611ad8565b6001600160a01b0381169261136b841515611bba565b825f52600960205260405f20845f5260205260405f2091600183019160ff835416600481101561063e57600181036117215750835461546081018082116114b0574210156116ec575b505b60ff83541660048110158061063e57811580156116e0575b1561157b5750506040517ff7888aec0000000000000000000000000000000000000000000000000000000081526001600160a01b039182166004820152911660248201529190602083604481305afa9283156102e5575f93611547575b5082156114dd578291600291428255600160ff19825416179055015561546042018042116114b0577fd9fbd8fe4451ae979e36c7923543e61b94e26b6f1510866805ee90023a61aa21916060916040519182524260208301526040820152a360017f9b779b17422d0df92223018b32b4d1fa46e071723d6817e2486d003becc55f0055005b7f4e487b71000000000000000000000000000000000000000000000000000000005f52601160045260245ffd5b608460405162461bcd60e51b815260206004820152602660248201527f415969656c6453747261746567793a206e6f2062616c616e636520746f20776960448201527f74686472617700000000000000000000000000000000000000000000000000006064820152fd5b9092506020813d602011611573575b8161156360209383611c2b565b810103126102225751918561142b565b3d9150611556565b61063e57600281036115dd575060409284926115cc925f60027ff3a071e0cb05fb8cf5dacdf1fece8c01159996730fede84a47826645bd67a63e980181815497889660ff1981541690555555613120565b8151908152426020820152a361051d565b93955050505060019150146115f2575061051d565b5461546081018091116114b057611608906129ae565b60446040516116a8606d826020808201967f415969656c6453747261746567793a207769746864726177616c207374696c6c88527f20696e2077616974696e6720706572696f642c2065786563757461626c65206160408401527f742074696d657374616d703a200000000000000000000000000000000000000060608401528051918291018484015e81015f838201520301601f198101835282611c2b565b601f19601f60405194859362461bcd60e51b8552602060048601525180918160248701528686015e5f85828601015201168101030190fd5b50505f600382146113ce565b620448e081018091116114b057421161171157600260ff198454161783555b866113b4565b600360ff1984541617835561170b565b6002036113b6578354620448e081018091116114b0574211156113b657600360ff198454161783556113b6565b346102225760406003193601126102225761051d61176a6119c5565b61178261031c335f52600360205260405f2054151590565b61178a611fa8565b60243590339061281b565b34610222576020600319360112610222576117ae6119c5565b6117b6611f69565b6001600160a01b0380600154921691827fffffffffffffffffffffffff0000000000000000000000000000000000000000821617600155167f5dcaa27e7d9a9fdd8d01662749f4c51d8a9d7933cc5c31bc05ce70aef865d0045f80a3005b346102225760406003193601126102225761182d6119c5565b6118356119db565b90335f52600460205260ff60405f20541615611898576020916103389161185a611fa8565b61186261201f565b6118766001600160a01b0382161515611ad8565b61188a6001600160a01b0383161515611a67565b6118926130c2565b906120eb565b608460405162461bcd60e51b815260206004820152603960248201527f415969656c6453747261746567793a20756e617574686f72697a65642c206f6e60448201527f6c7920617574686f72697a6564207769746864726177657273000000000000006064820152fd5b34610222576020600319360112610222576001600160a01b036119236119c5565b61192b611f69565b16611937811515611a67565b6001600160a01b03600854827fffffffffffffffffffffffff0000000000000000000000000000000000000000821617600855167fd65793d120b187e6304e609c707a0b13e374e04f05d255508e46b02d7a796ce35f80a3005b34610222576020600319360112610222576020906001600160a01b036119b56119c5565b165f526006825260405f20548152f35b600435906001600160a01b038216820361022257565b602435906001600160a01b038216820361022257565b6003196040910112610222576004356001600160a01b0381168103610222579060243580151581036102225790565b6003196060910112610222576004356001600160a01b03811681036102225790602435906044356001600160a01b03811681036102225790565b919082018092116114b057565b15611a6e57565b608460405162461bcd60e51b815260206004820152603060248201527f415969656c6453747261746567793a20726563697069656e742063616e6e6f7460448201527f206265207a65726f2061646472657373000000000000000000000000000000006064820152fd5b15611adf57565b608460405162461bcd60e51b815260206004820152602c60248201527f415969656c6453747261746567793a20746f6b656e2063616e6e6f742062652060448201527f7a65726f206164647265737300000000000000000000000000000000000000006064820152fd5b15611b5057565b608460405162461bcd60e51b815260206004820152603560248201527f415969656c6453747261746567793a20756e617574686f72697a65642c206f6e60448201527f6c7920617574686f72697a656420636c69656e747300000000000000000000006064820152fd5b15611bc157565b608460405162461bcd60e51b815260206004820152602d60248201527f415969656c6453747261746567793a20636c69656e742063616e6e6f7420626560448201527f207a65726f2061646472657373000000000000000000000000000000000000006064820152fd5b90601f601f19910116810190811067ffffffffffffffff821117611c4e57604052565b7f4e487b71000000000000000000000000000000000000000000000000000000005f52604160045260245ffd5b15611c8257565b608460405162461bcd60e51b815260206004820152603060248201527f415969656c6453747261746567793a20616d6f756e74206d757374206265206760448201527f726561746572207468616e207a65726f000000000000000000000000000000006064820152fd5b15611cf357565b608460405162461bcd60e51b815260206004820152602f60248201527f415969656c6453747261746567793a206f6e6c7920756e6465726c79696e672060448201527f746f6b656e20737570706f7274656400000000000000000000000000000000006064820152fd5b818102929181159184041417156114b057565b8115611d7a570490565b7f4e487b71000000000000000000000000000000000000000000000000000000005f52601260045260245ffd5b6001600160a01b031690611de56001600160a01b037f0000000000000000000000000000000000000000000000000000000000000000168314611cec565b815f5260056020526001600160a01b0360405f2091165f5260205260405f20549081158015611f55575b611f4f576001600160a01b037f0000000000000000000000000000000000000000000000000000000000000000166040517f70a08231000000000000000000000000000000000000000000000000000000008152306004820152602081602481855afa80156102e5575f90611f1c575b602091506024604051809481937f07a2d13a00000000000000000000000000000000000000000000000000000000835260048301525afa9081156102e5575f91611ee8575b50611ee592611ed291611d5d565b905f52600660205260405f205490611d70565b90565b90506020813d602011611f14575b81611f0360209383611c2b565b810103126102225751611ee5611ec4565b3d9150611ef6565b506020813d602011611f47575b81611f3660209383611c2b565b810103126102225760209051611e7f565b3d9150611f29565b50505f90565b50805f52600660205260405f205415611e0f565b6001600160a01b035f54163303611f7c57565b7f118cdaa7000000000000000000000000000000000000000000000000000000005f523360045260245ffd5b60027f9b779b17422d0df92223018b32b4d1fa46e071723d6817e2486d003becc55f005414611ff75760027f9b779b17422d0df92223018b32b4d1fa46e071723d6817e2486d003becc55f0055565b7f3ee5aeb5000000000000000000000000000000000000000000000000000000005f5260045ffd5b60ff5f5460a01c1661202d57565b7fd93c0665000000000000000000000000000000000000000000000000000000005f5260045ffd5b1561205c57565b608460405162461bcd60e51b815260206004820152603560248201527f455243343632365969656c6453747261746567793a206f6e6c7920756e64657260448201527f6c79696e6720746f6b656e20737570706f7274656400000000000000000000006064820152fd5b67ffffffffffffffff8111611c4e5760051b60200190565b919082039182116114b057565b929190916001600160a01b037f000000000000000000000000000000000000000000000000000000000000000094169061212f6001600160a01b0386168314612055565b815f52600660205260405f2054938415612811576001600160a01b037f00000000000000000000000000000000000000000000000000000000000000001692604051947f70a08231000000000000000000000000000000000000000000000000000000008652306004870152602086602481885afa9586156102e5575f966127dd575b50604051957f07a2d13a0000000000000000000000000000000000000000000000000000000087526004870152602086602481885afa9586156102e5575f966127a9575b50825195601f1961221f612209896120c6565b986122176040519a8b611c2b565b808a526120c6565b013660208901375f935f99845f52600660205260405f2054965f9b5b83518d1015612435576001600160a01b036122568e8661310c565b51169788156123cb57875f52600560205260405f206001600160a01b038a165f5260205260405f205480156123bf576122988b612293838a611d5d565b611d70565b818111156123b2576122ad8d926020926120de565b604080518281526001600160a01b038c16602082015233918e918e917feee91b028207b902635421169b1a1e639a458be9f3491016e74126e27be517ee91a46024604051809481937fc6e6f59200000000000000000000000000000000000000000000000000000000835260048301525afa80156102e5578f928e925f92612377575b5091612368606461235f8461234c6001999661236e9998611a5a565b9f5f52600760205260405f205490611d5d565b0493849261310c565b52611a5a565b9c5b019b61223b565b92509250506020813d82116123aa575b8161239460209383611c2b565b8101031261022257518e918d9190612368612330565b3d9150612387565b505097509b600190612370565b5097509b600190612370565b608460405162461bcd60e51b815260206004820152603360248201527f455243343632365969656c6453747261746567793a20636c69656e742063616e60448201527f6e6f74206265207a65726f2061646472657373000000000000000000000000006064820152fd5b9495509596509796995097851561279b578082111561279357612457916120de565b604051907fc6e6f59200000000000000000000000000000000000000000000000000000000825260048201526020816024818c5afa9081156102e5575f91612761575b5084116126f75715612661576001600160a01b0360085416156125f7576040517fba087652000000000000000000000000000000000000000000000000000000008152600481018490523060248201819052604482015296602090889060649082905f905af19687156102e5575f976125c3575b505f94855b875187101561257357612526878761310c565b511561256a576125448561229361253d8a8a61310c565b518c611d5d565b9081156125605760019161255791611a5a565b965b0195612513565b9660019150612559565b95600190612559565b935094509450946125899250816125a8576120de565b809281612597575b50505090565b6125a09261352c565b5f8181612591565b6125be826001600160a01b03600854168661352c565b6120de565b9096506020813d6020116125ef575b816125df60209383611c2b565b810103126102225751955f61250e565b3d91506125d2565b608460405162461bcd60e51b815260206004820152602f60248201527f415969656c6453747261746567793a207365744173696465427566666572526560448201527f63697069656e74206e6f742073657400000000000000000000000000000000006064820152fd5b6040517fba08765200000000000000000000000000000000000000000000000000000000815260048101939093526001600160a01b03166024830152306044830152949093506020925083915060649082905f905af19081156102e5575f916126c8575090565b90506020813d6020116126ef575b816126e360209383611c2b565b81010312610222575190565b3d91506126d6565b608460405162461bcd60e51b815260206004820152603460248201527f455243343632365969656c6453747261746567793a20736b696d20657863656560448201527f64732061676772656761746520737572706c75730000000000000000000000006064820152fd5b90506020813d60201161278b575b8161277c60209383611c2b565b8101031261022257515f61249a565b3d915061276f565b50505f612457565b505050509450505050505f90565b9095506020813d6020116127d5575b816127c560209383611c2b565b810103126102225751945f6121f6565b3d91506127b8565b9095506020813d602011612809575b816127f960209383611c2b565b810103126102225751945f6121b2565b3d91506127ec565b5093505050505f90565b6001600160a01b0316906128596001600160a01b037f0000000000000000000000000000000000000000000000000000000000000000168314611cec565b612864831515611c7b565b815f52600560205260405f206001600160a01b0382165f5260205260405f205480841161298a575b5082156129205760406001600160a01b037f4d885c79cf5fd98092704fa243167fab8e9b91e380bdb7bb5a8c1fead343184392845f526005602052825f208282165f52602052825f206128e08782546120de565b9055845f526006602052825f206128f88782546120de565b9055845f526005602052825f208282165f52602052825f2054835196875260208701521693a3565b608460405162461bcd60e51b815260206004820152602a60248201527f415969656c6453747261746567793a206e6f207072696e636970616c20746f2060448201527f72656c696e7175697368000000000000000000000000000000000000000000006064820152fd5b92505f61288c565b67ffffffffffffffff8111611c4e57601f01601f191660200190565b8015612a9b575f81805b612a8457506129c681612992565b906129d46040519283611c2b565b808252601f196129e382612992565b013660208401375b80928015612a7d575f1982019182116114b0578193600a820660300192836030116114b05784511115612a5057601f7fff00000000000000000000000000000000000000000000000000000000000000600a9460f81b165f1a918501015304916129eb565b7f4e487b71000000000000000000000000000000000000000000000000000000005f52603260045260245ffd5b5050905090565b905f1981146114b0576001600a91019104806129b8565b50604051612aaa604082611c2b565b600181527f3000000000000000000000000000000000000000000000000000000000000000602082015290565b919392937f0000000000000000000000000000000000000000000000000000000000000000916001600160a01b0380808516951692612b17868514611cec565b612b22831515611c7b565b1693612b2f851515611a67565b6001600160a01b03604051977f23b872dd000000000000000000000000000000000000000000000000000000005f52169384600452306024528260445260205f60648180855af19060015f5114821615612dda575b50876040525f60605215612daf57507f6e553f65000000000000000000000000000000000000000000000000000000008652600486018190523060248701526001600160a01b037f000000000000000000000000000000000000000000000000000000000000000016956020816044815f8b5af19081156102e5575f91612d7d575b508015612d13576020602497604051988980927f07a2d13a0000000000000000000000000000000000000000000000000000000082528560048301525afa9687156102e5575f97612cbf575b507fb045190548dadae679cfe9e337437613ca6dd73efdf984f75e56f152ccee22f09160409188855f526005602052835f20885f52602052835f20612c98828254611a5a565b9055855f526006602052612cb0845f20918254611a5a565b905582519182526020820152a4565b9096506020813d602011612d0b575b81612cdb60209383611c2b565b810103126102225751957fb045190548dadae679cfe9e337437613ca6dd73efdf984f75e56f152ccee22f0612c52565b3d9150612cce565b608460405162461bcd60e51b815260206004820152602860248201527f455243343632365969656c6453747261746567793a206e6f207368617265732060448201527f72656365697665640000000000000000000000000000000000000000000000006064820152fd5b90506020813d602011612da7575b81612d9860209383611c2b565b8101031261022257515f612c06565b3d9150612d8b565b7f5274afe7000000000000000000000000000000000000000000000000000000005f5260045260245ffd5b6001821516612df0573b15153d1516165f612b84565b883d5f823e3d90fd5b6001600160a01b03909291921690612e3b6001600160a01b037f0000000000000000000000000000000000000000000000000000000000000000168314611cec565b612e46831515611c7b565b6001600160a01b03811693612e5c851515611a67565b825f52600560205260405f206001600160a01b0382165f5260205260405f20548085116130ba575b506001600160a01b037f000000000000000000000000000000000000000000000000000000000000000016604051927fc6e6f592000000000000000000000000000000000000000000000000000000008452856004850152602084602481855afa9384156102e5575f94613086575b50836040517f70a08231000000000000000000000000000000000000000000000000000000008152306004820152602081602481875afa9081156102e5575f91613054575b5080911161304a575b506040517fba087652000000000000000000000000000000000000000000000000000000008152600481018590526001600160a01b039091166024820152306044820152906020908290815f81606481015b03925af180156102e55761301b575b50825f5260056020526001600160a01b0360405f2091165f5260205260405f20612fcd8482546120de565b9055815f52600660205260405f20612fe68482546120de565b905560405192835260208301527f144f5f62c08d623a6f383205dc8d5ef825b693748e2977846e18121b6780413a60403393a4565b6020813d602011613042575b8161303460209383611c2b565b810103126102225751612fa2565b3d9150613027565b9350612f93612f41565b90506020813d60201161307e575b8161306f60209383611c2b565b8101031261022257515f612f38565b3d9150613062565b9093506020813d6020116130b2575b816130a260209383611c2b565b810103126102225751925f612ef3565b3d9150613095565b93505f612e84565b60405190600254808352826020810160025f5260205f20925f5b8181106130f35750506130f192500383611c2b565b565b84548352600194850194879450602090930192016130dc565b8051821015612a505760209160051b010190565b6001600160a01b037f00000000000000000000000000000000000000000000000000000000000000009116926131606001600160a01b0383168514612055565b15613366576040517f70a082310000000000000000000000000000000000000000000000000000000081523060048201527f00000000000000000000000000000000000000000000000000000000000000006001600160a01b031693602082602481885afa9182156102e5575f92613332575b508115801561331e575b61331757805f52600560205260405f206001600160a01b0385165f5260205261322161320e60405f20548094611d5d565b825f52600660205260405f205490611d70565b9485613230575b505050505050565b6040517fba087652000000000000000000000000000000000000000000000000000000008152600481019690965230602487018190526044870152602090869060649082905f905af19384156102e5575f946132e1575b6132d69550815f5260056020526001600160a01b0360405f2091165f526020525f60408120555f5260066020526132c360405f209182546120de565b90556001600160a01b035f54169061352c565b5f8080808080613228565b93506020853d60201161330f575b816132fc60209383611c2b565b81010312610222576132d6945193613287565b3d91506132ef565b5050505050565b50805f52600660205260405f2054156131dd565b9091506020813d60201161335e575b8161334e60209383611c2b565b810103126102225751905f6131d3565b3d9150613341565b608460405162461bcd60e51b815260206004820152603660248201527f455243343632365969656c6453747261746567793a20616d6f756e74206d757360448201527f742062652067726561746572207468616e207a65726f000000000000000000006064820152fd5b8054821015612a50575f5260205f2001905f90565b5f818152600360205260409020548015611f4f575f1981018181116114b057600254905f1982019182116114b057818103613484575b5050506002548015613457575f19016134358160026133d0565b5f1982549160031b1b191690556002555f5260036020525f6040812055600190565b7f4e487b71000000000000000000000000000000000000000000000000000000005f52603160045260245ffd5b6134bc6134956134a69360026133d0565b90549060031b1c92839260026133d0565b81939154905f199060031b92831b921b19161790565b90555f52600360205260405f20555f808061341b565b805f52600360205260405f2054155f146135275760025468010000000000000000811015611c4e576135106134a682600185940160025560026133d0565b9055600254905f52600360205260405f2055600190565b505f90565b916001600160a01b03604051927fa9059cbb000000000000000000000000000000000000000000000000000000005f521660045260245260205f60448180865af19060015f51148216156135bb575b604052156135865750565b6001600160a01b03907f5274afe7000000000000000000000000000000000000000000000000000000005f521660045260245ffd5b9060018115166135d357823b15153d1516169061357b565b503d5f823e3d90fdfea2646970667358221220e38cd2d0a855dfc72c0ee9f31c8d7beccce5c63a9669e072c25f249be61fecd564736f6c634300081e0033000000000000000000000000cad1a7864a108dbff67f4b8af71fab0c7a86d0b6000000000000000000000000a0b86991c6218b36c1d19d4a2e9eb0ce3606eb48000000000000000000000000a7569a44f348d3d70d8ad5889e50f78e33d80d35",
        "nonce": "0x32a",
        "chainId": "0x1"
      },
      "additionalContracts": [],
      "isFixedGasLimit": false
    },
    {
      "hash": "0x4f6e032b66c86a8acba945f7af08abdff4fc133cc5f23eb4c94603f8b84174da",
      "transactionType": "CREATE",
      "contractName": "PhusdStableMinter",
      "contractAddress": "0x94855aca13952d81507c92d3cdbb2e25d3bbe60c",
      "function": null,
      "arguments": [
        "0xf3B5B661b92B75C71fA5Aba8Fd95D7514A9CD605"
      ],
      "transaction": {
        "from": "0xcad1a7864a108dbff67f4b8af71fab0c7a86d0b6",
        "gas": "0x1bb8be",
        "value": "0x0",
        "input": "0x60a0346100f357601f61189b38819003918201601f19168301916001600160401b038311848410176100f7578084926020946040528339810103126100f357516001600160a01b03811681036100f35733156100e0575f8054336001600160a01b0319821681178355604051939290916001600160a01b0316907f8be0079c531659141344cd1fd0a4f28419497f9722a3daafe3b4186f6b6457e09080a360017f9b779b17422d0df92223018b32b4d1fa46e071723d6817e2486d003becc55f005560805261178f908161010c8239608051818181610bcf01526111210152f35b631e4fbdf760e01b5f525f60045260245ffd5b5f80fd5b634e487b7160e01b5f52604160045260245ffdfe60806040526004361015610011575f80fd5b5f5f3560e01c806313c7e33c14611145578063236b721b146110f55780632d2ee26e146110455780632d88af4a14610fb957806338258fbc14610f8a5780633f4ba83a14610f0557806340c10f1914610a3657806341a93d06146109215780635c975abb146108fb578063715018a61461087d578063816f26ae1461076a5780638456cb59146106cc5780638da5cb5b1461069957806393689bfc146105f65780639fd0506d146105c2578063a5546712146103a4578063b5ead63c146102b7578063c05a141214610211578063f2fde38b146101415763fa3b0f30146100f6575f80fd5b3461013e57602060031936011261013e5773ffffffffffffffffffffffffffffffffffffffff60406020928261012a6113b1565b168152600184522054161515604051908152f35b80fd5b503461013e57602060031936011261013e5773ffffffffffffffffffffffffffffffffffffffff6101706113b1565b610178611637565b1680156101e55773ffffffffffffffffffffffffffffffffffffffff8254827fffffffffffffffffffffffff00000000000000000000000000000000000000008216178455167f8be0079c531659141344cd1fd0a4f28419497f9722a3daafe3b4186f6b6457e08380a380f35b6024827f1e4fbdf700000000000000000000000000000000000000000000000000000000815280600452fd5b503461013e57604060031936011261013e5761022b6113b1565b7f6ab7122ba832132fdc06843beb173d48ca7ba72789113ddcc4e31dbc020dab18602073ffffffffffffffffffffffffffffffffffffffff6024359361026f611637565b16928385526001825261029d73ffffffffffffffffffffffffffffffffffffffff6040872054161515611481565b83855260018252806003604087200155604051908152a280f35b503461013e57604060031936011261013e576102d16113b1565b60243590811515908183036103a0577f1c057bc6e5c963fc34fb3f97741e464a3a7f9ff1ca0f97b8b425e0d74d8ccd389161039673ffffffffffffffffffffffffffffffffffffffff602093610325611637565b16948587526001845261035373ffffffffffffffffffffffffffffffffffffffff6040892054161515611481565b8587526001845260026040882001907fffffffffffffffffffffffffffffffffffffffffffffffffffffffffffff00ff61ff00835492151560081b169116179055565b604051908152a280f35b8380fd5b503461013e57604060031936011261013e576103be6113b1565b73ffffffffffffffffffffffffffffffffffffffff6103db6113d4565b916103e4611637565b1673ffffffffffffffffffffffffffffffffffffffff604051927f095ea7b30000000000000000000000000000000000000000000000000000000085521691826004527fffffffffffffffffffffffffffffffffffffffffffffffffffffffffffffffff60245260208460448180865af19060018551148216156105b3575b60405215610493575b7f19a490fe10389a19852ba145f5f2c242d1eb13e72a38c85212b51bb65fb109848380a380f35b6040517f095ea7b3000000000000000000000000000000000000000000000000000000008452826004528360245260208460448180865af190600185511482161561059b575b6040521561054f576040517f095ea7b3000000000000000000000000000000000000000000000000000000008452826004527fffffffffffffffffffffffffffffffffffffffffffffffffffffffffffffffff60245260208460448180865af190600185511482161561057a575b60405261046c575b7f5274afe7000000000000000000000000000000000000000000000000000000008352600452602482fd5b90600181151661059257823b15153d15161690610547565b503d84823e3d90fd5b90600181151661059257823b15153d151616906104d9565b90823b15153d15161690610463565b503461013e578060031936011261013e57602073ffffffffffffffffffffffffffffffffffffffff60025416604051908152f35b503461013e57602060031936011261013e57604060e09173ffffffffffffffffffffffffffffffffffffffff61062a6113b1565b16815260016020522073ffffffffffffffffffffffffffffffffffffffff81541690600181015490600281015460ff60038301549160056004850154940154946040519687526020870152818116604087015260081c1615156060850152608084015260a083015260c0820152f35b503461013e578060031936011261013e5773ffffffffffffffffffffffffffffffffffffffff6020915416604051908152f35b503461013e578060031936011261013e57740100000000000000000000000000000000000000007fffffffffffffffffffffff00ffffffffffffffffffffffffffffffffffffffff60025461073873ffffffffffffffffffffffffffffffffffffffff821633146115c5565b16176002557f62e78cea01bee320cd4e420270b5ea74000d11b0c9f74754ebdbfc544b05a2586020604051338152a180f35b503461013e57602060031936011261013e57604060e09173ffffffffffffffffffffffffffffffffffffffff61079e6113b1565b8260c085516107ac816113f7565b82815282602082015282878201528260608201528260808201528260a082015201521681526001602052206040516107e3816113f7565b73ffffffffffffffffffffffffffffffffffffffff82541691828252600181015460208301908152600282015460ff60408501818316815281606087019360081c16151583526003850154936080870194855260c0600560048801549760a08a01988952015497019687526040519788525160208801525116604086015251151560608501525160808401525160a08301525160c0820152f35b503461013e578060031936011261013e57610896611637565b8073ffffffffffffffffffffffffffffffffffffffff81547fffffffffffffffffffffffff000000000000000000000000000000000000000081168355167f8be0079c531659141344cd1fd0a4f28419497f9722a3daafe3b4186f6b6457e08280a380f35b503461013e578060031936011261013e57602060ff60025460a01c166040519015158152f35b503461013e57606060031936011261013e5761093b6113b1565b6109436113d4565b60443561094e611637565b8373ffffffffffffffffffffffffffffffffffffffff8084169461097484303389611683565b1692833b15610a32576040517ff45346dc00000000000000000000000000000000000000000000000000000000815273ffffffffffffffffffffffffffffffffffffffff91909116600482015260248101839052306044820152818160648183885af18015610a2757610a12575b505060207fcbc4a4091b012bb1329c38bbbb15455f5cac5aa3673da0a7f38cd61a4f49551791604051908152a380f35b81610a1c91611440565b6103a057835f6109e2565b6040513d84823e3d90fd5b5080fd5b5034610ccd576040600319360112610ccd57610a506113b1565b60243560027f9b779b17422d0df92223018b32b4d1fa46e071723d6817e2486d003becc55f005414610edd5760027f9b779b17422d0df92223018b32b4d1fa46e071723d6817e2486d003becc55f005560ff60025460a01c16610e7f578015610e215773ffffffffffffffffffffffffffffffffffffffff821691825f52600160205260405f2090610afa73ffffffffffffffffffffffffffffffffffffffff8354161515611481565b60ff600283015460081c1615610dc357610b1483826114f9565b9160038101549081610cd1575b73ffffffffffffffffffffffffffffffffffffffff9150610b4485303389611683565b5416803b15610ccd576040517ff45346dc00000000000000000000000000000000000000000000000000000000815273ffffffffffffffffffffffffffffffffffffffff929092166004830152602482018490523060448301525f908290606490829084905af18015610cc257610cad575b508373ffffffffffffffffffffffffffffffffffffffff7f000000000000000000000000000000000000000000000000000000000000000016803b15610a32578180916044604051809481937f40c10f190000000000000000000000000000000000000000000000000000000083523360048401528860248401525af18015610a2757610c98575b505060405191825260208201527f4d5c08516945a75e610fdedf646e3502b4de1becb5bf7cd6fb6d4f0233125e1960403392a360017f9b779b17422d0df92223018b32b4d1fa46e071723d6817e2486d003becc55f005580f35b81610ca291611440565b6103a057835f610c3e565b610cba9194505f90611440565b5f925f610bb6565b6040513d5f823e3d90fd5b5f80fd5b600581018054620151808101809111610d9657421015610d87575b5060048101805492610cfe868561162a565b11610d2957610d228573ffffffffffffffffffffffffffffffffffffffff9461162a565b9055610b21565b60646040517f08c379a000000000000000000000000000000000000000000000000000000000815260206004820152601960248201527f4461696c79206d696e74206c696d6974206578636565646564000000000000006044820152fd5b5f60048301554290555f610cec565b7f4e487b71000000000000000000000000000000000000000000000000000000005f52601160045260245ffd5b60646040517f08c379a000000000000000000000000000000000000000000000000000000000815260206004820152601c60248201527f537461626c65636f696e206d696e74696e6720697320706175736564000000006044820152fd5b60646040517f08c379a000000000000000000000000000000000000000000000000000000000815260206004820152602060248201527f416d6f756e74206d7573742062652067726561746572207468616e207a65726f6044820152fd5b60646040517f08c379a000000000000000000000000000000000000000000000000000000000815260206004820152601260248201527f436f6e74726163742069732070617573656400000000000000000000000000006044820152fd5b7f3ee5aeb5000000000000000000000000000000000000000000000000000000005f5260045ffd5b34610ccd575f600319360112610ccd577fffffffffffffffffffffff00ffffffffffffffffffffffffffffffffffffffff600254610f5a73ffffffffffffffffffffffffffffffffffffffff821633146115c5565b166002557f5db9ee0a495bf2e6ff9c91a7834c1ba4fdd244a5e8aa4e537bd38aeae4b073aa6020604051338152a1005b34610ccd576040600319360112610ccd576020610fb1610fa86113b1565b602435906114f9565b604051908152f35b34610ccd576020600319360112610ccd57610fd26113b1565b610fda611637565b73ffffffffffffffffffffffffffffffffffffffff80600254921691827fffffffffffffffffffffffff0000000000000000000000000000000000000000821617600255167f95bb211a5a393c4d30c3edc9a745825fba4e6ad3e3bb949e6bf8ccdfe431a8115f80a3005b34610ccd576040600319360112610ccd5761105e6113b1565b7fec2da98aafe0e2f383f10a3cd3c12fc4b0b03f86d8be3ab84ee58adb9240a727604073ffffffffffffffffffffffffffffffffffffffff602435936110a2611637565b1692835f5260016020526110d073ffffffffffffffffffffffffffffffffffffffff835f2054161515611481565b5f848152600160208181529184902001805490839055835190815290810191909152a2005b34610ccd575f600319360112610ccd57602060405173ffffffffffffffffffffffffffffffffffffffff7f0000000000000000000000000000000000000000000000000000000000000000168152f35b34610ccd576080600319360112610ccd5761115e6113b1565b6111666113d4565b6044356064359260ff8416809403610ccd5773ffffffffffffffffffffffffffffffffffffffff90611196611637565b169182156113535773ffffffffffffffffffffffffffffffffffffffff169283156112f5577fc3a31eaea4c0b528b360d168d8797d781302b685df4bdb2b4fdfae95928063999160409182516111eb816113f7565b8681526005602082018481528583018481526060840190600182526112d860808601915f835260a08701935f855260c08801955f87528d5f52600160205273ffffffffffffffffffffffffffffffffffffffff8c5f209951167fffffffffffffffffffffffff00000000000000000000000000000000000000008a541617895551600189015560ff600289019251167fffffffffffffffffffffffffffffffffffffffffffffffffffffffffffffff008354161782555115157fffffffffffffffffffffffffffffffffffffffffffffffffffffffffffff00ff61ff00835492151560081b169116179055565b5160038501555160048401555191015582519182526020820152a3005b60646040517f08c379a000000000000000000000000000000000000000000000000000000000815260206004820152601b60248201527f5a65726f2061646472657373207969656c6420737472617465677900000000006044820152fd5b60646040517f08c379a000000000000000000000000000000000000000000000000000000000815260206004820152601760248201527f5a65726f206164647265737320737461626c65636f696e0000000000000000006044820152fd5b6004359073ffffffffffffffffffffffffffffffffffffffff82168203610ccd57565b6024359073ffffffffffffffffffffffffffffffffffffffff82168203610ccd57565b60e0810190811067ffffffffffffffff82111761141357604052565b7f4e487b71000000000000000000000000000000000000000000000000000000005f52604160045260245ffd5b90601f7fffffffffffffffffffffffffffffffffffffffffffffffffffffffffffffffe0910116810190811067ffffffffffffffff82111761141357604052565b1561148857565b60646040517f08c379a000000000000000000000000000000000000000000000000000000000815260206004820152601960248201527f537461626c65636f696e206e6f742072656769737465726564000000000000006044820152fd5b81810292918115918404141715610d9657565b73ffffffffffffffffffffffffffffffffffffffff165f52600160205260405f209060405191611528836113f7565b73ffffffffffffffffffffffffffffffffffffffff81541683526001810154926020810193845260c0600560028401549360ff8086169586604087015260081c161515606085015260038101546080850152600481015460a0850152015491015260120360ff8111610d965760ff1691604d8311610d96576115bc6115c192670de0b6b3a764000094600a0a9251906114e6565b6114e6565b0490565b156115cc57565b60646040517f08c379a000000000000000000000000000000000000000000000000000000000815260206004820152600b60248201527f4f6e6c79207061757365720000000000000000000000000000000000000000006044820152fd5b91908201809211610d9657565b73ffffffffffffffffffffffffffffffffffffffff5f5416330361165757565b7f118cdaa7000000000000000000000000000000000000000000000000000000005f523360045260245ffd5b92909173ffffffffffffffffffffffffffffffffffffffff9081604051947f23b872dd000000000000000000000000000000000000000000000000000000005f52166004521660245260445260205f60648180865af19060015f5114821615611738575b6040525f606052156116f65750565b73ffffffffffffffffffffffffffffffffffffffff907f5274afe7000000000000000000000000000000000000000000000000000000005f521660045260245ffd5b90600181151661175057823b15153d151616906116e7565b503d5f823e3d90fdfea26469706673582212204424d1cfbcbabcd8924a65b990b45f495295d60b41e04171c5adf3ae8a1c1e8564736f6c634300081e0033000000000000000000000000f3b5b661b92b75c71fa5aba8fd95d7514a9cd605",
        "nonce": "0x32b",
        "chainId": "0x1"
      },
      "additionalContracts": [],
      "isFixedGasLimit": false
    },
    {
      "hash": "0xace5b0c8101a4e1efedd28997597edada3f9d5d870e34e86fb8c99c7ce3a4e93",
      "transactionType": "CALL",
      "contractName": "ERC4626YieldStrategy",
      "contractAddress": "0x1760e05356ec1fbba159c730781dcfb9920524e2",
      "function": "setClient(address,bool)",
      "arguments": [
        "0xbce8ABC09BaEDCabE93419bF875f6186e182079A",
        "true"
      ],
      "transaction": {
        "from": "0xcad1a7864a108dbff67f4b8af71fab0c7a86d0b6",
        "to": "0x1760e05356ec1fbba159c730781dcfb9920524e2",
        "gas": "0x2111c",
        "value": "0x0",
        "input": "0x40cf018e000000000000000000000000bce8abc09baedcabe93419bf875f6186e182079a0000000000000000000000000000000000000000000000000000000000000001",
        "nonce": "0x32c",
        "chainId": "0x1"
      },
      "additionalContracts": [],
      "isFixedGasLimit": false
    },
    {
      "hash": "0x1c23bda1f1c822879b87fe723b9cf59c7cb6157c7e3673c5ca10fd1801cb98ac",
      "transactionType": "CALL",
      "contractName": "ERC4626YieldStrategy",
      "contractAddress": "0x1760e05356ec1fbba159c730781dcfb9920524e2",
      "function": "setClient(address,bool)",
      "arguments": [
        "0x94855ACA13952D81507C92D3CdBb2e25D3bbE60C",
        "true"
      ],
      "transaction": {
        "from": "0xcad1a7864a108dbff67f4b8af71fab0c7a86d0b6",
        "to": "0x1760e05356ec1fbba159c730781dcfb9920524e2",
        "gas": "0x19772",
        "value": "0x0",
        "input": "0x40cf018e00000000000000000000000094855aca13952d81507c92d3cdbb2e25d3bbe60c0000000000000000000000000000000000000000000000000000000000000001",
        "nonce": "0x32d",
        "chainId": "0x1"
      },
      "additionalContracts": [],
      "isFixedGasLimit": false
    },
    {
      "hash": "0xcc8f1f4a24a06cd5e82f09b58524ee9fbd8b382c8cae52c3e65074a64f720f64",
      "transactionType": "CALL",
      "contractName": "ERC4626YieldStrategy",
      "contractAddress": "0x1760e05356ec1fbba159c730781dcfb9920524e2",
      "function": "setWithdrawer(address,bool)",
      "arguments": [
        "0x3C690EC3B2524104dE269bf0F9baa7f045eF8270",
        "true"
      ],
      "transaction": {
        "from": "0xcad1a7864a108dbff67f4b8af71fab0c7a86d0b6",
        "to": "0x1760e05356ec1fbba159c730781dcfb9920524e2",
        "gas": "0x103c0",
        "value": "0x0",
        "input": "0x82c3b9650000000000000000000000003c690ec3b2524104de269bf0f9baa7f045ef82700000000000000000000000000000000000000000000000000000000000000001",
        "nonce": "0x32e",
        "chainId": "0x1"
      },
      "additionalContracts": [],
      "isFixedGasLimit": false
    },
    {
      "hash": "0x9541b4ff44a8f9d1b7bc2acae2b667b10d87cc0b19195b1b53e4209a1cdffcbc",
      "transactionType": "CALL",
      "contractName": "ERC4626YieldStrategy",
      "contractAddress": "0xafdf8dea96a0f37aae4869f813901bf73a3eab83",
      "function": "setClient(address,bool)",
      "arguments": [
        "0xbce8ABC09BaEDCabE93419bF875f6186e182079A",
        "true"
      ],
      "transaction": {
        "from": "0xcad1a7864a108dbff67f4b8af71fab0c7a86d0b6",
        "to": "0xafdf8dea96a0f37aae4869f813901bf73a3eab83",
        "gas": "0x2111c",
        "value": "0x0",
        "input": "0x40cf018e000000000000000000000000bce8abc09baedcabe93419bf875f6186e182079a0000000000000000000000000000000000000000000000000000000000000001",
        "nonce": "0x32f",
        "chainId": "0x1"
      },
      "additionalContracts": [],
      "isFixedGasLimit": false
    },
    {
      "hash": "0x1820418b6f5d4bcd0dc17ee9304214e2a7e31bf45d5cea6902de288e86e666bd",
      "transactionType": "CALL",
      "contractName": "ERC4626YieldStrategy",
      "contractAddress": "0xafdf8dea96a0f37aae4869f813901bf73a3eab83",
      "function": "setClient(address,bool)",
      "arguments": [
        "0x94855ACA13952D81507C92D3CdBb2e25D3bbE60C",
        "true"
      ],
      "transaction": {
        "from": "0xcad1a7864a108dbff67f4b8af71fab0c7a86d0b6",
        "to": "0xafdf8dea96a0f37aae4869f813901bf73a3eab83",
        "gas": "0x19772",
        "value": "0x0",
        "input": "0x40cf018e00000000000000000000000094855aca13952d81507c92d3cdbb2e25d3bbe60c0000000000000000000000000000000000000000000000000000000000000001",
        "nonce": "0x330",
        "chainId": "0x1"
      },
      "additionalContracts": [],
      "isFixedGasLimit": false
    },
    {
      "hash": "0x5e20f3724b7cbf2aa85e172d1db893d2bc5747d583fb98bcc54f7f7b5b62864e",
      "transactionType": "CALL",
      "contractName": "ERC4626YieldStrategy",
      "contractAddress": "0xafdf8dea96a0f37aae4869f813901bf73a3eab83",
      "function": "setWithdrawer(address,bool)",
      "arguments": [
        "0x3C690EC3B2524104dE269bf0F9baa7f045eF8270",
        "true"
      ],
      "transaction": {
        "from": "0xcad1a7864a108dbff67f4b8af71fab0c7a86d0b6",
        "to": "0xafdf8dea96a0f37aae4869f813901bf73a3eab83",
        "gas": "0x103c0",
        "value": "0x0",
        "input": "0x82c3b9650000000000000000000000003c690ec3b2524104de269bf0f9baa7f045ef82700000000000000000000000000000000000000000000000000000000000000001",
        "nonce": "0x331",
        "chainId": "0x1"
      },
      "additionalContracts": [],
      "isFixedGasLimit": false
    },
    {
      "hash": "0xd1202b01fd18c88dbb4d688847ef8424cec924fed726d86ccb561a1bea4189c6",
      "transactionType": "CALL",
      "contractName": "ERC4626YieldStrategy",
      "contractAddress": "0x1760e05356ec1fbba159c730781dcfb9920524e2",
      "function": "setSetAsideBufferRecipient(address)",
      "arguments": [
        "0xbce8ABC09BaEDCabE93419bF875f6186e182079A"
      ],
      "transaction": {
        "from": "0xcad1a7864a108dbff67f4b8af71fab0c7a86d0b6",
        "to": "0x1760e05356ec1fbba159c730781dcfb9920524e2",
        "gas": "0x10075",
        "value": "0x0",
        "input": "0x1819ac8b000000000000000000000000bce8abc09baedcabe93419bf875f6186e182079a",
        "nonce": "0x332",
        "chainId": "0x1"
      },
      "additionalContracts": [],
      "isFixedGasLimit": false
    },
    {
      "hash": "0x3ec7dcd4f87b2cdf016e4fd05d73a67f413311e07a998292fe2a82ea2992f3d0",
      "transactionType": "CALL",
      "contractName": "ERC4626YieldStrategy",
      "contractAddress": "0x1760e05356ec1fbba159c730781dcfb9920524e2",
      "function": "setSetAsideBuffer(address,uint256)",
      "arguments": [
        "0xbce8ABC09BaEDCabE93419bF875f6186e182079A",
        "10"
      ],
      "transaction": {
        "from": "0xcad1a7864a108dbff67f4b8af71fab0c7a86d0b6",
        "to": "0x1760e05356ec1fbba159c730781dcfb9920524e2",
        "gas": "0x1062d",
        "value": "0x0",
        "input": "0x9c118c95000000000000000000000000bce8abc09baedcabe93419bf875f6186e182079a000000000000000000000000000000000000000000000000000000000000000a",
        "nonce": "0x333",
        "chainId": "0x1"
      },
      "additionalContracts": [],
      "isFixedGasLimit": false
    },
    {
      "hash": "0x2a133e07325fbd7137a29cd53963e3e59566171027343b263bd70642faa5f473",
      "transactionType": "CALL",
      "contractName": "ERC4626YieldStrategy",
      "contractAddress": "0xafdf8dea96a0f37aae4869f813901bf73a3eab83",
      "function": "setSetAsideBufferRecipient(address)",
      "arguments": [
        "0xbce8ABC09BaEDCabE93419bF875f6186e182079A"
      ],
      "transaction": {
        "from": "0xcad1a7864a108dbff67f4b8af71fab0c7a86d0b6",
        "to": "0xafdf8dea96a0f37aae4869f813901bf73a3eab83",
        "gas": "0x10075",
        "value": "0x0",
        "input": "0x1819ac8b000000000000000000000000bce8abc09baedcabe93419bf875f6186e182079a",
        "nonce": "0x334",
        "chainId": "0x1"
      },
      "additionalContracts": [],
      "isFixedGasLimit": false
    },
    {
      "hash": "0xe67a615ec013852526e61265c4312d23228451849a43abf6e7bea6ee54de8003",
      "transactionType": "CALL",
      "contractName": "ERC4626YieldStrategy",
      "contractAddress": "0xafdf8dea96a0f37aae4869f813901bf73a3eab83",
      "function": "setSetAsideBuffer(address,uint256)",
      "arguments": [
        "0xbce8ABC09BaEDCabE93419bF875f6186e182079A",
        "10"
      ],
      "transaction": {
        "from": "0xcad1a7864a108dbff67f4b8af71fab0c7a86d0b6",
        "to": "0xafdf8dea96a0f37aae4869f813901bf73a3eab83",
        "gas": "0x1062d",
        "value": "0x0",
        "input": "0x9c118c95000000000000000000000000bce8abc09baedcabe93419bf875f6186e182079a000000000000000000000000000000000000000000000000000000000000000a",
        "nonce": "0x335",
        "chainId": "0x1"
      },
      "additionalContracts": [],
      "isFixedGasLimit": false
    },
    {
      "hash": "0x9b0b29155269d8a522850918829ea14fce325539c97f850d88e8d0b63a335422",
      "transactionType": "CALL",
      "contractName": "ERC4626YieldStrategy",
      "contractAddress": "0x1760e05356ec1fbba159c730781dcfb9920524e2",
      "function": "setPauser(address)",
      "arguments": [
        "0x7c5A8EeF1d836450C019FB036453ac6eC97885a3"
      ],
      "transaction": {
        "from": "0xcad1a7864a108dbff67f4b8af71fab0c7a86d0b6",
        "to": "0x1760e05356ec1fbba159c730781dcfb9920524e2",
        "gas": "0x10085",
        "value": "0x0",
        "input": "0x2d88af4a0000000000000000000000007c5a8eef1d836450c019fb036453ac6ec97885a3",
        "nonce": "0x336",
        "chainId": "0x1"
      },
      "additionalContracts": [],
      "isFixedGasLimit": false
    },
    {
      "hash": "0x6519deb7f8a185cd9088e2337aa7a621751d028723b6e3d7914d8f9a9d6599bd",
      "transactionType": "CALL",
      "contractName": "ERC4626YieldStrategy",
      "contractAddress": "0xafdf8dea96a0f37aae4869f813901bf73a3eab83",
      "function": "setPauser(address)",
      "arguments": [
        "0x7c5A8EeF1d836450C019FB036453ac6eC97885a3"
      ],
      "transaction": {
        "from": "0xcad1a7864a108dbff67f4b8af71fab0c7a86d0b6",
        "to": "0xafdf8dea96a0f37aae4869f813901bf73a3eab83",
        "gas": "0x10085",
        "value": "0x0",
        "input": "0x2d88af4a0000000000000000000000007c5a8eef1d836450c019fb036453ac6ec97885a3",
        "nonce": "0x337",
        "chainId": "0x1"
      },
      "additionalContracts": [],
      "isFixedGasLimit": false
    },
    {
      "hash": "0x4684778606759e137ea3ab83df25a289920128a43887c14f142844d17d371eaf",
      "transactionType": "CALL",
      "contractName": null,
      "contractAddress": "0x7c5a8eef1d836450c019fb036453ac6ec97885a3",
      "function": "register(address)",
      "arguments": [
        "0x1760E05356Ec1FBBA159C730781dCfB9920524e2"
      ],
      "transaction": {
        "from": "0xcad1a7864a108dbff67f4b8af71fab0c7a86d0b6",
        "to": "0x7c5a8eef1d836450c019fb036453ac6ec97885a3",
        "gas": "0x22f85",
        "value": "0x0",
        "input": "0x4420e4860000000000000000000000001760e05356ec1fbba159c730781dcfb9920524e2",
        "nonce": "0x338",
        "chainId": "0x1"
      },
      "additionalContracts": [],
      "isFixedGasLimit": false
    },
    {
      "hash": "0x80247ed9de7ecd9777b1791400a0734faa2293dc4b230e30f67f215c5fdac5cd",
      "transactionType": "CALL",
      "contractName": null,
      "contractAddress": "0x7c5a8eef1d836450c019fb036453ac6ec97885a3",
      "function": "register(address)",
      "arguments": [
        "0xaFDf8DeA96a0F37Aae4869f813901bf73a3eAB83"
      ],
      "transaction": {
        "from": "0xcad1a7864a108dbff67f4b8af71fab0c7a86d0b6",
        "to": "0x7c5a8eef1d836450c019fb036453ac6ec97885a3",
        "gas": "0x22f85",
        "value": "0x0",
        "input": "0x4420e486000000000000000000000000afdf8dea96a0f37aae4869f813901bf73a3eab83",
        "nonce": "0x339",
        "chainId": "0x1"
      },
      "additionalContracts": [],
      "isFixedGasLimit": false
    },
    {
      "hash": "0xde0bdd6fc0031dd348c3c7d8d9f78c531357b3029646aa4d1376f2092d5ebae1",
      "transactionType": "CALL",
      "contractName": null,
      "contractAddress": "0xac2e5936eca286ec364d4d5bcca33145fbe57f95",
      "function": "setClient(address,bool)",
      "arguments": [
        "0x94855ACA13952D81507C92D3CdBb2e25D3bbE60C",
        "true"
      ],
      "transaction": {
        "from": "0xcad1a7864a108dbff67f4b8af71fab0c7a86d0b6",
        "to": "0xac2e5936eca286ec364d4d5bcca33145fbe57f95",
        "gas": "0x1af8b",
        "value": "0x0",
        "input": "0x40cf018e00000000000000000000000094855aca13952d81507c92d3cdbb2e25d3bbe60c0000000000000000000000000000000000000000000000000000000000000001",
        "nonce": "0x33a",
        "chainId": "0x1"
      },
      "additionalContracts": [],
      "isFixedGasLimit": false
    },
    {
      "hash": "0x5d31031ba2754647682ef14c4111340e958acb03d762c733256f0473688fb6c9",
      "transactionType": "CALL",
      "contractName": "PhusdStableMinter",
      "contractAddress": "0x94855aca13952d81507c92d3cdbb2e25d3bbe60c",
      "function": "registerStablecoin(address,address,uint256,uint8)",
      "arguments": [
        "0x4c9EDD5852cd905f086C759E8383e09bff1E68B3",
        "0xaC2e5936Eca286eC364d4D5Bcca33145fBe57f95",
        "1000000000000000000",
        "18"
      ],
      "transaction": {
        "from": "0xcad1a7864a108dbff67f4b8af71fab0c7a86d0b6",
        "to": "0x94855aca13952d81507c92d3cdbb2e25d3bbe60c",
        "gas": "0x23ccd",
        "value": "0x0",
        "input": "0x13c7e33c0000000000000000000000004c9edd5852cd905f086c759e8383e09bff1e68b3000000000000000000000000ac2e5936eca286ec364d4d5bcca33145fbe57f950000000000000000000000000000000000000000000000000de0b6b3a76400000000000000000000000000000000000000000000000000000000000000000012",
        "nonce": "0x33b",
        "chainId": "0x1"
      },
      "additionalContracts": [],
      "isFixedGasLimit": false
    },
    {
      "hash": "0xe1323f884525722b124ef1ee71bad6a3d8a0f0d32e3447a6ef69e246c06454c2",
      "transactionType": "CALL",
      "contractName": "PhusdStableMinter",
      "contractAddress": "0x94855aca13952d81507c92d3cdbb2e25d3bbe60c",
      "function": "approveYS(address,address)",
      "arguments": [
        "0x4c9EDD5852cd905f086C759E8383e09bff1E68B3",
        "0xaC2e5936Eca286eC364d4D5Bcca33145fBe57f95"
      ],
      "transaction": {
        "from": "0xcad1a7864a108dbff67f4b8af71fab0c7a86d0b6",
        "to": "0x94855aca13952d81507c92d3cdbb2e25d3bbe60c",
        "gas": "0x1203f",
        "value": "0x0",
        "input": "0xa55467120000000000000000000000004c9edd5852cd905f086c759e8383e09bff1e68b3000000000000000000000000ac2e5936eca286ec364d4d5bcca33145fbe57f95",
        "nonce": "0x33c",
        "chainId": "0x1"
      },
      "additionalContracts": [],
      "isFixedGasLimit": false
    },
    {
      "hash": "0xca4e71f6457c9d1e087813110c06a45581c10fd0f66f583078501e9e26bdf35a",
      "transactionType": "CALL",
      "contractName": "PhusdStableMinter",
      "contractAddress": "0x94855aca13952d81507c92d3cdbb2e25d3bbe60c",
      "function": "setMaxMintPerDay(address,uint256)",
      "arguments": [
        "0x4c9EDD5852cd905f086C759E8383e09bff1E68B3",
        "4000000000000000000000"
      ],
      "transaction": {
        "from": "0xcad1a7864a108dbff67f4b8af71fab0c7a86d0b6",
        "to": "0x94855aca13952d81507c92d3cdbb2e25d3bbe60c",
        "gas": "0x11ea7",
        "value": "0x0",
        "input": "0xc05a14120000000000000000000000004c9edd5852cd905f086c759e8383e09bff1e68b30000000000000000000000000000000000000000000000d8d726b7177a800000",
        "nonce": "0x33d",
        "chainId": "0x1"
      },
      "additionalContracts": [],
      "isFixedGasLimit": false
    },
    {
      "hash": "0x8fbd2ddeb6fe1a7363d40f43dcf1a7023be4a818598865e3cff4fc8f348070fe",
      "transactionType": "CALL",
      "contractName": "PhusdStableMinter",
      "contractAddress": "0x94855aca13952d81507c92d3cdbb2e25d3bbe60c",
      "function": "registerStablecoin(address,address,uint256,uint8)",
      "arguments": [
        "0x865377367054516e17014CcdED1e7d814EDC9ce4",
        "0x1760E05356Ec1FBBA159C730781dCfB9920524e2",
        "1000000000000000000",
        "18"
      ],
      "transaction": {
        "from": "0xcad1a7864a108dbff67f4b8af71fab0c7a86d0b6",
        "to": "0x94855aca13952d81507c92d3cdbb2e25d3bbe60c",
        "gas": "0x23ccd",
        "value": "0x0",
        "input": "0x13c7e33c000000000000000000000000865377367054516e17014ccded1e7d814edc9ce40000000000000000000000001760e05356ec1fbba159c730781dcfb9920524e20000000000000000000000000000000000000000000000000de0b6b3a76400000000000000000000000000000000000000000000000000000000000000000012",
        "nonce": "0x33e",
        "chainId": "0x1"
      },
      "additionalContracts": [],
      "isFixedGasLimit": false
    },
    {
      "hash": "0xa482cc400fed421da80c8c9537330a1307344e623427617854e26a75d1a267da",
      "transactionType": "CALL",
      "contractName": "PhusdStableMinter",
      "contractAddress": "0x94855aca13952d81507c92d3cdbb2e25d3bbe60c",
      "function": "approveYS(address,address)",
      "arguments": [
        "0x865377367054516e17014CcdED1e7d814EDC9ce4",
        "0x1760E05356Ec1FBBA159C730781dCfB9920524e2"
      ],
      "transaction": {
        "from": "0xcad1a7864a108dbff67f4b8af71fab0c7a86d0b6",
        "to": "0x94855aca13952d81507c92d3cdbb2e25d3bbe60c",
        "gas": "0x11f41",
        "value": "0x0",
        "input": "0xa5546712000000000000000000000000865377367054516e17014ccded1e7d814edc9ce40000000000000000000000001760e05356ec1fbba159c730781dcfb9920524e2",
        "nonce": "0x33f",
        "chainId": "0x1"
      },
      "additionalContracts": [],
      "isFixedGasLimit": false
    },
    {
      "hash": "0x807cf512173fdbe8813ed2d89738933ae38a53ef2cd28f66154b0c9cacb42346",
      "transactionType": "CALL",
      "contractName": "PhusdStableMinter",
      "contractAddress": "0x94855aca13952d81507c92d3cdbb2e25d3bbe60c",
      "function": "setMaxMintPerDay(address,uint256)",
      "arguments": [
        "0x865377367054516e17014CcdED1e7d814EDC9ce4",
        "4000000000000000000000"
      ],
      "transaction": {
        "from": "0xcad1a7864a108dbff67f4b8af71fab0c7a86d0b6",
        "to": "0x94855aca13952d81507c92d3cdbb2e25d3bbe60c",
        "gas": "0x11ea7",
        "value": "0x0",
        "input": "0xc05a1412000000000000000000000000865377367054516e17014ccded1e7d814edc9ce40000000000000000000000000000000000000000000000d8d726b7177a800000",
        "nonce": "0x340",
        "chainId": "0x1"
      },
      "additionalContracts": [],
      "isFixedGasLimit": false
    },
    {
      "hash": "0x2eefe5d7ab3c37d11f5b5b5cbfa3ee9833568184df547aa43a3ad6c56ab1c53a",
      "transactionType": "CALL",
      "contractName": "PhusdStableMinter",
      "contractAddress": "0x94855aca13952d81507c92d3cdbb2e25d3bbe60c",
      "function": "registerStablecoin(address,address,uint256,uint8)",
      "arguments": [
        "0xA0b86991c6218b36c1d19D4a2e9Eb0cE3606eB48",
        "0xaFDf8DeA96a0F37Aae4869f813901bf73a3eAB83",
        "1000000000000000000",
        "6"
      ],
      "transaction": {
        "from": "0xcad1a7864a108dbff67f4b8af71fab0c7a86d0b6",
        "to": "0x94855aca13952d81507c92d3cdbb2e25d3bbe60c",
        "gas": "0x23ccd",
        "value": "0x0",
        "input": "0x13c7e33c000000000000000000000000a0b86991c6218b36c1d19d4a2e9eb0ce3606eb48000000000000000000000000afdf8dea96a0f37aae4869f813901bf73a3eab830000000000000000000000000000000000000000000000000de0b6b3a76400000000000000000000000000000000000000000000000000000000000000000006",
        "nonce": "0x341",
        "chainId": "0x1"
      },
      "additionalContracts": [],
      "isFixedGasLimit": false
    },
    {
      "hash": "0x3a678eeb10e1f9a82d98cebf8c5c1c9dfe0674d8f883fb756b8651d5566c7aef",
      "transactionType": "CALL",
      "contractName": "PhusdStableMinter",
      "contractAddress": "0x94855aca13952d81507c92d3cdbb2e25d3bbe60c",
      "function": "approveYS(address,address)",
      "arguments": [
        "0xA0b86991c6218b36c1d19D4a2e9Eb0cE3606eB48",
        "0xaFDf8DeA96a0F37Aae4869f813901bf73a3eAB83"
      ],
      "transaction": {
        "from": "0xcad1a7864a108dbff67f4b8af71fab0c7a86d0b6",
        "to": "0x94855aca13952d81507c92d3cdbb2e25d3bbe60c",
        "gas": "0x16668",
        "value": "0x0",
        "input": "0xa5546712000000000000000000000000a0b86991c6218b36c1d19d4a2e9eb0ce3606eb48000000000000000000000000afdf8dea96a0f37aae4869f813901bf73a3eab83",
        "nonce": "0x342",
        "chainId": "0x1"
      },
      "additionalContracts": [],
      "isFixedGasLimit": false
    },
    {
      "hash": "0xf95630c75570333e4264d63230e00f34acf9f91b3f8e2ebb1256c6c5268ca046",
      "transactionType": "CALL",
      "contractName": "PhusdStableMinter",
      "contractAddress": "0x94855aca13952d81507c92d3cdbb2e25d3bbe60c",
      "function": "setMaxMintPerDay(address,uint256)",
      "arguments": [
        "0xA0b86991c6218b36c1d19D4a2e9Eb0cE3606eB48",
        "4000000000000000000000"
      ],
      "transaction": {
        "from": "0xcad1a7864a108dbff67f4b8af71fab0c7a86d0b6",
        "to": "0x94855aca13952d81507c92d3cdbb2e25d3bbe60c",
        "gas": "0x11ea7",
        "value": "0x0",
        "input": "0xc05a1412000000000000000000000000a0b86991c6218b36c1d19d4a2e9eb0ce3606eb480000000000000000000000000000000000000000000000d8d726b7177a800000",
        "nonce": "0x343",
        "chainId": "0x1"
      },
      "additionalContracts": [],
      "isFixedGasLimit": false
    },
    {
      "hash": "0x158f56eadbe3adcdc0fd5c07c808065ff5a2c49a578cd01f5a68172af52e9617",
      "transactionType": "CALL",
      "contractName": "PhusdStableMinter",
      "contractAddress": "0x94855aca13952d81507c92d3cdbb2e25d3bbe60c",
      "function": "setPauser(address)",
      "arguments": [
        "0x7c5A8EeF1d836450C019FB036453ac6eC97885a3"
      ],
      "transaction": {
        "from": "0xcad1a7864a108dbff67f4b8af71fab0c7a86d0b6",
        "to": "0x94855aca13952d81507c92d3cdbb2e25d3bbe60c",
        "gas": "0x1002d",
        "value": "0x0",
        "input": "0x2d88af4a0000000000000000000000007c5a8eef1d836450c019fb036453ac6ec97885a3",
        "nonce": "0x344",
        "chainId": "0x1"
      },
      "additionalContracts": [],
      "isFixedGasLimit": false
    },
    {
      "hash": "0x5a444bf592b5264fab929ed43d46c21edb8896ab0ad6bfac32b0facebfe6ef21",
      "transactionType": "CALL",
      "contractName": null,
      "contractAddress": "0x7c5a8eef1d836450c019fb036453ac6ec97885a3",
      "function": "register(address)",
      "arguments": [
        "0x94855ACA13952D81507C92D3CdBb2e25D3bbE60C"
      ],
      "transaction": {
        "from": "0xcad1a7864a108dbff67f4b8af71fab0c7a86d0b6",
        "to": "0x7c5a8eef1d836450c019fb036453ac6ec97885a3",
        "gas": "0x22d8a",
        "value": "0x0",
        "input": "0x4420e48600000000000000000000000094855aca13952d81507c92d3cdbb2e25d3bbe60c",
        "nonce": "0x345",
        "chainId": "0x1"
      },
      "additionalContracts": [],
      "isFixedGasLimit": false
    },
    {
      "hash": "0x51da9bff2808f200dc9ea41d8963134519104dc3814de98fe2ab4a5c33abb317",
      "transactionType": "CALL",
      "contractName": null,
      "contractAddress": "0xf3b5b661b92b75c71fa5aba8fd95d7514a9cd605",
      "function": "setMinter(address,bool)",
      "arguments": [
        "0x435B0A1884bd0fb5667677C9eb0e59425b1477E5",
        "false"
      ],
      "transaction": {
        "from": "0xcad1a7864a108dbff67f4b8af71fab0c7a86d0b6",
        "to": "0xf3b5b661b92b75c71fa5aba8fd95d7514a9cd605",
        "gas": "0xb8ec",
        "value": "0x0",
        "input": "0xcf456ae7000000000000000000000000435b0a1884bd0fb5667677c9eb0e59425b1477e50000000000000000000000000000000000000000000000000000000000000000",
        "nonce": "0x346",
        "chainId": "0x1"
      },
      "additionalContracts": [],
      "isFixedGasLimit": false
    },
    {
      "hash": "0xbba082a47a9c9b4d5d7587460ac92c8030c6a212ac1f63afb890ffb214a5aae0",
      "transactionType": "CALL",
      "contractName": null,
      "contractAddress": "0xf3b5b661b92b75c71fa5aba8fd95d7514a9cd605",
      "function": "setMinter(address,bool)",
      "arguments": [
        "0x94855ACA13952D81507C92D3CdBb2e25D3bbE60C",
        "true"
      ],
      "transaction": {
        "from": "0xcad1a7864a108dbff67f4b8af71fab0c7a86d0b6",
        "to": "0xf3b5b661b92b75c71fa5aba8fd95d7514a9cd605",
        "gas": "0x1361b",
        "value": "0x0",
        "input": "0xcf456ae700000000000000000000000094855aca13952d81507c92d3cdbb2e25d3bbe60c0000000000000000000000000000000000000000000000000000000000000001",
        "nonce": "0x347",
        "chainId": "0x1"
      },
      "additionalContracts": [],
      "isFixedGasLimit": false
    },
    {
      "hash": "0x5f94cee740b5a71f63d48f25cfc7d2e8d9324d1e9c07949bdc1b3e8833d56b4f",
      "transactionType": "CALL",
      "contractName": null,
      "contractAddress": "0xbce8abc09baedcabe93419bf875f6186e182079a",
      "function": "setMigrator(address)",
      "arguments": [
        "0x17DC492AfA0C25fb7293edc5c00c7d4d2FCcb342"
      ],
      "transaction": {
        "from": "0xcad1a7864a108dbff67f4b8af71fab0c7a86d0b6",
        "to": "0xbce8abc09baedcabe93419bf875f6186e182079a",
        "gas": "0xfea7",
        "value": "0x0",
        "input": "0x23cf311800000000000000000000000017dc492afa0c25fb7293edc5c00c7d4d2fccb342",
        "nonce": "0x348",
        "chainId": "0x1"
      },
      "additionalContracts": [],
      "isFixedGasLimit": false
    }
  ],
  "receipts": [
    {
      "status": "0x1",
      "cumulativeGasUsed": "0x1c2b39b",
      "logs": [
        {
          "address": "0x17dc492afa0c25fb7293edc5c00c7d4d2fccb342",
          "topics": [
            "0x8be0079c531659141344cd1fd0a4f28419497f9722a3daafe3b4186f6b6457e0",
            "0x0000000000000000000000000000000000000000000000000000000000000000",
            "0x000000000000000000000000cad1a7864a108dbff67f4b8af71fab0c7a86d0b6"
          ],
          "data": "0x",
          "blockHash": "0x9442d8d02da372c52bcdf90f54c71dfa911bcea24bd1bfec7cdeef4185b91da2",
          "blockNumber": "0x182763b",
          "blockTimestamp": "0x6a30b827",
          "transactionHash": "0x39eb4e8efd99a363c9ee551512e8fc8f058f6ee9f39cf7d09ef54825552e85e3",
          "transactionIndex": "0x128",
          "logIndex": "0x24b",
          "removed": false
        }
      ],
      "logsBloom": "0x00000000000000000020000000000000000000000000000000800000000000000000000000000000000000400000200000000000000000000000000000000000000000000000000000000000000000000001000000000000000000000000000000000000020000000000000000000800800000000000000000000000000000400000000000000000000000000000000000000000000000000000000000000000000000000000000000000000000000000000000000000000000000000000000100000000000000000000000000000000000000000000100000000000000020000000000000000000000000000000000000000000000000000000000000000000",
      "type": "0x2",
      "transactionHash": "0x39eb4e8efd99a363c9ee551512e8fc8f058f6ee9f39cf7d09ef54825552e85e3",
      "transactionIndex": "0x128",
      "blockHash": "0x9442d8d02da372c52bcdf90f54c71dfa911bcea24bd1bfec7cdeef4185b91da2",
      "blockNumber": "0x182763b",
      "gasUsed": "0x1a074c",
      "effectiveGasPrice": "0x399960f",
      "from": "0xcad1a7864a108dbff67f4b8af71fab0c7a86d0b6",
      "to": null,
      "contractAddress": "0x17dc492afa0c25fb7293edc5c00c7d4d2fccb342"
    },
    {
      "status": "0x1",
      "cumulativeGasUsed": "0x1848744",
      "logs": [
        {
          "address": "0x865377367054516e17014ccded1e7d814edc9ce4",
          "topics": [
            "0xddf252ad1be2c89b69c2b068fc378daa952ba7f163c4a11628f55a4df523b3ef",
            "0x000000000000000000000000cad1a7864a108dbff67f4b8af71fab0c7a86d0b6",
            "0x00000000000000000000000017dc492afa0c25fb7293edc5c00c7d4d2fccb342"
          ],
          "data": "0x00000000000000000000000000000000000000000000000176b344f2a78c0000",
          "blockHash": "0x231debd722315d2e393722f1f39263f94428fbed97114e114e2bcc8a6f8b2d2d",
          "blockNumber": "0x182763d",
          "blockTimestamp": "0x6a30b83f",
          "transactionHash": "0x341d86a797ab6e18ee5ebd39542919c2a621ff7c8f11d3b55d93b4f0c1a1b8e0",
          "transactionIndex": "0xed",
          "logIndex": "0x264",
          "removed": false
        }
      ],
      "logsBloom": "0x00000000000008000020000000000000000000000000000000040000000000000000000000000000000008400000000000000080000000000000000000000000000000000000000000000008000000000000000000000000000000000000000000000000000000000000000000000000000000000000000000000010000080000000000000000000000000000000000000000000000000000000000000000000000000000000000000000000000000000000000000000000000000000000000000000002000000000000000000000000000000000000100000000000000000000200000000000000000000000000000000000000000000000000000000000000",
      "type": "0x2",
      "transactionHash": "0x341d86a797ab6e18ee5ebd39542919c2a621ff7c8f11d3b55d93b4f0c1a1b8e0",
      "transactionIndex": "0xed",
      "blockHash": "0x231debd722315d2e393722f1f39263f94428fbed97114e114e2bcc8a6f8b2d2d",
      "blockNumber": "0x182763d",
      "gasUsed": "0xc95e",
      "effectiveGasPrice": "0x3a73d34",
      "from": "0xcad1a7864a108dbff67f4b8af71fab0c7a86d0b6",
      "to": "0x865377367054516e17014ccded1e7d814edc9ce4",
      "contractAddress": null
    },
    {
      "status": "0x1",
      "cumulativeGasUsed": "0x14936fe",
      "logs": [
        {
          "address": "0xa0b86991c6218b36c1d19d4a2e9eb0ce3606eb48",
          "topics": [
            "0xddf252ad1be2c89b69c2b068fc378daa952ba7f163c4a11628f55a4df523b3ef",
            "0x000000000000000000000000cad1a7864a108dbff67f4b8af71fab0c7a86d0b6",
            "0x00000000000000000000000017dc492afa0c25fb7293edc5c00c7d4d2fccb342"
          ],
          "data": "0x00000000000000000000000000000000000000000000000000000000019bfcc0",
          "blockHash": "0xf68b575285efe3be740f15661618a357662bde5121e7c79e0d99eecd7b8e5a05",
          "blockNumber": "0x182763e",
          "blockTimestamp": "0x6a30b84b",
          "transactionHash": "0xace8f71a79c2b3179222032b997fed06541dc3e80dc50e24e7dd40b89f092478",
          "transactionIndex": "0x9c",
          "logIndex": "0x2c0",
          "removed": false
        }
      ],
      "logsBloom": "0x00000000000008000020000000000000000000000000000000000000000000000000000000000000000000400000000000000080000000000000000000000000000000000000000008000008000000000000000000000000000000000000000000000000000000000000000000000000000000000000000000000010000000000000000000000000000000000000000000000000010000000000000000000000000000000000200000000000000000000000000000000000000000000000000000000002000000000000000000000000000000000000100000000000000000000200000000000000000000000000000000000000000000000000000000000000",
      "type": "0x2",
      "transactionHash": "0xace8f71a79c2b3179222032b997fed06541dc3e80dc50e24e7dd40b89f092478",
      "transactionIndex": "0x9c",
      "blockHash": "0xf68b575285efe3be740f15661618a357662bde5121e7c79e0d99eecd7b8e5a05",
      "blockNumber": "0x182763e",
      "gasUsed": "0xf334",
      "effectiveGasPrice": "0x3d01953",
      "from": "0xcad1a7864a108dbff67f4b8af71fab0c7a86d0b6",
      "to": "0xa0b86991c6218b36c1d19d4a2e9eb0ce3606eb48",
      "contractAddress": null
    },
    {
      "status": "0x1",
      "cumulativeGasUsed": "0xfbd256",
      "logs": [
        {
          "address": "0x1760e05356ec1fbba159c730781dcfb9920524e2",
          "topics": [
            "0x8be0079c531659141344cd1fd0a4f28419497f9722a3daafe3b4186f6b6457e0",
            "0x0000000000000000000000000000000000000000000000000000000000000000",
            "0x000000000000000000000000cad1a7864a108dbff67f4b8af71fab0c7a86d0b6"
          ],
          "data": "0x",
          "blockHash": "0xc439babb751c51215b3cf431433a28455b4bc419b34a430ce579687a174e4010",
          "blockNumber": "0x182763f",
          "blockTimestamp": "0x6a30b857",
          "transactionHash": "0xf418d8a6b72afcdd754f4f2897a07d4e7c3bc6c7a0d8165caf2bce8df6ff29ee",
          "transactionIndex": "0x42",
          "logIndex": "0xeb",
          "removed": false
        },
        {
          "address": "0x865377367054516e17014ccded1e7d814edc9ce4",
          "topics": [
            "0x8c5be1e5ebec7d5bd14f71427d1e84f3dd0314c0f7b2291e5b200ac8c7c3b925",
            "0x0000000000000000000000001760e05356ec1fbba159c730781dcfb9920524e2",
            "0x00000000000000000000000079eb84b5e30ef2481c8f00fd0aa7aad6ac0aa54d"
          ],
          "data": "0xffffffffffffffffffffffffffffffffffffffffffffffffffffffffffffffff",
          "blockHash": "0xc439babb751c51215b3cf431433a28455b4bc419b34a430ce579687a174e4010",
          "blockNumber": "0x182763f",
          "blockTimestamp": "0x6a30b857",
          "transactionHash": "0xf418d8a6b72afcdd754f4f2897a07d4e7c3bc6c7a0d8165caf2bce8df6ff29ee",
          "transactionIndex": "0x42",
          "logIndex": "0xec",
          "removed": false
        }
      ],
      "logsBloom": "0x00000000000000000020000000000000001000000000000000840000000000000000000000000000000008400000000000000000000000000000000000200000000000000000000000000000000000000001000000000000000000000000000000000000020000000000000000000800000000000000002000000000000080400000000000000000000000000000000000000000000000000000000000000000020000001000000008000000000800000000000000000010000000000000000000040000000000000000000000000000000000000000100000400000002020000010000000000000000000000000000000000000000000000000000000000000",
      "type": "0x2",
      "transactionHash": "0xf418d8a6b72afcdd754f4f2897a07d4e7c3bc6c7a0d8165caf2bce8df6ff29ee",
      "transactionIndex": "0x42",
      "blockHash": "0xc439babb751c51215b3cf431433a28455b4bc419b34a430ce579687a174e4010",
      "blockNumber": "0x182763f",
      "gasUsed": "0x2f68b5",
      "effectiveGasPrice": "0x3c10818",
      "from": "0xcad1a7864a108dbff67f4b8af71fab0c7a86d0b6",
      "to": null,
      "contractAddress": "0x1760e05356ec1fbba159c730781dcfb9920524e2"
    },
    {
      "status": "0x1",
      "cumulativeGasUsed": "0x23aac9c",
      "logs": [
        {
          "address": "0xafdf8dea96a0f37aae4869f813901bf73a3eab83",
          "topics": [
            "0x8be0079c531659141344cd1fd0a4f28419497f9722a3daafe3b4186f6b6457e0",
            "0x0000000000000000000000000000000000000000000000000000000000000000",
            "0x000000000000000000000000cad1a7864a108dbff67f4b8af71fab0c7a86d0b6"
          ],
          "data": "0x",
          "blockHash": "0xd0c5a61bb8f8ceb405bf22a2728ffe22aa494668b630b44ee00d7d478130c17c",
          "blockNumber": "0x1827641",
          "blockTimestamp": "0x6a30b86f",
          "transactionHash": "0xb92526955c473a7d872ae37e0b6b863eede56dce96c60f210aa77c3ddf5f76ca",
          "transactionIndex": "0x94",
          "logIndex": "0x1ec",
          "removed": false
        },
        {
          "address": "0xa0b86991c6218b36c1d19d4a2e9eb0ce3606eb48",
          "topics": [
            "0x8c5be1e5ebec7d5bd14f71427d1e84f3dd0314c0f7b2291e5b200ac8c7c3b925",
            "0x000000000000000000000000afdf8dea96a0f37aae4869f813901bf73a3eab83",
            "0x000000000000000000000000a7569a44f348d3d70d8ad5889e50f78e33d80d35"
          ],
          "data": "0xffffffffffffffffffffffffffffffffffffffffffffffffffffffffffffffff",
          "blockHash": "0xd0c5a61bb8f8ceb405bf22a2728ffe22aa494668b630b44ee00d7d478130c17c",
          "blockNumber": "0x1827641",
          "blockTimestamp": "0x6a30b86f",
          "transactionHash": "0xb92526955c473a7d872ae37e0b6b863eede56dce96c60f210aa77c3ddf5f76ca",
          "transactionIndex": "0x94",
          "logIndex": "0x1ed",
          "removed": false
        }
      ],
      "logsBloom": "0x00000000008000000020000000000000000000000000000000800000000000000000000000000000000000400000000000000000000100000000000000200000020000000000000008000000000000000001000000000000000004000000000000000000020040000000000000000800000000000000000000000000000000400000000000000000000000000000000000000000010000000000000000000000020000000000200000000000000000000000000000000000000000000000000000000040000000000000000000000000000000000000100000000000000020400010000020000000000000000000000000002000000000000000000000000000",
      "type": "0x2",
      "transactionHash": "0xb92526955c473a7d872ae37e0b6b863eede56dce96c60f210aa77c3ddf5f76ca",
      "transactionIndex": "0x94",
      "blockHash": "0xd0c5a61bb8f8ceb405bf22a2728ffe22aa494668b630b44ee00d7d478130c17c",
      "blockNumber": "0x1827641",
      "gasUsed": "0x2f8dda",
      "effectiveGasPrice": "0x35c51c0",
      "from": "0xcad1a7864a108dbff67f4b8af71fab0c7a86d0b6",
      "to": null,
      "contractAddress": "0xafdf8dea96a0f37aae4869f813901bf73a3eab83"
    },
    {
      "status": "0x1",
      "cumulativeGasUsed": "0x1494399",
      "logs": [
        {
          "address": "0x94855aca13952d81507c92d3cdbb2e25d3bbe60c",
          "topics": [
            "0x8be0079c531659141344cd1fd0a4f28419497f9722a3daafe3b4186f6b6457e0",
            "0x0000000000000000000000000000000000000000000000000000000000000000",
            "0x000000000000000000000000cad1a7864a108dbff67f4b8af71fab0c7a86d0b6"
          ],
          "data": "0x",
          "blockHash": "0x92612caed20318a4cc79481cb4e8649efcca33a78f4205b73a32ffaf9e2b741f",
          "blockNumber": "0x1827642",
          "blockTimestamp": "0x6a30b87b",
          "transactionHash": "0x4f6e032b66c86a8acba945f7af08abdff4fc133cc5f23eb4c94603f8b84174da",
          "transactionIndex": "0x97",
          "logIndex": "0x33f",
          "removed": false
        }
      ],
      "logsBloom": "0x00000000000000000020000000010000000000000000000000800000000000000000000000000000000000400000000000000000000000000000000000000000000000000000000000000000000000000001000000000000000000000000000000000000020000000000000000000800000000000000000000000000000000400000000000000000000000000000000000000000000000000000000004000000000000000000000000000000000000000000000000000000000000000000000000000000400000000000000000000000000000000000100000000000000020000000000000000000000000000000000000000000000000000000000000000000",
      "type": "0x2",
      "transactionHash": "0x4f6e032b66c86a8acba945f7af08abdff4fc133cc5f23eb4c94603f8b84174da",
      "transactionIndex": "0x97",
      "blockHash": "0x92612caed20318a4cc79481cb4e8649efcca33a78f4205b73a32ffaf9e2b741f",
      "blockNumber": "0x1827642",
      "gasUsed": "0x155309",
      "effectiveGasPrice": "0x3b0316a",
      "from": "0xcad1a7864a108dbff67f4b8af71fab0c7a86d0b6",
      "to": null,
      "contractAddress": "0x94855aca13952d81507c92d3cdbb2e25d3bbe60c"
    },
    {
      "status": "0x1",
      "cumulativeGasUsed": "0x191a5e5",
      "logs": [
        {
          "address": "0x1760e05356ec1fbba159c730781dcfb9920524e2",
          "topics": [
            "0x50b24d98d3da51f5db279e5872fa50584b172048aa9bfa6c6edb4d0cfbb4dc58",
            "0x000000000000000000000000bce8abc09baedcabe93419bf875f6186e182079a"
          ],
          "data": "0x0000000000000000000000000000000000000000000000000000000000000001",
          "blockHash": "0xc92fb885deb92bc8ddca3316b0b21209332f50243e3fbf8a67ff34a9230a4e96",
          "blockNumber": "0x1827643",
          "blockTimestamp": "0x6a30b887",
          "transactionHash": "0xace5b0c8101a4e1efedd28997597edada3f9d5d870e34e86fb8c99c7ce3a4e93",
          "transactionIndex": "0xa2",
          "logIndex": "0x32e",
          "removed": false
        }
      ],
      "logsBloom": "0x00000000000000000000000000000000001000000000000000000000000000000000000000000000000000000000000000000000000000000000000000000000000000000000000000000000000000000000000000000000000000000000000000000000800000000000000000000000000000000000000000100000000000000000000000000000000000000000000000000000000000000000000000000000018000000000000808000000000000000000000000000000000000000000000000000000000000000000000000000000000000000000000000000000002000000000000000000000000000000000000000000000000000000000000000800000",
      "type": "0x2",
      "transactionHash": "0xace5b0c8101a4e1efedd28997597edada3f9d5d870e34e86fb8c99c7ce3a4e93",
      "transactionIndex": "0xa2",
      "blockHash": "0xc92fb885deb92bc8ddca3316b0b21209332f50243e3fbf8a67ff34a9230a4e96",
      "blockNumber": "0x1827643",
      "gasUsed": "0x169c9",
      "effectiveGasPrice": "0x3a73345",
      "from": "0xcad1a7864a108dbff67f4b8af71fab0c7a86d0b6",
      "to": "0x1760e05356ec1fbba159c730781dcfb9920524e2",
      "contractAddress": null
    },
    {
      "status": "0x1",
      "cumulativeGasUsed": "0x197b652",
      "logs": [
        {
          "address": "0x1760e05356ec1fbba159c730781dcfb9920524e2",
          "topics": [
            "0x50b24d98d3da51f5db279e5872fa50584b172048aa9bfa6c6edb4d0cfbb4dc58",
            "0x00000000000000000000000094855aca13952d81507c92d3cdbb2e25d3bbe60c"
          ],
          "data": "0x0000000000000000000000000000000000000000000000000000000000000001",
          "blockHash": "0xa50e6cfb179d1d302962a1e872e56fc8146cb4695a27d5c970bcc7226b4e1dba",
          "blockNumber": "0x1827644",
          "blockTimestamp": "0x6a30b893",
          "transactionHash": "0x1c23bda1f1c822879b87fe723b9cf59c7cb6157c7e3673c5ca10fd1801cb98ac",
          "transactionIndex": "0x84",
          "logIndex": "0x362",
          "removed": false
        }
      ],
      "logsBloom": "0x00000000000000000000000000000000001000000000000000000000000000000000000000000000000000000000000000000000000000000000000000000000000000000000000000000000000000000000000000000000000000000000000000000000000000000000000000000000000000000000000000100000000000000000000000000000000100000000000000000000000000000000000000800000010000000000000808000000000000000000000000000000000000000000000000000000000000000000000000000000000000000000000000000000002000000000000000000000000000000000100000000000000000000000000000000000",
      "type": "0x2",
      "transactionHash": "0x1c23bda1f1c822879b87fe723b9cf59c7cb6157c7e3673c5ca10fd1801cb98ac",
      "transactionIndex": "0x84",
      "blockHash": "0xa50e6cfb179d1d302962a1e872e56fc8146cb4695a27d5c970bcc7226b4e1dba",
      "blockNumber": "0x1827644",
      "gasUsed": "0x126fd",
      "effectiveGasPrice": "0x3c70799",
      "from": "0xcad1a7864a108dbff67f4b8af71fab0c7a86d0b6",
      "to": "0x1760e05356ec1fbba159c730781dcfb9920524e2",
      "contractAddress": null
    },
    {
      "status": "0x1",
      "cumulativeGasUsed": "0x205be65",
      "logs": [
        {
          "address": "0x1760e05356ec1fbba159c730781dcfb9920524e2",
          "topics": [
            "0x5c8df9226b5390a36c31cb0bb75ccd51f1106fc9c93332f6305e2a4a7ae4e771",
            "0x0000000000000000000000003c690ec3b2524104de269bf0f9baa7f045ef8270"
          ],
          "data": "0x0000000000000000000000000000000000000000000000000000000000000001",
          "blockHash": "0xa3086c3ca9825178a3489c3f18bcb748a5febbd3a9284566f488dfd5db337f24",
          "blockNumber": "0x1827645",
          "blockTimestamp": "0x6a30b89f",
          "transactionHash": "0xcc8f1f4a24a06cd5e82f09b58524ee9fbd8b382c8cae52c3e65074a64f720f64",
          "transactionIndex": "0x9d",
          "logIndex": "0x314",
          "removed": false
        }
      ],
      "logsBloom": "0x00000000000000000000000000000000001000000000000000000000000000200000000000000000000000000000000000000000000000000000000000000000000000000000000000000000000000000000000000000000000400200000000000000000000000000000000000000000000000000000000000000000000000000000000000000000000000000000000000000000000000000000000000000000000000000000000008000000000400000000000000000100000000000000000000000000000000000000000000000000000000000080000000000000002000000000000000000000000000000000000000000000000000000000000000000000",
      "type": "0x2",
      "transactionHash": "0xcc8f1f4a24a06cd5e82f09b58524ee9fbd8b382c8cae52c3e65074a64f720f64",
      "transactionIndex": "0x9d",
      "blockHash": "0xa3086c3ca9825178a3489c3f18bcb748a5febbd3a9284566f488dfd5db337f24",
      "blockNumber": "0x1827645",
      "gasUsed": "0xbc0f",
      "effectiveGasPrice": "0x3c3215d",
      "from": "0xcad1a7864a108dbff67f4b8af71fab0c7a86d0b6",
      "to": "0x1760e05356ec1fbba159c730781dcfb9920524e2",
      "contractAddress": null
    },
    {
      "status": "0x1",
      "cumulativeGasUsed": "0xd06913",
      "logs": [
        {
          "address": "0xafdf8dea96a0f37aae4869f813901bf73a3eab83",
          "topics": [
            "0x50b24d98d3da51f5db279e5872fa50584b172048aa9bfa6c6edb4d0cfbb4dc58",
            "0x000000000000000000000000bce8abc09baedcabe93419bf875f6186e182079a"
          ],
          "data": "0x0000000000000000000000000000000000000000000000000000000000000001",
          "blockHash": "0xe1e2291a1c3398d1669de2eb49536883b6e80dac6d6051652dbd8c858c062ec1",
          "blockNumber": "0x1827646",
          "blockTimestamp": "0x6a30b8ab",
          "transactionHash": "0x9541b4ff44a8f9d1b7bc2acae2b667b10d87cc0b19195b1b53e4209a1cdffcbc",
          "transactionIndex": "0x63",
          "logIndex": "0x200",
          "removed": false
        }
      ],
      "logsBloom": "0x00000000008000000000000000000000000000000000000000000000000000000000000000000000000000000000000000000000000100000000000000000000000000000000000000000000000000000000000000000000000000000000000000000000800000000000000000000000000000000000000000100000000000000000000000000000000000000000000000000000000000000000000000000000018000000000000800000000000000000000000000000000000000000000000000000000000000000000000000000000000000000000000000000000000000000000000000000000000000000000000000002000000000000000000000800000",
      "type": "0x2",
      "transactionHash": "0x9541b4ff44a8f9d1b7bc2acae2b667b10d87cc0b19195b1b53e4209a1cdffcbc",
      "transactionIndex": "0x63",
      "blockHash": "0xe1e2291a1c3398d1669de2eb49536883b6e80dac6d6051652dbd8c858c062ec1",
      "blockNumber": "0x1827646",
      "gasUsed": "0x169c9",
      "effectiveGasPrice": "0x3dd62e5",
      "from": "0xcad1a7864a108dbff67f4b8af71fab0c7a86d0b6",
      "to": "0xafdf8dea96a0f37aae4869f813901bf73a3eab83",
      "contractAddress": null
    },
    {
      "status": "0x1",
      "cumulativeGasUsed": "0x20a9637",
      "logs": [
        {
          "address": "0xafdf8dea96a0f37aae4869f813901bf73a3eab83",
          "topics": [
            "0x50b24d98d3da51f5db279e5872fa50584b172048aa9bfa6c6edb4d0cfbb4dc58",
            "0x00000000000000000000000094855aca13952d81507c92d3cdbb2e25d3bbe60c"
          ],
          "data": "0x0000000000000000000000000000000000000000000000000000000000000001",
          "blockHash": "0xda9ea1c19c3a1d3fac01344c398f47d83caa5f4254b578b6da26baf45ca45339",
          "blockNumber": "0x1827647",
          "blockTimestamp": "0x6a30b8b7",
          "transactionHash": "0x1820418b6f5d4bcd0dc17ee9304214e2a7e31bf45d5cea6902de288e86e666bd",
          "transactionIndex": "0x9c",
          "logIndex": "0x359",
          "removed": false
        }
      ],
      "logsBloom": "0x00000000008000000000000000000000000000000000000000000000000000000000000000000000000000000000000000000000000100000000000000000000000000000000000000000000000000000000000000000000000000000000000000000000000000000000000000000000000000000000000000100000000000000000000000000000000100000000000000000000000000000000000000800000010000000000000800000000000000000000000000000000000000000000000000000000000000000000000000000000000000000000000000000000000000000000000000000000000000000000100000002000000000000000000000000000",
      "type": "0x2",
      "transactionHash": "0x1820418b6f5d4bcd0dc17ee9304214e2a7e31bf45d5cea6902de288e86e666bd",
      "transactionIndex": "0x9c",
      "blockHash": "0xda9ea1c19c3a1d3fac01344c398f47d83caa5f4254b578b6da26baf45ca45339",
      "blockNumber": "0x1827647",
      "gasUsed": "0x126fd",
      "effectiveGasPrice": "0x3a9d903",
      "from": "0xcad1a7864a108dbff67f4b8af71fab0c7a86d0b6",
      "to": "0xafdf8dea96a0f37aae4869f813901bf73a3eab83",
      "contractAddress": null
    },
    {
      "status": "0x1",
      "cumulativeGasUsed": "0xf5d5dd",
      "logs": [
        {
          "address": "0xafdf8dea96a0f37aae4869f813901bf73a3eab83",
          "topics": [
            "0x5c8df9226b5390a36c31cb0bb75ccd51f1106fc9c93332f6305e2a4a7ae4e771",
            "0x0000000000000000000000003c690ec3b2524104de269bf0f9baa7f045ef8270"
          ],
          "data": "0x0000000000000000000000000000000000000000000000000000000000000001",
          "blockHash": "0x07294490a719250d80f0c5f1bd270761e197fbacc0cfff61e507d7f186130d71",
          "blockNumber": "0x1827648",
          "blockTimestamp": "0x6a30b8c3",
          "transactionHash": "0x5e20f3724b7cbf2aa85e172d1db893d2bc5747d583fb98bcc54f7f7b5b62864e",
          "transactionIndex": "0x85",
          "logIndex": "0x254",
          "removed": false
        }
      ],
      "logsBloom": "0x00000000008000000000000000000000000000000000000000000000000000200000000000000000000000000000000000000000000100000000000000000000000000000000000000000000000000000000000000000000000400200000000000000000000000000000000000000000000000000000000000000000000000000000000000000000000000000000000000000000000000000000000000000000000000000000000000000000000400000000000000000100000000000000000000000000000000000000000000000000000000000080000000000000000000000000000000000000000000000000000000002000000000000000000000000000",
      "type": "0x2",
      "transactionHash": "0x5e20f3724b7cbf2aa85e172d1db893d2bc5747d583fb98bcc54f7f7b5b62864e",
      "transactionIndex": "0x85",
      "blockHash": "0x07294490a719250d80f0c5f1bd270761e197fbacc0cfff61e507d7f186130d71",
      "blockNumber": "0x1827648",
      "gasUsed": "0xbc0f",
      "effectiveGasPrice": "0x3c700b2",
      "from": "0xcad1a7864a108dbff67f4b8af71fab0c7a86d0b6",
      "to": "0xafdf8dea96a0f37aae4869f813901bf73a3eab83",
      "contractAddress": null
    },
    {
      "status": "0x1",
      "cumulativeGasUsed": "0x1cf3a51",
      "logs": [
        {
          "address": "0x1760e05356ec1fbba159c730781dcfb9920524e2",
          "topics": [
            "0xd65793d120b187e6304e609c707a0b13e374e04f05d255508e46b02d7a796ce3",
            "0x0000000000000000000000000000000000000000000000000000000000000000",
            "0x000000000000000000000000bce8abc09baedcabe93419bf875f6186e182079a"
          ],
          "data": "0x",
          "blockHash": "0x9c11024fde500e9edfea0a28dc359b26ff3b6b6f15e43d2a2cd7cca99209a61b",
          "blockNumber": "0x1827649",
          "blockTimestamp": "0x6a30b8cf",
          "transactionHash": "0xd1202b01fd18c88dbb4d688847ef8424cec924fed726d86ccb561a1bea4189c6",
          "transactionIndex": "0xa4",
          "logIndex": "0x352",
          "removed": false
        }
      ],
      "logsBloom": "0x00000000000000000000004000000000001000000000000000000000000000000000000000000000000000000000000000000000000000000000000000000000000000000000000000000000000000000000000000000000000000000000000000000000820000000000000000000800000000000000000000000000000000000000000000000000000000000000000000000000000000000000000000000000008000000000000008000000000000000000000000000000000000000000000000000000000020000000000000000000000000000020000000000000002020000000000000000000000000000000000000000000000000000000000000800000",
      "type": "0x2",
      "transactionHash": "0xd1202b01fd18c88dbb4d688847ef8424cec924fed726d86ccb561a1bea4189c6",
      "transactionIndex": "0xa4",
      "blockHash": "0x9c11024fde500e9edfea0a28dc359b26ff3b6b6f15e43d2a2cd7cca99209a61b",
      "blockNumber": "0x1827649",
      "gasUsed": "0xb9ad",
      "effectiveGasPrice": "0x39318c6",
      "from": "0xcad1a7864a108dbff67f4b8af71fab0c7a86d0b6",
      "to": "0x1760e05356ec1fbba159c730781dcfb9920524e2",
      "contractAddress": null
    },
    {
      "status": "0x1",
      "cumulativeGasUsed": "0x132f10e",
      "logs": [
        {
          "address": "0x1760e05356ec1fbba159c730781dcfb9920524e2",
          "topics": [
            "0x7f5fae2f2ea0d248c289f00cb1738844937f7fe3bd3c11357de14780c9805b9a",
            "0x000000000000000000000000bce8abc09baedcabe93419bf875f6186e182079a"
          ],
          "data": "0x0000000000000000000000000000000000000000000000000000000000000000000000000000000000000000000000000000000000000000000000000000000a",
          "blockHash": "0x54a0f4f0e47aa419e72100df62ddc8f3a3cc882e07323362e48ba22a13ec2405",
          "blockNumber": "0x182764a",
          "blockTimestamp": "0x6a30b8db",
          "transactionHash": "0x3ec7dcd4f87b2cdf016e4fd05d73a67f413311e07a998292fe2a82ea2992f3d0",
          "transactionIndex": "0x88",
          "logIndex": "0x214",
          "removed": false
        }
      ],
      "logsBloom": "0x00000000000000000000000000000000001000000000000000000000000000000000000000000000000000000000002000000000000000000000000000000000000000000000000000000000000000001000000000000000000000000000000000000000800000000000000000000000000000000000000000000000000000000000000000000000000000000000000000000000001000000000000000000000008000000000000008000000000000000000000000000000000000000000000000000000000000000000000000000000000000000000000000000000002000000000000000000000000000000000000000000000000000000000000000800000",
      "type": "0x2",
      "transactionHash": "0x3ec7dcd4f87b2cdf016e4fd05d73a67f413311e07a998292fe2a82ea2992f3d0",
      "transactionIndex": "0x88",
      "blockHash": "0x54a0f4f0e47aa419e72100df62ddc8f3a3cc882e07323362e48ba22a13ec2405",
      "blockNumber": "0x182764a",
      "gasUsed": "0xbdd0",
      "effectiveGasPrice": "0x398668d",
      "from": "0xcad1a7864a108dbff67f4b8af71fab0c7a86d0b6",
      "to": "0x1760e05356ec1fbba159c730781dcfb9920524e2",
      "contractAddress": null
    },
    {
      "status": "0x1",
      "cumulativeGasUsed": "0x119f4e9",
      "logs": [
        {
          "address": "0xafdf8dea96a0f37aae4869f813901bf73a3eab83",
          "topics": [
            "0xd65793d120b187e6304e609c707a0b13e374e04f05d255508e46b02d7a796ce3",
            "0x0000000000000000000000000000000000000000000000000000000000000000",
            "0x000000000000000000000000bce8abc09baedcabe93419bf875f6186e182079a"
          ],
          "data": "0x",
          "blockHash": "0x7e673fa9fec8204c5660e77cd5d58d2de550c9ec9b4bb302458e110f2c2fc938",
          "blockNumber": "0x182764b",
          "blockTimestamp": "0x6a30b8e7",
          "transactionHash": "0x2a133e07325fbd7137a29cd53963e3e59566171027343b263bd70642faa5f473",
          "transactionIndex": "0xa9",
          "logIndex": "0x258",
          "removed": false
        }
      ],
      "logsBloom": "0x00000000008000000000004000000000000000000000000000000000000000000000000000000000000000000000000000000000000100000000000000000000000000000000000000000000000000000000000000000000000000000000000000000000820000000000000000000800000000000000000000000000000000000000000000000000000000000000000000000000000000000000000000000000008000000000000000000000000000000000000000000000000000000000000000000000000020000000000000000000000000000020000000000000000020000000000000000000000000000000000000002000000000000000000000800000",
      "type": "0x2",
      "transactionHash": "0x2a133e07325fbd7137a29cd53963e3e59566171027343b263bd70642faa5f473",
      "transactionIndex": "0xa9",
      "blockHash": "0x7e673fa9fec8204c5660e77cd5d58d2de550c9ec9b4bb302458e110f2c2fc938",
      "blockNumber": "0x182764b",
      "gasUsed": "0xb9ad",
      "effectiveGasPrice": "0x37c6a5f",
      "from": "0xcad1a7864a108dbff67f4b8af71fab0c7a86d0b6",
      "to": "0xafdf8dea96a0f37aae4869f813901bf73a3eab83",
      "contractAddress": null
    },
    {
      "status": "0x1",
      "cumulativeGasUsed": "0x1e8408f",
      "logs": [
        {
          "address": "0xafdf8dea96a0f37aae4869f813901bf73a3eab83",
          "topics": [
            "0x7f5fae2f2ea0d248c289f00cb1738844937f7fe3bd3c11357de14780c9805b9a",
            "0x000000000000000000000000bce8abc09baedcabe93419bf875f6186e182079a"
          ],
          "data": "0x0000000000000000000000000000000000000000000000000000000000000000000000000000000000000000000000000000000000000000000000000000000a",
          "blockHash": "0x58f1ae5971b7618b053b926b07579cefed0bb64c206fffa02fdaac8aaa9eadb8",
          "blockNumber": "0x182764c",
          "blockTimestamp": "0x6a30b8f3",
          "transactionHash": "0xe67a615ec013852526e61265c4312d23228451849a43abf6e7bea6ee54de8003",
          "transactionIndex": "0xc1",
          "logIndex": "0x333",
          "removed": false
        }
      ],
      "logsBloom": "0x00000000008000000000000000000000000000000000000000000000000000000000000000000000000000000000002000000000000100000000000000000000000000000000000000000000000000001000000000000000000000000000000000000000800000000000000000000000000000000000000000000000000000000000000000000000000000000000000000000000001000000000000000000000008000000000000000000000000000000000000000000000000000000000000000000000000000000000000000000000000000000000000000000000000000000000000000000000000000000000000000002000000000000000000000800000",
      "type": "0x2",
      "transactionHash": "0xe67a615ec013852526e61265c4312d23228451849a43abf6e7bea6ee54de8003",
      "transactionIndex": "0xc1",
      "blockHash": "0x58f1ae5971b7618b053b926b07579cefed0bb64c206fffa02fdaac8aaa9eadb8",
      "blockNumber": "0x182764c",
      "gasUsed": "0xbdd0",
      "effectiveGasPrice": "0x37e5221",
      "from": "0xcad1a7864a108dbff67f4b8af71fab0c7a86d0b6",
      "to": "0xafdf8dea96a0f37aae4869f813901bf73a3eab83",
      "contractAddress": null
    },
    {
      "status": "0x1",
      "cumulativeGasUsed": "0x20c44e3",
      "logs": [
        {
          "address": "0x1760e05356ec1fbba159c730781dcfb9920524e2",
          "topics": [
            "0x5dcaa27e7d9a9fdd8d01662749f4c51d8a9d7933cc5c31bc05ce70aef865d004",
            "0x0000000000000000000000000000000000000000000000000000000000000000",
            "0x0000000000000000000000007c5a8eef1d836450c019fb036453ac6ec97885a3"
          ],
          "data": "0x",
          "blockHash": "0x2a662240300d5ce76ffbc79ee6b03297b1be4658d7e61b9dfb53b4b5d3a5c53e",
          "blockNumber": "0x182764d",
          "blockTimestamp": "0x6a30b8ff",
          "transactionHash": "0x9b0b29155269d8a522850918829ea14fce325539c97f850d88e8d0b63a335422",
          "transactionIndex": "0x8f",
          "logIndex": "0x460",
          "removed": false
        }
      ],
      "logsBloom": "0x00000000000000000000000000000000001000000000000000000000000000000000001000000000000000000000000000000000200000000000000000000000000000004000000000000000000000000000000000000000000000000000000000000000020000000000000000000800000000000000000000000000000000000000000000000000000000000000000000000000000000000000000000000000000000000000100008000000000000000000000000000000000000000000000000000000000000000000000000000400000000000000000000000000002020000000000000000000000000000000000010000000000000000000000000000000",
      "type": "0x2",
      "transactionHash": "0x9b0b29155269d8a522850918829ea14fce325539c97f850d88e8d0b63a335422",
      "transactionIndex": "0x8f",
      "blockHash": "0x2a662240300d5ce76ffbc79ee6b03297b1be4658d7e61b9dfb53b4b5d3a5c53e",
      "blockNumber": "0x182764d",
      "gasUsed": "0xb9b8",
      "effectiveGasPrice": "0x3922805",
      "from": "0xcad1a7864a108dbff67f4b8af71fab0c7a86d0b6",
      "to": "0x1760e05356ec1fbba159c730781dcfb9920524e2",
      "contractAddress": null
    },
    {
      "status": "0x1",
      "cumulativeGasUsed": "0x18230ae",
      "logs": [
        {
          "address": "0xafdf8dea96a0f37aae4869f813901bf73a3eab83",
          "topics": [
            "0x5dcaa27e7d9a9fdd8d01662749f4c51d8a9d7933cc5c31bc05ce70aef865d004",
            "0x0000000000000000000000000000000000000000000000000000000000000000",
            "0x0000000000000000000000007c5a8eef1d836450c019fb036453ac6ec97885a3"
          ],
          "data": "0x",
          "blockHash": "0x99b2bbce15831e22bcfa4feaabcd51ca01c5908434d5dca75ba9faa1d5d6a5af",
          "blockNumber": "0x182764e",
          "blockTimestamp": "0x6a30b90b",
          "transactionHash": "0x6519deb7f8a185cd9088e2337aa7a621751d028723b6e3d7914d8f9a9d6599bd",
          "transactionIndex": "0x7a",
          "logIndex": "0x278",
          "removed": false
        }
      ],
      "logsBloom": "0x00000000008000000000000000000000000000000000000000000000000000000000001000000000000000000000000000000000200100000000000000000000000000004000000000000000000000000000000000000000000000000000000000000000020000000000000000000800000000000000000000000000000000000000000000000000000000000000000000000000000000000000000000000000000000000000100000000000000000000000000000000000000000000000000000000000000000000000000000000400000000000000000000000000000020000000000000000000000000000000000010002000000000000000000000000000",
      "type": "0x2",
      "transactionHash": "0x6519deb7f8a185cd9088e2337aa7a621751d028723b6e3d7914d8f9a9d6599bd",
      "transactionIndex": "0x7a",
      "blockHash": "0x99b2bbce15831e22bcfa4feaabcd51ca01c5908434d5dca75ba9faa1d5d6a5af",
      "blockNumber": "0x182764e",
      "gasUsed": "0xb9b8",
      "effectiveGasPrice": "0x3a6ec8e",
      "from": "0xcad1a7864a108dbff67f4b8af71fab0c7a86d0b6",
      "to": "0xafdf8dea96a0f37aae4869f813901bf73a3eab83",
      "contractAddress": null
    },
    {
      "status": "0x1",
      "cumulativeGasUsed": "0x1009962",
      "logs": [
        {
          "address": "0x7c5a8eef1d836450c019fb036453ac6ec97885a3",
          "topics": [
            "0xc25d1d022102ce7b344c33d14de2893a248fabd34bb630dc982e2fbc20f29543",
            "0x0000000000000000000000001760e05356ec1fbba159c730781dcfb9920524e2"
          ],
          "data": "0x",
          "blockHash": "0x7c623c4b552a991a99a282d354f22759fdb1cf7ee2a8cc4dc3f9d886deef9c81",
          "blockNumber": "0x182764f",
          "blockTimestamp": "0x6a30b917",
          "transactionHash": "0x4684778606759e137ea3ab83df25a289920128a43887c14f142844d17d371eaf",
          "transactionIndex": "0xb6",
          "logIndex": "0x288",
          "removed": false
        }
      ],
      "logsBloom": "0x00000000000000000000000000000000000000000000000000000000000000000000000000000000000000000000000000000000000000000000000000000000000000000000000000000000000000200000000000000000000000000000100000000000000000000000000000000001000000000000000000000000000000000000000000000000000000000000000000000000000000000000000000000000000000001000000000008000000000000000000000000000000000000000000000042000000000000000000000000000000001000000000000400000000000000000000000000000000000000000000000000000000000000000000000000000",
      "type": "0x2",
      "transactionHash": "0x4684778606759e137ea3ab83df25a289920128a43887c14f142844d17d371eaf",
      "transactionIndex": "0xb6",
      "blockHash": "0x7c623c4b552a991a99a282d354f22759fdb1cf7ee2a8cc4dc3f9d886deef9c81",
      "blockNumber": "0x182764f",
      "gasUsed": "0x19516",
      "effectiveGasPrice": "0x39b1e78",
      "from": "0xcad1a7864a108dbff67f4b8af71fab0c7a86d0b6",
      "to": "0x7c5a8eef1d836450c019fb036453ac6ec97885a3",
      "contractAddress": null
    },
    {
      "status": "0x1",
      "cumulativeGasUsed": "0x129cedc",
      "logs": [
        {
          "address": "0x7c5a8eef1d836450c019fb036453ac6ec97885a3",
          "topics": [
            "0xc25d1d022102ce7b344c33d14de2893a248fabd34bb630dc982e2fbc20f29543",
            "0x000000000000000000000000afdf8dea96a0f37aae4869f813901bf73a3eab83"
          ],
          "data": "0x",
          "blockHash": "0xa1b9b12f14301a063620ca506698b0c5b4e5bf56b16b7d42ce52092fc64b313a",
          "blockNumber": "0x1827651",
          "blockTimestamp": "0x6a30b92f",
          "transactionHash": "0x80247ed9de7ecd9777b1791400a0734faa2293dc4b230e30f67f215c5fdac5cd",
          "transactionIndex": "0xf8",
          "logIndex": "0x268",
          "removed": false
        }
      ],
      "logsBloom": "0x00000000000000000000000000000000000000000000000000000000000000000000000000000000000000000000000000000000000000000000000000000000020000000000000000000000000000200000000000000000000000000000100000000000000040000000000000000001000000000000000000000000000000000000000000000000000000000000000000000000000000000000000000000000000000000000000000008000000000000000000000000000000000000000000000002040000000000000000000000000000001000000000000000000000000000000000000000000000000000000000000000000000000000000000000000000",
      "type": "0x2",
      "transactionHash": "0x80247ed9de7ecd9777b1791400a0734faa2293dc4b230e30f67f215c5fdac5cd",
      "transactionIndex": "0xf8",
      "blockHash": "0xa1b9b12f14301a063620ca506698b0c5b4e5bf56b16b7d42ce52092fc64b313a",
      "blockNumber": "0x1827651",
      "gasUsed": "0x19516",
      "effectiveGasPrice": "0x367e0b8",
      "from": "0xcad1a7864a108dbff67f4b8af71fab0c7a86d0b6",
      "to": "0x7c5a8eef1d836450c019fb036453ac6ec97885a3",
      "contractAddress": null
    },
    {
      "status": "0x1",
      "cumulativeGasUsed": "0x32d5cf4",
      "logs": [
        {
          "address": "0xac2e5936eca286ec364d4d5bcca33145fbe57f95",
          "topics": [
            "0x50b24d98d3da51f5db279e5872fa50584b172048aa9bfa6c6edb4d0cfbb4dc58",
            "0x00000000000000000000000094855aca13952d81507c92d3cdbb2e25d3bbe60c"
          ],
          "data": "0x0000000000000000000000000000000000000000000000000000000000000001",
          "blockHash": "0x58815ea5c2decea19e789ccc08fd09d689b2efa42a1d031c80cc56953c13360e",
          "blockNumber": "0x1827654",
          "blockTimestamp": "0x6a30b953",
          "transactionHash": "0xde0bdd6fc0031dd348c3c7d8d9f78c531357b3029646aa4d1376f2092d5ebae1",
          "transactionIndex": "0x147",
          "logIndex": "0x4eb",
          "removed": false
        }
      ],
      "logsBloom": "0x00000000000000000000000000000000001000000000000000000000000000000000000000000000000000000000000000000000000000000000000000000000000000000000004000000000010000000000000000000000000000000000000000000000000000000000000000000000000000000000000000100000000000000000000000000000000100000000000000000000000000000000000000800000010000000000000800000000000000000000000000000000000000000000000000000000000000000000000000000000000000000000000000000000000000000000000000000000000000000000100000000000000000000000000000000000",
      "type": "0x2",
      "transactionHash": "0xde0bdd6fc0031dd348c3c7d8d9f78c531357b3029646aa4d1376f2092d5ebae1",
      "transactionIndex": "0x147",
      "blockHash": "0x58815ea5c2decea19e789ccc08fd09d689b2efa42a1d031c80cc56953c13360e",
      "blockNumber": "0x1827654",
      "gasUsed": "0x12713",
      "effectiveGasPrice": "0x2ea49b6",
      "from": "0xcad1a7864a108dbff67f4b8af71fab0c7a86d0b6",
      "to": "0xac2e5936eca286ec364d4d5bcca33145fbe57f95",
      "contractAddress": null
    },
    {
      "status": "0x1",
      "cumulativeGasUsed": "0x330a66c",
      "logs": [
        {
          "address": "0x94855aca13952d81507c92d3cdbb2e25d3bbe60c",
          "topics": [
            "0xc3a31eaea4c0b528b360d168d8797d781302b685df4bdb2b4fdfae9592806399",
            "0x0000000000000000000000004c9edd5852cd905f086c759e8383e09bff1e68b3",
            "0x000000000000000000000000ac2e5936eca286ec364d4d5bcca33145fbe57f95"
          ],
          "data": "0x0000000000000000000000000000000000000000000000000de0b6b3a76400000000000000000000000000000000000000000000000000000000000000000012",
          "blockHash": "0xe611c388bfb0a3f5cd6f54bcf3c4a3f4c8f440b7def3da57e0beaff264373cc3",
          "blockNumber": "0x1827655",
          "blockTimestamp": "0x6a30b95f",
          "transactionHash": "0x5d31031ba2754647682ef14c4111340e958acb03d762c733256f0473688fb6c9",
          "transactionIndex": "0x9a",
          "logIndex": "0x3bb",
          "removed": false
        }
      ],
      "logsBloom": "0x00000000000000000000000100010000000000000000000000000000000000000000000000000004000000000000000000000000000000000000000000000000000040000000000008000000000000000000000000000000000000000000000000000020000000000000000000000000000000000000000000000000000000000000000000000000000000000000000000000001000000000000000004000000000000000000000000000000000000000000000000000000000000000000020000000000400000000000000000000000000000000000000000000000000000000000000000000000000100000000080000000000000000000000000000000000",
      "type": "0x2",
      "transactionHash": "0x5d31031ba2754647682ef14c4111340e958acb03d762c733256f0473688fb6c9",
      "transactionIndex": "0x9a",
      "blockHash": "0xe611c388bfb0a3f5cd6f54bcf3c4a3f4c8f440b7def3da57e0beaff264373cc3",
      "blockNumber": "0x1827655",
      "gasUsed": "0x187a9",
      "effectiveGasPrice": "0x338995f",
      "from": "0xcad1a7864a108dbff67f4b8af71fab0c7a86d0b6",
      "to": "0x94855aca13952d81507c92d3cdbb2e25d3bbe60c",
      "contractAddress": null
    },
    {
      "status": "0x1",
      "cumulativeGasUsed": "0x14914b6",
      "logs": [
        {
          "address": "0x4c9edd5852cd905f086c759e8383e09bff1e68b3",
          "topics": [
            "0x8c5be1e5ebec7d5bd14f71427d1e84f3dd0314c0f7b2291e5b200ac8c7c3b925",
            "0x00000000000000000000000094855aca13952d81507c92d3cdbb2e25d3bbe60c",
            "0x000000000000000000000000ac2e5936eca286ec364d4d5bcca33145fbe57f95"
          ],
          "data": "0xffffffffffffffffffffffffffffffffffffffffffffffffffffffffffffffff",
          "blockHash": "0x71212bdc34da9af9ec68c2156472b1e742debe75e19f082eb7188f0e4703c5b8",
          "blockNumber": "0x1827656",
          "blockTimestamp": "0x6a30b96b",
          "transactionHash": "0xe1323f884525722b124ef1ee71bad6a3d8a0f0d32e3447a6ef69e246c06454c2",
          "transactionIndex": "0xaf",
          "logIndex": "0x28e",
          "removed": false
        },
        {
          "address": "0x94855aca13952d81507c92d3cdbb2e25d3bbe60c",
          "topics": [
            "0x19a490fe10389a19852ba145f5f2c242d1eb13e72a38c85212b51bb65fb10984",
            "0x0000000000000000000000004c9edd5852cd905f086c759e8383e09bff1e68b3",
            "0x000000000000000000000000ac2e5936eca286ec364d4d5bcca33145fbe57f95"
          ],
          "data": "0x",
          "blockHash": "0x71212bdc34da9af9ec68c2156472b1e742debe75e19f082eb7188f0e4703c5b8",
          "blockNumber": "0x1827656",
          "blockTimestamp": "0x6a30b96b",
          "transactionHash": "0xe1323f884525722b124ef1ee71bad6a3d8a0f0d32e3447a6ef69e246c06454c2",
          "transactionIndex": "0xaf",
          "logIndex": "0x28f",
          "removed": false
        }
      ],
      "logsBloom": "0x00000000000000000000000000010000000000000000000000000000000000000000000000000004000000000000000800000000000000000000000000200000000040000000000008000000000000000000000000000000000000000000000000000000000000000001000020000000000000000400000000000000000000000000000000000000000100000000000000000001008000000000000004800000020000000000000000000000000000000000000000100000000000000000020000000000400000000000000000000000000000000000000000000000000000000010000000000000000000000000180000000000000000000000000000000000",
      "type": "0x2",
      "transactionHash": "0xe1323f884525722b124ef1ee71bad6a3d8a0f0d32e3447a6ef69e246c06454c2",
      "transactionIndex": "0xaf",
      "blockHash": "0x71212bdc34da9af9ec68c2156472b1e742debe75e19f082eb7188f0e4703c5b8",
      "blockNumber": "0x1827656",
      "gasUsed": "0xd0b0",
      "effectiveGasPrice": "0x39dbaba",
      "from": "0xcad1a7864a108dbff67f4b8af71fab0c7a86d0b6",
      "to": "0x94855aca13952d81507c92d3cdbb2e25d3bbe60c",
      "contractAddress": null
    },
    {
      "status": "0x1",
      "cumulativeGasUsed": "0x21cc1a8",
      "logs": [
        {
          "address": "0x94855aca13952d81507c92d3cdbb2e25d3bbe60c",
          "topics": [
            "0x6ab7122ba832132fdc06843beb173d48ca7ba72789113ddcc4e31dbc020dab18",
            "0x0000000000000000000000004c9edd5852cd905f086c759e8383e09bff1e68b3"
          ],
          "data": "0x0000000000000000000000000000000000000000000000d8d726b7177a800000",
          "blockHash": "0x584910339d34dea4fc279a158c5dafafedbd91799436f741044039f44f9c19de",
          "blockNumber": "0x1827659",
          "blockTimestamp": "0x6a30b98f",
          "transactionHash": "0xca4e71f6457c9d1e087813110c06a45581c10fd0f66f583078501e9e26bdf35a",
          "transactionIndex": "0x82",
          "logIndex": "0x463",
          "removed": false
        }
      ],
      "logsBloom": "0x00000000000000000000000000010000000000000080000000000000000000000000000000000000000000000000000000010000000000000000000000000000000000000000000000000000000000000000000000000000000000000000000000000000000000000000000000000000000000000000000000000000000000000008000000000000000000000000000000000001000000000000000004000000000000000000000000000000000000000000000000000000000000000000020000000000400000000000000000000000000000000000000000000000000000000000000000000000000000000000080000000000000000000000000000000000",
      "type": "0x2",
      "transactionHash": "0xca4e71f6457c9d1e087813110c06a45581c10fd0f66f583078501e9e26bdf35a",
      "transactionIndex": "0x82",
      "blockHash": "0x584910339d34dea4fc279a158c5dafafedbd91799436f741044039f44f9c19de",
      "blockNumber": "0x1827659",
      "gasUsed": "0xc401",
      "effectiveGasPrice": "0x3788951",
      "from": "0xcad1a7864a108dbff67f4b8af71fab0c7a86d0b6",
      "to": "0x94855aca13952d81507c92d3cdbb2e25d3bbe60c",
      "contractAddress": null
    },
    {
      "status": "0x1",
      "cumulativeGasUsed": "0x1f45499",
      "logs": [
        {
          "address": "0x94855aca13952d81507c92d3cdbb2e25d3bbe60c",
          "topics": [
            "0xc3a31eaea4c0b528b360d168d8797d781302b685df4bdb2b4fdfae9592806399",
            "0x000000000000000000000000865377367054516e17014ccded1e7d814edc9ce4",
            "0x0000000000000000000000001760e05356ec1fbba159c730781dcfb9920524e2"
          ],
          "data": "0x0000000000000000000000000000000000000000000000000de0b6b3a76400000000000000000000000000000000000000000000000000000000000000000012",
          "blockHash": "0x095f5729215f71b967d156ae5e1b80b47a2fa6622a4f79ee7a19c33779afb601",
          "blockNumber": "0x182765a",
          "blockTimestamp": "0x6a30b99b",
          "transactionHash": "0x8fbd2ddeb6fe1a7363d40f43dcf1a7023be4a818598865e3cff4fc8f348070fe",
          "transactionIndex": "0x7a",
          "logIndex": "0x3bc",
          "removed": false
        }
      ],
      "logsBloom": "0x00000000000000000000000100010000000000000000000000000000000000000000000000000000000000000000000000000000000000000000000000000000000000000000000000000000000000000000000000000000000000000000000000000020000000000000000000000000000000000000000000000010000000000000000000000000000000000000000000000000000000000000000004000000000000001000000000000000000000000000000000000000000000000000000000040000401000000000000000000000000000020000000000400000000000000000000000000000000100000000000000000000000000000000000000000000",
      "type": "0x2",
      "transactionHash": "0x8fbd2ddeb6fe1a7363d40f43dcf1a7023be4a818598865e3cff4fc8f348070fe",
      "transactionIndex": "0x7a",
      "blockHash": "0x095f5729215f71b967d156ae5e1b80b47a2fa6622a4f79ee7a19c33779afb601",
      "blockNumber": "0x182765a",
      "gasUsed": "0x187a9",
      "effectiveGasPrice": "0x3bc9b47",
      "from": "0xcad1a7864a108dbff67f4b8af71fab0c7a86d0b6",
      "to": "0x94855aca13952d81507c92d3cdbb2e25d3bbe60c",
      "contractAddress": null
    },
    {
      "status": "0x1",
      "cumulativeGasUsed": "0x1e9c850",
      "logs": [
        {
          "address": "0x865377367054516e17014ccded1e7d814edc9ce4",
          "topics": [
            "0x8c5be1e5ebec7d5bd14f71427d1e84f3dd0314c0f7b2291e5b200ac8c7c3b925",
            "0x00000000000000000000000094855aca13952d81507c92d3cdbb2e25d3bbe60c",
            "0x0000000000000000000000001760e05356ec1fbba159c730781dcfb9920524e2"
          ],
          "data": "0xffffffffffffffffffffffffffffffffffffffffffffffffffffffffffffffff",
          "blockHash": "0xc532de005894f92d0221a8e3e63742fe7d6794bbbf6943bb87c1d4726926f17e",
          "blockNumber": "0x182765b",
          "blockTimestamp": "0x6a30b9a7",
          "transactionHash": "0xa482cc400fed421da80c8c9537330a1307344e623427617854e26a75d1a267da",
          "transactionIndex": "0xcf",
          "logIndex": "0x29e",
          "removed": false
        },
        {
          "address": "0x94855aca13952d81507c92d3cdbb2e25d3bbe60c",
          "topics": [
            "0x19a490fe10389a19852ba145f5f2c242d1eb13e72a38c85212b51bb65fb10984",
            "0x000000000000000000000000865377367054516e17014ccded1e7d814edc9ce4",
            "0x0000000000000000000000001760e05356ec1fbba159c730781dcfb9920524e2"
          ],
          "data": "0x",
          "blockHash": "0xc532de005894f92d0221a8e3e63742fe7d6794bbbf6943bb87c1d4726926f17e",
          "blockNumber": "0x182765b",
          "blockTimestamp": "0x6a30b9a7",
          "transactionHash": "0xa482cc400fed421da80c8c9537330a1307344e623427617854e26a75d1a267da",
          "transactionIndex": "0xcf",
          "logIndex": "0x29f",
          "removed": false
        }
      ],
      "logsBloom": "0x00000000000000000000000000010000000000000000000000040000000000000000000000000000000008000000000000000000000000000000000000200000000000000000000000000000000000000000000000000000000000000000000000000000000000000001000020000000000000000400000000000010000080000000000000000000000100000000000000000000000000000000000004800000020000001000000000000000000000000000000000000000000000000000000000040000401000000000000000000000000000020000000000400000000000000010000000000000000000000000100000000000000000000000000000000000",
      "type": "0x2",
      "transactionHash": "0xa482cc400fed421da80c8c9537330a1307344e623427617854e26a75d1a267da",
      "transactionIndex": "0xcf",
      "blockHash": "0xc532de005894f92d0221a8e3e63742fe7d6794bbbf6943bb87c1d4726926f17e",
      "blockNumber": "0x182765b",
      "gasUsed": "0xcff8",
      "effectiveGasPrice": "0x3cfd68b",
      "from": "0xcad1a7864a108dbff67f4b8af71fab0c7a86d0b6",
      "to": "0x94855aca13952d81507c92d3cdbb2e25d3bbe60c",
      "contractAddress": null
    },
    {
      "status": "0x1",
      "cumulativeGasUsed": "0x194e884",
      "logs": [
        {
          "address": "0x94855aca13952d81507c92d3cdbb2e25d3bbe60c",
          "topics": [
            "0x6ab7122ba832132fdc06843beb173d48ca7ba72789113ddcc4e31dbc020dab18",
            "0x000000000000000000000000865377367054516e17014ccded1e7d814edc9ce4"
          ],
          "data": "0x0000000000000000000000000000000000000000000000d8d726b7177a800000",
          "blockHash": "0x324f41ed96f9c16033a4cc5f20703c2470af2328624e84249d8c1f3937df539d",
          "blockNumber": "0x182765d",
          "blockTimestamp": "0x6a30b9bf",
          "transactionHash": "0x807cf512173fdbe8813ed2d89738933ae38a53ef2cd28f66154b0c9cacb42346",
          "transactionIndex": "0xa5",
          "logIndex": "0x2d6",
          "removed": false
        }
      ],
      "logsBloom": "0x00000000000000000000000000010000000000000080000000000000000000000000000000000000000000000000000000010000000000000000000000000000000000000000000000000000000000000000000000000000000000000000000000000000000000000000000000000000000000000000000000000010000000000008000000000000000000000000000000000000000000000000000004000000000000000000000000000000000000000000000000000000000000000000000000000000401000000000000000000000000000020000000000000000000000000000000000000000000000000000000000000000000000000000000000000000",
      "type": "0x2",
      "transactionHash": "0x807cf512173fdbe8813ed2d89738933ae38a53ef2cd28f66154b0c9cacb42346",
      "transactionIndex": "0xa5",
      "blockHash": "0x324f41ed96f9c16033a4cc5f20703c2470af2328624e84249d8c1f3937df539d",
      "blockNumber": "0x182765d",
      "gasUsed": "0xc401",
      "effectiveGasPrice": "0x38a16f2",
      "from": "0xcad1a7864a108dbff67f4b8af71fab0c7a86d0b6",
      "to": "0x94855aca13952d81507c92d3cdbb2e25d3bbe60c",
      "contractAddress": null
    },
    {
      "status": "0x1",
      "cumulativeGasUsed": "0xfa8774",
      "logs": [
        {
          "address": "0x94855aca13952d81507c92d3cdbb2e25d3bbe60c",
          "topics": [
            "0xc3a31eaea4c0b528b360d168d8797d781302b685df4bdb2b4fdfae9592806399",
            "0x000000000000000000000000a0b86991c6218b36c1d19d4a2e9eb0ce3606eb48",
            "0x000000000000000000000000afdf8dea96a0f37aae4869f813901bf73a3eab83"
          ],
          "data": "0x0000000000000000000000000000000000000000000000000de0b6b3a76400000000000000000000000000000000000000000000000000000000000000000006",
          "blockHash": "0xae5ca6b190de923cd99220dd45a326b90c9e40c91f36841a1927aab439254100",
          "blockNumber": "0x182765e",
          "blockTimestamp": "0x6a30b9cb",
          "transactionHash": "0x2eefe5d7ab3c37d11f5b5b5cbfa3ee9833568184df547aa43a3ad6c56ab1c53a",
          "transactionIndex": "0x84",
          "logIndex": "0x1e2",
          "removed": false
        }
      ],
      "logsBloom": "0x00000000000000000000000100010000000000000000000000000000000000000000000000000000000002000000000000000000000000000000000000000000020000000000000000000000000000000000000000000000000000000000000000000020000040000000000000000000000000000000000000000000000000000000000000000000000000000000000200000000000000000000000004000000000000000000000000000000000000000000000000000000000000000000000000000040400000000000000000000000000000000000000000000000000000000000000000000000000100000000000004000000000000000000000000000000",
      "type": "0x2",
      "transactionHash": "0x2eefe5d7ab3c37d11f5b5b5cbfa3ee9833568184df547aa43a3ad6c56ab1c53a",
      "transactionIndex": "0x84",
      "blockHash": "0xae5ca6b190de923cd99220dd45a326b90c9e40c91f36841a1927aab439254100",
      "blockNumber": "0x182765e",
      "gasUsed": "0x187a9",
      "effectiveGasPrice": "0x3b77338",
      "from": "0xcad1a7864a108dbff67f4b8af71fab0c7a86d0b6",
      "to": "0x94855aca13952d81507c92d3cdbb2e25d3bbe60c",
      "contractAddress": null
    },
    {
      "status": "0x1",
      "cumulativeGasUsed": "0x19d15ee",
      "logs": [
        {
          "address": "0xa0b86991c6218b36c1d19d4a2e9eb0ce3606eb48",
          "topics": [
            "0x8c5be1e5ebec7d5bd14f71427d1e84f3dd0314c0f7b2291e5b200ac8c7c3b925",
            "0x00000000000000000000000094855aca13952d81507c92d3cdbb2e25d3bbe60c",
            "0x000000000000000000000000afdf8dea96a0f37aae4869f813901bf73a3eab83"
          ],
          "data": "0xffffffffffffffffffffffffffffffffffffffffffffffffffffffffffffffff",
          "blockHash": "0xc238aa7056764c40372f673c6c2c3875c2a8931239fe163ffe290a5012d7383e",
          "blockNumber": "0x182765f",
          "blockTimestamp": "0x6a30b9d7",
          "transactionHash": "0x3a678eeb10e1f9a82d98cebf8c5c1c9dfe0674d8f883fb756b8651d5566c7aef",
          "transactionIndex": "0x85",
          "logIndex": "0x338",
          "removed": false
        },
        {
          "address": "0x94855aca13952d81507c92d3cdbb2e25d3bbe60c",
          "topics": [
            "0x19a490fe10389a19852ba145f5f2c242d1eb13e72a38c85212b51bb65fb10984",
            "0x000000000000000000000000a0b86991c6218b36c1d19d4a2e9eb0ce3606eb48",
            "0x000000000000000000000000afdf8dea96a0f37aae4869f813901bf73a3eab83"
          ],
          "data": "0x",
          "blockHash": "0xc238aa7056764c40372f673c6c2c3875c2a8931239fe163ffe290a5012d7383e",
          "blockNumber": "0x182765f",
          "blockTimestamp": "0x6a30b9d7",
          "transactionHash": "0x3a678eeb10e1f9a82d98cebf8c5c1c9dfe0674d8f883fb756b8651d5566c7aef",
          "transactionIndex": "0x85",
          "logIndex": "0x339",
          "removed": false
        }
      ],
      "logsBloom": "0x00000000000000000000000000010000000000000000000000000000000000000000000000000000000002000000000000000000000000000000000000200000020000000000000008000000000000000000000000000000000000000000000000000000000040000001000020000000000000000400000000000000000000000000000000000000000100000000000200000000010000000000000004800000020000000000200000000000000000000000000000000000000000000000000000000040400000000000000000000000000000000000000000000000000000000010000000000000000000000000100004000000000000000000000000000000",
      "type": "0x2",
      "transactionHash": "0x3a678eeb10e1f9a82d98cebf8c5c1c9dfe0674d8f883fb756b8651d5566c7aef",
      "transactionIndex": "0x85",
      "blockHash": "0xc238aa7056764c40372f673c6c2c3875c2a8931239fe163ffe290a5012d7383e",
      "blockNumber": "0x182765f",
      "gasUsed": "0xf511",
      "effectiveGasPrice": "0x395e304",
      "from": "0xcad1a7864a108dbff67f4b8af71fab0c7a86d0b6",
      "to": "0x94855aca13952d81507c92d3cdbb2e25d3bbe60c",
      "contractAddress": null
    },
    {
      "status": "0x1",
      "cumulativeGasUsed": "0x1634239",
      "logs": [
        {
          "address": "0x94855aca13952d81507c92d3cdbb2e25d3bbe60c",
          "topics": [
            "0x6ab7122ba832132fdc06843beb173d48ca7ba72789113ddcc4e31dbc020dab18",
            "0x000000000000000000000000a0b86991c6218b36c1d19d4a2e9eb0ce3606eb48"
          ],
          "data": "0x0000000000000000000000000000000000000000000000d8d726b7177a800000",
          "blockHash": "0xc88728408b2eec86f2dbfb6a85c863b482c2ac732fd6c4edab793563a4c72bb7",
          "blockNumber": "0x1827660",
          "blockTimestamp": "0x6a30b9e3",
          "transactionHash": "0xf95630c75570333e4264d63230e00f34acf9f91b3f8e2ebb1256c6c5268ca046",
          "transactionIndex": "0x91",
          "logIndex": "0x32d",
          "removed": false
        }
      ],
      "logsBloom": "0x00000000000000000000000000010000000000000080000000000000000000000000000000000000000002000000000000010000000000000000000000000000000000000000000000000000000000000000000000000000000000000000000000000000000000000000000000000000000000000000000000000000000000000008000000000000000000000000000200000000000000000000000004000000000000000000000000000000000000000000000000000000000000000000000000000000400000000000000000000000000000000000000000000000000000000000000000000000000000000000000004000000000000000000000000000000",
      "type": "0x2",
      "transactionHash": "0xf95630c75570333e4264d63230e00f34acf9f91b3f8e2ebb1256c6c5268ca046",
      "transactionIndex": "0x91",
      "blockHash": "0xc88728408b2eec86f2dbfb6a85c863b482c2ac732fd6c4edab793563a4c72bb7",
      "blockNumber": "0x1827660",
      "gasUsed": "0xc401",
      "effectiveGasPrice": "0x3927064",
      "from": "0xcad1a7864a108dbff67f4b8af71fab0c7a86d0b6",
      "to": "0x94855aca13952d81507c92d3cdbb2e25d3bbe60c",
      "contractAddress": null
    },
    {
      "status": "0x1",
      "cumulativeGasUsed": "0x1e07ebe",
      "logs": [
        {
          "address": "0x94855aca13952d81507c92d3cdbb2e25d3bbe60c",
          "topics": [
            "0x95bb211a5a393c4d30c3edc9a745825fba4e6ad3e3bb949e6bf8ccdfe431a811",
            "0x0000000000000000000000000000000000000000000000000000000000000000",
            "0x0000000000000000000000007c5a8eef1d836450c019fb036453ac6ec97885a3"
          ],
          "data": "0x",
          "blockHash": "0x6669fa8fe3202079d287949fe9c2cc20e2617846fa91f31ac0b98bc1071e48e4",
          "blockNumber": "0x1827662",
          "blockTimestamp": "0x6a30b9fb",
          "transactionHash": "0x158f56eadbe3adcdc0fd5c07c808065ff5a2c49a578cd01f5a68172af52e9617",
          "transactionIndex": "0xb7",
          "logIndex": "0x305",
          "removed": false
        }
      ],
      "logsBloom": "0x00000000000000000000000000010000000000000000000000000000000000000000000000000000000000000000000000000000200000000000000000000000000020000000000000000000000000000000000000000000000000000000000000000000020000040000000000000800000000000000000000000000000000000000000000000000000000000000000000000000000000000000000004000000000000000000000000000000000000000000000000000400000000000000000000000000400000000000000000000400000000000000000000000000000020000000000000000000000000000000000010000000000000000000000000000000",
      "type": "0x2",
      "transactionHash": "0x158f56eadbe3adcdc0fd5c07c808065ff5a2c49a578cd01f5a68172af52e9617",
      "transactionIndex": "0xb7",
      "blockHash": "0x6669fa8fe3202079d287949fe9c2cc20e2617846fa91f31ac0b98bc1071e48e4",
      "blockNumber": "0x1827662",
      "gasUsed": "0xb978",
      "effectiveGasPrice": "0x37c7740",
      "from": "0xcad1a7864a108dbff67f4b8af71fab0c7a86d0b6",
      "to": "0x94855aca13952d81507c92d3cdbb2e25d3bbe60c",
      "contractAddress": null
    },
    {
      "status": "0x1",
      "cumulativeGasUsed": "0x1d31696",
      "logs": [
        {
          "address": "0x7c5a8eef1d836450c019fb036453ac6ec97885a3",
          "topics": [
            "0xc25d1d022102ce7b344c33d14de2893a248fabd34bb630dc982e2fbc20f29543",
            "0x00000000000000000000000094855aca13952d81507c92d3cdbb2e25d3bbe60c"
          ],
          "data": "0x",
          "blockHash": "0xde61880698bb52004e2ef3238dda6b5f71004f5deadbb6b7490bedfb62535207",
          "blockNumber": "0x1827663",
          "blockTimestamp": "0x6a30ba07",
          "transactionHash": "0x5a444bf592b5264fab929ed43d46c21edb8896ab0ad6bfac32b0facebfe6ef21",
          "transactionIndex": "0xc7",
          "logIndex": "0x275",
          "removed": false
        }
      ],
      "logsBloom": "0x00000000000000000000000000000000000000000000000000000000000000000000000000000000000000000000000000000000000000000000000000000000000000000000000000000000000000200000000000000000000000000000100000000000000000000000000000000001000000000000000000000000000000000000000000000000000100000000000000000000000000000000000000800000000000000000000000008000000000000000000000000000000000000000000000002000000000000000000000000000000001000000000000000000000000000000000000000000000000000000100000000000000000000000000000000000",
      "type": "0x2",
      "transactionHash": "0x5a444bf592b5264fab929ed43d46c21edb8896ab0ad6bfac32b0facebfe6ef21",
      "transactionIndex": "0xc7",
      "blockHash": "0xde61880698bb52004e2ef3238dda6b5f71004f5deadbb6b7490bedfb62535207",
      "blockNumber": "0x1827663",
      "gasUsed": "0x193a7",
      "effectiveGasPrice": "0x3873e8e",
      "from": "0xcad1a7864a108dbff67f4b8af71fab0c7a86d0b6",
      "to": "0x7c5a8eef1d836450c019fb036453ac6ec97885a3",
      "contractAddress": null
    },
    {
      "status": "0x1",
      "cumulativeGasUsed": "0x318460c",
      "logs": [
        {
          "address": "0xf3b5b661b92b75c71fa5aba8fd95d7514a9cd605",
          "topics": [
            "0x34e56df787a7a59706503a81c304ed0ef46ddd2dfcdf1c8c8d1db684f3639fdd",
            "0x000000000000000000000000435b0a1884bd0fb5667677c9eb0e59425b1477e5"
          ],
          "data": "0x00000000000000000000000000000000000000000000000000000000000000000000000000000000000000000000000000000000000000000000000000000000",
          "blockHash": "0x23472a3cc8ea09c12986a98ed121a28a37b6c51886ac77943733bce9e9eebcfb",
          "blockNumber": "0x1827665",
          "blockTimestamp": "0x6a30ba1f",
          "transactionHash": "0x51da9bff2808f200dc9ea41d8963134519104dc3814de98fe2ab4a5c33abb317",
          "transactionIndex": "0xb5",
          "logIndex": "0x5c4",
          "removed": false
        }
      ],
      "logsBloom": "0x00000000000000000000000008000000000000000000000000000000000000000000000000000000000000000000080000000000000000000000000000000000000000000000000000000000000000000000000000000000000000000000000008000000000000000000000000000000000000000000000004000000100000000100000000000000000000000000000000000000000000000000000000000000000000000000000000000000000000000000000000000000000000000000000000800004000000000000000000000000000000000000000000000000000000000000000000000000000000000000000000000000000000000000400000000000",
      "type": "0x2",
      "transactionHash": "0x51da9bff2808f200dc9ea41d8963134519104dc3814de98fe2ab4a5c33abb317",
      "transactionIndex": "0xb5",
      "blockHash": "0x23472a3cc8ea09c12986a98ed121a28a37b6c51886ac77943733bce9e9eebcfb",
      "blockNumber": "0x1827665",
      "gasUsed": "0x7e72",
      "effectiveGasPrice": "0x3b62b92",
      "from": "0xcad1a7864a108dbff67f4b8af71fab0c7a86d0b6",
      "to": "0xf3b5b661b92b75c71fa5aba8fd95d7514a9cd605",
      "contractAddress": null
    },
    {
      "status": "0x1",
      "cumulativeGasUsed": "0x170d914",
      "logs": [
        {
          "address": "0xf3b5b661b92b75c71fa5aba8fd95d7514a9cd605",
          "topics": [
            "0x34e56df787a7a59706503a81c304ed0ef46ddd2dfcdf1c8c8d1db684f3639fdd",
            "0x00000000000000000000000094855aca13952d81507c92d3cdbb2e25d3bbe60c"
          ],
          "data": "0x00000000000000000000000000000000000000000000000000000000000000010000000000000000000000000000000000000000000000000000000000000000",
          "blockHash": "0xe379f188241b84c0d7f0579058371b2a5fafc3ff4962cc56606d3cbe7bd4565c",
          "blockNumber": "0x1827666",
          "blockTimestamp": "0x6a30ba2b",
          "transactionHash": "0xbba082a47a9c9b4d5d7587460ac92c8030c6a212ac1f63afb890ffb214a5aae0",
          "transactionIndex": "0x79",
          "logIndex": "0x2f1",
          "removed": false
        }
      ],
      "logsBloom": "0x00000000000000000000000008000000000000000000000000000000000000000000000000000000000000000000000000000000000000000000000000000000000000000000000000000000000000000000000000000000000000000000000008000000000000000000000000000000000000000000000004000000100000000000000000000000000100000000000000000000000000000000000000800000000000000000000000000000000000000000000000000000000000000000000000800000000000000000000000000000000000000000000000000000000000000000000000000000000000000000100000000000000000000000400000000000",
      "type": "0x2",
      "transactionHash": "0xbba082a47a9c9b4d5d7587460ac92c8030c6a212ac1f63afb890ffb214a5aae0",
      "transactionIndex": "0x79",
      "blockHash": "0xe379f188241b84c0d7f0579058371b2a5fafc3ff4962cc56606d3cbe7bd4565c",
      "blockNumber": "0x1827666",
      "gasUsed": "0xd40a",
      "effectiveGasPrice": "0x41dd1c1",
      "from": "0xcad1a7864a108dbff67f4b8af71fab0c7a86d0b6",
      "to": "0xf3b5b661b92b75c71fa5aba8fd95d7514a9cd605",
      "contractAddress": null
    },
    {
      "status": "0x1",
      "cumulativeGasUsed": "0x14b67f7",
      "logs": [
        {
          "address": "0xbce8abc09baedcabe93419bf875f6186e182079a",
          "topics": [
            "0x3ba4758949febc607e14523620298f8b5995b1848492ad7aa083372ac886ae07",
            "0x00000000000000000000000017dc492afa0c25fb7293edc5c00c7d4d2fccb342"
          ],
          "data": "0x",
          "blockHash": "0x0d1b2cfa4d5dae296dddfdb6f7753fceb9f90eed2cd6c8d07570094275208c43",
          "blockNumber": "0x1827668",
          "blockTimestamp": "0x6a30ba43",
          "transactionHash": "0x5f94cee740b5a71f63d48f25cfc7d2e8d9324d1e9c07949bdc1b3e8833d56b4f",
          "transactionIndex": "0xa6",
          "logIndex": "0x1fe",
          "removed": false
        }
      ],
      "logsBloom": "0x00000000000008000000000000000000000000000000000000000000000000000000000000000000000000000000000000000080000000000000000000000000010000000200000000000001000000000000000000000000000000000000000000000002000000000000000000002000000000000000000000000000000000000000000000000000000000000000020000000000000000000000000000000000000000000000000000000000000000000000000000000000000000000000000000000000000000000000000000000000000000000000000000000000000000000200000000000000000000000000000000000000000000000000000000000000",
      "type": "0x2",
      "transactionHash": "0x5f94cee740b5a71f63d48f25cfc7d2e8d9324d1e9c07949bdc1b3e8833d56b4f",
      "transactionIndex": "0xa6",
      "blockHash": "0x0d1b2cfa4d5dae296dddfdb6f7753fceb9f90eed2cd6c8d07570094275208c43",
      "blockNumber": "0x1827668",
      "gasUsed": "0xb85e",
      "effectiveGasPrice": "0x43aac79",
      "from": "0xcad1a7864a108dbff67f4b8af71fab0c7a86d0b6",
      "to": "0xbce8abc09baedcabe93419bf875f6186e182079a",
      "contractAddress": null
    }
  ],
  "libraries": [],
  "pending": [],
  "returns": {},
  "timestamp": 1781578308606,
  "chain": 1,
  "commit": "3d52474"
}