{
  "transactions": [
    {
      "hash": "0xad649f94763ff7c66714b207d528e02368e73ef82fd91e6ce50a603f39704f8c",
      "transactionType": "CALL",
      "contractName": null,
      "contractAddress": "0x90ce274b20a2af4265152b369d09ce6e6dc177f9",
      "function": "totalWithdrawal(address,address)",
      "arguments": [
        "0x865377367054516e17014CcdED1e7d814EDC9ce4",
        "0x435B0A1884bd0fb5667677C9eb0e59425b1477E5"
      ],
      "transaction": {
        "from": "0xcad1a7864a108dbff67f4b8af71fab0c7a86d0b6",
        "to": "0x90ce274b20a2af4265152b369d09ce6e6dc177f9",
        "value": "0x0",
        "input": "0x32e4036d000000000000000000000000865377367054516e17014ccded1e7d814edc9ce4000000000000000000000000435b0a1884bd0fb5667677c9eb0e59425b1477e5",
        "nonce": "0x31e",
        "chainId": "0x1"
      },
      "additionalContracts": [],
      "isFixedGasLimit": false
    },
    {
      "hash": "0x256de6b9f3a7a365766b5b3064e3e0932c363ce630b1b1b9ed301349a9381f2c",
      "transactionType": "CALL",
      "contractName": null,
      "contractAddress": "0x90af002ee537ad5c2c9817ebd4ef22b2e8952470",
      "function": "totalWithdrawal(address,address)",
      "arguments": [
        "0xA0b86991c6218b36c1d19D4a2e9Eb0cE3606eB48",
        "0x435B0A1884bd0fb5667677C9eb0e59425b1477E5"
      ],
      "transaction": {
        "from": "0xcad1a7864a108dbff67f4b8af71fab0c7a86d0b6",
        "to": "0x90af002ee537ad5c2c9817ebd4ef22b2e8952470",
        "value": "0x0",
        "input": "0x32e4036d000000000000000000000000a0b86991c6218b36c1d19d4a2e9eb0ce3606eb48000000000000000000000000435b0a1884bd0fb5667677c9eb0e59425b1477e5",
        "nonce": "0x31f",
        "chainId": "0x1"
      },
      "additionalContracts": [],
      "isFixedGasLimit": false
    },
    {
      "hash": "0x04b40924077e06516309dde32da65fdddb8096797214267c186aab5992e73f73",
      "transactionType": "CALL",
      "contractName": null,
      "contractAddress": "0xac2e5936eca286ec364d4d5bcca33145fbe57f95",
      "function": "totalWithdrawal(address,address)",
      "arguments": [
        "0x4c9EDD5852cd905f086C759E8383e09bff1E68B3",
        "0x435B0A1884bd0fb5667677C9eb0e59425b1477E5"
      ],
      "transaction": {
        "from": "0xcad1a7864a108dbff67f4b8af71fab0c7a86d0b6",
        "to": "0xac2e5936eca286ec364d4d5bcca33145fbe57f95",
        "value": "0x0",
        "input": "0x32e4036d0000000000000000000000004c9edd5852cd905f086c759e8383e09bff1e68b3000000000000000000000000435b0a1884bd0fb5667677c9eb0e59425b1477e5",
        "nonce": "0x320",
        "chainId": "0x1"
      },
      "additionalContracts": [],
      "isFixedGasLimit": false
    }
  ],
  "receipts": [
    {
      "status": "0x1",
      "cumulativeGasUsed": "0x29cb0e5",
      "logs": [
        {
          "address": "0x90ce274b20a2af4265152b369d09ce6e6dc177f9",
          "topics": [
            "0xd9fbd8fe4451ae979e36c7923543e61b94e26b6f1510866805ee90023a61aa21",
            "0x000000000000000000000000865377367054516e17014ccded1e7d814edc9ce4",
            "0x000000000000000000000000435b0a1884bd0fb5667677c9eb0e59425b1477e5"
          ],
          "data": "0x0000000000000000000000000000000000000000000002ecff58a2b07a942d07000000000000000000000000000000000000000000000000000000006a2d9343000000000000000000000000000000000000000000000000000000006a2ee4c3",
          "blockHash": "0x5a139b2763a98043109f10afc780e3f5b7c5670975687601bbdfee3b4d628ff5",
          "blockNumber": "0x1823362",
          "blockTimestamp": "0x6a2d9343",
          "transactionHash": "0xad649f94763ff7c66714b207d528e02368e73ef82fd91e6ce50a603f39704f8c",
          "transactionIndex": "0x125",
          "logIndex": "0x57a",
          "removed": false
        }
      ],
      "logsBloom": "0x00000000000000000000000040000000000002000000000000000000000000001000000000000000000000000000080000000000000000000000000000800000000000000000000000000000000000000000000000000000000000000000000000000000000000000000000000000000000000000000000000000010000000000100000000000000000000000000000000000000000000000000000000000000000000000000000000000000000000000000000000000000000000000000000000000004001000002000000000000000000000020000000000000000000000000200000000000000000000000000000000000000000000000000000000000000",
      "type": "0x2",
      "transactionHash": "0xad649f94763ff7c66714b207d528e02368e73ef82fd91e6ce50a603f39704f8c",
      "transactionIndex": "0x125",
      "blockHash": "0x5a139b2763a98043109f10afc780e3f5b7c5670975687601bbdfee3b4d628ff5",
      "blockNumber": "0x1823362",
      "gasUsed": "0xaf49",
      "effectiveGasPrice": "0x72e705d",
      "from": "0xcad1a7864a108dbff67f4b8af71fab0c7a86d0b6",
      "to": "0x90ce274b20a2af4265152b369d09ce6e6dc177f9",
      "contractAddress": null
    },
    {
      "status": "0x1",
      "cumulativeGasUsed": "0x25c845b",
      "logs": [
        {
          "address": "0x90af002ee537ad5c2c9817ebd4ef22b2e8952470",
          "topics": [
            "0xd9fbd8fe4451ae979e36c7923543e61b94e26b6f1510866805ee90023a61aa21",
            "0x000000000000000000000000a0b86991c6218b36c1d19d4a2e9eb0ce3606eb48",
            "0x000000000000000000000000435b0a1884bd0fb5667677c9eb0e59425b1477e5"
          ],
          "data": "0x00000000000000000000000000000000000000000000000000000002c76b7ff4000000000000000000000000000000000000000000000000000000006a2d935b000000000000000000000000000000000000000000000000000000006a2ee4db",
          "blockHash": "0xb4c8b7c50191f3c99a230ef778f4326215ee98f8e0b5da9c290cc3020e359900",
          "blockNumber": "0x1823364",
          "blockTimestamp": "0x6a2d935b",
          "transactionHash": "0x256de6b9f3a7a365766b5b3064e3e0932c363ce630b1b1b9ed301349a9381f2c",
          "transactionIndex": "0x1f5",
          "logIndex": "0x3a2",
          "removed": false
        }
      ],
      "logsBloom": "0x00000000000000000000000040000000000000000000000000000000000010001000000000000400000002000000080000000000000000000000000000800000000000000000000000000000000000000000000000000000000000000000000000000000000000000000000000000000000000000000000000000000000000000100000000000000000000000000000200000000000000000000000000000000000000000000000000000000000000000000000000000000000000000000000000000004000000000000000000000000000000000000000000000000000000000000000000000000000000000000000004000000000000000000000000000080",
      "type": "0x2",
      "transactionHash": "0x256de6b9f3a7a365766b5b3064e3e0932c363ce630b1b1b9ed301349a9381f2c",
      "transactionIndex": "0x1f5",
      "blockHash": "0xb4c8b7c50191f3c99a230ef778f4326215ee98f8e0b5da9c290cc3020e359900",
      "blockNumber": "0x1823364",
      "gasUsed": "0xaf49",
      "effectiveGasPrice": "0x7491f10",
      "from": "0xcad1a7864a108dbff67f4b8af71fab0c7a86d0b6",
      "to": "0x90af002ee537ad5c2c9817ebd4ef22b2e8952470",
      "contractAddress": null
    },
    {
      "status": "0x1",
      "cumulativeGasUsed": "0x1a8cb8a",
      "logs": [
        {
          "address": "0xac2e5936eca286ec364d4d5bcca33145fbe57f95",
          "topics": [
            "0xd9fbd8fe4451ae979e36c7923543e61b94e26b6f1510866805ee90023a61aa21",
            "0x0000000000000000000000004c9edd5852cd905f086c759e8383e09bff1e68b3",
            "0x000000000000000000000000435b0a1884bd0fb5667677c9eb0e59425b1477e5"
          ],
          "data": "0x0000000000000000000000000000000000000000000000cb446830d129b8b92a000000000000000000000000000000000000000000000000000000006a2d9367000000000000000000000000000000000000000000000000000000006a2ee4e7",
          "blockHash": "0x524e3163b9d853f798722a89c376491d02fab0050eb9e29a5c706e043ca60c6a",
          "blockNumber": "0x1823365",
          "blockTimestamp": "0x6a2d9367",
          "transactionHash": "0x04b40924077e06516309dde32da65fdddb8096797214267c186aab5992e73f73",
          "transactionIndex": "0xd6",
          "logIndex": "0x37b",
          "removed": false
        }
      ],
      "logsBloom": "0x00000000000000000000000040000000001000000000000000000000000000001000000000000000000000000000080000000000000000000000000000800000000000000000004000000000010000000000000000000000000000000000000000000000000000000000000000000000000000000000000000000000000000000100000000000000000000000000000000000001000000000000000000000000000000000000000000000000000000000000000000000000000000000000020000000004000000000000000000000000000000000000000000000000000000000000000000000000000000000000080000000000000000000000000000000000",
      "type": "0x2",
      "transactionHash": "0x04b40924077e06516309dde32da65fdddb8096797214267c186aab5992e73f73",
      "transactionIndex": "0xd6",
      "blockHash": "0x524e3163b9d853f798722a89c376491d02fab0050eb9e29a5c706e043ca60c6a",
      "blockNumber": "0x1823365",
      "gasUsed": "0xaff9",
      "effectiveGasPrice": "0x7af587e",
      "from": "0xcad1a7864a108dbff67f4b8af71fab0c7a86d0b6",
      "to": "0xac2e5936eca286ec364d4d5bcca33145fbe57f95",
      "contractAddress": null
    }
  ],
  "libraries": [],
  "pending": [],
  "returns": {},
  "timestamp": 1781371752815,
  "chain": 1,
  "commit": "00dd45f"
}