{
  "transactions": [
    {
      "hash": "0x542af1b254ee50ae1e40f05d80e15b6a6a846c6d7652f854a3864f279f4e5120",
      "transactionType": "CALL",
      "contractName": null,
      "contractAddress": "0x90ce274b20a2af4265152b369d09ce6e6dc177f9",
      "function": "totalWithdrawal(address,address)",
      "arguments": [
        "0x865377367054516e17014CcdED1e7d814EDC9ce4",
        "0x435B0A1884bd0fb5667677C9eb0e59425b1477E5"
      ],
      "transaction": {
        "from": "0xcad1a7864a108dbff67f4b8af71fab0c7a86d0b6",
        "to": "0x90ce274b20a2af4265152b369d09ce6e6dc177f9",
        "value": "0x0",
        "input": "0x32e4036d000000000000000000000000865377367054516e17014ccded1e7d814edc9ce4000000000000000000000000435b0a1884bd0fb5667677c9eb0e59425b1477e5",
        "nonce": "0x312",
        "chainId": "0x1"
      },
      "additionalContracts": [],
      "isFixedGasLimit": false
    },
    {
      "hash": "0x4bfa822e29a88d89bfa4b153c3df8c977b3b9e28c963e05bd9bbf516cf7d37d2",
      "transactionType": "CALL",
      "contractName": null,
      "contractAddress": "0x90af002ee537ad5c2c9817ebd4ef22b2e8952470",
      "function": "totalWithdrawal(address,address)",
      "arguments": [
        "0xA0b86991c6218b36c1d19D4a2e9Eb0cE3606eB48",
        "0x435B0A1884bd0fb5667677C9eb0e59425b1477E5"
      ],
      "transaction": {
        "from": "0xcad1a7864a108dbff67f4b8af71fab0c7a86d0b6",
        "to": "0x90af002ee537ad5c2c9817ebd4ef22b2e8952470",
        "value": "0x0",
        "input": "0x32e4036d000000000000000000000000a0b86991c6218b36c1d19d4a2e9eb0ce3606eb48000000000000000000000000435b0a1884bd0fb5667677c9eb0e59425b1477e5",
        "nonce": "0x313",
        "chainId": "0x1"
      },
      "additionalContracts": [],
      "isFixedGasLimit": false
    },
    {
      "hash": "0x2ac5190be13b1a898c5c7bb5caca8edc0dfc2ebc904bab54d0723b9623535a88",
      "transactionType": "CALL",
      "contractName": null,
      "contractAddress": "0xac2e5936eca286ec364d4d5bcca33145fbe57f95",
      "function": "totalWithdrawal(address,address)",
      "arguments": [
        "0x4c9EDD5852cd905f086C759E8383e09bff1E68B3",
        "0x435B0A1884bd0fb5667677C9eb0e59425b1477E5"
      ],
      "transaction": {
        "from": "0xcad1a7864a108dbff67f4b8af71fab0c7a86d0b6",
        "to": "0xac2e5936eca286ec364d4d5bcca33145fbe57f95",
        "value": "0x0",
        "input": "0x32e4036d0000000000000000000000004c9edd5852cd905f086c759e8383e09bff1e68b3000000000000000000000000435b0a1884bd0fb5667677c9eb0e59425b1477e5",
        "nonce": "0x314",
        "chainId": "0x1"
      },
      "additionalContracts": [],
      "isFixedGasLimit": false
    }
  ],
  "receipts": [
    {
      "status": "0x1",
      "cumulativeGasUsed": "0x1c935d7",
      "logs": [
        {
          "address": "0x90ce274b20a2af4265152b369d09ce6e6dc177f9",
          "topics": [
            "0xd9fbd8fe4451ae979e36c7923543e61b94e26b6f1510866805ee90023a61aa21",
            "0x000000000000000000000000865377367054516e17014ccded1e7d814edc9ce4",
            "0x000000000000000000000000435b0a1884bd0fb5667677c9eb0e59425b1477e5"
          ],
          "data": "0x0000000000000000000000000000000000000000000002ecff58a2b07a942d07000000000000000000000000000000000000000000000000000000006a294817000000000000000000000000000000000000000000000000000000006a2a9997",
          "blockHash": "0x4888b26532add585221dcaaee254441fcbfdceb48e2588a406721dddf4e38103",
          "blockNumber": "0x181d82e",
          "blockTimestamp": "0x6a294817",
          "transactionHash": "0x542af1b254ee50ae1e40f05d80e15b6a6a846c6d7652f854a3864f279f4e5120",
          "transactionIndex": "0x115",
          "logIndex": "0x3d8",
          "removed": false
        }
      ],
      "logsBloom": "0x00000000000000000000000040000000000002000000000000000000000000001000000000000000000000000000080000000000000000000000000000800000000000000000000000000000000000000000000000000000000000000000000000000000000000000000000000000000000000000000000000000010000000000100000000000000000000000000000000000000000000000000000000000000000000000000000000000000000000000000000000000000000000000000000000000004001000002000000000000000000000020000000000000000000000000200000000000000000000000000000000000000000000000000000000000000",
      "type": "0x2",
      "transactionHash": "0x542af1b254ee50ae1e40f05d80e15b6a6a846c6d7652f854a3864f279f4e5120",
      "transactionIndex": "0x115",
      "blockHash": "0x4888b26532add585221dcaaee254441fcbfdceb48e2588a406721dddf4e38103",
      "blockNumber": "0x181d82e",
      "gasUsed": "0x18c20",
      "effectiveGasPrice": "0x891b08c",
      "from": "0xcad1a7864a108dbff67f4b8af71fab0c7a86d0b6",
      "to": "0x90ce274b20a2af4265152b369d09ce6e6dc177f9",
      "contractAddress": null
    },
    {
      "status": "0x1",
      "cumulativeGasUsed": "0x1a756fc",
      "logs": [
        {
          "address": "0x90af002ee537ad5c2c9817ebd4ef22b2e8952470",
          "topics": [
            "0xd9fbd8fe4451ae979e36c7923543e61b94e26b6f1510866805ee90023a61aa21",
            "0x000000000000000000000000a0b86991c6218b36c1d19d4a2e9eb0ce3606eb48",
            "0x000000000000000000000000435b0a1884bd0fb5667677c9eb0e59425b1477e5"
          ],
          "data": "0x00000000000000000000000000000000000000000000000000000002c76b7ff4000000000000000000000000000000000000000000000000000000006a29483b000000000000000000000000000000000000000000000000000000006a2a99bb",
          "blockHash": "0x69edc0e6395e2129487e34f02e215ed865b568b30c20e6915570ac89b8e8f326",
          "blockNumber": "0x181d831",
          "blockTimestamp": "0x6a29483b",
          "transactionHash": "0x4bfa822e29a88d89bfa4b153c3df8c977b3b9e28c963e05bd9bbf516cf7d37d2",
          "transactionIndex": "0xa5",
          "logIndex": "0x4c2",
          "removed": false
        }
      ],
      "logsBloom": "0x00000000000000000000000040000000000000000000000000000000000010001000000000000400000002000000080000000000000000000000000000800000000000000000000000000000000000000000000000000000000000000000000000000000000000000000000000000000000000000000000000000000000000000100000000000000000000000000000200000000000000000000000000000000000000000000000000000000000000000000000000000000000000000000000000000004000000000000000000000000000000000000000000000000000000000000000000000000000000000000000004000000000000000000000000000080",
      "type": "0x2",
      "transactionHash": "0x4bfa822e29a88d89bfa4b153c3df8c977b3b9e28c963e05bd9bbf516cf7d37d2",
      "transactionIndex": "0xa5",
      "blockHash": "0x69edc0e6395e2129487e34f02e215ed865b568b30c20e6915570ac89b8e8f326",
      "blockNumber": "0x181d831",
      "gasUsed": "0x18c20",
      "effectiveGasPrice": "0x8564fb3",
      "from": "0xcad1a7864a108dbff67f4b8af71fab0c7a86d0b6",
      "to": "0x90af002ee537ad5c2c9817ebd4ef22b2e8952470",
      "contractAddress": null
    },
    {
      "status": "0x1",
      "cumulativeGasUsed": "0x166b838",
      "logs": [
        {
          "address": "0xac2e5936eca286ec364d4d5bcca33145fbe57f95",
          "topics": [
            "0xd9fbd8fe4451ae979e36c7923543e61b94e26b6f1510866805ee90023a61aa21",
            "0x0000000000000000000000004c9edd5852cd905f086c759e8383e09bff1e68b3",
            "0x000000000000000000000000435b0a1884bd0fb5667677c9eb0e59425b1477e5"
          ],
          "data": "0x0000000000000000000000000000000000000000000000cb446830d129b8b92a000000000000000000000000000000000000000000000000000000006a294847000000000000000000000000000000000000000000000000000000006a2a99c7",
          "blockHash": "0x93a98455c096e4b8b8bdc3cb2da52e51e1da2425724859b60fe4edf00f4f3705",
          "blockNumber": "0x181d832",
          "blockTimestamp": "0x6a294847",
          "transactionHash": "0x2ac5190be13b1a898c5c7bb5caca8edc0dfc2ebc904bab54d0723b9623535a88",
          "transactionIndex": "0xc1",
          "logIndex": "0x33d",
          "removed": false
        }
      ],
      "logsBloom": "0x00000000000000000000000040000000001000000000000000000000000000001000000000000000000000000000080000000000000000000000000000800000000000000000004000000000010000000000000000000000000000000000000000000000000000000000000000000000000000000000000000000000000000000100000000000000000000000000000000000001000000000000000000000000000000000000000000000000000000000000000000000000000000000000020000000004000000000000000000000000000000000000000000000000000000000000000000000000000000000000080000000000000000000000000000000000",
      "type": "0x2",
      "transactionHash": "0x2ac5190be13b1a898c5c7bb5caca8edc0dfc2ebc904bab54d0723b9623535a88",
      "transactionIndex": "0xc1",
      "blockHash": "0x93a98455c096e4b8b8bdc3cb2da52e51e1da2425724859b60fe4edf00f4f3705",
      "blockNumber": "0x181d832",
      "gasUsed": "0x18cd0",
      "effectiveGasPrice": "0x868bce9",
      "from": "0xcad1a7864a108dbff67f4b8af71fab0c7a86d0b6",
      "to": "0xac2e5936eca286ec364d4d5bcca33145fbe57f95",
      "contractAddress": null
    }
  ],
  "libraries": [],
  "pending": [],
  "returns": {},
  "timestamp": 1781090377111,
  "chain": 1,
  "commit": "71723a4"
}