{
  "transactions": [
    {
      "hash": "0x2162a08a231441206a851dcaafc459f62a725d0638373b4818148792a48adae5",
      "transactionType": "CALL",
      "contractName": null,
      "contractAddress": "0xe7aec21bf6420ff483107adcb9360c4b31d69d78",
      "function": "totalWithdrawal(address,address)",
      "arguments": [
        "0x865377367054516e17014CcdED1e7d814EDC9ce4",
        "0x435B0A1884bd0fb5667677C9eb0e59425b1477E5"
      ],
      "transaction": {
        "from": "0xcad1a7864a108dbff67f4b8af71fab0c7a86d0b6",
        "to": "0xe7aec21bf6420ff483107adcb9360c4b31d69d78",
        "value": "0x0",
        "input": "0x32e4036d000000000000000000000000865377367054516e17014ccded1e7d814edc9ce4000000000000000000000000435b0a1884bd0fb5667677c9eb0e59425b1477e5",
        "nonce": "0x291",
        "chainId": "0x1"
      },
      "additionalContracts": [],
      "isFixedGasLimit": false
    },
    {
      "hash": "0x17a0ab0007c9acefd7c2ee8fe0e477b8429d221e8f92824aaa36eeaf86547a1f",
      "transactionType": "CALL",
      "contractName": null,
      "contractAddress": "0x8b4a75290a1c4935ec1dfd990374ac4bd4d33952",
      "function": "totalWithdrawal(address,address)",
      "arguments": [
        "0xA0b86991c6218b36c1d19D4a2e9Eb0cE3606eB48",
        "0x435B0A1884bd0fb5667677C9eb0e59425b1477E5"
      ],
      "transaction": {
        "from": "0xcad1a7864a108dbff67f4b8af71fab0c7a86d0b6",
        "to": "0x8b4a75290a1c4935ec1dfd990374ac4bd4d33952",
        "value": "0x0",
        "input": "0x32e4036d000000000000000000000000a0b86991c6218b36c1d19d4a2e9eb0ce3606eb48000000000000000000000000435b0a1884bd0fb5667677c9eb0e59425b1477e5",
        "nonce": "0x292",
        "chainId": "0x1"
      },
      "additionalContracts": [],
      "isFixedGasLimit": false
    },
    {
      "hash": "0x469418bf94093acc572508201e54f1ee0eb2d6c98cb996259dacbdb8e21cade5",
      "transactionType": "CALL",
      "contractName": null,
      "contractAddress": "0xfc629bc5f6339f77635f4f656fbb114a31f7bcb3",
      "function": "totalWithdrawal(address,address)",
      "arguments": [
        "0x4c9EDD5852cd905f086C759E8383e09bff1E68B3",
        "0x435B0A1884bd0fb5667677C9eb0e59425b1477E5"
      ],
      "transaction": {
        "from": "0xcad1a7864a108dbff67f4b8af71fab0c7a86d0b6",
        "to": "0xfc629bc5f6339f77635f4f656fbb114a31f7bcb3",
        "value": "0x0",
        "input": "0x32e4036d0000000000000000000000004c9edd5852cd905f086c759e8383e09bff1e68b3000000000000000000000000435b0a1884bd0fb5667677c9eb0e59425b1477e5",
        "nonce": "0x293",
        "chainId": "0x1"
      },
      "additionalContracts": [],
      "isFixedGasLimit": false
    }
  ],
  "receipts": [
    {
      "status": "0x1",
      "cumulativeGasUsed": "0x221e275",
      "logs": [
        {
          "address": "0xe7aec21bf6420ff483107adcb9360c4b31d69d78",
          "topics": [
            "0xd9fbd8fe4451ae979e36c7923543e61b94e26b6f1510866805ee90023a61aa21",
            "0x000000000000000000000000865377367054516e17014ccded1e7d814edc9ce4",
            "0x000000000000000000000000435b0a1884bd0fb5667677c9eb0e59425b1477e5"
          ],
          "data": "0x0000000000000000000000000000000000000000000002ee779565c9a744530b000000000000000000000000000000000000000000000000000000006a24c88f000000000000000000000000000000000000000000000000000000006a261a0f",
          "blockHash": "0x54169e636a5a4bd62e3a0d2de7d62d46e14e940c3505e7afb31721f31fa4b624",
          "blockNumber": "0x181788e",
          "blockTimestamp": "0x6a24c88f",
          "transactionHash": "0x2162a08a231441206a851dcaafc459f62a725d0638373b4818148792a48adae5",
          "transactionIndex": "0xbc",
          "logIndex": "0x5ca",
          "removed": false
        }
      ],
      "logsBloom": "0x00000000000000000000000040000000000000000000000000000000000000001000000000000000000000000000080000000000000000000000000000800000000000000000000000000000000000000000000000000000000000000000000000000000000000000000010000000000000000000000000000000010000000000180000000000000000000000000000000000000000000000000000000000000000000000000000000000000000000000000000000000000000000000000000000000004001000000000000000000000000000020000000000000000000002000000000000000000000000000000000000000000000000000000000000000000",
      "type": "0x2",
      "transactionHash": "0x2162a08a231441206a851dcaafc459f62a725d0638373b4818148792a48adae5",
      "transactionIndex": "0xbc",
      "blockHash": "0x54169e636a5a4bd62e3a0d2de7d62d46e14e940c3505e7afb31721f31fa4b624",
      "blockNumber": "0x181788e",
      "gasUsed": "0xb8ff",
      "effectiveGasPrice": "0x378243c",
      "from": "0xcad1a7864a108dbff67f4b8af71fab0c7a86d0b6",
      "to": "0xe7aec21bf6420ff483107adcb9360c4b31d69d78",
      "contractAddress": null
    },
    {
      "status": "0x1",
      "cumulativeGasUsed": "0x30e9123",
      "logs": [
        {
          "address": "0x8b4a75290a1c4935ec1dfd990374ac4bd4d33952",
          "topics": [
            "0xd9fbd8fe4451ae979e36c7923543e61b94e26b6f1510866805ee90023a61aa21",
            "0x000000000000000000000000a0b86991c6218b36c1d19d4a2e9eb0ce3606eb48",
            "0x000000000000000000000000435b0a1884bd0fb5667677c9eb0e59425b1477e5"
          ],
          "data": "0x00000000000000000000000000000000000000000000000000000002c752b738000000000000000000000000000000000000000000000000000000006a24c8bf000000000000000000000000000000000000000000000000000000006a261a3f",
          "blockHash": "0x8da09765511b18126ad72981dce4f6c53cd1d6ee27917262ca9eeac37188f79f",
          "blockNumber": "0x1817892",
          "blockTimestamp": "0x6a24c8bf",
          "transactionHash": "0x17a0ab0007c9acefd7c2ee8fe0e477b8429d221e8f92824aaa36eeaf86547a1f",
          "transactionIndex": "0x186",
          "logIndex": "0x74f",
          "removed": false
        }
      ],
      "logsBloom": "0x00000000000000000000000040000000000000000000000000000000000000001000000000000000000002000000080000000000000000000000000000800000000000000000000000000000000000000000000000000000000000000000000000000000000000000000000000000000000000000000000000000000000000000100000000000000000000000000000200000000000000000000000000000000000000000000000200000000000000000000000000000000000000002400000000000004000000000000000000000000000000000000000000000000000000000000000000000000000000000000000004000000000000000000000000000000",
      "type": "0x2",
      "transactionHash": "0x17a0ab0007c9acefd7c2ee8fe0e477b8429d221e8f92824aaa36eeaf86547a1f",
      "transactionIndex": "0x186",
      "blockHash": "0x8da09765511b18126ad72981dce4f6c53cd1d6ee27917262ca9eeac37188f79f",
      "blockNumber": "0x1817892",
      "gasUsed": "0xb8ff",
      "effectiveGasPrice": "0x365556c",
      "from": "0xcad1a7864a108dbff67f4b8af71fab0c7a86d0b6",
      "to": "0x8b4a75290a1c4935ec1dfd990374ac4bd4d33952",
      "contractAddress": null
    },
    {
      "status": "0x1",
      "cumulativeGasUsed": "0x1f05c93",
      "logs": [
        {
          "address": "0xfc629bc5f6339f77635f4f656fbb114a31f7bcb3",
          "topics": [
            "0xd9fbd8fe4451ae979e36c7923543e61b94e26b6f1510866805ee90023a61aa21",
            "0x0000000000000000000000004c9edd5852cd905f086c759e8383e09bff1e68b3",
            "0x000000000000000000000000435b0a1884bd0fb5667677c9eb0e59425b1477e5"
          ],
          "data": "0x0000000000000000000000000000000000000000000000cc0afa2bc56cdc9931000000000000000000000000000000000000000000000000000000006a24c8cb000000000000000000000000000000000000000000000000000000006a261a4b",
          "blockHash": "0x44c133574d9bb0b076aca7618c346067d74f97a0d828d89001c2fd3bd2fa6dad",
          "blockNumber": "0x1817893",
          "blockTimestamp": "0x6a24c8cb",
          "transactionHash": "0x469418bf94093acc572508201e54f1ee0eb2d6c98cb996259dacbdb8e21cade5",
          "transactionIndex": "0x9b",
          "logIndex": "0x51c",
          "removed": false
        }
      ],
      "logsBloom": "0x00000000000000000000000040000000000000000000000000000000000000001000000000000000000000000000080000000000000000000000000000800000000000000000000000000000000000000000000000000000000000000000000000000000000000000000000000000000000000000000000000000000000000000100000000000000000000000000000000000001000000000000000000000000000000000000000000000000000040000000000000000000000000000000020000000004000000000000000000000800000000000000000000000000000000000000000000000000800000000000080000000000000000000000000000000000",
      "type": "0x2",
      "transactionHash": "0x469418bf94093acc572508201e54f1ee0eb2d6c98cb996259dacbdb8e21cade5",
      "transactionIndex": "0x9b",
      "blockHash": "0x44c133574d9bb0b076aca7618c346067d74f97a0d828d89001c2fd3bd2fa6dad",
      "blockNumber": "0x1817893",
      "gasUsed": "0xaebf",
      "effectiveGasPrice": "0x3c18cd1",
      "from": "0xcad1a7864a108dbff67f4b8af71fab0c7a86d0b6",
      "to": "0xfc629bc5f6339f77635f4f656fbb114a31f7bcb3",
      "contractAddress": null
    }
  ],
  "libraries": [],
  "pending": [],
  "returns": {},
  "timestamp": 1780795595936,
  "chain": 1,
  "commit": "01f6d19"
}