{
  "transactions": [
    {
      "hash": "0xdefb8753fefbe5e78354019688b835ae389eaef93a3d5867e50e8ee733a3ea65",
      "transactionType": "CALL",
      "contractName": null,
      "contractAddress": "0xe7aec21bf6420ff483107adcb9360c4b31d69d78",
      "function": "totalWithdrawal(address,address)",
      "arguments": [
        "0x865377367054516e17014CcdED1e7d814EDC9ce4",
        "0x435B0A1884bd0fb5667677C9eb0e59425b1477E5"
      ],
      "transaction": {
        "from": "0xcad1a7864a108dbff67f4b8af71fab0c7a86d0b6",
        "to": "0xe7aec21bf6420ff483107adcb9360c4b31d69d78",
        "value": "0x0",
        "input": "0x32e4036d000000000000000000000000865377367054516e17014ccded1e7d814edc9ce4000000000000000000000000435b0a1884bd0fb5667677c9eb0e59425b1477e5",
        "nonce": "0x235",
        "chainId": "0x1"
      },
      "additionalContracts": [],
      "isFixedGasLimit": false
    },
    {
      "hash": "0x28196fcb08147b5039e3dbb212a5ffd1cf279ab89368e0a0e649e284f911ffee",
      "transactionType": "CALL",
      "contractName": null,
      "contractAddress": "0x8b4a75290a1c4935ec1dfd990374ac4bd4d33952",
      "function": "totalWithdrawal(address,address)",
      "arguments": [
        "0xA0b86991c6218b36c1d19D4a2e9Eb0cE3606eB48",
        "0x435B0A1884bd0fb5667677C9eb0e59425b1477E5"
      ],
      "transaction": {
        "from": "0xcad1a7864a108dbff67f4b8af71fab0c7a86d0b6",
        "to": "0x8b4a75290a1c4935ec1dfd990374ac4bd4d33952",
        "value": "0x0",
        "input": "0x32e4036d000000000000000000000000a0b86991c6218b36c1d19d4a2e9eb0ce3606eb48000000000000000000000000435b0a1884bd0fb5667677c9eb0e59425b1477e5",
        "nonce": "0x236",
        "chainId": "0x1"
      },
      "additionalContracts": [],
      "isFixedGasLimit": false
    },
    {
      "hash": "0x02ccfa1ab05e82899f825decf91cc75c601ce1d7603d68253b7bec8095e53ad8",
      "transactionType": "CALL",
      "contractName": null,
      "contractAddress": "0xfc629bc5f6339f77635f4f656fbb114a31f7bcb3",
      "function": "totalWithdrawal(address,address)",
      "arguments": [
        "0x4c9EDD5852cd905f086C759E8383e09bff1E68B3",
        "0x435B0A1884bd0fb5667677C9eb0e59425b1477E5"
      ],
      "transaction": {
        "from": "0xcad1a7864a108dbff67f4b8af71fab0c7a86d0b6",
        "to": "0xfc629bc5f6339f77635f4f656fbb114a31f7bcb3",
        "value": "0x0",
        "input": "0x32e4036d0000000000000000000000004c9edd5852cd905f086c759e8383e09bff1e68b3000000000000000000000000435b0a1884bd0fb5667677c9eb0e59425b1477e5",
        "nonce": "0x237",
        "chainId": "0x1"
      },
      "additionalContracts": [],
      "isFixedGasLimit": false
    }
  ],
  "receipts": [
    {
      "status": "0x1",
      "cumulativeGasUsed": "0x2fb7088",
      "logs": [
        {
          "address": "0xe7aec21bf6420ff483107adcb9360c4b31d69d78",
          "topics": [
            "0xd9fbd8fe4451ae979e36c7923543e61b94e26b6f1510866805ee90023a61aa21",
            "0x000000000000000000000000865377367054516e17014ccded1e7d814edc9ce4",
            "0x000000000000000000000000435b0a1884bd0fb5667677c9eb0e59425b1477e5"
          ],
          "data": "0x0000000000000000000000000000000000000000000002d28c6a305f24c587b4000000000000000000000000000000000000000000000000000000006a1fa5db000000000000000000000000000000000000000000000000000000006a20f75b",
          "blockHash": "0xfe04923b1cad28f93e8a9895d2fdb3d446757fb1ce38029bd8664a3713aa62c1",
          "blockNumber": "0x1810b8a",
          "blockTimestamp": "0x6a1fa5db",
          "transactionHash": "0xdefb8753fefbe5e78354019688b835ae389eaef93a3d5867e50e8ee733a3ea65",
          "transactionIndex": "0x123",
          "logIndex": "0x581",
          "removed": false
        }
      ],
      "logsBloom": "0x00000000000000000000000040000000000000000000000000000000000000001000000000000000000000000000080000000000000000000000000000800000000000000000000000000000000000000000000000000000000000000000000000000000000000000000010000000000000000000000000000000010000000000180000000000000000000000000000000000000000000000000000000000000000000000000000000000000000000000000000000000000000000000000000000000004001000000000000000000000000000020000000000000000000002000000000000000000000000000000000000000000000000000000000000000000",
      "type": "0x2",
      "transactionHash": "0xdefb8753fefbe5e78354019688b835ae389eaef93a3d5867e50e8ee733a3ea65",
      "transactionIndex": "0x123",
      "blockHash": "0xfe04923b1cad28f93e8a9895d2fdb3d446757fb1ce38029bd8664a3713aa62c1",
      "blockNumber": "0x1810b8a",
      "gasUsed": "0x18ae6",
      "effectiveGasPrice": "0x20c744d6",
      "from": "0xcad1a7864a108dbff67f4b8af71fab0c7a86d0b6",
      "to": "0xe7aec21bf6420ff483107adcb9360c4b31d69d78",
      "contractAddress": null
    },
    {
      "status": "0x1",
      "cumulativeGasUsed": "0xf39716",
      "logs": [
        {
          "address": "0x8b4a75290a1c4935ec1dfd990374ac4bd4d33952",
          "topics": [
            "0xd9fbd8fe4451ae979e36c7923543e61b94e26b6f1510866805ee90023a61aa21",
            "0x000000000000000000000000a0b86991c6218b36c1d19d4a2e9eb0ce3606eb48",
            "0x000000000000000000000000435b0a1884bd0fb5667677c9eb0e59425b1477e5"
          ],
          "data": "0x00000000000000000000000000000000000000000000000000000002c15cd638000000000000000000000000000000000000000000000000000000006a1fa5f3000000000000000000000000000000000000000000000000000000006a20f773",
          "blockHash": "0x1f1e87e48d8ae1881f0655c4e66d44eead06cd40115524eaf1ad2804ee361b44",
          "blockNumber": "0x1810b8c",
          "blockTimestamp": "0x6a1fa5f3",
          "transactionHash": "0x28196fcb08147b5039e3dbb212a5ffd1cf279ab89368e0a0e649e284f911ffee",
          "transactionIndex": "0xa5",
          "logIndex": "0x183",
          "removed": false
        }
      ],
      "logsBloom": "0x00000000000000000000000040000000000000000000000000000000000000001000000000000000000002000000080000000000000000000000000000800000000000000000000000000000000000000000000000000000000000000000000000000000000000000000000000000000000000000000000000000000000000000100000000000000000000000000000200000000000000000000000000000000000000000000000200000000000000000000000000000000000000002400000000000004000000000000000000000000000000000000000000000000000000000000000000000000000000000000000004000000000000000000000000000000",
      "type": "0x2",
      "transactionHash": "0x28196fcb08147b5039e3dbb212a5ffd1cf279ab89368e0a0e649e284f911ffee",
      "transactionIndex": "0xa5",
      "blockHash": "0x1f1e87e48d8ae1881f0655c4e66d44eead06cd40115524eaf1ad2804ee361b44",
      "blockNumber": "0x1810b8c",
      "gasUsed": "0x18ae6",
      "effectiveGasPrice": "0x22dc0808",
      "from": "0xcad1a7864a108dbff67f4b8af71fab0c7a86d0b6",
      "to": "0x8b4a75290a1c4935ec1dfd990374ac4bd4d33952",
      "contractAddress": null
    },
    {
      "status": "0x1",
      "cumulativeGasUsed": "0x1cd092c",
      "logs": [
        {
          "address": "0xfc629bc5f6339f77635f4f656fbb114a31f7bcb3",
          "topics": [
            "0xd9fbd8fe4451ae979e36c7923543e61b94e26b6f1510866805ee90023a61aa21",
            "0x0000000000000000000000004c9edd5852cd905f086c759e8383e09bff1e68b3",
            "0x000000000000000000000000435b0a1884bd0fb5667677c9eb0e59425b1477e5"
          ],
          "data": "0x0000000000000000000000000000000000000000000000cc0afa2bc56cdc9931000000000000000000000000000000000000000000000000000000006a1fa5ff000000000000000000000000000000000000000000000000000000006a20f77f",
          "blockHash": "0x4662df4952016ddad07232cf9819ba76dbf8dcffccf6a0bd189f1fc30891e5e4",
          "blockNumber": "0x1810b8d",
          "blockTimestamp": "0x6a1fa5ff",
          "transactionHash": "0x02ccfa1ab05e82899f825decf91cc75c601ce1d7603d68253b7bec8095e53ad8",
          "transactionIndex": "0xe4",
          "logIndex": "0x2e3",
          "removed": false
        }
      ],
      "logsBloom": "0x00000000000000000000000040000000000000000000000000000000000000001000000000000000000000000000080000000000000000000000000000800000000000000000000000000000000000000000000000000000000000000000000000000000000000000000000000000000000000000000000000000000000000000100000000000000000000000000000000000001000000000000000000000000000000000000000000000000000040000000000000000000000000000000020000000004000000000000000000000800000000000000000000000000000000000000000000000000800000000000080000000000000000000000000000000000",
      "type": "0x2",
      "transactionHash": "0x02ccfa1ab05e82899f825decf91cc75c601ce1d7603d68253b7bec8095e53ad8",
      "transactionIndex": "0xe4",
      "blockHash": "0x4662df4952016ddad07232cf9819ba76dbf8dcffccf6a0bd189f1fc30891e5e4",
      "blockNumber": "0x1810b8d",
      "gasUsed": "0x18b96",
      "effectiveGasPrice": "0x214a5eae",
      "from": "0xcad1a7864a108dbff67f4b8af71fab0c7a86d0b6",
      "to": "0xfc629bc5f6339f77635f4f656fbb114a31f7bcb3",
      "contractAddress": null
    }
  ],
  "libraries": [],
  "pending": [],
  "returns": {},
  "timestamp": 1780459009807,
  "chain": 1,
  "commit": "0efd05b"
}